{"abi":[{"type":"fallback","stateMutability":"payable"},{"type":"function","name":"associateToken","inputs":[{"name":"","type":"address","internalType":"address"},{"name":"","type":"address","internalType":"address"}],"outputs":[{"name":"responseCode","type":"int256","internalType":"int256"}],"stateMutability":"nonpayable"},{"type":"function","name":"burnToken","inputs":[{"name":"","type":"address","internalType":"address"},{"name":"","type":"int64","internalType":"int64"},{"name":"","type":"int64[]","internalType":"int64[]"}],"outputs":[{"name":"responseCode","type":"int64","internalType":"int64"},{"name":"newTotalSupply","type":"int64","internalType":"int64"}],"stateMutability":"nonpayable"},{"type":"function","name":"createFungibleToken","inputs":[{"name":"","type":"tuple","internalType":"struct IHederaTokenService.HederaToken","components":[{"name":"name","type":"string","internalType":"string"},{"name":"symbol","type":"string","internalType":"string"},{"name":"treasury","type":"address","internalType":"address"},{"name":"memo","type":"string","internalType":"string"},{"name":"tokenSupplyType","type":"bool","internalType":"bool"},{"name":"maxSupply","type":"int64","internalType":"int64"},{"name":"freezeDefault","type":"bool","internalType":"bool"},{"name":"tokenKeys","type":"tuple[]","internalType":"struct IHederaTokenService.TokenKey[]","components":[{"name":"keyType","type":"uint256","internalType":"uint256"},{"name":"key","type":"tuple","internalType":"struct IHederaTokenService.KeyValue","components":[{"name":"inheritAccountKey","type":"bool","internalType":"bool"},{"name":"contractId","type":"address","internalType":"address"},{"name":"ed25519","type":"bytes","internalType":"bytes"},{"name":"ECDSA_secp256k1","type":"bytes","internalType":"bytes"},{"name":"delegatableContractId","type":"address","internalType":"address"}]}]},{"name":"expiry","type":"tuple","internalType":"struct IHederaTokenService.Expiry","components":[{"name":"second","type":"int64","internalType":"int64"},{"name":"autoRenewAccount","type":"address","internalType":"address"},{"name":"autoRenewPeriod","type":"int64","internalType":"int64"}]}]},{"name":"","type":"uint256","internalType":"uint256"},{"name":"","type":"uint256","internalType":"uint256"}],"outputs":[{"name":"responseCode","type":"int256","internalType":"int256"},{"name":"tokenAddress","type":"address","internalType":"address"}],"stateMutability":"payable"},{"type":"function","name":"mintToken","inputs":[{"name":"","type":"address","internalType":"address"},{"name":"","type":"int64","internalType":"int64"},{"name":"","type":"bytes[]","internalType":"bytes[]"}],"outputs":[{"name":"responseCode","type":"int64","internalType":"int64"},{"name":"newTotalSupply","type":"int64","internalType":"int64"},{"name":"serialNumbers","type":"int64[]","internalType":"int64[]"}],"stateMutability":"nonpayable"}],"bytecode":{"object":"0x6080806040523461001657610737908161001b8239f35b5f80fdfe6080604052600436106106f4575f803560e01c90816349146bde1461004e57508063d6910d0614610049578063e0f4059a146100445763ea996f35036106f45761052e565b6102d7565b61017b565b3461008557604036600319011261008557610067610088565b506024356001600160a01b0381160361008557601660805260206080f35b80fd5b600435906001600160a01b038216820361009e57565b5f80fd5b35906001600160a01b038216820361009e57565b602435908160070b820361009e57565b35908160070b820361009e57565b634e487b7160e01b5f52604160045260245ffd5b604081019081106001600160401b0382111761010357604052565b6100d4565b60a081019081106001600160401b0382111761010357604052565b90601f801991011681019081106001600160401b0382111761010357604052565b6040519061012082018281106001600160401b0382111761010357604052565b6001600160401b0381116101035760051b60200190565b3461009e57606036600319011261009e57610194610088565b5061019d6100b6565b506044356001600160401b03811161009e573660238201121561009e578060040135906101c982610164565b916101d76040519384610123565b808352602460208094019160051b8301019136831161009e57602401905b828210610219576040518061021581905f60206040840193601681520152565b0390f35b838091610225846100c6565b8152019101906101f5565b81601f8201121561009e578035906001600160401b0382116101035760405192610264601f8401601f191660200185610123565b8284526020838301011161009e57815f926020809301838601378301015290565b90916060820190600793840b835260806020938492860b83820152606060408201528651809452019401915f5b8281106102c157505050505090565b8351850b865294810194928101926001016102b2565b3461009e57606036600319011261009e576102f0610088565b506102f96100b6565b506001600160401b0360443581811161009e573660238201121561009e57806004013561032581610164565b926103336040519485610123565b8184526020809401906024809360051b8501019336851161009e57838101925b858410610374576102156103656106c9565b60409391935193849384610285565b833583811161009e57879161038f8392883691870101610230565b815201930192610353565b3590811515820361009e57565b9080601f8301121561009e578135906103bf82610164565b926040926103cf84519586610123565b808552602093848087019260051b8401019380851161009e57858401925b8584106103fe575050505050505090565b6001600160401b03843581811161009e57860191601f19928584828703011261009e5785519061042d826100e8565b8a8101358252868101359084821161009e57019360a08091868803011261009e5786519061045a82610108565b6104658c870161039a565b82526104728887016100a2565b8c8301526060948587013581811161009e57888e610492928a0101610230565b898401526080918288013591821161009e57878e98976104ba8b8b6104c496819c0101610230565b90860152016100a2565b90820152838201528152019301926103ed565b919082606091031261009e57604051606081018181106001600160401b03821117610103576040526040610529818395610510816100c6565b855261051e602082016100a2565b6020860152016100c6565b910152565b60031960603682011261009e5760048035916001600160401b039081841161009e5761016090843603011261009e57610565610144565b928083013582811161009e5761058090843691840101610230565b8452602481013582811161009e5761059d90843691840101610230565b60208501526105ae604482016100a2565b6040850152606481013582811161009e576105ce90843691840101610230565b60608501526105df6084820161039a565b60808501526105f060a482016100c6565b60a085015261060160c4820161039a565b60c085015260e481013591821161009e57610627610637926101009436918401016103a7565b60e08501526101043691016104d7565b91015261064261065d565b604080519283526001600160a01b0391909116602083015290f35b5f545f1981146106b557600101805f5560405190602082019081524260408301523360601b606083015260548252608082018281106001600160401b038211176101035760405260018060a01b039151902016601691565b634e487b7160e01b5f52601160045260245ffd5b604051602081018181106001600160401b03821117610103576040525f81525f3681376016915f9190565b60165f523360205260405ff3fea26469706673582212202d0c6441203c4d427982590e798c86f8c193ba7e14884579c7d8acddf141026f64736f6c63430008140033","linkReferences":{}},"methodIdentifiers":{"associateToken(address,address)":"49146bde","burnToken(address,int64,int64[])":"d6910d06","createFungibleToken((string,string,address,string,bool,int64,bool,(uint256,(bool,address,bytes,bytes,address))[],(int64,address,int64)),uint256,uint256)":"ea996f35","mintToken(address,int64,bytes[])":"e0f4059a"},"id":69}