{"abi":[{"type":"constructor","inputs":[],"stateMutability":"nonpayable"},{"type":"function","name":"createAsset","inputs":[{"name":"_name","type":"string","internalType":"string"},{"name":"_symbol","type":"string","internalType":"string"},{"name":"aclContract","type":"address","internalType":"address"},{"name":"allowList","type":"uint64","internalType":"uint64"}],"outputs":[{"name":"","type":"address","internalType":"address"}],"stateMutability":"payable"}],"bytecode":{"object":"0x608080604052346100165761205c908161001b8239f35b5f80fdfe60806040526004361015610011575f80fd5b5f803560e01c63daa96e1914610025575f80fd5b60803660031901126101265767ffffffffffffffff60043581811161012257610052903690600401610129565b60243582811161011e5761006a903690600401610129565b6001600160a01b039260443584811692919083900361011a57606435918183168093036101165760405194611e4580870193841187851017610102576060926100c988979695936100d793620001e28a396080855260808501906101a3565b9083820360208501526101a3565b9360408201520152039034f09081156100f7576020925060405191168152f35b6040513d84823e3d90fd5b634e487b7160e01b89526041600452602489fd5b8680fd5b8580fd5b8380fd5b8280fd5b80fd5b81601f8201121561018b5780359067ffffffffffffffff9283831161018f5760405193601f8401601f19908116603f011685019081118582101761018f576040528284526020838301011161018b57815f926020809301838601378301015290565b5f80fd5b634e487b7160e01b5f52604160045260245ffd5b91908251928382525f5b8481106101cd575050825f602080949584010152601f8019910116010190565b6020818301810151848301820152016101ad56fe60808060405262001e4580380380916200001a828562000857565b83398101608082820312620006fb5781516001600160401b038111620006fb578162000048918401620008ba565b602083015190916001600160401b038211620006fb576200006b918401620008ba565b604083015190926001600160a01b0382168203620006fb57606001516001600160401b03811690819003620006fb57600160208181525f8051602062001d658339815191529190915560025f8051602062001d858339815191525560045f8051602062001e058339815191525560085f8051602062001dc58339815191525560105f8051602062001da5833981519152555f8051602062001e258339815191525560065f81905260405f8051602062001de5833981519152558111620007f757600280546001600160e01b03191691909117604092831b600160401b600160e01b0316179055519161012083016001600160401b03811184821017620007e35760405260608352606060208401525f60408401526060808401525f60808401525f60a08401525f60c0840152606060e0840152620001a862000907565b91610100928385015283526020830152306040830152620001c862000907565b30602082015262786450604082015281830152604051808281011060018060401b038383011117620007e357818101604052600781525f5b60e08110620007c957506200021462000972565b505f805260016020525f8051602062001d65833981519152546200023762000936565b306020820152604051916200024c836200083b565b825260208201526200025e8262000996565b526200026a8162000996565b506200027562000972565b5060015f8190526020525f8051602062001d85833981519152546200029962000936565b30602082015260405191620002ae836200083b565b82526020820152620002c082620009b8565b52620002cc81620009b8565b50620002d762000972565b5060025f5260016020525f8051602062001e0583398151915254620002fb62000936565b3060208201526040519162000310836200083b565b825260208201526200032282620009c9565b526200032e81620009c9565b506200033962000972565b5060035f5260016020525f8051602062001dc5833981519152546200035d62000936565b3060208201526040519162000372836200083b565b825260208201526200038482620009da565b526200039081620009da565b506200039b62000972565b5060045f5260016020525f8051602062001da583398151915254620003bf62000936565b30602082015260405191620003d4836200083b565b82526020820152620003e682620009eb565b52620003f281620009eb565b50620003fd62000972565b5060055f5260016020525f8051602062001e25833981519152546200042162000936565b3060208201526040519162000436836200083b565b825260208201526200044882620009fc565b526200045481620009fc565b506200045f62000972565b5060065f5260016020525f8051602062001de5833981519152546200048362000936565b3060208201526040519162000498836200083b565b82526020820152620004aa8262000a0d565b52620004b68162000a0d565b5060e083015280820151805160070b1580620007b9575b620007a9575b5060405190630fb65bf360e01b6020830152606060248301526200054f620005256200050e855161016060848701526101e486019062000a1e565b60208601518582036083190160a487015262000a1e565b60408501516001600160a01b031660c485015260608501518482036083190160e486015262000a1e565b926080810151151561010484015260a081015160070b61012484015260c0810151151561014484015260e08101519360831984820301610164850152845180825260208201916020808360051b8301019701925f915b83831062000714575f808962000601818d60408d8d0151805160070b61018485015260018060a01b036020820151166101a4850152015160070b6101c48301528460448301526008606483015203601f19810183528262000857565b602081519101346101675af13d156200070b573d9062000621826200087b565b9162000631604051938462000857565b82523d5f602084013e5b15620006ff57604081805181010312620006fb576020810151908160030b809203620006fb57604001516001600160a01b0381169190829003620006fb576016905b60030b03620006b657600380546001600160a01b0319166001600160a01b039290921691909117905560405161131f908162000a468239f35b60405162461bcd60e51b815260206004820152601660248201527f4661696c656420746f2063726561746520746f6b656e000000000000000000006044820152606490fd5b5f80fd5b505f601660156200067d565b6060906200063b565b9091929397602080600192601f19858203018652818c5180518352015190604083820152815115156040820152848060a01b038383015116606082015260c06200078962000772604085015160a0608086015260e085019062000a1e565b6060850151848203603f190160a086015262000a1e565b926080878060a01b03910151169101529a019301930191939290620005a5565b60406276a7009101525f620004d3565b50604081015160070b15620004cd565b602090620007d662000972565b8282850101520162000200565b634e487b7160e01b5f52604160045260245ffd5b606460405162461bcd60e51b815260206004820152602060248201527f496e76616c696420636f6e74726f6c20616c6c6f77206c697374206c6576656c6044820152fd5b604081019081106001600160401b03821117620007e357604052565b601f909101601f19168101906001600160401b03821190821017620007e357604052565b6001600160401b038111620007e357601f01601f191660200190565b5f5b838110620008a95750505f910152565b818101518382015260200162000899565b81601f82011215620006fb578051620008d3816200087b565b92620008e3604051948562000857565b81845260208284010111620006fb5762000904916020808501910162000897565b90565b60405190606082016001600160401b03811183821017620007e3576040525f6040838281528260208201520152565b6040519060a082016001600160401b03811183821017620007e3576040525f608083828152826020820152606060408201526060808201520152565b6040519062000981826200083b565b815f815260206200099162000936565b910152565b805115620009a45760200190565b634e487b7160e01b5f52603260045260245ffd5b805160011015620009a45760400190565b805160021015620009a45760600190565b805160031015620009a45760800190565b805160041015620009a45760a00190565b805160051015620009a45760c00190565b805160061015620009a45760e00190565b9060209162000a398151809281855285808601910162000897565b601f01601f191601019056fe6080806040526004361015610012575f80fd5b5f3560e01c90816315dacbea14610f6257508063618dc65e14610e195780637276ecca14610c675780637349da0a146107cf5780639b23d3d9146107225780639dbead421461051c578063a1d34a42146103f5578063c7ea4d44146103cf578063de287359146103a5578063fb9d09c8146100c15763fc0c546a14610095575f80fd5b346100bd575f3660031901126100bd576003546040516001600160a01b039091168152602090f35b5f80fd5b346100bd576020806003193601126100bd576100db6110da565b600254906001600160401b03906100f38284166111d3565b5f936001600160a01b039160409190911c821690855b8151811015610396579081888761012461015496958561116c565b51604051636bf8e80f60e01b815291166001600160401b0316600482015233602482015294859081906044820190565b0381865afa801561038b5789945f9161035e575b5061017f576101769061112d565b90919250610109565b50505050909192506101916001611198565b600354166040516101a18161102a565b5f815260405191848684019463707a02cd60e11b8652608485019260248601521660070b604484015260606064840152815180915260a48301908660a48260051b8601019301915f905b8883831061033557885f808a8a61020b818c03601f198101835282611060565b5190826101675af161021b6110f0565b901561031c5780518101916060828585019403126100bd5761023e84830161111f565b9161024b6040820161129e565b506060810151908282116100bd57019083603f830112156100bd5784820151908111610308576040858260051b9282519061028883860183611060565b815201918301019384116100bd576040859201905b8482106102f157505050601691505b60030b036102b657005b6064906040519062461bcd60e51b82526004820152601460248201527311985a5b1959081d1bc81b5a5b9d08185cdcd95d60621b6044820152fd5b8280916102fd8461129e565b81520191019061029d565b634e487b7160e01b5f52604160045260245ffd5b50505f60405161032b8161102a565b52601660156102ac565b806103506001939495969760a3198a8203018652885161109c565b9601920192019092916101eb565b61037e9150853d8711610384575b6103768183611060565b810190611180565b8a610168565b503d61036c565b6040513d5f823e3d90fd5b50505090919261019190611198565b346100bd575f3660031901126100bd576002546040805191901c6001600160a01b03168152602090f35b346100bd575f3660031901126100bd5760206001600160401b0360025416604051908152f35b346100bd576020806003193601126100bd5761040f6110da565b6002546001600160401b036104258183166111d3565b5f9390604084901c6001600160a01b031690855b815181101561050d579081888661012461045496958561116c565b0381865afa801561038b5789945f916104f0575b5061047f576104769061112d565b90919250610439565b50505050909192506104916001611198565b1691600683116104ad575067ffffffffffffffff191617600255005b6064906040519062461bcd60e51b825280600483015260248201527f496e76616c696420636f6e74726f6c20616c6c6f77206c697374206c6576656c6044820152fd5b6105079150853d8711610384576103768183611060565b8a610468565b50505090919261049190611198565b346100bd576020806003193601126100bd576105366110da565b90600254906001600160401b0361054e8184166111d3565b5f936001600160a01b039160409190911c821690855b8151811015610713576105ac868661057c848661116c565b51604051636bf8e80f60e01b815291166001600160401b0316600482015233602482015291829081906044820190565b0381875afa90811561038b575f916106f6575b506105d2576105cd9061112d565b610564565b505050909192506105e36001611198565b600354166040516105f38161102a565b5f81526040519184830193636b48868360e11b85526084840191602485015260079616860b60448401526060606484015281518091528460a484019201905f5b8181106106e057865f808888610652818a03601f198101835282611060565b5190826101675af16106626110f0565b90156106d6576040818051810103126100bd578061068f6040610688856016950161111f565b920161129e565b505b60030b0361069b57005b6064906040519062461bcd60e51b82526004820152601460248201527311985a5b1959081d1bc8189d5c9b88185cdcd95d60621b6044820152fd5b5060166015610691565b8251880b84529286019291860191600101610633565b61070d9150873d8911610384576103768183611060565b896105bf565b5050509091926105e390611198565b346100bd575f8061078a61077c61073836610fce565b604051639b23d3d960e01b602082019081526001600160a01b03958616602483015293851660448201529390911660648401526084830152929091829060a4820190565b03601f198101835282611060565b5190826101675af161079a6110f0565b90156107c5576020818051810103126100bd576107ba602080920161111f565b6040519060030b8152f35b50602060156107ba565b346100bd5760403660031901126100bd576107e8610fb8565b6024356001600160401b03908181168091036100bd5760025461080c8382166111d3565b5f9360409290921c6001600160a01b03169190845b8151811015610c595761086c83610838838561116c565b51604051636bf8e80f60e01b815291166001600160401b031660048201523360248201526020918290829081906044820190565b0381895afa91821561038b575f92610c3c575b50506108935761088e9061112d565b610821565b5050505090506108a36001611198565b600354604051634d8fdd6d60e01b81526001600160a01b039091169190602081600481865afa90811561038b575f91610c1d575b5015610bd8576108e56112ac565b6001600160a01b03909316835260070b60208301819052916109056112ac565b30815292677fffffffffffffff198114610bc4575f0360070b602084015261092b6112ca565b9182526040519261093b8461100f565b600284525f5b60408110610bad57506109698394602061097b9501928184526109638261113b565b5261113b565b5051906109758261115c565b5261115c565b506040519061098982611045565b600182525f5b60208110610b9657506109a18261113b565b526109ab8161113b565b5060405190632f34811960e01b825281602481016020600483015282518091526044820190602060448260051b8501019401915f905b828210610a905784602081808903815f6101675af1801561038b575f90610a56575b6016915060070b03610a1157005b60405162461bcd60e51b815260206004820152601860248201527f4661696c656420746f2061697264726f7020746f6b656e7300000000000000006044820152606490fd5b506020813d602011610a88575b81610a7060209383611060565b810103126100bd57610a8360169161129e565b610a03565b3d9150610a63565b91935091936043198682030182528451606082019060018060a01b0381511683526020810151916060602085015282518091526020608085019301905f905b808210610b5e5750505060400151916040818303910152602080835192838152019201905f905b808210610b1557505050602080600192960192019201859391926109e1565b9091926020608060019260608751858060a01b038151168352858060a01b03858201511685840152604081015160070b6040840152015115156060820152019401920190610af6565b9091936020606060019260408851858060a01b0381511683528481015160070b85840152015115156040820152019501920190610acf565b602090610ba16112ca565b8282860101520161098f565b602090610bb86112ac565b82828801015201610941565b634e487b7160e01b5f52601160045260245ffd5b60405162461bcd60e51b815260206004820152601760248201527f546f6b656e206973206e6f74206173736f6369617465640000000000000000006044820152606490fd5b610c36915060203d602011610384576103768183611060565b846108d7565b610c529250803d10610384576103768183611060565b888061087f565b50505050906108a390611198565b346100bd5760403660031901126100bd57610c806110da565b6001600160a01b0390602435828116908190036100bd57600254916001600160401b0390610caf8285166111d3565b5f9460401c861690855b8151811015610e0a57610cd085610838838561116c565b0381885afa91821561038b575f92610ded575b5050610cf757610cf29061112d565b610cb9565b5050509193819350610d096001611198565b600354169160405194602086019363efef57f960e01b8552602487015260448601521660070b60648401526064835260a083019183831090831117610308575f9283926040525190826101675af1610d5f6110f0565b9015610de3576020818051810103126100bd57610d8060206016920161111f565b60030b03610d8a57005b60405162461bcd60e51b815260206004820152602b60248201527f4661696c656420746f20776970652061737365742066726f6d2074686520757360448201526a195c9cc81858d8dbdd5b9d60aa1b6064820152608490fd5b5060166015610d80565b610e039250803d10610384576103768183611060565b8980610ce3565b5050509193610d098294611198565b346100bd5760403660031901126100bd57610e32610fb8565b602435906001600160401b0382116100bd57366023830112156100bd57816004013590610e5e82611081565b91610e6c6040519384611060565b80835236602482860101116100bd57610ece5f94938560208461077c9560248499018386013783010152604080516330c6e32f60e11b602082019081526001600160a01b0390961660248201526044810191909152928391606483019061109c565b5190826101675af1610ede6110f0565b907f4af4780e06fe8cb9df64b0794fa6f01399af979175bb988e35e0e57e594567bc60405182151581526040602082015280610f1d604082018661109c565b0390a115610f4b5760165b610f4760405192839260030b835260406020840152604083019061109c565b0390f35b50604051610f588161102a565b5f81526015610f28565b346100bd575f61077c8261078a8394610f7a36610fce565b630aed65f560e11b602086019081526001600160a01b03948516602487015292841660448601529216606484015260848301919091529360a4820190565b600435906001600160a01b03821682036100bd57565b60809060031901126100bd576001600160a01b0360043581811681036100bd579160243582811681036100bd579160443590811681036100bd579060643590565b606081019081106001600160401b0382111761030857604052565b602081019081106001600160401b0382111761030857604052565b604081019081106001600160401b0382111761030857604052565b90601f801991011681019081106001600160401b0382111761030857604052565b6001600160401b03811161030857601f01601f191660200190565b91908251928382525f5b8481106110c6575050825f602080949584010152601f8019910116010190565b6020818301810151848301820152016110a6565b600435906001600160401b03821682036100bd57565b3d1561111a573d9061110182611081565b9161110f6040519384611060565b82523d5f602084013e565b606090565b51908160030b82036100bd57565b5f198114610bc45760010190565b8051156111485760200190565b634e487b7160e01b5f52603260045260245ffd5b8051600110156111485760400190565b80518210156111485760209160051b010190565b908160209103126100bd575180151581036100bd5790565b1561119f57565b60405162461bcd60e51b815260206004820152600c60248201526b155b985d5d1a1bdc9a5e995960a21b6044820152606490fd5b6001600160401b0390811661120857506040516111ef81611045565b60018152602036818301375f6112048261113b565b5290565b6040519060e0820190811182821017610308576040526006815260c03660208301375f806112358361113b565b5260016112418361115c565b5281516002101561128a576002606083015281516003101561128a576003608083015281516004101561128a57600560a083015281516005101561128a5750600660c082015290565b634e487b7160e01b81526032600452602490fd5b51908160070b82036100bd57565b604051906112b98261100f565b5f6040838281528260208201520152565b604051906112d78261100f565b60606040835f8152826020820152015256fea26469706673582212204422981d74c357caf2e9edfebb4e89564e3c2faec8ad20d00fba46cec73a6c6f64736f6c63430008140033a6eef7e35abe7026729641147f7915573c7e97b47efa546f5f6e3230263bcb49cc69885fda6bcc1a4ace058b4a62bf5e179ea78fd58a1ccd71c22cc9b688792fedc95719e9a3b28dd8e80877cb5880a9be7de1a13fc8b05e7999683b6b5676437dfe757ecd65cbd7922a9c0161e935dd7fdbcc0e999689c7d31633896b1fc60b8f331abe73332f95a25873e8b430885974c0409691f89d643119a11623a7924ad9d16d34ffb15ba3a3d852f0d403e2ce1d691fb54de27ac87cd2f993f3ec330fe2689cd4a84e23ad2f564004f1c9013e9589d260bde6380aba3ca7e09e4df40ca2646970667358221220d6a1287a448791399e70d10f74245d064a97df795406e00056ddbf3eb9b0c14264736f6c63430008140033","linkReferences":{}},"methodIdentifiers":{"createAsset(string,string,address,uint64)":"daa96e19"},"id":16}