{"abi":[{"type":"constructor","inputs":[],"stateMutability":"nonpayable"},{"type":"function","name":"createAsset","inputs":[{"name":"_name","type":"string","internalType":"string"},{"name":"_symbol","type":"string","internalType":"string"},{"name":"aclContract","type":"address","internalType":"address"},{"name":"allowList","type":"uint64","internalType":"uint64"}],"outputs":[{"name":"","type":"address","internalType":"address"}],"stateMutability":"payable"}],"bytecode":{"object":"0x608080604052346100165761235a908161001b8239f35b5f80fdfe60806040526004361015610011575f80fd5b5f803560e01c63daa96e1914610025575f80fd5b60803660031901126101265767ffffffffffffffff60043581811161012257610052903690600401610129565b60243582811161011e5761006a903690600401610129565b6001600160a01b039260443584811692919083900361011a5760643591818316809303610116576040519461214380870193841187851017610102576060926100c988979695936100d793620001e28a396080855260808501906101a3565b9083820360208501526101a3565b9360408201520152039034f09081156100f7576020925060405191168152f35b6040513d84823e3d90fd5b634e487b7160e01b89526041600452602489fd5b8680fd5b8580fd5b8380fd5b8280fd5b80fd5b81601f8201121561018b5780359067ffffffffffffffff9283831161018f5760405193601f8401601f19908116603f011685019081118582101761018f576040528284526020838301011161018b57815f926020809301838601378301015290565b5f80fd5b634e487b7160e01b5f52604160045260245ffd5b91908251928382525f5b8481106101cd575050825f602080949584010152601f8019910116010190565b6020818301810151848301820152016101ad56fe6080806040526200214380380380916200001a828562000857565b83398101608082820312620006fb5781516001600160401b038111620006fb578162000048918401620008ba565b602083015190916001600160401b038211620006fb576200006b918401620008ba565b604083015190926001600160a01b0382168203620006fb57606001516001600160401b03811690819003620006fb57600160208181525f80516020620020638339815191529190915560025f80516020620020838339815191525560045f80516020620021038339815191525560085f80516020620020c38339815191525560105f80516020620020a3833981519152555f80516020620021238339815191525560065f81905260405f80516020620020e3833981519152558111620007f757600280546001600160e01b03191691909117604092831b600160401b600160e01b0316179055519161012083016001600160401b03811184821017620007e35760405260608352606060208401525f60408401526060808401525f60808401525f60a08401525f60c0840152606060e0840152620001a862000907565b91610100928385015283526020830152306040830152620001c862000907565b30602082015262786450604082015281830152604051808281011060018060401b038383011117620007e357818101604052600781525f5b60e08110620007c957506200021462000972565b505f805260016020525f8051602062002063833981519152546200023762000936565b306020820152604051916200024c836200083b565b825260208201526200025e8262000996565b526200026a8162000996565b506200027562000972565b5060015f8190526020525f8051602062002083833981519152546200029962000936565b30602082015260405191620002ae836200083b565b82526020820152620002c082620009b8565b52620002cc81620009b8565b50620002d762000972565b5060025f5260016020525f805160206200210383398151915254620002fb62000936565b3060208201526040519162000310836200083b565b825260208201526200032282620009c9565b526200032e81620009c9565b506200033962000972565b5060035f5260016020525f80516020620020c3833981519152546200035d62000936565b3060208201526040519162000372836200083b565b825260208201526200038482620009da565b526200039081620009da565b506200039b62000972565b5060045f5260016020525f80516020620020a383398151915254620003bf62000936565b30602082015260405191620003d4836200083b565b82526020820152620003e682620009eb565b52620003f281620009eb565b50620003fd62000972565b5060055f5260016020525f8051602062002123833981519152546200042162000936565b3060208201526040519162000436836200083b565b825260208201526200044882620009fc565b526200045481620009fc565b506200045f62000972565b5060065f5260016020525f80516020620020e3833981519152546200048362000936565b3060208201526040519162000498836200083b565b82526020820152620004aa8262000a0d565b52620004b68162000a0d565b5060e083015280820151805160070b1580620007b9575b620007a9575b5060405190630fb65bf360e01b6020830152606060248301526200054f620005256200050e855161016060848701526101e486019062000a1e565b60208601518582036083190160a487015262000a1e565b60408501516001600160a01b031660c485015260608501518482036083190160e486015262000a1e565b926080810151151561010484015260a081015160070b61012484015260c0810151151561014484015260e08101519360831984820301610164850152845180825260208201916020808360051b8301019701925f915b83831062000714575f808962000601818d60408d8d0151805160070b61018485015260018060a01b036020820151166101a4850152015160070b6101c48301528460448301526008606483015203601f19810183528262000857565b602081519101346101675af13d156200070b573d9062000621826200087b565b9162000631604051938462000857565b82523d5f602084013e5b15620006ff57604081805181010312620006fb576020810151908160030b809203620006fb57604001516001600160a01b0381169190829003620006fb576016905b60030b03620006b657600380546001600160a01b0319166001600160a01b039290921691909117905560405161161d908162000a468239f35b60405162461bcd60e51b815260206004820152601660248201527f4661696c656420746f2063726561746520746f6b656e000000000000000000006044820152606490fd5b5f80fd5b505f601660156200067d565b6060906200063b565b9091929397602080600192601f19858203018652818c5180518352015190604083820152815115156040820152848060a01b038383015116606082015260c06200078962000772604085015160a0608086015260e085019062000a1e565b6060850151848203603f190160a086015262000a1e565b926080878060a01b03910151169101529a019301930191939290620005a5565b60406276a7009101525f620004d3565b50604081015160070b15620004cd565b602090620007d662000972565b8282850101520162000200565b634e487b7160e01b5f52604160045260245ffd5b606460405162461bcd60e51b815260206004820152602060248201527f496e76616c696420636f6e74726f6c20616c6c6f77206c697374206c6576656c6044820152fd5b604081019081106001600160401b03821117620007e357604052565b601f909101601f19168101906001600160401b03821190821017620007e357604052565b6001600160401b038111620007e357601f01601f191660200190565b5f5b838110620008a95750505f910152565b818101518382015260200162000899565b81601f82011215620006fb578051620008d3816200087b565b92620008e3604051948562000857565b81845260208284010111620006fb5762000904916020808501910162000897565b90565b60405190606082016001600160401b03811183821017620007e3576040525f6040838281528260208201520152565b6040519060a082016001600160401b03811183821017620007e3576040525f608083828152826020820152606060408201526060808201520152565b6040519062000981826200083b565b815f815260206200099162000936565b910152565b805115620009a45760200190565b634e487b7160e01b5f52603260045260245ffd5b805160011015620009a45760400190565b805160021015620009a45760600190565b805160031015620009a45760800190565b805160041015620009a45760a00190565b805160051015620009a45760c00190565b805160061015620009a45760e00190565b9060209162000a398151809281855285808601910162000897565b601f01601f191601019056fe6080604081815260049182361015610015575f80fd5b5f9283803560e01c92836315dacbea1461125e575050816331d6ebdf1461108b578163618dc65e14610f465781637276ecca14610d405781637349da0a1461080f5781639b23d3d9146107595781639dbead421461056e578163a1d34a421461040a578163c7ea4d44146103e2578163de287359146103b9578163fb9d09c8146100d3575063fc0c546a146100a8575f80fd5b346100cf57816003193601126100cf5760035490516001600160a01b039091168152602090f35b5080fd5b9050346103b5576020806003193601126103b1576100ef611327565b92600254936001600160401b03906101088287166114ff565b87966001600160a01b039190851c821690885b815181101561039f57610165888a886101348587611481565b518b51636bf8e80f60e01b815291166001600160401b03169181019182523360208301529283918291604090910190565b0381875afa908115610395578c91610368575b5061018b576101869061143e565b61011b565b505050909192939495506101a36001908892916114ad565b60035416918451926101b48461136c565b828452855190858883019363707a02cd60e11b8552608484019260248501521660070b604483015260606064830152845180915260a48201908860a48260051b85010196019185905b8a83831061033657505050505061021e81849503601f198101835282611387565b5190826101675af19061022f611401565b911561031e57815182019060608386840193031261031a57610252858401611430565b9261025e8582016115d9565b506060810151918211610316570181603f8201121561031a5784810151908486610287846114e8565b61029383519182611387565b848152019260051b8201019283116103165784869101915b8383106102fe57505050506016905b60030b036102c6578380f35b5162461bcd60e51b815291820152601460248201527311985a5b1959081d1bc81b5a5b9d08185cdcd95d60621b604482015260649150fd5b8190610309846115d9565b81520191019085906102ab565b8780fd5b8680fd5b505083815161032c8161136c565b52601660156102ba565b80919395975061035560019395979960a3198a820301865288516113c3565b9601920192018b959391929694966101fd565b6103889150893d8b1161038e575b6103808183611387565b810190611495565b5f610178565b503d610376565b88513d8e823e3d90fd5b5050506101a3889293949596976114ad565b8380fd5b8280fd5b5050346100cf57816003193601126100cf576002548151911c6001600160a01b03168152602090f35b5050346100cf57816003193601126100cf576020906001600160401b03600254169051908152f35b919050346103b5576020806003193601126103b157610427611327565b92600254916001600160401b0361043f8185166114ff565b87969085871c6001600160a01b031690885b815181101561055c5761049b86866104698486611481565b518c51636bf8e80f60e01b815291166001600160401b03168a8201908152336020820152909283918291604090910190565b0381875afa908115610552578c91610535575b506104c1576104bc9061143e565b610451565b505050909192939495506104d560016114ad565b1693600685116104f45750505067ffffffffffffffff19161760025580f35b5162461bcd60e51b815291820181905260248201527f496e76616c696420636f6e74726f6c20616c6c6f77206c697374206c6576656c604482015260649150fd5b61054c9150873d891161038e576103808183611387565b5f6104ae565b8a513d8e823e3d90fd5b5050509091929394956104d5906114ad565b9050346103b5576020806003193601126103b15761058a611327565b92600254936001600160401b03906105a38287166114ff565b87966001600160a01b039190851c821690885b8151811015610747576105cf888a886101348587611481565b0381875afa908115610395578c9161072a575b506105f5576105f09061143e565b6105b6565b509697509495509293509186919061060d60016114ad565b6003541684519361061d8561136c565b83855285519187830193636b48868360e11b85526084840191602485015260079216820b60448401526060606484015285518091528760a4840196019185905b8983831061070d57505050505061067e81849503601f198101835282611387565b5190826101675af161068e611401565b90156107035781818051810103126106ff57806106b9836106b28660169501611430565b92016115d9565b505b60030b036106c7578380f35b5162461bcd60e51b815291820152601460248201527311985a5b1959081d1bc8189d5c9b88185cdcd95d60621b604482015260649150fd5b8480fd5b50601660156106bb565b8451820b8952978801978c9750909301926001919091019061065d565b6107419150893d8b1161038e576103808183611387565b5f6105e2565b50505061060d889392949596976114ad565b5050346100cf5781806107c26107b4610771366112d0565b8851639b23d3d960e01b602082019081526001600160a01b03958616602483015293851660448201529390911660648401526084830152929091829060a4820190565b03601f198101835282611387565b5190826101675af1916107d3611401565b9215610802576020838051810103126107ff57506107f46020809301611430565b905b519060030b8152f35b80fd5b50602091506015906107f6565b8383346100cf57806003193601126100cf579061082a6112b6565b92610833611311565b91600254916001600160401b03928381169561084e876114ff565b958497859760018060a01b038095851c16985b8151811015610d2b5786896108768385611481565b518751636bf8e80f60e01b815291166001600160401b03169181019182523360208084019190915291829082908e908290819060400103915afa918215610cf2578a92610d0e575b50506108d2576108cd9061143e565b610861565b50506108ef9192939495969798506108ea60016114ad565b6114ff565b968597865b8151811015610cfc5786896109098385611481565b518751636bf8e80f60e01b815291166001600160401b031691810191825233602080840191909152918290829081906040010381885afa918215610cf2578a92610cd5575b50506109625761095d9061143e565b6108f4565b5050509091929394955061097660016114ad565b858360035416911660070b9282519361098e8561136c565b8685528351876020968783019563707a02cd60e11b87526084840190602485015284604485015260606064850152815180915260a48401908960a48260051b87010193019184905b8b838310610ca8575050505050916109f881839403601f198101835282611387565b516101679582875af1610a09611401565b9015610c915780518101606082888301920312610c8d57610a2b878301611430565b91610a378782016115d9565b506060810151908b8211610c85570181603f82011215610c895787810151908789610a61846114e8565b610a6d83519182611387565b848152019260051b820101928311610c855787899101915b838310610c6d57505050506016905b60030b03610c3357600254610aaa8982166114ff565b988899848a93881c16925b8151811015610c1d57610aff898b85610ace8587611481565b518c51636bf8e80f60e01b815291166001600160401b03169181019182523360208301529283918291604090910190565b0381885afa908115610c13578c91610bf6575b50610b2557610b209061143e565b610ab5565b505050508698879597949698508491610b3e60016114ad565b8360035416938851928a84019563eca3691760e01b87526024850152306044850152166064830152608482015260848152610b788161133d565b51925af1610b84611401565b9015610bec5782818051810103126106ff57610ba38360169201611430565b60030b03610baf578380f35b5162461bcd60e51b81529182015260196024820152784661696c656420746f207472616e7366657220746f6b656e7360381b604482015260649150fd5b5060166015610ba3565b610c0d91508a3d8c1161038e576103808183611387565b8e610b12565b89513d8e823e3d90fd5b50505050958098819597610b3e8396989a6114ad565b835162461bcd60e51b8152808701869052601460248201527311985a5b1959081d1bc81b5a5b9d08185cdcd95d60621b6044820152606490fd5b8190610c78846115d9565b8152019101908890610a85565b8a80fd5b8980fd5b8880fd5b50868451610c9e8161136c565b5260166015610a94565b600192949650610cc58192949660a3198a820301865288516113c3565b9601920192018c949391926109d6565b610ceb9250803d1061038e576103808183611387565b8c8061094e565b87513d8c823e3d90fd5b505050909192939495610976906114ad565b610d249250803d1061038e576103808183611387565b8d806108be565b50506108ea6108ef92939495969798996114ad565b9050346103b557816003193601126103b557610d5a611327565b6001600160a01b03929060243584811690819003610f4257600254946001600160401b0390610d8a8288166114ff565b8897861c821690885b8151811015610f31578885610da88385611481565b518a51636bf8e80f60e01b815291166001600160401b031691810191825233602080840191909152918290829081906040010381885afa918215610f27578d92610f0a575b5050610e0157610dfc9061143e565b610d93565b50505081929394959650610e1560016114ad565b6003541693855193602085019563efef57f960e01b8752602486015260448501521660070b60648301526064825260a082019082821090821117610ef7578352518491829190826101675af1610e69611401565b9015610eed576020818051810103126103b157610e8a602060169201611430565b60030b03610e96578280f35b906020608492519162461bcd60e51b8352820152602b60248201527f4661696c656420746f20776970652061737365742066726f6d2074686520757360448201526a195c9cc81858d8dbdd5b9d60aa1b6064820152fd5b5060166015610e8a565b634e487b7160e01b865260418552602486fd5b610f209250803d1061038e576103808183611387565b5f80610ded565b8a513d8f823e3d90fd5b505050610e158293949596976114ad565b8580fd5b839150346100cf57826003193601126100cf57610f616112b6565b90602435906001600160401b0382116103b157366023830112156103b157810135610f8b816113a8565b91610f9886519384611387565b81835236602483830101116106ff57610ff88594929385602086829760246107b49701838601378301015287516330c6e32f60e11b602082019081526001600160a01b0390951660248201526044810189905292839160648301906113c3565b5190826101675af190611009611401565b917f4af4780e06fe8cb9df64b0794fa6f01399af979175bb988e35e0e57e594567bc8451821515815285602082015280611045878201876113c3565b0390a115611071575061106d6016915b835193849360030b84528060208501528301906113c3565b0390f35b8251915061107e8261136c565b815261106d601591611055565b905082346107ff57826003193601126107ff576110a66112b6565b916110af611311565b936002546001600160401b03946110c78683166114ff565b949586956001600160a01b0393851c841690875b815181101561124b5787846110f08385611481565b518951636bf8e80f60e01b815291166001600160401b031691810191825233602080840191909152918290829081906040010381885afa918215611241578b92611224575b5050611149576111449061143e565b6110db565b50505085978695975061115f60019795976114ad565b836003541693875193602085019563eca3691760e01b875260248601523060448601521660648401521660070b60848201526084815261119e8161133d565b5190826101675af16111ae611401565b901561121a576020818051810103126103b1576111cf602060169201611430565b60030b036111db578280f35b906020606492519162461bcd60e51b835282015260196024820152784661696c656420746f207472616e7366657220746f6b656e7360381b6044820152fd5b50601660156111cf565b61123a9250803d1061038e576103808183611387565b8c80611135565b89513d8d823e3d90fd5b505050859761115f8796989795976114ad565b818591346100cf576107b4816107c28493611278366112d0565b630aed65f560e11b602086019081526001600160a01b03948516602487015292841660448601529216606484015260848301919091529360a4820190565b600435906001600160a01b03821682036112cc57565b5f80fd5b60809060031901126112cc576001600160a01b0360043581811681036112cc579160243582811681036112cc579160443590811681036112cc579060643590565b602435906001600160401b03821682036112cc57565b600435906001600160401b03821682036112cc57565b60c081019081106001600160401b0382111761135857604052565b634e487b7160e01b5f52604160045260245ffd5b602081019081106001600160401b0382111761135857604052565b90601f801991011681019081106001600160401b0382111761135857604052565b6001600160401b03811161135857601f01601f191660200190565b91908251928382525f5b8481106113ed575050825f602080949584010152601f8019910116010190565b6020818301810151848301820152016113cd565b3d1561142b573d90611412826113a8565b916114206040519384611387565b82523d5f602084013e565b606090565b51908160030b82036112cc57565b5f19811461144c5760010190565b634e487b7160e01b5f52601160045260245ffd5b80511561146d5760200190565b634e487b7160e01b5f52603260045260245ffd5b805182101561146d5760209160051b010190565b908160209103126112cc575180151581036112cc5790565b156114b457565b60405162461bcd60e51b815260206004820152600c60248201526b155b985d5d1a1bdc9a5e995960a21b6044820152606490fd5b6001600160401b0381116113585760051b60200190565b6001600160401b0390811661153e57604051906040820190828210908211176113585760405260018152602036818301375f61153a82611460565b5290565b6040519060e0820190811182821017611358576040526006815260c03660208301375f8061156b83611460565b528151600110156115c557600160408301528151600210156115c557600260608301528151600310156115c557600360808301528151600410156115c557600560a08301528151600510156115c55750600660c082015290565b634e487b7160e01b81526032600452602490fd5b51908160070b82036112cc5756fea264697066735822122073c187f4c5fedbcd71a4314c9e0846ebad432b16636fe9981d9f575f8eae32f964736f6c63430008140033a6eef7e35abe7026729641147f7915573c7e97b47efa546f5f6e3230263bcb49cc69885fda6bcc1a4ace058b4a62bf5e179ea78fd58a1ccd71c22cc9b688792fedc95719e9a3b28dd8e80877cb5880a9be7de1a13fc8b05e7999683b6b5676437dfe757ecd65cbd7922a9c0161e935dd7fdbcc0e999689c7d31633896b1fc60b8f331abe73332f95a25873e8b430885974c0409691f89d643119a11623a7924ad9d16d34ffb15ba3a3d852f0d403e2ce1d691fb54de27ac87cd2f993f3ec330fe2689cd4a84e23ad2f564004f1c9013e9589d260bde6380aba3ca7e09e4df40ca26469706673582212203be5b7a7114bde3971f4ded82d69ead52cf89d73a1125078d0aab30972768f6b64736f6c63430008140033","linkReferences":{}},"methodIdentifiers":{"createAsset(string,string,address,uint64)":"daa96e19"},"id":10}