{"abi":[{"type":"constructor","inputs":[{"name":"_controller","type":"string","internalType":"string"},{"name":"aclContract","type":"address","internalType":"address"},{"name":"allowList","type":"uint64","internalType":"uint64"}],"stateMutability":"nonpayable"},{"type":"receive","stateMutability":"payable"},{"type":"function","name":"acl","inputs":[],"outputs":[{"name":"","type":"address","internalType":"contract AccessController"}],"stateMutability":"view"},{"type":"function","name":"addLoanLock","inputs":[{"name":"lender","type":"address","internalType":"address"},{"name":"collateral","type":"address","internalType":"address"},{"name":"loanAmount","type":"uint256","internalType":"uint256"},{"name":"collateralAmount","type":"uint256","internalType":"uint256"},{"name":"borrowIndex","type":"uint256","internalType":"uint256"}],"outputs":[],"stateMutability":"nonpayable"},{"type":"function","name":"associateToken","inputs":[{"name":"token","type":"address","internalType":"address"}],"outputs":[],"stateMutability":"nonpayable"},{"type":"function","name":"controlAllowList","inputs":[],"outputs":[{"name":"","type":"uint64","internalType":"uint64"}],"stateMutability":"view"},{"type":"function","name":"deposit","inputs":[{"name":"asset","type":"address","internalType":"address"},{"name":"amount","type":"uint256","internalType":"uint256"}],"outputs":[],"stateMutability":"payable"},{"type":"function","name":"getCollateral","inputs":[{"name":"lender","type":"address","internalType":"address"},{"name":"collateral","type":"address","internalType":"address"}],"outputs":[{"name":"","type":"uint256","internalType":"uint256"}],"stateMutability":"view"},{"type":"function","name":"getLoanAmount","inputs":[{"name":"lender","type":"address","internalType":"address"},{"name":"collateral","type":"address","internalType":"address"}],"outputs":[{"name":"","type":"uint256","internalType":"uint256"}],"stateMutability":"view"},{"type":"function","name":"getLoanBlockIndex","inputs":[{"name":"lender","type":"address","internalType":"address"},{"name":"collateral","type":"address","internalType":"address"}],"outputs":[{"name":"","type":"uint256","internalType":"uint256"}],"stateMutability":"view"},{"type":"function","name":"getTradableBalance","inputs":[{"name":"asset","type":"address","internalType":"address"}],"outputs":[{"name":"","type":"uint256","internalType":"uint256"}],"stateMutability":"view"},{"type":"function","name":"isBridger","inputs":[],"outputs":[{"name":"","type":"bool","internalType":"bool"}],"stateMutability":"view"},{"type":"function","name":"loanCollaterals","inputs":[{"name":"","type":"address","internalType":"address"},{"name":"","type":"address","internalType":"address"}],"outputs":[{"name":"","type":"uint256","internalType":"uint256"}],"stateMutability":"view"},{"type":"function","name":"loanIndexes","inputs":[{"name":"","type":"address","internalType":"address"},{"name":"","type":"address","internalType":"address"}],"outputs":[{"name":"","type":"uint256","internalType":"uint256"}],"stateMutability":"view"},{"type":"function","name":"loans","inputs":[{"name":"","type":"address","internalType":"address"},{"name":"","type":"address","internalType":"address"}],"outputs":[{"name":"","type":"uint256","internalType":"uint256"}],"stateMutability":"view"},{"type":"function","name":"lockAsset","inputs":[{"name":"asset","type":"address","internalType":"address"},{"name":"amount","type":"uint256","internalType":"uint256"}],"outputs":[],"stateMutability":"nonpayable"},{"type":"function","name":"removeLoanLock","inputs":[{"name":"lender","type":"address","internalType":"address"},{"name":"collateral","type":"address","internalType":"address"},{"name":"loanAmount","type":"uint256","internalType":"uint256"},{"name":"collateralAmount","type":"uint256","internalType":"uint256"},{"name":"borrowIndex","type":"uint256","internalType":"uint256"}],"outputs":[],"stateMutability":"nonpayable"},{"type":"function","name":"setControlAllowList","inputs":[{"name":"_newLevel","type":"uint64","internalType":"uint64"}],"outputs":[],"stateMutability":"nonpayable"},{"type":"function","name":"transferAsset","inputs":[{"name":"to","type":"address","internalType":"address"},{"name":"asset","type":"address","internalType":"address"},{"name":"amount","type":"uint256","internalType":"uint256"}],"outputs":[],"stateMutability":"nonpayable"},{"type":"function","name":"transferHbar","inputs":[{"name":"to","type":"address","internalType":"address"},{"name":"amount","type":"uint256","internalType":"uint256"}],"outputs":[],"stateMutability":"nonpayable"},{"type":"function","name":"unlockAsset","inputs":[{"name":"asset","type":"address","internalType":"address"},{"name":"amount","type":"uint256","internalType":"uint256"}],"outputs":[],"stateMutability":"nonpayable"},{"type":"function","name":"updateBridgingStatus","inputs":[{"name":"status","type":"bool","internalType":"bool"}],"outputs":[],"stateMutability":"nonpayable"},{"type":"function","name":"withdraw","inputs":[{"name":"asset","type":"address","internalType":"address"},{"name":"amount","type":"uint256","internalType":"uint256"},{"name":"to","type":"address","internalType":"address"}],"outputs":[],"stateMutability":"nonpayable"},{"type":"event","name":"AssetLocked","inputs":[{"name":"asset","type":"address","indexed":true,"internalType":"address"},{"name":"amount","type":"uint256","indexed":false,"internalType":"uint256"},{"name":"totalLocked","type":"uint256","indexed":false,"internalType":"uint256"}],"anonymous":false},{"type":"event","name":"AssetTransferred","inputs":[{"name":"to","type":"address","indexed":true,"internalType":"address"},{"name":"asset","type":"address","indexed":true,"internalType":"address"},{"name":"amount","type":"uint256","indexed":false,"internalType":"uint256"}],"anonymous":false},{"type":"event","name":"AssetUnlocked","inputs":[{"name":"asset","type":"address","indexed":true,"internalType":"address"},{"name":"amount","type":"uint256","indexed":false,"internalType":"uint256"},{"name":"totalLocked","type":"uint256","indexed":false,"internalType":"uint256"}],"anonymous":false},{"type":"event","name":"DepositReceived","inputs":[{"name":"depositor","type":"address","indexed":false,"internalType":"address"},{"name":"amount","type":"uint256","indexed":false,"internalType":"uint256"}],"anonymous":false},{"type":"event","name":"LoanAdded","inputs":[{"name":"lender","type":"address","indexed":true,"internalType":"address"},{"name":"collateral","type":"address","indexed":true,"internalType":"address"},{"name":"loanAmount","type":"uint256","indexed":false,"internalType":"uint256"},{"name":"collateralAmount","type":"uint256","indexed":false,"internalType":"uint256"},{"name":"borrowIndex","type":"uint256","indexed":false,"internalType":"uint256"}],"anonymous":false},{"type":"event","name":"LoanRepaid","inputs":[{"name":"lender","type":"address","indexed":true,"internalType":"address"},{"name":"collateral","type":"address","indexed":true,"internalType":"address"},{"name":"loanAmount","type":"uint256","indexed":false,"internalType":"uint256"},{"name":"collateralAmount","type":"uint256","indexed":false,"internalType":"uint256"}],"anonymous":false},{"type":"event","name":"TokenAssociated","inputs":[{"name":"token","type":"address","indexed":true,"internalType":"address"}],"anonymous":false},{"type":"error","name":"ReentrancyGuardReentrantCall","inputs":[]}],"bytecode":{"object":"0x6080604052346200029b57620021ed803803806200001d81620002b4565b9283398101906060818303126200029b5780516001600160401b0391908281116200029b57810192601f908082860112156200029b578451928484116200024457602093601f19966200007686898785011601620002b4565b938285528683830101116200029b5785905f5b8381106200029f5750505f918401015280840151906001600160a01b03821682036200029b57604001518581168091036200029b576006811162000258575f549168010000000000000000600160e01b039060401b169163ffffffff60e01b1617175f5560019283805560ff1960035416600355815194851162000244576002548481811c9116801562000239575b828210146200022557838111620001dc575b5080928511600114620001755750839450908392915f9462000169575b50501b915f199060031b1c1916176002555b604051611f129081620002db8239f35b015192505f8062000147565b92948490811660025f52845f20945f905b88838310620001c15750505010620001a8575b505050811b0160025562000159565b01515f1960f88460031b161c191690555f808062000199565b85870151885590960195948501948793509081019062000186565b60025f52815f208480880160051c8201928489106200021b575b0160051c019085905b8281106200020f5750506200012a565b5f8155018590620001ff565b92508192620001f6565b634e487b7160e01b5f52602260045260245ffd5b90607f169062000118565b634e487b7160e01b5f52604160045260245ffd5b6064856040519062461bcd60e51b825280600483015260248201527f496e76616c696420636f6e74726f6c20616c6c6f77206c697374206c6576656c6044820152fd5b5f80fd5b81810183015186820184015287920162000089565b6040519190601f01601f191682016001600160401b03811183821017620002445760405256fe60406080815260048036101561004b575b50361561001b575f80fd5b807f9936746a4565f9766fa768f88f56a7487c78780ac179562773d1c75c5269537e9151338152346020820152a1005b5f90813560e01c90816328cafd721461157857816331b3203a1461128557816342c8afad14610f24578163431d8ffe14610dfa578163439e2e4514610e4357816344eb5e0014610dfa5781634743c2fd14610dcd57816347e7ef2414610c1a57816352226ef014610bfc57816352696601146108565781635e7db13d14610a5a57816369328dec1461089f5781638e543a1214610856578163a1d34a4214610702578163a7efe34814610523578163acbc682014610317578163b2567d1f146101f857508063c7ea4d44146101d2578063dce83ae314610189578063de287359146101615763e9ea28de0361001057903461015d578160031936011261015d5760209060ff6003541690519015158152f35b5080fd5b50903461015d578160031936011261015d5790548151911c6001600160a01b03168152602090f35b50903461015d578060031936011261015d57806020926101a7611720565b6101af61173a565b6001600160a01b0391821683526006865283832091168252845220549051908152f35b50903461015d578160031936011261015d576001600160401b0360209254169051908152f35b90508234610313576020908160031936011261030f5782359182151580930361030b578454936001600160401b039461023286821661188f565b879691851c6001600160a01b03169190875b81518110156102fa57610279868461025c84866117d0565b518a51636bf8e80f60e01b815293849283923391168b8401611831565b0381885afa9081156102f0578b916102c3575b5061029f5761029a9061178d565b610244565b5050505050505090506102b26001611854565b60ff80196003541691161760035580f35b6102e39150873d89116102e9575b6102db81836117e4565b810190611819565b8b61028c565b503d6102d1565b88513d8d823e3d90fd5b50505050505050906102b290611854565b8480fd5b8380fd5b8280fd5b91905034610520578260031936011261052057610332611720565b602435908254906001600160401b039461034d86841661188f565b949586956001600160a01b0394891c851690875b815181101561050e576103988461037883856117d0565b51168c5190636bf8e80f60e01b82528180602094859333908c8401611831565b0381885afa918215610504578b926104e7575b50506103bf576103ba9061178d565b610361565b505050909192939495506103d36001611854565b6103db611982565b8447106104a8578580808088875af1903d156104a2573d90811161048f57875190610410601f8201601f1916602001836117e4565b81528660203d92013e5b1561045557507f645e52ee0ce5c05d60f4b051028f29630be7001f5d84cba67fe6872db872cff8916020918596519485521692a36001805580f35b606490602087519162461bcd60e51b8352820152601460248201527312109054881d1c985b9cd9995c8819985a5b195960621b6044820152fd5b634e487b7160e01b875260418352602487fd5b5061041a565b865162461bcd60e51b81526020818401526019602482015278496e73756666696369656e7420484241522062616c616e636560381b6044820152606490fd5b6104fd9250803d106102e9576102db81836117e4565b5f806103ab565b8d513d8d823e3d90fd5b5050509091929394956103d390611854565b80fd5b90508234610313576020918260031936011261030f57610541611720565b918454936001600160401b039461055986821661188f565b87966001600160a01b0392851c831691885b81518110156106f0576105a086898561058485876117d0565b51168a519384928392636bf8e80f60e01b845233918401611831565b0381885afa9081156106e6578c916106c9575b506105c6576105c19061178d565b61056b565b505050509091929394506105da6001611854565b825163248a35ef60e11b81523085820152941660248501819052938181604481896101675af19182156106bf5790601692918792610692575b505060070b036106465750507fbbbf805ef99ca7d0b7d2cc769719f2a281c9b3331a3642efa75a712e3094a1668280a280f35b61068e92505191829162461bcd60e51b835282016060906020815260196020820152782330b4b632b2103a379030b9b9b7b1b4b0ba32903a37b5b2b760391b60408201520190565b0390fd5b6106b19250803d106106b8575b6106a981836117e4565b810190611969565b8680610613565b503d61069f565b83513d88823e3d90fd5b6106e09150873d89116102e9576102db81836117e4565b8c6105b3565b88513d8e823e3d90fd5b5050505090919293946105da90611854565b83915034610313576020918260031936011261030f578135916001600160401b03938484168094036108525785549261073c86851661188f565b879685831c6001600160a01b031691885b815181101561084057610782868461076584866117d0565b518851636bf8e80f60e01b815293849283923391168d8401611831565b0381885afa908115610836578c91610819575b506107a8576107a39061178d565b61074d565b505050509091929394506107bc6001611854565b600685116107d85750505067ffffffffffffffff191617815580f35b5162461bcd60e51b815291820181905260248201527f496e76616c696420636f6e74726f6c20616c6c6f77206c697374206c6576656c604482015260649150fd5b6108309150873d89116102e9576102db81836117e4565b8c610795565b86513d8e823e3d90fd5b5050505090919293946107bc90611854565b8580fd5b82843461015d578060031936011261015d5780602092610874611720565b61087c61173a565b6001600160a01b0391821683526005865283832091168252845220549051908152f35b83915034610313576060366003190112610313576108bb611720565b6001600160a01b039260443591908483168303610852578554946001600160401b03946108e986881661188f565b8897841c831690885b8151811015610a47576109298961090983856117d0565b5116875190636bf8e80f60e01b82528180602094859333908b8401611831565b0381885afa918215610a3d578d92610a20575b50506109505761094b9061178d565b6108f2565b505050909192939495506109676001969296611854565b61096f611982565b86549161097d81841661188f565b88978994861c16935b8151811015610a0e5761099d8361090983856117d0565b03818a5afa9182156106e6578c926109f1575b50506109c4576109bf9061178d565b610986565b5050505050506109ea92506109d96001611854565b6109e1611982565b602435916119a5565b6001805580f35b610a079250803d106102e9576102db81836117e4565b8b806109b0565b5050505050506109d96109ea93611854565b610a369250803d106102e9576102db81836117e4565b8c8061093c565b88513d8f823e3d90fd5b5050509095610967909592939495611854565b838334610520578160031936011261052057610a74611720565b916024359082546001600160401b0394610a8f86831661188f565b949586956001600160a01b0393851c84169190875b8151811015610bea578a83610ab983856117d0565b5116885190636bf8e80f60e01b82528180610adb602095869433918401611831565b0381895afa918215610be057908d9695949392918c92610bc3575b5050610b0f57610b059061178d565b9091929350610aa4565b5050505050909192939450610b246001611854565b1691828452846020528184205494858211610b8057610b66827faa3cec92d25e6e7cf3bf119de96782be90a19b7f9d717dc51e03d3f8f8aa22b1959697611e0e565b90858752602052808387205582519182526020820152a280f35b606490602084519162461bcd60e51b8352820152601e60248201527f43616e6e6f7420756e6c6f636b206d6f7265207468616e206c6f636b656400006044820152fd5b610bd99250803d106102e9576102db81836117e4565b8d80610af6565b89513d8d823e3d90fd5b505050509091929394610b2490611854565b82843461015d578060031936011261015d57806020926101a7611720565b9050828060031936011261031357610c30611720565b815163e1f21c6760e01b81526001600160a01b03821684820190815233602082810191909152602435604083018190529094939092909181906060010390858161016793818b865af1908115610dc357906016918991610da6575b5060070b03610d6357835163eca3691760e01b81526001600160a01b03909216868301523360248301523060448301526001600160401b0390921660070b60648201529083908290608490829089905af1908115610d5957906016918691610d3c575b5060070b03610cfb578380f35b5162461bcd60e51b815291820152601860248201527f4661696c656420746f207472616e7366657220746f6b656e0000000000000000604482015260649150fd5b610d539150843d86116106b8576106a981836117e4565b86610cee565b82513d87823e3d90fd5b835162461bcd60e51b8152808701869052601760248201527f4661696c656420746f20617070726f766520746f6b656e0000000000000000006044820152606490fd5b610dbd9150873d89116106b8576106a981836117e4565b89610c8b565b85513d8a823e3d90fd5b82843461015d57602036600319011261015d57602090610df3610dee611720565b611e1b565b9051908152f35b82843461015d578060031936011261015d5780602092610e18611720565b610e2061173a565b6001600160a01b0391821683526007865283832091168252845220549051908152f35b9050823461031357606036600319011261031357610e5f611720565b90610e6861173a565b9084546001600160401b0394610e7f86831661188f565b879692841c6001600160a01b03169290875b8151811015610f1257610ea88361090983856117d0565b03818a5afa9182156106e6578c92610ef5575b5050610ecf57610eca9061178d565b610e91565b5050505050506109ea9250610ee46001611854565b610eec611982565b604435916119a5565b610f0b9250803d106102e9576102db81836117e4565b8b80610ebb565b505050505050610ee46109ea93611854565b8391503461031357610f3536611750565b92939591908754936001600160401b0396610f5188871661188f565b8a996001600160a01b0397909190871c8816908b5b815181101561126f578d8c610f7b83856117d0565b5116610f9e8b5191636bf8e80f60e01b83528280602093849333908d8401611831565b0381895afa9283156112645792611247575b5050610fc457610fbf9061178d565b610f66565b5050508697989950610fdd600197929394959697611854565b1695868a526020926005845281878c20991698898c52845285878c20541061121057878b5260058452868b20898c528452868b2061101c878254611e0e565b9055878b5260068452868b20898c528452868b2061103b868254611e0e565b9055878b5260058452868b20898c528452868b20546111f75750868a5260078352858a20888b5283528986812055975b89549061107981831661188f565b8b9a8c93891c16925b81518110156111e3578c6110b8878561109b85876117d0565b518d51636bf8e80f60e01b815293849283923391168c8401611831565b0381895afa9182156111d857916111bb575b506110dd576110d89061178d565b611082565b5050505090919293949596506110f36001611854565b86885280825284882054808411611179577faa3cec92d25e6e7cf3bf119de96782be90a19b7f9d717dc51e03d3f8f8aa22b1868594936111577fa6f6d5e50bc84f153a0d6a9f9b37780433f92dc32d7e10f975ab3831c36898fa9998978c95611e0e565b90848d52855280828d205581519086825285820152a28351928352820152a380f35b5060649185519162461bcd60e51b8352820152601e60248201527f43616e6e6f7420756e6c6f636b206d6f7265207468616e206c6f636b656400006044820152fd5b6111d29150873d89116102e9576102db81836117e4565b8e6110ca565b8b51903d90823e3d90fd5b50505050909192939495966110f390611854565b878b5260078452868b20898c528452868b20559761106b565b865162461bcd60e51b815280840185905260116024820152704e6f206c6f616e7320746f20726570617960781b6044820152606490fd5b61125d9250803d106102e9576102db81836117e4565b8f80610fb0565b8c51903d90823e3d90fd5b505050610fdd8798999a97929394959697611854565b905082346103135761129636611750565b90939592948754946001600160401b03966112b288881661188f565b8a996001600160a01b0398909190851c8916908b5b8151811015611563578d8c6112dc83856117d0565b51168b895191636bf8e80f60e01b835282806112ff602094859433918401611831565b0381895afa928315611558579261153b575b5050611325576113209061178d565b6112c7565b50505087989950611341600198929394959697989a999a611854565b1695868a52602091600583528a858120998b83169a8b835285528682206113698a8254611ecf565b9055898252600685528682208b83528552868220611388878254611ecf565b9055898252600785528682208b83528552878783205581546113ab82821661188f565b90839d84918a1c16935b8251821015611522576113ea88856113cd85876117d0565b518d51636bf8e80f60e01b815293849283923391168d8401611831565b0381895afa9182156111d85791611505575b506114105761140a9061178d565b8e6113b5565b5050505061142b91929394959697989950610dee6001611854565b83116114b657917f7695c943e86fe119073b098f1b278727c236f4a661c96a660dacbf88f89c606795939160609593898b52808252838b2061146e848254611ecf565b9055898b528152887fb8cecfd0e38e35fdd1cbaa8877116ea7f0dc948c1317b8ce1a47eaedfe64154684808d205481519086825285820152a28251948552840152820152a380f35b60849184519162461bcd60e51b8352820152602560248201527f496e73756666696369656e7420756e6c6f636b65642062616c616e636520746f604482015264206c6f636b60d81b6064820152fd5b61151c9150883d8a116102e9576102db81836117e4565b5f6113fc565b5050505050610dee61142b92939495969798999a611854565b6115519250803d106102e9576102db81836117e4565b8f80611311565b8a51903d90823e3d90fd5b505050611341889a9892939495969798611854565b83915034610313578160031936011261031357611593611720565b9160243584546001600160401b03946115ad86831661188f565b87966001600160a01b0393861c841691885b815181101561170e5788836115d483856117d0565b5116895190636bf8e80f60e01b825281806115f6602095869433918401611831565b0381895afa918215611704578d926116e7575b505061161d576116189061178d565b6115bf565b505050509091929394506116316001611854565b61163a81611e1b565b831161169657907fb8cecfd0e38e35fdd1cbaa8877116ea7f0dc948c1317b8ce1a47eaedfe64154693929116938486528060205282862061167c838254611ecf565b90558486526020528185205482519182526020820152a280f35b835162461bcd60e51b8152602081870152602560248201527f496e73756666696369656e7420756e6c6f636b65642062616c616e636520746f604482015264206c6f636b60d81b6064820152608490fd5b6116fd9250803d106102e9576102db81836117e4565b8c80611609565b8a513d8f823e3d90fd5b50505050909192939461163190611854565b600435906001600160a01b038216820361173657565b5f80fd5b602435906001600160a01b038216820361173657565b60a0906003190112611736576001600160a01b03906004358281168103611736579160243590811681036117365790604435906064359060843590565b5f19811461179b5760010190565b634e487b7160e01b5f52601160045260245ffd5b8051156117bc5760200190565b634e487b7160e01b5f52603260045260245ffd5b80518210156117bc5760209160051b010190565b90601f801991011681019081106001600160401b0382111761180557604052565b634e487b7160e01b5f52604160045260245ffd5b90816020910312611736575180151581036117365790565b6001600160401b0390911681526001600160a01b03909116602082015260400190565b1561185b57565b60405162461bcd60e51b815260206004820152600c60248201526b155b985d5d1a1bdc9a5e995960a21b6044820152606490fd5b6001600160401b039081166118ce57604051906040820190828210908211176118055760405260018152602036818301375f6118ca826117af565b5290565b6040519060e0820190811182821017611805576040526006815260c03660208301375f806118fb836117af565b5281516001101561195557600160408301528151600210156119555760026060830152815160031015611955576003608083015281516004101561195557600560a08301528151600510156119555750600660c082015290565b634e487b7160e01b81526032600452602490fd5b9081602091031261173657518060070b81036117365790565b600260015414611993576002600155565b604051633ee5aeb560e01b8152600490fd5b6001600160a01b0382811693908415611bc2576040805163e1f21c6760e01b81526001600160a01b0386166004820152306024820152604481018490526101679560209592935f9390929091908781606481888d5af1908115611bb857906016918691611b9b575b5060070b03611b5b57611a1f90611e1b565b8511611b065782916084879286519485938492630aed65f560e11b84528d6004850152306024850152169a8b60448401528960648401525af1918215611afb5790601692611ade575b5060070b03611a9b57519081527f645e52ee0ce5c05d60f4b051028f29630be7001f5d84cba67fe6872db872cff89190a3565b5162461bcd60e51b815260048101839052601960248201527f4661696c656420746f207472616e7366657220617373657473000000000000006044820152606490fd5b611af59150853d87116106b8576106a981836117e4565b5f611a68565b8351903d90823e3d90fd5b835162461bcd60e51b815260048101879052602860248201527f696e73756666696369656e742061737365747320746f20636f6d706c657465206044820152673a3930b739b332b960c11b6064820152608490fd5b845162461bcd60e51b81526020600482015260196024820152782330b4b632b2103a379030b9b9b7b1b4b0ba32903a37b5b2b760391b6044820152606490fd5b611bb29150893d8b116106b8576106a981836117e4565b5f611a0d565b86513d87823e3d90fd5b92611bcf91929450611e1b565b8111611dba575f918254936001600160401b0394611bee86821661188f565b958596869085604094851c16915b8151811015611da857611c3484611c1383856117d0565b5116865190636bf8e80f60e01b825281806020948593339060048401611831565b0381885afa918215611d9e578b92611d81575b5050611c5b57611c569061178d565b611bfc565b50505090919293949550611c6f6001611854565b611c77611982565b844710611d41578580808088875af1903d15611d3b573d908111611d2757825190611cac601f8201601f1916602001836117e4565b81528660203d92013e5b15611ced575192835216907f645e52ee0ce5c05d60f4b051028f29630be7001f5d84cba67fe6872db872cff890602090a360018055565b5162461bcd60e51b815260206004820152601460248201527312109054881d1c985b9cd9995c8819985a5b195960621b6044820152606490fd5b634e487b7160e01b87526041600452602487fd5b50611cb6565b815162461bcd60e51b8152602060048201526019602482015278496e73756666696369656e7420484241522062616c616e636560381b6044820152606490fd5b611d979250803d106102e9576102db81836117e4565b5f80611c47565b87513d8d823e3d90fd5b505050909192939495611c6f90611854565b60405162461bcd60e51b815260206004820152602660248201527f696e73756666696369656e74204842415220746f20636f6d706c65746520747260448201526530b739b332b960d11b6064820152608490fd5b9190820391821161179b57565b6001600160a01b03165f8181526004602052604081205490918015611ebc576020602491604051928380926370a0823160e01b82523060048301525afa908115611eb1578391611e80575b50808211611e7b57611e789250611e0e565b90565b505090565b90506020813d8211611ea9575b81611e9a602093836117e4565b8101031261031357515f611e66565b3d9150611e8d565b6040513d85823e3d90fd5b5047808211611e7b57611e789250611e0e565b9190820180921161179b5756fea26469706673582212208eb12f7b8819115de9b1e0f797daa060fd31c423751fbb4aedfbf530a877dd0b64736f6c63430008140033","linkReferences":{}},"methodIdentifiers":{"acl()":"de287359","addLoanLock(address,address,uint256,uint256,uint256)":"31b3203a","associateToken(address)":"a7efe348","controlAllowList()":"c7ea4d44","deposit(address,uint256)":"47e7ef24","getCollateral(address,address)":"52226ef0","getLoanAmount(address,address)":"8e543a12","getLoanBlockIndex(address,address)":"44eb5e00","getTradableBalance(address)":"4743c2fd","isBridger()":"e9ea28de","loanCollaterals(address,address)":"dce83ae3","loanIndexes(address,address)":"431d8ffe","loans(address,address)":"52696601","lockAsset(address,uint256)":"28cafd72","removeLoanLock(address,address,uint256,uint256,uint256)":"42c8afad","setControlAllowList(uint64)":"a1d34a42","transferAsset(address,address,uint256)":"439e2e45","transferHbar(address,uint256)":"acbc6820","unlockAsset(address,uint256)":"5e7db13d","updateBridgingStatus(bool)":"b2567d1f","withdraw(address,uint256,address)":"69328dec"},"id":41}