{"abi":[{"type":"constructor","inputs":[{"name":"_controller","type":"string","internalType":"string"},{"name":"aclContract","type":"address","internalType":"address"},{"name":"allowList","type":"uint64","internalType":"uint64"}],"stateMutability":"nonpayable"},{"type":"receive","stateMutability":"payable"},{"type":"function","name":"acl","inputs":[],"outputs":[{"name":"","type":"address","internalType":"contract AccessController"}],"stateMutability":"view"},{"type":"function","name":"addLoanLock","inputs":[{"name":"lender","type":"address","internalType":"address"},{"name":"collateral","type":"address","internalType":"address"},{"name":"loanAmount","type":"uint256","internalType":"uint256"},{"name":"collateralAmount","type":"uint256","internalType":"uint256"},{"name":"borrowIndex","type":"uint256","internalType":"uint256"}],"outputs":[],"stateMutability":"nonpayable"},{"type":"function","name":"associateToken","inputs":[{"name":"token","type":"address","internalType":"address"}],"outputs":[],"stateMutability":"nonpayable"},{"type":"function","name":"controlAllowList","inputs":[],"outputs":[{"name":"","type":"uint64","internalType":"uint64"}],"stateMutability":"view"},{"type":"function","name":"deposit","inputs":[{"name":"asset","type":"address","internalType":"address"},{"name":"amount","type":"uint256","internalType":"uint256"}],"outputs":[],"stateMutability":"payable"},{"type":"function","name":"getCollateral","inputs":[{"name":"lender","type":"address","internalType":"address"},{"name":"collateral","type":"address","internalType":"address"}],"outputs":[{"name":"","type":"uint256","internalType":"uint256"}],"stateMutability":"view"},{"type":"function","name":"getLoanAmount","inputs":[{"name":"lender","type":"address","internalType":"address"},{"name":"collateral","type":"address","internalType":"address"}],"outputs":[{"name":"","type":"uint256","internalType":"uint256"}],"stateMutability":"view"},{"type":"function","name":"getLoanBlockIndex","inputs":[{"name":"lender","type":"address","internalType":"address"},{"name":"collateral","type":"address","internalType":"address"}],"outputs":[{"name":"","type":"uint256","internalType":"uint256"}],"stateMutability":"view"},{"type":"function","name":"getTradableBalance","inputs":[{"name":"asset","type":"address","internalType":"address"}],"outputs":[{"name":"","type":"uint256","internalType":"uint256"}],"stateMutability":"view"},{"type":"function","name":"isBridger","inputs":[],"outputs":[{"name":"","type":"bool","internalType":"bool"}],"stateMutability":"view"},{"type":"function","name":"loanCollaterals","inputs":[{"name":"","type":"address","internalType":"address"},{"name":"","type":"address","internalType":"address"}],"outputs":[{"name":"","type":"uint256","internalType":"uint256"}],"stateMutability":"view"},{"type":"function","name":"loanIndexes","inputs":[{"name":"","type":"address","internalType":"address"},{"name":"","type":"address","internalType":"address"}],"outputs":[{"name":"","type":"uint256","internalType":"uint256"}],"stateMutability":"view"},{"type":"function","name":"loans","inputs":[{"name":"","type":"address","internalType":"address"},{"name":"","type":"address","internalType":"address"}],"outputs":[{"name":"","type":"uint256","internalType":"uint256"}],"stateMutability":"view"},{"type":"function","name":"lockAsset","inputs":[{"name":"asset","type":"address","internalType":"address"},{"name":"amount","type":"uint256","internalType":"uint256"}],"outputs":[],"stateMutability":"nonpayable"},{"type":"function","name":"removeLoanLock","inputs":[{"name":"lender","type":"address","internalType":"address"},{"name":"collateral","type":"address","internalType":"address"},{"name":"loanAmount","type":"uint256","internalType":"uint256"},{"name":"collateralAmount","type":"uint256","internalType":"uint256"},{"name":"borrowIndex","type":"uint256","internalType":"uint256"}],"outputs":[],"stateMutability":"nonpayable"},{"type":"function","name":"setControlAllowList","inputs":[{"name":"_newLevel","type":"uint64","internalType":"uint64"}],"outputs":[],"stateMutability":"nonpayable"},{"type":"function","name":"transferAsset","inputs":[{"name":"to","type":"address","internalType":"address"},{"name":"asset","type":"address","internalType":"address"},{"name":"amount","type":"uint256","internalType":"uint256"}],"outputs":[],"stateMutability":"nonpayable"},{"type":"function","name":"transferHbar","inputs":[{"name":"to","type":"address","internalType":"address"},{"name":"amount","type":"uint256","internalType":"uint256"}],"outputs":[],"stateMutability":"nonpayable"},{"type":"function","name":"unlockAsset","inputs":[{"name":"asset","type":"address","internalType":"address"},{"name":"amount","type":"uint256","internalType":"uint256"}],"outputs":[],"stateMutability":"nonpayable"},{"type":"function","name":"updateBridgingStatus","inputs":[{"name":"status","type":"bool","internalType":"bool"}],"outputs":[],"stateMutability":"nonpayable"},{"type":"function","name":"withdraw","inputs":[{"name":"asset","type":"address","internalType":"address"},{"name":"amount","type":"uint256","internalType":"uint256"},{"name":"to","type":"address","internalType":"address"}],"outputs":[],"stateMutability":"nonpayable"},{"type":"event","name":"AssetLocked","inputs":[{"name":"asset","type":"address","indexed":true,"internalType":"address"},{"name":"amount","type":"uint256","indexed":false,"internalType":"uint256"},{"name":"totalLocked","type":"uint256","indexed":false,"internalType":"uint256"}],"anonymous":false},{"type":"event","name":"AssetTransferred","inputs":[{"name":"to","type":"address","indexed":true,"internalType":"address"},{"name":"asset","type":"address","indexed":true,"internalType":"address"},{"name":"amount","type":"uint256","indexed":false,"internalType":"uint256"}],"anonymous":false},{"type":"event","name":"AssetUnlocked","inputs":[{"name":"asset","type":"address","indexed":true,"internalType":"address"},{"name":"amount","type":"uint256","indexed":false,"internalType":"uint256"},{"name":"totalLocked","type":"uint256","indexed":false,"internalType":"uint256"}],"anonymous":false},{"type":"event","name":"DepositReceived","inputs":[{"name":"depositor","type":"address","indexed":false,"internalType":"address"},{"name":"amount","type":"uint256","indexed":false,"internalType":"uint256"}],"anonymous":false},{"type":"event","name":"LoanAdded","inputs":[{"name":"lender","type":"address","indexed":true,"internalType":"address"},{"name":"collateral","type":"address","indexed":true,"internalType":"address"},{"name":"loanAmount","type":"uint256","indexed":false,"internalType":"uint256"},{"name":"collateralAmount","type":"uint256","indexed":false,"internalType":"uint256"},{"name":"borrowIndex","type":"uint256","indexed":false,"internalType":"uint256"}],"anonymous":false},{"type":"event","name":"LoanRepaid","inputs":[{"name":"lender","type":"address","indexed":true,"internalType":"address"},{"name":"collateral","type":"address","indexed":true,"internalType":"address"},{"name":"loanAmount","type":"uint256","indexed":false,"internalType":"uint256"},{"name":"collateralAmount","type":"uint256","indexed":false,"internalType":"uint256"}],"anonymous":false},{"type":"event","name":"TokenAssociated","inputs":[{"name":"token","type":"address","indexed":true,"internalType":"address"}],"anonymous":false},{"type":"error","name":"ReentrancyGuardReentrantCall","inputs":[]}],"bytecode":{"object":"0x6080604052346200029b5762001554803803806200001d81620002b4565b9283398101906060818303126200029b5780516001600160401b0391908281116200029b57810192601f908082860112156200029b578451928484116200024457602093601f19966200007686898785011601620002b4565b938285528683830101116200029b5785905f5b8381106200029f5750505f918401015280840151906001600160a01b03821682036200029b57604001518581168091036200029b576006811162000258575f549168010000000000000000600160e01b039060401b169163ffffffff60e01b1617175f5560019283805560ff1960035416600355815194851162000244576002548481811c9116801562000239575b828210146200022557838111620001dc575b5080928511600114620001755750839450908392915f9462000169575b50501b915f199060031b1c1916176002555b6040516112799081620002db8239f35b015192505f8062000147565b92948490811660025f52845f20945f905b88838310620001c15750505010620001a8575b505050811b0160025562000159565b01515f1960f88460031b161c191690555f808062000199565b85870151885590960195948501948793509081019062000186565b60025f52815f208480880160051c8201928489106200021b575b0160051c019085905b8281106200020f5750506200012a565b5f8155018590620001ff565b92508192620001f6565b634e487b7160e01b5f52602260045260245ffd5b90607f169062000118565b634e487b7160e01b5f52604160045260245ffd5b6064856040519062461bcd60e51b825280600483015260248201527f496e76616c696420636f6e74726f6c20616c6c6f77206c697374206c6576656c6044820152fd5b5f80fd5b81810183015186820184015287920162000089565b6040519190601f01601f191682016001600160401b03811183821017620002445760405256fe60406080815260048036101561004b575b50361561001b575f80fd5b807f9936746a4565f9766fa768f88f56a7487c78780ac179562773d1c75c5269537e9151338152346020820152a1005b5f90813560e01c90816328cafd7214610c0357816331b3203a14610aa757816342c8afad146108e5578163431d8ffe14610866578163439e2e45146108af57816344eb5e00146108665781634743c2fd1461083957816347e7ef241461068f57816352226ef014610671578163526966011461050c5781635e7db13d146105a957816369328dec146105555781638e543a121461050c578163a1d34a421461047f578163a7efe34814610366578163acbc682014610228578163b2567d1f146101f957508063c7ea4d44146101d2578063dce83ae314610189578063de287359146101615763e9ea28de0361001057903461015d578160031936011261015d5760209060ff6003541690519015158152f35b5080fd5b50903461015d578160031936011261015d5790548151911c6001600160a01b03168152602090f35b50903461015d578060031936011261015d57806020926101a7610cde565b6101af610cf8565b6001600160a01b0391821683526006865283832091168252845220549051908152f35b50903461015d578160031936011261015d5767ffffffffffffffff60209254169051908152f35b90503461015d57602036600319011261015d573580151580910361015d5760ff80196003541691161760035580f35b90503461015d578260031936011261015d57610242610cde565b6024359161024e610d9a565b824710610327578380808086865af13d15610322573d67ffffffffffffffff811161030f5786519061028a601f8201601f191660200183610d4b565b81528560203d92013e5b156102d5575060207f645e52ee0ce5c05d60f4b051028f29630be7001f5d84cba67fe6872db872cff89184955193845260018060a01b031692a36001805580f35b606490602086519162461bcd60e51b8352820152601460248201527312109054881d1c985b9cd9995c8819985a5b195960621b6044820152fd5b634e487b7160e01b865260418352602486fd5b610294565b606490602086519162461bcd60e51b83528201526019602482015278496e73756666696369656e7420484241522062616c616e636560381b6044820152fd5b8391503461047b57602036600319011261047b57610382610cde565b825163248a35ef60e11b815230838201526001600160a01b03909116602482018190529290602081604481886101675af190811561047157906016918691610443575b5060070b036103f75750507fbbbf805ef99ca7d0b7d2cc769719f2a281c9b3331a3642efa75a712e3094a1668280a280f35b61043f92505191829162461bcd60e51b835282016060906020815260196020820152782330b4b632b2103a379030b9b9b7b1b4b0ba32903a37b5b2b760391b60408201520190565b0390fd5b610464915060203d811161046a575b61045c8183610d4b565b810190610d81565b866103c5565b503d610452565b82513d87823e3d90fd5b8280fd5b8391503461047b57602036600319011261047b5780359167ffffffffffffffff831680930361050857600683116104c5575050815467ffffffffffffffff191617815580f35b906020606492519162461bcd60e51b8352820152602060248201527f496e76616c696420636f6e74726f6c20616c6c6f77206c697374206c6576656c6044820152fd5b8380fd5b82843461015d578060031936011261015d578060209261052a610cde565b610532610cf8565b6001600160a01b0391821683526005865283832091168252845220549051908152f35b82346105a65760603660031901126105a65761056f610cde565b6044356001600160a01b038116810361047b5761059f9161058e610d9a565b610596610d9a565b60243591610dbd565b6001805580f35b80fd5b82843461015d578060031936011261015d576105c3610cde565b6001600160a01b0316808352602084905281832054939091906024359085821161062e57610614827faa3cec92d25e6e7cf3bf119de96782be90a19b7f9d717dc51e03d3f8f8aa22b1959697611161565b90858752602052808387205582519182526020820152a280f35b606490602084519162461bcd60e51b8352820152601e60248201527f43616e6e6f7420756e6c6f636b206d6f7265207468616e206c6f636b656400006044820152fd5b82843461015d578060031936011261015d57806020926101a7610cde565b9050828060031936011261047b576106a5610cde565b815163e1f21c6760e01b81526001600160a01b03821684820190815233602082810191909152602435604083018190529094939092909181906060010390858161016793818b865af190811561082f57906016918991610812575b5060070b036107cf57835163eca3691760e01b81526001600160a01b039092168683015233602483015230604483015267ffffffffffffffff90921660070b60648201529083908290608490829089905af1908115610471579060169186916107b2575b5060070b03610771578380f35b5162461bcd60e51b815291820152601860248201527f4661696c656420746f207472616e7366657220746f6b656e0000000000000000604482015260649150fd5b6107c99150843d861161046a5761045c8183610d4b565b86610764565b835162461bcd60e51b8152808701869052601760248201527f4661696c656420746f20617070726f766520746f6b656e0000000000000000006044820152606490fd5b6108299150873d891161046a5761045c8183610d4b565b89610700565b85513d8a823e3d90fd5b82843461015d57602036600319011261015d5760209061085f61085a610cde565b611182565b9051908152f35b82843461015d578060031936011261015d5780602092610884610cde565b61088c610cf8565b6001600160a01b0391821683526007865283832091168252845220549051908152f35b82346105a65760603660031901126105a65761059f6108cc610cde565b6108d4610cf8565b6108dc610d9a565b60443591610dbd565b9050823461047b576108f636610d0e565b94939091929560018060a01b038092169586895260209260058452868a20981697888a52835284868a205410610a715786895260058352858920888a528352858920610943868254611161565b905586895260068352858920888a528352858920610962858254611161565b905586895260058352858920888a52835285892054610a59575085885260078252848820878952825287858120555b86885280825284882054808411610a17577faa3cec92d25e6e7cf3bf119de96782be90a19b7f9d717dc51e03d3f8f8aa22b1868594936109f57fa6f6d5e50bc84f153a0d6a9f9b37780433f92dc32d7e10f975ab3831c36898fa9998978c95611161565b90848d52855280828d205581519086825285820152a28351928352820152a380f35b5060649185519162461bcd60e51b8352820152601e60248201527f43616e6e6f7420756e6c6f636b206d6f7265207468616e206c6f636b656400006044820152fd5b86895260078352858920888a52835285892055610991565b5060649185519162461bcd60e51b835282015260116024820152704e6f206c6f616e7320746f20726570617960781b6044820152fd5b8391503461047b57610ab836610d0e565b9260018060a0989496981b0380971695868952610b2960209260058452858b20998116998a8c528452858b20610aef898254611236565b9055888b5260068452858b208a8c528452858b20610b0e868254611236565b9055888b5260078452858b208a8c52845286868c2055611182565b8311610bb457917f7695c943e86fe119073b098f1b278727c236f4a661c96a660dacbf88f89c606795939160609593898b52808252838b20610b6c848254611236565b9055898b528152887fb8cecfd0e38e35fdd1cbaa8877116ea7f0dc948c1317b8ce1a47eaedfe64154684808d205481519086825285820152a28251948552840152820152a380f35b60849184519162461bcd60e51b8352820152602560248201527f496e73756666696369656e7420756e6c6f636b65642062616c616e636520746f604482015264206c6f636b60d81b6064820152fd5b9050823461047b578060031936011261047b57610c1e610cde565b60243590610c2b81611182565b8211610c8d57907fb8cecfd0e38e35fdd1cbaa8877116ea7f0dc948c1317b8ce1a47eaedfe641546929160018060a01b03169384865280602052828620610c73838254611236565b90558486526020528185205482519182526020820152a280f35b825162461bcd60e51b8152602081860152602560248201527f496e73756666696369656e7420756e6c6f636b65642062616c616e636520746f604482015264206c6f636b60d81b6064820152608490fd5b600435906001600160a01b0382168203610cf457565b5f80fd5b602435906001600160a01b0382168203610cf457565b60a0906003190112610cf4576001600160a01b03906004358281168103610cf457916024359081168103610cf45790604435906064359060843590565b90601f8019910116810190811067ffffffffffffffff821117610d6d57604052565b634e487b7160e01b5f52604160045260245ffd5b90816020910312610cf457518060070b8103610cf45790565b600260015414610dab576002600155565b604051633ee5aeb560e01b8152600490fd5b6001600160a01b0382811693908415610fda576040805163e1f21c6760e01b81526001600160a01b0386166004820152306024820152604481018490526101679560209592935f9390929091908781606481888d5af1908115610fd057906016918691610fb3575b5060070b03610f7357610e3790611182565b8511610f1e5782916084879286519485938492630aed65f560e11b84528d6004850152306024850152169a8b60448401528960648401525af1918215610f135790601692610ef6575b5060070b03610eb357519081527f645e52ee0ce5c05d60f4b051028f29630be7001f5d84cba67fe6872db872cff89190a3565b5162461bcd60e51b815260048101839052601960248201527f4661696c656420746f207472616e7366657220617373657473000000000000006044820152606490fd5b610f0d9150853d871161046a5761045c8183610d4b565b5f610e80565b8351903d90823e3d90fd5b835162461bcd60e51b815260048101879052602860248201527f696e73756666696369656e742061737365747320746f20636f6d706c657465206044820152673a3930b739b332b960c11b6064820152608490fd5b845162461bcd60e51b81526020600482015260196024820152782330b4b632b2103a379030b9b9b7b1b4b0ba32903a37b5b2b760391b6044820152606490fd5b610fca9150893d8b1161046a5761045c8183610d4b565b5f610e25565b86513d87823e3d90fd5b91935091610fe790611182565b821161110d57610ff5610d9a565b8147106110cc575f928380808086855af13d156110c7573d67ffffffffffffffff81116110b35760405190611034601f8201601f191660200183610d4b565b81528560203d92013e5b15611077577f645e52ee0ce5c05d60f4b051028f29630be7001f5d84cba67fe6872db872cff8916020916040519485521692a360018055565b60405162461bcd60e51b815260206004820152601460248201527312109054881d1c985b9cd9995c8819985a5b195960621b6044820152606490fd5b634e487b7160e01b86526041600452602486fd5b61103e565b60405162461bcd60e51b8152602060048201526019602482015278496e73756666696369656e7420484241522062616c616e636560381b6044820152606490fd5b60405162461bcd60e51b815260206004820152602660248201527f696e73756666696369656e74204842415220746f20636f6d706c65746520747260448201526530b739b332b960d11b6064820152608490fd5b9190820391821161116e57565b634e487b7160e01b5f52601160045260245ffd5b6001600160a01b03165f8181526004602052604081205490918015611223576020602491604051928380926370a0823160e01b82523060048301525afa9081156112185783916111e7575b508082116111e2576111df9250611161565b90565b505090565b90506020813d8211611210575b8161120160209383610d4b565b8101031261047b57515f6111cd565b3d91506111f4565b6040513d85823e3d90fd5b50478082116111e2576111df9250611161565b9190820180921161116e5756fea2646970667358221220e024b269207bf29913ffd1b33e9edb0719aa33edbe3169778edb8e30b1ff879364736f6c63430008140033","linkReferences":{}},"methodIdentifiers":{"acl()":"de287359","addLoanLock(address,address,uint256,uint256,uint256)":"31b3203a","associateToken(address)":"a7efe348","controlAllowList()":"c7ea4d44","deposit(address,uint256)":"47e7ef24","getCollateral(address,address)":"52226ef0","getLoanAmount(address,address)":"8e543a12","getLoanBlockIndex(address,address)":"44eb5e00","getTradableBalance(address)":"4743c2fd","isBridger()":"e9ea28de","loanCollaterals(address,address)":"dce83ae3","loanIndexes(address,address)":"431d8ffe","loans(address,address)":"52696601","lockAsset(address,uint256)":"28cafd72","removeLoanLock(address,address,uint256,uint256,uint256)":"42c8afad","setControlAllowList(uint64)":"a1d34a42","transferAsset(address,address,uint256)":"439e2e45","transferHbar(address,uint256)":"acbc6820","unlockAsset(address,uint256)":"5e7db13d","updateBridgingStatus(bool)":"b2567d1f","withdraw(address,uint256,address)":"69328dec"},"id":18}