{"abi":[{"type":"function","name":"PROTOCOL","inputs":[],"outputs":[{"name":"","type":"address","internalType":"address"}],"stateMutability":"view"},{"type":"function","name":"getMultiplier","inputs":[{"name":"token","type":"address","internalType":"address"}],"outputs":[{"name":"","type":"uint128","internalType":"uint128"}],"stateMutability":"view"},{"type":"function","name":"prices","inputs":[{"name":"","type":"address","internalType":"address"}],"outputs":[{"name":"","type":"uint128","internalType":"uint128"}],"stateMutability":"view"},{"type":"function","name":"updateMultiplier","inputs":[{"name":"token","type":"address","internalType":"address"},{"name":"multiplier","type":"uint128","internalType":"uint128"}],"outputs":[],"stateMutability":"nonpayable"}],"bytecode":{"object":"0x608060405234601c57600e6020565b61050561002b823961050590f35b6026565b60405190565b5f80fdfe60806040526004361015610013575b61033f565b61001d5f3561005c565b80631ba5d70d1461005757806391b9b82714610052578063a9d637e11461004d5763cfed246b0361000e5761030a565b610234565b6101bf565b610114565b60e01c90565b60405190565b5f80fd5b5f80fd5b60018060a01b031690565b61008490610070565b90565b6100908161007b565b0361009757565b5f80fd5b905035906100a882610087565b565b6fffffffffffffffffffffffffffffffff1690565b6100c8816100aa565b036100cf57565b5f80fd5b905035906100e0826100bf565b565b919060408382031261010a57806100fe610107925f860161009b565b936020016100d3565b90565b61006c565b5f0190565b346101435761012d6101273660046100e2565b9061047b565b610135610062565b8061013f8161010f565b0390f35b610068565b5f91031261015257565b61006c565b90565b90565b61017161016c61017692610157565b61015a565b610070565b90565b6101829061015d565b90565b61018f6001610179565b90565b61019a610185565b90565b6101a69061007b565b9052565b91906101bd905f6020850194019061019d565b565b346101ef576101cf366004610148565b6101eb6101da610192565b6101e2610062565b918291826101aa565b0390f35b610068565b9060208282031261020d5761020a915f0161009b565b90565b61006c565b61021b906100aa565b9052565b9190610232905f60208501940190610212565b565b346102645761026061024f61024a3660046101f4565b6104b1565b610257610062565b9182918261021f565b0390f35b610068565b61027d61027861028292610070565b61015a565b610070565b90565b61028e90610269565b90565b61029a90610285565b90565b906102a790610291565b5f5260205260405f2090565b1c90565b6fffffffffffffffffffffffffffffffff1690565b6102dc9060086102e193026102b3565b6102b7565b90565b906102ef91546102cc565b90565b610307906103025f915f9261029d565b6102e4565b90565b3461033a576103366103256103203660046101f4565b6102f2565b61032d610062565b9182918261021f565b0390f35b610068565b5f80fd5b60209181520190565b5f7f4f7065726174696f6e206e6f7420617574686f72697365640000000000000000910152565b6103806018602092610343565b6103898161034c565b0190565b6103a29060208101905f818303910152610373565b90565b156103ac57565b6103b4610062565b62461bcd60e51b8152806103ca6004820161038d565b0390fd5b906103fb916103f6336103f06103ea6103e5610185565b61007b565b9161007b565b146103a5565b610466565b565b5f1b90565b9061041d6fffffffffffffffffffffffffffffffff916103fd565b9181191691161790565b61043b610436610440926100aa565b61015a565b6100aa565b90565b90565b9061045b61045661046292610427565b610443565b8254610402565b9055565b61047461047992915f61029d565b610446565b565b90610485916103ce565b565b5f90565b5f1c90565b61049c6104a19161048b565b6102b7565b90565b6104ae9054610490565b90565b6104c76104cc916104c0610487565b505f61029d565b6104a4565b9056fea2646970667358221220714be03b0e7890a22762d79da586efb49ed35808aba43ca44c9f27b728e88aba64736f6c634300081e0033","linkReferences":{}},"methodIdentifiers":{"PROTOCOL()":"91b9b827","getMultiplier(address)":"a9d637e1","prices(address)":"cfed246b","updateMultiplier(address,uint128)":"1ba5d70d"},"id":14}