{"abi":[{"type":"constructor","inputs":[{"name":"_name","type":"string","internalType":"string"},{"name":"_symbol","type":"string","internalType":"string"},{"name":"aclContract","type":"address","internalType":"address"},{"name":"allowList","type":"uint64","internalType":"uint64"}],"stateMutability":"payable"},{"type":"function","name":"acl","inputs":[],"outputs":[{"name":"","type":"address","internalType":"contract AccessController"}],"stateMutability":"view"},{"type":"function","name":"airdropTokens","inputs":[{"name":"target","type":"address","internalType":"address"},{"name":"amount","type":"uint64","internalType":"uint64"}],"outputs":[],"stateMutability":"nonpayable"},{"type":"function","name":"burn","inputs":[{"name":"amount","type":"uint64","internalType":"uint64"}],"outputs":[],"stateMutability":"nonpayable"},{"type":"function","name":"controlAllowList","inputs":[],"outputs":[{"name":"","type":"uint64","internalType":"uint64"}],"stateMutability":"view"},{"type":"function","name":"mint","inputs":[{"name":"amount","type":"uint64","internalType":"uint64"}],"outputs":[],"stateMutability":"nonpayable"},{"type":"function","name":"redirectForToken","inputs":[{"name":"token","type":"address","internalType":"address"},{"name":"encodedFunctionSelector","type":"bytes","internalType":"bytes"}],"outputs":[{"name":"responseCode","type":"int256","internalType":"int256"},{"name":"response","type":"bytes","internalType":"bytes"}],"stateMutability":"nonpayable"},{"type":"function","name":"selfAssociate","inputs":[],"outputs":[],"stateMutability":"nonpayable"},{"type":"function","name":"setControlAllowList","inputs":[{"name":"_newLevel","type":"uint64","internalType":"uint64"}],"outputs":[],"stateMutability":"nonpayable"},{"type":"function","name":"token","inputs":[],"outputs":[{"name":"","type":"address","internalType":"address"}],"stateMutability":"view"},{"type":"function","name":"transferFrom","inputs":[{"name":"token","type":"address","internalType":"address"},{"name":"from","type":"address","internalType":"address"},{"name":"to","type":"address","internalType":"address"},{"name":"amount","type":"uint256","internalType":"uint256"}],"outputs":[{"name":"responseCode","type":"int64","internalType":"int64"}],"stateMutability":"nonpayable"},{"type":"function","name":"transferFromNFT","inputs":[{"name":"token","type":"address","internalType":"address"},{"name":"from","type":"address","internalType":"address"},{"name":"to","type":"address","internalType":"address"},{"name":"serialNumber","type":"uint256","internalType":"uint256"}],"outputs":[{"name":"responseCode","type":"int64","internalType":"int64"}],"stateMutability":"nonpayable"},{"type":"function","name":"wipe","inputs":[{"name":"amount","type":"uint64","internalType":"uint64"},{"name":"account","type":"address","internalType":"address"}],"outputs":[],"stateMutability":"nonpayable"},{"type":"event","name":"CallResponseEvent","inputs":[{"name":"","type":"bool","indexed":false,"internalType":"bool"},{"name":"","type":"bytes","indexed":false,"internalType":"bytes"}],"anonymous":false}],"bytecode":{"object":"0x60808060405262001f2a80380380916200001a828562000857565b83398101608082820312620006fb5781516001600160401b038111620006fb578162000048918401620008ba565b602083015190916001600160401b038211620006fb576200006b918401620008ba565b604083015190926001600160a01b0382168203620006fb57606001516001600160401b03811690819003620006fb57600160208181525f8051602062001e4a8339815191529190915560025f8051602062001e6a8339815191525560045f8051602062001eea8339815191525560085f8051602062001eaa8339815191525560105f8051602062001e8a833981519152555f8051602062001f0a8339815191525560065f81905260405f8051602062001eca833981519152558111620007f757600280546001600160e01b03191691909117604092831b600160401b600160e01b0316179055519161012083016001600160401b03811184821017620007e35760405260608352606060208401525f60408401526060808401525f60808401525f60a08401525f60c0840152606060e0840152620001a862000907565b91610100928385015283526020830152306040830152620001c862000907565b30602082015262786450604082015281830152604051808281011060018060401b038383011117620007e357818101604052600781525f5b60e08110620007c957506200021462000972565b505f805260016020525f8051602062001e4a833981519152546200023762000936565b306020820152604051916200024c836200083b565b825260208201526200025e8262000996565b526200026a8162000996565b506200027562000972565b5060015f8190526020525f8051602062001e6a833981519152546200029962000936565b30602082015260405191620002ae836200083b565b82526020820152620002c082620009b8565b52620002cc81620009b8565b50620002d762000972565b5060025f5260016020525f8051602062001eea83398151915254620002fb62000936565b3060208201526040519162000310836200083b565b825260208201526200032282620009c9565b526200032e81620009c9565b506200033962000972565b5060035f5260016020525f8051602062001eaa833981519152546200035d62000936565b3060208201526040519162000372836200083b565b825260208201526200038482620009da565b526200039081620009da565b506200039b62000972565b5060045f5260016020525f8051602062001e8a83398151915254620003bf62000936565b30602082015260405191620003d4836200083b565b82526020820152620003e682620009eb565b52620003f281620009eb565b50620003fd62000972565b5060055f5260016020525f8051602062001f0a833981519152546200042162000936565b3060208201526040519162000436836200083b565b825260208201526200044882620009fc565b526200045481620009fc565b506200045f62000972565b5060065f5260016020525f8051602062001eca833981519152546200048362000936565b3060208201526040519162000498836200083b565b82526020820152620004aa8262000a0d565b52620004b68162000a0d565b5060e083015280820151805160070b1580620007b9575b620007a9575b5060405190630fb65bf360e01b6020830152606060248301526200054f620005256200050e855161016060848701526101e486019062000a1e565b60208601518582036083190160a487015262000a1e565b60408501516001600160a01b031660c485015260608501518482036083190160e486015262000a1e565b926080810151151561010484015260a081015160070b61012484015260c0810151151561014484015260e08101519360831984820301610164850152845180825260208201916020808360051b8301019701925f915b83831062000714575f808962000601818d60408d8d0151805160070b61018485015260018060a01b036020820151166101a4850152015160070b6101c48301528460448301526008606483015203601f19810183528262000857565b602081519101346101675af13d156200070b573d9062000621826200087b565b9162000631604051938462000857565b82523d5f602084013e5b15620006ff57604081805181010312620006fb576020810151908160030b809203620006fb57604001516001600160a01b0381169190829003620006fb576016905b60030b03620006b657600380546001600160a01b0319166001600160a01b0392909216919091179055604051611404908162000a468239f35b60405162461bcd60e51b815260206004820152601660248201527f4661696c656420746f2063726561746520746f6b656e000000000000000000006044820152606490fd5b5f80fd5b505f601660156200067d565b6060906200063b565b9091929397602080600192601f19858203018652818c5180518352015190604083820152815115156040820152848060a01b038383015116606082015260c06200078962000772604085015160a0608086015260e085019062000a1e565b6060850151848203603f190160a086015262000a1e565b926080878060a01b03910151169101529a019301930191939290620005a5565b60406276a7009101525f620004d3565b50604081015160070b15620004cd565b602090620007d662000972565b8282850101520162000200565b634e487b7160e01b5f52604160045260245ffd5b606460405162461bcd60e51b815260206004820152602060248201527f496e76616c696420636f6e74726f6c20616c6c6f77206c697374206c6576656c6044820152fd5b604081019081106001600160401b03821117620007e357604052565b601f909101601f19168101906001600160401b03821190821017620007e357604052565b6001600160401b038111620007e357601f01601f191660200190565b5f5b838110620008a95750505f910152565b818101518382015260200162000899565b81601f82011215620006fb578051620008d3816200087b565b92620008e3604051948562000857565b81845260208284010111620006fb5762000904916020808501910162000897565b90565b60405190606082016001600160401b03811183821017620007e3576040525f6040838281528260208201520152565b6040519060a082016001600160401b03811183821017620007e3576040525f608083828152826020820152606060408201526060808201520152565b6040519062000981826200083b565b815f815260206200099162000936565b910152565b805115620009a45760200190565b634e487b7160e01b5f52603260045260245ffd5b805160011015620009a45760400190565b805160021015620009a45760600190565b805160031015620009a45760800190565b805160041015620009a45760a00190565b805160051015620009a45760c00190565b805160061015620009a45760e00190565b9060209162000a398151809281855285808601910162000897565b601f01601f191601019056fe6080806040526004361015610012575f80fd5b5f3560e01c90816315dacbea1461104757508063618dc65e14610efe5780637276ecca14610d4c5780637349da0a146108b45780639b23d3d9146108075780639dbead4214610601578063a1d34a42146104da578063c7ea4d44146104b4578063d04f10f7146103da578063de287359146103b0578063fb9d09c8146100cc5763fc0c546a146100a0575f80fd5b346100c8575f3660031901126100c8576003546040516001600160a01b039091168152602090f35b5f80fd5b346100c8576020806003193601126100c8576100e66111bf565b600254906001600160401b03906100fe8284166112b8565b5f936001600160a01b039160409190911c821690855b81518110156103a1579081888761012f61015f969585611251565b51604051636bf8e80f60e01b815291166001600160401b0316600482015233602482015294859081906044820190565b0381865afa80156103965789945f91610369575b5061018a5761018190611212565b90919250610114565b505050509091925061019c600161127d565b600354166040516101ac8161110f565b5f815260405191848684019463707a02cd60e11b8652608485019260248601521660070b604484015260606064840152815180915260a48301908660a48260051b8601019301915f905b8883831061034057885f808a8a610216818c03601f198101835282611145565b5190826101675af16102266111d5565b90156103275780518101916060828585019403126100c857610249848301611204565b9161025660408201611383565b506060810151908282116100c857019083603f830112156100c85784820151908111610313576040858260051b9282519061029383860183611145565b815201918301019384116100c8576040859201905b8482106102fc57505050601691505b60030b036102c157005b6064906040519062461bcd60e51b82526004820152601460248201527311985a5b1959081d1bc81b5a5b9d08185cdcd95d60621b6044820152fd5b82809161030884611383565b8152019101906102a8565b634e487b7160e01b5f52604160045260245ffd5b50505f6040516103368161110f565b52601660156102b7565b8061035b6001939495969760a3198a82030186528851611181565b9601920192019092916101f6565b6103899150853d871161038f575b6103818183611145565b810190611265565b8a610173565b503d610377565b6040513d5f823e3d90fd5b50505090919261019c9061127d565b346100c8575f3660031901126100c8576002546040805191901c6001600160a01b03168152602090f35b346100c8575f3660031901126100c85760018060a01b036003541660405190602082019063248a35ef60e11b825233602484015260448301526044825260808201908282106001600160401b03831117610313575f9283926040525190826101675af16104456111d5565b90156104aa576020818051810103126100c857610466602060169201611204565b60030b0361047057005b60405162461bcd60e51b81526020600482015260126024820152714173736f63696174696f6e206661696c756560701b6044820152606490fd5b5060166015610466565b346100c8575f3660031901126100c85760206001600160401b0360025416604051908152f35b346100c8576020806003193601126100c8576104f46111bf565b6002546001600160401b0361050a8183166112b8565b5f9390604084901c6001600160a01b031690855b81518110156105f2579081888661012f610539969585611251565b0381865afa80156103965789945f916105d5575b506105645761055b90611212565b9091925061051e565b5050505090919250610576600161127d565b169160068311610592575067ffffffffffffffff191617600255005b6064906040519062461bcd60e51b825280600483015260248201527f496e76616c696420636f6e74726f6c20616c6c6f77206c697374206c6576656c6044820152fd5b6105ec9150853d871161038f576103818183611145565b8a61054d565b5050509091926105769061127d565b346100c8576020806003193601126100c85761061b6111bf565b90600254906001600160401b036106338184166112b8565b5f936001600160a01b039160409190911c821690855b81518110156107f85761069186866106618486611251565b51604051636bf8e80f60e01b815291166001600160401b0316600482015233602482015291829081906044820190565b0381875afa908115610396575f916107db575b506106b7576106b290611212565b610649565b505050909192506106c8600161127d565b600354166040516106d88161110f565b5f81526040519184830193636b48868360e11b85526084840191602485015260079616860b60448401526060606484015281518091528460a484019201905f5b8181106107c557865f808888610737818a03601f198101835282611145565b5190826101675af16107476111d5565b90156107bb576040818051810103126100c85780610774604061076d8560169501611204565b9201611383565b505b60030b0361078057005b6064906040519062461bcd60e51b82526004820152601460248201527311985a5b1959081d1bc8189d5c9b88185cdcd95d60621b6044820152fd5b5060166015610776565b8251880b84529286019291860191600101610718565b6107f29150873d891161038f576103818183611145565b896106a4565b5050509091926106c89061127d565b346100c8575f8061086f61086161081d366110b3565b604051639b23d3d960e01b602082019081526001600160a01b03958616602483015293851660448201529390911660648401526084830152929091829060a4820190565b03601f198101835282611145565b5190826101675af161087f6111d5565b90156108aa576020818051810103126100c85761089f6020809201611204565b6040519060030b8152f35b506020601561089f565b346100c85760403660031901126100c8576108cd61109d565b6024356001600160401b03908181168091036100c8576002546108f18382166112b8565b5f9360409290921c6001600160a01b03169190845b8151811015610d3e576109518361091d8385611251565b51604051636bf8e80f60e01b815291166001600160401b031660048201523360248201526020918290829081906044820190565b0381895afa918215610396575f92610d21575b50506109785761097390611212565b610906565b505050509050610988600161127d565b600354604051634d8fdd6d60e01b81526001600160a01b039091169190602081600481865afa908115610396575f91610d02575b5015610cbd576109ca611391565b6001600160a01b03909316835260070b60208301819052916109ea611391565b30815292677fffffffffffffff198114610ca9575f0360070b6020840152610a106113af565b91825260405192610a20846110f4565b600284525f5b60408110610c925750610a4e83946020610a60950192818452610a4882611220565b52611220565b505190610a5a82611241565b52611241565b5060405190610a6e8261112a565b600182525f5b60208110610c7b5750610a8682611220565b52610a9081611220565b5060405190632f34811960e01b825281602481016020600483015282518091526044820190602060448260051b8501019401915f905b828210610b755784602081808903815f6101675af18015610396575f90610b3b575b6016915060070b03610af657005b60405162461bcd60e51b815260206004820152601860248201527f4661696c656420746f2061697264726f7020746f6b656e7300000000000000006044820152606490fd5b506020813d602011610b6d575b81610b5560209383611145565b810103126100c857610b68601691611383565b610ae8565b3d9150610b48565b91935091936043198682030182528451606082019060018060a01b0381511683526020810151916060602085015282518091526020608085019301905f905b808210610c435750505060400151916040818303910152602080835192838152019201905f905b808210610bfa5750505060208060019296019201920185939192610ac6565b9091926020608060019260608751858060a01b038151168352858060a01b03858201511685840152604081015160070b6040840152015115156060820152019401920190610bdb565b9091936020606060019260408851858060a01b0381511683528481015160070b85840152015115156040820152019501920190610bb4565b602090610c866113af565b82828601015201610a74565b602090610c9d611391565b82828801015201610a26565b634e487b7160e01b5f52601160045260245ffd5b60405162461bcd60e51b815260206004820152601760248201527f546f6b656e206973206e6f74206173736f6369617465640000000000000000006044820152606490fd5b610d1b915060203d60201161038f576103818183611145565b846109bc565b610d379250803d1061038f576103818183611145565b8880610964565b50505050906109889061127d565b346100c85760403660031901126100c857610d656111bf565b6001600160a01b0390602435828116908190036100c857600254916001600160401b0390610d948285166112b8565b5f9460401c861690855b8151811015610eef57610db58561091d8385611251565b0381885afa918215610396575f92610ed2575b5050610ddc57610dd790611212565b610d9e565b5050509193819350610dee600161127d565b600354169160405194602086019363efef57f960e01b8552602487015260448601521660070b60648401526064835260a083019183831090831117610313575f9283926040525190826101675af1610e446111d5565b9015610ec8576020818051810103126100c857610e65602060169201611204565b60030b03610e6f57005b60405162461bcd60e51b815260206004820152602b60248201527f4661696c656420746f20776970652061737365742066726f6d2074686520757360448201526a195c9cc81858d8dbdd5b9d60aa1b6064820152608490fd5b5060166015610e65565b610ee89250803d1061038f576103818183611145565b8980610dc8565b5050509193610dee829461127d565b346100c85760403660031901126100c857610f1761109d565b602435906001600160401b0382116100c857366023830112156100c857816004013590610f4382611166565b91610f516040519384611145565b80835236602482860101116100c857610fb35f9493856020846108619560248499018386013783010152604080516330c6e32f60e11b602082019081526001600160a01b03909616602482015260448101919091529283916064830190611181565b5190826101675af1610fc36111d5565b907f4af4780e06fe8cb9df64b0794fa6f01399af979175bb988e35e0e57e594567bc604051821515815260406020820152806110026040820186611181565b0390a1156110305760165b61102c60405192839260030b8352604060208401526040830190611181565b0390f35b5060405161103d8161110f565b5f8152601561100d565b346100c8575f6108618261086f839461105f366110b3565b630aed65f560e11b602086019081526001600160a01b03948516602487015292841660448601529216606484015260848301919091529360a4820190565b600435906001600160a01b03821682036100c857565b60809060031901126100c8576001600160a01b0360043581811681036100c8579160243582811681036100c8579160443590811681036100c8579060643590565b606081019081106001600160401b0382111761031357604052565b602081019081106001600160401b0382111761031357604052565b604081019081106001600160401b0382111761031357604052565b90601f801991011681019081106001600160401b0382111761031357604052565b6001600160401b03811161031357601f01601f191660200190565b91908251928382525f5b8481106111ab575050825f602080949584010152601f8019910116010190565b60208183018101518483018201520161118b565b600435906001600160401b03821682036100c857565b3d156111ff573d906111e682611166565b916111f46040519384611145565b82523d5f602084013e565b606090565b51908160030b82036100c857565b5f198114610ca95760010190565b80511561122d5760200190565b634e487b7160e01b5f52603260045260245ffd5b80516001101561122d5760400190565b805182101561122d5760209160051b010190565b908160209103126100c8575180151581036100c85790565b1561128457565b60405162461bcd60e51b815260206004820152600c60248201526b155b985d5d1a1bdc9a5e995960a21b6044820152606490fd5b6001600160401b039081166112ed57506040516112d48161112a565b60018152602036818301375f6112e982611220565b5290565b6040519060e0820190811182821017610313576040526006815260c03660208301375f8061131a83611220565b52600161132683611241565b5281516002101561136f576002606083015281516003101561136f576003608083015281516004101561136f57600560a083015281516005101561136f5750600660c082015290565b634e487b7160e01b81526032600452602490fd5b51908160070b82036100c857565b6040519061139e826110f4565b5f6040838281528260208201520152565b604051906113bc826110f4565b60606040835f8152826020820152015256fea26469706673582212207fff8fadd5d9f5f2273cfa7077163e23ce0744bd1919fa6013517c442017e8ca64736f6c63430008140033a6eef7e35abe7026729641147f7915573c7e97b47efa546f5f6e3230263bcb49cc69885fda6bcc1a4ace058b4a62bf5e179ea78fd58a1ccd71c22cc9b688792fedc95719e9a3b28dd8e80877cb5880a9be7de1a13fc8b05e7999683b6b5676437dfe757ecd65cbd7922a9c0161e935dd7fdbcc0e999689c7d31633896b1fc60b8f331abe73332f95a25873e8b430885974c0409691f89d643119a11623a7924ad9d16d34ffb15ba3a3d852f0d403e2ce1d691fb54de27ac87cd2f993f3ec330fe2689cd4a84e23ad2f564004f1c9013e9589d260bde6380aba3ca7e09e4df40c","linkReferences":{}},"methodIdentifiers":{"acl()":"de287359","airdropTokens(address,uint64)":"7349da0a","burn(uint64)":"9dbead42","controlAllowList()":"c7ea4d44","mint(uint64)":"fb9d09c8","redirectForToken(address,bytes)":"618dc65e","selfAssociate()":"d04f10f7","setControlAllowList(uint64)":"a1d34a42","token()":"fc0c546a","transferFrom(address,address,address,uint256)":"15dacbea","transferFromNFT(address,address,address,uint256)":"9b23d3d9","wipe(uint64,address)":"7276ecca"},"id":23}