{"abi":[{"type":"constructor","inputs":[{"name":"aclContract","type":"address","internalType":"address"},{"name":"treasury","type":"address","internalType":"address"}],"stateMutability":"nonpayable"},{"type":"function","name":"BASE_POINT","inputs":[],"outputs":[{"name":"","type":"uint256","internalType":"uint256"}],"stateMutability":"view"},{"type":"function","name":"acl","inputs":[],"outputs":[{"name":"","type":"address","internalType":"contract AccessController"}],"stateMutability":"view"},{"type":"function","name":"controlAllowList","inputs":[],"outputs":[{"name":"","type":"uint64","internalType":"uint64"}],"stateMutability":"view"},{"type":"function","name":"fee","inputs":[],"outputs":[{"name":"","type":"uint256","internalType":"uint256"}],"stateMutability":"view"},{"type":"function","name":"order_book_treasury","inputs":[],"outputs":[{"name":"","type":"address","internalType":"address"}],"stateMutability":"view"},{"type":"function","name":"setControlAllowList","inputs":[{"name":"_newLevel","type":"uint64","internalType":"uint64"}],"outputs":[],"stateMutability":"nonpayable"},{"type":"function","name":"settleOrder","inputs":[{"name":"_bidder","type":"address","internalType":"address"},{"name":"_asker","type":"address","internalType":"address"},{"name":"bidAsset","type":"address","internalType":"address"},{"name":"askAsset","type":"address","internalType":"address"},{"name":"bidAssetAmount","type":"uint256","internalType":"uint256"},{"name":"askAssetAmount","type":"uint256","internalType":"uint256"}],"outputs":[],"stateMutability":"nonpayable"},{"type":"function","name":"splitAmount","inputs":[{"name":"input_amount","type":"uint256","internalType":"uint256"}],"outputs":[{"name":"","type":"uint256","internalType":"uint256"},{"name":"","type":"uint256","internalType":"uint256"}],"stateMutability":"view"},{"type":"function","name":"updateFee","inputs":[{"name":"new_fee","type":"uint256","internalType":"uint256"}],"outputs":[],"stateMutability":"nonpayable"},{"type":"event","name":"OrderSettled","inputs":[{"name":"bidder","type":"address","indexed":true,"internalType":"address"},{"name":"asker","type":"address","indexed":true,"internalType":"address"},{"name":"bidAsset","type":"address","indexed":false,"internalType":"address"},{"name":"askAsset","type":"address","indexed":false,"internalType":"address"},{"name":"bidAssetAmount","type":"uint256","indexed":false,"internalType":"uint256"},{"name":"askAssetAmount","type":"uint256","indexed":false,"internalType":"uint256"}],"anonymous":false}],"bytecode":{"object":"0x6080346100ae57601f610b9738819003918201601f19168301916001600160401b038311848410176100b25780849260409485528339810103126100ae576001610054602061004d846100c6565b93016100c6565b5f80546001600160e01b031916604094851b6001600160401b031960e086901b0116179092179091556032600255600180546001600160a01b0319166001600160a01b0390921691909117905551610abc90816100db8239f35b5f80fd5b634e487b7160e01b5f52604160045260245ffd5b51906001600160a01b03821682036100ae5756fe60806040526004361015610011575f80fd5b5f803560e01c80630e6775a4146108615780631135daeb146108445780636d9ff2fa1461081b5780639012c4a81461074e578063a1d34a42146105e5578063c7ea4d44146105be578063d6759bfd146100c6578063ddca3f43146100a85763de2873591461007d575f80fd5b346100a557806003193601126100a557546040805191901c6001600160a01b03168152602090f35b80fd5b50346100a557806003193601126100a5576020600254604051908152f35b50346100a55760c03660031901126100a5576004356001600160a01b03811690036100a5576024356001600160a01b03811690036100a5576044356001600160a01b03811690036100a5576064356001600160a01b03811690036100a557805461013967ffffffffffffffff8216610984565b829160401c6001600160a01b031690825b81518110156105b25761019e67ffffffffffffffff61016983856108cf565b51604051636bf8e80f60e01b8152911667ffffffffffffffff1660048201523360248201526020918290829081906044820190565b0381885afa9182156105a757879261057a575b50506101c5576101c09061088c565b61014a565b505050506101d36001610949565b6004356001600160a01b03163b156100a557604051635e7db13d60e01b81526001600160a01b0360643516600482015260a4356024820152818180604481010381836004356001600160a01b03165af180156104df5761056b575b506024356001600160a01b03163b156100a557604051635e7db13d60e01b8152604480356001600160a01b03166004830152608435602483015282919082908290819081010381836024356001600160a01b03165af180156104df57610557575b5061029b60a435610a5f565b906102a7608435610a5f565b90929091906004356001600160a01b03163b1561052f5760405163439e2e4560e01b81526001600160a01b03602480358216600484015260648035929092169083015260448201929092529085908290819081010381836004356001600160a01b03165af190811561054c578591610533575b50506001546001600160a01b0390811690600435163b1561052f5760405163439e2e4560e01b81526001600160a01b039182166004820152606480359092166024820152604481019290925284908290819081010381836004356001600160a01b03165af1908115610524578491610510575b50506024356001600160a01b03163b156104ea5760405163439e2e4560e01b81526001600160a01b036004803582169083015260448035919091166024830152810191909152828180606481010381836024356001600160a01b03165af19081156105055783916104ee575b50506001546001600160a01b0390811690602435163b156104ea5760405163439e2e4560e01b81526001600160a01b03918216600482015260448035909216602482015290810191909152818180606481010381836024356001600160a01b03165af180156104df576104cb575b50604080516001600160a01b0360443581168252606435811660208301526084359282019290925260a435606082015260243582169160043516907f7910b7f3d9f23b9765868800d7882c72417c76a5ad8707d7f0225ab8000f5f0490608090a380f35b6104d4906108e3565b6100a557805f610467565b6040513d84823e3d90fd5b5050fd5b6104f7906108e3565b61050257815f6103f9565b50fd5b6040513d85823e3d90fd5b610519906108e3565b6104ea57825f61038d565b6040513d86823e3d90fd5b8480fd5b61053c906108e3565b61054757835f61031a565b505050fd5b6040513d87823e3d90fd5b610560906108e3565b6100a557805f61028f565b610574906108e3565b5f61022e565b6105999250803d106105a0575b610591818361090b565b81019061092d565b5f806101b1565b503d610587565b6040513d89823e3d90fd5b5050506101d390610949565b50346100a557806003193601126100a55767ffffffffffffffff6020915416604051908152f35b50346100a55760208060031936011261074a5760043567ffffffffffffffff918282168092036107465783549061061d848316610984565b8594604084901c6001600160a01b031691865b815181101561073657610679858461064884866108cf565b51604051636bf8e80f60e01b8152911667ffffffffffffffff16600482015233602482015291829081906044820190565b0381885afa90811561072b578a9161070e575b5061069f5761069a9061088c565b610630565b50505050909192506106b16001610949565b600683116106cb575067ffffffffffffffff191617815580f35b6064906040519062461bcd60e51b825280600483015260248201527f496e76616c696420636f6e74726f6c20616c6c6f77206c697374206c6576656c6044820152fd5b6107259150863d88116105a057610591818361090b565b5f61068c565b6040513d8c823e3d90fd5b505050509091926106b190610949565b8380fd5b5080fd5b50346100a55760208060031936011261074a5781549067ffffffffffffffff91610779838216610984565b849360409290921c6001600160a01b03169190845b815181101561080d576107a6858461064884866108cf565b0381885afa9081156108025788916107e5575b506107cc576107c79061088c565b61078e565b5050505050506107dc6001610949565b60043560025580f35b6107fc9150863d88116105a057610591818361090b565b5f6107b9565b6040513d8a823e3d90fd5b50505050506107dc90610949565b50346100a557806003193601126100a5576001546040516001600160a01b039091168152602090f35b50346100a557806003193601126100a55760206040516127108152f35b50346100a55760203660031901126100a5576040610880600435610a5f565b82519182526020820152f35b5f19811461089a5760010190565b634e487b7160e01b5f52601160045260245ffd5b8051156108bb5760200190565b634e487b7160e01b5f52603260045260245ffd5b80518210156108bb5760209160051b010190565b67ffffffffffffffff81116108f757604052565b634e487b7160e01b5f52604160045260245ffd5b90601f8019910116810190811067ffffffffffffffff8211176108f757604052565b90816020910312610945575180151581036109455790565b5f80fd5b1561095057565b60405162461bcd60e51b815260206004820152600c60248201526b155b985d5d1a1bdc9a5e995960a21b6044820152606490fd5b67ffffffffffffffff9081166109c457604051906040820190828210908211176108f75760405260018152602036818301375f6109c0826108ae565b5290565b6040519060e08201908111828210176108f7576040526006815260c03660208301375f806109f1836108ae565b52815160011015610a4b5760016040830152815160021015610a4b5760026060830152815160031015610a4b5760036080830152815160041015610a4b57600560a0830152815160051015610a4b5750600660c082015290565b634e487b7160e01b81526032600452602490fd5b9060025480830290838204148315171561089a57612710900480830392831161089a57919056fea264697066735822122027648c0c30043485bef7868b00008311d23cae7ad1f48172e2e5ca7cba947e7a64736f6c63430008140033","linkReferences":{}},"methodIdentifiers":{"BASE_POINT()":"1135daeb","acl()":"de287359","controlAllowList()":"c7ea4d44","fee()":"ddca3f43","order_book_treasury()":"6d9ff2fa","setControlAllowList(uint64)":"a1d34a42","settleOrder(address,address,address,address,uint256,uint256)":"d6759bfd","splitAmount(uint256)":"0e6775a4","updateFee(uint256)":"9012c4a8"},"id":8}