{"abi":[{"type":"constructor","inputs":[{"name":"aclContract","type":"address","internalType":"address"}],"stateMutability":"nonpayable"},{"type":"function","name":"acl","inputs":[],"outputs":[{"name":"","type":"address","internalType":"contract AccessController"}],"stateMutability":"view"},{"type":"function","name":"controlAllowList","inputs":[],"outputs":[{"name":"","type":"uint64","internalType":"uint64"}],"stateMutability":"view"},{"type":"function","name":"setControlAllowList","inputs":[{"name":"_newLevel","type":"uint64","internalType":"uint64"}],"outputs":[],"stateMutability":"nonpayable"},{"type":"function","name":"settleOrder","inputs":[{"name":"_bidder","type":"address","internalType":"address"},{"name":"_asker","type":"address","internalType":"address"},{"name":"bidAsset","type":"address","internalType":"address"},{"name":"askAsset","type":"address","internalType":"address"},{"name":"bidAssetAmount","type":"uint256","internalType":"uint256"},{"name":"askAssetAmount","type":"uint256","internalType":"uint256"}],"outputs":[],"stateMutability":"nonpayable"},{"type":"event","name":"OrderSettled","inputs":[{"name":"bidder","type":"address","indexed":true,"internalType":"address"},{"name":"asker","type":"address","indexed":true,"internalType":"address"},{"name":"bidAsset","type":"address","indexed":false,"internalType":"address"},{"name":"askAsset","type":"address","indexed":false,"internalType":"address"},{"name":"bidAssetAmount","type":"uint256","indexed":false,"internalType":"uint256"},{"name":"askAssetAmount","type":"uint256","indexed":false,"internalType":"uint256"}],"anonymous":false}],"bytecode":{"object":"0x60803461008057601f61081538819003918201601f19168301916001600160401b038311848410176100845780849260209460405283398101031261008057516001600160a01b0381168103610080575f80546001600160e01b031916604092831b600160401b600160e01b03161760011790555161077c90816100998239f35b5f80fd5b634e487b7160e01b5f52604160045260245ffdfe60406080815260049081361015610014575f80fd5b5f91823560e01c908163a1d34a421461040d578163c7ea4d44146103e6578163d6759bfd14610076575063de2873591461004c575f80fd5b3461007257816003193601126100725790548151911c6001600160a01b03168152602090f35b5080fd5b9050346103e25760c03660031901126103e2576001600160a01b03918135838116918282036103de5760243591858316948584036103da576044359287841684036103155760643588811681036103d6576100e998956084359360a435958c805467ffffffffffffffff9d8e821661066b565b9d829e8c84938a1c16925b81518110156103bd57868361010983856105b6565b518c51636bf8e80f60e01b8152911667ffffffffffffffff1691810191825233602080840191909152918290829081906040010381895afa9182156103b3578792610386575b50506101635761015e90610573565b6100f4565b5050505050909192939495969798999a5061017e6001610630565b893b15610382578451635e7db13d60e01b8082526001600160a01b038616848301908152602081018a90529091908e9082908e9082908490829060400103925af180156103765761035d575b50908c9392918c3b156103595786519081526001600160a01b038a1683820190815260208101899052859082908f9082908490829060400103925af1801561033b57908591610345575b50508a3b1561032357855163439e2e4560e01b8082526001600160a01b039485168483019081529487166020860152604085018a905293859082908e9082908490829060600103925af1801561033b57908591610327575b50508b3b156103235785519283526001600160a01b0390811691830191825288166020820152604081018690528290829081900360600181838e5af18015610319576102f7575b505090856080959493927f7910b7f3d9f23b9765868800d7882c72417c76a5ad8707d7f0225ab8000f5f04978351961686521660208501528301526060820152a380f35b610306909695949392966105ca565b6103155790919293885f6102b3565b8880fd5b84513d84823e3d90fd5b8380fd5b610330906105ca565b61032357835f61026c565b87513d87823e3d90fd5b61034e906105ca565b61032357835f610214565b8480fd5b61036c909d919493929d6105ca565b9b9091925f6101ca565b8e8851903d90823e3d90fd5b8b80fd5b6103a59250803d106103ac575b61039d81836105f2565b810190610614565b5f8061014f565b503d610393565b8c513d89823e3d90fd5b5050505050909192939495969798999a61017e90610630565b8980fd5b8780fd5b8580fd5b8280fd5b50503461007257816003193601126100725767ffffffffffffffff60209254169051908152f35b9050346103e257602091826003193601126103235781359167ffffffffffffffff938484168094036103de5785549261044786851661066b565b879685831c6001600160a01b031691885b8151811015610561576104a3868461047084866105b6565b518851636bf8e80f60e01b8152911667ffffffffffffffff168a8201908152336020820152909283918291604090910190565b0381885afa908115610557578c9161053a575b506104c9576104c490610573565b610458565b505050509091929394506104dd6001610630565b600685116104f95750505067ffffffffffffffff191617815580f35b5162461bcd60e51b815291820181905260248201527f496e76616c696420636f6e74726f6c20616c6c6f77206c697374206c6576656c604482015260649150fd5b6105519150873d89116103ac5761039d81836105f2565b5f6104b6565b86513d8e823e3d90fd5b5050505090919293946104dd90610630565b5f1981146105815760010190565b634e487b7160e01b5f52601160045260245ffd5b8051156105a25760200190565b634e487b7160e01b5f52603260045260245ffd5b80518210156105a25760209160051b010190565b67ffffffffffffffff81116105de57604052565b634e487b7160e01b5f52604160045260245ffd5b90601f8019910116810190811067ffffffffffffffff8211176105de57604052565b9081602091031261062c5751801515810361062c5790565b5f80fd5b1561063757565b60405162461bcd60e51b815260206004820152600c60248201526b155b985d5d1a1bdc9a5e995960a21b6044820152606490fd5b67ffffffffffffffff9081166106ab57604051906040820190828210908211176105de5760405260018152602036818301375f6106a782610595565b5290565b6040519060e08201908111828210176105de576040526006815260c03660208301375f806106d883610595565b5281516001101561073257600160408301528151600210156107325760026060830152815160031015610732576003608083015281516004101561073257600560a08301528151600510156107325750600660c082015290565b634e487b7160e01b81526032600452602490fdfea2646970667358221220aeec258eb919d8fd19ae3b0d4f78c5807f14e0f5c56dfce215e56b102cdd669b64736f6c63430008140033","linkReferences":{}},"methodIdentifiers":{"acl()":"de287359","controlAllowList()":"c7ea4d44","setControlAllowList(uint64)":"a1d34a42","settleOrder(address,address,address,address,uint256,uint256)":"d6759bfd"},"id":21}