{"abi":[{"type":"constructor","inputs":[{"name":"aclContract","type":"address","internalType":"address"}],"stateMutability":"nonpayable"},{"type":"function","name":"acl","inputs":[],"outputs":[{"name":"","type":"address","internalType":"contract AccessController"}],"stateMutability":"view"},{"type":"function","name":"controlAllowList","inputs":[],"outputs":[{"name":"","type":"uint64","internalType":"uint64"}],"stateMutability":"view"},{"type":"function","name":"setControlAllowList","inputs":[{"name":"_newLevel","type":"uint64","internalType":"uint64"}],"outputs":[],"stateMutability":"nonpayable"},{"type":"function","name":"settleOrder","inputs":[{"name":"_bidder","type":"address","internalType":"address"},{"name":"_asker","type":"address","internalType":"address"},{"name":"bidAsset","type":"address","internalType":"address"},{"name":"askAsset","type":"address","internalType":"address"},{"name":"bidAssetAmount","type":"uint256","internalType":"uint256"},{"name":"askAssetAmount","type":"uint256","internalType":"uint256"}],"outputs":[],"stateMutability":"nonpayable"},{"type":"event","name":"OrderSettled","inputs":[{"name":"bidder","type":"address","indexed":true,"internalType":"address"},{"name":"asker","type":"address","indexed":true,"internalType":"address"},{"name":"bidAsset","type":"address","indexed":false,"internalType":"address"},{"name":"askAsset","type":"address","indexed":false,"internalType":"address"},{"name":"bidAssetAmount","type":"uint256","indexed":false,"internalType":"uint256"},{"name":"askAssetAmount","type":"uint256","indexed":false,"internalType":"uint256"}],"anonymous":false}],"bytecode":{"object":"0x60803461008057601f61073b38819003918201601f19168301916001600160401b038311848410176100845780849260209460405283398101031261008057516001600160a01b0381168103610080575f80546001600160e01b031916604092831b600160401b600160e01b0316176001179055516106a290816100998239f35b5f80fd5b634e487b7160e01b5f52604160045260245ffdfe60406080815260049081361015610014575f80fd5b5f91823560e01c908163a1d34a4214610333578163c7ea4d441461030c578163d6759bfd14610076575063de2873591461004c575f80fd5b3461007257816003193601126100725790548151911c6001600160a01b03168152602090f35b5080fd5b9050346103085760c0366003190112610308576001600160a01b03918135918383169190828403610304576024358581169485820361027557604435878116938482036103005760643593898516928386036102fc578b805467ffffffffffffffff6100e3818316610591565b839e84938d1c16925b81518110156102e457878d8461010284866104dc565b519151636bf8e80f60e01b8152911667ffffffffffffffff1691810191825233602080840191909152918290829081906040010381895afa9182156102d95787926102ac575b505061015c5761015790610499565b6100ec565b505050505090919293949596979899506101766001610556565b883b156102a857875163439e2e4560e01b8082526001600160a01b0393841685830190815297909316602088015260a43560408801819052968c90829081900360600181838e5af1801561029e57610287575b50908a92918a3b156102835788519182526001600160a01b0395861692820192835290941660208201526084356040820181905293908290829081906060010381838d5af1801561027957610259575b5050908460809493927f7910b7f3d9f23b9765868800d7882c72417c76a5ad8707d7f0225ab8000f5f04965194855260208501528301526060820152a380f35b6102679095949392956104f0565b61027557909192875f610219565b8780fd5b87513d84823e3d90fd5b8380fd5b610295909b9193929b6104f0565b9990915f6101c9565b89513d8e823e3d90fd5b8a80fd5b6102cb9250803d106102d2575b6102c38183610518565b81019061053a565b5f80610148565b503d6102b9565b508e513d88823e3d90fd5b50505050509091929394959697989961017690610556565b8b80fd5b8980fd5b8580fd5b8280fd5b50503461007257816003193601126100725767ffffffffffffffff60209254169051908152f35b90503461030857602091826003193601126102835781359167ffffffffffffffff938484168094036103045785549261036d868516610591565b879685831c6001600160a01b031691885b8151811015610487576103c9868461039684866104dc565b518851636bf8e80f60e01b8152911667ffffffffffffffff168a8201908152336020820152909283918291604090910190565b0381885afa90811561047d578c91610460575b506103ef576103ea90610499565b61037e565b505050509091929394506104036001610556565b6006851161041f5750505067ffffffffffffffff191617815580f35b5162461bcd60e51b815291820181905260248201527f496e76616c696420636f6e74726f6c20616c6c6f77206c697374206c6576656c604482015260649150fd5b6104779150873d89116102d2576102c38183610518565b5f6103dc565b86513d8e823e3d90fd5b50505050909192939461040390610556565b5f1981146104a75760010190565b634e487b7160e01b5f52601160045260245ffd5b8051156104c85760200190565b634e487b7160e01b5f52603260045260245ffd5b80518210156104c85760209160051b010190565b67ffffffffffffffff811161050457604052565b634e487b7160e01b5f52604160045260245ffd5b90601f8019910116810190811067ffffffffffffffff82111761050457604052565b90816020910312610552575180151581036105525790565b5f80fd5b1561055d57565b60405162461bcd60e51b815260206004820152600c60248201526b155b985d5d1a1bdc9a5e995960a21b6044820152606490fd5b67ffffffffffffffff9081166105d157604051906040820190828210908211176105045760405260018152602036818301375f6105cd826104bb565b5290565b6040519060e0820190811182821017610504576040526006815260c03660208301375f806105fe836104bb565b5281516001101561065857600160408301528151600210156106585760026060830152815160031015610658576003608083015281516004101561065857600560a08301528151600510156106585750600660c082015290565b634e487b7160e01b81526032600452602490fdfea26469706673582212200ff2675229f4c606d72922849bfdccb19d0960b6cfc488170ac725dc15b2d9a964736f6c63430008140033","linkReferences":{}},"methodIdentifiers":{"acl()":"de287359","controlAllowList()":"c7ea4d44","setControlAllowList(uint64)":"a1d34a42","settleOrder(address,address,address,address,uint256,uint256)":"d6759bfd"},"id":18}