{"abi":[{"type":"constructor","inputs":[{"name":"_aclContract","type":"address","internalType":"address"}],"stateMutability":"nonpayable"},{"type":"function","name":"createPool","inputs":[{"name":"ltv","type":"uint64","internalType":"uint64"},{"name":"optimalUtilization","type":"uint64","internalType":"uint64"},{"name":"baseRate","type":"uint64","internalType":"uint64"},{"name":"slope1","type":"uint64","internalType":"uint64"},{"name":"slope2","type":"uint64","internalType":"uint64"},{"name":"liquidationThreshold","type":"uint64","internalType":"uint64"},{"name":"liquidationDiscount","type":"uint64","internalType":"uint64"},{"name":"reserveFactor","type":"uint64","internalType":"uint64"},{"name":"lending","type":"address","internalType":"address"},{"name":"yieldContract","type":"address","internalType":"address"},{"name":"lendingPool","type":"string","internalType":"string"}],"outputs":[{"name":"","type":"address","internalType":"address"}],"stateMutability":"nonpayable"},{"type":"function","name":"getPool","inputs":[{"name":"name","type":"string","internalType":"string"}],"outputs":[{"name":"","type":"address","internalType":"address"}],"stateMutability":"view"},{"type":"function","name":"pools","inputs":[{"name":"","type":"string","internalType":"string"}],"outputs":[{"name":"","type":"address","internalType":"address"}],"stateMutability":"view"}],"bytecode":{"object":"0x60803461007a57601f61564c38819003918201601f19168301916001600160401b0383118484101761007e5780849260209460405283398101031261007a57516001600160a01b0381169081900361007a5760018060a01b03193381600154161760015560025416176002556040516155b990816100938239f35b5f80fd5b634e487b7160e01b5f52604160045260245ffdfe604060e0815260049081361015610014575f80fd5b5f91823560e01c806341d7b0261461031d578063612d659e146100ab57639d6f17a81461003f575f80fd5b346100a75760203660031901126100a757803567ffffffffffffffff81116100a357602093916100719136910161034c565b83610084845192838151938492016103c6565b810191825290819003830190205490516001600160a01b039091168152f35b8380fd5b8280fd5b5090346100a7576101603660031901126100a757813567ffffffffffffffff60a05260a05181168091036100a3576024359260a05184168094036103195760443560a05181168091036103155760643560a05181168091036103115760843560a051811680910361030d5760a43560a05181168091036103095760c4359060a05182168092036103055760e4359260a0518416809403610301576001600160a01b0360c08190526101043590811695908690036102fd57610124359660c05188168098036102f9576101443560a05181116102f55761018d9036908b0161034c565b9b60c0516001541633036102c35760c051600254169a8c519a61519c90818d016080528c6080511060a05160805111176102a95750620003e88c3960805152602060805101528a60805101526060608051015260808051015260a0608051015260c0608051015260e06080510152610100608051015261012060805101526101a0918261014060805101528451809360805101528160208601936101c09261023a828560805101886103c6565b610160608051015260026101806080510152601f80199101166080510103019085f0801561029f5761028091602095869260c051169585519485938492519283916103c6565b82019081520301902080546001600160a01b0319168317905551908152f35b82513d86823e3d90fd5b90508f92506024935060419150634e487b7160e01b835252fd5b8b5162461bcd60e51b81526020818c0152600c60248201526b155b985d5d1a1bdc9a5e995960a21b6044820152606490fd5b8d80fd5b8c80fd5b8b80fd5b8a80fd5b8980fd5b8880fd5b8780fd5b8680fd5b8580fd5b8480fd5b50346100a75760203660031901126100a757803567ffffffffffffffff81116100a35760209391610071913691015b81601f820112156103ae5780359067ffffffffffffffff928383116103b25760405193601f8401601f19908116603f01168501908111858210176103b257604052828452602083830101116103ae57815f926020809301838601378301015290565b5f80fd5b634e487b7160e01b5f52604160045260245ffd5b5f5b8381106103d75750505f910152565b81810151838201526020016103c856fe60808060405234620003b2576200519c8038038091620000208285620003b6565b83398101906101a081830312620003b2576200003c81620003da565b6020926200004c848401620003da565b936200005b60408501620003da565b6200006960608601620003da565b6200007760808701620003da565b916200008660a08801620003da565b926200009560c08901620003da565b92620000a460e08a01620003da565b91620000b46101008b01620003ef565b9a620000c46101208c01620003ef565b6101408c0151909a906001600160401b038111620003b2578c018a601f82011215620003b25780516001600160401b0381116200035b576040519b62000114601f8301601f19168d018e620003b6565b818d528b8284010111620003b25762000133918b808e01910162000404565b620001426101608d01620003ef565b9b6001600160401b03906200015b9061018001620003da565b16600681116200036f575f80546001600160e01b03191690911760408e811b600160401b600160e01b0316919091179091556001805560038054600160a01b600160e01b03191660a09390931b600160a01b600160e01b031692909217909155608093841b600160801b600160c01b0390811696821b6fffffffffffffffff00000000000000009081166001600160401b03948516179790971760c09490941b6001600160c01b0319908116949094176004556005805498831b9097169790931697821697909717959095179290911b16179055600680546001600160a01b03199081166001600160a01b03998a161790915591519196956121ed938484019391929091908411818510176200035b578062000281848862002faf978989863962000427565b03905ff08015620003505767747265617375727960c01b95620002db9289602893168b60025416176002556040519782620002c68a9451809285808801910162000404565b830191820152036008810187520185620003b6565b604051938385016001600160401b038111868210176200035b5785946200030494863962000427565b03905ff0801562000350578216836003541617600355670de0b6b3a76400008060085560095542600a55169060075416176007555f600b555f600c55604051612b4190816200046e8239f35b6040513d5f823e3d90fd5b634e487b7160e01b5f52604160045260245ffd5b60648a6040519062461bcd60e51b825280600483015260248201527f496e76616c696420636f6e74726f6c20616c6c6f77206c697374206c6576656c6044820152fd5b5f80fd5b601f909101601f19168101906001600160401b038211908210176200035b57604052565b51906001600160401b0382168203620003b257565b51906001600160a01b0382168203620003b257565b5f5b838110620004165750505f910152565b818101518382015260200162000406565b60409060806004939594956060835262000451815180928160608701526020858701910162000404565b601f80199101168201019460018060a01b03166020820152015256fe60406080815260049081361015610014575f80fd5b5f91823560e01c90816301f72884146122d25781630f47a0e51461076f5781631135daeb146122b55781631da649cf14611d695781631f68f20a14611d405781631ffce3f414611d17578163383e217014611cfe5781633de2f6b21461174c5781634031234c146117245781634322b714146116f9578163471b4427146114b957816347e7ef241461122e5781634c19386c1461120f57816361d027b3146111e65781636290cd1c146111bf578163630fd0ac146111a05781636558ef111461116657816367e74dd11461114d5781636c665a5514610d7c5781636fb49d7314610d5157816371302473146107165781637eb7113114610d345781638053fcbe14610d0b57816384bdc9a814610cee5781638a539cbe14610cca57816395082d2514610ca757816398f1bc1214610c88578163a1d34a4214610b24578163a62b75a814610afa578163aa5af0fd14610adb578163ae60d5fc14610ab7578163b42ba5b114610952578163ba1c5e801461092e578163bbb85188146108ad578163c0919750146107e7578163c7ea4d44146107c1578163c95abc2214610798578163cd3293de1461076f578163d0134cb71461074e578163d28320d614610716578163d288043b146106e1578163de287359146106b9578163e108f85714610569578163e6a69ab81461054a578163ed8e3e8f1461052e578163f3fef3a31461027957508063f7866ee3146102515763fbaf894c14610230575f80fd5b3461024d578160031936011261024d57602090600a549051908152f35b5080fd5b503461024d578160031936011261024d5760035490516001600160a01b039091168152602090f35b905082346104b657826003193601126104b6576102946122fa565b602435908254906001600160401b03936102af858416612418565b90956001600160a01b0393879290891c851690835b815181101561051c57610310896102db8385612369565b518d51636bf8e80f60e01b815291166001600160401b0316868201908152336020808301919091529283918391829160400190565b0381885afa9182156105125787926104e5575b50506103375761033290612326565b6102c4565b5050509091929394955061034b60016123dd565b610353612aa3565b61035b6126c5565b670de0b6b3a7640000610370600954876124f2565b049561039587600c5461039082610389600b5484612555565b1015612ac6565b612555565b600c55846007541690813b156104c357885163393b766560e11b81529087166001600160401b03168382019081526001600160a01b03861660208201529091849183919082908490829060400103925af180156104db579083916104c7575b50508360025416846006541691813b156104c357885163439e2e4560e01b81526001600160a01b038087169282019283529093166020820152604081018890528391839182908490829060600103925af180156104b957908793929161049c575b5050917f92ccf450a286a957af52509bc1c9939d1a6a481783e142e41e2499f0bb66ebc69282519485528560208601521692a2600954906001805582519182526020820152f35b819293506104a99061237d565b6104b65790818692610455565b80fd5b87513d84823e3d90fd5b8380fd5b6104d09061237d565b61024d5781886103f4565b88513d85823e3d90fd5b6105049250803d1061050b575b6104fc81836123a4565b8101906123c5565b8c80610323565b503d6104f2565b8d513d89823e3d90fd5b50505090919293949561034b906123dd565b83346104b657806003193601126104b657610547612687565b80f35b50503461024d578160031936011261024d57602090516301e187e08152f35b8391503461024d576020806003193601126106b5576105866122fa565b6007548551637e062a3560e11b81526001600160a01b039291849082908790829087165afa9081156106ab579084939291879161066b575b509082602492895197889586946370a0823160e01b86521690840152165afa928315610660579261062e575b505061062a670de0b6b3a7640000610604600954846124f2565b049261060e6125f7565b9051938493846040919493926060820195825260208201520152565b0390f35b90809250813d8311610659575b61064581836123a4565b81010312610655575182806105ea565b5f80fd5b503d61063b565b8451903d90823e3d90fd5b848193949592503d83116106a4575b61068481836123a4565b810103126106a0575182811681036106a05783929190826105be565b8580fd5b503d61067a565b87513d88823e3d90fd5b8280fd5b50503461024d578160031936011261024d5790548151911c6001600160a01b03168152602090f35b8284346104b65760203660031901126104b65750670de0b6b3a764000061070e60209360095490356124f2565b049051908152f35b50503461024d57602036600319011261024d5760209181906001600160a01b0361073e6122fa565b168152600d845220549051908152f35b9050346106b557826003193601126106b557602092505460c01c9051908152f35b50503461024d578160031936011261024d5760025490516001600160a01b039091168152602090f35b50503461024d578160031936011261024d5760075490516001600160a01b039091168152602090f35b50503461024d578160031936011261024d576001600160401b0360209254169051908152f35b9050346106b557816003193601126106b5576001600160a01b03610809612310565b16808452600d602052816020848620549285519283809263313ce56760e01b82525afa9081156108a3579261085c61070e93610855610861946127109760209a91610876575b506128a0565b92356124f2565b612505565b6001600160401b0360035460a01c16906124f2565b61089691508a3d811161089c575b61088e81836123a4565b810190612887565b5f61084f565b503d610884565b84513d87823e3d90fd5b50503461024d578160031936011261024d5761010091600c5491600b54918284115f1461092957506108df8284612555565b6108e7612523565b6108ef6125f7565b906108f861256f565b926008549460095496815198895260208901528701526060860152608085015260a084015260c083015260e0820152f35b6108df565b50503461024d578160031936011261024d5760209061094b61256f565b9051908152f35b905082346104b657826003193601126104b65761096d6122fa565b9260243582546001600160401b0394610987868316612418565b949586956001600160a01b0393861c84169190875b8151811015610a83576109e8836109b38385612369565b518a51636bf8e80f60e01b815291166001600160401b0316878201908152336020808301919091529283918391829160400190565b0381895afa918215610a79578b92610a5c575b5050610a0f57610a0a90612326565b61099c565b505050505060209294507f41dd56c92c84169d8e89dc293d2649a911f47b357d3012bc88662395e01979d09395610a4660016123dd565b1693848652600d8352818187205551908152a280f35b610a729250803d1061050b576104fc81836123a4565b8c806109fb565b8a513d8d823e3d90fd5b50505050507f41dd56c92c84169d8e89dc293d2649a911f47b357d3012bc88662395e01979d09395610a46602094966123dd565b50503461024d5760209061094b61085c610ad0366122e4565b9190600854906124f2565b50503461024d578160031936011261024d576020906008549051908152f35b8284346104b657806003193601126104b657506001600160401b036020925460801c169051908152f35b9050346106b557602091826003193601126104c3578135916001600160401b03938484168094036106a057855492610b5d868516612418565b879685831c6001600160a01b031691885b8151811015610c7657610bb88684610b868486612369565b518851636bf8e80f60e01b815291166001600160401b03168a8201908152336020820152909283918291604090910190565b0381885afa908115610c6c578c91610c4f575b50610bde57610bd990612326565b610b6e565b50505050909192939450610bf260016123dd565b60068511610c0e5750505067ffffffffffffffff191617815580f35b5162461bcd60e51b815291820181905260248201527f496e76616c696420636f6e74726f6c20616c6c6f77206c697374206c6576656c604482015260649150fd5b610c669150873d891161050b576104fc81836123a4565b5f610bcb565b86513d8e823e3d90fd5b505050509091929394610bf2906123dd565b50503461024d578160031936011261024d576020906009549051908152f35b50503461024d578160031936011261024d5760209051670de0b6b3a76400008152f35b50503461024d578160031936011261024d576020905168056bc75e2d631000008152f35b50503461024d578160031936011261024d5760209061094b6125f7565b50503461024d578160031936011261024d576005548151911c6001600160401b03168152602090f35b50503461024d578160031936011261024d5760209061094b612523565b50503461024d578160031936011261024d576020906001600160401b0360035460a01c169051908152f35b905082346104b65760603660031901126104b657610d986122fa565b926024359160443560018060a01b039586821692838303610655578054966001600160401b0398610dca8a8a16612418565b9883998285928a1c16915b815181101561113957610e218d610dec8385612369565b518c51636bf8e80f60e01b815291166001600160401b0316878201908152336020808301919091529283918391829160400190565b0381885afa91821561112f57908f949392918992611112575b5050610e5157610e4990612326565b909150610dd5565b50505050909192939495969750610e6860016123dd565b610e70612aa3565b610e786126c5565b865163313ce56760e01b8152602099908a8185818b5afa9081156110805791610ec78c600d610eb4610ed595612710978b916110fb57506128a0565b918c8a525261085c8d8d8a2054906124f2565b9060035460a01c16906124f2565b0493610eea85610389600c54600b5490612555565b875163472a1d0960e11b8152308482019081526001600160a01b03881660208201528284169791908c908290819060400103818b5afa9081156110f15786916110c4575b5061108a57600854873b156106a05789516318d9901d60e11b8152308682019081526001600160a01b03909316602084015260408301889052606083018c905260808301919091529085908290819060a0010381838b5af180156110805790859161106c575b5050610fa285600b54612562565b600b558160025416916006541692823b1561106857885163439e2e4560e01b81526001600160a01b03928316918101918252939091166020820152604081018590528391839182908490829060600103925af1801561105e5761104a575b50506008548451958652602086019190915260408501819052937fc1cba78646fef030830d099fc25cb498953709c9d47d883848f81fd207174c9f90606090a36001805551908152f35b611054829161237d565b6104b65780611000565b86513d84823e3d90fd5b8480fd5b6110759061237d565b6104c357838b610f94565b89513d87823e3d90fd5b885162461bcd60e51b81528085018c90526014602482015273115e1a5cdd1a5b99c81d5b9c185a590819195c1d60621b6044820152606490fd5b90508b81813d83116110ea575b6110db81836123a4565b8101031261065557518c610f2e565b503d6110d1565b8a513d88823e3d90fd5b6108969150843d861161089c5761088e81836123a4565b6111289250803d1061050b576104fc81836123a4565b8f80610e3a565b8c513d8a823e3d90fd5b5050509091929394959697610e68906123dd565b83346104b657806003193601126104b65761054761263f565b8284346104b657816003193601126104b657506111926111846122fa565b61118c612310565b906128b1565b825191151582526020820152f35b50503461024d578160031936011261024d57602090600c549051908152f35b8284346104b657806003193601126104b657506001600160401b0360209254169051908152f35b50503461024d578160031936011261024d5760035490516001600160a01b039091168152602090f35b50503461024d578160031936011261024d57602090600b549051908152f35b905082346104b657826003193601126104b6576112496122fa565b906024358154916001600160401b03611263818516612418565b91956001600160a01b0394879390891c861690845b81518110156114a75761128f856102db8385612369565b0381885afa91821561149d578892611480575b50506112b6576112b190612326565b611278565b505050909192939495506112ca60016123dd565b6112d2612aa3565b6112da6126c5565b670de0b6b3a764000080850290858204148515171561146d57611301869160095490612505565b9661130e86600c54612562565b600c5516948060025416816006541690873b156106a057895163439e2e4560e01b81526001600160a01b03918216858201908152919092166020820152604081018790528590829081906060010381838b5af1801561108057908591611459575b5050806007541692871692803b156110685784809160248b5180948193631f73a13960e31b835289898401525af1801561108057908591611445575b505060075416803b156104c357604484928388938b5196879586946339a4ed0560e11b865285015260248401525af1801561105e579086929161142d575b50507f73a19dd210f1a7f902193214c0ee91dd35ee5b4d920cba8d519eca65a7b488ca918151908152846020820152a2600954906001805582519182526020820152f35b8192506114399061237d565b6104b6578085916113e9565b61144e9061237d565b6104c35783896113ab565b6114629061237d565b6104c357838961136f565b634e487b7160e01b845260118252602484fd5b6114969250803d1061050b576104fc81836123a4565b8c806112a2565b8d513d8a823e3d90fd5b5050509091929394956112ca906123dd565b9050346106b557816003193601126106b5576114d36122fa565b906114dc612310565b835163472a1d0960e11b8152308382019081526001600160a01b0380841660208381019190915292969095929492861693909290918590889081906040010381875afa9687156116ef5788976116c0575b508251622275af60e91b8152308282019081526001600160a01b03841660208201529096908690889081906040010381885afa96871561164a578997611691575b50835163052226ef60e41b8152308382019081526001600160a01b0385166020820152909587918791908290819060400103915afa94851561164a578995611662575b508715611654576115c88761085c6008548b6124f2565b921690858451809263313ce56760e01b825281855afa90811561164a5761161a9261085c868c611606889660a09f96611615979161163357506128a0565b938152600d8b522054886124f2565b612832565b935b825196875286015284015260608301526080820152f35b61089691508d803d1061089c5761088e81836123a4565b84513d8b823e3d90fd5b50505060a0955f199361161c565b9094508581813d831161168a575b61167a81836123a4565b810103126106555751935f6115b1565b503d611670565b9096508581813d83116116b9575b6116a981836123a4565b810103126106555751955f61156e565b503d61169f565b9096508481813d83116116e8575b6116d881836123a4565b810103126106555751955f61152d565b503d6116ce565b83513d8a823e3d90fd5b50503461024d578160031936011261024d576020906001600160401b0360055460801c169051908152f35b50503461024d578160031936011261024d576020906001600160401b03600554169051908152f35b9050346106b55760803660031901126106b5576117676122fa565b91611770612310565b91604435906064359260018060a01b039283851695868603610655578854976001600160401b03966117a3888b16612418565b8b9a861c8816908b5b8151811015611ce9578d8b6117c18385612369565b518a51636bf8e80f60e01b815291166001600160401b03168b820190815233602080830191909152908190839081906040010381895afa928315611cde5792611cc1575b50506118195761181490612326565b6117ac565b5050509091929394959697985061183060016123dd565b611838612aa3565b6118406126c5565b845163313ce56760e01b815260209690878183818e5afa908115611cb7579061186f918d91611ca057506128a0565b988a8c52600d8852868c20549061188a8261085c8d8a6124f2565b60055461271092908a1c16820190818311611c8d57916118ad8f93928d936124f2565b8a5163472a1d0960e11b8152308782019081526001600160a01b0389166020820152939099169d919004979390918b9085908f908290819060400103915afa938415611c83578394611c50575b508c8b8b51809263052226ef60e41b825281806119338c308d840190602090939293604083019460018060a01b03809216845216910152565b03915afa908115611c46578491611c15575b508d8c8c518092622275af60e91b8252818061197e8d8d3090840190602090939293604083019460018060a01b03809216845216910152565b03915afa948515611c0a5794611bd1575b50670de0b6b3a76400009261085c6119c1936119aa936124f2565b6119bb8461085c60085480986124f2565b90612832565b1015611b7f57906119da8161085c8f979695948a6124f2565b908b3b156106a05788516342c8afad60e01b8152308482019081526001600160a01b03861660208201526040810184905260608101899052608081019290925290869082908e9082908490829060a00103925af18015611b6157908691611b6b575b5050611a4a90600b54612555565b600b5588831698806002541690600654168a3b156106a057885163439e2e4560e01b8082526001600160a01b0393841685830190815292909316602083015260408201899052908690829081900360600181838f5af18015611b6157908691611b4d575b50508a3b156110685787519081526001600160a01b03938416918101918252929091166020820152604081018490528290829081906060010381838c5af18015611b4357611b2b575b50507fd1ef587d13fefe63f9bc582e973aad46877ef08cfe790838721bd521c53caf56938351928352820152a46001805580f35b611b349061237d565b611b3f57875f611af7565b8780fd5b85513d84823e3d90fd5b611b569061237d565b61106857845f611aae565b89513d88823e3d90fd5b611b749061237d565b61106857845f611a3c565b875162461bcd60e51b81528084018a9052602660248201527f506f736974696f6e20697320206865616c7468792c2063616e6e6f74206c697160448201526575696461746560d01b6064820152608490fd5b919093508b82813d8311611c03575b611bea81836123a4565b8101031261065557905192670de0b6b3a764000061198f565b503d611be0565b8c51903d90823e3d90fd5b8094508c8092503d8311611c3f575b611c2e81836123a4565b81010312610655578e92515f611945565b503d611c24565b8b513d86823e3d90fd5b8b809295508194503d8311611c7c575b611c6a81836123a4565b81010312610655578d9151925f6118fa565b503d611c60565b8a513d85823e3d90fd5b634e487b7160e01b8f526011855260248ffd5b6108969150893d8b1161089c5761088e81836123a4565b87513d8e823e3d90fd5b611cd79250803d1061050b576104fc81836123a4565b5f80611805565b8b51903d90823e3d90fd5b505050909192939495969798611830906123dd565b83346104b657806003193601126104b6576105476126c5565b50503461024d578160031936011261024d5760065490516001600160a01b039091168152602090f35b8284346104b657806003193601126104b657506001600160401b0360209254821c169051908152f35b9050346106b55760603660031901126106b557611d846122fa565b91611d8d612310565b845460443593916001600160401b03611da7818416612418565b88976001600160a01b0394909190871c851690895b81518110156122a1578b85611dd18385612369565b518b51636bf8e80f60e01b815291166001600160401b03168a820190815233602080830191909152908190839081906040010381895afa928315611c0a5792612284575b5050611e2957611e2490612326565b611dbc565b505050839495969750611e406001949293946123dd565b611e486126c5565b865163472a1d0960e11b8152308782019081526001600160a01b038616602082810191909152939092169790969092909181908890819060400103818b5afa968715612158578a97612251575b508251622275af60e91b8152308382019081526001600160a01b038716602082015290979082908990819060400103818c5afa978815612247578b98612214575b50835163052226ef60e41b8152308482019081526001600160a01b038816602082015290989083908a90819060400103818d5afa98891561220a578c996121d7575b5081156121a45760085492611f318261085c86866124f2565b8c1161216257508b9161085c611f4f8561085c8f95611f56966124f2565b809b6124f2565b91893b1561024d5784516342c8afad60e01b8152308582019081526001600160a01b0389166020820152604081018b905260608101949094526080840191909152918290819060a0010381838c5af1801561215857612145575b5088908689111561213857612710611fda611fcb898c612555565b955b60055460801c16866124f2565b04611fe5818b612555565b91611ff289600b54612555565b600b5587600254169288600654168b3b156106a057865163439e2e4560e01b8082526001600160a01b0396871685830190815292909616602083015260408201929092528590829081900360600181838f5af1801561212e5790859161211a575b50508161209f575b5050915197885250506020860193909352604085019290925216917f244fed5b3268b6a17fff986a36f3d87e163ac678d91d552866eb1e74f010f3a690606090a380f35b87600354169288600654168b3b156106a05786519182526001600160a01b03948516928201928352909316602082015260408101919091528290829081906060010381838c5af18015612110576120f8575b808061205b565b6121049093929361237d565b611b3f5790875f6120f1565b83513d84823e3d90fd5b6121239061237d565b6104c357835f612053565b86513d87823e3d90fd5b612710611fda8395611fcd565b6121519099919961237d565b975f611fb0565b83513d8c823e3d90fd5b8460649187519162461bcd60e51b8352820152601960248201527f526570617920616d6f756e7420657863656564732064656274000000000000006044820152fd5b5050606492519162461bcd60e51b8352820152600e60248201526d27379030b1ba34bb32903637b0b760911b6044820152fd5b9098508281813d8311612203575b6121ef81836123a4565b810103126121ff5751975f611f18565b8b80fd5b503d6121e5565b85513d8e823e3d90fd5b9097508181813d8311612240575b61222c81836123a4565b8101031261223c5751965f611ed6565b8a80fd5b503d612222565b84513d8d823e3d90fd5b9080975081813d831161227d575b61226981836123a4565b810103126122795751955f611e95565b8980fd5b503d61225f565b61229a9250803d1061050b576104fc81836123a4565b5f80611e15565b505050611e408495969798949293946123dd565b50503461024d578160031936011261024d57602090516127108152f35b50503461024d5760209061094b6119bb365b6040906003190112610655576004359060243590565b600435906001600160a01b038216820361065557565b602435906001600160a01b038216820361065557565b5f1981146123345760010190565b634e487b7160e01b5f52601160045260245ffd5b8051156123555760200190565b634e487b7160e01b5f52603260045260245ffd5b80518210156123555760209160051b010190565b6001600160401b03811161239057604052565b634e487b7160e01b5f52604160045260245ffd5b90601f801991011681019081106001600160401b0382111761239057604052565b90816020910312610655575180151581036106555790565b156123e457565b60405162461bcd60e51b815260206004820152600c60248201526b155b985d5d1a1bdc9a5e995960a21b6044820152606490fd5b6001600160401b0390811661245757604051906040820190828210908211176123905760405260018152602036818301375f61245382612348565b5290565b6040519060e0820190811182821017612390576040526006815260c03660208301375f8061248483612348565b528151600110156124de57600160408301528151600210156124de57600260608301528151600310156124de57600360808301528151600410156124de57600560a08301528151600510156124de5750600660c082015290565b634e487b7160e01b81526032600452602490fd5b8181029291811591840414171561233457565b811561250f570490565b634e487b7160e01b5f52601260045260245ffd5b600c54801561255057600b5490612710918281029281840414901517156123345761254d91612505565b90565b505f90565b9190820391821161233457565b9190820180921161233457565b612577612523565b6004546001600160401b03808216808410156125ae576125a49061085c61254d95848660801c16906124f2565b9160401c16612562565b9192826125ba91612555565b61271092830392831161233457818460801c16828560401c1601928284116123345761085c6125f09261254d9660c01c906124f2565b9116612562565b61260f612602612523565b61260a61256f565b6124f2565b6001600160401b0360055460801c1690612710918203918211612334576305f5e1009161263b916124f2565b0490565b61264b600a5442612555565b80156126845761267b90644979cb9e0061267461266661256f565b9261260a60085494856124f2565b0490612562565b60085542600a55565b50565b612693600a5442612555565b8015612684576126bc90644979cb9e006126746126ae6125f7565b9261260a60095494856124f2565b60095542600a55565b6126d1600a5442612555565b80156126845761260a6126fc6126e561256f565b6008549061267485644979cb9e00958693856124f2565b9068056bc75e2d63100000928383116127d65761272291836008556126746126ae6125f7565b91821161277a57817fa0fadbfbb40d1b4013c553c5deaf84070909c3ed7a9ef092a92d406661bdf9ee9260095542600a556127756040519283924291846040919493926060820195825260208201520152565b0390a1565b60405162461bcd60e51b815260206004820152602e60248201527f537570706c7920696e646578206f766572666c6f77202d20636f6e746163742060448201526d383937ba37b1b7b61030b236b4b760911b6064820152608490fd5b60405162461bcd60e51b815260206004820152602e60248201527f426f72726f7720696e646578206f766572666c6f77202d20636f6e746163742060448201526d383937ba37b1b7b61030b236b4b760911b6064820152608490fd5b81156128805761284e906001600160401b0360055416906124f2565b90670de0b6b3a76400009182810292818404149015171561233457612710808202918204036123345761254d91612505565b50505f1990565b90816020910312610655575160ff811681036106555790565b60ff16604d811161233457600a0a90565b6040805163472a1d0960e11b81523060048201526001600160a01b038481166024830152919493929091908116906020908184604481865afa938415612a99575f94612a6a575b508315612a5c578651622275af60e91b81523060048201526001600160a01b0386166024820152948286604481875afa9586156129f4575f96612a2d575b50875163052226ef60e41b81523060048201526001600160a01b0382166024820152938390859060449082905afa9384156129f4575f946129fe575b501693865163313ce56760e01b81528281600481895afa9081156129f45761085c936129c261161597969461085c6129b86129cf9c9d96600d965f916129dd57506128a0565b98600854906124f2565b975f52525f2054906124f2565b670de0b6b3a7640000811091565b6108969150863d881161089c5761088e81836123a4565b88513d5f823e3d90fd5b90938382813d8311612a26575b612a1581836123a4565b810103126104b6575051925f612972565b503d612a0b565b90958382813d8311612a55575b612a4481836123a4565b810103126104b6575051945f612936565b503d612a3a565b505f95505f19949350505050565b90938282813d8311612a92575b612a8181836123a4565b810103126104b6575051925f6128f8565b503d612a77565b87513d5f823e3d90fd5b600260015414612ab4576002600155565b604051633ee5aeb560e01b8152600490fd5b15612acd57565b60405162461bcd60e51b8152602060048201526016602482015275496e73756666696369656e74206c697175696469747960501b6044820152606490fdfea2646970667358221220cacded1a3a067b21d6088ca3e5ed6c2c5764e6dfe756375ea8b01c344ee5f19464736f6c634300081400336080604052346200029b57620021ed803803806200001d81620002b4565b9283398101906060818303126200029b5780516001600160401b0391908281116200029b57810192601f908082860112156200029b578451928484116200024457602093601f19966200007686898785011601620002b4565b938285528683830101116200029b5785905f5b8381106200029f5750505f918401015280840151906001600160a01b03821682036200029b57604001518581168091036200029b576006811162000258575f549168010000000000000000600160e01b039060401b169163ffffffff60e01b1617175f5560019283805560ff1960035416600355815194851162000244576002548481811c9116801562000239575b828210146200022557838111620001dc575b5080928511600114620001755750839450908392915f9462000169575b50501b915f199060031b1c1916176002555b604051611f129081620002db8239f35b015192505f8062000147565b92948490811660025f52845f20945f905b88838310620001c15750505010620001a8575b505050811b0160025562000159565b01515f1960f88460031b161c191690555f808062000199565b85870151885590960195948501948793509081019062000186565b60025f52815f208480880160051c8201928489106200021b575b0160051c019085905b8281106200020f5750506200012a565b5f8155018590620001ff565b92508192620001f6565b634e487b7160e01b5f52602260045260245ffd5b90607f169062000118565b634e487b7160e01b5f52604160045260245ffd5b6064856040519062461bcd60e51b825280600483015260248201527f496e76616c696420636f6e74726f6c20616c6c6f77206c697374206c6576656c6044820152fd5b5f80fd5b81810183015186820184015287920162000089565b6040519190601f01601f191682016001600160401b03811183821017620002445760405256fe60406080815260048036101561004b575b50361561001b575f80fd5b807f9936746a4565f9766fa768f88f56a7487c78780ac179562773d1c75c5269537e9151338152346020820152a1005b5f90813560e01c90816328cafd721461157857816331b3203a1461128557816342c8afad14610f24578163431d8ffe14610dfa578163439e2e4514610e4357816344eb5e0014610dfa5781634743c2fd14610dcd57816347e7ef2414610c1a57816352226ef014610bfc57816352696601146108565781635e7db13d14610a5a57816369328dec1461089f5781638e543a1214610856578163a1d34a4214610702578163a7efe34814610523578163acbc682014610317578163b2567d1f146101f857508063c7ea4d44146101d2578063dce83ae314610189578063de287359146101615763e9ea28de0361001057903461015d578160031936011261015d5760209060ff6003541690519015158152f35b5080fd5b50903461015d578160031936011261015d5790548151911c6001600160a01b03168152602090f35b50903461015d578060031936011261015d57806020926101a7611720565b6101af61173a565b6001600160a01b0391821683526006865283832091168252845220549051908152f35b50903461015d578160031936011261015d576001600160401b0360209254169051908152f35b90508234610313576020908160031936011261030f5782359182151580930361030b578454936001600160401b039461023286821661188f565b879691851c6001600160a01b03169190875b81518110156102fa57610279868461025c84866117d0565b518a51636bf8e80f60e01b815293849283923391168b8401611831565b0381885afa9081156102f0578b916102c3575b5061029f5761029a9061178d565b610244565b5050505050505090506102b26001611854565b60ff80196003541691161760035580f35b6102e39150873d89116102e9575b6102db81836117e4565b810190611819565b8b61028c565b503d6102d1565b88513d8d823e3d90fd5b50505050505050906102b290611854565b8480fd5b8380fd5b8280fd5b91905034610520578260031936011261052057610332611720565b602435908254906001600160401b039461034d86841661188f565b949586956001600160a01b0394891c851690875b815181101561050e576103988461037883856117d0565b51168c5190636bf8e80f60e01b82528180602094859333908c8401611831565b0381885afa918215610504578b926104e7575b50506103bf576103ba9061178d565b610361565b505050909192939495506103d36001611854565b6103db611982565b8447106104a8578580808088875af1903d156104a2573d90811161048f57875190610410601f8201601f1916602001836117e4565b81528660203d92013e5b1561045557507f645e52ee0ce5c05d60f4b051028f29630be7001f5d84cba67fe6872db872cff8916020918596519485521692a36001805580f35b606490602087519162461bcd60e51b8352820152601460248201527312109054881d1c985b9cd9995c8819985a5b195960621b6044820152fd5b634e487b7160e01b875260418352602487fd5b5061041a565b865162461bcd60e51b81526020818401526019602482015278496e73756666696369656e7420484241522062616c616e636560381b6044820152606490fd5b6104fd9250803d106102e9576102db81836117e4565b5f806103ab565b8d513d8d823e3d90fd5b5050509091929394956103d390611854565b80fd5b90508234610313576020918260031936011261030f57610541611720565b918454936001600160401b039461055986821661188f565b87966001600160a01b0392851c831691885b81518110156106f0576105a086898561058485876117d0565b51168a519384928392636bf8e80f60e01b845233918401611831565b0381885afa9081156106e6578c916106c9575b506105c6576105c19061178d565b61056b565b505050509091929394506105da6001611854565b825163248a35ef60e11b81523085820152941660248501819052938181604481896101675af19182156106bf5790601692918792610692575b505060070b036106465750507fbbbf805ef99ca7d0b7d2cc769719f2a281c9b3331a3642efa75a712e3094a1668280a280f35b61068e92505191829162461bcd60e51b835282016060906020815260196020820152782330b4b632b2103a379030b9b9b7b1b4b0ba32903a37b5b2b760391b60408201520190565b0390fd5b6106b19250803d106106b8575b6106a981836117e4565b810190611969565b8680610613565b503d61069f565b83513d88823e3d90fd5b6106e09150873d89116102e9576102db81836117e4565b8c6105b3565b88513d8e823e3d90fd5b5050505090919293946105da90611854565b83915034610313576020918260031936011261030f578135916001600160401b03938484168094036108525785549261073c86851661188f565b879685831c6001600160a01b031691885b815181101561084057610782868461076584866117d0565b518851636bf8e80f60e01b815293849283923391168d8401611831565b0381885afa908115610836578c91610819575b506107a8576107a39061178d565b61074d565b505050509091929394506107bc6001611854565b600685116107d85750505067ffffffffffffffff191617815580f35b5162461bcd60e51b815291820181905260248201527f496e76616c696420636f6e74726f6c20616c6c6f77206c697374206c6576656c604482015260649150fd5b6108309150873d89116102e9576102db81836117e4565b8c610795565b86513d8e823e3d90fd5b5050505090919293946107bc90611854565b8580fd5b82843461015d578060031936011261015d5780602092610874611720565b61087c61173a565b6001600160a01b0391821683526005865283832091168252845220549051908152f35b83915034610313576060366003190112610313576108bb611720565b6001600160a01b039260443591908483168303610852578554946001600160401b03946108e986881661188f565b8897841c831690885b8151811015610a47576109298961090983856117d0565b5116875190636bf8e80f60e01b82528180602094859333908b8401611831565b0381885afa918215610a3d578d92610a20575b50506109505761094b9061178d565b6108f2565b505050909192939495506109676001969296611854565b61096f611982565b86549161097d81841661188f565b88978994861c16935b8151811015610a0e5761099d8361090983856117d0565b03818a5afa9182156106e6578c926109f1575b50506109c4576109bf9061178d565b610986565b5050505050506109ea92506109d96001611854565b6109e1611982565b602435916119a5565b6001805580f35b610a079250803d106102e9576102db81836117e4565b8b806109b0565b5050505050506109d96109ea93611854565b610a369250803d106102e9576102db81836117e4565b8c8061093c565b88513d8f823e3d90fd5b5050509095610967909592939495611854565b838334610520578160031936011261052057610a74611720565b916024359082546001600160401b0394610a8f86831661188f565b949586956001600160a01b0393851c84169190875b8151811015610bea578a83610ab983856117d0565b5116885190636bf8e80f60e01b82528180610adb602095869433918401611831565b0381895afa918215610be057908d9695949392918c92610bc3575b5050610b0f57610b059061178d565b9091929350610aa4565b5050505050909192939450610b246001611854565b1691828452846020528184205494858211610b8057610b66827faa3cec92d25e6e7cf3bf119de96782be90a19b7f9d717dc51e03d3f8f8aa22b1959697611e0e565b90858752602052808387205582519182526020820152a280f35b606490602084519162461bcd60e51b8352820152601e60248201527f43616e6e6f7420756e6c6f636b206d6f7265207468616e206c6f636b656400006044820152fd5b610bd99250803d106102e9576102db81836117e4565b8d80610af6565b89513d8d823e3d90fd5b505050509091929394610b2490611854565b82843461015d578060031936011261015d57806020926101a7611720565b9050828060031936011261031357610c30611720565b815163e1f21c6760e01b81526001600160a01b03821684820190815233602082810191909152602435604083018190529094939092909181906060010390858161016793818b865af1908115610dc357906016918991610da6575b5060070b03610d6357835163eca3691760e01b81526001600160a01b03909216868301523360248301523060448301526001600160401b0390921660070b60648201529083908290608490829089905af1908115610d5957906016918691610d3c575b5060070b03610cfb578380f35b5162461bcd60e51b815291820152601860248201527f4661696c656420746f207472616e7366657220746f6b656e0000000000000000604482015260649150fd5b610d539150843d86116106b8576106a981836117e4565b86610cee565b82513d87823e3d90fd5b835162461bcd60e51b8152808701869052601760248201527f4661696c656420746f20617070726f766520746f6b656e0000000000000000006044820152606490fd5b610dbd9150873d89116106b8576106a981836117e4565b89610c8b565b85513d8a823e3d90fd5b82843461015d57602036600319011261015d57602090610df3610dee611720565b611e1b565b9051908152f35b82843461015d578060031936011261015d5780602092610e18611720565b610e2061173a565b6001600160a01b0391821683526007865283832091168252845220549051908152f35b9050823461031357606036600319011261031357610e5f611720565b90610e6861173a565b9084546001600160401b0394610e7f86831661188f565b879692841c6001600160a01b03169290875b8151811015610f1257610ea88361090983856117d0565b03818a5afa9182156106e6578c92610ef5575b5050610ecf57610eca9061178d565b610e91565b5050505050506109ea9250610ee46001611854565b610eec611982565b604435916119a5565b610f0b9250803d106102e9576102db81836117e4565b8b80610ebb565b505050505050610ee46109ea93611854565b8391503461031357610f3536611750565b92939591908754936001600160401b0396610f5188871661188f565b8a996001600160a01b0397909190871c8816908b5b815181101561126f578d8c610f7b83856117d0565b5116610f9e8b5191636bf8e80f60e01b83528280602093849333908d8401611831565b0381895afa9283156112645792611247575b5050610fc457610fbf9061178d565b610f66565b5050508697989950610fdd600197929394959697611854565b1695868a526020926005845281878c20991698898c52845285878c20541061121057878b5260058452868b20898c528452868b2061101c878254611e0e565b9055878b5260068452868b20898c528452868b2061103b868254611e0e565b9055878b5260058452868b20898c528452868b20546111f75750868a5260078352858a20888b5283528986812055975b89549061107981831661188f565b8b9a8c93891c16925b81518110156111e3578c6110b8878561109b85876117d0565b518d51636bf8e80f60e01b815293849283923391168c8401611831565b0381895afa9182156111d857916111bb575b506110dd576110d89061178d565b611082565b5050505090919293949596506110f36001611854565b86885280825284882054808411611179577faa3cec92d25e6e7cf3bf119de96782be90a19b7f9d717dc51e03d3f8f8aa22b1868594936111577fa6f6d5e50bc84f153a0d6a9f9b37780433f92dc32d7e10f975ab3831c36898fa9998978c95611e0e565b90848d52855280828d205581519086825285820152a28351928352820152a380f35b5060649185519162461bcd60e51b8352820152601e60248201527f43616e6e6f7420756e6c6f636b206d6f7265207468616e206c6f636b656400006044820152fd5b6111d29150873d89116102e9576102db81836117e4565b8e6110ca565b8b51903d90823e3d90fd5b50505050909192939495966110f390611854565b878b5260078452868b20898c528452868b20559761106b565b865162461bcd60e51b815280840185905260116024820152704e6f206c6f616e7320746f20726570617960781b6044820152606490fd5b61125d9250803d106102e9576102db81836117e4565b8f80610fb0565b8c51903d90823e3d90fd5b505050610fdd8798999a97929394959697611854565b905082346103135761129636611750565b90939592948754946001600160401b03966112b288881661188f565b8a996001600160a01b0398909190851c8916908b5b8151811015611563578d8c6112dc83856117d0565b51168b895191636bf8e80f60e01b835282806112ff602094859433918401611831565b0381895afa928315611558579261153b575b5050611325576113209061178d565b6112c7565b50505087989950611341600198929394959697989a999a611854565b1695868a52602091600583528a858120998b83169a8b835285528682206113698a8254611ecf565b9055898252600685528682208b83528552868220611388878254611ecf565b9055898252600785528682208b83528552878783205581546113ab82821661188f565b90839d84918a1c16935b8251821015611522576113ea88856113cd85876117d0565b518d51636bf8e80f60e01b815293849283923391168d8401611831565b0381895afa9182156111d85791611505575b506114105761140a9061178d565b8e6113b5565b5050505061142b91929394959697989950610dee6001611854565b83116114b657917f7695c943e86fe119073b098f1b278727c236f4a661c96a660dacbf88f89c606795939160609593898b52808252838b2061146e848254611ecf565b9055898b528152887fb8cecfd0e38e35fdd1cbaa8877116ea7f0dc948c1317b8ce1a47eaedfe64154684808d205481519086825285820152a28251948552840152820152a380f35b60849184519162461bcd60e51b8352820152602560248201527f496e73756666696369656e7420756e6c6f636b65642062616c616e636520746f604482015264206c6f636b60d81b6064820152fd5b61151c9150883d8a116102e9576102db81836117e4565b5f6113fc565b5050505050610dee61142b92939495969798999a611854565b6115519250803d106102e9576102db81836117e4565b8f80611311565b8a51903d90823e3d90fd5b505050611341889a9892939495969798611854565b83915034610313578160031936011261031357611593611720565b9160243584546001600160401b03946115ad86831661188f565b87966001600160a01b0393861c841691885b815181101561170e5788836115d483856117d0565b5116895190636bf8e80f60e01b825281806115f6602095869433918401611831565b0381895afa918215611704578d926116e7575b505061161d576116189061178d565b6115bf565b505050509091929394506116316001611854565b61163a81611e1b565b831161169657907fb8cecfd0e38e35fdd1cbaa8877116ea7f0dc948c1317b8ce1a47eaedfe64154693929116938486528060205282862061167c838254611ecf565b90558486526020528185205482519182526020820152a280f35b835162461bcd60e51b8152602081870152602560248201527f496e73756666696369656e7420756e6c6f636b65642062616c616e636520746f604482015264206c6f636b60d81b6064820152608490fd5b6116fd9250803d106102e9576102db81836117e4565b8c80611609565b8a513d8f823e3d90fd5b50505050909192939461163190611854565b600435906001600160a01b038216820361173657565b5f80fd5b602435906001600160a01b038216820361173657565b60a0906003190112611736576001600160a01b03906004358281168103611736579160243590811681036117365790604435906064359060843590565b5f19811461179b5760010190565b634e487b7160e01b5f52601160045260245ffd5b8051156117bc5760200190565b634e487b7160e01b5f52603260045260245ffd5b80518210156117bc5760209160051b010190565b90601f801991011681019081106001600160401b0382111761180557604052565b634e487b7160e01b5f52604160045260245ffd5b90816020910312611736575180151581036117365790565b6001600160401b0390911681526001600160a01b03909116602082015260400190565b1561185b57565b60405162461bcd60e51b815260206004820152600c60248201526b155b985d5d1a1bdc9a5e995960a21b6044820152606490fd5b6001600160401b039081166118ce57604051906040820190828210908211176118055760405260018152602036818301375f6118ca826117af565b5290565b6040519060e0820190811182821017611805576040526006815260c03660208301375f806118fb836117af565b5281516001101561195557600160408301528151600210156119555760026060830152815160031015611955576003608083015281516004101561195557600560a08301528151600510156119555750600660c082015290565b634e487b7160e01b81526032600452602490fd5b9081602091031261173657518060070b81036117365790565b600260015414611993576002600155565b604051633ee5aeb560e01b8152600490fd5b6001600160a01b0382811693908415611bc2576040805163e1f21c6760e01b81526001600160a01b0386166004820152306024820152604481018490526101679560209592935f9390929091908781606481888d5af1908115611bb857906016918691611b9b575b5060070b03611b5b57611a1f90611e1b565b8511611b065782916084879286519485938492630aed65f560e11b84528d6004850152306024850152169a8b60448401528960648401525af1918215611afb5790601692611ade575b5060070b03611a9b57519081527f645e52ee0ce5c05d60f4b051028f29630be7001f5d84cba67fe6872db872cff89190a3565b5162461bcd60e51b815260048101839052601960248201527f4661696c656420746f207472616e7366657220617373657473000000000000006044820152606490fd5b611af59150853d87116106b8576106a981836117e4565b5f611a68565b8351903d90823e3d90fd5b835162461bcd60e51b815260048101879052602860248201527f696e73756666696369656e742061737365747320746f20636f6d706c657465206044820152673a3930b739b332b960c11b6064820152608490fd5b845162461bcd60e51b81526020600482015260196024820152782330b4b632b2103a379030b9b9b7b1b4b0ba32903a37b5b2b760391b6044820152606490fd5b611bb29150893d8b116106b8576106a981836117e4565b5f611a0d565b86513d87823e3d90fd5b92611bcf91929450611e1b565b8111611dba575f918254936001600160401b0394611bee86821661188f565b958596869085604094851c16915b8151811015611da857611c3484611c1383856117d0565b5116865190636bf8e80f60e01b825281806020948593339060048401611831565b0381885afa918215611d9e578b92611d81575b5050611c5b57611c569061178d565b611bfc565b50505090919293949550611c6f6001611854565b611c77611982565b844710611d41578580808088875af1903d15611d3b573d908111611d2757825190611cac601f8201601f1916602001836117e4565b81528660203d92013e5b15611ced575192835216907f645e52ee0ce5c05d60f4b051028f29630be7001f5d84cba67fe6872db872cff890602090a360018055565b5162461bcd60e51b815260206004820152601460248201527312109054881d1c985b9cd9995c8819985a5b195960621b6044820152606490fd5b634e487b7160e01b87526041600452602487fd5b50611cb6565b815162461bcd60e51b8152602060048201526019602482015278496e73756666696369656e7420484241522062616c616e636560381b6044820152606490fd5b611d979250803d106102e9576102db81836117e4565b5f80611c47565b87513d8d823e3d90fd5b505050909192939495611c6f90611854565b60405162461bcd60e51b815260206004820152602660248201527f696e73756666696369656e74204842415220746f20636f6d706c65746520747260448201526530b739b332b960d11b6064820152608490fd5b9190820391821161179b57565b6001600160a01b03165f8181526004602052604081205490918015611ebc576020602491604051928380926370a0823160e01b82523060048301525afa908115611eb1578391611e80575b50808211611e7b57611e789250611e0e565b90565b505090565b90506020813d8211611ea9575b81611e9a602093836117e4565b8101031261031357515f611e66565b3d9150611e8d565b6040513d85823e3d90fd5b5047808211611e7b57611e789250611e0e565b9190820180921161179b5756fea26469706673582212208eb12f7b8819115de9b1e0f797daa060fd31c423751fbb4aedfbf530a877dd0b64736f6c63430008140033a264697066735822122007cfdcaa8cf4dd7fc0e1595559fccd4c383e1c970ac02d8265808cdac704d04d64736f6c63430008140033","linkReferences":{}},"methodIdentifiers":{"createPool(uint64,uint64,uint64,uint64,uint64,uint64,uint64,uint64,address,address,string)":"612d659e","getPool(string)":"41d7b026","pools(string)":"9d6f17a8"},"id":22}