{"abi":[{"type":"constructor","inputs":[{"name":"_aclContract","type":"address","internalType":"address"}],"stateMutability":"nonpayable"},{"type":"function","name":"createPool","inputs":[{"name":"ltv","type":"uint64","internalType":"uint64"},{"name":"optimalUtilization","type":"uint64","internalType":"uint64"},{"name":"baseRate","type":"uint64","internalType":"uint64"},{"name":"slope1","type":"uint64","internalType":"uint64"},{"name":"slope2","type":"uint64","internalType":"uint64"},{"name":"liquidationThreshold","type":"uint64","internalType":"uint64"},{"name":"liquidationDiscount","type":"uint64","internalType":"uint64"},{"name":"reserveFactor","type":"uint64","internalType":"uint64"},{"name":"lending","type":"address","internalType":"address"},{"name":"yieldAsset","type":"string","internalType":"string"},{"name":"yieldAssetSymbol","type":"string","internalType":"string"},{"name":"lendingPool","type":"string","internalType":"string"}],"outputs":[],"stateMutability":"payable"},{"type":"function","name":"getPool","inputs":[{"name":"name","type":"string","internalType":"string"}],"outputs":[{"name":"","type":"address","internalType":"address"}],"stateMutability":"view"},{"type":"function","name":"pools","inputs":[{"name":"","type":"string","internalType":"string"}],"outputs":[{"name":"","type":"address","internalType":"address"}],"stateMutability":"view"}],"bytecode":{"object":"0x60803461007a57601f617a3238819003918201601f19168301916001600160401b0383118484101761007e5780849260209460405283398101031261007a57516001600160a01b0381169081900361007a5760018060a01b031933816001541617600155600254161760025560405161799f90816100938239f35b5f80fd5b634e487b7160e01b5f52604160045260245ffdfe6080604052600436101562000012575f80fd5b5f803560e01c80630da1d91c14620000ed57806341d7b02614620000b457639d6f17a8146200003f575f80fd5b34620000b1576020366003190112620000b1576004356001600160401b038111620000ad579062000077602092369060040162000410565b826200008d60405192838151938492016200048d565b81019182529081900382019020546040516001600160a01b039091168152f35b5080fd5b80fd5b5034620000b1576020366003190112620000b1576004356001600160401b038111620000ad579062000077602092369060040162000410565b50610180366003190112620000b1576004356001600160401b0381168103620000ad57602435906001600160401b03821682036200040c57604435916001600160401b038316830362000408576064356001600160401b038116810362000404576084356001600160401b0381168103620004005760a4356001600160401b0381168103620003fc5760c4356001600160401b0381168103620003f85760e435906001600160401b0382168203620003f45761010435926001600160a01b0384168403620003f057610124356001600160401b038111620003ec57620001d890369060040162000410565b94610144356001600160401b038111620003e857620001fc90369060040162000410565b96610164356001600160401b038111620003e4576200022090369060040162000410565b600154909b906001600160a01b03163303620003b05760018060a01b0360025416996040519b8c6001600160401b0381617492810110916174920111176200039c57956001600160401b036200032a9a968e6080819f9e9b96620003129d9985809a81620002fa9f9481809c818098617492620004d88d39166174929a8b019081529116602082015291166040820152911660608201529116910152911660a0918e0191820152911660c0820152911660e08201526001600160a01b03919091166101008201526101c061012082018190520190620004b0565b906174928601820361014061749288010152620004b0565b617492840181036101606174928601015285620004b0565b906101806174928401015260026101a061749284010152039034f090811562000391576020620003689181604051938285809451938492016200048d565b81018581520301902080546001600160a01b0319166001600160a01b0390921691909117905580f35b6040513d84823e3d90fd5b634e487b7160e01b8f52604160045260248ffd5b60405162461bcd60e51b815260206004820152600c60248201526b155b985d5d1a1bdc9a5e995960a21b6044820152606490fd5b8c80fd5b8b80fd5b8a80fd5b8980fd5b8880fd5b8780fd5b8680fd5b8580fd5b8480fd5b8380fd5b8280fd5b81601f8201121562000475578035906001600160401b0392838311620004795760405193601f8401601f19908116603f01168501908111858210176200047957604052828452602083830101116200047557815f926020809301838601378301015290565b5f80fd5b634e487b7160e01b5f52604160045260245ffd5b5f5b8381106200049f5750505f910152565b81810151838201526020016200048f565b90602091620004cb815180928185528580860191016200048d565b601f01601f191601019056fe6080806040526200749280380380916200001a828562000409565b833981016101c082820312620004055762000035826200042d565b9062000044602084016200042d565b9062000053604085016200042d565b9362000062606082016200042d565b9462000071608083016200042d565b956200008060a084016200042d565b916200008f60c085016200042d565b916200009e60e086016200042d565b90620000ae610100870162000442565b610120870151909a906001600160401b038111620004055788620000d49189016200047a565b6101408801519099906001600160401b038111620004055789620000fa918a016200047a565b61016089015190996001600160401b03821162000405576200011e918a016200047a565b9a6200012e6101808a0162000442565b986001600160401b039062000147906101a0016200042d565b1660068111620003c1575f80546001600160e01b03191690911760408b811b600160401b600160e01b0316919091179091556001805560038054600160a01b600160e01b03191660a09390931b600160a01b600160e01b031692909217909155608093841b600160801b600160c01b0390811696821b6fffffffffffffffff00000000000000009081166001600160401b03948516179790971760c09490941b6001600160c01b0319908116949094176004556005805498831b9097169790931697821697909717959095179290911b16179055600680546001600160a01b03199081166001600160a01b03998a16179091559151919695611f63808401939192909190841181851017620003ad57806200026c868562002fe59786898639620004fc565b03905ff08015620003a2578716886002541617600255620002c4602860405184620002a282965180926020808601910162000457565b810167747265617375727960c01b602082015203600881018552018362000409565b60405192818401926001600160401b03841185851017620003ad578493620002f09387938639620004fc565b03905ff08015620003a2578416856003541617600355670de0b6b3a76400008060085560095542600a556040519261254a9283850185811060018060401b03821117620003ad57866200036c6060936200035d6001968a9962004f488b39608086526080860190620004d5565b908482036020860152620004d5565b941660408201520152039034f08015620003a257169060075416176007555f600b555f600c55604051612ab890816200052d8239f35b6040513d5f823e3d90fd5b634e487b7160e01b5f52604160045260245ffd5b606460405162461bcd60e51b815260206004820152602060248201527f496e76616c696420636f6e74726f6c20616c6c6f77206c697374206c6576656c6044820152fd5b5f80fd5b601f909101601f19168101906001600160401b03821190821017620003ad57604052565b51906001600160401b03821682036200040557565b51906001600160a01b03821682036200040557565b5f5b838110620004695750505f910152565b818101518382015260200162000459565b81601f82011215620004055780516001600160401b038111620003ad5760405192620004b1601f8301601f19166020018562000409565b818452602082840101116200040557620004d2916020808501910162000457565b90565b90602091620004f08151809281855285808601910162000457565b601f01601f1916010190565b60409062000518600493959495606083526060830190620004d5565b6001600160a01b039095166020820152015256fe60406080815260049081361015610014575f80fd5b5f91823560e01c90816301f72884146122495781630f47a0e5146107545781631135daeb1461222c5781631da649cf14611cd55781631f68f20a14611cac5781631ffce3f414611c83578163383e217014611c6a5781633de2f6b2146116cd5781634031234c146116a55781634322b7141461167a578163471b44271461143a57816347e7ef24146111c75781634c19386c146111a857816361d027b31461117f5781636290cd1c14611158578163630fd0ac146111395781636558ef11146110ff57816367e74dd1146110e65781636c665a5514610d1a5781636fb49d7314610cef57816371302473146106fb5781637eb7113114610cd25781638053fcbe14610ca957816384bdc9a814610c8c5781638a539cbe14610c6857816395082d2514610c4557816398f1bc1214610c26578163a1d34a4214610ac2578163a62b75a814610a98578163aa5af0fd14610a79578163ae60d5fc14610a55578163b42ba5b114610925578163ba1c5e8014610901578163bbb8518814610892578163c0919750146107cc578163c7ea4d44146107a6578163c95abc221461077d578163cd3293de14610754578163d0134cb714610733578163d28320d6146106fb578163d288043b146106c6578163de2873591461069e578163e108f85714610556578163e6a69ab814610537578163ed8e3e8f14610518578163f3fef3a31461027957508063f7866ee3146102515763fbaf894c14610230575f80fd5b3461024d578160031936011261024d57602090600a549051908152f35b5080fd5b503461024d578160031936011261024d5760035490516001600160a01b039091168152602090f35b91905034610514578060031936011261051457610294612271565b6024359184546001600160401b03926102ae84831661238f565b87966001600160a01b0393909190851c84169088805b825181101561050157610310896102db83866122e0565b518a51636bf8e80f60e01b815291166001600160401b0316878201908152336020808301919091529283918391829160400190565b0381895afa9182156104f75784926104ca575b5050610337576103329061229d565b6102c4565b5093949596979850505061034b6001612354565b610353612a1a565b61035b61263c565b670de0b6b3a764000061037060095489612469565b049561039587600c5461039082610389600b54846124cc565b1015612a3d565b6124cc565b600c558460075416803b156104a857865163393b766560e11b81529189166001600160401b03168383019081526001600160a01b03861660208201528491839182908490829060400103925af180156104c0579083916104ac575b50508360025416908460065416823b156104a857865163439e2e4560e01b81526001600160a01b0380871693820193845290911660208301526040820188905291839183919082908490829060600103925af1801561049e57610486575b50507f92ccf450a286a957af52509bc1c9939d1a6a481783e142e41e2499f0bb66ebc693835195865260208601521692a26001805580f35b61048f906122f4565b61049a57855f61044e565b8580fd5b85513d84823e3d90fd5b8380fd5b6104b5906122f4565b61024d57815f6103f0565b86513d85823e3d90fd5b6104e99250803d106104f0575b6104e1818361231b565b81019061233c565b5f80610323565b503d6104d7565b8a513d86823e3d90fd5b50939495969798905061034b9150612354565b8280fd5b83346105345780600319360112610534576105316125fe565b80f35b80fd5b50503461024d578160031936011261024d57602090516301e187e08152f35b8391503461024d5760208060031936011261051457610573612271565b6007548551637e062a3560e11b81526001600160a01b039291849082908790829087165afa9081156106945790849392918791610658575b509082602492895197889586946370a0823160e01b86521690840152165afa92831561064d579261061b575b5050610617670de0b6b3a76400006105f160095484612469565b04926105fb61256e565b9051938493846040919493926060820195825260208201520152565b0390f35b90809250813d8311610646575b610632818361231b565b81010312610642575182806105d7565b5f80fd5b503d610628565b8451903d90823e3d90fd5b848193949592503d831161068d575b610671818361231b565b8101031261049a5751828116810361049a5783929190826105ab565b503d610667565b87513d88823e3d90fd5b50503461024d578160031936011261024d5790548151911c6001600160a01b03168152602090f35b8284346105345760203660031901126105345750670de0b6b3a76400006106f36020936009549035612469565b049051908152f35b50503461024d57602036600319011261024d5760209181906001600160a01b03610723612271565b168152600d845220549051908152f35b905034610514578260031936011261051457602092505460c01c9051908152f35b50503461024d578160031936011261024d5760025490516001600160a01b039091168152602090f35b50503461024d578160031936011261024d5760075490516001600160a01b039091168152602090f35b50503461024d578160031936011261024d576001600160401b0360209254169051908152f35b9050346105145781600319360112610514576001600160a01b036107ee612287565b16808452600d602052816020848620549285519283809263313ce56760e01b82525afa90811561088857926108416106f39361083a610846946127109760209a9161085b575b50612817565b9235612469565b61247c565b6001600160401b0360035460a01c1690612469565b61087b91508a3d8111610881575b610873818361231b565b8101906127fe565b5f610834565b503d610869565b84513d87823e3d90fd5b50503461024d578160031936011261024d5760c091600c5491600b54918284115f146108fc57506108c382846124cc565b6108cb61249a565b906108d461256e565b926108dd6124e6565b94815196875260208701528501526060840152608083015260a0820152f35b6108c3565b50503461024d578160031936011261024d5760209061091e6124e6565b9051908152f35b90508234610534578260031936011261053457610940612271565b9260243582546001600160401b039461095a86831661238f565b949586956001600160a01b0393861c84169190875b8151811015610a2157610986836102db83856122e0565b0381895afa918215610a17578b926109fa575b50506109ad576109a89061229d565b61096f565b505050505060209294507f41dd56c92c84169d8e89dc293d2649a911f47b357d3012bc88662395e01979d093956109e46001612354565b1693848652600d8352818187205551908152a280f35b610a109250803d106104f0576104e1818361231b565b8c80610999565b8a513d8d823e3d90fd5b50505050507f41dd56c92c84169d8e89dc293d2649a911f47b357d3012bc88662395e01979d093956109e460209496612354565b50503461024d5760209061091e610841610a6e3661225b565b919060085490612469565b50503461024d578160031936011261024d576020906008549051908152f35b828434610534578060031936011261053457506001600160401b036020925460801c169051908152f35b90503461051457602091826003193601126104a8578135916001600160401b039384841680940361049a57855492610afb86851661238f565b879685831c6001600160a01b031691885b8151811015610c1457610b568684610b2484866122e0565b518851636bf8e80f60e01b815291166001600160401b03168a8201908152336020820152909283918291604090910190565b0381885afa908115610c0a578c91610bed575b50610b7c57610b779061229d565b610b0c565b50505050909192939450610b906001612354565b60068511610bac5750505067ffffffffffffffff191617815580f35b5162461bcd60e51b815291820181905260248201527f496e76616c696420636f6e74726f6c20616c6c6f77206c697374206c6576656c604482015260649150fd5b610c049150873d89116104f0576104e1818361231b565b5f610b69565b86513d8e823e3d90fd5b505050509091929394610b9090612354565b50503461024d578160031936011261024d576020906009549051908152f35b50503461024d578160031936011261024d5760209051670de0b6b3a76400008152f35b50503461024d578160031936011261024d576020905168056bc75e2d631000008152f35b50503461024d578160031936011261024d5760209061091e61256e565b50503461024d578160031936011261024d576005548151911c6001600160401b03168152602090f35b50503461024d578160031936011261024d5760209061091e61249a565b50503461024d578160031936011261024d576020906001600160401b0360035460a01c169051908152f35b9190503461051457606036600319011261051457610d36612271565b6001600160a01b0360443581811693919260243590858303610642578754966001600160401b0395610d69878a1661238f565b8a99871c8216908a5b81518110156110d2578c8a610d8783856122e0565b518b51636bf8e80f60e01b815291166001600160401b031687820190815233602080830191909152908190839081906040010381895afa9283156110c757926110aa575b5050610ddf57610dda9061229d565b610d72565b505050909192939495969750610df56001612354565b610dfd612a1a565b610e0561263c565b855163313ce56760e01b8152602097908a90898186818e5afa9081156110a0578b6108418b85600d8f610e496127109a98610e5598610e639b916110895750612817565b9583525220548a612469565b9060035460a01c1690612469565b0494610e7886610389600c54600b54906124cc565b865163472a1d0960e11b8152308482019081526001600160a01b038316602082015285841699919082908290819060400103818d5afa90811561107f578c91611052575b5061101957506008548a94939291893b1561049a5788516318d9901d60e11b8152308582019081526001600160a01b0390921660208301526040820189905260608201889052608082019290925285908290819060a0010381838d5af1801561100f57908591610ffb575b5050610f3586600b546124d9565b600b5560025460065482169116803b15610ff757875163439e2e4560e01b81526001600160a01b0394851693810193845293909116602083015260408201869052839183919082908490829060600103925af1801561049e57610fe3575b5050610fd97fc1cba78646fef030830d099fc25cb498953709c9d47d883848f81fd207174c9f936008549051938493846040919493926060820195825260208201520152565b0390a36001805580f35b610fec906122f4565b61049a57855f610f93565b8480fd5b611004906122f4565b6104a857835f610f27565b88513d87823e3d90fd5b8360649189519162461bcd60e51b83528201526014602482015273115e1a5cdd1a5b99c81d5b9c185a590819195c1d60621b6044820152fd5b90508181813d8311611078575b611069818361231b565b8101031261064257515f610ebc565b503d61105f565b89513d8e823e3d90fd5b61087b9150833d851161088157610873818361231b565b89513d84823e3d90fd5b6110c09250803d106104f0576104e1818361231b565b5f80610dcb565b8c51903d90823e3d90fd5b5050509091929394959697610df590612354565b83346105345780600319360112610534576105316125b6565b8284346105345781600319360112610534575061112b61111d612271565b611125612287565b90612828565b825191151582526020820152f35b50503461024d578160031936011261024d57602090600c549051908152f35b828434610534578060031936011261053457506001600160401b0360209254169051908152f35b50503461024d578160031936011261024d5760035490516001600160a01b039091168152602090f35b50503461024d578160031936011261024d57602090600b549051908152f35b919050346105145780600319360112610514576111e2612271565b8354916024356001600160401b036111fb81861661238f565b87966001600160a01b0396909190851c871690885b81518110156114285761125c8561122783856122e0565b518951636bf8e80f60e01b815291166001600160401b0316868201908152336020808301919091529283918391829160400190565b0381885afa91821561141e578d92611401575b50506112835761127e9061229d565b611210565b505050909192939495506112976001612354565b61129f612a1a565b6112a761263c565b670de0b6b3a76400008084029084820414841517156113ee5790866112d18994936009549061247c565b966112de86600c546124d9565b600c5516968060025416816006541690893b1561049a57875163439e2e4560e01b81526001600160a01b03918216858201908152919092166020820152604081018790528590829081906060010381838d5af180156113e4579085916113d0575b50506007541690813b156104a85760448891858094895196879586946339a4ed0560e11b86528501528b1660248401525af180156113c6576113b2575b50507f73a19dd210f1a7f902193214c0ee91dd35ee5b4d920cba8d519eca65a7b488ca9282519182526020820152a26001805580f35b6113bb906122f4565b610ff757845f61137c565b84513d84823e3d90fd5b6113d9906122f4565b6104a857835f61133f565b87513d87823e3d90fd5b634e487b7160e01b885260118252602488fd5b6114179250803d106104f0576104e1818361231b565b5f8061126f565b89513d8f823e3d90fd5b50505090919293949561129790612354565b905034610514578160031936011261051457611454612271565b9061145d612287565b835163472a1d0960e11b8152308382019081526001600160a01b0380841660208381019190915292969095929492861693909290918590889081906040010381875afa968715611670578897611641575b508251622275af60e91b8152308282019081526001600160a01b03841660208201529096908690889081906040010381885afa9687156115cb578997611612575b50835163052226ef60e41b8152308382019081526001600160a01b0385166020820152909587918791908290819060400103915afa9485156115cb5789956115e3575b5087156115d557611549876108416008548b612469565b921690858451809263313ce56760e01b825281855afa9081156115cb5761159b92610841868c611587889660a09f9661159697916115b45750612817565b938152600d8b52205488612469565b6127a9565b935b825196875286015284015260608301526080820152f35b61087b91508d803d1061088157610873818361231b565b84513d8b823e3d90fd5b50505060a0955f199361159d565b9094508581813d831161160b575b6115fb818361231b565b810103126106425751935f611532565b503d6115f1565b9096508581813d831161163a575b61162a818361231b565b810103126106425751955f6114ef565b503d611620565b9096508481813d8311611669575b611659818361231b565b810103126106425751955f6114ae565b503d61164f565b83513d8a823e3d90fd5b50503461024d578160031936011261024d576020906001600160401b0360055460801c169051908152f35b50503461024d578160031936011261024d576020906001600160401b03600554169051908152f35b905034610514576080366003190112610514576116e8612271565b916116f1612287565b91604435906064359260018060a01b039283851695868603610642578854976001600160401b0396611724888b1661238f565b8b9a861c8816908b5b8151811015611c55578d8b61174283856122e0565b518a51636bf8e80f60e01b815291166001600160401b03168b820190815233602080830191909152908190839081906040010381895afa928315611c4a5792611c2d575b505061179a576117959061229d565b61172d565b505050909192939495969798506117b16001612354565b6117b9612a1a565b6117c161263c565b845163313ce56760e01b815260209690878183818e5afa908115611c2357906117f0918d91611c0c5750612817565b988a8c52600d8852868c20549061180b826108418d8a612469565b60055461271092908a1c16820190818311611bf9579161182e8f93928d93612469565b8a5163472a1d0960e11b8152308782019081526001600160a01b0389166020820152939099169d919004979390918b9085908f908290819060400103915afa938415611bef578394611bbc575b508c8b8b51809263052226ef60e41b825281806118b48c308d840190602090939293604083019460018060a01b03809216845216910152565b03915afa908115611bb2578491611b81575b508d8c8c518092622275af60e91b825281806118ff8d8d3090840190602090939293604083019460018060a01b03809216845216910152565b03915afa9485156110c75794611b48575b50670de0b6b3a7640000926108416119429361192b93612469565b61193c846108416008548098612469565b906127a9565b1015611af6579061195b816108418f979695948a612469565b908b3b1561049a5788516342c8afad60e01b8152308482019081526001600160a01b03861660208201526040810184905260608101899052608081019290925290869082908e9082908490829060a00103925af18015611ad857908691611ae2575b50506119cb90600b546124cc565b600b5588831698806002541690600654168a3b1561049a57885163439e2e4560e01b8082526001600160a01b0393841685830190815292909316602083015260408201899052908690829081900360600181838f5af18015611ad857908691611ac4575b50508a3b15610ff75787519081526001600160a01b03938416918101918252929091166020820152604081018490528290829081906060010381838c5af1801561049e57611aac575b50507fd1ef587d13fefe63f9bc582e973aad46877ef08cfe790838721bd521c53caf56938351928352820152a46001805580f35b611ab5906122f4565b611ac057875f611a78565b8780fd5b611acd906122f4565b610ff757845f611a2f565b89513d88823e3d90fd5b611aeb906122f4565b610ff757845f6119bd565b875162461bcd60e51b81528084018a9052602660248201527f506f736974696f6e20697320206865616c7468792c2063616e6e6f74206c697160448201526575696461746560d01b6064820152608490fd5b919093508b82813d8311611b7a575b611b61818361231b565b8101031261064257905192670de0b6b3a7640000611910565b503d611b57565b8094508c8092503d8311611bab575b611b9a818361231b565b81010312610642578e92515f6118c6565b503d611b90565b8b513d86823e3d90fd5b8b809295508194503d8311611be8575b611bd6818361231b565b81010312610642578d9151925f61187b565b503d611bcc565b8a513d85823e3d90fd5b634e487b7160e01b8f526011855260248ffd5b61087b9150893d8b1161088157610873818361231b565b87513d8e823e3d90fd5b611c439250803d106104f0576104e1818361231b565b5f80611786565b8b51903d90823e3d90fd5b5050509091929394959697986117b190612354565b833461053457806003193601126105345761053161263c565b50503461024d578160031936011261024d5760065490516001600160a01b039091168152602090f35b828434610534578060031936011261053457506001600160401b0360209254821c169051908152f35b90503461051457606036600319011261051457611cf0612271565b91611cf9612287565b845460443593916001600160401b03611d1381841661238f565b88976001600160a01b0394909190871c851690895b8151811015612218578b85611d3d83856122e0565b518b51636bf8e80f60e01b815291166001600160401b03168a820190815233602080830191909152908190839081906040010381895afa9283156110c757926121fb575b5050611d9557611d909061229d565b611d28565b505050839495969750611dac600194929394612354565b611db4612a1a565b611dbc61263c565b865163472a1d0960e11b8152308782019081526001600160a01b038616602082810191909152939092169790969092909181908890819060400103818b5afa9687156120cf578a976121c8575b508251622275af60e91b8152308382019081526001600160a01b038716602082015290979082908990819060400103818c5afa9788156121be578b9861218b575b50835163052226ef60e41b8152308482019081526001600160a01b038816602082015290989083908a90819060400103818d5afa988915612181578c9961214e575b50811561211b5760085492611ea5826108418686612469565b8c116120d957508b91610841611ec3856108418f95611eca96612469565b809b612469565b91893b1561024d5784516342c8afad60e01b8152308582019081526001600160a01b0389166020820152604081018b905260608101949094526080840191909152918290819060a0010381838c5af180156120cf576120bc575b508890868911156120af57612710611f4e611f3f898c6124cc565b955b60055460801c1686612469565b04611f59818b6124cc565b91611f6689600b546124cc565b600b5587600254169288600654168b3b1561049a57865163439e2e4560e01b8082526001600160a01b0396871685830190815292909616602083015260408201929092528590829081900360600181838f5af180156120a557908591612091575b505081612016575b5050915197885250506020860193909352604085019290925216917f244fed5b3268b6a17fff986a36f3d87e163ac678d91d552866eb1e74f010f3a6908060608101610fd9565b87600354169288600654168b3b1561049a5786519182526001600160a01b03948516928201928352909316602082015260408101919091528290829081906060010381838c5af180156120875761206f575b8080611fcf565b61207b909392936122f4565b611ac05790875f612068565b83513d84823e3d90fd5b61209a906122f4565b6104a857835f611fc7565b86513d87823e3d90fd5b612710611f4e8395611f41565b6120c8909991996122f4565b975f611f24565b83513d8c823e3d90fd5b8460649187519162461bcd60e51b8352820152601960248201527f526570617920616d6f756e7420657863656564732064656274000000000000006044820152fd5b5050606492519162461bcd60e51b8352820152600e60248201526d27379030b1ba34bb32903637b0b760911b6044820152fd5b9098508281813d831161217a575b612166818361231b565b810103126121765751975f611e8c565b8b80fd5b503d61215c565b85513d8e823e3d90fd5b9097508181813d83116121b7575b6121a3818361231b565b810103126121b35751965f611e4a565b8a80fd5b503d612199565b84513d8d823e3d90fd5b9080975081813d83116121f4575b6121e0818361231b565b810103126121f05751955f611e09565b8980fd5b503d6121d6565b6122119250803d106104f0576104e1818361231b565b5f80611d81565b505050611dac849596979894929394612354565b50503461024d578160031936011261024d57602090516127108152f35b50503461024d5760209061091e61193c365b6040906003190112610642576004359060243590565b600435906001600160a01b038216820361064257565b602435906001600160a01b038216820361064257565b5f1981146122ab5760010190565b634e487b7160e01b5f52601160045260245ffd5b8051156122cc5760200190565b634e487b7160e01b5f52603260045260245ffd5b80518210156122cc5760209160051b010190565b6001600160401b03811161230757604052565b634e487b7160e01b5f52604160045260245ffd5b90601f801991011681019081106001600160401b0382111761230757604052565b90816020910312610642575180151581036106425790565b1561235b57565b60405162461bcd60e51b815260206004820152600c60248201526b155b985d5d1a1bdc9a5e995960a21b6044820152606490fd5b6001600160401b039081166123ce57604051906040820190828210908211176123075760405260018152602036818301375f6123ca826122bf565b5290565b6040519060e0820190811182821017612307576040526006815260c03660208301375f806123fb836122bf565b5281516001101561245557600160408301528151600210156124555760026060830152815160031015612455576003608083015281516004101561245557600560a08301528151600510156124555750600660c082015290565b634e487b7160e01b81526032600452602490fd5b818102929181159184041417156122ab57565b8115612486570490565b634e487b7160e01b5f52601260045260245ffd5b600c5480156124c757600b5490612710918281029281840414901517156122ab576124c49161247c565b90565b505f90565b919082039182116122ab57565b919082018092116122ab57565b6124ee61249a565b6004546001600160401b03808216808410156125255761251b906108416124c495848660801c1690612469565b9160401c166124d9565b919282612531916124cc565b6127109283039283116122ab57818460801c16828560401c1601928284116122ab57610841612567926124c49660c01c90612469565b91166124d9565b61258661257961249a565b6125816124e6565b612469565b6001600160401b0360055460801c16906127109182039182116122ab576305f5e100916125b291612469565b0490565b6125c2600a54426124cc565b80156125fb576125f290644979cb9e006125eb6125dd6124e6565b926125816008549485612469565b04906124d9565b60085542600a55565b50565b61260a600a54426124cc565b80156125fb5761263390644979cb9e006125eb61262561256e565b926125816009549485612469565b60095542600a55565b612648600a54426124cc565b80156125fb5761258161267361265c6124e6565b600854906125eb85644979cb9e0095869385612469565b9068056bc75e2d631000009283831161274d5761269991836008556125eb61262561256e565b9182116126f157817fa0fadbfbb40d1b4013c553c5deaf84070909c3ed7a9ef092a92d406661bdf9ee9260095542600a556126ec6040519283924291846040919493926060820195825260208201520152565b0390a1565b60405162461bcd60e51b815260206004820152602e60248201527f537570706c7920696e646578206f766572666c6f77202d20636f6e746163742060448201526d383937ba37b1b7b61030b236b4b760911b6064820152608490fd5b60405162461bcd60e51b815260206004820152602e60248201527f426f72726f7720696e646578206f766572666c6f77202d20636f6e746163742060448201526d383937ba37b1b7b61030b236b4b760911b6064820152608490fd5b81156127f7576127c5906001600160401b036005541690612469565b90670de0b6b3a7640000918281029281840414901517156122ab57612710808202918204036122ab576124c49161247c565b50505f1990565b90816020910312610642575160ff811681036106425790565b60ff16604d81116122ab57600a0a90565b6040805163472a1d0960e11b81523060048201526001600160a01b038481166024830152919493929091908116906020908184604481865afa938415612a10575f946129e1575b5083156129d3578651622275af60e91b81523060048201526001600160a01b0386166024820152948286604481875afa95861561296b575f966129a4575b50875163052226ef60e41b81523060048201526001600160a01b0382166024820152938390859060449082905afa93841561296b575f94612975575b501693865163313ce56760e01b81528281600481895afa90811561296b576108419361293961159697969461084161292f6129469c9d96600d965f916129545750612817565b9860085490612469565b975f52525f205490612469565b670de0b6b3a7640000811091565b61087b9150863d881161088157610873818361231b565b88513d5f823e3d90fd5b90938382813d831161299d575b61298c818361231b565b81010312610534575051925f6128e9565b503d612982565b90958382813d83116129cc575b6129bb818361231b565b81010312610534575051945f6128ad565b503d6129b1565b505f95505f19949350505050565b90938282813d8311612a09575b6129f8818361231b565b81010312610534575051925f61286f565b503d6129ee565b87513d5f823e3d90fd5b600260015414612a2b576002600155565b604051633ee5aeb560e01b8152600490fd5b15612a4457565b60405162461bcd60e51b8152602060048201526016602482015275496e73756666696369656e74206c697175696469747960501b6044820152606490fdfea2646970667358221220cc2852516eaa1a5d6c254f690a8649157645570899279f3dea04e45cad37833e64736f6c634300081400336080604052346200029b5762001f63803803806200001d81620002b4565b9283398101906060818303126200029b5780516001600160401b0391908281116200029b57810192601f908082860112156200029b578451928484116200024457602093601f19966200007686898785011601620002b4565b938285528683830101116200029b5785905f5b8381106200029f5750505f918401015280840151906001600160a01b03821682036200029b57604001518581168091036200029b576006811162000258575f549168010000000000000000600160e01b039060401b169163ffffffff60e01b1617175f5560019283805560ff1960035416600355815194851162000244576002548481811c9116801562000239575b828210146200022557838111620001dc575b5080928511600114620001755750839450908392915f9462000169575b50501b915f199060031b1c1916176002555b604051611c889081620002db8239f35b015192505f8062000147565b92948490811660025f52845f20945f905b88838310620001c15750505010620001a8575b505050811b0160025562000159565b01515f1960f88460031b161c191690555f808062000199565b85870151885590960195948501948793509081019062000186565b60025f52815f208480880160051c8201928489106200021b575b0160051c019085905b8281106200020f5750506200012a565b5f8155018590620001ff565b92508192620001f6565b634e487b7160e01b5f52602260045260245ffd5b90607f169062000118565b634e487b7160e01b5f52604160045260245ffd5b6064856040519062461bcd60e51b825280600483015260248201527f496e76616c696420636f6e74726f6c20616c6c6f77206c697374206c6576656c6044820152fd5b5f80fd5b81810183015186820184015287920162000089565b6040519190601f01601f191682016001600160401b03811183821017620002445760405256fe60406080815260048036101561004b575b50361561001b575f80fd5b807f9936746a4565f9766fa768f88f56a7487c78780ac179562773d1c75c5269537e9151338152346020820152a1005b5f90813560e01c90816328cafd721461178557816331b3203a1461146e57816342c8afad146110e9578163431d8ffe14610e8c578163439e2e4514610ed557816344eb5e0014610e8c5781634743c2fd14610e5f57816347e7ef2414610cac57816352226ef014610c8e578163526966011461067e5781635e7db13d14610ad957816369328dec146106c75781638e543a121461067e578163a1d34a4214610515578163a7efe34814610321578163b2567d1f146101ed57508063c7ea4d44146101c7578063dce83ae31461017e578063de287359146101565763e9ea28de0361001057903461015257816003193601126101525760209060ff6003541690519015158152f35b5080fd5b50903461015257816003193601126101525790548151911c6001600160a01b03168152602090f35b5090346101525780600319360112610152578060209261019c61193d565b6101a4611957565b6001600160a01b0391821683526006865283832091168252845220549051908152f35b5090346101525781600319360112610152576001600160401b0360209254169051908152f35b9050823461031d576020908160031936011261031957823591821515809303610315578454936001600160401b0394610227868216611a89565b879691851c6001600160a01b03169190875b815181101561030457610283868461025184866119ed565b518a51636bf8e80f60e01b815291166001600160401b0316888201908152336020820152909283918291604090910190565b0381885afa9081156102fa578b916102cd575b506102a9576102a4906119aa565b610239565b5050505050505090506102bc6001611a4e565b60ff80196003541691161760035580f35b6102ed9150873d89116102f3575b6102e58183611a01565b810190611a36565b8b610296565b503d6102db565b88513d8d823e3d90fd5b50505050505050906102bc90611a4e565b8480fd5b8380fd5b8280fd5b9050823461031d57602091826003193601126103195761033f61193d565b918454936001600160401b0394610357868216611a89565b87966001600160a01b0392851c831691885b8151811015610503576103b386898561038285876119ed565b518b51636bf8e80f60e01b815291166001600160401b03169181019182523360208301529283918291604090910190565b0381885afa9081156104f9578c916104dc575b506103d9576103d4906119aa565b610369565b505050509091929394506103ed6001611a4e565b825163248a35ef60e11b81523085820152941660248501819052938181604481896101675af19182156104d257906016929187926104a5575b505060070b036104595750507fbbbf805ef99ca7d0b7d2cc769719f2a281c9b3331a3642efa75a712e3094a1668280a280f35b5162461bcd60e51b8152915081906104a19082016060906020815260196020820152782330b4b632b2103a379030b9b9b7b1b4b0ba32903a37b5b2b760391b60408201520190565b0390fd5b6104c49250803d106104cb575b6104bc8183611a01565b810190611b63565b8680610426565b503d6104b2565b83513d88823e3d90fd5b6104f39150873d89116102f3576102e58183611a01565b8c6103c6565b88513d8e823e3d90fd5b5050505090919293946103ed90611a4e565b8391503461031d5760209182600319360112610319578135916001600160401b039384841680940361067a5785549261054f868516611a89565b879685831c6001600160a01b031691885b8151811015610668576105aa868461057884866119ed565b518851636bf8e80f60e01b815291166001600160401b03168a8201908152336020820152909283918291604090910190565b0381885afa90811561065e578c91610641575b506105d0576105cb906119aa565b610560565b505050509091929394506105e46001611a4e565b600685116106005750505067ffffffffffffffff191617815580f35b5162461bcd60e51b815291820181905260248201527f496e76616c696420636f6e74726f6c20616c6c6f77206c697374206c6576656c604482015260649150fd5b6106589150873d89116102f3576102e58183611a01565b8c6105bd565b86513d8e823e3d90fd5b5050505090919293946105e490611a4e565b8580fd5b8284346101525780600319360112610152578060209261069c61193d565b6106a4611957565b6001600160a01b0391821683526005865283832091168252845220549051908152f35b8391503461031d57606036600319011261031d576106e361193d565b6001600160a01b0390604435828116919060243590839003610ad5578654956001600160401b0395610716878916611a89565b8998831c871690895b8151811015610ac2578b8a61073483856119ed565b518751636bf8e80f60e01b815291166001600160401b031686820190815233602080830191909152908190839081906040010381895afa928315610ab75792610a9a575b505061078c57610787906119aa565b61071f565b50505090919293949596506107a16001611a4e565b6107a9611b7c565b87546107b6888216611a89565b978998888b93861c16925b8151811015610a87578b836107d683856119ed565b518851636bf8e80f60e01b815291166001600160401b0316878201908152336020808301919091529081908390819060400103818a5afa928315610a7c5792610a5f575b505061082e57610829906119aa565b6107c1565b50505050909192939495506108436001611a4e565b61084b611b7c565b815163e1f21c6760e01b81526001600160a01b038516828201908152306020828101919091526040820186905291979195908890606001039786816101679a818d8d5af1908115610a5557906016918b91610a38575b5060070b036109f2576108b381611bac565b851161099e5788916084879286519485938492630aed65f560e11b8452169b8c888401523060248401528b60448401528960648401525af190811561099457906016918991610977575b5060070b036109365750519081527f645e52ee0ce5c05d60f4b051028f29630be7001f5d84cba67fe6872db872cff89190a36001805580f35b83606492519162461bcd60e51b8352820152601960248201527f4661696c656420746f207472616e7366657220617373657473000000000000006044820152fd5b61098e9150863d88116104cb576104bc8183611a01565b896108fd565b83513d8a823e3d90fd5b835162461bcd60e51b8152808401879052602860248201527f696e73756666696369656e742061737365747320746f20636f6d706c657465206044820152673a3930b739b332b960c11b6064820152608490fd5b835162461bcd60e51b8152806104a18186016060906020815260196020820152782330b4b632b2103a379030b9b9b7b1b4b0ba32903a37b5b2b760391b60408201520190565b610a4f9150883d8a116104cb576104bc8183611a01565b8b6108a1565b85513d8c823e3d90fd5b610a759250803d106102f3576102e58183611a01565b8d8061081a565b8951903d90823e3d90fd5b5050505090919293949561084390611a4e565b610ab09250803d106102f3576102e58183611a01565b8d80610778565b8851903d90823e3d90fd5b505050909192939495966107a190611a4e565b8680fd5b838334610c8b5781600319360112610c8b57610af361193d565b916024359082546001600160401b0394610b0e868316611a89565b949586956001600160a01b0393851c84169190875b8151811015610c79578a83610b3883856119ed565b518951636bf8e80f60e01b815291166001600160401b031691810191825233602080840191909152918290829081906040010381895afa918215610c6f57908d9695949392918c92610c52575b5050610b9e57610b94906119aa565b9091929350610b23565b5050505050909192939450610bb36001611a4e565b1691828452846020528184205494858211610c0f57610bf5827faa3cec92d25e6e7cf3bf119de96782be90a19b7f9d717dc51e03d3f8f8aa22b1959697611b9f565b90858752602052808387205582519182526020820152a280f35b606490602084519162461bcd60e51b8352820152601e60248201527f43616e6e6f7420756e6c6f636b206d6f7265207468616e206c6f636b656400006044820152fd5b610c689250803d106102f3576102e58183611a01565b8d80610b85565b89513d8d823e3d90fd5b505050509091929394610bb390611a4e565b80fd5b8284346101525780600319360112610152578060209261019c61193d565b9050828060031936011261031d57610cc261193d565b815163e1f21c6760e01b81526001600160a01b03821684820190815233602082810191909152602435604083018190529094939092909181906060010390858161016793818b865af1908115610e5557906016918991610e38575b5060070b03610df557835163eca3691760e01b81526001600160a01b03909216868301523360248301523060448301526001600160401b0390921660070b60648201529083908290608490829089905af1908115610deb57906016918691610dce575b5060070b03610d8d578380f35b5162461bcd60e51b815291820152601860248201527f4661696c656420746f207472616e7366657220746f6b656e0000000000000000604482015260649150fd5b610de59150843d86116104cb576104bc8183611a01565b86610d80565b82513d87823e3d90fd5b835162461bcd60e51b8152808701869052601760248201527f4661696c656420746f20617070726f766520746f6b656e0000000000000000006044820152606490fd5b610e4f9150873d89116104cb576104bc8183611a01565b89610d1d565b85513d8a823e3d90fd5b82843461015257602036600319011261015257602090610e85610e8061193d565b611bac565b9051908152f35b82843461015257806003193601126101525780602092610eaa61193d565b610eb2611957565b6001600160a01b0391821683526007865283832091168252845220549051908152f35b9050823461031d57606036600319011261031d57610ef161193d565b90610efa611957565b6044358554926001600160401b0395610f14878616611a89565b88976001600160a01b0396841c871691895b81518110156110d6578b83610f3b83856119ed565b518851636bf8e80f60e01b815291166001600160401b0316878201908152336020808301919091529081908390819060400103818a5afa928315610a7c57926110b9575b5050610f9357610f8e906119aa565b610f26565b5050505090919293949550610fa86001611a4e565b610fb0611b7c565b815163e1f21c6760e01b81526001600160a01b0385168282019081523060208281019190915260408201869052919691959087906060010396868161016799818d8c5af1908115610a5557906016918b9161109c575b5060070b036109f25761101881611bac565b851161099e5781608487928b87519586948593630aed65f560e11b8552169c8d89850152306024850152169a8b60448401528960648401525af190811561099457906016918991610977575060070b036109365750519081527f645e52ee0ce5c05d60f4b051028f29630be7001f5d84cba67fe6872db872cff89190a36001805580f35b6110b39150883d8a116104cb576104bc8183611a01565b8b611006565b6110cf9250803d106102f3576102e58183611a01565b8d80610f7f565b50505050909192939495610fa890611a4e565b8391503461031d576110fa3661196d565b92939591908754936001600160401b0396611116888716611a89565b8a996001600160a01b0397909190871c8816908b5b8151811015611458578d8c61114083856119ed565b518b51636bf8e80f60e01b815291166001600160401b031687820190815233602080830191909152908190839081906040010381895afa92831561144d5792611430575b505061119857611193906119aa565b61112b565b50505086979899506111b1600197929394959697611a4e565b1695868a526020926005845281878c20991698898c52845285878c2054106113f957878b5260058452868b20898c528452868b206111f0878254611b9f565b9055878b5260068452868b20898c528452868b2061120f868254611b9f565b9055878b5260058452868b20898c528452868b20546113e05750868a5260078352858a20888b5283528986812055975b89549061124d818316611a89565b8b9a8c93891c16925b81518110156113cc578c6112a1878561126f85876119ed565b518d51636bf8e80f60e01b815291166001600160401b0316898201908152336020820152909283918291604090910190565b0381895afa9182156113c157916113a4575b506112c6576112c1906119aa565b611256565b5050505090919293949596506112dc6001611a4e565b86885280825284882054808411611362577faa3cec92d25e6e7cf3bf119de96782be90a19b7f9d717dc51e03d3f8f8aa22b1868594936113407fa6f6d5e50bc84f153a0d6a9f9b37780433f92dc32d7e10f975ab3831c36898fa9998978c95611b9f565b90848d52855280828d205581519086825285820152a28351928352820152a380f35b5060649185519162461bcd60e51b8352820152601e60248201527f43616e6e6f7420756e6c6f636b206d6f7265207468616e206c6f636b656400006044820152fd5b6113bb9150873d89116102f3576102e58183611a01565b8e6112b3565b8b51903d90823e3d90fd5b50505050909192939495966112dc90611a4e565b878b5260078452868b20898c528452868b20559761123f565b865162461bcd60e51b815280840185905260116024820152704e6f206c6f616e7320746f20726570617960781b6044820152606490fd5b6114469250803d106102f3576102e58183611a01565b8f80611184565b8c51903d90823e3d90fd5b5050506111b18798999a97929394959697611a4e565b9050823461031d5761147f3661196d565b90939592948754946001600160401b039661149b888816611a89565b8a996001600160a01b0398909190851c8916908b5b8151811015611770578d8c6114c583856119ed565b518951636bf8e80f60e01b815291166001600160401b03168c820190815233602080830191909152908190839081906040010381895afa9283156117655792611748575b505061151d57611518906119aa565b6114b0565b50505087989950611539600198929394959697989a999a611a4e565b1695868a52602091600583528a858120998b83169a8b835285528682206115618a8254611c45565b9055898252600685528682208b83528552868220611580878254611c45565b9055898252600785528682208b83528552878783205581546115a3828216611a89565b90839d84918a1c16935b825182101561172f576115f788856115c585876119ed565b518d51636bf8e80f60e01b815291166001600160401b03168a8201908152336020820152909283918291604090910190565b0381895afa9182156113c15791611712575b5061161d57611617906119aa565b8e6115ad565b5050505061163891929394959697989950610e806001611a4e565b83116116c357917f7695c943e86fe119073b098f1b278727c236f4a661c96a660dacbf88f89c606795939160609593898b52808252838b2061167b848254611c45565b9055898b528152887fb8cecfd0e38e35fdd1cbaa8877116ea7f0dc948c1317b8ce1a47eaedfe64154684808d205481519086825285820152a28251948552840152820152a380f35b60849184519162461bcd60e51b8352820152602560248201527f496e73756666696369656e7420756e6c6f636b65642062616c616e636520746f604482015264206c6f636b60d81b6064820152fd5b6117299150883d8a116102f3576102e58183611a01565b5f611609565b5050505050610e8061163892939495969798999a611a4e565b61175e9250803d106102f3576102e58183611a01565b8f80611509565b8a51903d90823e3d90fd5b505050611539889a9892939495969798611a4e565b8391503461031d578160031936011261031d576117a061193d565b9160243584546001600160401b03946117ba868316611a89565b87966001600160a01b0393861c841691885b815181101561192b5788836117e183856119ed565b518a51636bf8e80f60e01b815291166001600160401b031691810191825233602080840191909152918290829081906040010381895afa918215611921578d92611904575b505061183a57611835906119aa565b6117cc565b5050505090919293945061184e6001611a4e565b61185781611bac565b83116118b357907fb8cecfd0e38e35fdd1cbaa8877116ea7f0dc948c1317b8ce1a47eaedfe641546939291169384865280602052828620611899838254611c45565b90558486526020528185205482519182526020820152a280f35b835162461bcd60e51b8152602081870152602560248201527f496e73756666696369656e7420756e6c6f636b65642062616c616e636520746f604482015264206c6f636b60d81b6064820152608490fd5b61191a9250803d106102f3576102e58183611a01565b8c80611826565b8a513d8f823e3d90fd5b50505050909192939461184e90611a4e565b600435906001600160a01b038216820361195357565b5f80fd5b602435906001600160a01b038216820361195357565b60a0906003190112611953576001600160a01b03906004358281168103611953579160243590811681036119535790604435906064359060843590565b5f1981146119b85760010190565b634e487b7160e01b5f52601160045260245ffd5b8051156119d95760200190565b634e487b7160e01b5f52603260045260245ffd5b80518210156119d95760209160051b010190565b90601f801991011681019081106001600160401b03821117611a2257604052565b634e487b7160e01b5f52604160045260245ffd5b90816020910312611953575180151581036119535790565b15611a5557565b60405162461bcd60e51b815260206004820152600c60248201526b155b985d5d1a1bdc9a5e995960a21b6044820152606490fd5b6001600160401b03908116611ac85760405190604082019082821090821117611a225760405260018152602036818301375f611ac4826119cc565b5290565b6040519060e0820190811182821017611a22576040526006815260c03660208301375f80611af5836119cc565b52815160011015611b4f5760016040830152815160021015611b4f5760026060830152815160031015611b4f5760036080830152815160041015611b4f57600560a0830152815160051015611b4f5750600660c082015290565b634e487b7160e01b81526032600452602490fd5b9081602091031261195357518060070b81036119535790565b600260015414611b8d576002600155565b604051633ee5aeb560e01b8152600490fd5b919082039182116119b857565b60018060a01b03165f90808252600460205260246020604084205492604051928380926370a0823160e01b82523060048301525afa908115611c3a578391611c09575b50808211611c0457611c019250611b9f565b90565b505090565b90506020813d8211611c32575b81611c2360209383611a01565b8101031261031d57515f611bef565b3d9150611c16565b6040513d85823e3d90fd5b919082018092116119b85756fea2646970667358221220ab6aabcc218526f4a6cb9549428b81cc2cbab47d4c13c0421652b3cdefa7422164736f6c634300081400336080806040526200254a80380380916200001a828562000857565b83398101608082820312620006fb5781516001600160401b038111620006fb578162000048918401620008ba565b602083015190916001600160401b038211620006fb576200006b918401620008ba565b604083015190926001600160a01b0382168203620006fb57606001516001600160401b03811690819003620006fb57600160208181525f805160206200246a8339815191529190915560025f805160206200248a8339815191525560045f805160206200250a8339815191525560085f80516020620024ca8339815191525560105f80516020620024aa833981519152555f805160206200252a8339815191525560065f81905260405f80516020620024ea833981519152558111620007f757600280546001600160e01b03191691909117604092831b600160401b600160e01b0316179055519161012083016001600160401b03811184821017620007e35760405260608352606060208401525f60408401526060808401525f60808401525f60a08401525f60c0840152606060e0840152620001a862000907565b91610100928385015283526020830152306040830152620001c862000907565b30602082015262786450604082015281830152604051808281011060018060401b038383011117620007e357818101604052600781525f5b60e08110620007c957506200021462000972565b505f805260016020525f805160206200246a833981519152546200023762000936565b306020820152604051916200024c836200083b565b825260208201526200025e8262000996565b526200026a8162000996565b506200027562000972565b5060015f8190526020525f805160206200248a833981519152546200029962000936565b30602082015260405191620002ae836200083b565b82526020820152620002c082620009b8565b52620002cc81620009b8565b50620002d762000972565b5060025f5260016020525f805160206200250a83398151915254620002fb62000936565b3060208201526040519162000310836200083b565b825260208201526200032282620009c9565b526200032e81620009c9565b506200033962000972565b5060035f5260016020525f80516020620024ca833981519152546200035d62000936565b3060208201526040519162000372836200083b565b825260208201526200038482620009da565b526200039081620009da565b506200039b62000972565b5060045f5260016020525f80516020620024aa83398151915254620003bf62000936565b30602082015260405191620003d4836200083b565b82526020820152620003e682620009eb565b52620003f281620009eb565b50620003fd62000972565b5060055f5260016020525f805160206200252a833981519152546200042162000936565b3060208201526040519162000436836200083b565b825260208201526200044882620009fc565b526200045481620009fc565b506200045f62000972565b5060065f5260016020525f80516020620024ea833981519152546200048362000936565b3060208201526040519162000498836200083b565b82526020820152620004aa8262000a0d565b52620004b68162000a0d565b5060e083015280820151805160070b1580620007b9575b620007a9575b5060405190630fb65bf360e01b6020830152606060248301526200054f620005256200050e855161016060848701526101e486019062000a1e565b60208601518582036083190160a487015262000a1e565b60408501516001600160a01b031660c485015260608501518482036083190160e486015262000a1e565b926080810151151561010484015260a081015160070b61012484015260c0810151151561014484015260e08101519360831984820301610164850152845180825260208201916020808360051b8301019701925f915b83831062000714575f808962000601818d60408d8d0151805160070b61018485015260018060a01b036020820151166101a4850152015160070b6101c48301528460448301526008606483015203601f19810183528262000857565b602081519101346101675af13d156200070b573d9062000621826200087b565b9162000631604051938462000857565b82523d5f602084013e5b15620006ff57604081805181010312620006fb576020810151908160030b809203620006fb57604001516001600160a01b0381169190829003620006fb576016905b60030b03620006b657600380546001600160a01b0319166001600160a01b0392909216919091179055604051611a24908162000a468239f35b60405162461bcd60e51b815260206004820152601660248201527f4661696c656420746f2063726561746520746f6b656e000000000000000000006044820152606490fd5b5f80fd5b505f601660156200067d565b6060906200063b565b9091929397602080600192601f19858203018652818c5180518352015190604083820152815115156040820152848060a01b038383015116606082015260c06200078962000772604085015160a0608086015260e085019062000a1e565b6060850151848203603f190160a086015262000a1e565b926080878060a01b03910151169101529a019301930191939290620005a5565b60406276a7009101525f620004d3565b50604081015160070b15620004cd565b602090620007d662000972565b8282850101520162000200565b634e487b7160e01b5f52604160045260245ffd5b606460405162461bcd60e51b815260206004820152602060248201527f496e76616c696420636f6e74726f6c20616c6c6f77206c697374206c6576656c6044820152fd5b604081019081106001600160401b03821117620007e357604052565b601f909101601f19168101906001600160401b03821190821017620007e357604052565b6001600160401b038111620007e357601f01601f191660200190565b5f5b838110620008a95750505f910152565b818101518382015260200162000899565b81601f82011215620006fb578051620008d3816200087b565b92620008e3604051948562000857565b81845260208284010111620006fb5762000904916020808501910162000897565b90565b60405190606082016001600160401b03811183821017620007e3576040525f6040838281528260208201520152565b6040519060a082016001600160401b03811183821017620007e3576040525f608083828152826020820152606060408201526060808201520152565b6040519062000981826200083b565b815f815260206200099162000936565b910152565b805115620009a45760200190565b634e487b7160e01b5f52603260045260245ffd5b805160011015620009a45760400190565b805160021015620009a45760600190565b805160031015620009a45760800190565b805160041015620009a45760a00190565b805160051015620009a45760c00190565b805160061015620009a45760e00190565b9060209162000a398151809281855285808601910162000897565b601f01601f191601019056fe6080604081815260049182361015610015575f80fd5b5f9283803560e01c92836315dacbea14611510575050816331d6ebdf14611324578163618dc65e146111df5781637276ecca14610fc05781637349da0a146109835781639b23d3d9146108cd5781639dbead42146106ca578163a1d34a421461054e578163bef4981314610421578163c7ea4d44146103f9578163de287359146103d0578163fb9d09c8146100de575063fc0c546a146100b3575f80fd5b346100da57816003193601126100da5760035490516001600160a01b039091168152602090f35b5080fd5b9050346103cc576020806003193601126103c8576100fa6115d9565b92600254936001600160401b03906101138287166117a6565b87966001600160a01b039190851c821690885b81518110156103b657610170888a8861013f8587611733565b518b51636bf8e80f60e01b815291166001600160401b03169181019182523360208301529283918291604090910190565b0381875afa9081156103ac578c91610373575b5061019657610191906116f0565b610126565b505050909192939495506101ae600190889291611754565b60035416918451926101bf8461161e565b828452855190858883019363707a02cd60e11b8552608484019260248501521660070b604483015260606064830152845180915260a48201908860a48260051b85010196019185905b8a83831061034157505050505061022981849503601f198101835282611639565b5190826101675af19061023a6116b3565b91156103295781518201906060838684019303126103255761025d8584016116e2565b92610269858201611880565b506060810151918211610321570181603f8201121561032557848101519084866102928461178f565b61029e83519182611639565b848152019260051b8201019283116103215784869101915b83831061030957505050506016905b60030b036102d1578380f35b5162461bcd60e51b815291820152601460248201527311985a5b1959081d1bc81b5a5b9d08185cdcd95d60621b604482015260649150fd5b819061031484611880565b81520191019085906102b6565b8780fd5b8680fd5b50508381516103378161161e565b52601660156102c5565b80919395975061036060019395979960a3198a82030186528851611675565b9601920192018b95939192969496610208565b90508881813d83116103a5575b61038a8183611639565b810103126103a15761039b90611747565b5f610183565b8b80fd5b503d610380565b88513d8e823e3d90fd5b5050506101ae88929394959697611754565b8380fd5b8280fd5b5050346100da57816003193601126100da576002548151911c6001600160a01b03168152602090f35b5050346100da57816003193601126100da576020906001600160401b03600254169051908152f35b919050346103cc57602090816003193601126103c85761043f611568565b91600254936001600160401b03946104588682166117a6565b879691851c6001600160a01b03169190875b815181101561053b576104b486846104828486611733565b518a51636bf8e80f60e01b815291166001600160401b0316888201908152336020820152909283918291604090910190565b0381885afa908115610531578b916104f8575b506104da576104d5906116f0565b61046a565b505050505050506104f591506104f06001611754565b61188e565b80f35b90508681813d831161052a575b61050f8183611639565b810103126105265761052090611747565b5f6104c7565b8a80fd5b503d610505565b88513d8d823e3d90fd5b505050505050506104f06104f592611754565b919050346103cc576020806003193601126103c85761056b6115d9565b92600254916001600160401b036105838185166117a6565b87969085871c6001600160a01b031690885b81518110156106b8576105df86866105ad8486611733565b518c51636bf8e80f60e01b815291166001600160401b03168a8201908152336020820152909283918291604090910190565b0381875afa9081156106ae578c91610679575b5061060557610600906116f0565b610595565b505050909192939495506106196001611754565b1693600685116106385750505067ffffffffffffffff19161760025580f35b5162461bcd60e51b815291820181905260248201527f496e76616c696420636f6e74726f6c20616c6c6f77206c697374206c6576656c604482015260649150fd5b90508681813d83116106a7575b6106908183611639565b810103126103a1576106a190611747565b5f6105f2565b503d610686565b8a513d8e823e3d90fd5b50505090919293949561061990611754565b9050346103cc576020806003193601126103c8576106e66115d9565b92600254936001600160401b03906106ff8287166117a6565b87966001600160a01b039190851c821690885b81518110156108bb5761072b888a8861013f8587611733565b0381875afa9081156103ac578c91610886575b506107515761074c906116f0565b610712565b50969750949550929350918691906107696001611754565b600354168451936107798561161e565b83855285519187830193636b48868360e11b85526084840191602485015260079216820b60448401526060606484015285518091528760a4840196019185905b898383106108695750505050506107da81849503601f198101835282611639565b5190826101675af16107ea6116b3565b901561085f57818180518101031261085b57806108158361080e86601695016116e2565b9201611880565b505b60030b03610823578380f35b5162461bcd60e51b815291820152601460248201527311985a5b1959081d1bc8189d5c9b88185cdcd95d60621b604482015260649150fd5b8480fd5b5060166015610817565b8451820b8952978801978c975090930192600191909101906107b9565b90508881813d83116108b4575b61089d8183611639565b810103126103a1576108ae90611747565b5f61073e565b503d610893565b50505061076988939294959697611754565b5050346100da5781806109366109286108e536611582565b8851639b23d3d960e01b602082019081526001600160a01b03958616602483015293851660448201529390911660648401526084830152929091829060a4820190565b03601f198101835282611639565b5190826101675af1916109476116b3565b921561097657602083805181010312610973575061096860208093016116e2565b905b519060030b8152f35b80fd5b506020915060159061096a565b8284346109735781600319360112610973579061099e611568565b926109a76115c3565b90600254936001600160401b0391828616956109c2876117a6565b958397849760018060a01b038094841c16985b8151811015610fab5785886109ea8385611733565b518651636bf8e80f60e01b815291166001600160401b03169181019182523360208084019190915291829082908e908290819060400103915afa918215610f59578992610f75575b5050610a4657610a41906116f0565b6109d5565b5050610a63919293949596979850610a5e6001611754565b6117a6565b968497855b8151811015610f6357610ab488610a7f8385611733565b518651636bf8e80f60e01b815291166001600160401b0316888201908152336020808301919091529283918391829160400190565b0381885afa918215610f59578992610f23575b5050610adb57610ad6906116f0565b610a68565b50505090919293949550610aef6001611754565b848260035416961660070b95815192610b078461161e565b8584528251866020958683019463707a02cd60e11b8652608484019060248501528b604485015260606064850152815180915260a48401908860a48260051b87010193019184905b8a838310610ef657505050505091610b7181839403601f198101835282611639565b516101679482865af1610b826116b3565b9015610edf578051810160608287830192031261032157610ba48683016116e2565b91610bb0868201611880565b506060810151908a8211610ed7570181603f82011215610edb5786810151908688610bda8461178f565b610be683519182611639565b848152019260051b820101928311610ed75786889101915b838310610ebf57505050506016905b60030b03610e855760025497610c24888a166117a6565b988799838992871c16915b8151811015610e7157610c48888a8d61013f8587611733565b0381875afa908115610531578b91610e3c575b50610c6e57610c69906116f0565b610c2f565b505050909192939495969750610c846001611754565b610c8d8961188e565b600254610c9b8982166117a6565b988899848a93881c16925b8151811015610e2657610cf0898b85610cbf8587611733565b518c51636bf8e80f60e01b815291166001600160401b03169181019182523360208301529283918291604090910190565b0381885afa908115610e1c578c91610de7575b50610d1657610d11906116f0565b610ca6565b505050508698879597949698508491610d2f6001611754565b8360035416938851928a84019563eca3691760e01b87526024850152306044850152166064830152608482015260848152610d69816115ef565b51925af1610d756116b3565b9015610ddd57828180518101031261085b57610d9483601692016116e2565b60030b03610da0578380f35b5162461bcd60e51b81529182015260196024820152784661696c656420746f207472616e7366657220746f6b656e7360381b604482015260649150fd5b5060166015610d94565b90508981813d8311610e15575b610dfe8183611639565b810103126103a157610e0f90611747565b8e610d03565b503d610df4565b89513d8e823e3d90fd5b50505050958098819597610d2f8396989a611754565b90508881813d8311610e6a575b610e538183611639565b8101031261052657610e6490611747565b8e610c5b565b503d610e49565b5050509091929394959697610c8490611754565b50505162461bcd60e51b815291820152601460248201527311985a5b1959081d1bc81b5a5b9d08185cdcd95d60621b604482015260649150fd5b8190610eca84611880565b8152019101908790610bfe565b8980fd5b8880fd5b50858351610eec8161161e565b5260166015610c0d565b600192949650610f138192949660a3198a82030186528851611675565b9601920192018b94939192610b4f565b90809250813d8311610f52575b610f3a8183611639565b8101031261032157610f4b90611747565b8c80610ac7565b503d610f30565b86513d8b823e3d90fd5b505050909192939495610aef90611754565b90809250813d8311610fa4575b610f8c8183611639565b8101031261032157610f9d90611747565b8d80610a32565b503d610f82565b5050610a5e610a639293949596979899611754565b9050346103cc57816003193601126103cc57610fda6115d9565b6001600160a01b039290602435848116908190036111db57600254946001600160401b039061100a8288166117a6565b8897861c821690885b81518110156111ca5788856110288385611733565b518a51636bf8e80f60e01b815291166001600160401b031691810191825233602080840191909152918290829081906040010381885afa9182156111c0578d9261118a575b50506110815761107c906116f0565b611013565b505050819293949596506110956001611754565b6003541693855193602085019563efef57f960e01b8752602486015260448501521660070b60648301526064825260a082019082821090821117611177578352518491829190826101675af16110e96116b3565b901561116d576020818051810103126103c85761110a6020601692016116e2565b60030b03611116578280f35b906020608492519162461bcd60e51b8352820152602b60248201527f4661696c656420746f20776970652061737365742066726f6d2074686520757360448201526a195c9cc81858d8dbdd5b9d60aa1b6064820152fd5b506016601561110a565b634e487b7160e01b865260418552602486fd5b90809250813d83116111b9575b6111a18183611639565b810103126103a1576111b290611747565b5f8061106d565b503d611197565b8a513d8f823e3d90fd5b505050611095829394959697611754565b8580fd5b839150346100da57826003193601126100da576111fa611568565b90602435906001600160401b0382116103c857366023830112156103c8578101356112248161165a565b9161123186519384611639565b818352366024838301011161085b576112918594929385602086829760246109289701838601378301015287516330c6e32f60e11b602082019081526001600160a01b039095166024820152604481018990529283916064830190611675565b5190826101675af1906112a26116b3565b917f4af4780e06fe8cb9df64b0794fa6f01399af979175bb988e35e0e57e594567bc84518215158152856020820152806112de87820187611675565b0390a11561130a57506113066016915b835193849360030b8452806020850152830190611675565b0390f35b825191506113178261161e565b81526113066015916112ee565b9050823461097357826003193601126109735761133f611568565b916113486115c3565b936002546001600160401b03946113608683166117a6565b949586956001600160a01b0393851c841690875b81518110156114fd5787846113898385611733565b518951636bf8e80f60e01b815291166001600160401b031691810191825233602080840191909152918290829081906040010381885afa9182156114f3578b926114bd575b50506113e2576113dd906116f0565b611374565b5050508597869597506113f86001979597611754565b836003541693875193602085019563eca3691760e01b875260248601523060448601521660648401521660070b608482015260848152611437816115ef565b5190826101675af16114476116b3565b90156114b3576020818051810103126103c8576114686020601692016116e2565b60030b03611474578280f35b906020606492519162461bcd60e51b835282015260196024820152784661696c656420746f207472616e7366657220746f6b656e7360381b6044820152fd5b5060166015611468565b90809250813d83116114ec575b6114d48183611639565b81010312610ed7576114e590611747565b8c806113ce565b503d6114ca565b89513d8d823e3d90fd5b50505085976113f8879698979597611754565b818591346100da5761092881610936849361152a36611582565b630aed65f560e11b602086019081526001600160a01b03948516602487015292841660448601529216606484015260848301919091529360a4820190565b600435906001600160a01b038216820361157e57565b5f80fd5b608090600319011261157e576001600160a01b03600435818116810361157e5791602435828116810361157e5791604435908116810361157e579060643590565b602435906001600160401b038216820361157e57565b600435906001600160401b038216820361157e57565b60c081019081106001600160401b0382111761160a57604052565b634e487b7160e01b5f52604160045260245ffd5b602081019081106001600160401b0382111761160a57604052565b90601f801991011681019081106001600160401b0382111761160a57604052565b6001600160401b03811161160a57601f01601f191660200190565b91908251928382525f5b84811061169f575050825f602080949584010152601f8019910116010190565b60208183018101518483018201520161167f565b3d156116dd573d906116c48261165a565b916116d26040519384611639565b82523d5f602084013e565b606090565b51908160030b820361157e57565b5f1981146116fe5760010190565b634e487b7160e01b5f52601160045260245ffd5b80511561171f5760200190565b634e487b7160e01b5f52603260045260245ffd5b805182101561171f5760209160051b010190565b5190811515820361157e57565b1561175b57565b60405162461bcd60e51b815260206004820152600c60248201526b155b985d5d1a1bdc9a5e995960a21b6044820152606490fd5b6001600160401b03811161160a5760051b60200190565b6001600160401b039081166117e5576040519060408201908282109082111761160a5760405260018152602036818301375f6117e182611712565b5290565b6040519060e082019081118282101761160a576040526006815260c03660208301375f8061181283611712565b5281516001101561186c576001604083015281516002101561186c576002606083015281516003101561186c576003608083015281516004101561186c57600560a083015281516005101561186c5750600660c082015290565b634e487b7160e01b81526032600452602490fd5b51908160070b820361157e57565b600354604051633cb0c7fd60e21b60208083019182526001600160a01b039384166024840152848416604480850191909152835293919291601f1991906118d6606486611639565b5f808096516101679482865af16118eb6116b3565b90156119e7576040818051810103126111db5760408161190f8961191694016116e2565b5001611747565b6119df57600354604051638f8d7f9960e01b8882019081526001600160a01b0396909216861660248201529190941660448201526064928301815284938493909184916119639082611639565b51925af1906119706116b3565b91156119d4578282805181010312610973575061199082601692016116e2565b60030b0361199b5750565b6064906040519062461bcd60e51b8252600482015260126024820152714661696c6520746f206772616e74204b594360701b6044820152fd5b505060166015611990565b505050505050565b508461191656fea2646970667358221220eaf573e2800e9922527480da68f67a89c2fb14906a02b17684f32a9171a9075e64736f6c63430008140033a6eef7e35abe7026729641147f7915573c7e97b47efa546f5f6e3230263bcb49cc69885fda6bcc1a4ace058b4a62bf5e179ea78fd58a1ccd71c22cc9b688792fedc95719e9a3b28dd8e80877cb5880a9be7de1a13fc8b05e7999683b6b5676437dfe757ecd65cbd7922a9c0161e935dd7fdbcc0e999689c7d31633896b1fc60b8f331abe73332f95a25873e8b430885974c0409691f89d643119a11623a7924ad9d16d34ffb15ba3a3d852f0d403e2ce1d691fb54de27ac87cd2f993f3ec330fe2689cd4a84e23ad2f564004f1c9013e9589d260bde6380aba3ca7e09e4df40ca26469706673582212203c3d756b419af5ffbb404c736360fdfe9822d8ccb36304c2c059abeb60bf361364736f6c63430008140033","linkReferences":{}},"methodIdentifiers":{"createPool(uint64,uint64,uint64,uint64,uint64,uint64,uint64,uint64,address,string,string,string)":"0da1d91c","getPool(string)":"41d7b026","pools(string)":"9d6f17a8"},"id":17}