{"abi":[{"type":"constructor","inputs":[{"name":"_aclContract","type":"address","internalType":"address"}],"stateMutability":"nonpayable"},{"type":"function","name":"createPool","inputs":[{"name":"ltv","type":"uint64","internalType":"uint64"},{"name":"optimalUtilization","type":"uint64","internalType":"uint64"},{"name":"baseRate","type":"uint64","internalType":"uint64"},{"name":"slope1","type":"uint64","internalType":"uint64"},{"name":"slope2","type":"uint64","internalType":"uint64"},{"name":"liquidationThreshold","type":"uint64","internalType":"uint64"},{"name":"liquidationDiscount","type":"uint64","internalType":"uint64"},{"name":"reserveFactor","type":"uint64","internalType":"uint64"},{"name":"lending","type":"address","internalType":"address"},{"name":"yieldContract","type":"address","internalType":"address"},{"name":"lendingPool","type":"string","internalType":"string"}],"outputs":[{"name":"","type":"address","internalType":"address"}],"stateMutability":"nonpayable"},{"type":"function","name":"getPool","inputs":[{"name":"name","type":"string","internalType":"string"}],"outputs":[{"name":"","type":"address","internalType":"address"}],"stateMutability":"view"},{"type":"function","name":"pools","inputs":[{"name":"","type":"string","internalType":"string"}],"outputs":[{"name":"","type":"address","internalType":"address"}],"stateMutability":"view"}],"bytecode":{"object":"0x60803461007a57601f61540b38819003918201601f19168301916001600160401b0383118484101761007e5780849260209460405283398101031261007a57516001600160a01b0381169081900361007a5760018060a01b031933816001541617600155600254161760025560405161537890816100938239f35b5f80fd5b634e487b7160e01b5f52604160045260245ffdfe604060e0815260049081361015610014575f80fd5b5f91823560e01c806341d7b0261461031d578063612d659e146100ab57639d6f17a81461003f575f80fd5b346100a75760203660031901126100a757803567ffffffffffffffff81116100a357602093916100719136910161034c565b83610084845192838151938492016103c6565b810191825290819003830190205490516001600160a01b039091168152f35b8380fd5b8280fd5b5090346100a7576101603660031901126100a757813567ffffffffffffffff60a05260a05181168091036100a3576024359260a05184168094036103195760443560a05181168091036103155760643560a05181168091036103115760843560a051811680910361030d5760a43560a05181168091036103095760c4359060a05182168092036103055760e4359260a0518416809403610301576001600160a01b0360c08190526101043590811695908690036102fd57610124359660c05188168098036102f9576101443560a05181116102f55761018d9036908b0161034c565b9b60c0516001541633036102c35760c051600254169a8c519a614f5b90818d016080528c6080511060a05160805111176102a95750620003e88c3960805152602060805101528a60805101526060608051015260808051015260a0608051015260c0608051015260e06080510152610100608051015261012060805101526101a0918261014060805101528451809360805101528160208601936101c09261023a828560805101886103c6565b610160608051015260026101806080510152601f80199101166080510103019085f0801561029f5761028091602095869260c051169585519485938492519283916103c6565b82019081520301902080546001600160a01b0319168317905551908152f35b82513d86823e3d90fd5b90508f92506024935060419150634e487b7160e01b835252fd5b8b5162461bcd60e51b81526020818c0152600c60248201526b155b985d5d1a1bdc9a5e995960a21b6044820152606490fd5b8d80fd5b8c80fd5b8b80fd5b8a80fd5b8980fd5b8880fd5b8780fd5b8680fd5b8580fd5b8480fd5b50346100a75760203660031901126100a757803567ffffffffffffffff81116100a35760209391610071913691015b81601f820112156103ae5780359067ffffffffffffffff928383116103b25760405193601f8401601f19908116603f01168501908111858210176103b257604052828452602083830101116103ae57815f926020809301838601378301015290565b5f80fd5b634e487b7160e01b5f52604160045260245ffd5b5f5b8381106103d75750505f910152565b81810151838201526020016103c856fe60808060405234620003b25762004f5b8038038091620000208285620003b6565b83398101906101a081830312620003b2576200003c81620003da565b6020926200004c848401620003da565b936200005b60408501620003da565b6200006960608601620003da565b6200007760808701620003da565b916200008660a08801620003da565b926200009560c08901620003da565b92620000a460e08a01620003da565b91620000b46101008b01620003ef565b9a620000c46101208c01620003ef565b6101408c0151909a906001600160401b038111620003b2578c018a601f82011215620003b25780516001600160401b0381116200035b576040519b62000114601f8301601f19168d018e620003b6565b818d528b8284010111620003b25762000133918b808e01910162000404565b620001426101608d01620003ef565b9b6001600160401b03906200015b9061018001620003da565b16600681116200036f575f80546001600160e01b03191690911760408e811b600160401b600160e01b0316919091179091556001805560038054600160a01b600160e01b03191660a09390931b600160a01b600160e01b031692909217909155608093841b600160801b600160c01b0390811696821b6fffffffffffffffff00000000000000009081166001600160401b03948516179790971760c09490941b6001600160c01b0319908116949094176004556005805498831b9097169790931697821697909717959095179290911b16179055600680546001600160a01b03199081166001600160a01b03998a161790915591519196956121ed938484019391929091908411818510176200035b578062000281848862002d6e978989863962000427565b03905ff08015620003505767747265617375727960c01b95620002db9289602893168b60025416176002556040519782620002c68a9451809285808801910162000404565b830191820152036008810187520185620003b6565b604051938385016001600160401b038111868210176200035b5785946200030494863962000427565b03905ff0801562000350578216836003541617600355670de0b6b3a76400008060085560095542600a55169060075416176007555f600b555f600c5560405161290090816200046e8239f35b6040513d5f823e3d90fd5b634e487b7160e01b5f52604160045260245ffd5b60648a6040519062461bcd60e51b825280600483015260248201527f496e76616c696420636f6e74726f6c20616c6c6f77206c697374206c6576656c6044820152fd5b5f80fd5b601f909101601f19168101906001600160401b038211908210176200035b57604052565b51906001600160401b0382168203620003b257565b51906001600160a01b0382168203620003b257565b5f5b838110620004165750505f910152565b818101518382015260200162000406565b60409060806004939594956060835262000451815180928160608701526020858701910162000404565b601f80199101168201019460018060a01b03166020820152015256fe60806040526004361015610011575f80fd5b5f803560e01c806301f72884146120935780630f47a0e51461074d5780631135daeb146120765780631da649cf14611ba25780631f68f20a14611b785780631ffce3f414611b4f578063383e217014611b365780633de2f6b2146115d45780634031234c146115ad5780634322b71414611583578063471b44271461136657806347e7ef241461114d5780634c19386c1461112f57806361d027b31461024a5780636290cd1c14611108578063630fd0ac146110ea5780636558ef11146110af57806367e74dd1146110965780636c665a5514610d1d5780636fb49d7314610cf357806371302473146106f35780637eb7113114610cd85780638053fcbe14610cae57806384bdc9a814610c935780638a539cbe14610c6f57806395082d2514610c4c57806398f1bc1214610c2e578063a1d34a4214610acb578063a62b75a814610aa1578063aa5af0fd14610a83578063ae60d5fc14610a61578063b42ba5b114610932578063ba1c5e801461090f578063bbb8518814610890578063c0919750146107c5578063c7ea4d441461079f578063c95abc2214610776578063cd3293de1461074d578063d0134cb71461072c578063d28320d6146106f3578063d288043b146106bf578063de28735914610696578063e108f85714610545578063e6a69ab814610526578063ed8e3e8f1461050a578063f3fef3a314610273578063f7866ee31461024a5763fbaf894c1461022a575f80fd5b346102475780600319360112610247576020600a54604051908152f35b80fd5b50346102475780600319360112610247576003546040516001600160a01b039091168152602090f35b50346102475760403660031901126102475761028d6120b9565b90602435918154926001600160401b03916102a98386166121d7565b6001600160a01b0395859160409190911c871690825b81518110156104fa5761030a876102d68385612128565b51604051636bf8e80f60e01b815291166001600160401b031660048201523360248201526020918290829081906044820190565b0381885afa9182156104ef5786926104c2575b50506103315761032c906120e5565b6102bf565b5050509091929350610343600161219c565b61034b612862565b610353612484565b670de0b6b3a7640000610368600954856122b1565b049361038d85600c5461038882610381600b5484612314565b1015612885565b612314565b600c55856007541690813b156104aa5760405163393b766560e11b81529085166001600160401b031660048201526001600160a01b038416602482015290829082908183816044810103925af1801561049f579082916104ae575b505084600254168560065416813b156104aa5760405163439e2e4560e01b81526001600160a01b038581166004830152919091166024820152604481018690529082908290606490829084905af1801561049f5761048b575b5050604080947f92ccf450a286a957af52509bc1c9939d1a6a481783e142e41e2499f0bb66ebc69282519485528560208601521692a2600954906001805582519182526020820152f35b610495829161213c565b6102475780610441565b6040513d84823e3d90fd5b8280fd5b6104b79061213c565b61024757805f6103e8565b6104e19250803d106104e8575b6104d98183612163565b810190612184565b5f8061031d565b503d6104cf565b6040513d88823e3d90fd5b505050909192936103439061219c565b5034610247578060031936011261024757610523612446565b80f35b503461024757806003193601126102475760206040516301e187e08152f35b503461024757602080600319360112610692576004906105636120b9565b600754604051637e062a3560e11b8152936001600160a01b03929184918691829086165afa938415610687578594610648575b506040516370a0823160e01b8152908216600482015292829184916024918391165afa92831561063c579261060a575b82670de0b6b3a76400006105dc600954836122b1565b04906106066105e96123b6565b604051938493846040919493926060820195825260208201520152565b0390f35b90809250813d8311610635575b6106218183612163565b8101031261063157515f806105c6565b5f80fd5b503d610617565b604051903d90823e3d90fd5b9093508281813d8311610680575b6106608183612163565b8101031261067c575190808216820361067c5790926024610596565b8480fd5b503d610656565b6040513d87823e3d90fd5b5080fd5b5034610247578060031936011261024757546040805191901c6001600160a01b03168152602090f35b5034610247576020366003190112610247576020670de0b6b3a76400006106ea6009546004356122b1565b04604051908152f35b5034610247576020366003190112610247576020906040906001600160a01b0361071b6120b9565b168152600d83522054604051908152f35b5034610247578060031936011261024757602060045460c01c604051908152f35b50346102475780600319360112610247576002546040516001600160a01b039091168152602090f35b50346102475780600319360112610247576007546040516001600160a01b039091168152602090f35b50346102475780600319360112610247576001600160401b036020915416604051908152f35b5034610247576040366003190112610247576001600160a01b036107e76120cf565b16808252600d602052600460206040842054926040519283809263313ce56760e01b82525afa908115610885576127109261083e6108356106ea946108439460209891610858575b5061265f565b916004356122b1565b6122c4565b6001600160401b0360035460a01c16906122b1565b6108789150883d811161087e575b6108708183612163565b810190612646565b5f61082f565b503d610866565b6040513d85823e3d90fd5b5034610247578060031936011261024757600c54600b54610100928183111561090a57506108be8183612314565b6108c66122e2565b6108ce6123b6565b6108d661232e565b916008549360095495604051978852602088015260408701526060860152608085015260a084015260c083015260e0820152f35b6108be565b5034610247578060031936011261024757602061092a61232e565b604051908152f35b50346102475760403660031901126102475761094c6120b9565b602435908254916001600160401b03926109678482166121d7565b928594869060018060a01b03809460401c16915b8651811015610a2f57610992826102d6838a612128565b0381885afa918215610a24578b92610a07575b50506109b9576109b4906120e5565b61097b565b50505060209294507f41dd56c92c84169d8e89dc293d2649a911f47b357d3012bc88662395e01979d093506109ee600161219c565b1692838552600d8252806040862055604051908152a280f35b610a1d9250803d106104e8576104d98183612163565b5f806109a5565b6040513d8d823e3d90fd5b5050507f41dd56c92c84169d8e89dc293d2649a911f47b357d3012bc88662395e01979d093506109ee6020939561219c565b503461024757602061092a61083e610a78366120a3565b9190600854906122b1565b50346102475780600319360112610247576020600854604051908152f35b503461024757806003193601126102475760206001600160401b0360045460801c16604051908152f35b503461024757602080600319360112610692576004356001600160401b0391828216809203610c2a57835490610b028483166121d7565b8594604084901c6001600160a01b031691865b8151811015610c1a57610b5d8584610b2d8486612128565b51604051636bf8e80f60e01b815291166001600160401b0316600482015233602482015291829081906044820190565b0381885afa908115610c0f578a91610bf2575b50610b8357610b7e906120e5565b610b15565b5050505090919250610b95600161219c565b60068311610baf575067ffffffffffffffff191617815580f35b6064906040519062461bcd60e51b825280600483015260248201527f496e76616c696420636f6e74726f6c20616c6c6f77206c697374206c6576656c6044820152fd5b610c099150863d88116104e8576104d98183612163565b5f610b70565b6040513d8c823e3d90fd5b50505050909192610b959061219c565b8380fd5b50346102475780600319360112610247576020600954604051908152f35b50346102475780600319360112610247576020604051670de0b6b3a76400008152f35b5034610247578060031936011261024757602060405168056bc75e2d631000008152f35b5034610247578060031936011261024757602061092a6123b6565b503461024757806003193601126102475760206001600160401b0360055460401c16604051908152f35b5034610247578060031936011261024757602061092a6122e2565b503461024757806003193601126102475760206001600160401b0360035460a01c16604051908152f35b503461024757606036600319011261024757610d376120b9565b60443590602435906001600160a01b03808416808503610631578554946001600160401b0392610d688488166121d7565b889760401c821690885b815181101561108457610d89876102d68385612128565b0381885afa918215611079578d9261105c575b5050610db057610dab906120e5565b610d72565b50505090919293949550610dc4600161219c565b610dcc612862565b610dd4612484565b60405163313ce56760e01b8152602094908581600481885afa91821561105157610e23610e0e61271094610e31948d9161103a575061265f565b878c52600d895261083e60408d20548c6122b1565b9060035460a01c16906122b1565b0494610e4686610381600c54600b5490612314565b60405163472a1d0960e11b81523060048201526001600160a01b038416602482015282821693908681604481885afa908115610c0f578a9161100d575b50610fd157600854899291853b15610c2a576040516318d9901d60e11b81523060048201526001600160a01b0391909116602482015260448101899052606481018a90526084810191909152828160a48183895af1908115610885578391610fbd575b5050610ef487600b54612321565b600b5560025460065484169316803b156104aa5760405163439e2e4560e01b81526001600160a01b039283166004820152939091166024840152604483018790528290606490829084905af18015610fb257610f9a575b5060085460408051968752602087018690528681018290529650947fc1cba78646fef030830d099fc25cb498953709c9d47d883848f81fd207174c9f90606090a3600180558351928352820152f35b610fa4879161213c565b610fae5785610f4b565b8580fd5b6040513d89823e3d90fd5b610fc69061213c565b61069257815f610ee6565b60405162461bcd60e51b8152600481018790526014602482015273115e1a5cdd1a5b99c81d5b9c185a590819195c1d60621b6044820152606490fd5b90508681813d8311611033575b6110248183612163565b8101031261063157515f610e83565b503d61101a565b61087891508a3d8c1161087e576108708183612163565b6040513d8b823e3d90fd5b6110729250803d106104e8576104d98183612163565b5f80610d9c565b6040513d8f823e3d90fd5b505050909192939495610dc49061219c565b50346102475780600319360112610247576105236123fe565b50346102475760403660031901126102475760406110dc6110ce6120b9565b6110d66120cf565b90612670565b825191151582526020820152f35b50346102475780600319360112610247576020600c54604051908152f35b503461024757806003193601126102475760206001600160401b0360045416604051908152f35b50346102475780600319360112610247576020600b54604051908152f35b5034610247576040366003190112610247576111676120b9565b8154602435926001600160401b03906111818284166121d7565b90936001600160a01b0393859260409190911c851690835b8151811015611356576111b0866102d68385612128565b0381885afa918215610fb2578792611339575b50506111d7576111d2906120e5565b611199565b50505090919293506111e9600161219c565b6111f1612862565b6111f9612484565b670de0b6b3a76400008086029086820414861517156113255760095461121e916122c4565b9361122b86600c54612321565b600c55806007541693851693803b15610c2a57838091602460405180948193631f73a13960e31b83528a60048401525af1801561131a57908491611306575b5050806007541691823b15610c2a5790604484928360405195869485936339a4ed0560e11b8552169889600485015260248401525af1801561049f576112f2575b50507f73a19dd210f1a7f902193214c0ee91dd35ee5b4d920cba8d519eca65a7b488ca604080948151908152846020820152a2600954906001805582519182526020820152f35b6112fc829161213c565b61024757806112ab565b61130f9061213c565b6104aa57825f61126a565b6040513d86823e3d90fd5b634e487b7160e01b83526011600452602483fd5b61134f9250803d106104e8576104d98183612163565b5f806111c3565b505050909192936111e99061219c565b5034610247576040366003190112610247576113806120b9565b6113886120cf565b60405163472a1d0960e11b81523060048201526001600160a01b038281166024830152909290916020918316908285604481855afa9485156104ef578695611554575b50604051622275af60e91b81523060048201526001600160a01b0382166024820152938385604481865afa948515610fb2578795611525575b5060405163052226ef60e41b81523060048201526001600160a01b0383166024820152928490849060449082905afa928315610fb25787936114f6575b5085156114e9576114588561083e600854896122b1565b911660405163313ce56760e01b81528481600481855afa9081156114de576114ab9261083e60408b61149788966114a69660a09f916114c7575061265f565b938152600d8a522054876122b1565b6125f1565b925b604051958652850152604084015260608301526080820152f35b61087891508c8d3d1061087e576108708183612163565b6040513d8a823e3d90fd5b505060a0945f19926114ad565b9092508381813d831161151e575b61150e8183612163565b810103126106315751915f611441565b503d611504565b9094508381813d831161154d575b61153d8183612163565b810103126106315751935f611404565b503d611533565b9094508281813d831161157c575b61156c8183612163565b810103126106315751935f6113cb565b503d611562565b503461024757806003193601126102475760206001600160401b0360055460801c16604051908152f35b503461024757806003193601126102475760206001600160401b0360055416604051908152f35b5034610247576080366003190112610247576115ee6120b9565b6115f66120cf565b906064356001600160a01b03811690819003610631578354926001600160401b03926116238486166121d7565b869560401c6001600160a01b031690865b8151811015611b265761164b876102d68385612128565b0381885afa918215610a24578b92611b09575b50506116725761166d906120e5565b611634565b5050509091929350611684600161219c565b61168c612862565b611694612484565b60405163313ce56760e01b8152602081600481875afa80156104ef576116c0918791611af0575061265f565b838652600d6020526040862054946116de8661083e846044356122b1565b9060055460401c169061271091820190818311611adc57906116ff916122b1565b60405163472a1d0960e11b81523060048201526001600160a01b03606435166024820152919004959091602083806044810103816001600160a01b0389165afa9283156114de578893611aa8575b5060405163052226ef60e41b81523060048201526001600160a01b0360643516602482015291602083806044810103816001600160a01b038a165afa928315611051578993611a74575b50604051622275af60e91b81523060048201526001600160a01b0360643516602482015292602084806044810103816001600160a01b038b165afa938415610c0f578a94611a36575b50670de0b6b3a76400009261083e611812936117fb936122b1565b61180c8461083e60085480986122b1565b906125f1565b10156119e2576118298261083e89936044356122b1565b916001600160a01b0385163b15610692576040516342c8afad60e01b8152306004820152606480356001600160a01b03166024830152604482018590528101889052608481019190915281818060a481010381836001600160a01b038a165af1801561049f576119ce575b50506118a290600b54612314565b600b556002546006546001600160a01b03838116939181169288929116843b156104aa5760405163439e2e4560e01b8082526001600160a01b0392831660048301529490911660248201526044803590820152828160648183895af19081156108855783916119ba575b50506001600160a01b0385163b15610692576040519283526001600160a01b03908116600484015260648035821660248501526044840188905283918290849088165af180156104ef576119a6575b50602094507fd1ef587d13fefe63f9bc582e973aad46877ef08cfe790838721bd521c53caf5660408051936044358552868886015260018060a01b031693a460018055604051908152f35b6119b0869161213c565b61067c578461195b565b6119c39061213c565b61069257815f61190c565b6119d79061213c565b610fae57855f611894565b60405162461bcd60e51b815260206004820152602660248201527f506f736974696f6e20697320206865616c7468792c2063616e6e6f74206c697160448201526575696461746560d01b6064820152608490fd5b919093506020823d602011611a6c575b81611a5360209383612163565b8101031261063157905192670de0b6b3a76400006117e0565b3d9150611a46565b9092506020813d602011611aa0575b81611a9060209383612163565b810103126106315751915f611797565b3d9150611a83565b9092506020813d602011611ad4575b81611ac460209383612163565b810103126106315751915f61174d565b3d9150611ab7565b634e487b7160e01b89526011600452602489fd5b610878915060203d60201161087e576108708183612163565b611b1f9250803d106104e8576104d98183612163565b5f8061165e565b505050909192936116849061219c565b5034610247578060031936011261024757610523612484565b50346102475780600319360112610247576006546040516001600160a01b039091168152602090f35b503461024757806003193601126102475760206001600160401b0360045460401c16604051908152f35b503461024757606036600319011261024757611bbc6120b9565b611bc46120cf565b916044358154936001600160401b0394611bdf8682166121d7565b939485946001600160a01b039260401c831690865b815181101561206657611c0b8a6102d68385612128565b0381885afa918215610c0f57908c949392918b92612049575b5050611c3b57611c33906120e5565b909150611bf4565b50505050819293949550611c4f600161219c565b611c57612484565b60405163472a1d0960e11b81523060048201526001600160a01b03851660248201526020979190921693918781604481885afa908115610fb2578791612018575b50604051622275af60e91b81523060048201526001600160a01b0384166024820152968888604481895afa97881561200b578198611fd8575b5060405163052226ef60e41b81523060048201526001600160a01b03851660248201529189836044818a5afa92831561049f578293611fa9575b508015611f735760085498611d248161083e8c856122b1565b808a11611f2e578a91908a03611f0c57505091975b863b15610692576040516342c8afad60e01b81523060048201526001600160a01b038616602482015260448101849052606481018a90526084810191909152818160a481838b5af1801561049f57611efd575b5081871115611ef057612710611db4611da5848a612314565b945b60055460801c16856122b1565b04611dbf8189612314565b611dcb84600b54612314565b600b558660025416908760065416893b1561067c5760405163439e2e4560e01b8082526001600160a01b0394851660048301529190931660248401526044830191909152908381606481838d5af1801561131a57908491611edc575b505081611e74575b50506040805197885260208801929092525085015216917f244fed5b3268b6a17fff986a36f3d87e163ac678d91d552866eb1e74f010f3a690606090a3604051908152f35b866003541690876006541692893b1561067c576040519182526001600160a01b03928316600483015292909116602482015260448101919091528181606481838b5af1801561049f57611ec8575b80611e2f565b611ed2829161213c565b6102475780611ec2565b611ee59061213c565b6104aa57825f611e27565b612710611db48294611da7565b611f069061213c565b5f611d8c565b611f21611f28939261083e61083e938d6122b1565b80956122b1565b97611d39565b60405162461bcd60e51b8152600481018d9052601960248201527f526570617920616d6f756e7420657863656564732064656274000000000000006044820152606490fd5b60405162461bcd60e51b8152600481018b9052600e60248201526d27379030b1ba34bb32903637b0b760911b6044820152606490fd5b9092508981813d8311611fd1575b611fc18183612163565b810103126106925751915f611d0b565b503d611fb7565b9097508881813d8311612004575b611ff08183612163565b810103126120005751965f611cd1565b8780fd5b503d611fe6565b50604051903d90823e3d90fd5b90508781813d8311612042575b61202f8183612163565b8101031261203e57515f611c98565b8680fd5b503d612025565b61205f9250803d106104e8576104d98183612163565b5f80611c24565b505050611c4f829394959661219c565b503461024757806003193601126102475760206040516127108152f35b503461024757602061092a61180c365b6040906003190112610631576004359060243590565b600435906001600160a01b038216820361063157565b602435906001600160a01b038216820361063157565b5f1981146120f35760010190565b634e487b7160e01b5f52601160045260245ffd5b8051156121145760200190565b634e487b7160e01b5f52603260045260245ffd5b80518210156121145760209160051b010190565b6001600160401b03811161214f57604052565b634e487b7160e01b5f52604160045260245ffd5b90601f801991011681019081106001600160401b0382111761214f57604052565b90816020910312610631575180151581036106315790565b156121a357565b60405162461bcd60e51b815260206004820152600c60248201526b155b985d5d1a1bdc9a5e995960a21b6044820152606490fd5b6001600160401b03908116612216576040519060408201908282109082111761214f5760405260018152602036818301375f61221282612107565b5290565b6040519060e082019081118282101761214f576040526006815260c03660208301375f8061224383612107565b5281516001101561229d576001604083015281516002101561229d576002606083015281516003101561229d576003608083015281516004101561229d57600560a083015281516005101561229d5750600660c082015290565b634e487b7160e01b81526032600452602490fd5b818102929181159184041417156120f357565b81156122ce570490565b634e487b7160e01b5f52601260045260245ffd5b600c54801561230f57600b5490612710918281029281840414901517156120f35761230c916122c4565b90565b505f90565b919082039182116120f357565b919082018092116120f357565b6123366122e2565b6004546001600160401b038082168084101561236d576123639061083e61230c95848660801c16906122b1565b9160401c16612321565b91928261237991612314565b6127109283039283116120f357818460801c16828560401c1601928284116120f35761083e6123af9261230c9660c01c906122b1565b9116612321565b6123ce6123c16122e2565b6123c961232e565b6122b1565b6001600160401b0360055460801c16906127109182039182116120f3576305f5e100916123fa916122b1565b0490565b61240a600a5442612314565b80156124435761243a90644979cb9e0061243361242561232e565b926123c960085494856122b1565b0490612321565b60085542600a55565b50565b612452600a5442612314565b80156124435761247b90644979cb9e0061243361246d6123b6565b926123c960095494856122b1565b60095542600a55565b612490600a5442612314565b8015612443576123c96124bb6124a461232e565b6008549061243385644979cb9e00958693856122b1565b9068056bc75e2d6310000092838311612595576124e1918360085561243361246d6123b6565b91821161253957817fa0fadbfbb40d1b4013c553c5deaf84070909c3ed7a9ef092a92d406661bdf9ee9260095542600a556125346040519283924291846040919493926060820195825260208201520152565b0390a1565b60405162461bcd60e51b815260206004820152602e60248201527f537570706c7920696e646578206f766572666c6f77202d20636f6e746163742060448201526d383937ba37b1b7b61030b236b4b760911b6064820152608490fd5b60405162461bcd60e51b815260206004820152602e60248201527f426f72726f7720696e646578206f766572666c6f77202d20636f6e746163742060448201526d383937ba37b1b7b61030b236b4b760911b6064820152608490fd5b811561263f5761260d906001600160401b0360055416906122b1565b90670de0b6b3a7640000918281029281840414901517156120f357612710808202918204036120f35761230c916122c4565b50505f1990565b90816020910312610631575160ff811681036106315790565b60ff16604d81116120f357600a0a90565b6040805163472a1d0960e11b81523060048201526001600160a01b038481166024830152919493929091908116906020908184604481865afa938415612858575f94612829575b50831561281b578651622275af60e91b81523060048201526001600160a01b0386166024820152948286604481875afa9586156127b3575f966127ec575b50875163052226ef60e41b81523060048201526001600160a01b0382166024820152938390859060449082905afa9384156127b3575f946127bd575b501693865163313ce56760e01b81528281600481895afa9081156127b35761083e936127816114a697969461083e61277761278e9c9d96600d965f9161279c575061265f565b98600854906122b1565b975f52525f2054906122b1565b670de0b6b3a7640000811091565b6108789150863d881161087e576108708183612163565b88513d5f823e3d90fd5b90938382813d83116127e5575b6127d48183612163565b81010312610247575051925f612731565b503d6127ca565b90958382813d8311612814575b6128038183612163565b81010312610247575051945f6126f5565b503d6127f9565b505f95505f19949350505050565b90938282813d8311612851575b6128408183612163565b81010312610247575051925f6126b7565b503d612836565b87513d5f823e3d90fd5b600260015414612873576002600155565b604051633ee5aeb560e01b8152600490fd5b1561288c57565b60405162461bcd60e51b8152602060048201526016602482015275496e73756666696369656e74206c697175696469747960501b6044820152606490fdfea2646970667358221220a87682fce7eab6c096e1a038313800d6113d6ca2df10c2e05196bf00574b07d864736f6c634300081400336080604052346200029b57620021ed803803806200001d81620002b4565b9283398101906060818303126200029b5780516001600160401b0391908281116200029b57810192601f908082860112156200029b578451928484116200024457602093601f19966200007686898785011601620002b4565b938285528683830101116200029b5785905f5b8381106200029f5750505f918401015280840151906001600160a01b03821682036200029b57604001518581168091036200029b576006811162000258575f549168010000000000000000600160e01b039060401b169163ffffffff60e01b1617175f5560019283805560ff1960035416600355815194851162000244576002548481811c9116801562000239575b828210146200022557838111620001dc575b5080928511600114620001755750839450908392915f9462000169575b50501b915f199060031b1c1916176002555b604051611f129081620002db8239f35b015192505f8062000147565b92948490811660025f52845f20945f905b88838310620001c15750505010620001a8575b505050811b0160025562000159565b01515f1960f88460031b161c191690555f808062000199565b85870151885590960195948501948793509081019062000186565b60025f52815f208480880160051c8201928489106200021b575b0160051c019085905b8281106200020f5750506200012a565b5f8155018590620001ff565b92508192620001f6565b634e487b7160e01b5f52602260045260245ffd5b90607f169062000118565b634e487b7160e01b5f52604160045260245ffd5b6064856040519062461bcd60e51b825280600483015260248201527f496e76616c696420636f6e74726f6c20616c6c6f77206c697374206c6576656c6044820152fd5b5f80fd5b81810183015186820184015287920162000089565b6040519190601f01601f191682016001600160401b03811183821017620002445760405256fe60406080815260048036101561004b575b50361561001b575f80fd5b807f9936746a4565f9766fa768f88f56a7487c78780ac179562773d1c75c5269537e9151338152346020820152a1005b5f90813560e01c90816328cafd721461157857816331b3203a1461128557816342c8afad14610f24578163431d8ffe14610dfa578163439e2e4514610e4357816344eb5e0014610dfa5781634743c2fd14610dcd57816347e7ef2414610c1a57816352226ef014610bfc57816352696601146108565781635e7db13d14610a5a57816369328dec1461089f5781638e543a1214610856578163a1d34a4214610702578163a7efe34814610523578163acbc682014610317578163b2567d1f146101f857508063c7ea4d44146101d2578063dce83ae314610189578063de287359146101615763e9ea28de0361001057903461015d578160031936011261015d5760209060ff6003541690519015158152f35b5080fd5b50903461015d578160031936011261015d5790548151911c6001600160a01b03168152602090f35b50903461015d578060031936011261015d57806020926101a7611720565b6101af61173a565b6001600160a01b0391821683526006865283832091168252845220549051908152f35b50903461015d578160031936011261015d576001600160401b0360209254169051908152f35b90508234610313576020908160031936011261030f5782359182151580930361030b578454936001600160401b039461023286821661188f565b879691851c6001600160a01b03169190875b81518110156102fa57610279868461025c84866117d0565b518a51636bf8e80f60e01b815293849283923391168b8401611831565b0381885afa9081156102f0578b916102c3575b5061029f5761029a9061178d565b610244565b5050505050505090506102b26001611854565b60ff80196003541691161760035580f35b6102e39150873d89116102e9575b6102db81836117e4565b810190611819565b8b61028c565b503d6102d1565b88513d8d823e3d90fd5b50505050505050906102b290611854565b8480fd5b8380fd5b8280fd5b91905034610520578260031936011261052057610332611720565b602435908254906001600160401b039461034d86841661188f565b949586956001600160a01b0394891c851690875b815181101561050e576103988461037883856117d0565b51168c5190636bf8e80f60e01b82528180602094859333908c8401611831565b0381885afa918215610504578b926104e7575b50506103bf576103ba9061178d565b610361565b505050909192939495506103d36001611854565b6103db611982565b8447106104a8578580808088875af1903d156104a2573d90811161048f57875190610410601f8201601f1916602001836117e4565b81528660203d92013e5b1561045557507f645e52ee0ce5c05d60f4b051028f29630be7001f5d84cba67fe6872db872cff8916020918596519485521692a36001805580f35b606490602087519162461bcd60e51b8352820152601460248201527312109054881d1c985b9cd9995c8819985a5b195960621b6044820152fd5b634e487b7160e01b875260418352602487fd5b5061041a565b865162461bcd60e51b81526020818401526019602482015278496e73756666696369656e7420484241522062616c616e636560381b6044820152606490fd5b6104fd9250803d106102e9576102db81836117e4565b5f806103ab565b8d513d8d823e3d90fd5b5050509091929394956103d390611854565b80fd5b90508234610313576020918260031936011261030f57610541611720565b918454936001600160401b039461055986821661188f565b87966001600160a01b0392851c831691885b81518110156106f0576105a086898561058485876117d0565b51168a519384928392636bf8e80f60e01b845233918401611831565b0381885afa9081156106e6578c916106c9575b506105c6576105c19061178d565b61056b565b505050509091929394506105da6001611854565b825163248a35ef60e11b81523085820152941660248501819052938181604481896101675af19182156106bf5790601692918792610692575b505060070b036106465750507fbbbf805ef99ca7d0b7d2cc769719f2a281c9b3331a3642efa75a712e3094a1668280a280f35b61068e92505191829162461bcd60e51b835282016060906020815260196020820152782330b4b632b2103a379030b9b9b7b1b4b0ba32903a37b5b2b760391b60408201520190565b0390fd5b6106b19250803d106106b8575b6106a981836117e4565b810190611969565b8680610613565b503d61069f565b83513d88823e3d90fd5b6106e09150873d89116102e9576102db81836117e4565b8c6105b3565b88513d8e823e3d90fd5b5050505090919293946105da90611854565b83915034610313576020918260031936011261030f578135916001600160401b03938484168094036108525785549261073c86851661188f565b879685831c6001600160a01b031691885b815181101561084057610782868461076584866117d0565b518851636bf8e80f60e01b815293849283923391168d8401611831565b0381885afa908115610836578c91610819575b506107a8576107a39061178d565b61074d565b505050509091929394506107bc6001611854565b600685116107d85750505067ffffffffffffffff191617815580f35b5162461bcd60e51b815291820181905260248201527f496e76616c696420636f6e74726f6c20616c6c6f77206c697374206c6576656c604482015260649150fd5b6108309150873d89116102e9576102db81836117e4565b8c610795565b86513d8e823e3d90fd5b5050505090919293946107bc90611854565b8580fd5b82843461015d578060031936011261015d5780602092610874611720565b61087c61173a565b6001600160a01b0391821683526005865283832091168252845220549051908152f35b83915034610313576060366003190112610313576108bb611720565b6001600160a01b039260443591908483168303610852578554946001600160401b03946108e986881661188f565b8897841c831690885b8151811015610a47576109298961090983856117d0565b5116875190636bf8e80f60e01b82528180602094859333908b8401611831565b0381885afa918215610a3d578d92610a20575b50506109505761094b9061178d565b6108f2565b505050909192939495506109676001969296611854565b61096f611982565b86549161097d81841661188f565b88978994861c16935b8151811015610a0e5761099d8361090983856117d0565b03818a5afa9182156106e6578c926109f1575b50506109c4576109bf9061178d565b610986565b5050505050506109ea92506109d96001611854565b6109e1611982565b602435916119a5565b6001805580f35b610a079250803d106102e9576102db81836117e4565b8b806109b0565b5050505050506109d96109ea93611854565b610a369250803d106102e9576102db81836117e4565b8c8061093c565b88513d8f823e3d90fd5b5050509095610967909592939495611854565b838334610520578160031936011261052057610a74611720565b916024359082546001600160401b0394610a8f86831661188f565b949586956001600160a01b0393851c84169190875b8151811015610bea578a83610ab983856117d0565b5116885190636bf8e80f60e01b82528180610adb602095869433918401611831565b0381895afa918215610be057908d9695949392918c92610bc3575b5050610b0f57610b059061178d565b9091929350610aa4565b5050505050909192939450610b246001611854565b1691828452846020528184205494858211610b8057610b66827faa3cec92d25e6e7cf3bf119de96782be90a19b7f9d717dc51e03d3f8f8aa22b1959697611e0e565b90858752602052808387205582519182526020820152a280f35b606490602084519162461bcd60e51b8352820152601e60248201527f43616e6e6f7420756e6c6f636b206d6f7265207468616e206c6f636b656400006044820152fd5b610bd99250803d106102e9576102db81836117e4565b8d80610af6565b89513d8d823e3d90fd5b505050509091929394610b2490611854565b82843461015d578060031936011261015d57806020926101a7611720565b9050828060031936011261031357610c30611720565b815163e1f21c6760e01b81526001600160a01b03821684820190815233602082810191909152602435604083018190529094939092909181906060010390858161016793818b865af1908115610dc357906016918991610da6575b5060070b03610d6357835163eca3691760e01b81526001600160a01b03909216868301523360248301523060448301526001600160401b0390921660070b60648201529083908290608490829089905af1908115610d5957906016918691610d3c575b5060070b03610cfb578380f35b5162461bcd60e51b815291820152601860248201527f4661696c656420746f207472616e7366657220746f6b656e0000000000000000604482015260649150fd5b610d539150843d86116106b8576106a981836117e4565b86610cee565b82513d87823e3d90fd5b835162461bcd60e51b8152808701869052601760248201527f4661696c656420746f20617070726f766520746f6b656e0000000000000000006044820152606490fd5b610dbd9150873d89116106b8576106a981836117e4565b89610c8b565b85513d8a823e3d90fd5b82843461015d57602036600319011261015d57602090610df3610dee611720565b611e1b565b9051908152f35b82843461015d578060031936011261015d5780602092610e18611720565b610e2061173a565b6001600160a01b0391821683526007865283832091168252845220549051908152f35b9050823461031357606036600319011261031357610e5f611720565b90610e6861173a565b9084546001600160401b0394610e7f86831661188f565b879692841c6001600160a01b03169290875b8151811015610f1257610ea88361090983856117d0565b03818a5afa9182156106e6578c92610ef5575b5050610ecf57610eca9061178d565b610e91565b5050505050506109ea9250610ee46001611854565b610eec611982565b604435916119a5565b610f0b9250803d106102e9576102db81836117e4565b8b80610ebb565b505050505050610ee46109ea93611854565b8391503461031357610f3536611750565b92939591908754936001600160401b0396610f5188871661188f565b8a996001600160a01b0397909190871c8816908b5b815181101561126f578d8c610f7b83856117d0565b5116610f9e8b5191636bf8e80f60e01b83528280602093849333908d8401611831565b0381895afa9283156112645792611247575b5050610fc457610fbf9061178d565b610f66565b5050508697989950610fdd600197929394959697611854565b1695868a526020926005845281878c20991698898c52845285878c20541061121057878b5260058452868b20898c528452868b2061101c878254611e0e565b9055878b5260068452868b20898c528452868b2061103b868254611e0e565b9055878b5260058452868b20898c528452868b20546111f75750868a5260078352858a20888b5283528986812055975b89549061107981831661188f565b8b9a8c93891c16925b81518110156111e3578c6110b8878561109b85876117d0565b518d51636bf8e80f60e01b815293849283923391168c8401611831565b0381895afa9182156111d857916111bb575b506110dd576110d89061178d565b611082565b5050505090919293949596506110f36001611854565b86885280825284882054808411611179577faa3cec92d25e6e7cf3bf119de96782be90a19b7f9d717dc51e03d3f8f8aa22b1868594936111577fa6f6d5e50bc84f153a0d6a9f9b37780433f92dc32d7e10f975ab3831c36898fa9998978c95611e0e565b90848d52855280828d205581519086825285820152a28351928352820152a380f35b5060649185519162461bcd60e51b8352820152601e60248201527f43616e6e6f7420756e6c6f636b206d6f7265207468616e206c6f636b656400006044820152fd5b6111d29150873d89116102e9576102db81836117e4565b8e6110ca565b8b51903d90823e3d90fd5b50505050909192939495966110f390611854565b878b5260078452868b20898c528452868b20559761106b565b865162461bcd60e51b815280840185905260116024820152704e6f206c6f616e7320746f20726570617960781b6044820152606490fd5b61125d9250803d106102e9576102db81836117e4565b8f80610fb0565b8c51903d90823e3d90fd5b505050610fdd8798999a97929394959697611854565b905082346103135761129636611750565b90939592948754946001600160401b03966112b288881661188f565b8a996001600160a01b0398909190851c8916908b5b8151811015611563578d8c6112dc83856117d0565b51168b895191636bf8e80f60e01b835282806112ff602094859433918401611831565b0381895afa928315611558579261153b575b5050611325576113209061178d565b6112c7565b50505087989950611341600198929394959697989a999a611854565b1695868a52602091600583528a858120998b83169a8b835285528682206113698a8254611ecf565b9055898252600685528682208b83528552868220611388878254611ecf565b9055898252600785528682208b83528552878783205581546113ab82821661188f565b90839d84918a1c16935b8251821015611522576113ea88856113cd85876117d0565b518d51636bf8e80f60e01b815293849283923391168d8401611831565b0381895afa9182156111d85791611505575b506114105761140a9061178d565b8e6113b5565b5050505061142b91929394959697989950610dee6001611854565b83116114b657917f7695c943e86fe119073b098f1b278727c236f4a661c96a660dacbf88f89c606795939160609593898b52808252838b2061146e848254611ecf565b9055898b528152887fb8cecfd0e38e35fdd1cbaa8877116ea7f0dc948c1317b8ce1a47eaedfe64154684808d205481519086825285820152a28251948552840152820152a380f35b60849184519162461bcd60e51b8352820152602560248201527f496e73756666696369656e7420756e6c6f636b65642062616c616e636520746f604482015264206c6f636b60d81b6064820152fd5b61151c9150883d8a116102e9576102db81836117e4565b5f6113fc565b5050505050610dee61142b92939495969798999a611854565b6115519250803d106102e9576102db81836117e4565b8f80611311565b8a51903d90823e3d90fd5b505050611341889a9892939495969798611854565b83915034610313578160031936011261031357611593611720565b9160243584546001600160401b03946115ad86831661188f565b87966001600160a01b0393861c841691885b815181101561170e5788836115d483856117d0565b5116895190636bf8e80f60e01b825281806115f6602095869433918401611831565b0381895afa918215611704578d926116e7575b505061161d576116189061178d565b6115bf565b505050509091929394506116316001611854565b61163a81611e1b565b831161169657907fb8cecfd0e38e35fdd1cbaa8877116ea7f0dc948c1317b8ce1a47eaedfe64154693929116938486528060205282862061167c838254611ecf565b90558486526020528185205482519182526020820152a280f35b835162461bcd60e51b8152602081870152602560248201527f496e73756666696369656e7420756e6c6f636b65642062616c616e636520746f604482015264206c6f636b60d81b6064820152608490fd5b6116fd9250803d106102e9576102db81836117e4565b8c80611609565b8a513d8f823e3d90fd5b50505050909192939461163190611854565b600435906001600160a01b038216820361173657565b5f80fd5b602435906001600160a01b038216820361173657565b60a0906003190112611736576001600160a01b03906004358281168103611736579160243590811681036117365790604435906064359060843590565b5f19811461179b5760010190565b634e487b7160e01b5f52601160045260245ffd5b8051156117bc5760200190565b634e487b7160e01b5f52603260045260245ffd5b80518210156117bc5760209160051b010190565b90601f801991011681019081106001600160401b0382111761180557604052565b634e487b7160e01b5f52604160045260245ffd5b90816020910312611736575180151581036117365790565b6001600160401b0390911681526001600160a01b03909116602082015260400190565b1561185b57565b60405162461bcd60e51b815260206004820152600c60248201526b155b985d5d1a1bdc9a5e995960a21b6044820152606490fd5b6001600160401b039081166118ce57604051906040820190828210908211176118055760405260018152602036818301375f6118ca826117af565b5290565b6040519060e0820190811182821017611805576040526006815260c03660208301375f806118fb836117af565b5281516001101561195557600160408301528151600210156119555760026060830152815160031015611955576003608083015281516004101561195557600560a08301528151600510156119555750600660c082015290565b634e487b7160e01b81526032600452602490fd5b9081602091031261173657518060070b81036117365790565b600260015414611993576002600155565b604051633ee5aeb560e01b8152600490fd5b6001600160a01b0382811693908415611bc2576040805163e1f21c6760e01b81526001600160a01b0386166004820152306024820152604481018490526101679560209592935f9390929091908781606481888d5af1908115611bb857906016918691611b9b575b5060070b03611b5b57611a1f90611e1b565b8511611b065782916084879286519485938492630aed65f560e11b84528d6004850152306024850152169a8b60448401528960648401525af1918215611afb5790601692611ade575b5060070b03611a9b57519081527f645e52ee0ce5c05d60f4b051028f29630be7001f5d84cba67fe6872db872cff89190a3565b5162461bcd60e51b815260048101839052601960248201527f4661696c656420746f207472616e7366657220617373657473000000000000006044820152606490fd5b611af59150853d87116106b8576106a981836117e4565b5f611a68565b8351903d90823e3d90fd5b835162461bcd60e51b815260048101879052602860248201527f696e73756666696369656e742061737365747320746f20636f6d706c657465206044820152673a3930b739b332b960c11b6064820152608490fd5b845162461bcd60e51b81526020600482015260196024820152782330b4b632b2103a379030b9b9b7b1b4b0ba32903a37b5b2b760391b6044820152606490fd5b611bb29150893d8b116106b8576106a981836117e4565b5f611a0d565b86513d87823e3d90fd5b92611bcf91929450611e1b565b8111611dba575f918254936001600160401b0394611bee86821661188f565b958596869085604094851c16915b8151811015611da857611c3484611c1383856117d0565b5116865190636bf8e80f60e01b825281806020948593339060048401611831565b0381885afa918215611d9e578b92611d81575b5050611c5b57611c569061178d565b611bfc565b50505090919293949550611c6f6001611854565b611c77611982565b844710611d41578580808088875af1903d15611d3b573d908111611d2757825190611cac601f8201601f1916602001836117e4565b81528660203d92013e5b15611ced575192835216907f645e52ee0ce5c05d60f4b051028f29630be7001f5d84cba67fe6872db872cff890602090a360018055565b5162461bcd60e51b815260206004820152601460248201527312109054881d1c985b9cd9995c8819985a5b195960621b6044820152606490fd5b634e487b7160e01b87526041600452602487fd5b50611cb6565b815162461bcd60e51b8152602060048201526019602482015278496e73756666696369656e7420484241522062616c616e636560381b6044820152606490fd5b611d979250803d106102e9576102db81836117e4565b5f80611c47565b87513d8d823e3d90fd5b505050909192939495611c6f90611854565b60405162461bcd60e51b815260206004820152602660248201527f696e73756666696369656e74204842415220746f20636f6d706c65746520747260448201526530b739b332b960d11b6064820152608490fd5b9190820391821161179b57565b6001600160a01b03165f8181526004602052604081205490918015611ebc576020602491604051928380926370a0823160e01b82523060048301525afa908115611eb1578391611e80575b50808211611e7b57611e789250611e0e565b90565b505090565b90506020813d8211611ea9575b81611e9a602093836117e4565b8101031261031357515f611e66565b3d9150611e8d565b6040513d85823e3d90fd5b5047808211611e7b57611e789250611e0e565b9190820180921161179b5756fea26469706673582212208eb12f7b8819115de9b1e0f797daa060fd31c423751fbb4aedfbf530a877dd0b64736f6c63430008140033a26469706673582212202f5022b35cc77a644eaeb1932e664d3552af17361cafbc5ce6c3947c1db58e1764736f6c63430008140033","linkReferences":{}},"methodIdentifiers":{"createPool(uint64,uint64,uint64,uint64,uint64,uint64,uint64,uint64,address,address,string)":"612d659e","getPool(string)":"41d7b026","pools(string)":"9d6f17a8"},"id":14}