{"abi":[{"type":"constructor","inputs":[{"name":"aclContract","type":"address","internalType":"address"},{"name":"fee_collector_add","type":"address","internalType":"address"},{"name":"reserve","type":"address","internalType":"address"},{"name":"max_supply","type":"uint256","internalType":"uint256"},{"name":"asset","type":"address","internalType":"address"},{"name":"purchase_asset","type":"address","internalType":"address"},{"name":"_purchase_price","type":"uint256","internalType":"uint256"},{"name":"beneficiary","type":"address","internalType":"address"},{"name":"shadow_asset","type":"address","internalType":"address"}],"stateMutability":"nonpayable"},{"type":"function","name":"BASE_POINT","inputs":[],"outputs":[{"name":"","type":"uint256","internalType":"uint256"}],"stateMutability":"view"},{"type":"function","name":"accounting_asset","inputs":[],"outputs":[{"name":"","type":"address","internalType":"contract NativeAsset"}],"stateMutability":"view"},{"type":"function","name":"acl","inputs":[],"outputs":[{"name":"","type":"address","internalType":"contract AccessController"}],"stateMutability":"view"},{"type":"function","name":"controlAllowList","inputs":[],"outputs":[{"name":"","type":"uint64","internalType":"uint64"}],"stateMutability":"view"},{"type":"function","name":"getListingStats","inputs":[],"outputs":[{"name":"","type":"uint256","internalType":"uint256"},{"name":"","type":"uint256","internalType":"uint256"},{"name":"","type":"uint256","internalType":"uint256"},{"name":"","type":"uint256","internalType":"uint256"},{"name":"","type":"uint8","internalType":"uint8"}],"stateMutability":"view"},{"type":"function","name":"listed_asset","inputs":[],"outputs":[{"name":"","type":"address","internalType":"contract NativeAsset"}],"stateMutability":"view"},{"type":"function","name":"listing_beneficiary","inputs":[],"outputs":[{"name":"","type":"address","internalType":"address"}],"stateMutability":"view"},{"type":"function","name":"listing_max_supply","inputs":[],"outputs":[{"name":"","type":"uint256","internalType":"uint256"}],"stateMutability":"view"},{"type":"function","name":"listing_reserve","inputs":[],"outputs":[{"name":"","type":"address","internalType":"address"}],"stateMutability":"view"},{"type":"function","name":"purchase","inputs":[{"name":"buyer","type":"address","internalType":"address"},{"name":"amount","type":"uint256","internalType":"uint256"}],"outputs":[{"name":"","type":"uint256","internalType":"uint256"}],"stateMutability":"nonpayable"},{"type":"function","name":"purchase_asset","inputs":[],"outputs":[{"name":"","type":"address","internalType":"address"}],"stateMutability":"view"},{"type":"function","name":"purchase_price","inputs":[],"outputs":[{"name":"","type":"uint256","internalType":"uint256"}],"stateMutability":"view"},{"type":"function","name":"raised_asset_amount","inputs":[],"outputs":[{"name":"","type":"uint256","internalType":"uint256"}],"stateMutability":"view"},{"type":"function","name":"raised_asset_balance","inputs":[],"outputs":[{"name":"","type":"uint256","internalType":"uint256"}],"stateMutability":"view"},{"type":"function","name":"returnAsset","inputs":[{"name":"owner","type":"address","internalType":"address"},{"name":"amount","type":"uint256","internalType":"uint256"}],"outputs":[{"name":"","type":"uint256","internalType":"uint256"}],"stateMutability":"nonpayable"},{"type":"function","name":"setControlAllowList","inputs":[{"name":"_newLevel","type":"uint64","internalType":"uint64"}],"outputs":[],"stateMutability":"nonpayable"},{"type":"function","name":"status","inputs":[],"outputs":[{"name":"","type":"uint8","internalType":"enum AbstractCradleNativeListing.ListingStatus"}],"stateMutability":"view"},{"type":"function","name":"total_distributed","inputs":[],"outputs":[{"name":"","type":"uint256","internalType":"uint256"}],"stateMutability":"view"},{"type":"function","name":"updateListingStatus","inputs":[{"name":"update","type":"uint8","internalType":"uint8"}],"outputs":[],"stateMutability":"nonpayable"},{"type":"function","name":"withdrawToBeneficiary","inputs":[{"name":"amount","type":"uint256","internalType":"uint256"}],"outputs":[],"stateMutability":"nonpayable"},{"type":"event","name":"ListingPurchase","inputs":[{"name":"user","type":"address","indexed":true,"internalType":"address"},{"name":"amount","type":"uint256","indexed":false,"internalType":"uint256"}],"anonymous":false},{"type":"event","name":"ListingReturn","inputs":[{"name":"user","type":"address","indexed":true,"internalType":"address"},{"name":"amount","type":"uint256","indexed":false,"internalType":"uint256"}],"anonymous":false},{"type":"event","name":"Withdrawal","inputs":[{"name":"beneficiary","type":"address","indexed":false,"internalType":"address"},{"name":"amount","type":"uint256","indexed":false,"internalType":"uint256"}],"anonymous":false},{"type":"error","name":"ReentrancyGuardReentrantCall","inputs":[]}],"bytecode":{"object":"0x6080346200016357601f6200153238819003918201601f19168301916001600160401b0383118484101762000167578084926101209460405283398101031262000163576200004e816200017b565b6200005c602083016200017b565b916200006b604082016200017b565b9160608201516200007f608084016200017b565b916200008e60a085016200017b565b9460c0850151936001620000b4610100620000ac60e08a016200017b565b98016200017b565b935f5490680100000000000000008360e01b039060401b169063ffffffff60e01b1617175f556001805560326003555f600a555f600c555f600d5560ff19600e5416600e5560018060a01b03809781958280958160018060a01b03199d168d6002541617600255168b6004541617600455600655168860095416176009551686600754161760075516846008541617600855600b55169060055416176005556040516113a19081620001918239f35b5f80fd5b634e487b7160e01b5f52604160045260245ffd5b51906001600160a01b0382168203620001635756fe6080604081815260049182361015610015575f80fd5b5f92833560e01c918263085735ae146110cc575081631135daeb146110af5781631b29304c14610d10578163200d2ed214610cd1578163310e51d014610ca8578163459da60f14610c895781634a33563d14610c615781635c2638aa14610c42578163758faedc14610b03578163773a34c314610a975781637b322eaf14610a6e57816385af02611461081b5781638cc01aa3146107f25781638de9322214610331578163a1d34a42146101b157508063c7ea4d441461018c578063de28735914610165578063e8b8b73f14610147578063f08591741461011f5763f30937f2146100fe575f80fd5b3461011b578160031936011261011b576020906006549051908152f35b5080fd5b503461011b578160031936011261011b5760095490516001600160a01b039091168152602090f35b503461011b578160031936011261011b57602090600a549051908152f35b503461011b578160031936011261011b5790548151911c6001600160a01b03168152602090f35b503461011b578160031936011261011b576001600160401b0360209254169051908152f35b90503461032d5760209182600319360112610329578135916001600160401b0393848416809403610325578554926101ea868516611204565b879685831c6001600160a01b031691885b81518110156103135761024586846102138486611155565b518851636bf8e80f60e01b815291166001600160401b03168a8201908152336020820152909283918291604090910190565b0381885afa908115610309578c916102dc575b5061026b5761026690611112565b6101fb565b5050505090919293945061027f60016111c9565b6006851161029b5750505067ffffffffffffffff191617815580f35b5162461bcd60e51b815291820181905260248201527f496e76616c696420636f6e74726f6c20616c6c6f77206c697374206c6576656c604482015260649150fd5b6102fc9150873d8911610302575b6102f48183611190565b8101906111b1565b5f610258565b503d6102ea565b86513d8e823e3d90fd5b50505050909192939461027f906111c9565b8580fd5b8380fd5b8280fd5b9050823461069657610342366110e8565b9390928254926001600160401b039361035c858216611204565b919586926001600160a01b0392861c831690845b81518110156107e05786896103858385611155565b518a51636bf8e80f60e01b815291166001600160401b031691810191825233602080840191909152918290829081906040010381885afa9182156107d65788926107b9575b50506103de576103d990611112565b610370565b505050909192939495506103f260016111c9565b6103fa6112de565b60ff600e541660058110156107a6576001036107645786610420600654600a5490611301565b61042b81151561130e565b1061072e5761043c600b548861134b565b95826007541690881690803b156106c1578651858160248183631f73a13960e31b96878352888d8401525af180156106fc5790869161071a575b5050836008541690813b15610325578591602483928a5194859384928352878c8401525af180156106b757908591610706575b50508260075416803b156106c15786516339a4ed0560e11b8082526001600160a01b0385168289019081526001600160401b03851660208201529092879183919082908490829060400103925af180156106fc579086916106e8575b5050836008541690813b156103255787519081526001600160a01b0384168782019081526001600160401b039093166020840152918591839182908490829060400103925af180156106de5783929185916106c5575b50501692818154168260095416853b156106c157865163439e2e4560e01b8082526001600160a01b0393841685830190815292909316602083015260408201899052908590829081906060010381838a5af180156106b7579085916106a3575b50506127106105cc6003548961134b565b0483600254169360095416863b156103255787519283526001600160a01b0394851693830193845290931660208301526040820192909252829082908190606001038183875af1801561069957610682575b50507fc8a75b1f5d854e3dba63e716ee546b7cdad2f6687fd66a607fca56e33e11a8d46020856106518297600a5461135e565b600a5561066086600c5461135e565b600c5561066f86600d5461135e565b600d558451908152a26001805551908152f35b61068c8291611169565b610696578061061e565b80fd5b84513d84823e3d90fd5b6106ac90611169565b6103295783896105bb565b87513d87823e3d90fd5b8480fd5b6106d191929350611169565b61032d578190838961055b565b86513d86823e3d90fd5b6106f190611169565b6106c157848a610505565b88513d88823e3d90fd5b61070f90611169565b6103295783896104a9565b61072390611169565b6106c157848a610476565b845162461bcd60e51b8152602081860152601060248201526f414d4f554e545f544f4f5f4c4152474560801b6044820152606490fd5b845162461bcd60e51b815260208186018181526010918101919091526f2624a9aa24a723afa727aa2fa7a822a760811b604082015281906060010390fd5b0390fd5b634e487b7160e01b845260218552602484fd5b6107cf9250803d10610302576102f48183611190565b8c806103ca565b8a513d8a823e3d90fd5b5050509091929394956103f2906111c9565b50503461011b578160031936011261011b5760075490516001600160a01b039091168152602090f35b9190503461032d5760209081600319360112610329578235918454926001600160401b039461084b868616611204565b87966001600160a01b0396861c871691885b8151811015610a5c576108a787846108758486611155565b518b51636bf8e80f60e01b815291166001600160401b0316888201908152336020820152909283918291604090910190565b0381885afa908115610a52578c91610a35575b506108cd576108c890611112565b61085d565b505050509091929394506108e160016111c9565b6108e96112de565b6108f8600654600a5490611301565b610a035781600d54106109cf5780858792541690866005541691876009541690803b156106c157875163439e2e4560e01b81526001600160a01b0394851693810193845293909116602083015260408201859052839183919082908490829060600103925af180156109c5576109b1575b50507f7fcf532c15f0a6db0bd6d0e038bea71d30d808c7d98cb3bf7268a95bf5081b659361099982600d54611301565b600d5560055416918351928352820152a16001805580f35b6109ba90611169565b6106c157845f610969565b85513d84823e3d90fd5b835162461bcd60e51b8152908101839052600e60248201526d105353d5539517d253959053125160921b6044820152606490fd5b835162461bcd60e51b8152908101839052600c60248201526b2624a9aa24a723afa7a822a760a11b6044820152606490fd5b610a4c9150883d8a11610302576102f48183611190565b5f6108ba565b89513d8e823e3d90fd5b5050505090919293946108e1906111c9565b50503461011b578160031936011261011b5760085490516001600160a01b039091168152602090f35b828434610696578060031936011261069657600a5491610ab983600654611301565b90600c5490600d549260ff600e5416946005861015610af0575060a096508151958652602086015284015260608301526080820152f35b634e487b7160e01b815260218852602490fd5b9190503461032d57602091826003193601126103295780359160ff83168093036106c1578454936001600160401b0394610b3e868216611204565b879691841c6001600160a01b03169190875b8151811015610c3157610b9a8584610b688486611155565b518951636bf8e80f60e01b815291166001600160401b03168a8201908152336020820152909283918291604090910190565b0381885afa908115610c27578b91610c0a575b50610bc057610bbb90611112565b610b50565b505050505050909150610bd360016111c9565b610bdb6112de565b6005821015610bf7575060ff19600e541617600e556001805580f35b634e487b7160e01b835260219052602482fd5b610c219150863d8811610302576102f48183611190565b5f610bad565b87513d8d823e3d90fd5b5050505050509091610bd3906111c9565b50503461011b578160031936011261011b57602090600c549051908152f35b90503461032d578260031936011261032d575490516001600160a01b03909116815260209150f35b50503461011b578160031936011261011b57602090600d549051908152f35b50503461011b578160031936011261011b5760055490516001600160a01b039091168152602090f35b83833461011b578160031936011261011b5760ff600e54169051916005821015610cfd57602083838152f35b634e487b7160e01b815260218452602490fd5b9050823461069657610d21366110e8565b8294919454946001600160401b0393610d3b858816611204565b6001600160a01b039791968792909190861c891690835b815181101561109d57610d9e89610d698385611155565b518a51636bf8e80f60e01b815291166001600160401b0316868201908152336020808301919091529283918391829160400190565b0381885afa918215611093578792611076575b5050610dc557610dc090611112565b610d52565b50505090919293949550610dd960016111c9565b610de16112de565b60ff600e541660058110159081611063576001811491821592611056575b8215611031575b5050610ff257610e25610e1e600654600a5490611301565b151561130e565b610e31600b548561134b565b958760085416908516813b1561032957865163393b766560e11b8082526001600160401b0383168583019081526001600160a01b03881660208201529093869183919082908490829060400103925af18015610fe857610fd5575b50886007541691823b156106c15787519081526001600160401b039091168382019081526001600160a01b03861660208201529091849183919082908490829060400103925af18015610fcb57908391610fb7575b505086815416876009541691813b1561032957865163439e2e4560e01b81526001600160a01b038087169282019283529093166020820152604081018890528391839182908490829060600103925af180156109c557610fa3575b5050602080957fb88e8e937118ac40f5b48d6642015ce560865bba5a8cf26b81123f8891010cb392610f7085600a54611301565b600a55610f7f87600c54611301565b600c55610f8e87600d54611301565b600d5585519485521692a26001805551908152f35b610fad8291611169565b6106965780610f3c565b610fc090611169565b61011b578188610ee1565b86513d85823e3d90fd5b610fe190949194611169565b9289610e8c565b88513d87823e3d90fd5b6107a290855191829162461bcd60e51b8352820160609060208152601060208201526f2624a9aa24a723afa727aa2fa7a822a760811b60408201520190565b90915061104357600314158880610e06565b634e487b7160e01b835260218252602483fd5b5082811415915083610dff565b634e487b7160e01b845260218352602484fd5b61108c9250803d10610302576102f48183611190565b8c80610db1565b8a513d89823e3d90fd5b505050909192939495610dd9906111c9565b50503461011b578160031936011261011b57602090516127108152f35b84903461011b578160031936011261011b57602090600b548152f35b604090600319011261110e576004356001600160a01b038116810361110e579060243590565b5f80fd5b5f1981146111205760010190565b634e487b7160e01b5f52601160045260245ffd5b8051156111415760200190565b634e487b7160e01b5f52603260045260245ffd5b80518210156111415760209160051b010190565b6001600160401b03811161117c57604052565b634e487b7160e01b5f52604160045260245ffd5b90601f801991011681019081106001600160401b0382111761117c57604052565b9081602091031261110e5751801515810361110e5790565b156111d057565b60405162461bcd60e51b815260206004820152600c60248201526b155b985d5d1a1bdc9a5e995960a21b6044820152606490fd5b6001600160401b03908116611243576040519060408201908282109082111761117c5760405260018152602036818301375f61123f82611134565b5290565b6040519060e082019081118282101761117c576040526006815260c03660208301375f8061127083611134565b528151600110156112ca57600160408301528151600210156112ca57600260608301528151600310156112ca57600360808301528151600410156112ca57600560a08301528151600510156112ca5750600660c082015290565b634e487b7160e01b81526032600452602490fd5b6002600154146112ef576002600155565b604051633ee5aeb560e01b8152600490fd5b9190820391821161112057565b1561131557565b60405162461bcd60e51b815260206004820152600e60248201526d131254d5125391d7d0d313d4d15160921b6044820152606490fd5b8181029291811591840414171561112057565b919082018092116111205756fea264697066735822122024697a01c67f63bab24bb0f34d1455771083c1af93653a75c5d9987bf33b7a9564736f6c63430008140033","linkReferences":{}},"methodIdentifiers":{"BASE_POINT()":"1135daeb","accounting_asset()":"7b322eaf","acl()":"de287359","controlAllowList()":"c7ea4d44","getListingStats()":"773a34c3","listed_asset()":"8cc01aa3","listing_beneficiary()":"310e51d0","listing_max_supply()":"f30937f2","listing_reserve()":"4a33563d","purchase(address,uint256)":"8de93222","purchase_asset()":"f0859174","purchase_price()":"085735ae","raised_asset_amount()":"5c2638aa","raised_asset_balance()":"459da60f","returnAsset(address,uint256)":"1b29304c","setControlAllowList(uint64)":"a1d34a42","status()":"200d2ed2","total_distributed()":"e8b8b73f","updateListingStatus(uint8)":"758faedc","withdrawToBeneficiary(uint256)":"85af0261"},"id":16}