{"abi":[{"type":"constructor","inputs":[{"name":"aclContract","type":"address","internalType":"address"},{"name":"fee_collector_add","type":"address","internalType":"address"},{"name":"reserve","type":"address","internalType":"address"},{"name":"max_supply","type":"uint256","internalType":"uint256"},{"name":"asset","type":"address","internalType":"address"},{"name":"purchase_asset","type":"address","internalType":"address"},{"name":"_purchase_price","type":"uint256","internalType":"uint256"},{"name":"beneficiary","type":"address","internalType":"address"},{"name":"shadow_asset","type":"address","internalType":"address"}],"stateMutability":"nonpayable"},{"type":"function","name":"BASE_POINT","inputs":[],"outputs":[{"name":"","type":"uint256","internalType":"uint256"}],"stateMutability":"view"},{"type":"function","name":"acl","inputs":[],"outputs":[{"name":"","type":"address","internalType":"contract AccessController"}],"stateMutability":"view"},{"type":"function","name":"beneficiary","inputs":[],"outputs":[{"name":"","type":"address","internalType":"address"}],"stateMutability":"view"},{"type":"function","name":"controlAllowList","inputs":[],"outputs":[{"name":"","type":"uint64","internalType":"uint64"}],"stateMutability":"view"},{"type":"function","name":"getListingStats","inputs":[],"outputs":[{"name":"","type":"uint256","internalType":"uint256"},{"name":"","type":"uint256","internalType":"uint256"},{"name":"","type":"uint256","internalType":"uint256"},{"name":"","type":"uint256","internalType":"uint256"},{"name":"","type":"uint8","internalType":"uint8"}],"stateMutability":"view"},{"type":"function","name":"listed_asset","inputs":[],"outputs":[{"name":"","type":"address","internalType":"address"}],"stateMutability":"view"},{"type":"function","name":"max_supply","inputs":[],"outputs":[{"name":"","type":"uint256","internalType":"uint256"}],"stateMutability":"view"},{"type":"function","name":"participation_asset","inputs":[],"outputs":[{"name":"","type":"address","internalType":"address"}],"stateMutability":"view"},{"type":"function","name":"purchase","inputs":[{"name":"buyer","type":"address","internalType":"address"},{"name":"amount","type":"uint256","internalType":"uint256"}],"outputs":[{"name":"","type":"uint256","internalType":"uint256"}],"stateMutability":"nonpayable"},{"type":"function","name":"purchase_asset","inputs":[],"outputs":[{"name":"","type":"address","internalType":"address"}],"stateMutability":"view"},{"type":"function","name":"purchase_price","inputs":[],"outputs":[{"name":"","type":"uint256","internalType":"uint256"}],"stateMutability":"view"},{"type":"function","name":"raised_asset_amount","inputs":[],"outputs":[{"name":"","type":"uint256","internalType":"uint256"}],"stateMutability":"view"},{"type":"function","name":"raised_asset_balance","inputs":[],"outputs":[{"name":"","type":"uint256","internalType":"uint256"}],"stateMutability":"view"},{"type":"function","name":"reserve","inputs":[],"outputs":[{"name":"","type":"address","internalType":"address"}],"stateMutability":"view"},{"type":"function","name":"returnAsset","inputs":[{"name":"owner","type":"address","internalType":"address"},{"name":"amount","type":"uint256","internalType":"uint256"}],"outputs":[{"name":"","type":"uint256","internalType":"uint256"}],"stateMutability":"nonpayable"},{"type":"function","name":"setControlAllowList","inputs":[{"name":"_newLevel","type":"uint64","internalType":"uint64"}],"outputs":[],"stateMutability":"nonpayable"},{"type":"function","name":"status","inputs":[],"outputs":[{"name":"","type":"uint8","internalType":"enum AbstractCradleNativeListing.ListingStatus"}],"stateMutability":"view"},{"type":"function","name":"total_distributed","inputs":[],"outputs":[{"name":"","type":"uint256","internalType":"uint256"}],"stateMutability":"view"},{"type":"function","name":"updateListingStatus","inputs":[{"name":"update","type":"uint8","internalType":"uint8"}],"outputs":[],"stateMutability":"nonpayable"},{"type":"function","name":"withdrawToBeneficiary","inputs":[{"name":"amount","type":"uint256","internalType":"uint256"}],"outputs":[],"stateMutability":"nonpayable"},{"type":"event","name":"ListingPurchase","inputs":[{"name":"user","type":"address","indexed":true,"internalType":"address"},{"name":"amount","type":"uint256","indexed":false,"internalType":"uint256"}],"anonymous":false},{"type":"event","name":"ListingReturn","inputs":[{"name":"user","type":"address","indexed":true,"internalType":"address"},{"name":"amount","type":"uint256","indexed":false,"internalType":"uint256"}],"anonymous":false},{"type":"event","name":"Withdrawal","inputs":[{"name":"beneficiary","type":"address","indexed":false,"internalType":"address"},{"name":"amount","type":"uint256","indexed":false,"internalType":"uint256"}],"anonymous":false},{"type":"error","name":"ReentrancyGuardReentrantCall","inputs":[]}],"bytecode":{"object":"0x6080346200016357601f6200156e38819003918201601f19168301916001600160401b0383118484101762000167578084926101209460405283398101031262000163576200004e816200017b565b6200005c602083016200017b565b916200006b604082016200017b565b9160608201516200007f608084016200017b565b916200008e60a085016200017b565b9460c0850151936001620000b4610100620000ac60e08a016200017b565b98016200017b565b935f5490680100000000000000008360e01b039060401b169063ffffffff60e01b1617175f556001805560326003555f600a555f600c555f600d5560ff19600e5416600e5560018060a01b03809781958280958160018060a01b03199d168d6002541617600255168b6004541617600455600655168860095416176009551686600754161760075516846008541617600855600b55169060055416176005556040516113dd9081620001918239f35b5f80fd5b634e487b7160e01b5f52604160045260245ffd5b51906001600160a01b0382168203620001635756fe6080604081815260049182361015610015575f80fd5b5f92833560e01c918263085735ae146110c0575081631135daeb146110a35781631b29304c14610cd0578163200d2ed214610c9157816338af3eed14610c68578163459da60f14610c495781635c2638aa14610c2a578163758faedc14610aeb578163773a34c314610a7f57816385af02611461082c5781638a333b501461080d5781638cc01aa3146107e45781638de9322214610365578163a1d34a42146101e9578163b21228e1146101c0578163c7ea4d441461019a578163cd3293de1461016e57508063de28735914610147578063e8b8b73f146101295763f0859174146100fe575f80fd5b3461012557816003193601126101255760095490516001600160a01b039091168152602090f35b5080fd5b5034610125578160031936011261012557602090600a549051908152f35b503461012557816003193601126101255790548151911c6001600160a01b03168152602090f35b9050346101965782600319360112610196575490516001600160a01b03909116815260209150f35b8280fd5b5050346101255781600319360112610125576001600160401b0360209254169051908152f35b50503461012557816003193601126101255760085490516001600160a01b039091168152602090f35b9050346101965760209182600319360112610361578135916001600160401b039384841680940361035d578554926102228685166111f8565b879685831c6001600160a01b031691885b815181101561034b5761027d868461024b8486611149565b518851636bf8e80f60e01b815291166001600160401b03168a8201908152336020820152909283918291604090910190565b0381885afa908115610341578c91610314575b506102a35761029e90611106565b610233565b505050509091929394506102b760016111bd565b600685116102d35750505067ffffffffffffffff191617815580f35b5162461bcd60e51b815291820181905260248201527f496e76616c696420636f6e74726f6c20616c6c6f77206c697374206c6576656c604482015260649150fd5b6103349150873d891161033a575b61032c8183611184565b8101906111a5565b5f610290565b503d610322565b86513d8e823e3d90fd5b5050505090919293946102b7906111bd565b8580fd5b8380fd5b8391503461012557610376366110dc565b9390918354936001600160401b03946103908682166111f8565b919586926001600160a01b0392861c83169190845b81518110156107d25786836103ba8385611149565b518a51636bf8e80f60e01b815291166001600160401b031691810191825233602080840191909152918290829081906040010381895afa9182156107c85788926107ab575b50506104135761040e90611106565b6103a5565b5050505090919293945061042760016111bd565b61042f6112d2565b60ff600e54166005811015610798576001036107565785610455600654600a54906112f5565b610460811515611302565b1061072057610471600b548761133f565b92816007541693855163313ce56760e01b81526020818481895afa9081156106b7576104af92916104a99187916106f2575b5061136b565b9061137c565b9582825416803b156106ee57865163439e2e4560e01b8082526001600160a01b0380851686840190815298166020890152604088018b9052969091869183919082908490829060600103925af180156106b7579085916106da575b5050828254168360085416813b1561035d5787518781526001600160a01b0380851686830190815292166020830152604082018b905291869183919082908490829060600103925af180156106b75784929186916106c1575b5050169382825416836009541690863b1561035d5787518381526001600160a01b03918216858201908152919092166020820152604081018990528590829081906060010381838a5af180156106b7579085916106a3575b50506127106105cc6003548961133f565b0483600254169360095416863b1561035d5787519283526001600160a01b0394851693830193845290931660208301526040820192909252829082908190606001038183875af1801561069957610682575b50507fc8a75b1f5d854e3dba63e716ee546b7cdad2f6687fd66a607fca56e33e11a8d46020856106518297600a5461139a565b600a5561066086600c5461139a565b600c5561066f86600d5461139a565b600d558451908152a26001805551908152f35b61068c829161115d565b610696578061061e565b80fd5b84513d84823e3d90fd5b6106ac9061115d565b6103615783896105bb565b87513d87823e3d90fd5b6106cd9192935061115d565b610361578290848a610563565b6106e39061115d565b61036157838961050a565b8480fd5b610713915060203d8111610719575b61070b8183611184565b810190611352565b8b6104a3565b503d610701565b835162461bcd60e51b8152602081850152601060248201526f414d4f554e545f544f4f5f4c4152474560801b6044820152606490fd5b835162461bcd60e51b815260208185018181526010918101919091526f2624a9aa24a723afa727aa2fa7a822a760811b604082015281906060010390fd5b0390fd5b634e487b7160e01b835260218452602483fd5b6107c19250803d1061033a5761032c8183611184565b8c806103ff565b8a513d8a823e3d90fd5b505050509091929394610427906111bd565b50503461012557816003193601126101255760075490516001600160a01b039091168152602090f35b5050346101255781600319360112610125576020906006549051908152f35b919050346101965760209081600319360112610361578235918454926001600160401b039461085c8686166111f8565b87966001600160a01b0396861c871691885b8151811015610a6d576108b887846108868486611149565b518b51636bf8e80f60e01b815291166001600160401b0316888201908152336020820152909283918291604090910190565b0381885afa908115610a63578c91610a46575b506108de576108d990611106565b61086e565b505050509091929394506108f260016111bd565b6108fa6112d2565b610909600654600a54906112f5565b610a145781600d54106109e05780858792541690866005541691876009541690803b156106ee57875163439e2e4560e01b81526001600160a01b0394851693810193845293909116602083015260408201859052839183919082908490829060600103925af180156109d6576109c2575b50507f7fcf532c15f0a6db0bd6d0e038bea71d30d808c7d98cb3bf7268a95bf5081b65936109aa82600d546112f5565b600d5560055416918351928352820152a16001805580f35b6109cb9061115d565b6106ee57845f61097a565b85513d84823e3d90fd5b835162461bcd60e51b8152908101839052600e60248201526d105353d5539517d253959053125160921b6044820152606490fd5b835162461bcd60e51b8152908101839052600c60248201526b2624a9aa24a723afa7a822a760a11b6044820152606490fd5b610a5d9150883d8a1161033a5761032c8183611184565b5f6108cb565b89513d8e823e3d90fd5b5050505090919293946108f2906111bd565b828434610696578060031936011261069657600a5491610aa1836006546112f5565b90600c5490600d549260ff600e5416946005861015610ad8575060a096508151958652602086015284015260608301526080820152f35b634e487b7160e01b815260218852602490fd5b9190503461019657602091826003193601126103615780359160ff83168093036106ee578454936001600160401b0394610b268682166111f8565b879691841c6001600160a01b03169190875b8151811015610c1957610b828584610b508486611149565b518951636bf8e80f60e01b815291166001600160401b03168a8201908152336020820152909283918291604090910190565b0381885afa908115610c0f578b91610bf2575b50610ba857610ba390611106565b610b38565b505050505050909150610bbb60016111bd565b610bc36112d2565b6005821015610bdf575060ff19600e541617600e556001805580f35b634e487b7160e01b835260219052602482fd5b610c099150863d881161033a5761032c8183611184565b5f610b95565b87513d8d823e3d90fd5b5050505050509091610bbb906111bd565b505034610125578160031936011261012557602090600c549051908152f35b505034610125578160031936011261012557602090600d549051908152f35b50503461012557816003193601126101255760055490516001600160a01b039091168152602090f35b83833461012557816003193601126101255760ff600e54169051916005821015610cbd57602083838152f35b634e487b7160e01b815260218452602490fd5b9050823461069657610ce1366110dc565b9390918054906001600160401b0394610cfb8684166111f8565b91956001600160a01b0393879390861c85169190845b815181101561109157610d5d83610d288385611149565b518a51636bf8e80f60e01b815291166001600160401b0316878201908152336020808301919091529283918391829160400190565b0381895afa9182156107c8578892611074575b5050610d8457610d7f90611106565b610d11565b50505050909192939450610d9860016111bd565b610da06112d2565b60ff600e5416600581101590816110615760018114159182611054575b8261102f575b5050610ff057610de2610ddb600654600a54906112f5565b1515611302565b610dee600b548761133f565b816020856009541687519283809263313ce56760e01b82525afa908115610fe657610e2492916104a9918691610fc8575061136b565b948381169380835416928160075416863b1561035d57875163439e2e4560e01b8082526001600160a01b03968716848301908152929096166020830152604082018b9052908690829081906060010381838b5af18015610fa757610fb5575b5081815416826008541690873b15610fb15788518681526001600160a01b03918216848201908152919092166020820152604081018b90528690829081906060010381838b5af18015610fa757908691610f93575b505081815416916009541693823b1561035d5787519081526001600160a01b0393841691810191825293909216602083015260408201879052839183919082908490829060600103925af1801561069957610f7f575b50507fb88e8e937118ac40f5b48d6642015ce560865bba5a8cf26b81123f8891010cb3602085610f618297600a546112f5565b600a55610f7086600c546112f5565b600c5561066f86600d546112f5565b610f89829161115d565b6106965780610f2e565b610f9c9061115d565b6106ee57848a610ed8565b88513d88823e3d90fd5b8680fd5b610fc19095919561115d565b9389610e83565b610fe0915060203d81116107195761070b8183611184565b8a6104a3565b86513d86823e3d90fd5b61079490845191829162461bcd60e51b8352820160609060208152601060208201526f2624a9aa24a723afa727aa2fa7a822a760811b60408201520190565b90915061104157600314158780610dc3565b634e487b7160e01b835260218252602483fd5b5082811415915083610dbd565b634e487b7160e01b845260218352602484fd5b61108a9250803d1061033a5761032c8183611184565b8c80610d70565b505050509091929394610d98906111bd565b505034610125578160031936011261012557602090516127108152f35b849034610125578160031936011261012557602090600b548152f35b6040906003190112611102576004356001600160a01b0381168103611102579060243590565b5f80fd5b5f1981146111145760010190565b634e487b7160e01b5f52601160045260245ffd5b8051156111355760200190565b634e487b7160e01b5f52603260045260245ffd5b80518210156111355760209160051b010190565b6001600160401b03811161117057604052565b634e487b7160e01b5f52604160045260245ffd5b90601f801991011681019081106001600160401b0382111761117057604052565b90816020910312611102575180151581036111025790565b156111c457565b60405162461bcd60e51b815260206004820152600c60248201526b155b985d5d1a1bdc9a5e995960a21b6044820152606490fd5b6001600160401b0390811661123757604051906040820190828210908211176111705760405260018152602036818301375f61123382611128565b5290565b6040519060e0820190811182821017611170576040526006815260c03660208301375f8061126483611128565b528151600110156112be57600160408301528151600210156112be57600260608301528151600310156112be57600360808301528151600410156112be57600560a08301528151600510156112be5750600660c082015290565b634e487b7160e01b81526032600452602490fd5b6002600154146112e3576002600155565b604051633ee5aeb560e01b8152600490fd5b9190820391821161111457565b1561130957565b60405162461bcd60e51b815260206004820152600e60248201526d131254d5125391d7d0d313d4d15160921b6044820152606490fd5b8181029291811591840414171561111457565b90816020910312611102575160ff811681036111025790565b60ff16604d811161111457600a0a90565b8115611386570490565b634e487b7160e01b5f52601260045260245ffd5b919082018092116111145756fea2646970667358221220e9fe2cc576648c013b22d5a5bf2b916ba959a233802cf5102356281dc4dfbf0264736f6c63430008140033","linkReferences":{}},"methodIdentifiers":{"BASE_POINT()":"1135daeb","acl()":"de287359","beneficiary()":"38af3eed","controlAllowList()":"c7ea4d44","getListingStats()":"773a34c3","listed_asset()":"8cc01aa3","max_supply()":"8a333b50","participation_asset()":"b21228e1","purchase(address,uint256)":"8de93222","purchase_asset()":"f0859174","purchase_price()":"085735ae","raised_asset_amount()":"5c2638aa","raised_asset_balance()":"459da60f","reserve()":"cd3293de","returnAsset(address,uint256)":"1b29304c","setControlAllowList(uint64)":"a1d34a42","status()":"200d2ed2","total_distributed()":"e8b8b73f","updateListingStatus(uint8)":"758faedc","withdrawToBeneficiary(uint256)":"85af0261"},"id":45}