{"abi":[{"type":"constructor","inputs":[{"name":"_ltv","type":"uint64","internalType":"uint64"},{"name":"_optimalUtilization","type":"uint64","internalType":"uint64"},{"name":"_baseRate","type":"uint64","internalType":"uint64"},{"name":"_slope1","type":"uint64","internalType":"uint64"},{"name":"_slope2","type":"uint64","internalType":"uint64"},{"name":"_liquidationThreshold","type":"uint64","internalType":"uint64"},{"name":"_liquidationDiscount","type":"uint64","internalType":"uint64"},{"name":"_reserveFactor","type":"uint64","internalType":"uint64"},{"name":"_lending","type":"address","internalType":"address"},{"name":"yieldContract","type":"address","internalType":"address"},{"name":"lendingPool","type":"string","internalType":"string"},{"name":"aclContract","type":"address","internalType":"address"},{"name":"allowList","type":"uint64","internalType":"uint64"}],"stateMutability":"nonpayable"},{"type":"function","name":"BASE_POINT","inputs":[],"outputs":[{"name":"","type":"uint256","internalType":"uint256"}],"stateMutability":"view"},{"type":"function","name":"MAX_INDEX","inputs":[],"outputs":[{"name":"","type":"uint256","internalType":"uint256"}],"stateMutability":"view"},{"type":"function","name":"PRICE_PRECISION","inputs":[],"outputs":[{"name":"","type":"uint256","internalType":"uint256"}],"stateMutability":"view"},{"type":"function","name":"SECONDS_PER_YEAR","inputs":[],"outputs":[{"name":"","type":"uint256","internalType":"uint256"}],"stateMutability":"view"},{"type":"function","name":"acl","inputs":[],"outputs":[{"name":"","type":"address","internalType":"contract AccessController"}],"stateMutability":"view"},{"type":"function","name":"assetMultiplierOracle","inputs":[{"name":"","type":"address","internalType":"address"}],"outputs":[{"name":"","type":"uint256","internalType":"uint256"}],"stateMutability":"view"},{"type":"function","name":"baseRate","inputs":[],"outputs":[{"name":"","type":"uint64","internalType":"uint64"}],"stateMutability":"view"},{"type":"function","name":"borrow","inputs":[{"name":"user","type":"address","internalType":"address"},{"name":"collateralAmount","type":"uint256","internalType":"uint256"},{"name":"collateralAsset","type":"address","internalType":"address"}],"outputs":[],"stateMutability":"nonpayable"},{"type":"function","name":"borrowIndex","inputs":[],"outputs":[{"name":"","type":"uint256","internalType":"uint256"}],"stateMutability":"view"},{"type":"function","name":"calculateCurrentDebt","inputs":[{"name":"userPrincipal","type":"uint256","internalType":"uint256"},{"name":"userBorrowIndex","type":"uint256","internalType":"uint256"}],"outputs":[{"name":"","type":"uint256","internalType":"uint256"}],"stateMutability":"view"},{"type":"function","name":"calculateCurrentDeposit","inputs":[{"name":"userShares","type":"uint256","internalType":"uint256"}],"outputs":[{"name":"","type":"uint256","internalType":"uint256"}],"stateMutability":"view"},{"type":"function","name":"calculateHealthFactor","inputs":[{"name":"collateralValue","type":"uint256","internalType":"uint256"},{"name":"borrowedValue","type":"uint256","internalType":"uint256"}],"outputs":[{"name":"","type":"uint256","internalType":"uint256"}],"stateMutability":"view"},{"type":"function","name":"controlAllowList","inputs":[],"outputs":[{"name":"","type":"uint64","internalType":"uint64"}],"stateMutability":"view"},{"type":"function","name":"deposit","inputs":[{"name":"user","type":"address","internalType":"address"},{"name":"amount","type":"uint256","internalType":"uint256"}],"outputs":[],"stateMutability":"nonpayable"},{"type":"function","name":"getAssetMultiplier","inputs":[{"name":"asset","type":"address","internalType":"address"}],"outputs":[{"name":"","type":"uint256","internalType":"uint256"}],"stateMutability":"view"},{"type":"function","name":"getBorrowRate","inputs":[],"outputs":[{"name":"","type":"uint256","internalType":"uint256"}],"stateMutability":"view"},{"type":"function","name":"getMaxBorrowAmount","inputs":[{"name":"collateralAmount","type":"uint256","internalType":"uint256"},{"name":"collateralAsset","type":"address","internalType":"address"}],"outputs":[{"name":"","type":"uint256","internalType":"uint256"}],"stateMutability":"view"},{"type":"function","name":"getPoolStats","inputs":[],"outputs":[{"name":"totalSupply","type":"uint256","internalType":"uint256"},{"name":"totalBorrow","type":"uint256","internalType":"uint256"},{"name":"availableLiquidity","type":"uint256","internalType":"uint256"},{"name":"utilizationRate","type":"uint256","internalType":"uint256"},{"name":"supplyAPY","type":"uint256","internalType":"uint256"},{"name":"borrowAPY","type":"uint256","internalType":"uint256"}],"stateMutability":"view"},{"type":"function","name":"getReserveAccount","inputs":[],"outputs":[{"name":"","type":"address","internalType":"address"}],"stateMutability":"view"},{"type":"function","name":"getSupplyRate","inputs":[],"outputs":[{"name":"","type":"uint256","internalType":"uint256"}],"stateMutability":"view"},{"type":"function","name":"getTreasuryAccount","inputs":[],"outputs":[{"name":"","type":"address","internalType":"address"}],"stateMutability":"view"},{"type":"function","name":"getUserBorrowPosition","inputs":[{"name":"user","type":"address","internalType":"address"},{"name":"collateralAsset","type":"address","internalType":"address"}],"outputs":[{"name":"principalBorrowed","type":"uint256","internalType":"uint256"},{"name":"currentDebt","type":"uint256","internalType":"uint256"},{"name":"collateralAmount","type":"uint256","internalType":"uint256"},{"name":"healthFactor","type":"uint256","internalType":"uint256"},{"name":"borrowIndex","type":"uint256","internalType":"uint256"}],"stateMutability":"view"},{"type":"function","name":"getUserDepositPosition","inputs":[{"name":"user","type":"address","internalType":"address"}],"outputs":[{"name":"yieldTokenBalance","type":"uint256","internalType":"uint256"},{"name":"underlyingValue","type":"uint256","internalType":"uint256"},{"name":"currentSupplyAPY","type":"uint256","internalType":"uint256"}],"stateMutability":"view"},{"type":"function","name":"getUtilization","inputs":[],"outputs":[{"name":"","type":"uint256","internalType":"uint256"}],"stateMutability":"view"},{"type":"function","name":"isPositionLiquidatable","inputs":[{"name":"user","type":"address","internalType":"address"},{"name":"collateralAsset","type":"address","internalType":"address"}],"outputs":[{"name":"isLiquidatable","type":"bool","internalType":"bool"},{"name":"healthFactor","type":"uint256","internalType":"uint256"}],"stateMutability":"view"},{"type":"function","name":"lastUpdatedTimestamp","inputs":[],"outputs":[{"name":"","type":"uint256","internalType":"uint256"}],"stateMutability":"view"},{"type":"function","name":"lendingAsset","inputs":[],"outputs":[{"name":"","type":"address","internalType":"address"}],"stateMutability":"view"},{"type":"function","name":"liquidate","inputs":[{"name":"liquidator","type":"address","internalType":"address"},{"name":"borrower","type":"address","internalType":"address"},{"name":"debtToCover","type":"uint256","internalType":"uint256"},{"name":"collateralAsset","type":"address","internalType":"address"}],"outputs":[],"stateMutability":"nonpayable"},{"type":"function","name":"liquidationDiscount","inputs":[],"outputs":[{"name":"","type":"uint64","internalType":"uint64"}],"stateMutability":"view"},{"type":"function","name":"liquidationThreshold","inputs":[],"outputs":[{"name":"","type":"uint64","internalType":"uint64"}],"stateMutability":"view"},{"type":"function","name":"ltv","inputs":[],"outputs":[{"name":"","type":"uint64","internalType":"uint64"}],"stateMutability":"view"},{"type":"function","name":"optimalUtilization","inputs":[],"outputs":[{"name":"","type":"uint64","internalType":"uint64"}],"stateMutability":"view"},{"type":"function","name":"repay","inputs":[{"name":"user","type":"address","internalType":"address"},{"name":"collateralizedAsset","type":"address","internalType":"address"},{"name":"repayAmount","type":"uint256","internalType":"uint256"}],"outputs":[],"stateMutability":"nonpayable"},{"type":"function","name":"reserve","inputs":[],"outputs":[{"name":"","type":"address","internalType":"contract CradleAccount"}],"stateMutability":"view"},{"type":"function","name":"reserveFactor","inputs":[],"outputs":[{"name":"","type":"uint64","internalType":"uint64"}],"stateMutability":"view"},{"type":"function","name":"setControlAllowList","inputs":[{"name":"_newLevel","type":"uint64","internalType":"uint64"}],"outputs":[],"stateMutability":"nonpayable"},{"type":"function","name":"slope1","inputs":[],"outputs":[{"name":"","type":"uint64","internalType":"uint64"}],"stateMutability":"view"},{"type":"function","name":"slope2","inputs":[],"outputs":[{"name":"","type":"uint64","internalType":"uint64"}],"stateMutability":"view"},{"type":"function","name":"supplyIndex","inputs":[],"outputs":[{"name":"","type":"uint256","internalType":"uint256"}],"stateMutability":"view"},{"type":"function","name":"totalBorrowed","inputs":[],"outputs":[{"name":"","type":"uint256","internalType":"uint256"}],"stateMutability":"view"},{"type":"function","name":"totalSupplied","inputs":[],"outputs":[{"name":"","type":"uint256","internalType":"uint256"}],"stateMutability":"view"},{"type":"function","name":"treasury","inputs":[],"outputs":[{"name":"","type":"address","internalType":"contract CradleAccount"}],"stateMutability":"view"},{"type":"function","name":"updateBorrowIndex","inputs":[],"outputs":[],"stateMutability":"nonpayable"},{"type":"function","name":"updateIndices","inputs":[],"outputs":[],"stateMutability":"nonpayable"},{"type":"function","name":"updateOracle","inputs":[{"name":"asset","type":"address","internalType":"address"},{"name":"multiplier","type":"uint256","internalType":"uint256"}],"outputs":[],"stateMutability":"nonpayable"},{"type":"function","name":"updateSupplyIndex","inputs":[],"outputs":[],"stateMutability":"nonpayable"},{"type":"function","name":"withdraw","inputs":[{"name":"user","type":"address","internalType":"address"},{"name":"yieldTokenAmount","type":"uint256","internalType":"uint256"}],"outputs":[],"stateMutability":"nonpayable"},{"type":"function","name":"yieldBearingAsset","inputs":[],"outputs":[{"name":"","type":"address","internalType":"contract AbstractCradleAssetManager"}],"stateMutability":"view"},{"type":"event","name":"Borrowed","inputs":[{"name":"user","type":"address","indexed":true,"internalType":"address"},{"name":"collateralAsset","type":"address","indexed":true,"internalType":"address"},{"name":"collateralAmount","type":"uint256","indexed":false,"internalType":"uint256"},{"name":"borrowAmount","type":"uint256","indexed":false,"internalType":"uint256"},{"name":"borrowIndex","type":"uint256","indexed":false,"internalType":"uint256"}],"anonymous":false},{"type":"event","name":"Deposited","inputs":[{"name":"user","type":"address","indexed":true,"internalType":"address"},{"name":"amount","type":"uint256","indexed":false,"internalType":"uint256"},{"name":"yieldTokensMinted","type":"uint256","indexed":false,"internalType":"uint256"}],"anonymous":false},{"type":"event","name":"IndicesUpdated","inputs":[{"name":"newBorrowIndex","type":"uint256","indexed":false,"internalType":"uint256"},{"name":"newSupplyIndex","type":"uint256","indexed":false,"internalType":"uint256"},{"name":"timestamp","type":"uint256","indexed":false,"internalType":"uint256"}],"anonymous":false},{"type":"event","name":"Liquidated","inputs":[{"name":"liquidator","type":"address","indexed":true,"internalType":"address"},{"name":"borrower","type":"address","indexed":true,"internalType":"address"},{"name":"collateralAsset","type":"address","indexed":true,"internalType":"address"},{"name":"debtCovered","type":"uint256","indexed":false,"internalType":"uint256"},{"name":"collateralSeized","type":"uint256","indexed":false,"internalType":"uint256"}],"anonymous":false},{"type":"event","name":"OracleUpdated","inputs":[{"name":"asset","type":"address","indexed":true,"internalType":"address"},{"name":"newMultiplier","type":"uint256","indexed":false,"internalType":"uint256"}],"anonymous":false},{"type":"event","name":"Repaid","inputs":[{"name":"user","type":"address","indexed":true,"internalType":"address"},{"name":"collateralAsset","type":"address","indexed":true,"internalType":"address"},{"name":"repaidAmount","type":"uint256","indexed":false,"internalType":"uint256"},{"name":"principalRepaid","type":"uint256","indexed":false,"internalType":"uint256"},{"name":"interestPaid","type":"uint256","indexed":false,"internalType":"uint256"}],"anonymous":false},{"type":"event","name":"Withdrawn","inputs":[{"name":"user","type":"address","indexed":true,"internalType":"address"},{"name":"yieldTokensBurned","type":"uint256","indexed":false,"internalType":"uint256"},{"name":"underlyingAmount","type":"uint256","indexed":false,"internalType":"uint256"}],"anonymous":false}],"bytecode":{"object":"0x60808060405234620003ae5762004e298038038091620000208285620003b2565b83398101906101a081830312620003ae576200003c81620003d6565b6020926200004c848401620003d6565b936200005b60408501620003d6565b6200006960608601620003d6565b6200007760808701620003d6565b916200008660a08801620003d6565b926200009560c08901620003d6565b92620000a460e08a01620003d6565b91620000b46101008b01620003eb565b9a620000c46101208c01620003eb565b6101408c0151909a906001600160401b038111620003ae578c018a601f82011215620003ae5780516001600160401b03811162000357576040519b62000114601f8301601f19168d018e620003b2565b818d528b8284010111620003ae5762000133918b808e01910162000400565b620001426101608d01620003eb565b9b6001600160401b03906200015b9061018001620003d6565b16600681116200036b575f80546001600160e01b03191690911760408e811b600160401b600160e01b03169190911790915560028054600160a01b600160e01b03191660a09390931b600160a01b600160e01b031692909217909155608093841b600160801b600160c01b0390811696821b6fffffffffffffffff00000000000000009081166001600160401b03948516179790971760c09490941b6001600160c01b0319908116949094176003556004805498831b9097169790931697821697909717959095179290911b16179055600580546001600160a01b03199081166001600160a01b03998a16179091559151919695611f63938484019391929091908411818510176200035757806200027d848862002ec6978989863962000423565b03905ff080156200034c5767747265617375727960c01b95620002d79289602893168b60015416176001556040519782620002c28a9451809285808801910162000400565b830191820152036008810187520185620003b2565b604051938385016001600160401b03811186821017620003575785946200030094863962000423565b03905ff080156200034c578216836002541617600255670de0b6b3a76400008060075560085542600955169060065416176006555f600a555f600b55604051612a5c90816200046a8239f35b6040513d5f823e3d90fd5b634e487b7160e01b5f52604160045260245ffd5b60648a6040519062461bcd60e51b825280600483015260248201527f496e76616c696420636f6e74726f6c20616c6c6f77206c697374206c6576656c6044820152fd5b5f80fd5b601f909101601f19168101906001600160401b038211908210176200035757604052565b51906001600160401b0382168203620003ae57565b51906001600160a01b0382168203620003ae57565b5f5b838110620004125750505f910152565b818101518382015260200162000402565b6040906080600493959495606083526200044d815180928160608701526020858701910162000400565b601f80199101168201019460018060a01b03166020820152015256fe60406080815260049081361015610014575f80fd5b5f91823560e01c90816301f72884146122105781630f47a0e5146107495781631135daeb146121f35781631da649cf14611ca55781631f68f20a14611c7c5781631ffce3f414611c53578163383e217014611c3a5781633de2f6b2146116aa5781634031234c146116835781634322b71414611659578163471b44271461141957816347e7ef24146111b25781634c19386c1461119357816361d027b31461116a5781636290cd1c14611142578163630fd0ac146111235781636558ef11146110e957816367e74dd1146110d05781636c665a5514610d105781636fb49d7314610ce557816371302473146106ef5781637eb7113114610cc85781638053fcbe14610c9f57816384bdc9a814610c825781638a539cbe14610c5e57816395082d2514610c3b57816398f1bc1214610c1c578163a1d34a4214610ab8578163a62b75a814610a8d578163aa5af0fd14610a6e578163ae60d5fc14610a4a578163b42ba5b11461091a578163ba1c5e80146108f6578163bbb8518814610887578163c0919750146107c1578163c7ea4d441461079b578163c95abc2214610772578163cd3293de14610749578163d0134cb714610727578163d28320d6146106ef578163d288043b146106ba578163de28735914610692578163e108f8571461054a578163e6a69ab81461052b578163ed8e3e8f1461050c578163f3fef3a31461027957508063f7866ee3146102515763fbaf894c14610230575f80fd5b3461024d578160031936011261024d576020906009549051908152f35b5080fd5b503461024d578160031936011261024d5760025490516001600160a01b039091168152602090f35b91905034610508578060031936011261050857610294612238565b6024359184546001600160401b03926102ae848316612356565b87966001600160a01b0393909190851c84169088805b82518110156104f557610310896102db83866122a7565b518a51636bf8e80f60e01b815291166001600160401b0316878201908152336020808301919091529283918391829160400190565b0381895afa9182156104eb5784926104be575b50506103375761033290612264565b6102c4565b5093949596979850505061034b600161231b565b610353612603565b670de0b6b3a764000061036860085489612430565b049561038d87600b5461038882610381600a5484612493565b10156129e1565b612493565b600b558460065416803b1561049c57865163393b766560e11b81529189166001600160401b03168383019081526001600160a01b03861660208201528491839182908490829060400103925af180156104b4579083916104a0575b50508360015416908460055416823b1561049c57865163439e2e4560e01b81526001600160a01b0380871693820193845290911660208301526040820188905291839183919082908490829060600103925af180156104925761047a575b50507f92ccf450a286a957af52509bc1c9939d1a6a481783e142e41e2499f0bb66ebc693835195865260208601521692a280f35b610483906122bb565b61048e57855f610446565b8580fd5b85513d84823e3d90fd5b8380fd5b6104a9906122bb565b61024d57815f6103e8565b86513d85823e3d90fd5b6104dd9250803d106104e4575b6104d581836122e2565b810190612303565b5f80610323565b503d6104cb565b8a513d86823e3d90fd5b50939495969798905061034b915061231b565b8280fd5b83346105285780600319360112610528576105256125c5565b80f35b80fd5b50503461024d578160031936011261024d57602090516301e187e08152f35b8391503461024d5760208060031936011261050857610567612238565b6006548551637e062a3560e11b81526001600160a01b039291849082908790829087165afa908115610688579084939291879161064c575b509082602492895197889586946370a0823160e01b86521690840152165afa928315610641579261060f575b505061060b670de0b6b3a76400006105e560085484612430565b04926105ef612535565b9051938493846040919493926060820195825260208201520152565b0390f35b90809250813d831161063a575b61062681836122e2565b81010312610636575182806105cb565b5f80fd5b503d61061c565b8451903d90823e3d90fd5b848193949592503d8311610681575b61066581836122e2565b8101031261048e5751828116810361048e57839291908261059f565b503d61065b565b87513d88823e3d90fd5b50503461024d578160031936011261024d5790548151911c6001600160a01b03168152602090f35b8284346105285760203660031901126105285750670de0b6b3a76400006106e76020936008549035612430565b049051908152f35b50503461024d57602036600319011261024d5760209181906001600160a01b03610717612238565b168152600c845220549051908152f35b50503461024d578160031936011261024d5760209060035460c01c9051908152f35b50503461024d578160031936011261024d5760015490516001600160a01b039091168152602090f35b50503461024d578160031936011261024d5760065490516001600160a01b039091168152602090f35b50503461024d578160031936011261024d576001600160401b0360209254169051908152f35b9050346105085781600319360112610508576001600160a01b036107e361224e565b16808452600c602052816020848620549285519283809263313ce56760e01b82525afa90811561087d57926108366106e79361082f61083b946127109760209a91610850575b506127de565b9235612430565b612443565b6001600160401b0360025460a01c1690612430565b61087091508a3d8111610876575b61086881836122e2565b8101906127c5565b5f610829565b503d61085e565b84513d87823e3d90fd5b50503461024d578160031936011261024d5760c091600b5491600a54918284115f146108f157506108b88284612493565b6108c0612461565b906108c9612535565b926108d26124ad565b94815196875260208701528501526060840152608083015260a0820152f35b6108b8565b50503461024d578160031936011261024d576020906109136124ad565b9051908152f35b90508234610528578260031936011261052857610935612238565b9260243582546001600160401b039461094f868316612356565b949586956001600160a01b0393861c84169190875b8151811015610a165761097b836102db83856122a7565b0381895afa918215610a0c578b926109ef575b50506109a25761099d90612264565b610964565b505050505060209294507f41dd56c92c84169d8e89dc293d2649a911f47b357d3012bc88662395e01979d093956109d9600161231b565b1693848652600c8352818187205551908152a280f35b610a059250803d106104e4576104d581836122e2565b8c8061098e565b8a513d8d823e3d90fd5b50505050507f41dd56c92c84169d8e89dc293d2649a911f47b357d3012bc88662395e01979d093956109d96020949661231b565b50503461024d57602090610913610836610a6336612222565b919060075490612430565b50503461024d578160031936011261024d576020906007549051908152f35b50503461024d578160031936011261024d576020906001600160401b0360035460801c169051908152f35b905034610508576020918260031936011261049c578135916001600160401b039384841680940361048e57855492610af1868516612356565b879685831c6001600160a01b031691885b8151811015610c0a57610b4c8684610b1a84866122a7565b518851636bf8e80f60e01b815291166001600160401b03168a8201908152336020820152909283918291604090910190565b0381885afa908115610c00578c91610be3575b50610b7257610b6d90612264565b610b02565b50505050909192939450610b86600161231b565b60068511610ba25750505067ffffffffffffffff191617815580f35b5162461bcd60e51b815291820181905260248201527f496e76616c696420636f6e74726f6c20616c6c6f77206c697374206c6576656c604482015260649150fd5b610bfa9150873d89116104e4576104d581836122e2565b5f610b5f565b86513d8e823e3d90fd5b505050509091929394610b869061231b565b50503461024d578160031936011261024d576020906008549051908152f35b50503461024d578160031936011261024d5760209051670de0b6b3a76400008152f35b50503461024d578160031936011261024d576020905168056bc75e2d631000008152f35b50503461024d578160031936011261024d57602090610913612535565b828434610528578060031936011261052857506001600160401b0360209254821c169051908152f35b50503461024d578160031936011261024d57602090610913612461565b50503461024d578160031936011261024d576020906001600160401b0360025460a01c169051908152f35b9190503461050857606036600319011261050857610d2c612238565b6001600160a01b0360443581811693919260243590858303610636578754966001600160401b0395610d5f878a16612356565b8a99871c8216908a5b81518110156110bc578c8a610d7d83856122a7565b518b51636bf8e80f60e01b815291166001600160401b031687820190815233602080830191909152908190839081906040010381895afa9283156110b15792611094575b5050610dd557610dd090612264565b610d68565b505050909192939495969750610deb600161231b565b610df3612603565b855163313ce56760e01b8152602097908a90898186818e5afa90811561108a578b6108368b85600c8f610e376127109a98610e4398610e519b9161107357506127de565b9583525220548a612430565b9060025460a01c1690612430565b0494610e6686610381600b54600a5490612493565b865163472a1d0960e11b8152308482019081526001600160a01b038316602082015285841699919082908290819060400103818d5afa908115611069578c9161103c575b5061100357506007548a94939291893b1561048e5788516318d9901d60e11b8152308582019081526001600160a01b0390921660208301526040820189905260608201889052608082019290925285908290819060a0010381838d5af18015610ff957908591610fe5575b5050610f2386600a546124a0565b600a5560015460055482169116803b15610fe157875163439e2e4560e01b81526001600160a01b0394851693810193845293909116602083015260408201869052839183919082908490829060600103925af1801561049257610fcd575b5050610fc77fc1cba78646fef030830d099fc25cb498953709c9d47d883848f81fd207174c9f936007549051938493846040919493926060820195825260208201520152565b0390a380f35b610fd6906122bb565b61048e57855f610f81565b8480fd5b610fee906122bb565b61049c57835f610f15565b88513d87823e3d90fd5b8360649189519162461bcd60e51b83528201526014602482015273115e1a5cdd1a5b99c81d5b9c185a590819195c1d60621b6044820152fd5b90508181813d8311611062575b61105381836122e2565b8101031261063657515f610eaa565b503d611049565b89513d8e823e3d90fd5b6108709150833d85116108765761086881836122e2565b89513d84823e3d90fd5b6110aa9250803d106104e4576104d581836122e2565b5f80610dc1565b8c51903d90823e3d90fd5b5050509091929394959697610deb9061231b565b833461052857806003193601126105285761052561257d565b82843461052857816003193601126105285750611115611107612238565b61110f61224e565b906127ef565b825191151582526020820152f35b50503461024d578160031936011261024d57602090600b549051908152f35b50503461024d578160031936011261024d576020906001600160401b03600354169051908152f35b50503461024d578160031936011261024d5760025490516001600160a01b039091168152602090f35b50503461024d578160031936011261024d57602090600a549051908152f35b919050346105085780600319360112610508576111cd612238565b8354916024356001600160401b036111e6818616612356565b87966001600160a01b0396909190851c871690885b8151811015611407576112478561121283856122a7565b518951636bf8e80f60e01b815291166001600160401b0316868201908152336020808301919091529283918391829160400190565b0381885afa9182156113fd578d926113e0575b505061126e5761126990612264565b6111fb565b50505090919293949550611282600161231b565b61128a612603565b670de0b6b3a76400008084029084820414841517156113cd5790866112b489949360085490612443565b966112c186600b546124a0565b600b5516968060015416816005541690893b1561048e57875163439e2e4560e01b81526001600160a01b03918216858201908152919092166020820152604081018790528590829081906060010381838d5af180156113c3579085916113af575b50506006541690813b1561049c5760448891858094895196879586946339a4ed0560e11b86528501528b1660248401525af180156113a557611391575b50507f73a19dd210f1a7f902193214c0ee91dd35ee5b4d920cba8d519eca65a7b488ca9282519182526020820152a280f35b61139a906122bb565b610fe157845f61135f565b84513d84823e3d90fd5b6113b8906122bb565b61049c57835f611322565b87513d87823e3d90fd5b634e487b7160e01b885260118252602488fd5b6113f69250803d106104e4576104d581836122e2565b5f8061125a565b89513d8f823e3d90fd5b5050509091929394956112829061231b565b905034610508578160031936011261050857611433612238565b9061143c61224e565b835163472a1d0960e11b8152308382019081526001600160a01b0380841660208381019190915292969095929492861693909290918590889081906040010381875afa96871561164f578897611620575b508251622275af60e91b8152308282019081526001600160a01b03841660208201529096908690889081906040010381885afa9687156115aa5789976115f1575b50835163052226ef60e41b8152308382019081526001600160a01b0385166020820152909587918791908290819060400103915afa9485156115aa5789956115c2575b5087156115b457611528876108366007548b612430565b921690858451809263313ce56760e01b825281855afa9081156115aa5761157a92610836868c611566889660a09f96611575979161159357506127de565b938152600c8b52205488612430565b612770565b935b825196875286015284015260608301526080820152f35b61087091508d803d106108765761086881836122e2565b84513d8b823e3d90fd5b50505060a0955f199361157c565b9094508581813d83116115ea575b6115da81836122e2565b810103126106365751935f611511565b503d6115d0565b9096508581813d8311611619575b61160981836122e2565b810103126106365751955f6114ce565b503d6115ff565b9096508481813d8311611648575b61163881836122e2565b810103126106365751955f61148d565b503d61162e565b83513d8a823e3d90fd5b828434610528578060031936011261052857506001600160401b036020925460801c169051908152f35b828434610528578060031936011261052857506001600160401b0360209254169051908152f35b905034610508576080366003190112610508576116c5612238565b916116ce61224e565b91604435906064359260018060a01b039283851695868603610636578854976001600160401b0396611701888b16612356565b8b9a861c8816908b5b8151811015611c25578d8b61171f83856122a7565b518a51636bf8e80f60e01b815291166001600160401b03168b820190815233602080830191909152908190839081906040010381895afa928315611c1a5792611bfd575b50506117775761177290612264565b61170a565b5050509091929394959697985061178e600161231b565b611796612603565b845163313ce56760e01b815260209690878183818e5afa908115611bf357906117c5918d91611bdc57506127de565b988a8c52600c8852868c2054906117e0826108368d8a612430565b835461271092908a1c16820190818311611bc957916118028f93928d93612430565b8a5163472a1d0960e11b8152308782019081526001600160a01b0389166020820152939099169d919004979390918b9085908f908290819060400103915afa938415611bbf578394611b8c575b508c8b8b51809263052226ef60e41b825281806118888c308d840190602090939293604083019460018060a01b03809216845216910152565b03915afa908115611b82578491611b51575b508d8c8c518092622275af60e91b825281806118d38d8d3090840190602090939293604083019460018060a01b03809216845216910152565b03915afa9485156110b15794611b18575b50670de0b6b3a764000092610836611916936118ff93612430565b611910846108366007548098612430565b90612770565b1015611ac6579061192f816108368f979695948a612430565b908b3b1561048e5788516342c8afad60e01b8152308482019081526001600160a01b03861660208201526040810184905260608101899052608081019290925290869082908e9082908490829060a00103925af18015611aa857908691611ab2575b505061199f90600a54612493565b600a5588831698806001541690600554168a3b1561048e57885163439e2e4560e01b8082526001600160a01b0393841685830190815292909316602083015260408201899052908690829081900360600181838f5af18015611aa857908691611a94575b50508a3b15610fe15787519081526001600160a01b03938416918101918252929091166020820152604081018490528290829081906060010381838c5af1801561049257611a7c575b50507fd1ef587d13fefe63f9bc582e973aad46877ef08cfe790838721bd521c53caf56938351928352820152a480f35b611a85906122bb565b611a9057875f611a4c565b8780fd5b611a9d906122bb565b610fe157845f611a03565b89513d88823e3d90fd5b611abb906122bb565b610fe157845f611991565b875162461bcd60e51b81528084018a9052602660248201527f506f736974696f6e20697320206865616c7468792c2063616e6e6f74206c697160448201526575696461746560d01b6064820152608490fd5b919093508b82813d8311611b4a575b611b3181836122e2565b8101031261063657905192670de0b6b3a76400006118e4565b503d611b27565b8094508c8092503d8311611b7b575b611b6a81836122e2565b81010312610636578e92515f61189a565b503d611b60565b8b513d86823e3d90fd5b8b809295508194503d8311611bb8575b611ba681836122e2565b81010312610636578d9151925f61184f565b503d611b9c565b8a513d85823e3d90fd5b634e487b7160e01b8f526011855260248ffd5b6108709150893d8b116108765761086881836122e2565b87513d8e823e3d90fd5b611c139250803d106104e4576104d581836122e2565b5f80611763565b8b51903d90823e3d90fd5b50505090919293949596979861178e9061231b565b8334610528578060031936011261052857610525612603565b50503461024d578160031936011261024d5760055490516001600160a01b039091168152602090f35b50503461024d578160031936011261024d576003548151911c6001600160401b03168152602090f35b90503461050857606036600319011261050857611cc0612238565b91611cc961224e565b845460443593916001600160401b03611ce3818416612356565b88976001600160a01b0394909190871c851690895b81518110156121df578b85611d0d83856122a7565b518b51636bf8e80f60e01b815291166001600160401b03168a820190815233602080830191909152908190839081906040010381895afa9283156110b157926121c2575b5050611d6557611d6090612264565b611cf8565b505050839495969750611d7c60019492939461231b565b611d84612603565b865163472a1d0960e11b8152308782019081526001600160a01b038616602082810191909152939092169790969092909181908890819060400103818b5afa968715612096578a9761218f575b508251622275af60e91b8152308382019081526001600160a01b038716602082015290979082908990819060400103818c5afa978815612185578b98612152575b50835163052226ef60e41b8152308482019081526001600160a01b038816602082015290989083908a90819060400103818d5afa988915612148578c99612115575b5081156120e25760075492611e6d826108368686612430565b8c116120a057508b91610836611e8b856108368f95611e9296612430565b809b612430565b91893b1561024d5784516342c8afad60e01b8152308582019081526001600160a01b0389166020820152604081018b905260608101949094526080840191909152918290819060a0010381838c5af1801561209657612083575b5088908689111561207657612710611f15611f07898c612493565b955b835460801c1686612430565b04611f20818b612493565b91611f2d89600a54612493565b600a5587600154169288600554168b3b1561048e57865163439e2e4560e01b8082526001600160a01b0396871685830190815292909616602083015260408201929092528590829081900360600181838f5af1801561206c57908591612058575b505081611fdd575b5050915197885250506020860193909352604085019290925216917f244fed5b3268b6a17fff986a36f3d87e163ac678d91d552866eb1e74f010f3a6908060608101610fc7565b87600254169288600554168b3b1561048e5786519182526001600160a01b03948516928201928352909316602082015260408101919091528290829081906060010381838c5af1801561204e57612036575b8080611f96565b612042909392936122bb565b611a905790875f61202f565b83513d84823e3d90fd5b612061906122bb565b61049c57835f611f8e565b86513d87823e3d90fd5b612710611f158395611f09565b61208f909991996122bb565b975f611eec565b83513d8c823e3d90fd5b8460649187519162461bcd60e51b8352820152601960248201527f526570617920616d6f756e7420657863656564732064656274000000000000006044820152fd5b5050606492519162461bcd60e51b8352820152600e60248201526d27379030b1ba34bb32903637b0b760911b6044820152fd5b9098508281813d8311612141575b61212d81836122e2565b8101031261213d5751975f611e54565b8b80fd5b503d612123565b85513d8e823e3d90fd5b9097508181813d831161217e575b61216a81836122e2565b8101031261217a5751965f611e12565b8a80fd5b503d612160565b84513d8d823e3d90fd5b9080975081813d83116121bb575b6121a781836122e2565b810103126121b75751955f611dd1565b8980fd5b503d61219d565b6121d89250803d106104e4576104d581836122e2565b5f80611d51565b505050611d7c84959697989492939461231b565b50503461024d578160031936011261024d57602090516127108152f35b50503461024d57602090610913611910365b6040906003190112610636576004359060243590565b600435906001600160a01b038216820361063657565b602435906001600160a01b038216820361063657565b5f1981146122725760010190565b634e487b7160e01b5f52601160045260245ffd5b8051156122935760200190565b634e487b7160e01b5f52603260045260245ffd5b80518210156122935760209160051b010190565b6001600160401b0381116122ce57604052565b634e487b7160e01b5f52604160045260245ffd5b90601f801991011681019081106001600160401b038211176122ce57604052565b90816020910312610636575180151581036106365790565b1561232257565b60405162461bcd60e51b815260206004820152600c60248201526b155b985d5d1a1bdc9a5e995960a21b6044820152606490fd5b6001600160401b0390811661239557604051906040820190828210908211176122ce5760405260018152602036818301375f61239182612286565b5290565b6040519060e08201908111828210176122ce576040526006815260c03660208301375f806123c283612286565b5281516001101561241c576001604083015281516002101561241c576002606083015281516003101561241c576003608083015281516004101561241c57600560a083015281516005101561241c5750600660c082015290565b634e487b7160e01b81526032600452602490fd5b8181029291811591840414171561227257565b811561244d570490565b634e487b7160e01b5f52601260045260245ffd5b600b54801561248e57600a5490612710918281029281840414901517156122725761248b91612443565b90565b505f90565b9190820391821161227257565b9190820180921161227257565b6124b5612461565b6003546001600160401b03808216808410156124ec576124e29061083661248b95848660801c1690612430565b9160401c166124a0565b9192826124f891612493565b61271092830392831161227257818460801c16828560401c1601928284116122725761083661252e9261248b9660c01c90612430565b91166124a0565b61254d612540612461565b6125486124ad565b612430565b6001600160401b0360045460801c1690612710918203918211612272576305f5e1009161257991612430565b0490565b61258960095442612493565b80156125c2576125b990644979cb9e006125b26125a46124ad565b926125486007549485612430565b04906124a0565b60075542600955565b50565b6125d160095442612493565b80156125c2576125fa90644979cb9e006125b26125ec612535565b926125486008549485612430565b60085542600955565b61260f60095442612493565b80156125c25761254861263a6126236124ad565b600754906125b285644979cb9e0095869385612430565b9068056bc75e2d63100000928383116127145761266091836007556125b26125ec612535565b9182116126b857817fa0fadbfbb40d1b4013c553c5deaf84070909c3ed7a9ef092a92d406661bdf9ee92600855426009556126b36040519283924291846040919493926060820195825260208201520152565b0390a1565b60405162461bcd60e51b815260206004820152602e60248201527f537570706c7920696e646578206f766572666c6f77202d20636f6e746163742060448201526d383937ba37b1b7b61030b236b4b760911b6064820152608490fd5b60405162461bcd60e51b815260206004820152602e60248201527f426f72726f7720696e646578206f766572666c6f77202d20636f6e746163742060448201526d383937ba37b1b7b61030b236b4b760911b6064820152608490fd5b81156127be5761278c906001600160401b036004541690612430565b90670de0b6b3a76400009182810292818404149015171561227257612710808202918204036122725761248b91612443565b50505f1990565b90816020910312610636575160ff811681036106365790565b60ff16604d811161227257600a0a90565b6040805163472a1d0960e11b81523060048201526001600160a01b038481166024830152919493929091908116906020908184604481865afa9384156129d7575f946129a8575b50831561299a578651622275af60e91b81523060048201526001600160a01b0386166024820152948286604481875afa958615612932575f9661296b575b50875163052226ef60e41b81523060048201526001600160a01b0382166024820152938390859060449082905afa938415612932575f9461293c575b501693865163313ce56760e01b81528281600481895afa90811561293257610836936129006115759796946108366128f661290d9c9d96600c965f9161291b57506127de565b9860075490612430565b975f52525f205490612430565b670de0b6b3a7640000811091565b6108709150863d88116108765761086881836122e2565b88513d5f823e3d90fd5b90938382813d8311612964575b61295381836122e2565b81010312610528575051925f6128b0565b503d612949565b90958382813d8311612993575b61298281836122e2565b81010312610528575051945f612874565b503d612978565b505f95505f19949350505050565b90938282813d83116129d0575b6129bf81836122e2565b81010312610528575051925f612836565b503d6129b5565b87513d5f823e3d90fd5b156129e857565b60405162461bcd60e51b8152602060048201526016602482015275496e73756666696369656e74206c697175696469747960501b6044820152606490fdfea26469706673582212200e08f79d96262f650232a12a646546c95da67684732a26b69c042cafb3ed4bf564736f6c634300081400336080604052346200029b5762001f63803803806200001d81620002b4565b9283398101906060818303126200029b5780516001600160401b0391908281116200029b57810192601f908082860112156200029b578451928484116200024457602093601f19966200007686898785011601620002b4565b938285528683830101116200029b5785905f5b8381106200029f5750505f918401015280840151906001600160a01b03821682036200029b57604001518581168091036200029b576006811162000258575f549168010000000000000000600160e01b039060401b169163ffffffff60e01b1617175f5560019283805560ff1960035416600355815194851162000244576002548481811c9116801562000239575b828210146200022557838111620001dc575b5080928511600114620001755750839450908392915f9462000169575b50501b915f199060031b1c1916176002555b604051611c889081620002db8239f35b015192505f8062000147565b92948490811660025f52845f20945f905b88838310620001c15750505010620001a8575b505050811b0160025562000159565b01515f1960f88460031b161c191690555f808062000199565b85870151885590960195948501948793509081019062000186565b60025f52815f208480880160051c8201928489106200021b575b0160051c019085905b8281106200020f5750506200012a565b5f8155018590620001ff565b92508192620001f6565b634e487b7160e01b5f52602260045260245ffd5b90607f169062000118565b634e487b7160e01b5f52604160045260245ffd5b6064856040519062461bcd60e51b825280600483015260248201527f496e76616c696420636f6e74726f6c20616c6c6f77206c697374206c6576656c6044820152fd5b5f80fd5b81810183015186820184015287920162000089565b6040519190601f01601f191682016001600160401b03811183821017620002445760405256fe60406080815260048036101561004b575b50361561001b575f80fd5b807f9936746a4565f9766fa768f88f56a7487c78780ac179562773d1c75c5269537e9151338152346020820152a1005b5f90813560e01c90816328cafd721461178557816331b3203a1461146e57816342c8afad146110e9578163431d8ffe14610e8c578163439e2e4514610ed557816344eb5e0014610e8c5781634743c2fd14610e5f57816347e7ef2414610cac57816352226ef014610c8e578163526966011461067e5781635e7db13d14610ad957816369328dec146106c75781638e543a121461067e578163a1d34a4214610515578163a7efe34814610321578163b2567d1f146101ed57508063c7ea4d44146101c7578063dce83ae31461017e578063de287359146101565763e9ea28de0361001057903461015257816003193601126101525760209060ff6003541690519015158152f35b5080fd5b50903461015257816003193601126101525790548151911c6001600160a01b03168152602090f35b5090346101525780600319360112610152578060209261019c61193d565b6101a4611957565b6001600160a01b0391821683526006865283832091168252845220549051908152f35b5090346101525781600319360112610152576001600160401b0360209254169051908152f35b9050823461031d576020908160031936011261031957823591821515809303610315578454936001600160401b0394610227868216611a89565b879691851c6001600160a01b03169190875b815181101561030457610283868461025184866119ed565b518a51636bf8e80f60e01b815291166001600160401b0316888201908152336020820152909283918291604090910190565b0381885afa9081156102fa578b916102cd575b506102a9576102a4906119aa565b610239565b5050505050505090506102bc6001611a4e565b60ff80196003541691161760035580f35b6102ed9150873d89116102f3575b6102e58183611a01565b810190611a36565b8b610296565b503d6102db565b88513d8d823e3d90fd5b50505050505050906102bc90611a4e565b8480fd5b8380fd5b8280fd5b9050823461031d57602091826003193601126103195761033f61193d565b918454936001600160401b0394610357868216611a89565b87966001600160a01b0392851c831691885b8151811015610503576103b386898561038285876119ed565b518b51636bf8e80f60e01b815291166001600160401b03169181019182523360208301529283918291604090910190565b0381885afa9081156104f9578c916104dc575b506103d9576103d4906119aa565b610369565b505050509091929394506103ed6001611a4e565b825163248a35ef60e11b81523085820152941660248501819052938181604481896101675af19182156104d257906016929187926104a5575b505060070b036104595750507fbbbf805ef99ca7d0b7d2cc769719f2a281c9b3331a3642efa75a712e3094a1668280a280f35b5162461bcd60e51b8152915081906104a19082016060906020815260196020820152782330b4b632b2103a379030b9b9b7b1b4b0ba32903a37b5b2b760391b60408201520190565b0390fd5b6104c49250803d106104cb575b6104bc8183611a01565b810190611b63565b8680610426565b503d6104b2565b83513d88823e3d90fd5b6104f39150873d89116102f3576102e58183611a01565b8c6103c6565b88513d8e823e3d90fd5b5050505090919293946103ed90611a4e565b8391503461031d5760209182600319360112610319578135916001600160401b039384841680940361067a5785549261054f868516611a89565b879685831c6001600160a01b031691885b8151811015610668576105aa868461057884866119ed565b518851636bf8e80f60e01b815291166001600160401b03168a8201908152336020820152909283918291604090910190565b0381885afa90811561065e578c91610641575b506105d0576105cb906119aa565b610560565b505050509091929394506105e46001611a4e565b600685116106005750505067ffffffffffffffff191617815580f35b5162461bcd60e51b815291820181905260248201527f496e76616c696420636f6e74726f6c20616c6c6f77206c697374206c6576656c604482015260649150fd5b6106589150873d89116102f3576102e58183611a01565b8c6105bd565b86513d8e823e3d90fd5b5050505090919293946105e490611a4e565b8580fd5b8284346101525780600319360112610152578060209261069c61193d565b6106a4611957565b6001600160a01b0391821683526005865283832091168252845220549051908152f35b8391503461031d57606036600319011261031d576106e361193d565b6001600160a01b0390604435828116919060243590839003610ad5578654956001600160401b0395610716878916611a89565b8998831c871690895b8151811015610ac2578b8a61073483856119ed565b518751636bf8e80f60e01b815291166001600160401b031686820190815233602080830191909152908190839081906040010381895afa928315610ab75792610a9a575b505061078c57610787906119aa565b61071f565b50505090919293949596506107a16001611a4e565b6107a9611b7c565b87546107b6888216611a89565b978998888b93861c16925b8151811015610a87578b836107d683856119ed565b518851636bf8e80f60e01b815291166001600160401b0316878201908152336020808301919091529081908390819060400103818a5afa928315610a7c5792610a5f575b505061082e57610829906119aa565b6107c1565b50505050909192939495506108436001611a4e565b61084b611b7c565b815163e1f21c6760e01b81526001600160a01b038516828201908152306020828101919091526040820186905291979195908890606001039786816101679a818d8d5af1908115610a5557906016918b91610a38575b5060070b036109f2576108b381611bac565b851161099e5788916084879286519485938492630aed65f560e11b8452169b8c888401523060248401528b60448401528960648401525af190811561099457906016918991610977575b5060070b036109365750519081527f645e52ee0ce5c05d60f4b051028f29630be7001f5d84cba67fe6872db872cff89190a36001805580f35b83606492519162461bcd60e51b8352820152601960248201527f4661696c656420746f207472616e7366657220617373657473000000000000006044820152fd5b61098e9150863d88116104cb576104bc8183611a01565b896108fd565b83513d8a823e3d90fd5b835162461bcd60e51b8152808401879052602860248201527f696e73756666696369656e742061737365747320746f20636f6d706c657465206044820152673a3930b739b332b960c11b6064820152608490fd5b835162461bcd60e51b8152806104a18186016060906020815260196020820152782330b4b632b2103a379030b9b9b7b1b4b0ba32903a37b5b2b760391b60408201520190565b610a4f9150883d8a116104cb576104bc8183611a01565b8b6108a1565b85513d8c823e3d90fd5b610a759250803d106102f3576102e58183611a01565b8d8061081a565b8951903d90823e3d90fd5b5050505090919293949561084390611a4e565b610ab09250803d106102f3576102e58183611a01565b8d80610778565b8851903d90823e3d90fd5b505050909192939495966107a190611a4e565b8680fd5b838334610c8b5781600319360112610c8b57610af361193d565b916024359082546001600160401b0394610b0e868316611a89565b949586956001600160a01b0393851c84169190875b8151811015610c79578a83610b3883856119ed565b518951636bf8e80f60e01b815291166001600160401b031691810191825233602080840191909152918290829081906040010381895afa918215610c6f57908d9695949392918c92610c52575b5050610b9e57610b94906119aa565b9091929350610b23565b5050505050909192939450610bb36001611a4e565b1691828452846020528184205494858211610c0f57610bf5827faa3cec92d25e6e7cf3bf119de96782be90a19b7f9d717dc51e03d3f8f8aa22b1959697611b9f565b90858752602052808387205582519182526020820152a280f35b606490602084519162461bcd60e51b8352820152601e60248201527f43616e6e6f7420756e6c6f636b206d6f7265207468616e206c6f636b656400006044820152fd5b610c689250803d106102f3576102e58183611a01565b8d80610b85565b89513d8d823e3d90fd5b505050509091929394610bb390611a4e565b80fd5b8284346101525780600319360112610152578060209261019c61193d565b9050828060031936011261031d57610cc261193d565b815163e1f21c6760e01b81526001600160a01b03821684820190815233602082810191909152602435604083018190529094939092909181906060010390858161016793818b865af1908115610e5557906016918991610e38575b5060070b03610df557835163eca3691760e01b81526001600160a01b03909216868301523360248301523060448301526001600160401b0390921660070b60648201529083908290608490829089905af1908115610deb57906016918691610dce575b5060070b03610d8d578380f35b5162461bcd60e51b815291820152601860248201527f4661696c656420746f207472616e7366657220746f6b656e0000000000000000604482015260649150fd5b610de59150843d86116104cb576104bc8183611a01565b86610d80565b82513d87823e3d90fd5b835162461bcd60e51b8152808701869052601760248201527f4661696c656420746f20617070726f766520746f6b656e0000000000000000006044820152606490fd5b610e4f9150873d89116104cb576104bc8183611a01565b89610d1d565b85513d8a823e3d90fd5b82843461015257602036600319011261015257602090610e85610e8061193d565b611bac565b9051908152f35b82843461015257806003193601126101525780602092610eaa61193d565b610eb2611957565b6001600160a01b0391821683526007865283832091168252845220549051908152f35b9050823461031d57606036600319011261031d57610ef161193d565b90610efa611957565b6044358554926001600160401b0395610f14878616611a89565b88976001600160a01b0396841c871691895b81518110156110d6578b83610f3b83856119ed565b518851636bf8e80f60e01b815291166001600160401b0316878201908152336020808301919091529081908390819060400103818a5afa928315610a7c57926110b9575b5050610f9357610f8e906119aa565b610f26565b5050505090919293949550610fa86001611a4e565b610fb0611b7c565b815163e1f21c6760e01b81526001600160a01b0385168282019081523060208281019190915260408201869052919691959087906060010396868161016799818d8c5af1908115610a5557906016918b9161109c575b5060070b036109f25761101881611bac565b851161099e5781608487928b87519586948593630aed65f560e11b8552169c8d89850152306024850152169a8b60448401528960648401525af190811561099457906016918991610977575060070b036109365750519081527f645e52ee0ce5c05d60f4b051028f29630be7001f5d84cba67fe6872db872cff89190a36001805580f35b6110b39150883d8a116104cb576104bc8183611a01565b8b611006565b6110cf9250803d106102f3576102e58183611a01565b8d80610f7f565b50505050909192939495610fa890611a4e565b8391503461031d576110fa3661196d565b92939591908754936001600160401b0396611116888716611a89565b8a996001600160a01b0397909190871c8816908b5b8151811015611458578d8c61114083856119ed565b518b51636bf8e80f60e01b815291166001600160401b031687820190815233602080830191909152908190839081906040010381895afa92831561144d5792611430575b505061119857611193906119aa565b61112b565b50505086979899506111b1600197929394959697611a4e565b1695868a526020926005845281878c20991698898c52845285878c2054106113f957878b5260058452868b20898c528452868b206111f0878254611b9f565b9055878b5260068452868b20898c528452868b2061120f868254611b9f565b9055878b5260058452868b20898c528452868b20546113e05750868a5260078352858a20888b5283528986812055975b89549061124d818316611a89565b8b9a8c93891c16925b81518110156113cc578c6112a1878561126f85876119ed565b518d51636bf8e80f60e01b815291166001600160401b0316898201908152336020820152909283918291604090910190565b0381895afa9182156113c157916113a4575b506112c6576112c1906119aa565b611256565b5050505090919293949596506112dc6001611a4e565b86885280825284882054808411611362577faa3cec92d25e6e7cf3bf119de96782be90a19b7f9d717dc51e03d3f8f8aa22b1868594936113407fa6f6d5e50bc84f153a0d6a9f9b37780433f92dc32d7e10f975ab3831c36898fa9998978c95611b9f565b90848d52855280828d205581519086825285820152a28351928352820152a380f35b5060649185519162461bcd60e51b8352820152601e60248201527f43616e6e6f7420756e6c6f636b206d6f7265207468616e206c6f636b656400006044820152fd5b6113bb9150873d89116102f3576102e58183611a01565b8e6112b3565b8b51903d90823e3d90fd5b50505050909192939495966112dc90611a4e565b878b5260078452868b20898c528452868b20559761123f565b865162461bcd60e51b815280840185905260116024820152704e6f206c6f616e7320746f20726570617960781b6044820152606490fd5b6114469250803d106102f3576102e58183611a01565b8f80611184565b8c51903d90823e3d90fd5b5050506111b18798999a97929394959697611a4e565b9050823461031d5761147f3661196d565b90939592948754946001600160401b039661149b888816611a89565b8a996001600160a01b0398909190851c8916908b5b8151811015611770578d8c6114c583856119ed565b518951636bf8e80f60e01b815291166001600160401b03168c820190815233602080830191909152908190839081906040010381895afa9283156117655792611748575b505061151d57611518906119aa565b6114b0565b50505087989950611539600198929394959697989a999a611a4e565b1695868a52602091600583528a858120998b83169a8b835285528682206115618a8254611c45565b9055898252600685528682208b83528552868220611580878254611c45565b9055898252600785528682208b83528552878783205581546115a3828216611a89565b90839d84918a1c16935b825182101561172f576115f788856115c585876119ed565b518d51636bf8e80f60e01b815291166001600160401b03168a8201908152336020820152909283918291604090910190565b0381895afa9182156113c15791611712575b5061161d57611617906119aa565b8e6115ad565b5050505061163891929394959697989950610e806001611a4e565b83116116c357917f7695c943e86fe119073b098f1b278727c236f4a661c96a660dacbf88f89c606795939160609593898b52808252838b2061167b848254611c45565b9055898b528152887fb8cecfd0e38e35fdd1cbaa8877116ea7f0dc948c1317b8ce1a47eaedfe64154684808d205481519086825285820152a28251948552840152820152a380f35b60849184519162461bcd60e51b8352820152602560248201527f496e73756666696369656e7420756e6c6f636b65642062616c616e636520746f604482015264206c6f636b60d81b6064820152fd5b6117299150883d8a116102f3576102e58183611a01565b5f611609565b5050505050610e8061163892939495969798999a611a4e565b61175e9250803d106102f3576102e58183611a01565b8f80611509565b8a51903d90823e3d90fd5b505050611539889a9892939495969798611a4e565b8391503461031d578160031936011261031d576117a061193d565b9160243584546001600160401b03946117ba868316611a89565b87966001600160a01b0393861c841691885b815181101561192b5788836117e183856119ed565b518a51636bf8e80f60e01b815291166001600160401b031691810191825233602080840191909152918290829081906040010381895afa918215611921578d92611904575b505061183a57611835906119aa565b6117cc565b5050505090919293945061184e6001611a4e565b61185781611bac565b83116118b357907fb8cecfd0e38e35fdd1cbaa8877116ea7f0dc948c1317b8ce1a47eaedfe641546939291169384865280602052828620611899838254611c45565b90558486526020528185205482519182526020820152a280f35b835162461bcd60e51b8152602081870152602560248201527f496e73756666696369656e7420756e6c6f636b65642062616c616e636520746f604482015264206c6f636b60d81b6064820152608490fd5b61191a9250803d106102f3576102e58183611a01565b8c80611826565b8a513d8f823e3d90fd5b50505050909192939461184e90611a4e565b600435906001600160a01b038216820361195357565b5f80fd5b602435906001600160a01b038216820361195357565b60a0906003190112611953576001600160a01b03906004358281168103611953579160243590811681036119535790604435906064359060843590565b5f1981146119b85760010190565b634e487b7160e01b5f52601160045260245ffd5b8051156119d95760200190565b634e487b7160e01b5f52603260045260245ffd5b80518210156119d95760209160051b010190565b90601f801991011681019081106001600160401b03821117611a2257604052565b634e487b7160e01b5f52604160045260245ffd5b90816020910312611953575180151581036119535790565b15611a5557565b60405162461bcd60e51b815260206004820152600c60248201526b155b985d5d1a1bdc9a5e995960a21b6044820152606490fd5b6001600160401b03908116611ac85760405190604082019082821090821117611a225760405260018152602036818301375f611ac4826119cc565b5290565b6040519060e0820190811182821017611a22576040526006815260c03660208301375f80611af5836119cc565b52815160011015611b4f5760016040830152815160021015611b4f5760026060830152815160031015611b4f5760036080830152815160041015611b4f57600560a0830152815160051015611b4f5750600660c082015290565b634e487b7160e01b81526032600452602490fd5b9081602091031261195357518060070b81036119535790565b600260015414611b8d576002600155565b604051633ee5aeb560e01b8152600490fd5b919082039182116119b857565b60018060a01b03165f90808252600460205260246020604084205492604051928380926370a0823160e01b82523060048301525afa908115611c3a578391611c09575b50808211611c0457611c019250611b9f565b90565b505090565b90506020813d8211611c32575b81611c2360209383611a01565b8101031261031d57515f611bef565b3d9150611c16565b6040513d85823e3d90fd5b919082018092116119b85756fea2646970667358221220ab6aabcc218526f4a6cb9549428b81cc2cbab47d4c13c0421652b3cdefa7422164736f6c63430008140033","linkReferences":{}},"methodIdentifiers":{"BASE_POINT()":"1135daeb","MAX_INDEX()":"8a539cbe","PRICE_PRECISION()":"95082d25","SECONDS_PER_YEAR()":"e6a69ab8","acl()":"de287359","assetMultiplierOracle(address)":"71302473","baseRate()":"1f68f20a","borrow(address,uint256,address)":"6c665a55","borrowIndex()":"aa5af0fd","calculateCurrentDebt(uint256,uint256)":"ae60d5fc","calculateCurrentDeposit(uint256)":"d288043b","calculateHealthFactor(uint256,uint256)":"01f72884","controlAllowList()":"c7ea4d44","deposit(address,uint256)":"47e7ef24","getAssetMultiplier(address)":"d28320d6","getBorrowRate()":"ba1c5e80","getMaxBorrowAmount(uint256,address)":"c0919750","getPoolStats()":"bbb85188","getReserveAccount()":"0f47a0e5","getSupplyRate()":"84bdc9a8","getTreasuryAccount()":"f7866ee3","getUserBorrowPosition(address,address)":"471b4427","getUserDepositPosition(address)":"e108f857","getUtilization()":"7eb71131","isPositionLiquidatable(address,address)":"6558ef11","lastUpdatedTimestamp()":"fbaf894c","lendingAsset()":"1ffce3f4","liquidate(address,address,uint256,address)":"3de2f6b2","liquidationDiscount()":"8053fcbe","liquidationThreshold()":"4031234c","ltv()":"6fb49d73","optimalUtilization()":"6290cd1c","repay(address,address,uint256)":"1da649cf","reserve()":"cd3293de","reserveFactor()":"4322b714","setControlAllowList(uint64)":"a1d34a42","slope1()":"a62b75a8","slope2()":"d0134cb7","supplyIndex()":"98f1bc12","totalBorrowed()":"4c19386c","totalSupplied()":"630fd0ac","treasury()":"61d027b3","updateBorrowIndex()":"67e74dd1","updateIndices()":"383e2170","updateOracle(address,uint256)":"b42ba5b1","updateSupplyIndex()":"ed8e3e8f","withdraw(address,uint256)":"f3fef3a3","yieldBearingAsset()":"c95abc22"},"id":11}