{"abi":[{"type":"constructor","inputs":[{"name":"_ltv","type":"uint64","internalType":"uint64"},{"name":"_optimalUtilization","type":"uint64","internalType":"uint64"},{"name":"_baseRate","type":"uint64","internalType":"uint64"},{"name":"_slope1","type":"uint64","internalType":"uint64"},{"name":"_slope2","type":"uint64","internalType":"uint64"},{"name":"_liquidationThreshold","type":"uint64","internalType":"uint64"},{"name":"_liquidationDiscount","type":"uint64","internalType":"uint64"},{"name":"_reserveFactor","type":"uint64","internalType":"uint64"},{"name":"_lending","type":"address","internalType":"contract AbstractCradleAssetManager"},{"name":"yieldAsset","type":"string","internalType":"string"},{"name":"yieldAssetSymbol","type":"string","internalType":"string"},{"name":"lendingPool","type":"string","internalType":"string"},{"name":"aclContract","type":"address","internalType":"address"},{"name":"allowList","type":"uint64","internalType":"uint64"}],"stateMutability":"nonpayable"},{"type":"function","name":"BASE_POINT","inputs":[],"outputs":[{"name":"","type":"uint256","internalType":"uint256"}],"stateMutability":"view"},{"type":"function","name":"MAX_INDEX","inputs":[],"outputs":[{"name":"","type":"uint256","internalType":"uint256"}],"stateMutability":"view"},{"type":"function","name":"PRICE_PRECISION","inputs":[],"outputs":[{"name":"","type":"uint256","internalType":"uint256"}],"stateMutability":"view"},{"type":"function","name":"SECONDS_PER_YEAR","inputs":[],"outputs":[{"name":"","type":"uint256","internalType":"uint256"}],"stateMutability":"view"},{"type":"function","name":"acl","inputs":[],"outputs":[{"name":"","type":"address","internalType":"contract AccessController"}],"stateMutability":"view"},{"type":"function","name":"assetMultiplierOracle","inputs":[{"name":"","type":"address","internalType":"address"}],"outputs":[{"name":"","type":"uint256","internalType":"uint256"}],"stateMutability":"view"},{"type":"function","name":"baseRate","inputs":[],"outputs":[{"name":"","type":"uint64","internalType":"uint64"}],"stateMutability":"view"},{"type":"function","name":"borrow","inputs":[{"name":"user","type":"address","internalType":"address"},{"name":"collateralAmount","type":"uint256","internalType":"uint256"},{"name":"collateralAsset","type":"address","internalType":"address"}],"outputs":[],"stateMutability":"nonpayable"},{"type":"function","name":"borrowIndex","inputs":[],"outputs":[{"name":"","type":"uint256","internalType":"uint256"}],"stateMutability":"view"},{"type":"function","name":"calculateCurrentDebt","inputs":[{"name":"userPrincipal","type":"uint256","internalType":"uint256"},{"name":"userBorrowIndex","type":"uint256","internalType":"uint256"}],"outputs":[{"name":"","type":"uint256","internalType":"uint256"}],"stateMutability":"view"},{"type":"function","name":"calculateCurrentDeposit","inputs":[{"name":"userShares","type":"uint256","internalType":"uint256"}],"outputs":[{"name":"","type":"uint256","internalType":"uint256"}],"stateMutability":"view"},{"type":"function","name":"calculateHealthFactor","inputs":[{"name":"collateralValue","type":"uint256","internalType":"uint256"},{"name":"borrowedValue","type":"uint256","internalType":"uint256"}],"outputs":[{"name":"","type":"uint256","internalType":"uint256"}],"stateMutability":"view"},{"type":"function","name":"controlAllowList","inputs":[],"outputs":[{"name":"","type":"uint64","internalType":"uint64"}],"stateMutability":"view"},{"type":"function","name":"deposit","inputs":[{"name":"user","type":"address","internalType":"address"},{"name":"amount","type":"uint256","internalType":"uint256"}],"outputs":[],"stateMutability":"nonpayable"},{"type":"function","name":"getAssetMultiplier","inputs":[{"name":"asset","type":"address","internalType":"address"}],"outputs":[{"name":"","type":"uint256","internalType":"uint256"}],"stateMutability":"view"},{"type":"function","name":"getBorrowRate","inputs":[],"outputs":[{"name":"","type":"uint256","internalType":"uint256"}],"stateMutability":"view"},{"type":"function","name":"getMaxBorrowAmount","inputs":[{"name":"collateralAmount","type":"uint256","internalType":"uint256"},{"name":"collateralAsset","type":"address","internalType":"address"}],"outputs":[{"name":"","type":"uint256","internalType":"uint256"}],"stateMutability":"view"},{"type":"function","name":"getPoolStats","inputs":[],"outputs":[{"name":"totalSupply","type":"uint256","internalType":"uint256"},{"name":"totalBorrow","type":"uint256","internalType":"uint256"},{"name":"availableLiquidity","type":"uint256","internalType":"uint256"},{"name":"utilizationRate","type":"uint256","internalType":"uint256"},{"name":"supplyAPY","type":"uint256","internalType":"uint256"},{"name":"borrowAPY","type":"uint256","internalType":"uint256"}],"stateMutability":"view"},{"type":"function","name":"getSupplyRate","inputs":[],"outputs":[{"name":"","type":"uint256","internalType":"uint256"}],"stateMutability":"view"},{"type":"function","name":"getUserBorrowPosition","inputs":[{"name":"user","type":"address","internalType":"address"},{"name":"collateralAsset","type":"address","internalType":"address"}],"outputs":[{"name":"principalBorrowed","type":"uint256","internalType":"uint256"},{"name":"currentDebt","type":"uint256","internalType":"uint256"},{"name":"collateralAmount","type":"uint256","internalType":"uint256"},{"name":"healthFactor","type":"uint256","internalType":"uint256"},{"name":"borrowIndex","type":"uint256","internalType":"uint256"}],"stateMutability":"view"},{"type":"function","name":"getUserDepositPosition","inputs":[{"name":"user","type":"address","internalType":"address"}],"outputs":[{"name":"yieldTokenBalance","type":"uint256","internalType":"uint256"},{"name":"underlyingValue","type":"uint256","internalType":"uint256"},{"name":"currentSupplyAPY","type":"uint256","internalType":"uint256"}],"stateMutability":"view"},{"type":"function","name":"getUtilization","inputs":[],"outputs":[{"name":"","type":"uint256","internalType":"uint256"}],"stateMutability":"view"},{"type":"function","name":"isPositionLiquidatable","inputs":[{"name":"user","type":"address","internalType":"address"},{"name":"collateralAsset","type":"address","internalType":"address"}],"outputs":[{"name":"isLiquidatable","type":"bool","internalType":"bool"},{"name":"healthFactor","type":"uint256","internalType":"uint256"}],"stateMutability":"view"},{"type":"function","name":"lastUpdatedTimestamp","inputs":[],"outputs":[{"name":"","type":"uint256","internalType":"uint256"}],"stateMutability":"view"},{"type":"function","name":"lendingAsset","inputs":[],"outputs":[{"name":"","type":"address","internalType":"contract AbstractCradleAssetManager"}],"stateMutability":"view"},{"type":"function","name":"liquidate","inputs":[{"name":"liquidator","type":"address","internalType":"address"},{"name":"borrower","type":"address","internalType":"address"},{"name":"debtToCover","type":"uint256","internalType":"uint256"},{"name":"collateralAsset","type":"address","internalType":"address"}],"outputs":[],"stateMutability":"nonpayable"},{"type":"function","name":"liquidationDiscount","inputs":[],"outputs":[{"name":"","type":"uint64","internalType":"uint64"}],"stateMutability":"view"},{"type":"function","name":"liquidationThreshold","inputs":[],"outputs":[{"name":"","type":"uint64","internalType":"uint64"}],"stateMutability":"view"},{"type":"function","name":"ltv","inputs":[],"outputs":[{"name":"","type":"uint64","internalType":"uint64"}],"stateMutability":"view"},{"type":"function","name":"optimalUtilization","inputs":[],"outputs":[{"name":"","type":"uint64","internalType":"uint64"}],"stateMutability":"view"},{"type":"function","name":"repay","inputs":[{"name":"user","type":"address","internalType":"address"},{"name":"collateralizedAsset","type":"address","internalType":"address"},{"name":"repayAmount","type":"uint256","internalType":"uint256"}],"outputs":[],"stateMutability":"nonpayable"},{"type":"function","name":"reserve","inputs":[],"outputs":[{"name":"","type":"address","internalType":"contract CradleAccount"}],"stateMutability":"view"},{"type":"function","name":"reserveFactor","inputs":[],"outputs":[{"name":"","type":"uint64","internalType":"uint64"}],"stateMutability":"view"},{"type":"function","name":"setControlAllowList","inputs":[{"name":"_newLevel","type":"uint64","internalType":"uint64"}],"outputs":[],"stateMutability":"nonpayable"},{"type":"function","name":"slope1","inputs":[],"outputs":[{"name":"","type":"uint64","internalType":"uint64"}],"stateMutability":"view"},{"type":"function","name":"slope2","inputs":[],"outputs":[{"name":"","type":"uint64","internalType":"uint64"}],"stateMutability":"view"},{"type":"function","name":"supplyIndex","inputs":[],"outputs":[{"name":"","type":"uint256","internalType":"uint256"}],"stateMutability":"view"},{"type":"function","name":"totalBorrowed","inputs":[],"outputs":[{"name":"","type":"uint256","internalType":"uint256"}],"stateMutability":"view"},{"type":"function","name":"totalSupplied","inputs":[],"outputs":[{"name":"","type":"uint256","internalType":"uint256"}],"stateMutability":"view"},{"type":"function","name":"treasury","inputs":[],"outputs":[{"name":"","type":"address","internalType":"contract CradleAccount"}],"stateMutability":"view"},{"type":"function","name":"updateBorrowIndex","inputs":[],"outputs":[],"stateMutability":"nonpayable"},{"type":"function","name":"updateIndices","inputs":[],"outputs":[],"stateMutability":"nonpayable"},{"type":"function","name":"updateOracle","inputs":[{"name":"asset","type":"address","internalType":"address"},{"name":"multiplier","type":"uint256","internalType":"uint256"}],"outputs":[],"stateMutability":"nonpayable"},{"type":"function","name":"updateSupplyIndex","inputs":[],"outputs":[],"stateMutability":"nonpayable"},{"type":"function","name":"withdraw","inputs":[{"name":"user","type":"address","internalType":"address"},{"name":"yieldTokenAmount","type":"uint256","internalType":"uint256"}],"outputs":[],"stateMutability":"nonpayable"},{"type":"function","name":"yieldBearingAsset","inputs":[],"outputs":[{"name":"","type":"address","internalType":"contract AbstractCradleAssetManager"}],"stateMutability":"view"},{"type":"event","name":"Borrowed","inputs":[{"name":"user","type":"address","indexed":true,"internalType":"address"},{"name":"collateralAsset","type":"address","indexed":true,"internalType":"address"},{"name":"collateralAmount","type":"uint256","indexed":false,"internalType":"uint256"},{"name":"borrowAmount","type":"uint256","indexed":false,"internalType":"uint256"},{"name":"borrowIndex","type":"uint256","indexed":false,"internalType":"uint256"}],"anonymous":false},{"type":"event","name":"Deposited","inputs":[{"name":"user","type":"address","indexed":true,"internalType":"address"},{"name":"amount","type":"uint256","indexed":false,"internalType":"uint256"},{"name":"yieldTokensMinted","type":"uint256","indexed":false,"internalType":"uint256"}],"anonymous":false},{"type":"event","name":"IndicesUpdated","inputs":[{"name":"newBorrowIndex","type":"uint256","indexed":false,"internalType":"uint256"},{"name":"newSupplyIndex","type":"uint256","indexed":false,"internalType":"uint256"},{"name":"timestamp","type":"uint256","indexed":false,"internalType":"uint256"}],"anonymous":false},{"type":"event","name":"Liquidated","inputs":[{"name":"liquidator","type":"address","indexed":true,"internalType":"address"},{"name":"borrower","type":"address","indexed":true,"internalType":"address"},{"name":"collateralAsset","type":"address","indexed":true,"internalType":"address"},{"name":"debtCovered","type":"uint256","indexed":false,"internalType":"uint256"},{"name":"collateralSeized","type":"uint256","indexed":false,"internalType":"uint256"}],"anonymous":false},{"type":"event","name":"OracleUpdated","inputs":[{"name":"asset","type":"address","indexed":true,"internalType":"address"},{"name":"newMultiplier","type":"uint256","indexed":false,"internalType":"uint256"}],"anonymous":false},{"type":"event","name":"Repaid","inputs":[{"name":"user","type":"address","indexed":true,"internalType":"address"},{"name":"collateralAsset","type":"address","indexed":true,"internalType":"address"},{"name":"repaidAmount","type":"uint256","indexed":false,"internalType":"uint256"},{"name":"principalRepaid","type":"uint256","indexed":false,"internalType":"uint256"},{"name":"interestPaid","type":"uint256","indexed":false,"internalType":"uint256"}],"anonymous":false},{"type":"event","name":"Withdrawn","inputs":[{"name":"user","type":"address","indexed":true,"internalType":"address"},{"name":"yieldTokensBurned","type":"uint256","indexed":false,"internalType":"uint256"},{"name":"underlyingAmount","type":"uint256","indexed":false,"internalType":"uint256"}],"anonymous":false},{"type":"error","name":"ReentrancyGuardReentrantCall","inputs":[]}],"bytecode":{"object":"0x60808060405234620004335762007624803803809162000020828562000437565b833981016101c08282031262000433576200003b826200045b565b916200004a602082016200045b565b9062000059604082016200045b565b9362000068606083016200045b565b9462000077608084016200045b565b956200008660a085016200045b565b916200009560c086016200045b565b91620000a460e087016200045b565b610100870151999091906001600160a01b038b168b0362000433576101208801516001600160401b03811162000433578a620000e2918a0162000493565b6101408901519099906001600160401b03811162000433578b62000108918b0162000493565b6101608a0151909b6001600160401b03821162000433576200012c918b0162000493565b6101808a0151999098906001600160a01b038b168b0362000433576001600160401b03906200015f906101a0016200045b565b1660068111620003ef575f80546001600160e01b03191690911760408c811b600160401b600160e01b0316919091179091556001805560038054600160a01b600160e01b03191660a09390931b600160a01b600160e01b031692909217909155608093841b600160801b600160c01b0390811696821b6fffffffffffffffff00000000000000009081166001600160401b03948516179790971760c09490941b6001600160c01b0319908116949094176004556005805498831b9097169790931697821697909717959095179290911b16179055600680546001600160a01b03199081166001600160a01b03999099169890981790559051611f638082019392909190841181851017620003db578062000283868562003171978689863962000515565b03905ff08015620003d05760018060a01b0316876002541617600255620002e1602860405184620002bf82965180926020808601910162000470565b810167747265617375727960c01b602082015203600881018552018362000437565b60405192818401926001600160401b03841185851017620003db5784936200030d938793863962000515565b03905ff08015620003d05760018060a01b0316846003541617600355670de0b6b3a76400008060085560095542600a556040519261255080850185811060018060401b03821117620003db576200038d6001936200037e8897606095620050d48a39608085526080850190620004ee565b908382036020850152620004ee565b93838060a01b03166040820152015203905ff08015620003d05760018060a01b03169060075416176007555f600b555f600c55604051612c2b9081620005468239f35b6040513d5f823e3d90fd5b634e487b7160e01b5f52604160045260245ffd5b606460405162461bcd60e51b815260206004820152602060248201527f496e76616c696420636f6e74726f6c20616c6c6f77206c697374206c6576656c6044820152fd5b5f80fd5b601f909101601f19168101906001600160401b03821190821017620003db57604052565b51906001600160401b03821682036200043357565b5f5b838110620004825750505f910152565b818101518382015260200162000472565b81601f82011215620004335780516001600160401b038111620003db5760405192620004ca601f8301601f19166020018562000437565b818452602082840101116200043357620004eb916020808501910162000470565b90565b90602091620005098151809281855285808601910162000470565b601f01601f1916010190565b60409062000531600493959495606083526060830190620004ee565b6001600160a01b039095166020820152015256fe60406080815260049081361015610014575f80fd5b5f91823560e01c90816301f728841461239d5781631135daeb146123805781631da649cf14611d9e5781631f68f20a14611d755781631ffce3f414611d4c578163383e217014611d335781633de2f6b2146117605781634031234c146117385781634322b7141461170d578163471b4427146114cd57816347e7ef241461120d5781634c19386c146111ee57816361d027b3146111c55781636290cd1c1461119e578163630fd0ac1461117f5781636558ef111461114557816367e74dd11461112c5781636c665a5514610d175781636fb49d7314610cec57816371302473146106f85781637eb7113114610ccf5781638053fcbe14610ca657816384bdc9a814610c895781638a539cbe14610c6557816395082d2514610c4257816398f1bc1214610c23578163a1d34a4214610abf578163a62b75a814610a95578163aa5af0fd14610a76578163ae60d5fc14610a52578163b42ba5b114610922578163ba1c5e80146108fe578163bbb851881461088f578163c0919750146107c9578163c7ea4d44146107a3578163c95abc221461077a578163cd3293de14610751578163d0134cb714610730578163d28320d6146106f8578163d288043b146106c3578163de2873591461069b578163e108f85714610574578163e6a69ab814610555578163ed8e3e8f14610536578163f3fef3a31461023b575063fbaf894c1461021a575f80fd5b34610237578160031936011261023757602090600a549051908152f35b5080fd5b919050346105325780600319360112610532576102566123c5565b6024359184546001600160401b03926102708483166124e3565b87966001600160a01b0393909190851c84169088805b825181101561051f576102d28961029d8386612434565b518a51636bf8e80f60e01b815291166001600160401b0316878201908152336020808301919091529283918391829160400190565b0381895afa9182156105155784926104e8575b50506102f9576102f4906123f1565b610286565b5093949596979850505061030d60016124a8565b610315612b8d565b61031d612790565b670de0b6b3a7640000610332600954896125bd565b049561035787600c546103528261034b600b5484612620565b1015612bb0565b612620565b600c558460075416803b1561048e57865163393b766560e11b81529189166001600160401b03168383019081526001600160a01b03861660208201528491839182908490829060400103925af180156104de579083916104ca575b50508360025416908060208660065416885192838092637e062a3560e11b82525afa9081156104c0578491610492575b50823b1561048e57865163439e2e4560e01b81526001600160a01b0380871693820193845290911660208301526040820188905291839183919082908490829060600103925af180156104845761046c575b50507f92ccf450a286a957af52509bc1c9939d1a6a481783e142e41e2499f0bb66ebc693835195865260208601521692a26001805580f35b61047590612448565b61048057855f610434565b8580fd5b85513d84823e3d90fd5b8380fd5b6104b3915060203d81116104b9575b6104ab818361246f565b810190612952565b5f6103e2565b503d6104a1565b87513d86823e3d90fd5b6104d390612448565b61023757815f6103b2565b86513d85823e3d90fd5b6105079250803d1061050e575b6104ff818361246f565b810190612490565b5f806102e5565b503d6104f5565b8a513d86823e3d90fd5b50939495969798905061030d91506124a8565b8280fd5b833461055257806003193601126105525761054f612752565b80f35b80fd5b505034610237578160031936011261023757602090516301e187e08152f35b8391503461023757602080600319360112610532576105916123c5565b6007548551637e062a3560e11b81526001600160a01b039291849082908790829087165afa9081156106915791836024928695948991610674575b50895197889586946370a0823160e01b86521690840152165afa9283156106695792610637575b5050610633670de0b6b3a764000061060d600954846125bd565b04926106176126c2565b9051938493846040919493926060820195825260208201520152565b0390f35b90809250813d8311610662575b61064e818361246f565b8101031261065e575182806105f3565b5f80fd5b503d610644565b8451903d90823e3d90fd5b61068b9150863d88116104b9576104ab818361246f565b8a6105cc565b87513d88823e3d90fd5b50503461023757816003193601126102375790548151911c6001600160a01b03168152602090f35b8284346105525760203660031901126105525750670de0b6b3a76400006106f060209360095490356125bd565b049051908152f35b5050346102375760203660031901126102375760209181906001600160a01b036107206123c5565b168152600d845220549051908152f35b905034610532578260031936011261053257602092505460c01c9051908152f35b50503461023757816003193601126102375760025490516001600160a01b039091168152602090f35b50503461023757816003193601126102375760075490516001600160a01b039091168152602090f35b5050346102375781600319360112610237576001600160401b0360209254169051908152f35b9050346105325781600319360112610532576001600160a01b036107eb6123db565b16808452600d602052816020848620549285519283809263313ce56760e01b82525afa908115610885579261083e6106f093610837610843946127109760209a91610858575b5061298a565b92356125bd565b6125d0565b6001600160401b0360035460a01c16906125bd565b61087891508a3d811161087e575b610870818361246f565b810190612971565b5f610831565b503d610866565b84513d87823e3d90fd5b50503461023757816003193601126102375760c091600c5491600b54918284115f146108f957506108c08284612620565b6108c86125ee565b906108d16126c2565b926108da61263a565b94815196875260208701528501526060840152608083015260a0820152f35b6108c0565b50503461023757816003193601126102375760209061091b61263a565b9051908152f35b9050823461055257826003193601126105525761093d6123c5565b9260243582546001600160401b03946109578683166124e3565b949586956001600160a01b0393861c84169190875b8151811015610a1e576109838361029d8385612434565b0381895afa918215610a14578b926109f7575b50506109aa576109a5906123f1565b61096c565b505050505060209294507f41dd56c92c84169d8e89dc293d2649a911f47b357d3012bc88662395e01979d093956109e160016124a8565b1693848652600d8352818187205551908152a280f35b610a0d9250803d1061050e576104ff818361246f565b8c80610996565b8a513d8d823e3d90fd5b50505050507f41dd56c92c84169d8e89dc293d2649a911f47b357d3012bc88662395e01979d093956109e1602094966124a8565b5050346102375760209061091b61083e610a6b366123af565b9190600854906125bd565b5050346102375781600319360112610237576020906008549051908152f35b828434610552578060031936011261055257506001600160401b036020925460801c169051908152f35b905034610532576020918260031936011261048e578135916001600160401b039384841680940361048057855492610af88685166124e3565b879685831c6001600160a01b031691885b8151811015610c1157610b538684610b218486612434565b518851636bf8e80f60e01b815291166001600160401b03168a8201908152336020820152909283918291604090910190565b0381885afa908115610c07578c91610bea575b50610b7957610b74906123f1565b610b09565b50505050909192939450610b8d60016124a8565b60068511610ba95750505067ffffffffffffffff191617815580f35b5162461bcd60e51b815291820181905260248201527f496e76616c696420636f6e74726f6c20616c6c6f77206c697374206c6576656c604482015260649150fd5b610c019150873d891161050e576104ff818361246f565b5f610b66565b86513d8e823e3d90fd5b505050509091929394610b8d906124a8565b5050346102375781600319360112610237576020906009549051908152f35b50503461023757816003193601126102375760209051670de0b6b3a76400008152f35b5050346102375781600319360112610237576020905168056bc75e2d631000008152f35b50503461023757816003193601126102375760209061091b6126c2565b5050346102375781600319360112610237576005548151911c6001600160401b03168152602090f35b50503461023757816003193601126102375760209061091b6125ee565b5050346102375781600319360112610237576020906001600160401b0360035460a01c169051908152f35b9190503461053257606036600319011261053257610d336123c5565b6044356001600160a01b038181169391926024359085850361065e578754966001600160401b03610d65818a166124e3565b8a99871c8616908a5b8151811015611118578c84610d838385612434565b518b51636bf8e80f60e01b815291166001600160401b031687820190815233602080830191909152908190839081906040010381895afa92831561110d57926110f0575b5050610ddb57610dd6906123f1565b610d6e565b505050909192939495969750610df160016124a8565b610df9612b8d565b610e01612790565b855163313ce56760e01b8152602091908a90838186818e5afa9081156110e6578b61083e8b85610e426127109896610e5196610e5f99916110cf575061298a565b938152600d895220548a6125bd565b9060035460a01c16906125bd565b0494610e748661034b600c54600b5490612620565b865163472a1d0960e11b8152308482019081526001600160a01b038a16602082015285831699919084908290819060400103818d5afa9081156110c5578c91611098575b5061105e57908a949392916008548a3b1561105a5789516318d9901d60e11b8152308682019081526001600160a01b03939093166020840152604083018a9052606083018990526080830191909152908690829081900360a00181838e5af1801561103c57908691611046575b5050610f3387600b5461262d565b600b558282826002541692600654168a5192838092637e062a3560e11b82525afa92831561103c57869361101d575b5050803b1561101957875163439e2e4560e01b81526001600160a01b0394851693810193845293909116602083015260408201869052839183919082908490829060600103925af1801561048457611005575b5050610ffb7fc1cba78646fef030830d099fc25cb498953709c9d47d883848f81fd207174c9f936008549051938493846040919493926060820195825260208201520152565b0390a36001805580f35b61100e90612448565b61048057855f610fb5565b8480fd5b611034929350803d106104b9576104ab818361246f565b905f80610f62565b89513d88823e3d90fd5b61104f90612448565b61101957845f610f25565b8680fd5b875162461bcd60e51b81528085018490526014602482015273115e1a5cdd1a5b99c81d5b9c185a590819195c1d60621b6044820152606490fd5b90508381813d83116110be575b6110af818361246f565b8101031261065e57515f610eb8565b503d6110a5565b89513d8e823e3d90fd5b61087891508b3d8d1161087e57610870818361246f565b89513d84823e3d90fd5b6111069250803d1061050e576104ff818361246f565b5f80610dc7565b8c51903d90823e3d90fd5b5050509091929394959697610df1906124a8565b833461055257806003193601126105525761054f61270a565b828434610552578160031936011261055257506111716111636123c5565b61116b6123db565b9061299b565b825191151582526020820152f35b505034610237578160031936011261023757602090600c549051908152f35b828434610552578060031936011261055257506001600160401b0360209254169051908152f35b50503461023757816003193601126102375760035490516001600160a01b039091168152602090f35b505034610237578160031936011261023757602090600b549051908152f35b919050346105325780600319360112610532576112286123c5565b8354916024356001600160401b036112418186166124e3565b87966001600160a01b0396909190851c871690885b81518110156114bb576112a28561126d8385612434565b518951636bf8e80f60e01b815291166001600160401b0316868201908152336020808301919091529283918391829160400190565b0381885afa9182156114b1578d92611494575b50506112c9576112c4906123f1565b611256565b505050909192939495506112dd60016124a8565b6112e5612b8d565b6112ed612790565b670de0b6b3a7640000808402908482041484151715611481579086611317899493600954906125d0565b9661132486600c5461262d565b600c55169681816002541660208360065416895193848092637e062a3560e11b82525afa918215611477578692611457575b50893b1561048057875163439e2e4560e01b81526001600160a01b03918216858201908152919092166020820152604081018790528590829081906060010381838d5af1801561144d57908591611439575b50506007541690813b1561048e5760448891858094895196879586946339a4ed0560e11b86528501528b1660248401525af1801561142f5761141b575b50507f73a19dd210f1a7f902193214c0ee91dd35ee5b4d920cba8d519eca65a7b488ca9282519182526020820152a26001805580f35b61142490612448565b61101957845f6113e5565b84513d84823e3d90fd5b61144290612448565b61048e57835f6113a8565b87513d87823e3d90fd5b61147091925060203d81116104b9576104ab818361246f565b905f611356565b88513d88823e3d90fd5b634e487b7160e01b885260118252602488fd5b6114aa9250803d1061050e576104ff818361246f565b5f806112b5565b89513d8f823e3d90fd5b5050509091929394956112dd906124a8565b9050346105325781600319360112610532576114e76123c5565b906114f06123db565b835163472a1d0960e11b8152308382019081526001600160a01b0380841660208381019190915292969095929492861693909290918590889081906040010381875afa9687156117035788976116d4575b508251622275af60e91b8152308282019081526001600160a01b03841660208201529096908690889081906040010381885afa96871561165e5789976116a5575b50835163052226ef60e41b8152308382019081526001600160a01b0385166020820152909587918791908290819060400103915afa94851561165e578995611676575b508715611668576115dc8761083e6008548b6125bd565b921690858451809263313ce56760e01b825281855afa90811561165e5761162e9261083e868c61161a889660a09f966116299791611647575061298a565b938152600d8b522054886125bd565b6128fd565b935b825196875286015284015260608301526080820152f35b61087891508d803d1061087e57610870818361246f565b84513d8b823e3d90fd5b50505060a0955f1993611630565b9094508581813d831161169e575b61168e818361246f565b8101031261065e5751935f6115c5565b503d611684565b9096508581813d83116116cd575b6116bd818361246f565b8101031261065e5751955f611582565b503d6116b3565b9096508481813d83116116fc575b6116ec818361246f565b8101031261065e5751955f611541565b503d6116e2565b83513d8a823e3d90fd5b5050346102375781600319360112610237576020906001600160401b0360055460801c169051908152f35b5050346102375781600319360112610237576020906001600160401b03600554169051908152f35b9050346105325760803660031901126105325761177b6123c5565b916117846123db565b91604435906064359260018060a01b03928385169586860361065e578854976001600160401b03966117b7888b166124e3565b8b9a861c8816908b5b8151811015611d1e578d8b6117d58385612434565b518a51636bf8e80f60e01b815291166001600160401b03168b820190815233602080830191909152908190839081906040010381895afa928315611d135792611cf6575b505061182d57611828906123f1565b6117c0565b5050509091929394959697985061184460016124a8565b61184c612b8d565b611854612790565b845163313ce56760e01b815260209690878183818e5afa908115611cec5790611883918d91611cd5575061298a565b988a8c52600d8852868c20549061189e8261083e8d8a6125bd565b60055461271092908a1c16820190818311611cc257916118c18f93928d936125bd565b8a5163472a1d0960e11b8152308782019081526001600160a01b0389166020820152939099169d919004979390918b9085908f908290819060400103915afa938415611cb8578394611c85575b508c8b8b51809263052226ef60e41b825281806119478c308d840190602090939293604083019460018060a01b03809216845216910152565b03915afa908115611c7b578491611c4a575b508d8c8c518092622275af60e91b825281806119928d8d3090840190602090939293604083019460018060a01b03809216845216910152565b03915afa94851561110d5794611c11575b50670de0b6b3a76400009261083e6119d5936119be936125bd565b6119cf8461083e60085480986125bd565b906128fd565b1015611bbf57906119ee8161083e8f979695948a6125bd565b908b3b156104805788516342c8afad60e01b8152308482019081526001600160a01b03861660208201526040810184905260608101899052608081019290925290869082908e9082908490829060a00103925af1801561103c57908691611bab575b5050611a5e90600b54612620565b600b55888316988189826002541692600654168a5192838092637e062a3560e11b82525afa90811561103c578691611b8e575b508a3b1561048057885163439e2e4560e01b8082526001600160a01b0393841685830190815292909316602083015260408201899052908690829081900360600181838f5af1801561103c57908691611b7a575b50508a3b156110195787519081526001600160a01b03938416918101918252929091166020820152604081018490528290829081906060010381838c5af1801561048457611b62575b50507fd1ef587d13fefe63f9bc582e973aad46877ef08cfe790838721bd521c53caf56938351928352820152a46001805580f35b611b6b90612448565b611b7657875f611b2e565b8780fd5b611b8390612448565b61101957845f611ae5565b611ba591508a3d8c116104b9576104ab818361246f565b5f611a91565b611bb490612448565b61101957845f611a50565b875162461bcd60e51b81528084018a9052602660248201527f506f736974696f6e20697320206865616c7468792c2063616e6e6f74206c697160448201526575696461746560d01b6064820152608490fd5b919093508b82813d8311611c43575b611c2a818361246f565b8101031261065e57905192670de0b6b3a76400006119a3565b503d611c20565b8094508c8092503d8311611c74575b611c63818361246f565b8101031261065e578e92515f611959565b503d611c59565b8b513d86823e3d90fd5b8b809295508194503d8311611cb1575b611c9f818361246f565b8101031261065e578d9151925f61190e565b503d611c95565b8a513d85823e3d90fd5b634e487b7160e01b8f526011855260248ffd5b6108789150893d8b1161087e57610870818361246f565b87513d8e823e3d90fd5b611d0c9250803d1061050e576104ff818361246f565b5f80611819565b8b51903d90823e3d90fd5b505050909192939495969798611844906124a8565b833461055257806003193601126105525761054f612790565b50503461023757816003193601126102375760065490516001600160a01b039091168152602090f35b828434610552578060031936011261055257506001600160401b0360209254821c169051908152f35b90503461053257606036600319011261053257611db96123c5565b91611dc26123db565b845460443593916001600160401b03611ddc8184166124e3565b88976001600160a01b0394909190871c851690895b815181101561236c578b85611e068385612434565b518b51636bf8e80f60e01b815291166001600160401b03168a820190815233602080830191909152908190839081906040010381895afa92831561110d579261234f575b5050611e5e57611e59906123f1565b611df1565b505050839495969750611e756001949293946124a8565b611e7d612b8d565b611e85612790565b865163472a1d0960e11b8152308782019081526001600160a01b03861660208083019190915292909316979096909282908890819060400103818b5afa968715612345578a97612312575b508251622275af60e91b8152308282019081526001600160a01b038716602082015283908290819060400103818c5afa908115612223578b916122e1575b50835163052226ef60e41b8152308382019081526001600160a01b038816602082015290989084908a90819060400103818d5afa9889156122d7578c996122a4575b5080156122705760085491611f698161083e85856125bd565b8c1161222d578c9161083e611f86858f611f8d9561083e916125bd565b809c6125bd565b918a3b156102375785516342c8afad60e01b8152308582019081526001600160a01b038a166020820152604081018c905260608101949094526080840191909152918290819060a0010381838d5af180156122235761220e575b50899190878a1115612201576127106120126120038a8d612620565b965b60055460801c16876125bd565b049061201e828c612620565b9261202b8a600b54612620565b600b55886002541690896006541694875182818681637e062a3560e11b9a8b82525afa9081156121f75788916121da575b508d3b15611b7657885163439e2e4560e01b8082526001600160a01b039586168783019081529290951660208301526040820192909252879082908f9082908490829060600103925af180156121bc579087916121c6575b505083612105575b50509351998a52505050506020860193909352604085019290925216917f244fed5b3268b6a17fff986a36f3d87e163ac678d91d552866eb1e74f010f3a6908060608101610ffb565b896003541694818b6006541691858a518094819382525afa9182156121bc57879261219f575b50508b3b156104805786519182526001600160a01b03948516928201928352909316602082015260408101919091528290829081906060010381838c5af180156121955761217d575b808080806120bc565b61218990939293612448565b611b765790875f612174565b83513d84823e3d90fd5b6121b59250803d106104b9576104ab818361246f565b5f8061212b565b88513d89823e3d90fd5b6121cf90612448565b61048057855f6120b4565b6121f19150833d85116104b9576104ab818361246f565b5f61205c565b89513d8a823e3d90fd5b6127106120128496612005565b61221b909a91929a612448565b98905f611fe7565b84513d8d823e3d90fd5b855162461bcd60e51b8152808501869052601960248201527f526570617920616d6f756e7420657863656564732064656274000000000000006044820152606490fd5b845162461bcd60e51b8152808401859052600e60248201526d27379030b1ba34bb32903637b0b760911b6044820152606490fd5b9098508381813d83116122d0575b6122bc818361246f565b810103126122cc5751975f611f50565b8b80fd5b503d6122b2565b85513d8e823e3d90fd5b90508281813d831161230b575b6122f8818361246f565b8101031261230757515f611f0e565b8a80fd5b503d6122ee565b9096508181813d831161233e575b61232a818361246f565b8101031261233a5751955f611ed0565b8980fd5b503d612320565b83513d8c823e3d90fd5b6123659250803d1061050e576104ff818361246f565b5f80611e4a565b505050611e758495969798949293946124a8565b505034610237578160031936011261023757602090516127108152f35b5050346102375760209061091b6119cf365b604090600319011261065e576004359060243590565b600435906001600160a01b038216820361065e57565b602435906001600160a01b038216820361065e57565b5f1981146123ff5760010190565b634e487b7160e01b5f52601160045260245ffd5b8051156124205760200190565b634e487b7160e01b5f52603260045260245ffd5b80518210156124205760209160051b010190565b6001600160401b03811161245b57604052565b634e487b7160e01b5f52604160045260245ffd5b90601f801991011681019081106001600160401b0382111761245b57604052565b9081602091031261065e5751801515810361065e5790565b156124af57565b60405162461bcd60e51b815260206004820152600c60248201526b155b985d5d1a1bdc9a5e995960a21b6044820152606490fd5b6001600160401b03908116612522576040519060408201908282109082111761245b5760405260018152602036818301375f61251e82612413565b5290565b6040519060e082019081118282101761245b576040526006815260c03660208301375f8061254f83612413565b528151600110156125a957600160408301528151600210156125a957600260608301528151600310156125a957600360808301528151600410156125a957600560a08301528151600510156125a95750600660c082015290565b634e487b7160e01b81526032600452602490fd5b818102929181159184041417156123ff57565b81156125da570490565b634e487b7160e01b5f52601260045260245ffd5b600c54801561261b57600b5490612710918281029281840414901517156123ff57612618916125d0565b90565b505f90565b919082039182116123ff57565b919082018092116123ff57565b6126426125ee565b6004546001600160401b03808216808410156126795761266f9061083e61261895848660801c16906125bd565b9160401c1661262d565b91928261268591612620565b6127109283039283116123ff57818460801c16828560401c1601928284116123ff5761083e6126bb926126189660c01c906125bd565b911661262d565b6126da6126cd6125ee565b6126d561263a565b6125bd565b6001600160401b0360055460801c16906127109182039182116123ff576305f5e10091612706916125bd565b0490565b612716600a5442612620565b801561274f5761274690644979cb9e0061273f61273161263a565b926126d560085494856125bd565b049061262d565b60085542600a55565b50565b61275e600a5442612620565b801561274f5761278790644979cb9e0061273f6127796126c2565b926126d560095494856125bd565b60095542600a55565b61279c600a5442612620565b801561274f576126d56127c76127b061263a565b6008549061273f85644979cb9e00958693856125bd565b9068056bc75e2d63100000928383116128a1576127ed918360085561273f6127796126c2565b91821161284557817fa0fadbfbb40d1b4013c553c5deaf84070909c3ed7a9ef092a92d406661bdf9ee9260095542600a556128406040519283924291846040919493926060820195825260208201520152565b0390a1565b60405162461bcd60e51b815260206004820152602e60248201527f537570706c7920696e646578206f766572666c6f77202d20636f6e746163742060448201526d383937ba37b1b7b61030b236b4b760911b6064820152608490fd5b60405162461bcd60e51b815260206004820152602e60248201527f426f72726f7720696e646578206f766572666c6f77202d20636f6e746163742060448201526d383937ba37b1b7b61030b236b4b760911b6064820152608490fd5b811561294b57612919906001600160401b0360055416906125bd565b90670de0b6b3a7640000918281029281840414901517156123ff57612710808202918204036123ff57612618916125d0565b50505f1990565b9081602091031261065e57516001600160a01b038116810361065e5790565b9081602091031261065e575160ff8116810361065e5790565b60ff16604d81116123ff57600a0a90565b6040805163472a1d0960e11b81523060048201526001600160a01b038481166024830152919493929091908116906020908184604481865afa938415612b83575f94612b54575b508315612b46578651622275af60e91b81523060048201526001600160a01b0386166024820152948286604481875afa958615612ade575f96612b17575b50875163052226ef60e41b81523060048201526001600160a01b0382166024820152938390859060449082905afa938415612ade575f94612ae8575b501693865163313ce56760e01b81528281600481895afa908115612ade5761083e93612aac61162997969461083e612aa2612ab99c9d96600d965f91612ac7575061298a565b98600854906125bd565b975f52525f2054906125bd565b670de0b6b3a7640000811091565b6108789150863d881161087e57610870818361246f565b88513d5f823e3d90fd5b90938382813d8311612b10575b612aff818361246f565b81010312610552575051925f612a5c565b503d612af5565b90958382813d8311612b3f575b612b2e818361246f565b81010312610552575051945f612a20565b503d612b24565b505f95505f19949350505050565b90938282813d8311612b7c575b612b6b818361246f565b81010312610552575051925f6129e2565b503d612b61565b87513d5f823e3d90fd5b600260015414612b9e576002600155565b604051633ee5aeb560e01b8152600490fd5b15612bb757565b60405162461bcd60e51b8152602060048201526016602482015275496e73756666696369656e74206c697175696469747960501b6044820152606490fdfea26469706673582212200dedcd1f7c44f0b201270ea708af017111638d6be2ff738f04d8f87b130a4aa964736f6c634300081400336080604052346200029b5762001f63803803806200001d81620002b4565b9283398101906060818303126200029b5780516001600160401b0391908281116200029b57810192601f908082860112156200029b578451928484116200024457602093601f19966200007686898785011601620002b4565b938285528683830101116200029b5785905f5b8381106200029f5750505f918401015280840151906001600160a01b03821682036200029b57604001518581168091036200029b576006811162000258575f549168010000000000000000600160e01b039060401b169163ffffffff60e01b1617175f5560019283805560ff1960035416600355815194851162000244576002548481811c9116801562000239575b828210146200022557838111620001dc575b5080928511600114620001755750839450908392915f9462000169575b50501b915f199060031b1c1916176002555b604051611c889081620002db8239f35b015192505f8062000147565b92948490811660025f52845f20945f905b88838310620001c15750505010620001a8575b505050811b0160025562000159565b01515f1960f88460031b161c191690555f808062000199565b85870151885590960195948501948793509081019062000186565b60025f52815f208480880160051c8201928489106200021b575b0160051c019085905b8281106200020f5750506200012a565b5f8155018590620001ff565b92508192620001f6565b634e487b7160e01b5f52602260045260245ffd5b90607f169062000118565b634e487b7160e01b5f52604160045260245ffd5b6064856040519062461bcd60e51b825280600483015260248201527f496e76616c696420636f6e74726f6c20616c6c6f77206c697374206c6576656c6044820152fd5b5f80fd5b81810183015186820184015287920162000089565b6040519190601f01601f191682016001600160401b03811183821017620002445760405256fe60406080815260048036101561004b575b50361561001b575f80fd5b807f9936746a4565f9766fa768f88f56a7487c78780ac179562773d1c75c5269537e9151338152346020820152a1005b5f90813560e01c90816328cafd721461178557816331b3203a1461146e57816342c8afad146110e9578163431d8ffe14610e8c578163439e2e4514610ed557816344eb5e0014610e8c5781634743c2fd14610e5f57816347e7ef2414610cac57816352226ef014610c8e578163526966011461067e5781635e7db13d14610ad957816369328dec146106c75781638e543a121461067e578163a1d34a4214610515578163a7efe34814610321578163b2567d1f146101ed57508063c7ea4d44146101c7578063dce83ae31461017e578063de287359146101565763e9ea28de0361001057903461015257816003193601126101525760209060ff6003541690519015158152f35b5080fd5b50903461015257816003193601126101525790548151911c6001600160a01b03168152602090f35b5090346101525780600319360112610152578060209261019c61193d565b6101a4611957565b6001600160a01b0391821683526006865283832091168252845220549051908152f35b5090346101525781600319360112610152576001600160401b0360209254169051908152f35b9050823461031d576020908160031936011261031957823591821515809303610315578454936001600160401b0394610227868216611a89565b879691851c6001600160a01b03169190875b815181101561030457610283868461025184866119ed565b518a51636bf8e80f60e01b815291166001600160401b0316888201908152336020820152909283918291604090910190565b0381885afa9081156102fa578b916102cd575b506102a9576102a4906119aa565b610239565b5050505050505090506102bc6001611a4e565b60ff80196003541691161760035580f35b6102ed9150873d89116102f3575b6102e58183611a01565b810190611a36565b8b610296565b503d6102db565b88513d8d823e3d90fd5b50505050505050906102bc90611a4e565b8480fd5b8380fd5b8280fd5b9050823461031d57602091826003193601126103195761033f61193d565b918454936001600160401b0394610357868216611a89565b87966001600160a01b0392851c831691885b8151811015610503576103b386898561038285876119ed565b518b51636bf8e80f60e01b815291166001600160401b03169181019182523360208301529283918291604090910190565b0381885afa9081156104f9578c916104dc575b506103d9576103d4906119aa565b610369565b505050509091929394506103ed6001611a4e565b825163248a35ef60e11b81523085820152941660248501819052938181604481896101675af19182156104d257906016929187926104a5575b505060070b036104595750507fbbbf805ef99ca7d0b7d2cc769719f2a281c9b3331a3642efa75a712e3094a1668280a280f35b5162461bcd60e51b8152915081906104a19082016060906020815260196020820152782330b4b632b2103a379030b9b9b7b1b4b0ba32903a37b5b2b760391b60408201520190565b0390fd5b6104c49250803d106104cb575b6104bc8183611a01565b810190611b63565b8680610426565b503d6104b2565b83513d88823e3d90fd5b6104f39150873d89116102f3576102e58183611a01565b8c6103c6565b88513d8e823e3d90fd5b5050505090919293946103ed90611a4e565b8391503461031d5760209182600319360112610319578135916001600160401b039384841680940361067a5785549261054f868516611a89565b879685831c6001600160a01b031691885b8151811015610668576105aa868461057884866119ed565b518851636bf8e80f60e01b815291166001600160401b03168a8201908152336020820152909283918291604090910190565b0381885afa90811561065e578c91610641575b506105d0576105cb906119aa565b610560565b505050509091929394506105e46001611a4e565b600685116106005750505067ffffffffffffffff191617815580f35b5162461bcd60e51b815291820181905260248201527f496e76616c696420636f6e74726f6c20616c6c6f77206c697374206c6576656c604482015260649150fd5b6106589150873d89116102f3576102e58183611a01565b8c6105bd565b86513d8e823e3d90fd5b5050505090919293946105e490611a4e565b8580fd5b8284346101525780600319360112610152578060209261069c61193d565b6106a4611957565b6001600160a01b0391821683526005865283832091168252845220549051908152f35b8391503461031d57606036600319011261031d576106e361193d565b6001600160a01b0390604435828116919060243590839003610ad5578654956001600160401b0395610716878916611a89565b8998831c871690895b8151811015610ac2578b8a61073483856119ed565b518751636bf8e80f60e01b815291166001600160401b031686820190815233602080830191909152908190839081906040010381895afa928315610ab75792610a9a575b505061078c57610787906119aa565b61071f565b50505090919293949596506107a16001611a4e565b6107a9611b7c565b87546107b6888216611a89565b978998888b93861c16925b8151811015610a87578b836107d683856119ed565b518851636bf8e80f60e01b815291166001600160401b0316878201908152336020808301919091529081908390819060400103818a5afa928315610a7c5792610a5f575b505061082e57610829906119aa565b6107c1565b50505050909192939495506108436001611a4e565b61084b611b7c565b815163e1f21c6760e01b81526001600160a01b038516828201908152306020828101919091526040820186905291979195908890606001039786816101679a818d8d5af1908115610a5557906016918b91610a38575b5060070b036109f2576108b381611bac565b851161099e5788916084879286519485938492630aed65f560e11b8452169b8c888401523060248401528b60448401528960648401525af190811561099457906016918991610977575b5060070b036109365750519081527f645e52ee0ce5c05d60f4b051028f29630be7001f5d84cba67fe6872db872cff89190a36001805580f35b83606492519162461bcd60e51b8352820152601960248201527f4661696c656420746f207472616e7366657220617373657473000000000000006044820152fd5b61098e9150863d88116104cb576104bc8183611a01565b896108fd565b83513d8a823e3d90fd5b835162461bcd60e51b8152808401879052602860248201527f696e73756666696369656e742061737365747320746f20636f6d706c657465206044820152673a3930b739b332b960c11b6064820152608490fd5b835162461bcd60e51b8152806104a18186016060906020815260196020820152782330b4b632b2103a379030b9b9b7b1b4b0ba32903a37b5b2b760391b60408201520190565b610a4f9150883d8a116104cb576104bc8183611a01565b8b6108a1565b85513d8c823e3d90fd5b610a759250803d106102f3576102e58183611a01565b8d8061081a565b8951903d90823e3d90fd5b5050505090919293949561084390611a4e565b610ab09250803d106102f3576102e58183611a01565b8d80610778565b8851903d90823e3d90fd5b505050909192939495966107a190611a4e565b8680fd5b838334610c8b5781600319360112610c8b57610af361193d565b916024359082546001600160401b0394610b0e868316611a89565b949586956001600160a01b0393851c84169190875b8151811015610c79578a83610b3883856119ed565b518951636bf8e80f60e01b815291166001600160401b031691810191825233602080840191909152918290829081906040010381895afa918215610c6f57908d9695949392918c92610c52575b5050610b9e57610b94906119aa565b9091929350610b23565b5050505050909192939450610bb36001611a4e565b1691828452846020528184205494858211610c0f57610bf5827faa3cec92d25e6e7cf3bf119de96782be90a19b7f9d717dc51e03d3f8f8aa22b1959697611b9f565b90858752602052808387205582519182526020820152a280f35b606490602084519162461bcd60e51b8352820152601e60248201527f43616e6e6f7420756e6c6f636b206d6f7265207468616e206c6f636b656400006044820152fd5b610c689250803d106102f3576102e58183611a01565b8d80610b85565b89513d8d823e3d90fd5b505050509091929394610bb390611a4e565b80fd5b8284346101525780600319360112610152578060209261019c61193d565b9050828060031936011261031d57610cc261193d565b815163e1f21c6760e01b81526001600160a01b03821684820190815233602082810191909152602435604083018190529094939092909181906060010390858161016793818b865af1908115610e5557906016918991610e38575b5060070b03610df557835163eca3691760e01b81526001600160a01b03909216868301523360248301523060448301526001600160401b0390921660070b60648201529083908290608490829089905af1908115610deb57906016918691610dce575b5060070b03610d8d578380f35b5162461bcd60e51b815291820152601860248201527f4661696c656420746f207472616e7366657220746f6b656e0000000000000000604482015260649150fd5b610de59150843d86116104cb576104bc8183611a01565b86610d80565b82513d87823e3d90fd5b835162461bcd60e51b8152808701869052601760248201527f4661696c656420746f20617070726f766520746f6b656e0000000000000000006044820152606490fd5b610e4f9150873d89116104cb576104bc8183611a01565b89610d1d565b85513d8a823e3d90fd5b82843461015257602036600319011261015257602090610e85610e8061193d565b611bac565b9051908152f35b82843461015257806003193601126101525780602092610eaa61193d565b610eb2611957565b6001600160a01b0391821683526007865283832091168252845220549051908152f35b9050823461031d57606036600319011261031d57610ef161193d565b90610efa611957565b6044358554926001600160401b0395610f14878616611a89565b88976001600160a01b0396841c871691895b81518110156110d6578b83610f3b83856119ed565b518851636bf8e80f60e01b815291166001600160401b0316878201908152336020808301919091529081908390819060400103818a5afa928315610a7c57926110b9575b5050610f9357610f8e906119aa565b610f26565b5050505090919293949550610fa86001611a4e565b610fb0611b7c565b815163e1f21c6760e01b81526001600160a01b0385168282019081523060208281019190915260408201869052919691959087906060010396868161016799818d8c5af1908115610a5557906016918b9161109c575b5060070b036109f25761101881611bac565b851161099e5781608487928b87519586948593630aed65f560e11b8552169c8d89850152306024850152169a8b60448401528960648401525af190811561099457906016918991610977575060070b036109365750519081527f645e52ee0ce5c05d60f4b051028f29630be7001f5d84cba67fe6872db872cff89190a36001805580f35b6110b39150883d8a116104cb576104bc8183611a01565b8b611006565b6110cf9250803d106102f3576102e58183611a01565b8d80610f7f565b50505050909192939495610fa890611a4e565b8391503461031d576110fa3661196d565b92939591908754936001600160401b0396611116888716611a89565b8a996001600160a01b0397909190871c8816908b5b8151811015611458578d8c61114083856119ed565b518b51636bf8e80f60e01b815291166001600160401b031687820190815233602080830191909152908190839081906040010381895afa92831561144d5792611430575b505061119857611193906119aa565b61112b565b50505086979899506111b1600197929394959697611a4e565b1695868a526020926005845281878c20991698898c52845285878c2054106113f957878b5260058452868b20898c528452868b206111f0878254611b9f565b9055878b5260068452868b20898c528452868b2061120f868254611b9f565b9055878b5260058452868b20898c528452868b20546113e05750868a5260078352858a20888b5283528986812055975b89549061124d818316611a89565b8b9a8c93891c16925b81518110156113cc578c6112a1878561126f85876119ed565b518d51636bf8e80f60e01b815291166001600160401b0316898201908152336020820152909283918291604090910190565b0381895afa9182156113c157916113a4575b506112c6576112c1906119aa565b611256565b5050505090919293949596506112dc6001611a4e565b86885280825284882054808411611362577faa3cec92d25e6e7cf3bf119de96782be90a19b7f9d717dc51e03d3f8f8aa22b1868594936113407fa6f6d5e50bc84f153a0d6a9f9b37780433f92dc32d7e10f975ab3831c36898fa9998978c95611b9f565b90848d52855280828d205581519086825285820152a28351928352820152a380f35b5060649185519162461bcd60e51b8352820152601e60248201527f43616e6e6f7420756e6c6f636b206d6f7265207468616e206c6f636b656400006044820152fd5b6113bb9150873d89116102f3576102e58183611a01565b8e6112b3565b8b51903d90823e3d90fd5b50505050909192939495966112dc90611a4e565b878b5260078452868b20898c528452868b20559761123f565b865162461bcd60e51b815280840185905260116024820152704e6f206c6f616e7320746f20726570617960781b6044820152606490fd5b6114469250803d106102f3576102e58183611a01565b8f80611184565b8c51903d90823e3d90fd5b5050506111b18798999a97929394959697611a4e565b9050823461031d5761147f3661196d565b90939592948754946001600160401b039661149b888816611a89565b8a996001600160a01b0398909190851c8916908b5b8151811015611770578d8c6114c583856119ed565b518951636bf8e80f60e01b815291166001600160401b03168c820190815233602080830191909152908190839081906040010381895afa9283156117655792611748575b505061151d57611518906119aa565b6114b0565b50505087989950611539600198929394959697989a999a611a4e565b1695868a52602091600583528a858120998b83169a8b835285528682206115618a8254611c45565b9055898252600685528682208b83528552868220611580878254611c45565b9055898252600785528682208b83528552878783205581546115a3828216611a89565b90839d84918a1c16935b825182101561172f576115f788856115c585876119ed565b518d51636bf8e80f60e01b815291166001600160401b03168a8201908152336020820152909283918291604090910190565b0381895afa9182156113c15791611712575b5061161d57611617906119aa565b8e6115ad565b5050505061163891929394959697989950610e806001611a4e565b83116116c357917f7695c943e86fe119073b098f1b278727c236f4a661c96a660dacbf88f89c606795939160609593898b52808252838b2061167b848254611c45565b9055898b528152887fb8cecfd0e38e35fdd1cbaa8877116ea7f0dc948c1317b8ce1a47eaedfe64154684808d205481519086825285820152a28251948552840152820152a380f35b60849184519162461bcd60e51b8352820152602560248201527f496e73756666696369656e7420756e6c6f636b65642062616c616e636520746f604482015264206c6f636b60d81b6064820152fd5b6117299150883d8a116102f3576102e58183611a01565b5f611609565b5050505050610e8061163892939495969798999a611a4e565b61175e9250803d106102f3576102e58183611a01565b8f80611509565b8a51903d90823e3d90fd5b505050611539889a9892939495969798611a4e565b8391503461031d578160031936011261031d576117a061193d565b9160243584546001600160401b03946117ba868316611a89565b87966001600160a01b0393861c841691885b815181101561192b5788836117e183856119ed565b518a51636bf8e80f60e01b815291166001600160401b031691810191825233602080840191909152918290829081906040010381895afa918215611921578d92611904575b505061183a57611835906119aa565b6117cc565b5050505090919293945061184e6001611a4e565b61185781611bac565b83116118b357907fb8cecfd0e38e35fdd1cbaa8877116ea7f0dc948c1317b8ce1a47eaedfe641546939291169384865280602052828620611899838254611c45565b90558486526020528185205482519182526020820152a280f35b835162461bcd60e51b8152602081870152602560248201527f496e73756666696369656e7420756e6c6f636b65642062616c616e636520746f604482015264206c6f636b60d81b6064820152608490fd5b61191a9250803d106102f3576102e58183611a01565b8c80611826565b8a513d8f823e3d90fd5b50505050909192939461184e90611a4e565b600435906001600160a01b038216820361195357565b5f80fd5b602435906001600160a01b038216820361195357565b60a0906003190112611953576001600160a01b03906004358281168103611953579160243590811681036119535790604435906064359060843590565b5f1981146119b85760010190565b634e487b7160e01b5f52601160045260245ffd5b8051156119d95760200190565b634e487b7160e01b5f52603260045260245ffd5b80518210156119d95760209160051b010190565b90601f801991011681019081106001600160401b03821117611a2257604052565b634e487b7160e01b5f52604160045260245ffd5b90816020910312611953575180151581036119535790565b15611a5557565b60405162461bcd60e51b815260206004820152600c60248201526b155b985d5d1a1bdc9a5e995960a21b6044820152606490fd5b6001600160401b03908116611ac85760405190604082019082821090821117611a225760405260018152602036818301375f611ac4826119cc565b5290565b6040519060e0820190811182821017611a22576040526006815260c03660208301375f80611af5836119cc565b52815160011015611b4f5760016040830152815160021015611b4f5760026060830152815160031015611b4f5760036080830152815160041015611b4f57600560a0830152815160051015611b4f5750600660c082015290565b634e487b7160e01b81526032600452602490fd5b9081602091031261195357518060070b81036119535790565b600260015414611b8d576002600155565b604051633ee5aeb560e01b8152600490fd5b919082039182116119b857565b60018060a01b03165f90808252600460205260246020604084205492604051928380926370a0823160e01b82523060048301525afa908115611c3a578391611c09575b50808211611c0457611c019250611b9f565b90565b505090565b90506020813d8211611c32575b81611c2360209383611a01565b8101031261031d57515f611bef565b3d9150611c16565b6040513d85823e3d90fd5b919082018092116119b85756fea2646970667358221220ab6aabcc218526f4a6cb9549428b81cc2cbab47d4c13c0421652b3cdefa7422164736f6c634300081400336080806040523462000701576200255080380380916200002082856200085d565b83398101608082820312620007015781516001600160401b0381116200070157816200004e918401620008c0565b602083015190916001600160401b038211620007015762000071918401620008c0565b604083015190926001600160a01b03821682036200070157606001516001600160401b038116908190036200070157600160208181525f80516020620024708339815191529190915560025f80516020620024908339815191525560045f80516020620025108339815191525560085f80516020620024d08339815191525560105f80516020620024b0833981519152555f80516020620025308339815191525560065f81905260405f80516020620024f0833981519152558111620007fd57600280546001600160e01b03191691909117604092831b600160401b600160e01b0316179055519161012083016001600160401b03811184821017620007e95760405260608352606060208401525f60408401526060808401525f60808401525f60a08401525f60c0840152606060e0840152620001ae6200090d565b91610100928385015283526020830152306040830152620001ce6200090d565b30602082015262786450604082015281830152604051808281011060018060401b038383011117620007e957818101604052600781525f5b60e08110620007cf57506200021a62000978565b505f805260016020525f8051602062002470833981519152546200023d6200093c565b30602082015260405191620002528362000841565b8252602082015262000264826200099c565b5262000270816200099c565b506200027b62000978565b5060015f8190526020525f8051602062002490833981519152546200029f6200093c565b30602082015260405191620002b48362000841565b82526020820152620002c682620009be565b52620002d281620009be565b50620002dd62000978565b5060025f5260016020525f805160206200251083398151915254620003016200093c565b30602082015260405191620003168362000841565b825260208201526200032882620009cf565b526200033481620009cf565b506200033f62000978565b5060035f5260016020525f80516020620024d083398151915254620003636200093c565b30602082015260405191620003788362000841565b825260208201526200038a82620009e0565b526200039681620009e0565b50620003a162000978565b5060045f5260016020525f80516020620024b083398151915254620003c56200093c565b30602082015260405191620003da8362000841565b82526020820152620003ec82620009f1565b52620003f881620009f1565b506200040362000978565b5060055f5260016020525f805160206200253083398151915254620004276200093c565b306020820152604051916200043c8362000841565b825260208201526200044e8262000a02565b526200045a8162000a02565b506200046562000978565b5060065f5260016020525f80516020620024f083398151915254620004896200093c565b306020820152604051916200049e8362000841565b82526020820152620004b08262000a13565b52620004bc8162000a13565b5060e083015280820151805160070b1580620007bf575b620007af575b5060405190630fb65bf360e01b602083015260606024830152620005556200052b62000514855161016060848701526101e486019062000a24565b60208601518582036083190160a487015262000a24565b60408501516001600160a01b031660c485015260608501518482036083190160e486015262000a24565b926080810151151561010484015260a081015160070b61012484015260c0810151151561014484015260e08101519360831984820301610164850152845180825260208201916020808360051b8301019701925f915b8383106200071a575f808962000607818d60408d8d0151805160070b61018485015260018060a01b036020820151166101a4850152015160070b6101c48301528460448301526008606483015203601f1981018352826200085d565b602081519101826101675af13d1562000711573d90620006278262000881565b916200063760405193846200085d565b82523d5f602084013e5b15620007055760408180518101031262000701576020810151908160030b8092036200070157604001516001600160a01b038116919082900362000701576016905b60030b03620006bc57600380546001600160a01b0319166001600160a01b0392909216919091179055604051611a24908162000a4c8239f35b60405162461bcd60e51b815260206004820152601660248201527f4661696c656420746f2063726561746520746f6b656e000000000000000000006044820152606490fd5b5f80fd5b505f6016601562000683565b60609062000641565b9091929397602080600192601f19858203018652818c5180518352015190604083820152815115156040820152848060a01b038383015116606082015260c06200078f62000778604085015160a0608086015260e085019062000a24565b6060850151848203603f190160a086015262000a24565b926080878060a01b03910151169101529a019301930191939290620005ab565b60406276a7009101525f620004d9565b50604081015160070b15620004d3565b602090620007dc62000978565b8282850101520162000206565b634e487b7160e01b5f52604160045260245ffd5b606460405162461bcd60e51b815260206004820152602060248201527f496e76616c696420636f6e74726f6c20616c6c6f77206c697374206c6576656c6044820152fd5b604081019081106001600160401b03821117620007e957604052565b601f909101601f19168101906001600160401b03821190821017620007e957604052565b6001600160401b038111620007e957601f01601f191660200190565b5f5b838110620008af5750505f910152565b81810151838201526020016200089f565b81601f8201121562000701578051620008d98162000881565b92620008e960405194856200085d565b8184526020828401011162000701576200090a91602080850191016200089d565b90565b60405190606082016001600160401b03811183821017620007e9576040525f6040838281528260208201520152565b6040519060a082016001600160401b03811183821017620007e9576040525f608083828152826020820152606060408201526060808201520152565b60405190620009878262000841565b815f81526020620009976200093c565b910152565b805115620009aa5760200190565b634e487b7160e01b5f52603260045260245ffd5b805160011015620009aa5760400190565b805160021015620009aa5760600190565b805160031015620009aa5760800190565b805160041015620009aa5760a00190565b805160051015620009aa5760c00190565b805160061015620009aa5760e00190565b9060209162000a3f815180928185528580860191016200089d565b601f01601f191601019056fe6080604081815260049182361015610015575f80fd5b5f9283803560e01c92836315dacbea14611510575050816331d6ebdf14611324578163618dc65e146111df5781637276ecca14610fc05781637349da0a146109835781639b23d3d9146108cd5781639dbead42146106ca578163a1d34a421461054e578163bef4981314610421578163c7ea4d44146103f9578163de287359146103d0578163fb9d09c8146100de575063fc0c546a146100b3575f80fd5b346100da57816003193601126100da5760035490516001600160a01b039091168152602090f35b5080fd5b9050346103cc576020806003193601126103c8576100fa6115d9565b92600254936001600160401b03906101138287166117a6565b87966001600160a01b039190851c821690885b81518110156103b657610170888a8861013f8587611733565b518b51636bf8e80f60e01b815291166001600160401b03169181019182523360208301529283918291604090910190565b0381875afa9081156103ac578c91610373575b5061019657610191906116f0565b610126565b505050909192939495506101ae600190889291611754565b60035416918451926101bf8461161e565b828452855190858883019363707a02cd60e11b8552608484019260248501521660070b604483015260606064830152845180915260a48201908860a48260051b85010196019185905b8a83831061034157505050505061022981849503601f198101835282611639565b5190826101675af19061023a6116b3565b91156103295781518201906060838684019303126103255761025d8584016116e2565b92610269858201611880565b506060810151918211610321570181603f8201121561032557848101519084866102928461178f565b61029e83519182611639565b848152019260051b8201019283116103215784869101915b83831061030957505050506016905b60030b036102d1578380f35b5162461bcd60e51b815291820152601460248201527311985a5b1959081d1bc81b5a5b9d08185cdcd95d60621b604482015260649150fd5b819061031484611880565b81520191019085906102b6565b8780fd5b8680fd5b50508381516103378161161e565b52601660156102c5565b80919395975061036060019395979960a3198a82030186528851611675565b9601920192018b95939192969496610208565b90508881813d83116103a5575b61038a8183611639565b810103126103a15761039b90611747565b5f610183565b8b80fd5b503d610380565b88513d8e823e3d90fd5b5050506101ae88929394959697611754565b8380fd5b8280fd5b5050346100da57816003193601126100da576002548151911c6001600160a01b03168152602090f35b5050346100da57816003193601126100da576020906001600160401b03600254169051908152f35b919050346103cc57602090816003193601126103c85761043f611568565b91600254936001600160401b03946104588682166117a6565b879691851c6001600160a01b03169190875b815181101561053b576104b486846104828486611733565b518a51636bf8e80f60e01b815291166001600160401b0316888201908152336020820152909283918291604090910190565b0381885afa908115610531578b916104f8575b506104da576104d5906116f0565b61046a565b505050505050506104f591506104f06001611754565b61188e565b80f35b90508681813d831161052a575b61050f8183611639565b810103126105265761052090611747565b5f6104c7565b8a80fd5b503d610505565b88513d8d823e3d90fd5b505050505050506104f06104f592611754565b919050346103cc576020806003193601126103c85761056b6115d9565b92600254916001600160401b036105838185166117a6565b87969085871c6001600160a01b031690885b81518110156106b8576105df86866105ad8486611733565b518c51636bf8e80f60e01b815291166001600160401b03168a8201908152336020820152909283918291604090910190565b0381875afa9081156106ae578c91610679575b5061060557610600906116f0565b610595565b505050909192939495506106196001611754565b1693600685116106385750505067ffffffffffffffff19161760025580f35b5162461bcd60e51b815291820181905260248201527f496e76616c696420636f6e74726f6c20616c6c6f77206c697374206c6576656c604482015260649150fd5b90508681813d83116106a7575b6106908183611639565b810103126103a1576106a190611747565b5f6105f2565b503d610686565b8a513d8e823e3d90fd5b50505090919293949561061990611754565b9050346103cc576020806003193601126103c8576106e66115d9565b92600254936001600160401b03906106ff8287166117a6565b87966001600160a01b039190851c821690885b81518110156108bb5761072b888a8861013f8587611733565b0381875afa9081156103ac578c91610886575b506107515761074c906116f0565b610712565b50969750949550929350918691906107696001611754565b600354168451936107798561161e565b83855285519187830193636b48868360e11b85526084840191602485015260079216820b60448401526060606484015285518091528760a4840196019185905b898383106108695750505050506107da81849503601f198101835282611639565b5190826101675af16107ea6116b3565b901561085f57818180518101031261085b57806108158361080e86601695016116e2565b9201611880565b505b60030b03610823578380f35b5162461bcd60e51b815291820152601460248201527311985a5b1959081d1bc8189d5c9b88185cdcd95d60621b604482015260649150fd5b8480fd5b5060166015610817565b8451820b8952978801978c975090930192600191909101906107b9565b90508881813d83116108b4575b61089d8183611639565b810103126103a1576108ae90611747565b5f61073e565b503d610893565b50505061076988939294959697611754565b5050346100da5781806109366109286108e536611582565b8851639b23d3d960e01b602082019081526001600160a01b03958616602483015293851660448201529390911660648401526084830152929091829060a4820190565b03601f198101835282611639565b5190826101675af1916109476116b3565b921561097657602083805181010312610973575061096860208093016116e2565b905b519060030b8152f35b80fd5b506020915060159061096a565b8284346109735781600319360112610973579061099e611568565b926109a76115c3565b90600254936001600160401b0391828616956109c2876117a6565b958397849760018060a01b038094841c16985b8151811015610fab5785886109ea8385611733565b518651636bf8e80f60e01b815291166001600160401b03169181019182523360208084019190915291829082908e908290819060400103915afa918215610f59578992610f75575b5050610a4657610a41906116f0565b6109d5565b5050610a63919293949596979850610a5e6001611754565b6117a6565b968497855b8151811015610f6357610ab488610a7f8385611733565b518651636bf8e80f60e01b815291166001600160401b0316888201908152336020808301919091529283918391829160400190565b0381885afa918215610f59578992610f23575b5050610adb57610ad6906116f0565b610a68565b50505090919293949550610aef6001611754565b848260035416961660070b95815192610b078461161e565b8584528251866020958683019463707a02cd60e11b8652608484019060248501528b604485015260606064850152815180915260a48401908860a48260051b87010193019184905b8a838310610ef657505050505091610b7181839403601f198101835282611639565b516101679482865af1610b826116b3565b9015610edf578051810160608287830192031261032157610ba48683016116e2565b91610bb0868201611880565b506060810151908a8211610ed7570181603f82011215610edb5786810151908688610bda8461178f565b610be683519182611639565b848152019260051b820101928311610ed75786889101915b838310610ebf57505050506016905b60030b03610e855760025497610c24888a166117a6565b988799838992871c16915b8151811015610e7157610c48888a8d61013f8587611733565b0381875afa908115610531578b91610e3c575b50610c6e57610c69906116f0565b610c2f565b505050909192939495969750610c846001611754565b610c8d8961188e565b600254610c9b8982166117a6565b988899848a93881c16925b8151811015610e2657610cf0898b85610cbf8587611733565b518c51636bf8e80f60e01b815291166001600160401b03169181019182523360208301529283918291604090910190565b0381885afa908115610e1c578c91610de7575b50610d1657610d11906116f0565b610ca6565b505050508698879597949698508491610d2f6001611754565b8360035416938851928a84019563eca3691760e01b87526024850152306044850152166064830152608482015260848152610d69816115ef565b51925af1610d756116b3565b9015610ddd57828180518101031261085b57610d9483601692016116e2565b60030b03610da0578380f35b5162461bcd60e51b81529182015260196024820152784661696c656420746f207472616e7366657220746f6b656e7360381b604482015260649150fd5b5060166015610d94565b90508981813d8311610e15575b610dfe8183611639565b810103126103a157610e0f90611747565b8e610d03565b503d610df4565b89513d8e823e3d90fd5b50505050958098819597610d2f8396989a611754565b90508881813d8311610e6a575b610e538183611639565b8101031261052657610e6490611747565b8e610c5b565b503d610e49565b5050509091929394959697610c8490611754565b50505162461bcd60e51b815291820152601460248201527311985a5b1959081d1bc81b5a5b9d08185cdcd95d60621b604482015260649150fd5b8190610eca84611880565b8152019101908790610bfe565b8980fd5b8880fd5b50858351610eec8161161e565b5260166015610c0d565b600192949650610f138192949660a3198a82030186528851611675565b9601920192018b94939192610b4f565b90809250813d8311610f52575b610f3a8183611639565b8101031261032157610f4b90611747565b8c80610ac7565b503d610f30565b86513d8b823e3d90fd5b505050909192939495610aef90611754565b90809250813d8311610fa4575b610f8c8183611639565b8101031261032157610f9d90611747565b8d80610a32565b503d610f82565b5050610a5e610a639293949596979899611754565b9050346103cc57816003193601126103cc57610fda6115d9565b6001600160a01b039290602435848116908190036111db57600254946001600160401b039061100a8288166117a6565b8897861c821690885b81518110156111ca5788856110288385611733565b518a51636bf8e80f60e01b815291166001600160401b031691810191825233602080840191909152918290829081906040010381885afa9182156111c0578d9261118a575b50506110815761107c906116f0565b611013565b505050819293949596506110956001611754565b6003541693855193602085019563efef57f960e01b8752602486015260448501521660070b60648301526064825260a082019082821090821117611177578352518491829190826101675af16110e96116b3565b901561116d576020818051810103126103c85761110a6020601692016116e2565b60030b03611116578280f35b906020608492519162461bcd60e51b8352820152602b60248201527f4661696c656420746f20776970652061737365742066726f6d2074686520757360448201526a195c9cc81858d8dbdd5b9d60aa1b6064820152fd5b506016601561110a565b634e487b7160e01b865260418552602486fd5b90809250813d83116111b9575b6111a18183611639565b810103126103a1576111b290611747565b5f8061106d565b503d611197565b8a513d8f823e3d90fd5b505050611095829394959697611754565b8580fd5b839150346100da57826003193601126100da576111fa611568565b90602435906001600160401b0382116103c857366023830112156103c8578101356112248161165a565b9161123186519384611639565b818352366024838301011161085b576112918594929385602086829760246109289701838601378301015287516330c6e32f60e11b602082019081526001600160a01b039095166024820152604481018990529283916064830190611675565b5190826101675af1906112a26116b3565b917f4af4780e06fe8cb9df64b0794fa6f01399af979175bb988e35e0e57e594567bc84518215158152856020820152806112de87820187611675565b0390a11561130a57506113066016915b835193849360030b8452806020850152830190611675565b0390f35b825191506113178261161e565b81526113066015916112ee565b9050823461097357826003193601126109735761133f611568565b916113486115c3565b936002546001600160401b03946113608683166117a6565b949586956001600160a01b0393851c841690875b81518110156114fd5787846113898385611733565b518951636bf8e80f60e01b815291166001600160401b031691810191825233602080840191909152918290829081906040010381885afa9182156114f3578b926114bd575b50506113e2576113dd906116f0565b611374565b5050508597869597506113f86001979597611754565b836003541693875193602085019563eca3691760e01b875260248601523060448601521660648401521660070b608482015260848152611437816115ef565b5190826101675af16114476116b3565b90156114b3576020818051810103126103c8576114686020601692016116e2565b60030b03611474578280f35b906020606492519162461bcd60e51b835282015260196024820152784661696c656420746f207472616e7366657220746f6b656e7360381b6044820152fd5b5060166015611468565b90809250813d83116114ec575b6114d48183611639565b81010312610ed7576114e590611747565b8c806113ce565b503d6114ca565b89513d8d823e3d90fd5b50505085976113f8879698979597611754565b818591346100da5761092881610936849361152a36611582565b630aed65f560e11b602086019081526001600160a01b03948516602487015292841660448601529216606484015260848301919091529360a4820190565b600435906001600160a01b038216820361157e57565b5f80fd5b608090600319011261157e576001600160a01b03600435818116810361157e5791602435828116810361157e5791604435908116810361157e579060643590565b602435906001600160401b038216820361157e57565b600435906001600160401b038216820361157e57565b60c081019081106001600160401b0382111761160a57604052565b634e487b7160e01b5f52604160045260245ffd5b602081019081106001600160401b0382111761160a57604052565b90601f801991011681019081106001600160401b0382111761160a57604052565b6001600160401b03811161160a57601f01601f191660200190565b91908251928382525f5b84811061169f575050825f602080949584010152601f8019910116010190565b60208183018101518483018201520161167f565b3d156116dd573d906116c48261165a565b916116d26040519384611639565b82523d5f602084013e565b606090565b51908160030b820361157e57565b5f1981146116fe5760010190565b634e487b7160e01b5f52601160045260245ffd5b80511561171f5760200190565b634e487b7160e01b5f52603260045260245ffd5b805182101561171f5760209160051b010190565b5190811515820361157e57565b1561175b57565b60405162461bcd60e51b815260206004820152600c60248201526b155b985d5d1a1bdc9a5e995960a21b6044820152606490fd5b6001600160401b03811161160a5760051b60200190565b6001600160401b039081166117e5576040519060408201908282109082111761160a5760405260018152602036818301375f6117e182611712565b5290565b6040519060e082019081118282101761160a576040526006815260c03660208301375f8061181283611712565b5281516001101561186c576001604083015281516002101561186c576002606083015281516003101561186c576003608083015281516004101561186c57600560a083015281516005101561186c5750600660c082015290565b634e487b7160e01b81526032600452602490fd5b51908160070b820361157e57565b600354604051633cb0c7fd60e21b60208083019182526001600160a01b039384166024840152848416604480850191909152835293919291601f1991906118d6606486611639565b5f808096516101679482865af16118eb6116b3565b90156119e7576040818051810103126111db5760408161190f8961191694016116e2565b5001611747565b6119df57600354604051638f8d7f9960e01b8882019081526001600160a01b0396909216861660248201529190941660448201526064928301815284938493909184916119639082611639565b51925af1906119706116b3565b91156119d4578282805181010312610973575061199082601692016116e2565b60030b0361199b5750565b6064906040519062461bcd60e51b8252600482015260126024820152714661696c6520746f206772616e74204b594360701b6044820152fd5b505060166015611990565b505050505050565b508461191656fea26469706673582212200eb9520173833c575b53c0d0891dc59980258b38811659fe90e81c7a83b0198e64736f6c63430008140033a6eef7e35abe7026729641147f7915573c7e97b47efa546f5f6e3230263bcb49cc69885fda6bcc1a4ace058b4a62bf5e179ea78fd58a1ccd71c22cc9b688792fedc95719e9a3b28dd8e80877cb5880a9be7de1a13fc8b05e7999683b6b5676437dfe757ecd65cbd7922a9c0161e935dd7fdbcc0e999689c7d31633896b1fc60b8f331abe73332f95a25873e8b430885974c0409691f89d643119a11623a7924ad9d16d34ffb15ba3a3d852f0d403e2ce1d691fb54de27ac87cd2f993f3ec330fe2689cd4a84e23ad2f564004f1c9013e9589d260bde6380aba3ca7e09e4df40c","linkReferences":{}},"methodIdentifiers":{"BASE_POINT()":"1135daeb","MAX_INDEX()":"8a539cbe","PRICE_PRECISION()":"95082d25","SECONDS_PER_YEAR()":"e6a69ab8","acl()":"de287359","assetMultiplierOracle(address)":"71302473","baseRate()":"1f68f20a","borrow(address,uint256,address)":"6c665a55","borrowIndex()":"aa5af0fd","calculateCurrentDebt(uint256,uint256)":"ae60d5fc","calculateCurrentDeposit(uint256)":"d288043b","calculateHealthFactor(uint256,uint256)":"01f72884","controlAllowList()":"c7ea4d44","deposit(address,uint256)":"47e7ef24","getAssetMultiplier(address)":"d28320d6","getBorrowRate()":"ba1c5e80","getMaxBorrowAmount(uint256,address)":"c0919750","getPoolStats()":"bbb85188","getSupplyRate()":"84bdc9a8","getUserBorrowPosition(address,address)":"471b4427","getUserDepositPosition(address)":"e108f857","getUtilization()":"7eb71131","isPositionLiquidatable(address,address)":"6558ef11","lastUpdatedTimestamp()":"fbaf894c","lendingAsset()":"1ffce3f4","liquidate(address,address,uint256,address)":"3de2f6b2","liquidationDiscount()":"8053fcbe","liquidationThreshold()":"4031234c","ltv()":"6fb49d73","optimalUtilization()":"6290cd1c","repay(address,address,uint256)":"1da649cf","reserve()":"cd3293de","reserveFactor()":"4322b714","setControlAllowList(uint64)":"a1d34a42","slope1()":"a62b75a8","slope2()":"d0134cb7","supplyIndex()":"98f1bc12","totalBorrowed()":"4c19386c","totalSupplied()":"630fd0ac","treasury()":"61d027b3","updateBorrowIndex()":"67e74dd1","updateIndices()":"383e2170","updateOracle(address,uint256)":"b42ba5b1","updateSupplyIndex()":"ed8e3e8f","withdraw(address,uint256)":"f3fef3a3","yieldBearingAsset()":"c95abc22"},"id":17}