{"abi":[{"type":"constructor","inputs":[{"name":"_ltv","type":"uint64","internalType":"uint64"},{"name":"_optimalUtilization","type":"uint64","internalType":"uint64"},{"name":"_baseRate","type":"uint64","internalType":"uint64"},{"name":"_slope1","type":"uint64","internalType":"uint64"},{"name":"_slope2","type":"uint64","internalType":"uint64"},{"name":"_liquidationThreshold","type":"uint64","internalType":"uint64"},{"name":"_liquidationDiscount","type":"uint64","internalType":"uint64"},{"name":"_reserveFactor","type":"uint64","internalType":"uint64"},{"name":"_lending","type":"address","internalType":"contract AbstractCradleAssetManager"},{"name":"yieldAsset","type":"string","internalType":"string"},{"name":"yieldAssetSymbol","type":"string","internalType":"string"},{"name":"lendingPool","type":"string","internalType":"string"},{"name":"aclContract","type":"address","internalType":"address"},{"name":"allowList","type":"uint64","internalType":"uint64"}],"stateMutability":"nonpayable"},{"type":"function","name":"BASE_POINT","inputs":[],"outputs":[{"name":"","type":"uint256","internalType":"uint256"}],"stateMutability":"view"},{"type":"function","name":"MAX_INDEX","inputs":[],"outputs":[{"name":"","type":"uint256","internalType":"uint256"}],"stateMutability":"view"},{"type":"function","name":"SECONDS_PER_YEAR","inputs":[],"outputs":[{"name":"","type":"uint256","internalType":"uint256"}],"stateMutability":"view"},{"type":"function","name":"acl","inputs":[],"outputs":[{"name":"","type":"address","internalType":"contract AccessController"}],"stateMutability":"view"},{"type":"function","name":"assetMultiplierOracle","inputs":[{"name":"","type":"address","internalType":"address"}],"outputs":[{"name":"","type":"uint256","internalType":"uint256"}],"stateMutability":"view"},{"type":"function","name":"baseRate","inputs":[],"outputs":[{"name":"","type":"uint64","internalType":"uint64"}],"stateMutability":"view"},{"type":"function","name":"borrow","inputs":[{"name":"user","type":"address","internalType":"address"},{"name":"collateralAmount","type":"uint256","internalType":"uint256"},{"name":"collateralAsset","type":"address","internalType":"address"}],"outputs":[],"stateMutability":"nonpayable"},{"type":"function","name":"borrowIndex","inputs":[],"outputs":[{"name":"","type":"uint256","internalType":"uint256"}],"stateMutability":"view"},{"type":"function","name":"calculateCurrentDebt","inputs":[{"name":"userPrincipal","type":"uint256","internalType":"uint256"},{"name":"userBorrowIndex","type":"uint256","internalType":"uint256"}],"outputs":[{"name":"","type":"uint256","internalType":"uint256"}],"stateMutability":"view"},{"type":"function","name":"calculateCurrentDeposit","inputs":[{"name":"userShares","type":"uint256","internalType":"uint256"}],"outputs":[{"name":"","type":"uint256","internalType":"uint256"}],"stateMutability":"view"},{"type":"function","name":"calculateHealthFactor","inputs":[{"name":"collateralValue","type":"uint256","internalType":"uint256"},{"name":"borrowedValue","type":"uint256","internalType":"uint256"}],"outputs":[{"name":"","type":"uint256","internalType":"uint256"}],"stateMutability":"view"},{"type":"function","name":"controlAllowList","inputs":[],"outputs":[{"name":"","type":"uint64","internalType":"uint64"}],"stateMutability":"view"},{"type":"function","name":"deposit","inputs":[{"name":"user","type":"address","internalType":"address"},{"name":"amount","type":"uint256","internalType":"uint256"}],"outputs":[],"stateMutability":"nonpayable"},{"type":"function","name":"getAssetMultiplier","inputs":[{"name":"asset","type":"address","internalType":"address"}],"outputs":[{"name":"","type":"uint256","internalType":"uint256"}],"stateMutability":"view"},{"type":"function","name":"getBorrowRate","inputs":[],"outputs":[{"name":"","type":"uint256","internalType":"uint256"}],"stateMutability":"view"},{"type":"function","name":"getMaxBorrowAmount","inputs":[{"name":"collateralAmount","type":"uint256","internalType":"uint256"},{"name":"collateralAsset","type":"address","internalType":"address"}],"outputs":[{"name":"","type":"uint256","internalType":"uint256"}],"stateMutability":"view"},{"type":"function","name":"getPoolStats","inputs":[],"outputs":[{"name":"totalSupply","type":"uint256","internalType":"uint256"},{"name":"totalBorrow","type":"uint256","internalType":"uint256"},{"name":"availableLiquidity","type":"uint256","internalType":"uint256"},{"name":"utilizationRate","type":"uint256","internalType":"uint256"},{"name":"supplyAPY","type":"uint256","internalType":"uint256"},{"name":"borrowAPY","type":"uint256","internalType":"uint256"}],"stateMutability":"view"},{"type":"function","name":"getSupplyRate","inputs":[],"outputs":[{"name":"","type":"uint256","internalType":"uint256"}],"stateMutability":"view"},{"type":"function","name":"getUserBorrowPosition","inputs":[{"name":"user","type":"address","internalType":"address"},{"name":"collateralAsset","type":"address","internalType":"address"}],"outputs":[{"name":"principalBorrowed","type":"uint256","internalType":"uint256"},{"name":"currentDebt","type":"uint256","internalType":"uint256"},{"name":"collateralAmount","type":"uint256","internalType":"uint256"},{"name":"healthFactor","type":"uint256","internalType":"uint256"},{"name":"borrowIndex","type":"uint256","internalType":"uint256"}],"stateMutability":"view"},{"type":"function","name":"getUserDepositPosition","inputs":[{"name":"user","type":"address","internalType":"address"}],"outputs":[{"name":"yieldTokenBalance","type":"uint256","internalType":"uint256"},{"name":"underlyingValue","type":"uint256","internalType":"uint256"},{"name":"currentSupplyAPY","type":"uint256","internalType":"uint256"}],"stateMutability":"view"},{"type":"function","name":"getUtilization","inputs":[],"outputs":[{"name":"","type":"uint256","internalType":"uint256"}],"stateMutability":"view"},{"type":"function","name":"isPositionLiquidatable","inputs":[{"name":"user","type":"address","internalType":"address"},{"name":"collateralAsset","type":"address","internalType":"address"}],"outputs":[{"name":"isLiquidatable","type":"bool","internalType":"bool"},{"name":"healthFactor","type":"uint256","internalType":"uint256"}],"stateMutability":"view"},{"type":"function","name":"lastUpdatedTimestamp","inputs":[],"outputs":[{"name":"","type":"uint256","internalType":"uint256"}],"stateMutability":"view"},{"type":"function","name":"lendingAsset","inputs":[],"outputs":[{"name":"","type":"address","internalType":"contract AbstractCradleAssetManager"}],"stateMutability":"view"},{"type":"function","name":"liquidate","inputs":[{"name":"liquidator","type":"address","internalType":"address"},{"name":"borrower","type":"address","internalType":"address"},{"name":"debtToCover","type":"uint256","internalType":"uint256"},{"name":"collateralAsset","type":"address","internalType":"address"}],"outputs":[],"stateMutability":"nonpayable"},{"type":"function","name":"liquidationDiscount","inputs":[],"outputs":[{"name":"","type":"uint64","internalType":"uint64"}],"stateMutability":"view"},{"type":"function","name":"liquidationThreshold","inputs":[],"outputs":[{"name":"","type":"uint64","internalType":"uint64"}],"stateMutability":"view"},{"type":"function","name":"ltv","inputs":[],"outputs":[{"name":"","type":"uint64","internalType":"uint64"}],"stateMutability":"view"},{"type":"function","name":"optimalUtilization","inputs":[],"outputs":[{"name":"","type":"uint64","internalType":"uint64"}],"stateMutability":"view"},{"type":"function","name":"repay","inputs":[{"name":"user","type":"address","internalType":"address"},{"name":"collateralizedAsset","type":"address","internalType":"address"},{"name":"repayAmount","type":"uint256","internalType":"uint256"}],"outputs":[],"stateMutability":"nonpayable"},{"type":"function","name":"reserve","inputs":[],"outputs":[{"name":"","type":"address","internalType":"contract CradleAccount"}],"stateMutability":"view"},{"type":"function","name":"reserveFactor","inputs":[],"outputs":[{"name":"","type":"uint64","internalType":"uint64"}],"stateMutability":"view"},{"type":"function","name":"setControlAllowList","inputs":[{"name":"_newLevel","type":"uint64","internalType":"uint64"}],"outputs":[],"stateMutability":"nonpayable"},{"type":"function","name":"slope1","inputs":[],"outputs":[{"name":"","type":"uint64","internalType":"uint64"}],"stateMutability":"view"},{"type":"function","name":"slope2","inputs":[],"outputs":[{"name":"","type":"uint64","internalType":"uint64"}],"stateMutability":"view"},{"type":"function","name":"supplyIndex","inputs":[],"outputs":[{"name":"","type":"uint256","internalType":"uint256"}],"stateMutability":"view"},{"type":"function","name":"totalBorrowed","inputs":[],"outputs":[{"name":"","type":"uint256","internalType":"uint256"}],"stateMutability":"view"},{"type":"function","name":"totalSupplied","inputs":[],"outputs":[{"name":"","type":"uint256","internalType":"uint256"}],"stateMutability":"view"},{"type":"function","name":"treasury","inputs":[],"outputs":[{"name":"","type":"address","internalType":"contract CradleAccount"}],"stateMutability":"view"},{"type":"function","name":"updateBorrowIndex","inputs":[],"outputs":[],"stateMutability":"nonpayable"},{"type":"function","name":"updateIndices","inputs":[],"outputs":[],"stateMutability":"nonpayable"},{"type":"function","name":"updateOracle","inputs":[{"name":"asset","type":"address","internalType":"address"},{"name":"multiplier","type":"uint256","internalType":"uint256"}],"outputs":[],"stateMutability":"nonpayable"},{"type":"function","name":"updateSupplyIndex","inputs":[],"outputs":[],"stateMutability":"nonpayable"},{"type":"function","name":"withdraw","inputs":[{"name":"user","type":"address","internalType":"address"},{"name":"yieldTokenAmount","type":"uint256","internalType":"uint256"}],"outputs":[],"stateMutability":"nonpayable"},{"type":"function","name":"yieldBearingAsset","inputs":[],"outputs":[{"name":"","type":"address","internalType":"contract AbstractCradleAssetManager"}],"stateMutability":"view"},{"type":"event","name":"Borrowed","inputs":[{"name":"user","type":"address","indexed":true,"internalType":"address"},{"name":"collateralAsset","type":"address","indexed":true,"internalType":"address"},{"name":"collateralAmount","type":"uint256","indexed":false,"internalType":"uint256"},{"name":"borrowAmount","type":"uint256","indexed":false,"internalType":"uint256"},{"name":"borrowIndex","type":"uint256","indexed":false,"internalType":"uint256"}],"anonymous":false},{"type":"event","name":"Deposited","inputs":[{"name":"user","type":"address","indexed":true,"internalType":"address"},{"name":"amount","type":"uint256","indexed":false,"internalType":"uint256"},{"name":"yieldTokensMinted","type":"uint256","indexed":false,"internalType":"uint256"}],"anonymous":false},{"type":"event","name":"IndicesUpdated","inputs":[{"name":"newBorrowIndex","type":"uint256","indexed":false,"internalType":"uint256"},{"name":"newSupplyIndex","type":"uint256","indexed":false,"internalType":"uint256"},{"name":"timestamp","type":"uint256","indexed":false,"internalType":"uint256"}],"anonymous":false},{"type":"event","name":"Liquidated","inputs":[{"name":"liquidator","type":"address","indexed":true,"internalType":"address"},{"name":"borrower","type":"address","indexed":true,"internalType":"address"},{"name":"collateralAsset","type":"address","indexed":true,"internalType":"address"},{"name":"debtCovered","type":"uint256","indexed":false,"internalType":"uint256"},{"name":"collateralSeized","type":"uint256","indexed":false,"internalType":"uint256"}],"anonymous":false},{"type":"event","name":"OracleUpdated","inputs":[{"name":"asset","type":"address","indexed":true,"internalType":"address"},{"name":"newMultiplier","type":"uint256","indexed":false,"internalType":"uint256"}],"anonymous":false},{"type":"event","name":"Repaid","inputs":[{"name":"user","type":"address","indexed":true,"internalType":"address"},{"name":"collateralAsset","type":"address","indexed":true,"internalType":"address"},{"name":"repaidAmount","type":"uint256","indexed":false,"internalType":"uint256"},{"name":"principalRepaid","type":"uint256","indexed":false,"internalType":"uint256"},{"name":"interestPaid","type":"uint256","indexed":false,"internalType":"uint256"}],"anonymous":false},{"type":"event","name":"Withdrawn","inputs":[{"name":"user","type":"address","indexed":true,"internalType":"address"},{"name":"yieldTokensBurned","type":"uint256","indexed":false,"internalType":"uint256"},{"name":"underlyingAmount","type":"uint256","indexed":false,"internalType":"uint256"}],"anonymous":false},{"type":"error","name":"ReentrancyGuardReentrantCall","inputs":[]}],"bytecode":{"object":"0x608080604052346200050e5762007113803803809162000020828562000512565b833981016101c0828203126200050e576200003b8262000536565b906200004a6020840162000536565b620000586040850162000536565b92620000676060860162000536565b620000756080870162000536565b926200008460a0880162000536565b916200009360c0890162000536565b91620000a260e08a0162000536565b6101008a0151989092906001600160a01b038a168a036200050e576101208b01516001600160401b0381116200050e5789620000e0918d016200058a565b6101408c01519098906001600160401b0381116200050e578a62000106918e016200058a565b6101608d0151909a6001600160401b0382116200050e576200012a918e016200058a565b6101808d01519c9098906001600160a01b038e168e90036200050e576001600160401b03906200015e906101a00162000536565b1660068111620004ca575f80546001600160e01b03191690911760408f811b600160401b600160e01b0316919091179091556001805560038054600160a01b600160e01b03191660a09390931b600160a01b600160e01b031692909217909155608093841b600160801b600160c01b0390811693821b6fffffffffffffffff00000000000000009081166001600160401b03978816179490941760c09390931b6001600160c01b0319908116939093176004556005805498831b9094169790921697851697909717959095179390911b90931691909117909155600680546001600160a01b03199081166001600160a01b03989098169790971790559051611f638082019392909190841181851017620004ab5780620002888985620030679786898639620005fe565b03905ff08015620004bf5760018060a01b0316866002541617600255620002e6602860405184620002c482965180926020808601910162000567565b810167747265617375727960c01b602082015203600881018552018362000512565b60405192818401926001600160401b03841185851017620004ab57849362000312938a938639620005fe565b03905ff08015620004bf5760018060a01b0316836003541617600355670de0b6b3a76400008060085560095542600a5560405191612149908184019184831060018060401b03841117620004ab576200039460019262000385879660609462004fca8939608087526080870190620005d7565b908582036020870152620005d7565b92828060a01b0388166040820152015203905ff08015620004bf5760018060a01b03169060075416176007555f600b555f600c55604051906020820190636ae8c1ab60e01b82526003602484015230604484015260448352608083019183831060018060401b03841117620004ab575f93849360405251915af43d15620004a5573d62000421816200054b565b9062000431604051928362000512565b81525f60203d92013e5b156200045157604051612a3890816200062f8239f35b60405162461bcd60e51b815260206004820152602660248201527f4661696c656420746f206772616e742061636365737320746f206c656e64696e60448201526519c81c1bdbdb60d21b6064820152608490fd5b6200043b565b634e487b7160e01b5f52604160045260245ffd5b6040513d5f823e3d90fd5b606460405162461bcd60e51b815260206004820152602060248201527f496e76616c696420636f6e74726f6c20616c6c6f77206c697374206c6576656c6044820152fd5b5f80fd5b601f909101601f19168101906001600160401b03821190821017620004ab57604052565b51906001600160401b03821682036200050e57565b6001600160401b038111620004ab57601f01601f191660200190565b5f5b838110620005795750505f910152565b818101518382015260200162000569565b81601f820112156200050e578051620005a3816200054b565b92620005b3604051948562000512565b818452602082840101116200050e57620005d4916020808501910162000567565b90565b90602091620005f28151809281855285808601910162000567565b601f01601f1916010190565b6040906200061a600493959495606083526060830190620005d7565b6001600160a01b039095166020820152015256fe60406080815260049081361015610014575f80fd5b5f91823560e01c90816301f72884146122225781631135daeb146122055781631da649cf14611c2d5781631f68f20a14611c045781631ffce3f414611bdb578163383e217014611bc25781633de2f6b2146116255781634031234c146115fd5781634322b714146115d2578163471b4427146113de57816347e7ef241461111e5781634c19386c146110ff57816361d027b3146110d65781636290cd1c146110af578163630fd0ac146110905781636558ef111461105657816367e74dd11461103d5781636c665a5514610c7c5781636fb49d7314610c5157816371302473146106ed5781637eb7113114610c345781638053fcbe14610c0b57816384bdc9a814610bee5781638a539cbe14610bca57816398f1bc1214610bab578163a1d34a4214610a47578163a62b75a814610a1d578163aa5af0fd146109fe578163ae60d5fc146109d5578163b42ba5b1146108a5578163ba1c5e8014610881578163bbb8518814610812578163c0919750146107be578163c7ea4d4414610798578163c95abc221461076f578163cd3293de14610746578163d0134cb714610725578163d28320d6146106ed578163d288043b146106b8578163de28735914610690578163e108f85714610569578163e6a69ab81461054a578163ed8e3e8f1461052b578163f3fef3a314610230575063fbaf894c1461020f575f80fd5b3461022c578160031936011261022c57602090600a549051908152f35b5080fd5b9190503461052757806003193601126105275761024b61224a565b6024359184546001600160401b0392610265848316612368565b87966001600160a01b0393909190851c84169088805b8251811015610514576102c78961029283866122b9565b518a51636bf8e80f60e01b815291166001600160401b0316878201908152336020808301919091529283918391829160400190565b0381895afa91821561050a5784926104dd575b50506102ee576102e990612276565b61027b565b50939495969798505050610302600161232d565b61030a61299a565b610312612615565b670de0b6b3a764000061032760095489612442565b049561034c87600c5461034782610340600b54846124a5565b10156129bd565b6124a5565b600c558460075416803b1561048357865163393b766560e11b81529189166001600160401b03168383019081526001600160a01b03861660208201528491839182908490829060400103925af180156104d3579083916104bf575b50508360025416908060208660065416885192838092637e062a3560e11b82525afa9081156104b5578491610487575b50823b1561048357865163439e2e4560e01b81526001600160a01b0380871693820193845290911660208301526040820188905291839183919082908490829060600103925af1801561047957610461575b50507f92ccf450a286a957af52509bc1c9939d1a6a481783e142e41e2499f0bb66ebc693835195865260208601521692a26001805580f35b61046a906122cd565b61047557855f610429565b8580fd5b85513d84823e3d90fd5b8380fd5b6104a8915060203d81116104ae575b6104a081836122f4565b8101906127d7565b5f6103d7565b503d610496565b87513d86823e3d90fd5b6104c8906122cd565b61022c57815f6103a7565b86513d85823e3d90fd5b6104fc9250803d10610503575b6104f481836122f4565b810190612315565b5f806102da565b503d6104ea565b8a513d86823e3d90fd5b509394959697989050610302915061232d565b8280fd5b83346105475780600319360112610547576105446125d7565b80f35b80fd5b50503461022c578160031936011261022c57602090516301e187e08152f35b8391503461022c576020806003193601126105275761058661224a565b6007548551637e062a3560e11b81526001600160a01b039291849082908790829087165afa9081156106865791836024928695948991610669575b50895197889586946370a0823160e01b86521690840152165afa92831561065e579261062c575b5050610628670de0b6b3a764000061060260095484612442565b049261060c612547565b9051938493846040919493926060820195825260208201520152565b0390f35b90809250813d8311610657575b61064381836122f4565b81010312610653575182806105e8565b5f80fd5b503d610639565b8451903d90823e3d90fd5b6106809150863d88116104ae576104a081836122f4565b8a6105c1565b87513d88823e3d90fd5b50503461022c578160031936011261022c5790548151911c6001600160a01b03168152602090f35b8284346105475760203660031901126105475750670de0b6b3a76400006106e56020936009549035612442565b049051908152f35b50503461022c57602036600319011261022c5760209181906001600160a01b0361071561224a565b168152600d845220549051908152f35b905034610527578260031936011261052757602092505460c01c9051908152f35b50503461022c578160031936011261022c5760025490516001600160a01b039091168152602090f35b50503461022c578160031936011261022c5760075490516001600160a01b039091168152602090f35b50503461022c578160031936011261022c576001600160401b0360209254169051908152f35b9050346105275781600319360112610527576106e56107fd612710928460209660018060a01b036107ed612260565b168152600d885220549035612442565b6001600160401b0360035460a01c1690612442565b50503461022c578160031936011261022c5760c091600c5491600b54918284115f1461087c575061084382846124a5565b61084b612473565b90610854612547565b9261085d6124bf565b94815196875260208701528501526060840152608083015260a0820152f35b610843565b50503461022c578160031936011261022c5760209061089e6124bf565b9051908152f35b905082346105475782600319360112610547576108c061224a565b9260243582546001600160401b03946108da868316612368565b949586956001600160a01b0393861c84169190875b81518110156109a1576109068361029283856122b9565b0381895afa918215610997578b9261097a575b505061092d5761092890612276565b6108ef565b505050505060209294507f41dd56c92c84169d8e89dc293d2649a911f47b357d3012bc88662395e01979d09395610964600161232d565b1693848652600d8352818187205551908152a280f35b6109909250803d10610503576104f481836122f4565b8c80610919565b8a513d8d823e3d90fd5b50505050507f41dd56c92c84169d8e89dc293d2649a911f47b357d3012bc88662395e01979d093956109646020949661232d565b50503461022c5760209061089e6109f96109ee36612234565b919060085490612442565b612455565b50503461022c578160031936011261022c576020906008549051908152f35b828434610547578060031936011261054757506001600160401b036020925460801c169051908152f35b9050346105275760209182600319360112610483578135916001600160401b039384841680940361047557855492610a80868516612368565b879685831c6001600160a01b031691885b8151811015610b9957610adb8684610aa984866122b9565b518851636bf8e80f60e01b815291166001600160401b03168a8201908152336020820152909283918291604090910190565b0381885afa908115610b8f578c91610b72575b50610b0157610afc90612276565b610a91565b50505050909192939450610b15600161232d565b60068511610b315750505067ffffffffffffffff191617815580f35b5162461bcd60e51b815291820181905260248201527f496e76616c696420636f6e74726f6c20616c6c6f77206c697374206c6576656c604482015260649150fd5b610b899150873d8911610503576104f481836122f4565b5f610aee565b86513d8e823e3d90fd5b505050509091929394610b159061232d565b50503461022c578160031936011261022c576020906009549051908152f35b50503461022c578160031936011261022c576020905168056bc75e2d631000008152f35b50503461022c578160031936011261022c5760209061089e612547565b50503461022c578160031936011261022c576005548151911c6001600160401b03168152602090f35b50503461022c578160031936011261022c5760209061089e612473565b50503461022c578160031936011261022c576020906001600160401b0360035460a01c169051908152f35b9190503461052757606036600319011261052757610c9861224a565b6044356001600160a01b0381811693919260243590858503610653578754966001600160401b03610cca818a16612368565b8a99871c8616908a5b8151811015611029578c84610ce883856122b9565b518b51636bf8e80f60e01b815291166001600160401b031687820190815233602080830191909152908190839081906040010381895afa92831561101e5792611001575b5050610d4057610d3b90612276565b610cd3565b505050909192939495969750610d56600161232d565b610d5e61299a565b610d66612615565b878952612710610d91602092600d8452610d83898d205488612442565b9060035460a01c1690612442565b0494610da686610340600c54600b54906124a5565b865163472a1d0960e11b8152308482019081526001600160a01b038a16602082015285831699919084908290819060400103818d5afa908115610ff7578c91610fca575b50610f9057908a949392916008548a3b15610f8c5789516318d9901d60e11b8152308682019081526001600160a01b03939093166020840152604083018a9052606083018990526080830191909152908690829081900360a00181838e5af18015610f6e57908691610f78575b5050610e6587600b546124b2565b600b558282826002541692600654168a5192838092637e062a3560e11b82525afa928315610f6e578693610f4f575b5050803b15610f4b57875163439e2e4560e01b81526001600160a01b0394851693810193845293909116602083015260408201869052839183919082908490829060600103925af1801561047957610f37575b5050610f2d7fc1cba78646fef030830d099fc25cb498953709c9d47d883848f81fd207174c9f936008549051938493846040919493926060820195825260208201520152565b0390a36001805580f35b610f40906122cd565b61047557855f610ee7565b8480fd5b610f66929350803d106104ae576104a081836122f4565b905f80610e94565b89513d88823e3d90fd5b610f81906122cd565b610f4b57845f610e57565b8680fd5b875162461bcd60e51b81528085018490526014602482015273115e1a5cdd1a5b99c81d5b9c185a590819195c1d60621b6044820152606490fd5b90508381813d8311610ff0575b610fe181836122f4565b8101031261065357515f610dea565b503d610fd7565b89513d8e823e3d90fd5b6110179250803d10610503576104f481836122f4565b5f80610d2c565b8c51903d90823e3d90fd5b5050509091929394959697610d569061232d565b833461054757806003193601126105475761054461258f565b8284346105475781600319360112610547575061108261107461224a565b61107c612260565b906127f6565b825191151582526020820152f35b50503461022c578160031936011261022c57602090600c549051908152f35b828434610547578060031936011261054757506001600160401b0360209254169051908152f35b50503461022c578160031936011261022c5760035490516001600160a01b039091168152602090f35b50503461022c578160031936011261022c57602090600b549051908152f35b9190503461052757806003193601126105275761113961224a565b8354916024356001600160401b03611152818616612368565b87966001600160a01b0396909190851c871690885b81518110156113cc576111b38561117e83856122b9565b518951636bf8e80f60e01b815291166001600160401b0316868201908152336020808301919091529283918391829160400190565b0381885afa9182156113c2578d926113a5575b50506111da576111d590612276565b611167565b505050909192939495506111ee600161232d565b6111f661299a565b6111fe612615565b670de0b6b3a764000080840290848204148415171561139257908661122889949360095490612455565b9661123586600c546124b2565b600c55169681816002541660208360065416895193848092637e062a3560e11b82525afa918215611388578692611368575b50893b1561047557875163439e2e4560e01b81526001600160a01b03918216858201908152919092166020820152604081018790528590829081906060010381838d5af1801561135e5790859161134a575b50506007541690813b156104835760448891858094895196879586946339a4ed0560e11b86528501528b1660248401525af180156113405761132c575b50507f73a19dd210f1a7f902193214c0ee91dd35ee5b4d920cba8d519eca65a7b488ca9282519182526020820152a26001805580f35b611335906122cd565b610f4b57845f6112f6565b84513d84823e3d90fd5b611353906122cd565b61048357835f6112b9565b87513d87823e3d90fd5b61138191925060203d81116104ae576104a081836122f4565b905f611267565b88513d88823e3d90fd5b634e487b7160e01b885260118252602488fd5b6113bb9250803d10610503576104f481836122f4565b5f806111c6565b89513d8f823e3d90fd5b5050509091929394956111ee9061232d565b83833461022c578060031936011261022c576113f861224a565b611400612260565b825163472a1d0960e11b8152308682019081526001600160a01b038381166020838101919091529296948116959294918590889081906040010381895afa96871561155e5782976115a3575b508251622275af60e91b8152308982019081526001600160a01b03861660208201529096908690889081906040010381845afa968715611599578397611568575b50835163052226ef60e41b815230998101998a526001600160a01b03861660208b01529886918a918290819060400103915afa93841561155e57829461152e575b60a09850838815611523576115059061150a93946114f38a6109f98d60085490612442565b958694168152600d8952205486612442565b612782565b935b825196875286015284015260608301526080820152f35b5050505f199361150c565b93508488813d8311611557575b61154581836122f4565b810103126106535760a09751936114ce565b503d61153b565b83513d84823e3d90fd5b9896508589813d8311611592575b61158081836122f4565b8101031261065357975195978461148d565b503d611576565b84513d85823e3d90fd5b9096508481813d83116115cb575b6115bb81836122f4565b810103126106535751958861144c565b503d6115b1565b50503461022c578160031936011261022c576020906001600160401b0360055460801c169051908152f35b50503461022c578160031936011261022c576020906001600160401b03600554169051908152f35b9050346105275760803660031901126105275761164061224a565b91611649612260565b91604435906064359260018060a01b039283851695868603610653578854976001600160401b039661167c888b16612368565b8b9a861c8816908b5b8151811015611bad578d8b61169a83856122b9565b518a51636bf8e80f60e01b815291166001600160401b03168b820190815233602080830191909152908190839081906040010381895afa928315611ba25792611b85575b50506116f2576116ed90612276565b611685565b50505090919293949596979850611709600161232d565b61171161299a565b611719612615565b888a52602095600d8752858b2054670de0b6b3a7640000998a87028781048c1488151715611b72578261174b91612455565b60055461271092908a1c16820190818311611b5f579161176e8f93928d93612442565b8a5163472a1d0960e11b8152308782019081526001600160a01b0389166020820152939099169d919004979390918b9085908f908290819060400103915afa938415611b55578394611b22575b508c8b8b51809263052226ef60e41b825281806117f48c308d840190602090939293604083019460018060a01b03809216845216910152565b03915afa908115611b18578491611ae7575b508d8c8c518092622275af60e91b8252818061183f8d8d3090840190602090939293604083019460018060a01b03809216845216910152565b03915afa94851561101e5794611ab6575b506118759161185e91612442565b61186f846109f96008548098612442565b90612782565b1015611a64579061188e816109f98f979695948a612442565b8b3b156104755788516342c8afad60e01b8152308482019081526001600160a01b038616602082015260408101929092526060820188905260808201929092528590829081900360a00181838f5af18015611a5a57908591611a46575b50506118f986600b546124a5565b600b55888316988189826002541692600654168a5192838092637e062a3560e11b82525afa908115610f6e578691611a29575b508a3b1561047557885163439e2e4560e01b8082526001600160a01b0393841685830190815292909316602083015260408201899052908690829081900360600181838f5af18015610f6e57908691611a15575b50508a3b15610f4b5787519081526001600160a01b03938416918101918252929091166020820152604081018490528290829081906060010381838c5af18015610479576119fd575b50507fd1ef587d13fefe63f9bc582e973aad46877ef08cfe790838721bd521c53caf56938351928352820152a46001805580f35b611a06906122cd565b611a1157875f6119c9565b8780fd5b611a1e906122cd565b610f4b57845f611980565b611a4091508a3d8c116104ae576104a081836122f4565b5f61192c565b611a4f906122cd565b61048357835f6118eb565b88513d87823e3d90fd5b875162461bcd60e51b81528084018a9052602660248201527f506f736974696f6e20697320206865616c7468792c2063616e6e6f74206c697160448201526575696461746560d01b6064820152608490fd5b9093508b81813d8311611ae0575b611ace81836122f4565b81010312610653575192611875611850565b503d611ac4565b8094508c8092503d8311611b11575b611b0081836122f4565b81010312610653578e92515f611806565b503d611af6565b8b513d86823e3d90fd5b8b809295508194503d8311611b4e575b611b3c81836122f4565b81010312610653578d9151925f6117bb565b503d611b32565b8a513d85823e3d90fd5b634e487b7160e01b8f526011855260248ffd5b634e487b7160e01b8e526011845260248efd5b611b9b9250803d10610503576104f481836122f4565b5f806116de565b8b51903d90823e3d90fd5b5050509091929394959697986117099061232d565b8334610547578060031936011261054757610544612615565b50503461022c578160031936011261022c5760065490516001600160a01b039091168152602090f35b828434610547578060031936011261054757506001600160401b0360209254821c169051908152f35b90503461052757606036600319011261052757611c4861224a565b91611c51612260565b845460443593916001600160401b03611c6b818416612368565b88976001600160a01b0394909190871c851690895b81518110156121f1578b85611c9583856122b9565b518b51636bf8e80f60e01b815291166001600160401b03168a820190815233602080830191909152908190839081906040010381895afa92831561101e57926121d4575b5050611ced57611ce890612276565b611c80565b505050839495969750611d0460019492939461232d565b611d0c61299a565b611d14612615565b865163472a1d0960e11b8152308782019081526001600160a01b03861660208083019190915292909316979096909282908890819060400103818b5afa9687156121ca578a97612197575b508251622275af60e91b8152308282019081526001600160a01b038716602082015283908290819060400103818c5afa9081156120a8578b91612166575b50835163052226ef60e41b8152308382019081526001600160a01b038816602082015290989084908a90819060400103818d5afa98891561215c578c99612129575b5080156120f55760085491611df8816109f98585612442565b8c116120b2578c916109f9611e15858f611e1c956109f991612442565b809c612442565b918a3b1561022c5785516342c8afad60e01b8152308582019081526001600160a01b038a166020820152604081018c905260608101949094526080840191909152918290819060a0010381838d5af180156120a857612093575b50899190878a111561208657612710611ea1611e928a8d6124a5565b965b60055460801c1687612442565b0490611ead828c6124a5565b92611eba8a600b546124a5565b600b55886002541690896006541694875182818681637e062a3560e11b9a8b82525afa90811561207c57889161205f575b508d3b15611a1157885163439e2e4560e01b8082526001600160a01b039586168783019081529290951660208301526040820192909252879082908f9082908490829060600103925af180156120415790879161204b575b505083611f94575b50509351998a52505050506020860193909352604085019290925216917f244fed5b3268b6a17fff986a36f3d87e163ac678d91d552866eb1e74f010f3a6908060608101610f2d565b896003541694818b6006541691858a518094819382525afa918215612041578792612024575b50508b3b156104755786519182526001600160a01b03948516928201928352909316602082015260408101919091528290829081906060010381838c5af1801561155e5761200c575b80808080611f4b565b612018909392936122cd565b611a115790875f612003565b61203a9250803d106104ae576104a081836122f4565b5f80611fba565b88513d89823e3d90fd5b612054906122cd565b61047557855f611f43565b6120769150833d85116104ae576104a081836122f4565b5f611eeb565b89513d8a823e3d90fd5b612710611ea18496611e94565b6120a0909a91929a6122cd565b98905f611e76565b84513d8d823e3d90fd5b855162461bcd60e51b8152808501869052601960248201527f526570617920616d6f756e7420657863656564732064656274000000000000006044820152606490fd5b845162461bcd60e51b8152808401859052600e60248201526d27379030b1ba34bb32903637b0b760911b6044820152606490fd5b9098508381813d8311612155575b61214181836122f4565b810103126121515751975f611ddf565b8b80fd5b503d612137565b85513d8e823e3d90fd5b90508281813d8311612190575b61217d81836122f4565b8101031261218c57515f611d9d565b8a80fd5b503d612173565b9096508181813d83116121c3575b6121af81836122f4565b810103126121bf5751955f611d5f565b8980fd5b503d6121a5565b83513d8c823e3d90fd5b6121ea9250803d10610503576104f481836122f4565b5f80611cd9565b505050611d0484959697989492939461232d565b50503461022c578160031936011261022c57602090516127108152f35b50503461022c5760209061089e61186f365b6040906003190112610653576004359060243590565b600435906001600160a01b038216820361065357565b602435906001600160a01b038216820361065357565b5f1981146122845760010190565b634e487b7160e01b5f52601160045260245ffd5b8051156122a55760200190565b634e487b7160e01b5f52603260045260245ffd5b80518210156122a55760209160051b010190565b6001600160401b0381116122e057604052565b634e487b7160e01b5f52604160045260245ffd5b90601f801991011681019081106001600160401b038211176122e057604052565b90816020910312610653575180151581036106535790565b1561233457565b60405162461bcd60e51b815260206004820152600c60248201526b155b985d5d1a1bdc9a5e995960a21b6044820152606490fd5b6001600160401b039081166123a757604051906040820190828210908211176122e05760405260018152602036818301375f6123a382612298565b5290565b6040519060e08201908111828210176122e0576040526006815260c03660208301375f806123d483612298565b5281516001101561242e576001604083015281516002101561242e576002606083015281516003101561242e576003608083015281516004101561242e57600560a083015281516005101561242e5750600660c082015290565b634e487b7160e01b81526032600452602490fd5b8181029291811591840414171561228457565b811561245f570490565b634e487b7160e01b5f52601260045260245ffd5b600c5480156124a057600b5490612710918281029281840414901517156122845761249d91612455565b90565b505f90565b9190820391821161228457565b9190820180921161228457565b6124c7612473565b6004546001600160401b03808216808410156124fe576124f4906109f961249d95848660801c1690612442565b9160401c166124b2565b91928261250a916124a5565b61271092830392831161228457818460801c16828560401c160192828411612284576109f96125409261249d9660c01c90612442565b91166124b2565b61255f612552612473565b61255a6124bf565b612442565b6001600160401b0360055460801c1690612710918203918211612284576305f5e1009161258b91612442565b0490565b61259b600a54426124a5565b80156125d4576125cb90644979cb9e006125c46125b66124bf565b9261255a6008549485612442565b04906124b2565b60085542600a55565b50565b6125e3600a54426124a5565b80156125d45761260c90644979cb9e006125c46125fe612547565b9261255a6009549485612442565b60095542600a55565b612621600a54426124a5565b80156125d45761255a61264c6126356124bf565b600854906125c485644979cb9e0095869385612442565b9068056bc75e2d63100000928383116127265761267291836008556125c46125fe612547565b9182116126ca57817fa0fadbfbb40d1b4013c553c5deaf84070909c3ed7a9ef092a92d406661bdf9ee9260095542600a556126c56040519283924291846040919493926060820195825260208201520152565b0390a1565b60405162461bcd60e51b815260206004820152602e60248201527f537570706c7920696e646578206f766572666c6f77202d20636f6e746163742060448201526d383937ba37b1b7b61030b236b4b760911b6064820152608490fd5b60405162461bcd60e51b815260206004820152602e60248201527f426f72726f7720696e646578206f766572666c6f77202d20636f6e746163742060448201526d383937ba37b1b7b61030b236b4b760911b6064820152608490fd5b81156127d05761279e906001600160401b036005541690612442565b90670de0b6b3a76400009182810292818404149015171561228457612710808202918204036122845761249d91612455565b50505f1990565b9081602091031261065357516001600160a01b03811681036106535790565b6040805163472a1d0960e11b81523060048201526001600160a01b038481166024830152928316926020918281604481885afa908115612990575f91612963575b508015612956578351622275af60e91b81523060048201526001600160a01b0387166024820152908382604481895afa91821561291d575f92612927575b50845163052226ef60e41b81523060048201526001600160a01b0388166024820152958490879060449082905afa95861561291d575f966128ec575b509261150594926128d0600d936109f96128de9a999760085490612442565b96165f52525f205490612442565b670de0b6b3a7640000811091565b90958482813d8311612916575b61290381836122f4565b81010312610547575051946115056128b1565b503d6128f9565b85513d5f823e3d90fd5b90918482813d831161294f575b61293e81836122f4565b81010312610547575051905f612875565b503d612934565b5050505050505f905f1990565b908382813d8311612989575b61297981836122f4565b810103126105475750515f612837565b503d61296f565b84513d5f823e3d90fd5b6002600154146129ab576002600155565b604051633ee5aeb560e01b8152600490fd5b156129c457565b60405162461bcd60e51b8152602060048201526016602482015275496e73756666696369656e74206c697175696469747960501b6044820152606490fdfea26469706673582212200e3953c78d7fab6942313124c3121542106389df83b54eb9fd9868501877a2d664736f6c634300081400336080604052346200029b5762001f63803803806200001d81620002b4565b9283398101906060818303126200029b5780516001600160401b0391908281116200029b57810192601f908082860112156200029b578451928484116200024457602093601f19966200007686898785011601620002b4565b938285528683830101116200029b5785905f5b8381106200029f5750505f918401015280840151906001600160a01b03821682036200029b57604001518581168091036200029b576006811162000258575f549168010000000000000000600160e01b039060401b169163ffffffff60e01b1617175f5560019283805560ff1960035416600355815194851162000244576002548481811c9116801562000239575b828210146200022557838111620001dc575b5080928511600114620001755750839450908392915f9462000169575b50501b915f199060031b1c1916176002555b604051611c889081620002db8239f35b015192505f8062000147565b92948490811660025f52845f20945f905b88838310620001c15750505010620001a8575b505050811b0160025562000159565b01515f1960f88460031b161c191690555f808062000199565b85870151885590960195948501948793509081019062000186565b60025f52815f208480880160051c8201928489106200021b575b0160051c019085905b8281106200020f5750506200012a565b5f8155018590620001ff565b92508192620001f6565b634e487b7160e01b5f52602260045260245ffd5b90607f169062000118565b634e487b7160e01b5f52604160045260245ffd5b6064856040519062461bcd60e51b825280600483015260248201527f496e76616c696420636f6e74726f6c20616c6c6f77206c697374206c6576656c6044820152fd5b5f80fd5b81810183015186820184015287920162000089565b6040519190601f01601f191682016001600160401b03811183821017620002445760405256fe60406080815260048036101561004b575b50361561001b575f80fd5b807f9936746a4565f9766fa768f88f56a7487c78780ac179562773d1c75c5269537e9151338152346020820152a1005b5f90813560e01c90816328cafd721461178557816331b3203a1461146e57816342c8afad146110e9578163431d8ffe14610e8c578163439e2e4514610ed557816344eb5e0014610e8c5781634743c2fd14610e5f57816347e7ef2414610cac57816352226ef014610c8e578163526966011461067e5781635e7db13d14610ad957816369328dec146106c75781638e543a121461067e578163a1d34a4214610515578163a7efe34814610321578163b2567d1f146101ed57508063c7ea4d44146101c7578063dce83ae31461017e578063de287359146101565763e9ea28de0361001057903461015257816003193601126101525760209060ff6003541690519015158152f35b5080fd5b50903461015257816003193601126101525790548151911c6001600160a01b03168152602090f35b5090346101525780600319360112610152578060209261019c61193d565b6101a4611957565b6001600160a01b0391821683526006865283832091168252845220549051908152f35b5090346101525781600319360112610152576001600160401b0360209254169051908152f35b9050823461031d576020908160031936011261031957823591821515809303610315578454936001600160401b0394610227868216611a89565b879691851c6001600160a01b03169190875b815181101561030457610283868461025184866119ed565b518a51636bf8e80f60e01b815291166001600160401b0316888201908152336020820152909283918291604090910190565b0381885afa9081156102fa578b916102cd575b506102a9576102a4906119aa565b610239565b5050505050505090506102bc6001611a4e565b60ff80196003541691161760035580f35b6102ed9150873d89116102f3575b6102e58183611a01565b810190611a36565b8b610296565b503d6102db565b88513d8d823e3d90fd5b50505050505050906102bc90611a4e565b8480fd5b8380fd5b8280fd5b9050823461031d57602091826003193601126103195761033f61193d565b918454936001600160401b0394610357868216611a89565b87966001600160a01b0392851c831691885b8151811015610503576103b386898561038285876119ed565b518b51636bf8e80f60e01b815291166001600160401b03169181019182523360208301529283918291604090910190565b0381885afa9081156104f9578c916104dc575b506103d9576103d4906119aa565b610369565b505050509091929394506103ed6001611a4e565b825163248a35ef60e11b81523085820152941660248501819052938181604481896101675af19182156104d257906016929187926104a5575b505060070b036104595750507fbbbf805ef99ca7d0b7d2cc769719f2a281c9b3331a3642efa75a712e3094a1668280a280f35b5162461bcd60e51b8152915081906104a19082016060906020815260196020820152782330b4b632b2103a379030b9b9b7b1b4b0ba32903a37b5b2b760391b60408201520190565b0390fd5b6104c49250803d106104cb575b6104bc8183611a01565b810190611b63565b8680610426565b503d6104b2565b83513d88823e3d90fd5b6104f39150873d89116102f3576102e58183611a01565b8c6103c6565b88513d8e823e3d90fd5b5050505090919293946103ed90611a4e565b8391503461031d5760209182600319360112610319578135916001600160401b039384841680940361067a5785549261054f868516611a89565b879685831c6001600160a01b031691885b8151811015610668576105aa868461057884866119ed565b518851636bf8e80f60e01b815291166001600160401b03168a8201908152336020820152909283918291604090910190565b0381885afa90811561065e578c91610641575b506105d0576105cb906119aa565b610560565b505050509091929394506105e46001611a4e565b600685116106005750505067ffffffffffffffff191617815580f35b5162461bcd60e51b815291820181905260248201527f496e76616c696420636f6e74726f6c20616c6c6f77206c697374206c6576656c604482015260649150fd5b6106589150873d89116102f3576102e58183611a01565b8c6105bd565b86513d8e823e3d90fd5b5050505090919293946105e490611a4e565b8580fd5b8284346101525780600319360112610152578060209261069c61193d565b6106a4611957565b6001600160a01b0391821683526005865283832091168252845220549051908152f35b8391503461031d57606036600319011261031d576106e361193d565b6001600160a01b0390604435828116919060243590839003610ad5578654956001600160401b0395610716878916611a89565b8998831c871690895b8151811015610ac2578b8a61073483856119ed565b518751636bf8e80f60e01b815291166001600160401b031686820190815233602080830191909152908190839081906040010381895afa928315610ab75792610a9a575b505061078c57610787906119aa565b61071f565b50505090919293949596506107a16001611a4e565b6107a9611b7c565b87546107b6888216611a89565b978998888b93861c16925b8151811015610a87578b836107d683856119ed565b518851636bf8e80f60e01b815291166001600160401b0316878201908152336020808301919091529081908390819060400103818a5afa928315610a7c5792610a5f575b505061082e57610829906119aa565b6107c1565b50505050909192939495506108436001611a4e565b61084b611b7c565b815163e1f21c6760e01b81526001600160a01b038516828201908152306020828101919091526040820186905291979195908890606001039786816101679a818d8d5af1908115610a5557906016918b91610a38575b5060070b036109f2576108b381611bac565b851161099e5788916084879286519485938492630aed65f560e11b8452169b8c888401523060248401528b60448401528960648401525af190811561099457906016918991610977575b5060070b036109365750519081527f645e52ee0ce5c05d60f4b051028f29630be7001f5d84cba67fe6872db872cff89190a36001805580f35b83606492519162461bcd60e51b8352820152601960248201527f4661696c656420746f207472616e7366657220617373657473000000000000006044820152fd5b61098e9150863d88116104cb576104bc8183611a01565b896108fd565b83513d8a823e3d90fd5b835162461bcd60e51b8152808401879052602860248201527f696e73756666696369656e742061737365747320746f20636f6d706c657465206044820152673a3930b739b332b960c11b6064820152608490fd5b835162461bcd60e51b8152806104a18186016060906020815260196020820152782330b4b632b2103a379030b9b9b7b1b4b0ba32903a37b5b2b760391b60408201520190565b610a4f9150883d8a116104cb576104bc8183611a01565b8b6108a1565b85513d8c823e3d90fd5b610a759250803d106102f3576102e58183611a01565b8d8061081a565b8951903d90823e3d90fd5b5050505090919293949561084390611a4e565b610ab09250803d106102f3576102e58183611a01565b8d80610778565b8851903d90823e3d90fd5b505050909192939495966107a190611a4e565b8680fd5b838334610c8b5781600319360112610c8b57610af361193d565b916024359082546001600160401b0394610b0e868316611a89565b949586956001600160a01b0393851c84169190875b8151811015610c79578a83610b3883856119ed565b518951636bf8e80f60e01b815291166001600160401b031691810191825233602080840191909152918290829081906040010381895afa918215610c6f57908d9695949392918c92610c52575b5050610b9e57610b94906119aa565b9091929350610b23565b5050505050909192939450610bb36001611a4e565b1691828452846020528184205494858211610c0f57610bf5827faa3cec92d25e6e7cf3bf119de96782be90a19b7f9d717dc51e03d3f8f8aa22b1959697611b9f565b90858752602052808387205582519182526020820152a280f35b606490602084519162461bcd60e51b8352820152601e60248201527f43616e6e6f7420756e6c6f636b206d6f7265207468616e206c6f636b656400006044820152fd5b610c689250803d106102f3576102e58183611a01565b8d80610b85565b89513d8d823e3d90fd5b505050509091929394610bb390611a4e565b80fd5b8284346101525780600319360112610152578060209261019c61193d565b9050828060031936011261031d57610cc261193d565b815163e1f21c6760e01b81526001600160a01b03821684820190815233602082810191909152602435604083018190529094939092909181906060010390858161016793818b865af1908115610e5557906016918991610e38575b5060070b03610df557835163eca3691760e01b81526001600160a01b03909216868301523360248301523060448301526001600160401b0390921660070b60648201529083908290608490829089905af1908115610deb57906016918691610dce575b5060070b03610d8d578380f35b5162461bcd60e51b815291820152601860248201527f4661696c656420746f207472616e7366657220746f6b656e0000000000000000604482015260649150fd5b610de59150843d86116104cb576104bc8183611a01565b86610d80565b82513d87823e3d90fd5b835162461bcd60e51b8152808701869052601760248201527f4661696c656420746f20617070726f766520746f6b656e0000000000000000006044820152606490fd5b610e4f9150873d89116104cb576104bc8183611a01565b89610d1d565b85513d8a823e3d90fd5b82843461015257602036600319011261015257602090610e85610e8061193d565b611bac565b9051908152f35b82843461015257806003193601126101525780602092610eaa61193d565b610eb2611957565b6001600160a01b0391821683526007865283832091168252845220549051908152f35b9050823461031d57606036600319011261031d57610ef161193d565b90610efa611957565b6044358554926001600160401b0395610f14878616611a89565b88976001600160a01b0396841c871691895b81518110156110d6578b83610f3b83856119ed565b518851636bf8e80f60e01b815291166001600160401b0316878201908152336020808301919091529081908390819060400103818a5afa928315610a7c57926110b9575b5050610f9357610f8e906119aa565b610f26565b5050505090919293949550610fa86001611a4e565b610fb0611b7c565b815163e1f21c6760e01b81526001600160a01b0385168282019081523060208281019190915260408201869052919691959087906060010396868161016799818d8c5af1908115610a5557906016918b9161109c575b5060070b036109f25761101881611bac565b851161099e5781608487928b87519586948593630aed65f560e11b8552169c8d89850152306024850152169a8b60448401528960648401525af190811561099457906016918991610977575060070b036109365750519081527f645e52ee0ce5c05d60f4b051028f29630be7001f5d84cba67fe6872db872cff89190a36001805580f35b6110b39150883d8a116104cb576104bc8183611a01565b8b611006565b6110cf9250803d106102f3576102e58183611a01565b8d80610f7f565b50505050909192939495610fa890611a4e565b8391503461031d576110fa3661196d565b92939591908754936001600160401b0396611116888716611a89565b8a996001600160a01b0397909190871c8816908b5b8151811015611458578d8c61114083856119ed565b518b51636bf8e80f60e01b815291166001600160401b031687820190815233602080830191909152908190839081906040010381895afa92831561144d5792611430575b505061119857611193906119aa565b61112b565b50505086979899506111b1600197929394959697611a4e565b1695868a526020926005845281878c20991698898c52845285878c2054106113f957878b5260058452868b20898c528452868b206111f0878254611b9f565b9055878b5260068452868b20898c528452868b2061120f868254611b9f565b9055878b5260058452868b20898c528452868b20546113e05750868a5260078352858a20888b5283528986812055975b89549061124d818316611a89565b8b9a8c93891c16925b81518110156113cc578c6112a1878561126f85876119ed565b518d51636bf8e80f60e01b815291166001600160401b0316898201908152336020820152909283918291604090910190565b0381895afa9182156113c157916113a4575b506112c6576112c1906119aa565b611256565b5050505090919293949596506112dc6001611a4e565b86885280825284882054808411611362577faa3cec92d25e6e7cf3bf119de96782be90a19b7f9d717dc51e03d3f8f8aa22b1868594936113407fa6f6d5e50bc84f153a0d6a9f9b37780433f92dc32d7e10f975ab3831c36898fa9998978c95611b9f565b90848d52855280828d205581519086825285820152a28351928352820152a380f35b5060649185519162461bcd60e51b8352820152601e60248201527f43616e6e6f7420756e6c6f636b206d6f7265207468616e206c6f636b656400006044820152fd5b6113bb9150873d89116102f3576102e58183611a01565b8e6112b3565b8b51903d90823e3d90fd5b50505050909192939495966112dc90611a4e565b878b5260078452868b20898c528452868b20559761123f565b865162461bcd60e51b815280840185905260116024820152704e6f206c6f616e7320746f20726570617960781b6044820152606490fd5b6114469250803d106102f3576102e58183611a01565b8f80611184565b8c51903d90823e3d90fd5b5050506111b18798999a97929394959697611a4e565b9050823461031d5761147f3661196d565b90939592948754946001600160401b039661149b888816611a89565b8a996001600160a01b0398909190851c8916908b5b8151811015611770578d8c6114c583856119ed565b518951636bf8e80f60e01b815291166001600160401b03168c820190815233602080830191909152908190839081906040010381895afa9283156117655792611748575b505061151d57611518906119aa565b6114b0565b50505087989950611539600198929394959697989a999a611a4e565b1695868a52602091600583528a858120998b83169a8b835285528682206115618a8254611c45565b9055898252600685528682208b83528552868220611580878254611c45565b9055898252600785528682208b83528552878783205581546115a3828216611a89565b90839d84918a1c16935b825182101561172f576115f788856115c585876119ed565b518d51636bf8e80f60e01b815291166001600160401b03168a8201908152336020820152909283918291604090910190565b0381895afa9182156113c15791611712575b5061161d57611617906119aa565b8e6115ad565b5050505061163891929394959697989950610e806001611a4e565b83116116c357917f7695c943e86fe119073b098f1b278727c236f4a661c96a660dacbf88f89c606795939160609593898b52808252838b2061167b848254611c45565b9055898b528152887fb8cecfd0e38e35fdd1cbaa8877116ea7f0dc948c1317b8ce1a47eaedfe64154684808d205481519086825285820152a28251948552840152820152a380f35b60849184519162461bcd60e51b8352820152602560248201527f496e73756666696369656e7420756e6c6f636b65642062616c616e636520746f604482015264206c6f636b60d81b6064820152fd5b6117299150883d8a116102f3576102e58183611a01565b5f611609565b5050505050610e8061163892939495969798999a611a4e565b61175e9250803d106102f3576102e58183611a01565b8f80611509565b8a51903d90823e3d90fd5b505050611539889a9892939495969798611a4e565b8391503461031d578160031936011261031d576117a061193d565b9160243584546001600160401b03946117ba868316611a89565b87966001600160a01b0393861c841691885b815181101561192b5788836117e183856119ed565b518a51636bf8e80f60e01b815291166001600160401b031691810191825233602080840191909152918290829081906040010381895afa918215611921578d92611904575b505061183a57611835906119aa565b6117cc565b5050505090919293945061184e6001611a4e565b61185781611bac565b83116118b357907fb8cecfd0e38e35fdd1cbaa8877116ea7f0dc948c1317b8ce1a47eaedfe641546939291169384865280602052828620611899838254611c45565b90558486526020528185205482519182526020820152a280f35b835162461bcd60e51b8152602081870152602560248201527f496e73756666696369656e7420756e6c6f636b65642062616c616e636520746f604482015264206c6f636b60d81b6064820152608490fd5b61191a9250803d106102f3576102e58183611a01565b8c80611826565b8a513d8f823e3d90fd5b50505050909192939461184e90611a4e565b600435906001600160a01b038216820361195357565b5f80fd5b602435906001600160a01b038216820361195357565b60a0906003190112611953576001600160a01b03906004358281168103611953579160243590811681036119535790604435906064359060843590565b5f1981146119b85760010190565b634e487b7160e01b5f52601160045260245ffd5b8051156119d95760200190565b634e487b7160e01b5f52603260045260245ffd5b80518210156119d95760209160051b010190565b90601f801991011681019081106001600160401b03821117611a2257604052565b634e487b7160e01b5f52604160045260245ffd5b90816020910312611953575180151581036119535790565b15611a5557565b60405162461bcd60e51b815260206004820152600c60248201526b155b985d5d1a1bdc9a5e995960a21b6044820152606490fd5b6001600160401b03908116611ac85760405190604082019082821090821117611a225760405260018152602036818301375f611ac4826119cc565b5290565b6040519060e0820190811182821017611a22576040526006815260c03660208301375f80611af5836119cc565b52815160011015611b4f5760016040830152815160021015611b4f5760026060830152815160031015611b4f5760036080830152815160041015611b4f57600560a0830152815160051015611b4f5750600660c082015290565b634e487b7160e01b81526032600452602490fd5b9081602091031261195357518060070b81036119535790565b600260015414611b8d576002600155565b604051633ee5aeb560e01b8152600490fd5b919082039182116119b857565b60018060a01b03165f90808252600460205260246020604084205492604051928380926370a0823160e01b82523060048301525afa908115611c3a578391611c09575b50808211611c0457611c019250611b9f565b90565b505090565b90506020813d8211611c32575b81611c2360209383611a01565b8101031261031d57515f611bef565b3d9150611c16565b6040513d85823e3d90fd5b919082018092116119b85756fea2646970667358221220ace5d580b46ce805d5f16a7d778b0d885e06e7fc05e285dfb64e6f7540c7c74964736f6c634300081400336080806040523462000701576200214980380380916200002082856200085d565b83398101608082820312620007015781516001600160401b0381116200070157816200004e918401620008c0565b602083015190916001600160401b038211620007015762000071918401620008c0565b604083015190926001600160a01b03821682036200070157606001516001600160401b038116908190036200070157600160208181525f80516020620020698339815191529190915560025f80516020620020898339815191525560045f80516020620021098339815191525560085f80516020620020c98339815191525560105f80516020620020a9833981519152555f80516020620021298339815191525560065f81905260405f80516020620020e9833981519152558111620007fd57600280546001600160e01b03191691909117604092831b600160401b600160e01b0316179055519161012083016001600160401b03811184821017620007e95760405260608352606060208401525f60408401526060808401525f60808401525f60a08401525f60c0840152606060e0840152620001ae6200090d565b91610100928385015283526020830152306040830152620001ce6200090d565b30602082015262786450604082015281830152604051808281011060018060401b038383011117620007e957818101604052600781525f5b60e08110620007cf57506200021a62000978565b505f805260016020525f8051602062002069833981519152546200023d6200093c565b30602082015260405191620002528362000841565b8252602082015262000264826200099c565b5262000270816200099c565b506200027b62000978565b5060015f8190526020525f8051602062002089833981519152546200029f6200093c565b30602082015260405191620002b48362000841565b82526020820152620002c682620009be565b52620002d281620009be565b50620002dd62000978565b5060025f5260016020525f805160206200210983398151915254620003016200093c565b30602082015260405191620003168362000841565b825260208201526200032882620009cf565b526200033481620009cf565b506200033f62000978565b5060035f5260016020525f80516020620020c983398151915254620003636200093c565b30602082015260405191620003788362000841565b825260208201526200038a82620009e0565b526200039681620009e0565b50620003a162000978565b5060045f5260016020525f80516020620020a983398151915254620003c56200093c565b30602082015260405191620003da8362000841565b82526020820152620003ec82620009f1565b52620003f881620009f1565b506200040362000978565b5060055f5260016020525f805160206200212983398151915254620004276200093c565b306020820152604051916200043c8362000841565b825260208201526200044e8262000a02565b526200045a8162000a02565b506200046562000978565b5060065f5260016020525f80516020620020e983398151915254620004896200093c565b306020820152604051916200049e8362000841565b82526020820152620004b08262000a13565b52620004bc8162000a13565b5060e083015280820151805160070b1580620007bf575b620007af575b5060405190630fb65bf360e01b602083015260606024830152620005556200052b62000514855161016060848701526101e486019062000a24565b60208601518582036083190160a487015262000a24565b60408501516001600160a01b031660c485015260608501518482036083190160e486015262000a24565b926080810151151561010484015260a081015160070b61012484015260c0810151151561014484015260e08101519360831984820301610164850152845180825260208201916020808360051b8301019701925f915b8383106200071a575f808962000607818d60408d8d0151805160070b61018485015260018060a01b036020820151166101a4850152015160070b6101c48301528460448301526008606483015203601f1981018352826200085d565b602081519101826101675af13d1562000711573d90620006278262000881565b916200063760405193846200085d565b82523d5f602084013e5b15620007055760408180518101031262000701576020810151908160030b8092036200070157604001516001600160a01b038116919082900362000701576016905b60030b03620006bc57600380546001600160a01b0319166001600160a01b039290921691909117905560405161161d908162000a4c8239f35b60405162461bcd60e51b815260206004820152601660248201527f4661696c656420746f2063726561746520746f6b656e000000000000000000006044820152606490fd5b5f80fd5b505f6016601562000683565b60609062000641565b9091929397602080600192601f19858203018652818c5180518352015190604083820152815115156040820152848060a01b038383015116606082015260c06200078f62000778604085015160a0608086015260e085019062000a24565b6060850151848203603f190160a086015262000a24565b926080878060a01b03910151169101529a019301930191939290620005ab565b60406276a7009101525f620004d9565b50604081015160070b15620004d3565b602090620007dc62000978565b8282850101520162000206565b634e487b7160e01b5f52604160045260245ffd5b606460405162461bcd60e51b815260206004820152602060248201527f496e76616c696420636f6e74726f6c20616c6c6f77206c697374206c6576656c6044820152fd5b604081019081106001600160401b03821117620007e957604052565b601f909101601f19168101906001600160401b03821190821017620007e957604052565b6001600160401b038111620007e957601f01601f191660200190565b5f5b838110620008af5750505f910152565b81810151838201526020016200089f565b81601f8201121562000701578051620008d98162000881565b92620008e960405194856200085d565b8184526020828401011162000701576200090a91602080850191016200089d565b90565b60405190606082016001600160401b03811183821017620007e9576040525f6040838281528260208201520152565b6040519060a082016001600160401b03811183821017620007e9576040525f608083828152826020820152606060408201526060808201520152565b60405190620009878262000841565b815f81526020620009976200093c565b910152565b805115620009aa5760200190565b634e487b7160e01b5f52603260045260245ffd5b805160011015620009aa5760400190565b805160021015620009aa5760600190565b805160031015620009aa5760800190565b805160041015620009aa5760a00190565b805160051015620009aa5760c00190565b805160061015620009aa5760e00190565b9060209162000a3f815180928185528580860191016200089d565b601f01601f191601019056fe6080604081815260049182361015610015575f80fd5b5f9283803560e01c92836315dacbea1461125e575050816331d6ebdf1461108b578163618dc65e14610f465781637276ecca14610d405781637349da0a1461080f5781639b23d3d9146107595781639dbead421461056e578163a1d34a421461040a578163c7ea4d44146103e2578163de287359146103b9578163fb9d09c8146100d3575063fc0c546a146100a8575f80fd5b346100cf57816003193601126100cf5760035490516001600160a01b039091168152602090f35b5080fd5b9050346103b5576020806003193601126103b1576100ef611327565b92600254936001600160401b03906101088287166114ff565b87966001600160a01b039190851c821690885b815181101561039f57610165888a886101348587611481565b518b51636bf8e80f60e01b815291166001600160401b03169181019182523360208301529283918291604090910190565b0381875afa908115610395578c91610368575b5061018b576101869061143e565b61011b565b505050909192939495506101a36001908892916114ad565b60035416918451926101b48461136c565b828452855190858883019363707a02cd60e11b8552608484019260248501521660070b604483015260606064830152845180915260a48201908860a48260051b85010196019185905b8a83831061033657505050505061021e81849503601f198101835282611387565b5190826101675af19061022f611401565b911561031e57815182019060608386840193031261031a57610252858401611430565b9261025e8582016115d9565b506060810151918211610316570181603f8201121561031a5784810151908486610287846114e8565b61029383519182611387565b848152019260051b8201019283116103165784869101915b8383106102fe57505050506016905b60030b036102c6578380f35b5162461bcd60e51b815291820152601460248201527311985a5b1959081d1bc81b5a5b9d08185cdcd95d60621b604482015260649150fd5b8190610309846115d9565b81520191019085906102ab565b8780fd5b8680fd5b505083815161032c8161136c565b52601660156102ba565b80919395975061035560019395979960a3198a820301865288516113c3565b9601920192018b959391929694966101fd565b6103889150893d8b1161038e575b6103808183611387565b810190611495565b5f610178565b503d610376565b88513d8e823e3d90fd5b5050506101a3889293949596976114ad565b8380fd5b8280fd5b5050346100cf57816003193601126100cf576002548151911c6001600160a01b03168152602090f35b5050346100cf57816003193601126100cf576020906001600160401b03600254169051908152f35b919050346103b5576020806003193601126103b157610427611327565b92600254916001600160401b0361043f8185166114ff565b87969085871c6001600160a01b031690885b815181101561055c5761049b86866104698486611481565b518c51636bf8e80f60e01b815291166001600160401b03168a8201908152336020820152909283918291604090910190565b0381875afa908115610552578c91610535575b506104c1576104bc9061143e565b610451565b505050909192939495506104d560016114ad565b1693600685116104f45750505067ffffffffffffffff19161760025580f35b5162461bcd60e51b815291820181905260248201527f496e76616c696420636f6e74726f6c20616c6c6f77206c697374206c6576656c604482015260649150fd5b61054c9150873d891161038e576103808183611387565b5f6104ae565b8a513d8e823e3d90fd5b5050509091929394956104d5906114ad565b9050346103b5576020806003193601126103b15761058a611327565b92600254936001600160401b03906105a38287166114ff565b87966001600160a01b039190851c821690885b8151811015610747576105cf888a886101348587611481565b0381875afa908115610395578c9161072a575b506105f5576105f09061143e565b6105b6565b509697509495509293509186919061060d60016114ad565b6003541684519361061d8561136c565b83855285519187830193636b48868360e11b85526084840191602485015260079216820b60448401526060606484015285518091528760a4840196019185905b8983831061070d57505050505061067e81849503601f198101835282611387565b5190826101675af161068e611401565b90156107035781818051810103126106ff57806106b9836106b28660169501611430565b92016115d9565b505b60030b036106c7578380f35b5162461bcd60e51b815291820152601460248201527311985a5b1959081d1bc8189d5c9b88185cdcd95d60621b604482015260649150fd5b8480fd5b50601660156106bb565b8451820b8952978801978c9750909301926001919091019061065d565b6107419150893d8b1161038e576103808183611387565b5f6105e2565b50505061060d889392949596976114ad565b5050346100cf5781806107c26107b4610771366112d0565b8851639b23d3d960e01b602082019081526001600160a01b03958616602483015293851660448201529390911660648401526084830152929091829060a4820190565b03601f198101835282611387565b5190826101675af1916107d3611401565b9215610802576020838051810103126107ff57506107f46020809301611430565b905b519060030b8152f35b80fd5b50602091506015906107f6565b8383346100cf57806003193601126100cf579061082a6112b6565b92610833611311565b91600254916001600160401b03928381169561084e876114ff565b958497859760018060a01b038095851c16985b8151811015610d2b5786896108768385611481565b518751636bf8e80f60e01b815291166001600160401b03169181019182523360208084019190915291829082908e908290819060400103915afa918215610cf2578a92610d0e575b50506108d2576108cd9061143e565b610861565b50506108ef9192939495969798506108ea60016114ad565b6114ff565b968597865b8151811015610cfc5786896109098385611481565b518751636bf8e80f60e01b815291166001600160401b031691810191825233602080840191909152918290829081906040010381885afa918215610cf2578a92610cd5575b50506109625761095d9061143e565b6108f4565b5050509091929394955061097660016114ad565b858360035416911660070b9282519361098e8561136c565b8685528351876020968783019563707a02cd60e11b87526084840190602485015284604485015260606064850152815180915260a48401908960a48260051b87010193019184905b8b838310610ca8575050505050916109f881839403601f198101835282611387565b516101679582875af1610a09611401565b9015610c915780518101606082888301920312610c8d57610a2b878301611430565b91610a378782016115d9565b506060810151908b8211610c85570181603f82011215610c895787810151908789610a61846114e8565b610a6d83519182611387565b848152019260051b820101928311610c855787899101915b838310610c6d57505050506016905b60030b03610c3357600254610aaa8982166114ff565b988899848a93881c16925b8151811015610c1d57610aff898b85610ace8587611481565b518c51636bf8e80f60e01b815291166001600160401b03169181019182523360208301529283918291604090910190565b0381885afa908115610c13578c91610bf6575b50610b2557610b209061143e565b610ab5565b505050508698879597949698508491610b3e60016114ad565b8360035416938851928a84019563eca3691760e01b87526024850152306044850152166064830152608482015260848152610b788161133d565b51925af1610b84611401565b9015610bec5782818051810103126106ff57610ba38360169201611430565b60030b03610baf578380f35b5162461bcd60e51b81529182015260196024820152784661696c656420746f207472616e7366657220746f6b656e7360381b604482015260649150fd5b5060166015610ba3565b610c0d91508a3d8c1161038e576103808183611387565b8e610b12565b89513d8e823e3d90fd5b50505050958098819597610b3e8396989a6114ad565b835162461bcd60e51b8152808701869052601460248201527311985a5b1959081d1bc81b5a5b9d08185cdcd95d60621b6044820152606490fd5b8190610c78846115d9565b8152019101908890610a85565b8a80fd5b8980fd5b8880fd5b50868451610c9e8161136c565b5260166015610a94565b600192949650610cc58192949660a3198a820301865288516113c3565b9601920192018c949391926109d6565b610ceb9250803d1061038e576103808183611387565b8c8061094e565b87513d8c823e3d90fd5b505050909192939495610976906114ad565b610d249250803d1061038e576103808183611387565b8d806108be565b50506108ea6108ef92939495969798996114ad565b9050346103b557816003193601126103b557610d5a611327565b6001600160a01b03929060243584811690819003610f4257600254946001600160401b0390610d8a8288166114ff565b8897861c821690885b8151811015610f31578885610da88385611481565b518a51636bf8e80f60e01b815291166001600160401b031691810191825233602080840191909152918290829081906040010381885afa918215610f27578d92610f0a575b5050610e0157610dfc9061143e565b610d93565b50505081929394959650610e1560016114ad565b6003541693855193602085019563efef57f960e01b8752602486015260448501521660070b60648301526064825260a082019082821090821117610ef7578352518491829190826101675af1610e69611401565b9015610eed576020818051810103126103b157610e8a602060169201611430565b60030b03610e96578280f35b906020608492519162461bcd60e51b8352820152602b60248201527f4661696c656420746f20776970652061737365742066726f6d2074686520757360448201526a195c9cc81858d8dbdd5b9d60aa1b6064820152fd5b5060166015610e8a565b634e487b7160e01b865260418552602486fd5b610f209250803d1061038e576103808183611387565b5f80610ded565b8a513d8f823e3d90fd5b505050610e158293949596976114ad565b8580fd5b839150346100cf57826003193601126100cf57610f616112b6565b90602435906001600160401b0382116103b157366023830112156103b157810135610f8b816113a8565b91610f9886519384611387565b81835236602483830101116106ff57610ff88594929385602086829760246107b49701838601378301015287516330c6e32f60e11b602082019081526001600160a01b0390951660248201526044810189905292839160648301906113c3565b5190826101675af190611009611401565b917f4af4780e06fe8cb9df64b0794fa6f01399af979175bb988e35e0e57e594567bc8451821515815285602082015280611045878201876113c3565b0390a115611071575061106d6016915b835193849360030b84528060208501528301906113c3565b0390f35b8251915061107e8261136c565b815261106d601591611055565b905082346107ff57826003193601126107ff576110a66112b6565b916110af611311565b936002546001600160401b03946110c78683166114ff565b949586956001600160a01b0393851c841690875b815181101561124b5787846110f08385611481565b518951636bf8e80f60e01b815291166001600160401b031691810191825233602080840191909152918290829081906040010381885afa918215611241578b92611224575b5050611149576111449061143e565b6110db565b50505085978695975061115f60019795976114ad565b836003541693875193602085019563eca3691760e01b875260248601523060448601521660648401521660070b60848201526084815261119e8161133d565b5190826101675af16111ae611401565b901561121a576020818051810103126103b1576111cf602060169201611430565b60030b036111db578280f35b906020606492519162461bcd60e51b835282015260196024820152784661696c656420746f207472616e7366657220746f6b656e7360381b6044820152fd5b50601660156111cf565b61123a9250803d1061038e576103808183611387565b8c80611135565b89513d8d823e3d90fd5b505050859761115f8796989795976114ad565b818591346100cf576107b4816107c28493611278366112d0565b630aed65f560e11b602086019081526001600160a01b03948516602487015292841660448601529216606484015260848301919091529360a4820190565b600435906001600160a01b03821682036112cc57565b5f80fd5b60809060031901126112cc576001600160a01b0360043581811681036112cc579160243582811681036112cc579160443590811681036112cc579060643590565b602435906001600160401b03821682036112cc57565b600435906001600160401b03821682036112cc57565b60c081019081106001600160401b0382111761135857604052565b634e487b7160e01b5f52604160045260245ffd5b602081019081106001600160401b0382111761135857604052565b90601f801991011681019081106001600160401b0382111761135857604052565b6001600160401b03811161135857601f01601f191660200190565b91908251928382525f5b8481106113ed575050825f602080949584010152601f8019910116010190565b6020818301810151848301820152016113cd565b3d1561142b573d90611412826113a8565b916114206040519384611387565b82523d5f602084013e565b606090565b51908160030b82036112cc57565b5f19811461144c5760010190565b634e487b7160e01b5f52601160045260245ffd5b80511561146d5760200190565b634e487b7160e01b5f52603260045260245ffd5b805182101561146d5760209160051b010190565b908160209103126112cc575180151581036112cc5790565b156114b457565b60405162461bcd60e51b815260206004820152600c60248201526b155b985d5d1a1bdc9a5e995960a21b6044820152606490fd5b6001600160401b0381116113585760051b60200190565b6001600160401b0390811661153e57604051906040820190828210908211176113585760405260018152602036818301375f61153a82611460565b5290565b6040519060e0820190811182821017611358576040526006815260c03660208301375f8061156b83611460565b528151600110156115c557600160408301528151600210156115c557600260608301528151600310156115c557600360808301528151600410156115c557600560a08301528151600510156115c55750600660c082015290565b634e487b7160e01b81526032600452602490fd5b51908160070b82036112cc5756fea26469706673582212201cbf987b1b4c487de77216a7d9870de4715502d3b6578ac50ea405d3c5e4451f64736f6c63430008140033a6eef7e35abe7026729641147f7915573c7e97b47efa546f5f6e3230263bcb49cc69885fda6bcc1a4ace058b4a62bf5e179ea78fd58a1ccd71c22cc9b688792fedc95719e9a3b28dd8e80877cb5880a9be7de1a13fc8b05e7999683b6b5676437dfe757ecd65cbd7922a9c0161e935dd7fdbcc0e999689c7d31633896b1fc60b8f331abe73332f95a25873e8b430885974c0409691f89d643119a11623a7924ad9d16d34ffb15ba3a3d852f0d403e2ce1d691fb54de27ac87cd2f993f3ec330fe2689cd4a84e23ad2f564004f1c9013e9589d260bde6380aba3ca7e09e4df40c","linkReferences":{}},"methodIdentifiers":{"BASE_POINT()":"1135daeb","MAX_INDEX()":"8a539cbe","SECONDS_PER_YEAR()":"e6a69ab8","acl()":"de287359","assetMultiplierOracle(address)":"71302473","baseRate()":"1f68f20a","borrow(address,uint256,address)":"6c665a55","borrowIndex()":"aa5af0fd","calculateCurrentDebt(uint256,uint256)":"ae60d5fc","calculateCurrentDeposit(uint256)":"d288043b","calculateHealthFactor(uint256,uint256)":"01f72884","controlAllowList()":"c7ea4d44","deposit(address,uint256)":"47e7ef24","getAssetMultiplier(address)":"d28320d6","getBorrowRate()":"ba1c5e80","getMaxBorrowAmount(uint256,address)":"c0919750","getPoolStats()":"bbb85188","getSupplyRate()":"84bdc9a8","getUserBorrowPosition(address,address)":"471b4427","getUserDepositPosition(address)":"e108f857","getUtilization()":"7eb71131","isPositionLiquidatable(address,address)":"6558ef11","lastUpdatedTimestamp()":"fbaf894c","lendingAsset()":"1ffce3f4","liquidate(address,address,uint256,address)":"3de2f6b2","liquidationDiscount()":"8053fcbe","liquidationThreshold()":"4031234c","ltv()":"6fb49d73","optimalUtilization()":"6290cd1c","repay(address,address,uint256)":"1da649cf","reserve()":"cd3293de","reserveFactor()":"4322b714","setControlAllowList(uint64)":"a1d34a42","slope1()":"a62b75a8","slope2()":"d0134cb7","supplyIndex()":"98f1bc12","totalBorrowed()":"4c19386c","totalSupplied()":"630fd0ac","treasury()":"61d027b3","updateBorrowIndex()":"67e74dd1","updateIndices()":"383e2170","updateOracle(address,uint256)":"b42ba5b1","updateSupplyIndex()":"ed8e3e8f","withdraw(address,uint256)":"f3fef3a3","yieldBearingAsset()":"c95abc22"},"id":11}