{"abi":[{"type":"constructor","inputs":[{"name":"_ltv","type":"uint64","internalType":"uint64"},{"name":"_optimalUtilization","type":"uint64","internalType":"uint64"},{"name":"_baseRate","type":"uint64","internalType":"uint64"},{"name":"_slope1","type":"uint64","internalType":"uint64"},{"name":"_slope2","type":"uint64","internalType":"uint64"},{"name":"_liquidationThreshold","type":"uint64","internalType":"uint64"},{"name":"_liquidationDiscount","type":"uint64","internalType":"uint64"},{"name":"_reserveFactor","type":"uint64","internalType":"uint64"},{"name":"_lending","type":"address","internalType":"address"},{"name":"yieldAsset","type":"string","internalType":"string"},{"name":"yieldAssetSymbol","type":"string","internalType":"string"},{"name":"lendingPool","type":"string","internalType":"string"},{"name":"aclContract","type":"address","internalType":"address"},{"name":"allowList","type":"uint64","internalType":"uint64"}],"stateMutability":"nonpayable"},{"type":"function","name":"BASE_POINT","inputs":[],"outputs":[{"name":"","type":"uint256","internalType":"uint256"}],"stateMutability":"view"},{"type":"function","name":"MAX_INDEX","inputs":[],"outputs":[{"name":"","type":"uint256","internalType":"uint256"}],"stateMutability":"view"},{"type":"function","name":"PRICE_PRECISION","inputs":[],"outputs":[{"name":"","type":"uint256","internalType":"uint256"}],"stateMutability":"view"},{"type":"function","name":"SECONDS_PER_YEAR","inputs":[],"outputs":[{"name":"","type":"uint256","internalType":"uint256"}],"stateMutability":"view"},{"type":"function","name":"acl","inputs":[],"outputs":[{"name":"","type":"address","internalType":"contract AccessController"}],"stateMutability":"view"},{"type":"function","name":"assetMultiplierOracle","inputs":[{"name":"","type":"address","internalType":"address"}],"outputs":[{"name":"","type":"uint256","internalType":"uint256"}],"stateMutability":"view"},{"type":"function","name":"baseRate","inputs":[],"outputs":[{"name":"","type":"uint64","internalType":"uint64"}],"stateMutability":"view"},{"type":"function","name":"borrow","inputs":[{"name":"user","type":"address","internalType":"address"},{"name":"collateralAmount","type":"uint256","internalType":"uint256"},{"name":"collateralAsset","type":"address","internalType":"address"}],"outputs":[],"stateMutability":"nonpayable"},{"type":"function","name":"borrowIndex","inputs":[],"outputs":[{"name":"","type":"uint256","internalType":"uint256"}],"stateMutability":"view"},{"type":"function","name":"calculateCurrentDebt","inputs":[{"name":"userPrincipal","type":"uint256","internalType":"uint256"},{"name":"userBorrowIndex","type":"uint256","internalType":"uint256"}],"outputs":[{"name":"","type":"uint256","internalType":"uint256"}],"stateMutability":"view"},{"type":"function","name":"calculateCurrentDeposit","inputs":[{"name":"userShares","type":"uint256","internalType":"uint256"}],"outputs":[{"name":"","type":"uint256","internalType":"uint256"}],"stateMutability":"view"},{"type":"function","name":"calculateHealthFactor","inputs":[{"name":"collateralValue","type":"uint256","internalType":"uint256"},{"name":"borrowedValue","type":"uint256","internalType":"uint256"}],"outputs":[{"name":"","type":"uint256","internalType":"uint256"}],"stateMutability":"view"},{"type":"function","name":"controlAllowList","inputs":[],"outputs":[{"name":"","type":"uint64","internalType":"uint64"}],"stateMutability":"view"},{"type":"function","name":"deposit","inputs":[{"name":"user","type":"address","internalType":"address"},{"name":"amount","type":"uint256","internalType":"uint256"}],"outputs":[],"stateMutability":"nonpayable"},{"type":"function","name":"getAssetMultiplier","inputs":[{"name":"asset","type":"address","internalType":"address"}],"outputs":[{"name":"","type":"uint256","internalType":"uint256"}],"stateMutability":"view"},{"type":"function","name":"getBorrowRate","inputs":[],"outputs":[{"name":"","type":"uint256","internalType":"uint256"}],"stateMutability":"view"},{"type":"function","name":"getMaxBorrowAmount","inputs":[{"name":"collateralAmount","type":"uint256","internalType":"uint256"},{"name":"collateralAsset","type":"address","internalType":"address"}],"outputs":[{"name":"","type":"uint256","internalType":"uint256"}],"stateMutability":"view"},{"type":"function","name":"getPoolStats","inputs":[],"outputs":[{"name":"totalSupply","type":"uint256","internalType":"uint256"},{"name":"totalBorrow","type":"uint256","internalType":"uint256"},{"name":"availableLiquidity","type":"uint256","internalType":"uint256"},{"name":"utilizationRate","type":"uint256","internalType":"uint256"},{"name":"supplyAPY","type":"uint256","internalType":"uint256"},{"name":"borrowAPY","type":"uint256","internalType":"uint256"}],"stateMutability":"view"},{"type":"function","name":"getReserveAccount","inputs":[],"outputs":[{"name":"","type":"address","internalType":"address"}],"stateMutability":"view"},{"type":"function","name":"getSupplyRate","inputs":[],"outputs":[{"name":"","type":"uint256","internalType":"uint256"}],"stateMutability":"view"},{"type":"function","name":"getTreasureyAccount","inputs":[],"outputs":[{"name":"","type":"address","internalType":"address"}],"stateMutability":"view"},{"type":"function","name":"getUserBorrowPosition","inputs":[{"name":"user","type":"address","internalType":"address"},{"name":"collateralAsset","type":"address","internalType":"address"}],"outputs":[{"name":"principalBorrowed","type":"uint256","internalType":"uint256"},{"name":"currentDebt","type":"uint256","internalType":"uint256"},{"name":"collateralAmount","type":"uint256","internalType":"uint256"},{"name":"healthFactor","type":"uint256","internalType":"uint256"},{"name":"borrowIndex","type":"uint256","internalType":"uint256"}],"stateMutability":"view"},{"type":"function","name":"getUserDepositPosition","inputs":[{"name":"user","type":"address","internalType":"address"}],"outputs":[{"name":"yieldTokenBalance","type":"uint256","internalType":"uint256"},{"name":"underlyingValue","type":"uint256","internalType":"uint256"},{"name":"currentSupplyAPY","type":"uint256","internalType":"uint256"}],"stateMutability":"view"},{"type":"function","name":"getUtilization","inputs":[],"outputs":[{"name":"","type":"uint256","internalType":"uint256"}],"stateMutability":"view"},{"type":"function","name":"isPositionLiquidatable","inputs":[{"name":"user","type":"address","internalType":"address"},{"name":"collateralAsset","type":"address","internalType":"address"}],"outputs":[{"name":"isLiquidatable","type":"bool","internalType":"bool"},{"name":"healthFactor","type":"uint256","internalType":"uint256"}],"stateMutability":"view"},{"type":"function","name":"lastUpdatedTimestamp","inputs":[],"outputs":[{"name":"","type":"uint256","internalType":"uint256"}],"stateMutability":"view"},{"type":"function","name":"lendingAsset","inputs":[],"outputs":[{"name":"","type":"address","internalType":"address"}],"stateMutability":"view"},{"type":"function","name":"liquidate","inputs":[{"name":"liquidator","type":"address","internalType":"address"},{"name":"borrower","type":"address","internalType":"address"},{"name":"debtToCover","type":"uint256","internalType":"uint256"},{"name":"collateralAsset","type":"address","internalType":"address"}],"outputs":[],"stateMutability":"nonpayable"},{"type":"function","name":"liquidationDiscount","inputs":[],"outputs":[{"name":"","type":"uint64","internalType":"uint64"}],"stateMutability":"view"},{"type":"function","name":"liquidationThreshold","inputs":[],"outputs":[{"name":"","type":"uint64","internalType":"uint64"}],"stateMutability":"view"},{"type":"function","name":"ltv","inputs":[],"outputs":[{"name":"","type":"uint64","internalType":"uint64"}],"stateMutability":"view"},{"type":"function","name":"optimalUtilization","inputs":[],"outputs":[{"name":"","type":"uint64","internalType":"uint64"}],"stateMutability":"view"},{"type":"function","name":"repay","inputs":[{"name":"user","type":"address","internalType":"address"},{"name":"collateralizedAsset","type":"address","internalType":"address"},{"name":"repayAmount","type":"uint256","internalType":"uint256"}],"outputs":[],"stateMutability":"nonpayable"},{"type":"function","name":"reserve","inputs":[],"outputs":[{"name":"","type":"address","internalType":"contract CradleAccount"}],"stateMutability":"view"},{"type":"function","name":"reserveFactor","inputs":[],"outputs":[{"name":"","type":"uint64","internalType":"uint64"}],"stateMutability":"view"},{"type":"function","name":"setControlAllowList","inputs":[{"name":"_newLevel","type":"uint64","internalType":"uint64"}],"outputs":[],"stateMutability":"nonpayable"},{"type":"function","name":"slope1","inputs":[],"outputs":[{"name":"","type":"uint64","internalType":"uint64"}],"stateMutability":"view"},{"type":"function","name":"slope2","inputs":[],"outputs":[{"name":"","type":"uint64","internalType":"uint64"}],"stateMutability":"view"},{"type":"function","name":"supplyIndex","inputs":[],"outputs":[{"name":"","type":"uint256","internalType":"uint256"}],"stateMutability":"view"},{"type":"function","name":"totalBorrowed","inputs":[],"outputs":[{"name":"","type":"uint256","internalType":"uint256"}],"stateMutability":"view"},{"type":"function","name":"totalSupplied","inputs":[],"outputs":[{"name":"","type":"uint256","internalType":"uint256"}],"stateMutability":"view"},{"type":"function","name":"treasury","inputs":[],"outputs":[{"name":"","type":"address","internalType":"contract CradleAccount"}],"stateMutability":"view"},{"type":"function","name":"updateBorrowIndex","inputs":[],"outputs":[],"stateMutability":"nonpayable"},{"type":"function","name":"updateIndices","inputs":[],"outputs":[],"stateMutability":"nonpayable"},{"type":"function","name":"updateOracle","inputs":[{"name":"asset","type":"address","internalType":"address"},{"name":"multiplier","type":"uint256","internalType":"uint256"}],"outputs":[],"stateMutability":"nonpayable"},{"type":"function","name":"updateSupplyIndex","inputs":[],"outputs":[],"stateMutability":"nonpayable"},{"type":"function","name":"withdraw","inputs":[{"name":"user","type":"address","internalType":"address"},{"name":"yieldTokenAmount","type":"uint256","internalType":"uint256"}],"outputs":[],"stateMutability":"nonpayable"},{"type":"function","name":"yieldBearingAsset","inputs":[],"outputs":[{"name":"","type":"address","internalType":"contract AbstractCradleAssetManager"}],"stateMutability":"view"},{"type":"event","name":"Borrowed","inputs":[{"name":"user","type":"address","indexed":true,"internalType":"address"},{"name":"collateralAsset","type":"address","indexed":true,"internalType":"address"},{"name":"collateralAmount","type":"uint256","indexed":false,"internalType":"uint256"},{"name":"borrowAmount","type":"uint256","indexed":false,"internalType":"uint256"},{"name":"borrowIndex","type":"uint256","indexed":false,"internalType":"uint256"}],"anonymous":false},{"type":"event","name":"Deposited","inputs":[{"name":"user","type":"address","indexed":true,"internalType":"address"},{"name":"amount","type":"uint256","indexed":false,"internalType":"uint256"},{"name":"yieldTokensMinted","type":"uint256","indexed":false,"internalType":"uint256"}],"anonymous":false},{"type":"event","name":"IndicesUpdated","inputs":[{"name":"newBorrowIndex","type":"uint256","indexed":false,"internalType":"uint256"},{"name":"newSupplyIndex","type":"uint256","indexed":false,"internalType":"uint256"},{"name":"timestamp","type":"uint256","indexed":false,"internalType":"uint256"}],"anonymous":false},{"type":"event","name":"Liquidated","inputs":[{"name":"liquidator","type":"address","indexed":true,"internalType":"address"},{"name":"borrower","type":"address","indexed":true,"internalType":"address"},{"name":"collateralAsset","type":"address","indexed":true,"internalType":"address"},{"name":"debtCovered","type":"uint256","indexed":false,"internalType":"uint256"},{"name":"collateralSeized","type":"uint256","indexed":false,"internalType":"uint256"}],"anonymous":false},{"type":"event","name":"OracleUpdated","inputs":[{"name":"asset","type":"address","indexed":true,"internalType":"address"},{"name":"newMultiplier","type":"uint256","indexed":false,"internalType":"uint256"}],"anonymous":false},{"type":"event","name":"Repaid","inputs":[{"name":"user","type":"address","indexed":true,"internalType":"address"},{"name":"collateralAsset","type":"address","indexed":true,"internalType":"address"},{"name":"repaidAmount","type":"uint256","indexed":false,"internalType":"uint256"},{"name":"principalRepaid","type":"uint256","indexed":false,"internalType":"uint256"},{"name":"interestPaid","type":"uint256","indexed":false,"internalType":"uint256"}],"anonymous":false},{"type":"event","name":"Withdrawn","inputs":[{"name":"user","type":"address","indexed":true,"internalType":"address"},{"name":"yieldTokensBurned","type":"uint256","indexed":false,"internalType":"uint256"},{"name":"underlyingAmount","type":"uint256","indexed":false,"internalType":"uint256"}],"anonymous":false},{"type":"error","name":"ReentrancyGuardReentrantCall","inputs":[]}],"bytecode":{"object":"0x608080604052346200040b576200747680380380916200002082856200040f565b833981016101c0828203126200040b576200003b8262000433565b906200004a6020840162000433565b90620000596040850162000433565b93620000686060820162000433565b94620000776080830162000433565b956200008660a0840162000433565b916200009560c0850162000433565b91620000a460e0860162000433565b90620000b4610100870162000448565b610120870151909a906001600160401b0381116200040b5788620000da91890162000480565b6101408801519099906001600160401b0381116200040b578962000100918a0162000480565b61016089015190996001600160401b0382116200040b5762000124918a0162000480565b9a620001346101808a0162000448565b986001600160401b03906200014d906101a00162000433565b1660068111620003c7575f80546001600160e01b03191690911760408b811b600160401b600160e01b0316919091179091556001805560038054600160a01b600160e01b03191660a09390931b600160a01b600160e01b031692909217909155608093841b600160801b600160c01b0390811696821b6fffffffffffffffff00000000000000009081166001600160401b03948516179790971760c09490941b6001600160c01b0319908116949094176004556005805498831b9097169790931697821697909717959095179290911b16179055600680546001600160a01b03199081166001600160a01b03998a16179091559151919695611f63808401939192909190841181851017620003b3578062000272868562002fc3978689863962000502565b03905ff08015620003a8578716886002541617600255620002ca602860405184620002a88296518092602080860191016200045d565b810167747265617375727960c01b60208201520360088101855201836200040f565b60405192818401926001600160401b03841185851017620003b3578493620002f6938793863962000502565b03905ff08015620003a8578416856003541617600355670de0b6b3a76400008060085560095542600a55604051926125509283850185811060018060401b03821117620003b3578662000372606093620003636001968a9962004f268b39608086526080860190620004db565b908482036020860152620004db565b94166040820152015203905ff08015620003a857169060075416176007555f600b555f600c55604051612a909081620005338239f35b6040513d5f823e3d90fd5b634e487b7160e01b5f52604160045260245ffd5b606460405162461bcd60e51b815260206004820152602060248201527f496e76616c696420636f6e74726f6c20616c6c6f77206c697374206c6576656c6044820152fd5b5f80fd5b601f909101601f19168101906001600160401b03821190821017620003b357604052565b51906001600160401b03821682036200040b57565b51906001600160a01b03821682036200040b57565b5f5b8381106200046f5750505f910152565b81810151838201526020016200045f565b81601f820112156200040b5780516001600160401b038111620003b35760405192620004b7601f8301601f1916602001856200040f565b818452602082840101116200040b57620004d891602080850191016200045d565b90565b90602091620004f6815180928185528580860191016200045d565b601f01601f1916010190565b6040906200051e600493959495606083526060830190620004db565b6001600160a01b039095166020820152015256fe60406080815260049081361015610014575f80fd5b5f91823560e01c90816301f72884146122215781630f47a0e5146107555781631135daeb146122045781631da649cf14611cad5781631f68f20a14611c845781631ffce3f414611c5b578163383e217014611c425781633de2f6b2146116a55781634031234c1461167d5781634322b71414611652578163471b44271461141257816347e7ef241461119f5781634c19386c1461118057816361d027b31461050f5781636290cd1c14611159578163630fd0ac1461113a5781636558ef111461110057816367e74dd1146110e75781636c665a5514610d1b5781636fb49d7314610cf057816371302473146106fc5781637eb7113114610cd35781638053fcbe14610caa57816384bdc9a814610c8d5781638a539cbe14610c6957816395082d2514610c4657816398f1bc1214610c27578163a1d34a4214610ac3578163a62b75a814610a99578163aa5af0fd14610a7a578163ae60d5fc14610a56578163b42ba5b114610926578163ba1c5e8014610902578163bbb8518814610893578163c0919750146107cd578163c7ea4d44146107a7578163c95abc221461077e578163cd3293de14610755578163d0134cb714610734578163d28320d6146106fc578163d288043b146106c7578163de2873591461069f578163e108f85714610557578163e6a69ab814610538578163ec2fde3e1461050f578163ed8e3e8f146104f0578163f3fef3a314610251575063fbaf894c14610230575f80fd5b3461024d578160031936011261024d57602090600a549051908152f35b5080fd5b919050346104ec57806003193601126104ec5761026c612249565b6024359184546001600160401b0392610286848316612367565b87966001600160a01b0393909190851c84169088805b82518110156104d9576102e8896102b383866122b8565b518a51636bf8e80f60e01b815291166001600160401b0316878201908152336020808301919091529283918391829160400190565b0381895afa9182156104cf5784926104a2575b505061030f5761030a90612275565b61029c565b50939495969798505050610323600161232c565b61032b6129f2565b610333612614565b670de0b6b3a764000061034860095489612441565b049561036d87600c5461036882610361600b54846124a4565b1015612a15565b6124a4565b600c558460075416803b1561048057865163393b766560e11b81529189166001600160401b03168383019081526001600160a01b03861660208201528491839182908490829060400103925af1801561049857908391610484575b50508360025416908460065416823b1561048057865163439e2e4560e01b81526001600160a01b0380871693820193845290911660208301526040820188905291839183919082908490829060600103925af180156104765761045e575b50507f92ccf450a286a957af52509bc1c9939d1a6a481783e142e41e2499f0bb66ebc693835195865260208601521692a26001805580f35b610467906122cc565b61047257855f610426565b8580fd5b85513d84823e3d90fd5b8380fd5b61048d906122cc565b61024d57815f6103c8565b86513d85823e3d90fd5b6104c19250803d106104c8575b6104b981836122f3565b810190612314565b5f806102fb565b503d6104af565b8a513d86823e3d90fd5b509394959697989050610323915061232c565b8280fd5b833461050c578060031936011261050c576105096125d6565b80f35b80fd5b50503461024d578160031936011261024d5760035490516001600160a01b039091168152602090f35b50503461024d578160031936011261024d57602090516301e187e08152f35b8391503461024d576020806003193601126104ec57610574612249565b6007548551637e062a3560e11b81526001600160a01b039291849082908790829087165afa9081156106955790849392918791610659575b509082602492895197889586946370a0823160e01b86521690840152165afa92831561064e579261061c575b5050610618670de0b6b3a76400006105f260095484612441565b04926105fc612546565b9051938493846040919493926060820195825260208201520152565b0390f35b90809250813d8311610647575b61063381836122f3565b81010312610643575182806105d8565b5f80fd5b503d610629565b8451903d90823e3d90fd5b848193949592503d831161068e575b61067281836122f3565b81010312610472575182811681036104725783929190826105ac565b503d610668565b87513d88823e3d90fd5b50503461024d578160031936011261024d5790548151911c6001600160a01b03168152602090f35b82843461050c57602036600319011261050c5750670de0b6b3a76400006106f46020936009549035612441565b049051908152f35b50503461024d57602036600319011261024d5760209181906001600160a01b03610724612249565b168152600d845220549051908152f35b9050346104ec57826003193601126104ec57602092505460c01c9051908152f35b50503461024d578160031936011261024d5760025490516001600160a01b039091168152602090f35b50503461024d578160031936011261024d5760075490516001600160a01b039091168152602090f35b50503461024d578160031936011261024d576001600160401b0360209254169051908152f35b9050346104ec57816003193601126104ec576001600160a01b036107ef61225f565b16808452600d602052816020848620549285519283809263313ce56760e01b82525afa90811561088957926108426106f49361083b610847946127109760209a9161085c575b506127ef565b9235612441565b612454565b6001600160401b0360035460a01c1690612441565b61087c91508a3d8111610882575b61087481836122f3565b8101906127d6565b5f610835565b503d61086a565b84513d87823e3d90fd5b50503461024d578160031936011261024d5760c091600c5491600b54918284115f146108fd57506108c482846124a4565b6108cc612472565b906108d5612546565b926108de6124be565b94815196875260208701528501526060840152608083015260a0820152f35b6108c4565b50503461024d578160031936011261024d5760209061091f6124be565b9051908152f35b9050823461050c578260031936011261050c57610941612249565b9260243582546001600160401b039461095b868316612367565b949586956001600160a01b0393861c84169190875b8151811015610a2257610987836102b383856122b8565b0381895afa918215610a18578b926109fb575b50506109ae576109a990612275565b610970565b505050505060209294507f41dd56c92c84169d8e89dc293d2649a911f47b357d3012bc88662395e01979d093956109e5600161232c565b1693848652600d8352818187205551908152a280f35b610a119250803d106104c8576104b981836122f3565b8c8061099a565b8a513d8d823e3d90fd5b50505050507f41dd56c92c84169d8e89dc293d2649a911f47b357d3012bc88662395e01979d093956109e56020949661232c565b50503461024d5760209061091f610842610a6f36612233565b919060085490612441565b50503461024d578160031936011261024d576020906008549051908152f35b82843461050c578060031936011261050c57506001600160401b036020925460801c169051908152f35b9050346104ec5760209182600319360112610480578135916001600160401b039384841680940361047257855492610afc868516612367565b879685831c6001600160a01b031691885b8151811015610c1557610b578684610b2584866122b8565b518851636bf8e80f60e01b815291166001600160401b03168a8201908152336020820152909283918291604090910190565b0381885afa908115610c0b578c91610bee575b50610b7d57610b7890612275565b610b0d565b50505050909192939450610b91600161232c565b60068511610bad5750505067ffffffffffffffff191617815580f35b5162461bcd60e51b815291820181905260248201527f496e76616c696420636f6e74726f6c20616c6c6f77206c697374206c6576656c604482015260649150fd5b610c059150873d89116104c8576104b981836122f3565b5f610b6a565b86513d8e823e3d90fd5b505050509091929394610b919061232c565b50503461024d578160031936011261024d576020906009549051908152f35b50503461024d578160031936011261024d5760209051670de0b6b3a76400008152f35b50503461024d578160031936011261024d576020905168056bc75e2d631000008152f35b50503461024d578160031936011261024d5760209061091f612546565b50503461024d578160031936011261024d576005548151911c6001600160401b03168152602090f35b50503461024d578160031936011261024d5760209061091f612472565b50503461024d578160031936011261024d576020906001600160401b0360035460a01c169051908152f35b919050346104ec5760603660031901126104ec57610d37612249565b6001600160a01b0360443581811693919260243590858303610643578754966001600160401b0395610d6a878a16612367565b8a99871c8216908a5b81518110156110d3578c8a610d8883856122b8565b518b51636bf8e80f60e01b815291166001600160401b031687820190815233602080830191909152908190839081906040010381895afa9283156110c857926110ab575b5050610de057610ddb90612275565b610d73565b505050909192939495969750610df6600161232c565b610dfe6129f2565b610e06612614565b855163313ce56760e01b8152602097908a90898186818e5afa9081156110a1578b6108428b85600d8f610e4a6127109a98610e5698610e649b9161108a57506127ef565b9583525220548a612441565b9060035460a01c1690612441565b0494610e7986610361600c54600b54906124a4565b865163472a1d0960e11b8152308482019081526001600160a01b038316602082015285841699919082908290819060400103818d5afa908115611080578c91611053575b5061101a57506008548a94939291893b156104725788516318d9901d60e11b8152308582019081526001600160a01b0390921660208301526040820189905260608201889052608082019290925285908290819060a0010381838d5af1801561101057908591610ffc575b5050610f3686600b546124b1565b600b5560025460065482169116803b15610ff857875163439e2e4560e01b81526001600160a01b0394851693810193845293909116602083015260408201869052839183919082908490829060600103925af1801561047657610fe4575b5050610fda7fc1cba78646fef030830d099fc25cb498953709c9d47d883848f81fd207174c9f936008549051938493846040919493926060820195825260208201520152565b0390a36001805580f35b610fed906122cc565b61047257855f610f94565b8480fd5b611005906122cc565b61048057835f610f28565b88513d87823e3d90fd5b8360649189519162461bcd60e51b83528201526014602482015273115e1a5cdd1a5b99c81d5b9c185a590819195c1d60621b6044820152fd5b90508181813d8311611079575b61106a81836122f3565b8101031261064357515f610ebd565b503d611060565b89513d8e823e3d90fd5b61087c9150833d85116108825761087481836122f3565b89513d84823e3d90fd5b6110c19250803d106104c8576104b981836122f3565b5f80610dcc565b8c51903d90823e3d90fd5b5050509091929394959697610df69061232c565b833461050c578060031936011261050c5761050961258e565b82843461050c578160031936011261050c575061112c61111e612249565b61112661225f565b90612800565b825191151582526020820152f35b50503461024d578160031936011261024d57602090600c549051908152f35b82843461050c578060031936011261050c57506001600160401b0360209254169051908152f35b50503461024d578160031936011261024d57602090600b549051908152f35b919050346104ec57806003193601126104ec576111ba612249565b8354916024356001600160401b036111d3818616612367565b87966001600160a01b0396909190851c871690885b815181101561140057611234856111ff83856122b8565b518951636bf8e80f60e01b815291166001600160401b0316868201908152336020808301919091529283918391829160400190565b0381885afa9182156113f6578d926113d9575b505061125b5761125690612275565b6111e8565b5050509091929394955061126f600161232c565b6112776129f2565b61127f612614565b670de0b6b3a76400008084029084820414841517156113c65790866112a989949360095490612454565b966112b686600c546124b1565b600c5516968060025416816006541690893b1561047257875163439e2e4560e01b81526001600160a01b03918216858201908152919092166020820152604081018790528590829081906060010381838d5af180156113bc579085916113a8575b50506007541690813b156104805760448891858094895196879586946339a4ed0560e11b86528501528b1660248401525af1801561139e5761138a575b50507f73a19dd210f1a7f902193214c0ee91dd35ee5b4d920cba8d519eca65a7b488ca9282519182526020820152a26001805580f35b611393906122cc565b610ff857845f611354565b84513d84823e3d90fd5b6113b1906122cc565b61048057835f611317565b87513d87823e3d90fd5b634e487b7160e01b885260118252602488fd5b6113ef9250803d106104c8576104b981836122f3565b5f80611247565b89513d8f823e3d90fd5b50505090919293949561126f9061232c565b9050346104ec57816003193601126104ec5761142c612249565b9061143561225f565b835163472a1d0960e11b8152308382019081526001600160a01b0380841660208381019190915292969095929492861693909290918590889081906040010381875afa968715611648578897611619575b508251622275af60e91b8152308282019081526001600160a01b03841660208201529096908690889081906040010381885afa9687156115a35789976115ea575b50835163052226ef60e41b8152308382019081526001600160a01b0385166020820152909587918791908290819060400103915afa9485156115a35789956115bb575b5087156115ad57611521876108426008548b612441565b921690858451809263313ce56760e01b825281855afa9081156115a35761157392610842868c61155f889660a09f9661156e979161158c57506127ef565b938152600d8b52205488612441565b612781565b935b825196875286015284015260608301526080820152f35b61087c91508d803d106108825761087481836122f3565b84513d8b823e3d90fd5b50505060a0955f1993611575565b9094508581813d83116115e3575b6115d381836122f3565b810103126106435751935f61150a565b503d6115c9565b9096508581813d8311611612575b61160281836122f3565b810103126106435751955f6114c7565b503d6115f8565b9096508481813d8311611641575b61163181836122f3565b810103126106435751955f611486565b503d611627565b83513d8a823e3d90fd5b50503461024d578160031936011261024d576020906001600160401b0360055460801c169051908152f35b50503461024d578160031936011261024d576020906001600160401b03600554169051908152f35b9050346104ec5760803660031901126104ec576116c0612249565b916116c961225f565b91604435906064359260018060a01b039283851695868603610643578854976001600160401b03966116fc888b16612367565b8b9a861c8816908b5b8151811015611c2d578d8b61171a83856122b8565b518a51636bf8e80f60e01b815291166001600160401b03168b820190815233602080830191909152908190839081906040010381895afa928315611c225792611c05575b50506117725761176d90612275565b611705565b50505090919293949596979850611789600161232c565b6117916129f2565b611799612614565b845163313ce56760e01b815260209690878183818e5afa908115611bfb57906117c8918d91611be457506127ef565b988a8c52600d8852868c2054906117e3826108428d8a612441565b60055461271092908a1c16820190818311611bd157916118068f93928d93612441565b8a5163472a1d0960e11b8152308782019081526001600160a01b0389166020820152939099169d919004979390918b9085908f908290819060400103915afa938415611bc7578394611b94575b508c8b8b51809263052226ef60e41b8252818061188c8c308d840190602090939293604083019460018060a01b03809216845216910152565b03915afa908115611b8a578491611b59575b508d8c8c518092622275af60e91b825281806118d78d8d3090840190602090939293604083019460018060a01b03809216845216910152565b03915afa9485156110c85794611b20575b50670de0b6b3a76400009261084261191a9361190393612441565b611914846108426008548098612441565b90612781565b1015611ace5790611933816108428f979695948a612441565b908b3b156104725788516342c8afad60e01b8152308482019081526001600160a01b03861660208201526040810184905260608101899052608081019290925290869082908e9082908490829060a00103925af18015611ab057908691611aba575b50506119a390600b546124a4565b600b5588831698806002541690600654168a3b1561047257885163439e2e4560e01b8082526001600160a01b0393841685830190815292909316602083015260408201899052908690829081900360600181838f5af18015611ab057908691611a9c575b50508a3b15610ff85787519081526001600160a01b03938416918101918252929091166020820152604081018490528290829081906060010381838c5af1801561047657611a84575b50507fd1ef587d13fefe63f9bc582e973aad46877ef08cfe790838721bd521c53caf56938351928352820152a46001805580f35b611a8d906122cc565b611a9857875f611a50565b8780fd5b611aa5906122cc565b610ff857845f611a07565b89513d88823e3d90fd5b611ac3906122cc565b610ff857845f611995565b875162461bcd60e51b81528084018a9052602660248201527f506f736974696f6e20697320206865616c7468792c2063616e6e6f74206c697160448201526575696461746560d01b6064820152608490fd5b919093508b82813d8311611b52575b611b3981836122f3565b8101031261064357905192670de0b6b3a76400006118e8565b503d611b2f565b8094508c8092503d8311611b83575b611b7281836122f3565b81010312610643578e92515f61189e565b503d611b68565b8b513d86823e3d90fd5b8b809295508194503d8311611bc0575b611bae81836122f3565b81010312610643578d9151925f611853565b503d611ba4565b8a513d85823e3d90fd5b634e487b7160e01b8f526011855260248ffd5b61087c9150893d8b116108825761087481836122f3565b87513d8e823e3d90fd5b611c1b9250803d106104c8576104b981836122f3565b5f8061175e565b8b51903d90823e3d90fd5b5050509091929394959697986117899061232c565b833461050c578060031936011261050c57610509612614565b50503461024d578160031936011261024d5760065490516001600160a01b039091168152602090f35b82843461050c578060031936011261050c57506001600160401b0360209254821c169051908152f35b9050346104ec5760603660031901126104ec57611cc8612249565b91611cd161225f565b845460443593916001600160401b03611ceb818416612367565b88976001600160a01b0394909190871c851690895b81518110156121f0578b85611d1583856122b8565b518b51636bf8e80f60e01b815291166001600160401b03168a820190815233602080830191909152908190839081906040010381895afa9283156110c857926121d3575b5050611d6d57611d6890612275565b611d00565b505050839495969750611d8460019492939461232c565b611d8c6129f2565b611d94612614565b865163472a1d0960e11b8152308782019081526001600160a01b038616602082810191909152939092169790969092909181908890819060400103818b5afa9687156120a7578a976121a0575b508251622275af60e91b8152308382019081526001600160a01b038716602082015290979082908990819060400103818c5afa978815612196578b98612163575b50835163052226ef60e41b8152308482019081526001600160a01b038816602082015290989083908a90819060400103818d5afa988915612159578c99612126575b5081156120f35760085492611e7d826108428686612441565b8c116120b157508b91610842611e9b856108428f95611ea296612441565b809b612441565b91893b1561024d5784516342c8afad60e01b8152308582019081526001600160a01b0389166020820152604081018b905260608101949094526080840191909152918290819060a0010381838c5af180156120a757612094575b5088908689111561208757612710611f26611f17898c6124a4565b955b60055460801c1686612441565b04611f31818b6124a4565b91611f3e89600b546124a4565b600b5587600254169288600654168b3b1561047257865163439e2e4560e01b8082526001600160a01b0396871685830190815292909616602083015260408201929092528590829081900360600181838f5af1801561207d57908591612069575b505081611fee575b5050915197885250506020860193909352604085019290925216917f244fed5b3268b6a17fff986a36f3d87e163ac678d91d552866eb1e74f010f3a6908060608101610fda565b87600354169288600654168b3b156104725786519182526001600160a01b03948516928201928352909316602082015260408101919091528290829081906060010381838c5af1801561205f57612047575b8080611fa7565b612053909392936122cc565b611a985790875f612040565b83513d84823e3d90fd5b612072906122cc565b61048057835f611f9f565b86513d87823e3d90fd5b612710611f268395611f19565b6120a0909991996122cc565b975f611efc565b83513d8c823e3d90fd5b8460649187519162461bcd60e51b8352820152601960248201527f526570617920616d6f756e7420657863656564732064656274000000000000006044820152fd5b5050606492519162461bcd60e51b8352820152600e60248201526d27379030b1ba34bb32903637b0b760911b6044820152fd5b9098508281813d8311612152575b61213e81836122f3565b8101031261214e5751975f611e64565b8b80fd5b503d612134565b85513d8e823e3d90fd5b9097508181813d831161218f575b61217b81836122f3565b8101031261218b5751965f611e22565b8a80fd5b503d612171565b84513d8d823e3d90fd5b9080975081813d83116121cc575b6121b881836122f3565b810103126121c85751955f611de1565b8980fd5b503d6121ae565b6121e99250803d106104c8576104b981836122f3565b5f80611d59565b505050611d8484959697989492939461232c565b50503461024d578160031936011261024d57602090516127108152f35b50503461024d5760209061091f611914365b6040906003190112610643576004359060243590565b600435906001600160a01b038216820361064357565b602435906001600160a01b038216820361064357565b5f1981146122835760010190565b634e487b7160e01b5f52601160045260245ffd5b8051156122a45760200190565b634e487b7160e01b5f52603260045260245ffd5b80518210156122a45760209160051b010190565b6001600160401b0381116122df57604052565b634e487b7160e01b5f52604160045260245ffd5b90601f801991011681019081106001600160401b038211176122df57604052565b90816020910312610643575180151581036106435790565b1561233357565b60405162461bcd60e51b815260206004820152600c60248201526b155b985d5d1a1bdc9a5e995960a21b6044820152606490fd5b6001600160401b039081166123a657604051906040820190828210908211176122df5760405260018152602036818301375f6123a282612297565b5290565b6040519060e08201908111828210176122df576040526006815260c03660208301375f806123d383612297565b5281516001101561242d576001604083015281516002101561242d576002606083015281516003101561242d576003608083015281516004101561242d57600560a083015281516005101561242d5750600660c082015290565b634e487b7160e01b81526032600452602490fd5b8181029291811591840414171561228357565b811561245e570490565b634e487b7160e01b5f52601260045260245ffd5b600c54801561249f57600b5490612710918281029281840414901517156122835761249c91612454565b90565b505f90565b9190820391821161228357565b9190820180921161228357565b6124c6612472565b6004546001600160401b03808216808410156124fd576124f39061084261249c95848660801c1690612441565b9160401c166124b1565b919282612509916124a4565b61271092830392831161228357818460801c16828560401c1601928284116122835761084261253f9261249c9660c01c90612441565b91166124b1565b61255e612551612472565b6125596124be565b612441565b6001600160401b0360055460801c1690612710918203918211612283576305f5e1009161258a91612441565b0490565b61259a600a54426124a4565b80156125d3576125ca90644979cb9e006125c36125b56124be565b926125596008549485612441565b04906124b1565b60085542600a55565b50565b6125e2600a54426124a4565b80156125d35761260b90644979cb9e006125c36125fd612546565b926125596009549485612441565b60095542600a55565b612620600a54426124a4565b80156125d35761255961264b6126346124be565b600854906125c385644979cb9e0095869385612441565b9068056bc75e2d63100000928383116127255761267191836008556125c36125fd612546565b9182116126c957817fa0fadbfbb40d1b4013c553c5deaf84070909c3ed7a9ef092a92d406661bdf9ee9260095542600a556126c46040519283924291846040919493926060820195825260208201520152565b0390a1565b60405162461bcd60e51b815260206004820152602e60248201527f537570706c7920696e646578206f766572666c6f77202d20636f6e746163742060448201526d383937ba37b1b7b61030b236b4b760911b6064820152608490fd5b60405162461bcd60e51b815260206004820152602e60248201527f426f72726f7720696e646578206f766572666c6f77202d20636f6e746163742060448201526d383937ba37b1b7b61030b236b4b760911b6064820152608490fd5b81156127cf5761279d906001600160401b036005541690612441565b90670de0b6b3a76400009182810292818404149015171561228357612710808202918204036122835761249c91612454565b50505f1990565b90816020910312610643575160ff811681036106435790565b60ff16604d811161228357600a0a90565b6040805163472a1d0960e11b81523060048201526001600160a01b038481166024830152919493929091908116906020908184604481865afa9384156129e8575f946129b9575b5083156129ab578651622275af60e91b81523060048201526001600160a01b0386166024820152948286604481875afa958615612943575f9661297c575b50875163052226ef60e41b81523060048201526001600160a01b0382166024820152938390859060449082905afa938415612943575f9461294d575b501693865163313ce56760e01b81528281600481895afa908115612943576108429361291161156e97969461084261290761291e9c9d96600d965f9161292c57506127ef565b9860085490612441565b975f52525f205490612441565b670de0b6b3a7640000811091565b61087c9150863d88116108825761087481836122f3565b88513d5f823e3d90fd5b90938382813d8311612975575b61296481836122f3565b8101031261050c575051925f6128c1565b503d61295a565b90958382813d83116129a4575b61299381836122f3565b8101031261050c575051945f612885565b503d612989565b505f95505f19949350505050565b90938282813d83116129e1575b6129d081836122f3565b8101031261050c575051925f612847565b503d6129c6565b87513d5f823e3d90fd5b600260015414612a03576002600155565b604051633ee5aeb560e01b8152600490fd5b15612a1c57565b60405162461bcd60e51b8152602060048201526016602482015275496e73756666696369656e74206c697175696469747960501b6044820152606490fdfea2646970667358221220ea3e15401f982b38e1b0e1d99a673c837f65f652577bb638c8542c39d4db46cd64736f6c634300081400336080604052346200029b5762001f63803803806200001d81620002b4565b9283398101906060818303126200029b5780516001600160401b0391908281116200029b57810192601f908082860112156200029b578451928484116200024457602093601f19966200007686898785011601620002b4565b938285528683830101116200029b5785905f5b8381106200029f5750505f918401015280840151906001600160a01b03821682036200029b57604001518581168091036200029b576006811162000258575f549168010000000000000000600160e01b039060401b169163ffffffff60e01b1617175f5560019283805560ff1960035416600355815194851162000244576002548481811c9116801562000239575b828210146200022557838111620001dc575b5080928511600114620001755750839450908392915f9462000169575b50501b915f199060031b1c1916176002555b604051611c889081620002db8239f35b015192505f8062000147565b92948490811660025f52845f20945f905b88838310620001c15750505010620001a8575b505050811b0160025562000159565b01515f1960f88460031b161c191690555f808062000199565b85870151885590960195948501948793509081019062000186565b60025f52815f208480880160051c8201928489106200021b575b0160051c019085905b8281106200020f5750506200012a565b5f8155018590620001ff565b92508192620001f6565b634e487b7160e01b5f52602260045260245ffd5b90607f169062000118565b634e487b7160e01b5f52604160045260245ffd5b6064856040519062461bcd60e51b825280600483015260248201527f496e76616c696420636f6e74726f6c20616c6c6f77206c697374206c6576656c6044820152fd5b5f80fd5b81810183015186820184015287920162000089565b6040519190601f01601f191682016001600160401b03811183821017620002445760405256fe60406080815260048036101561004b575b50361561001b575f80fd5b807f9936746a4565f9766fa768f88f56a7487c78780ac179562773d1c75c5269537e9151338152346020820152a1005b5f90813560e01c90816328cafd721461178557816331b3203a1461146e57816342c8afad146110e9578163431d8ffe14610e8c578163439e2e4514610ed557816344eb5e0014610e8c5781634743c2fd14610e5f57816347e7ef2414610cac57816352226ef014610c8e578163526966011461067e5781635e7db13d14610ad957816369328dec146106c75781638e543a121461067e578163a1d34a4214610515578163a7efe34814610321578163b2567d1f146101ed57508063c7ea4d44146101c7578063dce83ae31461017e578063de287359146101565763e9ea28de0361001057903461015257816003193601126101525760209060ff6003541690519015158152f35b5080fd5b50903461015257816003193601126101525790548151911c6001600160a01b03168152602090f35b5090346101525780600319360112610152578060209261019c61193d565b6101a4611957565b6001600160a01b0391821683526006865283832091168252845220549051908152f35b5090346101525781600319360112610152576001600160401b0360209254169051908152f35b9050823461031d576020908160031936011261031957823591821515809303610315578454936001600160401b0394610227868216611a89565b879691851c6001600160a01b03169190875b815181101561030457610283868461025184866119ed565b518a51636bf8e80f60e01b815291166001600160401b0316888201908152336020820152909283918291604090910190565b0381885afa9081156102fa578b916102cd575b506102a9576102a4906119aa565b610239565b5050505050505090506102bc6001611a4e565b60ff80196003541691161760035580f35b6102ed9150873d89116102f3575b6102e58183611a01565b810190611a36565b8b610296565b503d6102db565b88513d8d823e3d90fd5b50505050505050906102bc90611a4e565b8480fd5b8380fd5b8280fd5b9050823461031d57602091826003193601126103195761033f61193d565b918454936001600160401b0394610357868216611a89565b87966001600160a01b0392851c831691885b8151811015610503576103b386898561038285876119ed565b518b51636bf8e80f60e01b815291166001600160401b03169181019182523360208301529283918291604090910190565b0381885afa9081156104f9578c916104dc575b506103d9576103d4906119aa565b610369565b505050509091929394506103ed6001611a4e565b825163248a35ef60e11b81523085820152941660248501819052938181604481896101675af19182156104d257906016929187926104a5575b505060070b036104595750507fbbbf805ef99ca7d0b7d2cc769719f2a281c9b3331a3642efa75a712e3094a1668280a280f35b5162461bcd60e51b8152915081906104a19082016060906020815260196020820152782330b4b632b2103a379030b9b9b7b1b4b0ba32903a37b5b2b760391b60408201520190565b0390fd5b6104c49250803d106104cb575b6104bc8183611a01565b810190611b63565b8680610426565b503d6104b2565b83513d88823e3d90fd5b6104f39150873d89116102f3576102e58183611a01565b8c6103c6565b88513d8e823e3d90fd5b5050505090919293946103ed90611a4e565b8391503461031d5760209182600319360112610319578135916001600160401b039384841680940361067a5785549261054f868516611a89565b879685831c6001600160a01b031691885b8151811015610668576105aa868461057884866119ed565b518851636bf8e80f60e01b815291166001600160401b03168a8201908152336020820152909283918291604090910190565b0381885afa90811561065e578c91610641575b506105d0576105cb906119aa565b610560565b505050509091929394506105e46001611a4e565b600685116106005750505067ffffffffffffffff191617815580f35b5162461bcd60e51b815291820181905260248201527f496e76616c696420636f6e74726f6c20616c6c6f77206c697374206c6576656c604482015260649150fd5b6106589150873d89116102f3576102e58183611a01565b8c6105bd565b86513d8e823e3d90fd5b5050505090919293946105e490611a4e565b8580fd5b8284346101525780600319360112610152578060209261069c61193d565b6106a4611957565b6001600160a01b0391821683526005865283832091168252845220549051908152f35b8391503461031d57606036600319011261031d576106e361193d565b6001600160a01b0390604435828116919060243590839003610ad5578654956001600160401b0395610716878916611a89565b8998831c871690895b8151811015610ac2578b8a61073483856119ed565b518751636bf8e80f60e01b815291166001600160401b031686820190815233602080830191909152908190839081906040010381895afa928315610ab75792610a9a575b505061078c57610787906119aa565b61071f565b50505090919293949596506107a16001611a4e565b6107a9611b7c565b87546107b6888216611a89565b978998888b93861c16925b8151811015610a87578b836107d683856119ed565b518851636bf8e80f60e01b815291166001600160401b0316878201908152336020808301919091529081908390819060400103818a5afa928315610a7c5792610a5f575b505061082e57610829906119aa565b6107c1565b50505050909192939495506108436001611a4e565b61084b611b7c565b815163e1f21c6760e01b81526001600160a01b038516828201908152306020828101919091526040820186905291979195908890606001039786816101679a818d8d5af1908115610a5557906016918b91610a38575b5060070b036109f2576108b381611bac565b851161099e5788916084879286519485938492630aed65f560e11b8452169b8c888401523060248401528b60448401528960648401525af190811561099457906016918991610977575b5060070b036109365750519081527f645e52ee0ce5c05d60f4b051028f29630be7001f5d84cba67fe6872db872cff89190a36001805580f35b83606492519162461bcd60e51b8352820152601960248201527f4661696c656420746f207472616e7366657220617373657473000000000000006044820152fd5b61098e9150863d88116104cb576104bc8183611a01565b896108fd565b83513d8a823e3d90fd5b835162461bcd60e51b8152808401879052602860248201527f696e73756666696369656e742061737365747320746f20636f6d706c657465206044820152673a3930b739b332b960c11b6064820152608490fd5b835162461bcd60e51b8152806104a18186016060906020815260196020820152782330b4b632b2103a379030b9b9b7b1b4b0ba32903a37b5b2b760391b60408201520190565b610a4f9150883d8a116104cb576104bc8183611a01565b8b6108a1565b85513d8c823e3d90fd5b610a759250803d106102f3576102e58183611a01565b8d8061081a565b8951903d90823e3d90fd5b5050505090919293949561084390611a4e565b610ab09250803d106102f3576102e58183611a01565b8d80610778565b8851903d90823e3d90fd5b505050909192939495966107a190611a4e565b8680fd5b838334610c8b5781600319360112610c8b57610af361193d565b916024359082546001600160401b0394610b0e868316611a89565b949586956001600160a01b0393851c84169190875b8151811015610c79578a83610b3883856119ed565b518951636bf8e80f60e01b815291166001600160401b031691810191825233602080840191909152918290829081906040010381895afa918215610c6f57908d9695949392918c92610c52575b5050610b9e57610b94906119aa565b9091929350610b23565b5050505050909192939450610bb36001611a4e565b1691828452846020528184205494858211610c0f57610bf5827faa3cec92d25e6e7cf3bf119de96782be90a19b7f9d717dc51e03d3f8f8aa22b1959697611b9f565b90858752602052808387205582519182526020820152a280f35b606490602084519162461bcd60e51b8352820152601e60248201527f43616e6e6f7420756e6c6f636b206d6f7265207468616e206c6f636b656400006044820152fd5b610c689250803d106102f3576102e58183611a01565b8d80610b85565b89513d8d823e3d90fd5b505050509091929394610bb390611a4e565b80fd5b8284346101525780600319360112610152578060209261019c61193d565b9050828060031936011261031d57610cc261193d565b815163e1f21c6760e01b81526001600160a01b03821684820190815233602082810191909152602435604083018190529094939092909181906060010390858161016793818b865af1908115610e5557906016918991610e38575b5060070b03610df557835163eca3691760e01b81526001600160a01b03909216868301523360248301523060448301526001600160401b0390921660070b60648201529083908290608490829089905af1908115610deb57906016918691610dce575b5060070b03610d8d578380f35b5162461bcd60e51b815291820152601860248201527f4661696c656420746f207472616e7366657220746f6b656e0000000000000000604482015260649150fd5b610de59150843d86116104cb576104bc8183611a01565b86610d80565b82513d87823e3d90fd5b835162461bcd60e51b8152808701869052601760248201527f4661696c656420746f20617070726f766520746f6b656e0000000000000000006044820152606490fd5b610e4f9150873d89116104cb576104bc8183611a01565b89610d1d565b85513d8a823e3d90fd5b82843461015257602036600319011261015257602090610e85610e8061193d565b611bac565b9051908152f35b82843461015257806003193601126101525780602092610eaa61193d565b610eb2611957565b6001600160a01b0391821683526007865283832091168252845220549051908152f35b9050823461031d57606036600319011261031d57610ef161193d565b90610efa611957565b6044358554926001600160401b0395610f14878616611a89565b88976001600160a01b0396841c871691895b81518110156110d6578b83610f3b83856119ed565b518851636bf8e80f60e01b815291166001600160401b0316878201908152336020808301919091529081908390819060400103818a5afa928315610a7c57926110b9575b5050610f9357610f8e906119aa565b610f26565b5050505090919293949550610fa86001611a4e565b610fb0611b7c565b815163e1f21c6760e01b81526001600160a01b0385168282019081523060208281019190915260408201869052919691959087906060010396868161016799818d8c5af1908115610a5557906016918b9161109c575b5060070b036109f25761101881611bac565b851161099e5781608487928b87519586948593630aed65f560e11b8552169c8d89850152306024850152169a8b60448401528960648401525af190811561099457906016918991610977575060070b036109365750519081527f645e52ee0ce5c05d60f4b051028f29630be7001f5d84cba67fe6872db872cff89190a36001805580f35b6110b39150883d8a116104cb576104bc8183611a01565b8b611006565b6110cf9250803d106102f3576102e58183611a01565b8d80610f7f565b50505050909192939495610fa890611a4e565b8391503461031d576110fa3661196d565b92939591908754936001600160401b0396611116888716611a89565b8a996001600160a01b0397909190871c8816908b5b8151811015611458578d8c61114083856119ed565b518b51636bf8e80f60e01b815291166001600160401b031687820190815233602080830191909152908190839081906040010381895afa92831561144d5792611430575b505061119857611193906119aa565b61112b565b50505086979899506111b1600197929394959697611a4e565b1695868a526020926005845281878c20991698898c52845285878c2054106113f957878b5260058452868b20898c528452868b206111f0878254611b9f565b9055878b5260068452868b20898c528452868b2061120f868254611b9f565b9055878b5260058452868b20898c528452868b20546113e05750868a5260078352858a20888b5283528986812055975b89549061124d818316611a89565b8b9a8c93891c16925b81518110156113cc578c6112a1878561126f85876119ed565b518d51636bf8e80f60e01b815291166001600160401b0316898201908152336020820152909283918291604090910190565b0381895afa9182156113c157916113a4575b506112c6576112c1906119aa565b611256565b5050505090919293949596506112dc6001611a4e565b86885280825284882054808411611362577faa3cec92d25e6e7cf3bf119de96782be90a19b7f9d717dc51e03d3f8f8aa22b1868594936113407fa6f6d5e50bc84f153a0d6a9f9b37780433f92dc32d7e10f975ab3831c36898fa9998978c95611b9f565b90848d52855280828d205581519086825285820152a28351928352820152a380f35b5060649185519162461bcd60e51b8352820152601e60248201527f43616e6e6f7420756e6c6f636b206d6f7265207468616e206c6f636b656400006044820152fd5b6113bb9150873d89116102f3576102e58183611a01565b8e6112b3565b8b51903d90823e3d90fd5b50505050909192939495966112dc90611a4e565b878b5260078452868b20898c528452868b20559761123f565b865162461bcd60e51b815280840185905260116024820152704e6f206c6f616e7320746f20726570617960781b6044820152606490fd5b6114469250803d106102f3576102e58183611a01565b8f80611184565b8c51903d90823e3d90fd5b5050506111b18798999a97929394959697611a4e565b9050823461031d5761147f3661196d565b90939592948754946001600160401b039661149b888816611a89565b8a996001600160a01b0398909190851c8916908b5b8151811015611770578d8c6114c583856119ed565b518951636bf8e80f60e01b815291166001600160401b03168c820190815233602080830191909152908190839081906040010381895afa9283156117655792611748575b505061151d57611518906119aa565b6114b0565b50505087989950611539600198929394959697989a999a611a4e565b1695868a52602091600583528a858120998b83169a8b835285528682206115618a8254611c45565b9055898252600685528682208b83528552868220611580878254611c45565b9055898252600785528682208b83528552878783205581546115a3828216611a89565b90839d84918a1c16935b825182101561172f576115f788856115c585876119ed565b518d51636bf8e80f60e01b815291166001600160401b03168a8201908152336020820152909283918291604090910190565b0381895afa9182156113c15791611712575b5061161d57611617906119aa565b8e6115ad565b5050505061163891929394959697989950610e806001611a4e565b83116116c357917f7695c943e86fe119073b098f1b278727c236f4a661c96a660dacbf88f89c606795939160609593898b52808252838b2061167b848254611c45565b9055898b528152887fb8cecfd0e38e35fdd1cbaa8877116ea7f0dc948c1317b8ce1a47eaedfe64154684808d205481519086825285820152a28251948552840152820152a380f35b60849184519162461bcd60e51b8352820152602560248201527f496e73756666696369656e7420756e6c6f636b65642062616c616e636520746f604482015264206c6f636b60d81b6064820152fd5b6117299150883d8a116102f3576102e58183611a01565b5f611609565b5050505050610e8061163892939495969798999a611a4e565b61175e9250803d106102f3576102e58183611a01565b8f80611509565b8a51903d90823e3d90fd5b505050611539889a9892939495969798611a4e565b8391503461031d578160031936011261031d576117a061193d565b9160243584546001600160401b03946117ba868316611a89565b87966001600160a01b0393861c841691885b815181101561192b5788836117e183856119ed565b518a51636bf8e80f60e01b815291166001600160401b031691810191825233602080840191909152918290829081906040010381895afa918215611921578d92611904575b505061183a57611835906119aa565b6117cc565b5050505090919293945061184e6001611a4e565b61185781611bac565b83116118b357907fb8cecfd0e38e35fdd1cbaa8877116ea7f0dc948c1317b8ce1a47eaedfe641546939291169384865280602052828620611899838254611c45565b90558486526020528185205482519182526020820152a280f35b835162461bcd60e51b8152602081870152602560248201527f496e73756666696369656e7420756e6c6f636b65642062616c616e636520746f604482015264206c6f636b60d81b6064820152608490fd5b61191a9250803d106102f3576102e58183611a01565b8c80611826565b8a513d8f823e3d90fd5b50505050909192939461184e90611a4e565b600435906001600160a01b038216820361195357565b5f80fd5b602435906001600160a01b038216820361195357565b60a0906003190112611953576001600160a01b03906004358281168103611953579160243590811681036119535790604435906064359060843590565b5f1981146119b85760010190565b634e487b7160e01b5f52601160045260245ffd5b8051156119d95760200190565b634e487b7160e01b5f52603260045260245ffd5b80518210156119d95760209160051b010190565b90601f801991011681019081106001600160401b03821117611a2257604052565b634e487b7160e01b5f52604160045260245ffd5b90816020910312611953575180151581036119535790565b15611a5557565b60405162461bcd60e51b815260206004820152600c60248201526b155b985d5d1a1bdc9a5e995960a21b6044820152606490fd5b6001600160401b03908116611ac85760405190604082019082821090821117611a225760405260018152602036818301375f611ac4826119cc565b5290565b6040519060e0820190811182821017611a22576040526006815260c03660208301375f80611af5836119cc565b52815160011015611b4f5760016040830152815160021015611b4f5760026060830152815160031015611b4f5760036080830152815160041015611b4f57600560a0830152815160051015611b4f5750600660c082015290565b634e487b7160e01b81526032600452602490fd5b9081602091031261195357518060070b81036119535790565b600260015414611b8d576002600155565b604051633ee5aeb560e01b8152600490fd5b919082039182116119b857565b60018060a01b03165f90808252600460205260246020604084205492604051928380926370a0823160e01b82523060048301525afa908115611c3a578391611c09575b50808211611c0457611c019250611b9f565b90565b505090565b90506020813d8211611c32575b81611c2360209383611a01565b8101031261031d57515f611bef565b3d9150611c16565b6040513d85823e3d90fd5b919082018092116119b85756fea2646970667358221220ab6aabcc218526f4a6cb9549428b81cc2cbab47d4c13c0421652b3cdefa7422164736f6c634300081400336080806040523462000701576200255080380380916200002082856200085d565b83398101608082820312620007015781516001600160401b0381116200070157816200004e918401620008c0565b602083015190916001600160401b038211620007015762000071918401620008c0565b604083015190926001600160a01b03821682036200070157606001516001600160401b038116908190036200070157600160208181525f80516020620024708339815191529190915560025f80516020620024908339815191525560045f80516020620025108339815191525560085f80516020620024d08339815191525560105f80516020620024b0833981519152555f80516020620025308339815191525560065f81905260405f80516020620024f0833981519152558111620007fd57600280546001600160e01b03191691909117604092831b600160401b600160e01b0316179055519161012083016001600160401b03811184821017620007e95760405260608352606060208401525f60408401526060808401525f60808401525f60a08401525f60c0840152606060e0840152620001ae6200090d565b91610100928385015283526020830152306040830152620001ce6200090d565b30602082015262786450604082015281830152604051808281011060018060401b038383011117620007e957818101604052600781525f5b60e08110620007cf57506200021a62000978565b505f805260016020525f8051602062002470833981519152546200023d6200093c565b30602082015260405191620002528362000841565b8252602082015262000264826200099c565b5262000270816200099c565b506200027b62000978565b5060015f8190526020525f8051602062002490833981519152546200029f6200093c565b30602082015260405191620002b48362000841565b82526020820152620002c682620009be565b52620002d281620009be565b50620002dd62000978565b5060025f5260016020525f805160206200251083398151915254620003016200093c565b30602082015260405191620003168362000841565b825260208201526200032882620009cf565b526200033481620009cf565b506200033f62000978565b5060035f5260016020525f80516020620024d083398151915254620003636200093c565b30602082015260405191620003788362000841565b825260208201526200038a82620009e0565b526200039681620009e0565b50620003a162000978565b5060045f5260016020525f80516020620024b083398151915254620003c56200093c565b30602082015260405191620003da8362000841565b82526020820152620003ec82620009f1565b52620003f881620009f1565b506200040362000978565b5060055f5260016020525f805160206200253083398151915254620004276200093c565b306020820152604051916200043c8362000841565b825260208201526200044e8262000a02565b526200045a8162000a02565b506200046562000978565b5060065f5260016020525f80516020620024f083398151915254620004896200093c565b306020820152604051916200049e8362000841565b82526020820152620004b08262000a13565b52620004bc8162000a13565b5060e083015280820151805160070b1580620007bf575b620007af575b5060405190630fb65bf360e01b602083015260606024830152620005556200052b62000514855161016060848701526101e486019062000a24565b60208601518582036083190160a487015262000a24565b60408501516001600160a01b031660c485015260608501518482036083190160e486015262000a24565b926080810151151561010484015260a081015160070b61012484015260c0810151151561014484015260e08101519360831984820301610164850152845180825260208201916020808360051b8301019701925f915b8383106200071a575f808962000607818d60408d8d0151805160070b61018485015260018060a01b036020820151166101a4850152015160070b6101c48301528460448301526008606483015203601f1981018352826200085d565b602081519101826101675af13d1562000711573d90620006278262000881565b916200063760405193846200085d565b82523d5f602084013e5b15620007055760408180518101031262000701576020810151908160030b8092036200070157604001516001600160a01b038116919082900362000701576016905b60030b03620006bc57600380546001600160a01b0319166001600160a01b0392909216919091179055604051611a24908162000a4c8239f35b60405162461bcd60e51b815260206004820152601660248201527f4661696c656420746f2063726561746520746f6b656e000000000000000000006044820152606490fd5b5f80fd5b505f6016601562000683565b60609062000641565b9091929397602080600192601f19858203018652818c5180518352015190604083820152815115156040820152848060a01b038383015116606082015260c06200078f62000778604085015160a0608086015260e085019062000a24565b6060850151848203603f190160a086015262000a24565b926080878060a01b03910151169101529a019301930191939290620005ab565b60406276a7009101525f620004d9565b50604081015160070b15620004d3565b602090620007dc62000978565b8282850101520162000206565b634e487b7160e01b5f52604160045260245ffd5b606460405162461bcd60e51b815260206004820152602060248201527f496e76616c696420636f6e74726f6c20616c6c6f77206c697374206c6576656c6044820152fd5b604081019081106001600160401b03821117620007e957604052565b601f909101601f19168101906001600160401b03821190821017620007e957604052565b6001600160401b038111620007e957601f01601f191660200190565b5f5b838110620008af5750505f910152565b81810151838201526020016200089f565b81601f8201121562000701578051620008d98162000881565b92620008e960405194856200085d565b8184526020828401011162000701576200090a91602080850191016200089d565b90565b60405190606082016001600160401b03811183821017620007e9576040525f6040838281528260208201520152565b6040519060a082016001600160401b03811183821017620007e9576040525f608083828152826020820152606060408201526060808201520152565b60405190620009878262000841565b815f81526020620009976200093c565b910152565b805115620009aa5760200190565b634e487b7160e01b5f52603260045260245ffd5b805160011015620009aa5760400190565b805160021015620009aa5760600190565b805160031015620009aa5760800190565b805160041015620009aa5760a00190565b805160051015620009aa5760c00190565b805160061015620009aa5760e00190565b9060209162000a3f815180928185528580860191016200089d565b601f01601f191601019056fe6080604081815260049182361015610015575f80fd5b5f9283803560e01c92836315dacbea14611510575050816331d6ebdf14611324578163618dc65e146111df5781637276ecca14610fc05781637349da0a146109835781639b23d3d9146108cd5781639dbead42146106ca578163a1d34a421461054e578163bef4981314610421578163c7ea4d44146103f9578163de287359146103d0578163fb9d09c8146100de575063fc0c546a146100b3575f80fd5b346100da57816003193601126100da5760035490516001600160a01b039091168152602090f35b5080fd5b9050346103cc576020806003193601126103c8576100fa6115d9565b92600254936001600160401b03906101138287166117a6565b87966001600160a01b039190851c821690885b81518110156103b657610170888a8861013f8587611733565b518b51636bf8e80f60e01b815291166001600160401b03169181019182523360208301529283918291604090910190565b0381875afa9081156103ac578c91610373575b5061019657610191906116f0565b610126565b505050909192939495506101ae600190889291611754565b60035416918451926101bf8461161e565b828452855190858883019363707a02cd60e11b8552608484019260248501521660070b604483015260606064830152845180915260a48201908860a48260051b85010196019185905b8a83831061034157505050505061022981849503601f198101835282611639565b5190826101675af19061023a6116b3565b91156103295781518201906060838684019303126103255761025d8584016116e2565b92610269858201611880565b506060810151918211610321570181603f8201121561032557848101519084866102928461178f565b61029e83519182611639565b848152019260051b8201019283116103215784869101915b83831061030957505050506016905b60030b036102d1578380f35b5162461bcd60e51b815291820152601460248201527311985a5b1959081d1bc81b5a5b9d08185cdcd95d60621b604482015260649150fd5b819061031484611880565b81520191019085906102b6565b8780fd5b8680fd5b50508381516103378161161e565b52601660156102c5565b80919395975061036060019395979960a3198a82030186528851611675565b9601920192018b95939192969496610208565b90508881813d83116103a5575b61038a8183611639565b810103126103a15761039b90611747565b5f610183565b8b80fd5b503d610380565b88513d8e823e3d90fd5b5050506101ae88929394959697611754565b8380fd5b8280fd5b5050346100da57816003193601126100da576002548151911c6001600160a01b03168152602090f35b5050346100da57816003193601126100da576020906001600160401b03600254169051908152f35b919050346103cc57602090816003193601126103c85761043f611568565b91600254936001600160401b03946104588682166117a6565b879691851c6001600160a01b03169190875b815181101561053b576104b486846104828486611733565b518a51636bf8e80f60e01b815291166001600160401b0316888201908152336020820152909283918291604090910190565b0381885afa908115610531578b916104f8575b506104da576104d5906116f0565b61046a565b505050505050506104f591506104f06001611754565b61188e565b80f35b90508681813d831161052a575b61050f8183611639565b810103126105265761052090611747565b5f6104c7565b8a80fd5b503d610505565b88513d8d823e3d90fd5b505050505050506104f06104f592611754565b919050346103cc576020806003193601126103c85761056b6115d9565b92600254916001600160401b036105838185166117a6565b87969085871c6001600160a01b031690885b81518110156106b8576105df86866105ad8486611733565b518c51636bf8e80f60e01b815291166001600160401b03168a8201908152336020820152909283918291604090910190565b0381875afa9081156106ae578c91610679575b5061060557610600906116f0565b610595565b505050909192939495506106196001611754565b1693600685116106385750505067ffffffffffffffff19161760025580f35b5162461bcd60e51b815291820181905260248201527f496e76616c696420636f6e74726f6c20616c6c6f77206c697374206c6576656c604482015260649150fd5b90508681813d83116106a7575b6106908183611639565b810103126103a1576106a190611747565b5f6105f2565b503d610686565b8a513d8e823e3d90fd5b50505090919293949561061990611754565b9050346103cc576020806003193601126103c8576106e66115d9565b92600254936001600160401b03906106ff8287166117a6565b87966001600160a01b039190851c821690885b81518110156108bb5761072b888a8861013f8587611733565b0381875afa9081156103ac578c91610886575b506107515761074c906116f0565b610712565b50969750949550929350918691906107696001611754565b600354168451936107798561161e565b83855285519187830193636b48868360e11b85526084840191602485015260079216820b60448401526060606484015285518091528760a4840196019185905b898383106108695750505050506107da81849503601f198101835282611639565b5190826101675af16107ea6116b3565b901561085f57818180518101031261085b57806108158361080e86601695016116e2565b9201611880565b505b60030b03610823578380f35b5162461bcd60e51b815291820152601460248201527311985a5b1959081d1bc8189d5c9b88185cdcd95d60621b604482015260649150fd5b8480fd5b5060166015610817565b8451820b8952978801978c975090930192600191909101906107b9565b90508881813d83116108b4575b61089d8183611639565b810103126103a1576108ae90611747565b5f61073e565b503d610893565b50505061076988939294959697611754565b5050346100da5781806109366109286108e536611582565b8851639b23d3d960e01b602082019081526001600160a01b03958616602483015293851660448201529390911660648401526084830152929091829060a4820190565b03601f198101835282611639565b5190826101675af1916109476116b3565b921561097657602083805181010312610973575061096860208093016116e2565b905b519060030b8152f35b80fd5b506020915060159061096a565b8284346109735781600319360112610973579061099e611568565b926109a76115c3565b90600254936001600160401b0391828616956109c2876117a6565b958397849760018060a01b038094841c16985b8151811015610fab5785886109ea8385611733565b518651636bf8e80f60e01b815291166001600160401b03169181019182523360208084019190915291829082908e908290819060400103915afa918215610f59578992610f75575b5050610a4657610a41906116f0565b6109d5565b5050610a63919293949596979850610a5e6001611754565b6117a6565b968497855b8151811015610f6357610ab488610a7f8385611733565b518651636bf8e80f60e01b815291166001600160401b0316888201908152336020808301919091529283918391829160400190565b0381885afa918215610f59578992610f23575b5050610adb57610ad6906116f0565b610a68565b50505090919293949550610aef6001611754565b848260035416961660070b95815192610b078461161e565b8584528251866020958683019463707a02cd60e11b8652608484019060248501528b604485015260606064850152815180915260a48401908860a48260051b87010193019184905b8a838310610ef657505050505091610b7181839403601f198101835282611639565b516101679482865af1610b826116b3565b9015610edf578051810160608287830192031261032157610ba48683016116e2565b91610bb0868201611880565b506060810151908a8211610ed7570181603f82011215610edb5786810151908688610bda8461178f565b610be683519182611639565b848152019260051b820101928311610ed75786889101915b838310610ebf57505050506016905b60030b03610e855760025497610c24888a166117a6565b988799838992871c16915b8151811015610e7157610c48888a8d61013f8587611733565b0381875afa908115610531578b91610e3c575b50610c6e57610c69906116f0565b610c2f565b505050909192939495969750610c846001611754565b610c8d8961188e565b600254610c9b8982166117a6565b988899848a93881c16925b8151811015610e2657610cf0898b85610cbf8587611733565b518c51636bf8e80f60e01b815291166001600160401b03169181019182523360208301529283918291604090910190565b0381885afa908115610e1c578c91610de7575b50610d1657610d11906116f0565b610ca6565b505050508698879597949698508491610d2f6001611754565b8360035416938851928a84019563eca3691760e01b87526024850152306044850152166064830152608482015260848152610d69816115ef565b51925af1610d756116b3565b9015610ddd57828180518101031261085b57610d9483601692016116e2565b60030b03610da0578380f35b5162461bcd60e51b81529182015260196024820152784661696c656420746f207472616e7366657220746f6b656e7360381b604482015260649150fd5b5060166015610d94565b90508981813d8311610e15575b610dfe8183611639565b810103126103a157610e0f90611747565b8e610d03565b503d610df4565b89513d8e823e3d90fd5b50505050958098819597610d2f8396989a611754565b90508881813d8311610e6a575b610e538183611639565b8101031261052657610e6490611747565b8e610c5b565b503d610e49565b5050509091929394959697610c8490611754565b50505162461bcd60e51b815291820152601460248201527311985a5b1959081d1bc81b5a5b9d08185cdcd95d60621b604482015260649150fd5b8190610eca84611880565b8152019101908790610bfe565b8980fd5b8880fd5b50858351610eec8161161e565b5260166015610c0d565b600192949650610f138192949660a3198a82030186528851611675565b9601920192018b94939192610b4f565b90809250813d8311610f52575b610f3a8183611639565b8101031261032157610f4b90611747565b8c80610ac7565b503d610f30565b86513d8b823e3d90fd5b505050909192939495610aef90611754565b90809250813d8311610fa4575b610f8c8183611639565b8101031261032157610f9d90611747565b8d80610a32565b503d610f82565b5050610a5e610a639293949596979899611754565b9050346103cc57816003193601126103cc57610fda6115d9565b6001600160a01b039290602435848116908190036111db57600254946001600160401b039061100a8288166117a6565b8897861c821690885b81518110156111ca5788856110288385611733565b518a51636bf8e80f60e01b815291166001600160401b031691810191825233602080840191909152918290829081906040010381885afa9182156111c0578d9261118a575b50506110815761107c906116f0565b611013565b505050819293949596506110956001611754565b6003541693855193602085019563efef57f960e01b8752602486015260448501521660070b60648301526064825260a082019082821090821117611177578352518491829190826101675af16110e96116b3565b901561116d576020818051810103126103c85761110a6020601692016116e2565b60030b03611116578280f35b906020608492519162461bcd60e51b8352820152602b60248201527f4661696c656420746f20776970652061737365742066726f6d2074686520757360448201526a195c9cc81858d8dbdd5b9d60aa1b6064820152fd5b506016601561110a565b634e487b7160e01b865260418552602486fd5b90809250813d83116111b9575b6111a18183611639565b810103126103a1576111b290611747565b5f8061106d565b503d611197565b8a513d8f823e3d90fd5b505050611095829394959697611754565b8580fd5b839150346100da57826003193601126100da576111fa611568565b90602435906001600160401b0382116103c857366023830112156103c8578101356112248161165a565b9161123186519384611639565b818352366024838301011161085b576112918594929385602086829760246109289701838601378301015287516330c6e32f60e11b602082019081526001600160a01b039095166024820152604481018990529283916064830190611675565b5190826101675af1906112a26116b3565b917f4af4780e06fe8cb9df64b0794fa6f01399af979175bb988e35e0e57e594567bc84518215158152856020820152806112de87820187611675565b0390a11561130a57506113066016915b835193849360030b8452806020850152830190611675565b0390f35b825191506113178261161e565b81526113066015916112ee565b9050823461097357826003193601126109735761133f611568565b916113486115c3565b936002546001600160401b03946113608683166117a6565b949586956001600160a01b0393851c841690875b81518110156114fd5787846113898385611733565b518951636bf8e80f60e01b815291166001600160401b031691810191825233602080840191909152918290829081906040010381885afa9182156114f3578b926114bd575b50506113e2576113dd906116f0565b611374565b5050508597869597506113f86001979597611754565b836003541693875193602085019563eca3691760e01b875260248601523060448601521660648401521660070b608482015260848152611437816115ef565b5190826101675af16114476116b3565b90156114b3576020818051810103126103c8576114686020601692016116e2565b60030b03611474578280f35b906020606492519162461bcd60e51b835282015260196024820152784661696c656420746f207472616e7366657220746f6b656e7360381b6044820152fd5b5060166015611468565b90809250813d83116114ec575b6114d48183611639565b81010312610ed7576114e590611747565b8c806113ce565b503d6114ca565b89513d8d823e3d90fd5b50505085976113f8879698979597611754565b818591346100da5761092881610936849361152a36611582565b630aed65f560e11b602086019081526001600160a01b03948516602487015292841660448601529216606484015260848301919091529360a4820190565b600435906001600160a01b038216820361157e57565b5f80fd5b608090600319011261157e576001600160a01b03600435818116810361157e5791602435828116810361157e5791604435908116810361157e579060643590565b602435906001600160401b038216820361157e57565b600435906001600160401b038216820361157e57565b60c081019081106001600160401b0382111761160a57604052565b634e487b7160e01b5f52604160045260245ffd5b602081019081106001600160401b0382111761160a57604052565b90601f801991011681019081106001600160401b0382111761160a57604052565b6001600160401b03811161160a57601f01601f191660200190565b91908251928382525f5b84811061169f575050825f602080949584010152601f8019910116010190565b60208183018101518483018201520161167f565b3d156116dd573d906116c48261165a565b916116d26040519384611639565b82523d5f602084013e565b606090565b51908160030b820361157e57565b5f1981146116fe5760010190565b634e487b7160e01b5f52601160045260245ffd5b80511561171f5760200190565b634e487b7160e01b5f52603260045260245ffd5b805182101561171f5760209160051b010190565b5190811515820361157e57565b1561175b57565b60405162461bcd60e51b815260206004820152600c60248201526b155b985d5d1a1bdc9a5e995960a21b6044820152606490fd5b6001600160401b03811161160a5760051b60200190565b6001600160401b039081166117e5576040519060408201908282109082111761160a5760405260018152602036818301375f6117e182611712565b5290565b6040519060e082019081118282101761160a576040526006815260c03660208301375f8061181283611712565b5281516001101561186c576001604083015281516002101561186c576002606083015281516003101561186c576003608083015281516004101561186c57600560a083015281516005101561186c5750600660c082015290565b634e487b7160e01b81526032600452602490fd5b51908160070b820361157e57565b600354604051633cb0c7fd60e21b60208083019182526001600160a01b039384166024840152848416604480850191909152835293919291601f1991906118d6606486611639565b5f808096516101679482865af16118eb6116b3565b90156119e7576040818051810103126111db5760408161190f8961191694016116e2565b5001611747565b6119df57600354604051638f8d7f9960e01b8882019081526001600160a01b0396909216861660248201529190941660448201526064928301815284938493909184916119639082611639565b51925af1906119706116b3565b91156119d4578282805181010312610973575061199082601692016116e2565b60030b0361199b5750565b6064906040519062461bcd60e51b8252600482015260126024820152714661696c6520746f206772616e74204b594360701b6044820152fd5b505060166015611990565b505050505050565b508461191656fea26469706673582212200eb9520173833c575b53c0d0891dc59980258b38811659fe90e81c7a83b0198e64736f6c63430008140033a6eef7e35abe7026729641147f7915573c7e97b47efa546f5f6e3230263bcb49cc69885fda6bcc1a4ace058b4a62bf5e179ea78fd58a1ccd71c22cc9b688792fedc95719e9a3b28dd8e80877cb5880a9be7de1a13fc8b05e7999683b6b5676437dfe757ecd65cbd7922a9c0161e935dd7fdbcc0e999689c7d31633896b1fc60b8f331abe73332f95a25873e8b430885974c0409691f89d643119a11623a7924ad9d16d34ffb15ba3a3d852f0d403e2ce1d691fb54de27ac87cd2f993f3ec330fe2689cd4a84e23ad2f564004f1c9013e9589d260bde6380aba3ca7e09e4df40c","linkReferences":{}},"methodIdentifiers":{"BASE_POINT()":"1135daeb","MAX_INDEX()":"8a539cbe","PRICE_PRECISION()":"95082d25","SECONDS_PER_YEAR()":"e6a69ab8","acl()":"de287359","assetMultiplierOracle(address)":"71302473","baseRate()":"1f68f20a","borrow(address,uint256,address)":"6c665a55","borrowIndex()":"aa5af0fd","calculateCurrentDebt(uint256,uint256)":"ae60d5fc","calculateCurrentDeposit(uint256)":"d288043b","calculateHealthFactor(uint256,uint256)":"01f72884","controlAllowList()":"c7ea4d44","deposit(address,uint256)":"47e7ef24","getAssetMultiplier(address)":"d28320d6","getBorrowRate()":"ba1c5e80","getMaxBorrowAmount(uint256,address)":"c0919750","getPoolStats()":"bbb85188","getReserveAccount()":"0f47a0e5","getSupplyRate()":"84bdc9a8","getTreasureyAccount()":"ec2fde3e","getUserBorrowPosition(address,address)":"471b4427","getUserDepositPosition(address)":"e108f857","getUtilization()":"7eb71131","isPositionLiquidatable(address,address)":"6558ef11","lastUpdatedTimestamp()":"fbaf894c","lendingAsset()":"1ffce3f4","liquidate(address,address,uint256,address)":"3de2f6b2","liquidationDiscount()":"8053fcbe","liquidationThreshold()":"4031234c","ltv()":"6fb49d73","optimalUtilization()":"6290cd1c","repay(address,address,uint256)":"1da649cf","reserve()":"cd3293de","reserveFactor()":"4322b714","setControlAllowList(uint64)":"a1d34a42","slope1()":"a62b75a8","slope2()":"d0134cb7","supplyIndex()":"98f1bc12","totalBorrowed()":"4c19386c","totalSupplied()":"630fd0ac","treasury()":"61d027b3","updateBorrowIndex()":"67e74dd1","updateIndices()":"383e2170","updateOracle(address,uint256)":"b42ba5b1","updateSupplyIndex()":"ed8e3e8f","withdraw(address,uint256)":"f3fef3a3","yieldBearingAsset()":"c95abc22"},"id":14}