{"abi":[{"type":"constructor","inputs":[{"name":"_ltv","type":"uint64","internalType":"uint64"},{"name":"_optimalUtilization","type":"uint64","internalType":"uint64"},{"name":"_baseRate","type":"uint64","internalType":"uint64"},{"name":"_slope1","type":"uint64","internalType":"uint64"},{"name":"_slope2","type":"uint64","internalType":"uint64"},{"name":"_liquidationThreshold","type":"uint64","internalType":"uint64"},{"name":"_liquidationDiscount","type":"uint64","internalType":"uint64"},{"name":"_reserveFactor","type":"uint64","internalType":"uint64"},{"name":"_lending","type":"address","internalType":"address"},{"name":"yieldContract","type":"address","internalType":"address"},{"name":"lendingPool","type":"string","internalType":"string"},{"name":"aclContract","type":"address","internalType":"address"},{"name":"allowList","type":"uint64","internalType":"uint64"}],"stateMutability":"nonpayable"},{"type":"function","name":"BASE_POINT","inputs":[],"outputs":[{"name":"","type":"uint256","internalType":"uint256"}],"stateMutability":"view"},{"type":"function","name":"MAX_INDEX","inputs":[],"outputs":[{"name":"","type":"uint256","internalType":"uint256"}],"stateMutability":"view"},{"type":"function","name":"PRICE_PRECISION","inputs":[],"outputs":[{"name":"","type":"uint256","internalType":"uint256"}],"stateMutability":"view"},{"type":"function","name":"SECONDS_PER_YEAR","inputs":[],"outputs":[{"name":"","type":"uint256","internalType":"uint256"}],"stateMutability":"view"},{"type":"function","name":"acl","inputs":[],"outputs":[{"name":"","type":"address","internalType":"contract AccessController"}],"stateMutability":"view"},{"type":"function","name":"assetMultiplierOracle","inputs":[{"name":"","type":"address","internalType":"address"}],"outputs":[{"name":"","type":"uint256","internalType":"uint256"}],"stateMutability":"view"},{"type":"function","name":"baseRate","inputs":[],"outputs":[{"name":"","type":"uint64","internalType":"uint64"}],"stateMutability":"view"},{"type":"function","name":"borrow","inputs":[{"name":"user","type":"address","internalType":"address"},{"name":"collateralAmount","type":"uint256","internalType":"uint256"},{"name":"collateralAsset","type":"address","internalType":"address"}],"outputs":[{"name":"","type":"uint256","internalType":"uint256"}],"stateMutability":"nonpayable"},{"type":"function","name":"borrowIndex","inputs":[],"outputs":[{"name":"","type":"uint256","internalType":"uint256"}],"stateMutability":"view"},{"type":"function","name":"calculateCurrentDebt","inputs":[{"name":"userPrincipal","type":"uint256","internalType":"uint256"},{"name":"userBorrowIndex","type":"uint256","internalType":"uint256"}],"outputs":[{"name":"","type":"uint256","internalType":"uint256"}],"stateMutability":"view"},{"type":"function","name":"calculateCurrentDeposit","inputs":[{"name":"userShares","type":"uint256","internalType":"uint256"}],"outputs":[{"name":"","type":"uint256","internalType":"uint256"}],"stateMutability":"view"},{"type":"function","name":"calculateHealthFactor","inputs":[{"name":"collateralValue","type":"uint256","internalType":"uint256"},{"name":"borrowedValue","type":"uint256","internalType":"uint256"}],"outputs":[{"name":"","type":"uint256","internalType":"uint256"}],"stateMutability":"view"},{"type":"function","name":"controlAllowList","inputs":[],"outputs":[{"name":"","type":"uint64","internalType":"uint64"}],"stateMutability":"view"},{"type":"function","name":"deposit","inputs":[{"name":"user","type":"address","internalType":"address"},{"name":"amount","type":"uint256","internalType":"uint256"}],"outputs":[{"name":"","type":"uint256","internalType":"uint256"},{"name":"","type":"uint256","internalType":"uint256"}],"stateMutability":"nonpayable"},{"type":"function","name":"getAssetMultiplier","inputs":[{"name":"asset","type":"address","internalType":"address"}],"outputs":[{"name":"","type":"uint256","internalType":"uint256"}],"stateMutability":"view"},{"type":"function","name":"getBorrowRate","inputs":[],"outputs":[{"name":"","type":"uint256","internalType":"uint256"}],"stateMutability":"view"},{"type":"function","name":"getMaxBorrowAmount","inputs":[{"name":"collateralAmount","type":"uint256","internalType":"uint256"},{"name":"collateralAsset","type":"address","internalType":"address"}],"outputs":[{"name":"","type":"uint256","internalType":"uint256"}],"stateMutability":"view"},{"type":"function","name":"getPoolStats","inputs":[],"outputs":[{"name":"totalSupply","type":"uint256","internalType":"uint256"},{"name":"totalBorrow","type":"uint256","internalType":"uint256"},{"name":"availableLiquidity","type":"uint256","internalType":"uint256"},{"name":"utilizationRate","type":"uint256","internalType":"uint256"},{"name":"supplyAPY","type":"uint256","internalType":"uint256"},{"name":"borrowAPY","type":"uint256","internalType":"uint256"},{"name":"borrowIndexValue","type":"uint256","internalType":"uint256"},{"name":"supplyIndexValue","type":"uint256","internalType":"uint256"}],"stateMutability":"view"},{"type":"function","name":"getReserveAccount","inputs":[],"outputs":[{"name":"","type":"address","internalType":"address"}],"stateMutability":"view"},{"type":"function","name":"getSupplyRate","inputs":[],"outputs":[{"name":"","type":"uint256","internalType":"uint256"}],"stateMutability":"view"},{"type":"function","name":"getTreasuryAccount","inputs":[],"outputs":[{"name":"","type":"address","internalType":"address"}],"stateMutability":"view"},{"type":"function","name":"getUserBorrowPosition","inputs":[{"name":"user","type":"address","internalType":"address"},{"name":"collateralAsset","type":"address","internalType":"address"}],"outputs":[{"name":"principalBorrowed","type":"uint256","internalType":"uint256"},{"name":"currentDebt","type":"uint256","internalType":"uint256"},{"name":"collateralAmount","type":"uint256","internalType":"uint256"},{"name":"healthFactor","type":"uint256","internalType":"uint256"},{"name":"borrowIndex","type":"uint256","internalType":"uint256"}],"stateMutability":"view"},{"type":"function","name":"getUserDepositPosition","inputs":[{"name":"user","type":"address","internalType":"address"}],"outputs":[{"name":"yieldTokenBalance","type":"uint256","internalType":"uint256"},{"name":"underlyingValue","type":"uint256","internalType":"uint256"},{"name":"currentSupplyAPY","type":"uint256","internalType":"uint256"}],"stateMutability":"view"},{"type":"function","name":"getUtilization","inputs":[],"outputs":[{"name":"","type":"uint256","internalType":"uint256"}],"stateMutability":"view"},{"type":"function","name":"isPositionLiquidatable","inputs":[{"name":"user","type":"address","internalType":"address"},{"name":"collateralAsset","type":"address","internalType":"address"}],"outputs":[{"name":"isLiquidatable","type":"bool","internalType":"bool"},{"name":"healthFactor","type":"uint256","internalType":"uint256"}],"stateMutability":"view"},{"type":"function","name":"lastUpdatedTimestamp","inputs":[],"outputs":[{"name":"","type":"uint256","internalType":"uint256"}],"stateMutability":"view"},{"type":"function","name":"lendingAsset","inputs":[],"outputs":[{"name":"","type":"address","internalType":"address"}],"stateMutability":"view"},{"type":"function","name":"liquidate","inputs":[{"name":"liquidator","type":"address","internalType":"address"},{"name":"borrower","type":"address","internalType":"address"},{"name":"debtToCover","type":"uint256","internalType":"uint256"},{"name":"collateralAsset","type":"address","internalType":"address"}],"outputs":[],"stateMutability":"nonpayable"},{"type":"function","name":"liquidationDiscount","inputs":[],"outputs":[{"name":"","type":"uint64","internalType":"uint64"}],"stateMutability":"view"},{"type":"function","name":"liquidationThreshold","inputs":[],"outputs":[{"name":"","type":"uint64","internalType":"uint64"}],"stateMutability":"view"},{"type":"function","name":"ltv","inputs":[],"outputs":[{"name":"","type":"uint64","internalType":"uint64"}],"stateMutability":"view"},{"type":"function","name":"optimalUtilization","inputs":[],"outputs":[{"name":"","type":"uint64","internalType":"uint64"}],"stateMutability":"view"},{"type":"function","name":"repay","inputs":[{"name":"user","type":"address","internalType":"address"},{"name":"collateralizedAsset","type":"address","internalType":"address"},{"name":"repayAmount","type":"uint256","internalType":"uint256"}],"outputs":[],"stateMutability":"nonpayable"},{"type":"function","name":"reserve","inputs":[],"outputs":[{"name":"","type":"address","internalType":"contract CradleAccount"}],"stateMutability":"view"},{"type":"function","name":"reserveFactor","inputs":[],"outputs":[{"name":"","type":"uint64","internalType":"uint64"}],"stateMutability":"view"},{"type":"function","name":"setControlAllowList","inputs":[{"name":"_newLevel","type":"uint64","internalType":"uint64"}],"outputs":[],"stateMutability":"nonpayable"},{"type":"function","name":"slope1","inputs":[],"outputs":[{"name":"","type":"uint64","internalType":"uint64"}],"stateMutability":"view"},{"type":"function","name":"slope2","inputs":[],"outputs":[{"name":"","type":"uint64","internalType":"uint64"}],"stateMutability":"view"},{"type":"function","name":"supplyIndex","inputs":[],"outputs":[{"name":"","type":"uint256","internalType":"uint256"}],"stateMutability":"view"},{"type":"function","name":"totalBorrowed","inputs":[],"outputs":[{"name":"","type":"uint256","internalType":"uint256"}],"stateMutability":"view"},{"type":"function","name":"totalSupplied","inputs":[],"outputs":[{"name":"","type":"uint256","internalType":"uint256"}],"stateMutability":"view"},{"type":"function","name":"treasury","inputs":[],"outputs":[{"name":"","type":"address","internalType":"contract CradleAccount"}],"stateMutability":"view"},{"type":"function","name":"updateBorrowIndex","inputs":[],"outputs":[],"stateMutability":"nonpayable"},{"type":"function","name":"updateIndices","inputs":[],"outputs":[],"stateMutability":"nonpayable"},{"type":"function","name":"updateOracle","inputs":[{"name":"asset","type":"address","internalType":"address"},{"name":"multiplier","type":"uint256","internalType":"uint256"}],"outputs":[],"stateMutability":"nonpayable"},{"type":"function","name":"updateSupplyIndex","inputs":[],"outputs":[],"stateMutability":"nonpayable"},{"type":"function","name":"withdraw","inputs":[{"name":"user","type":"address","internalType":"address"},{"name":"yieldTokenAmount","type":"uint256","internalType":"uint256"}],"outputs":[{"name":"","type":"uint256","internalType":"uint256"},{"name":"","type":"uint256","internalType":"uint256"}],"stateMutability":"nonpayable"},{"type":"function","name":"yieldBearingAsset","inputs":[],"outputs":[{"name":"","type":"address","internalType":"contract AbstractCradleAssetManager"}],"stateMutability":"view"},{"type":"event","name":"Borrowed","inputs":[{"name":"user","type":"address","indexed":true,"internalType":"address"},{"name":"collateralAsset","type":"address","indexed":true,"internalType":"address"},{"name":"collateralAmount","type":"uint256","indexed":false,"internalType":"uint256"},{"name":"borrowAmount","type":"uint256","indexed":false,"internalType":"uint256"},{"name":"borrowIndex","type":"uint256","indexed":false,"internalType":"uint256"}],"anonymous":false},{"type":"event","name":"Deposited","inputs":[{"name":"user","type":"address","indexed":true,"internalType":"address"},{"name":"amount","type":"uint256","indexed":false,"internalType":"uint256"},{"name":"yieldTokensMinted","type":"uint256","indexed":false,"internalType":"uint256"}],"anonymous":false},{"type":"event","name":"IndicesUpdated","inputs":[{"name":"newBorrowIndex","type":"uint256","indexed":false,"internalType":"uint256"},{"name":"newSupplyIndex","type":"uint256","indexed":false,"internalType":"uint256"},{"name":"timestamp","type":"uint256","indexed":false,"internalType":"uint256"}],"anonymous":false},{"type":"event","name":"Liquidated","inputs":[{"name":"liquidator","type":"address","indexed":true,"internalType":"address"},{"name":"borrower","type":"address","indexed":true,"internalType":"address"},{"name":"collateralAsset","type":"address","indexed":true,"internalType":"address"},{"name":"debtCovered","type":"uint256","indexed":false,"internalType":"uint256"},{"name":"collateralSeized","type":"uint256","indexed":false,"internalType":"uint256"}],"anonymous":false},{"type":"event","name":"OracleUpdated","inputs":[{"name":"asset","type":"address","indexed":true,"internalType":"address"},{"name":"newMultiplier","type":"uint256","indexed":false,"internalType":"uint256"}],"anonymous":false},{"type":"event","name":"Repaid","inputs":[{"name":"user","type":"address","indexed":true,"internalType":"address"},{"name":"collateralAsset","type":"address","indexed":true,"internalType":"address"},{"name":"repaidAmount","type":"uint256","indexed":false,"internalType":"uint256"},{"name":"principalRepaid","type":"uint256","indexed":false,"internalType":"uint256"},{"name":"interestPaid","type":"uint256","indexed":false,"internalType":"uint256"}],"anonymous":false},{"type":"event","name":"Withdrawn","inputs":[{"name":"user","type":"address","indexed":true,"internalType":"address"},{"name":"yieldTokensBurned","type":"uint256","indexed":false,"internalType":"uint256"},{"name":"underlyingAmount","type":"uint256","indexed":false,"internalType":"uint256"}],"anonymous":false},{"type":"error","name":"ReentrancyGuardReentrantCall","inputs":[]}],"bytecode":{"object":"0x60808060405234620003b2576200514e8038038091620000208285620003b6565b83398101906101a081830312620003b2576200003c81620003da565b6020926200004c848401620003da565b936200005b60408501620003da565b6200006960608601620003da565b6200007760808701620003da565b916200008660a08801620003da565b926200009560c08901620003da565b92620000a460e08a01620003da565b91620000b46101008b01620003ef565b9a620000c46101208c01620003ef565b6101408c0151909a906001600160401b038111620003b2578c018a601f82011215620003b25780516001600160401b0381116200035b576040519b62000114601f8301601f19168d018e620003b6565b818d528b8284010111620003b25762000133918b808e01910162000404565b620001426101608d01620003ef565b9b6001600160401b03906200015b9061018001620003da565b16600681116200036f575f80546001600160e01b03191690911760408e811b600160401b600160e01b0316919091179091556001805560038054600160a01b600160e01b03191660a09390931b600160a01b600160e01b031692909217909155608093841b600160801b600160c01b0390811696821b6fffffffffffffffff00000000000000009081166001600160401b03948516179790971760c09490941b6001600160c01b0319908116949094176004556005805498831b9097169790931697821697909717959095179290911b16179055600680546001600160a01b03199081166001600160a01b03998a161790915591519196956121ed938484019391929091908411818510176200035b578062000281848862002f61978989863962000427565b03905ff08015620003505767747265617375727960c01b95620002db9289602893168b60025416176002556040519782620002c68a9451809285808801910162000404565b830191820152036008810187520185620003b6565b604051938385016001600160401b038111868210176200035b5785946200030494863962000427565b03905ff0801562000350578216836003541617600355670de0b6b3a76400008060085560095542600a55169060075416176007555f600b555f600c55604051612af390816200046e8239f35b6040513d5f823e3d90fd5b634e487b7160e01b5f52604160045260245ffd5b60648a6040519062461bcd60e51b825280600483015260248201527f496e76616c696420636f6e74726f6c20616c6c6f77206c697374206c6576656c6044820152fd5b5f80fd5b601f909101601f19168101906001600160401b038211908210176200035b57604052565b51906001600160401b0382168203620003b257565b51906001600160a01b0382168203620003b257565b5f5b838110620004165750505f910152565b818101518382015260200162000406565b60409060806004939594956060835262000451815180928160608701526020858701910162000404565b601f80199101168201019460018060a01b03166020820152015256fe60406080815260049081361015610014575f80fd5b5f91823560e01c90816301f72884146122845781630f47a0e51461076f5781631135daeb146122675781631da649cf14611d1b5781631f68f20a14611cf25781631ffce3f414611cc9578163383e217014611cb05781633de2f6b2146116fe5781634031234c146116d65781634322b714146116ab578163471b44271461146b57816347e7ef241461122e5781634c19386c1461120f57816361d027b3146111e65781636290cd1c146111bf578163630fd0ac146111a05781636558ef111461116657816367e74dd11461114d5781636c665a5514610d7c5781636fb49d7314610d5157816371302473146107165781637eb7113114610d345781638053fcbe14610d0b57816384bdc9a814610cee5781638a539cbe14610cca57816395082d2514610ca757816398f1bc1214610c88578163a1d34a4214610b24578163a62b75a814610afa578163aa5af0fd14610adb578163ae60d5fc14610ab7578163b42ba5b114610952578163ba1c5e801461092e578163bbb85188146108ad578163c0919750146107e7578163c7ea4d44146107c1578163c95abc2214610798578163cd3293de1461076f578163d0134cb71461074e578163d28320d614610716578163d288043b146106e1578163de287359146106b9578163e108f85714610569578163e6a69ab81461054a578163ed8e3e8f1461052e578163f3fef3a31461027957508063f7866ee3146102515763fbaf894c14610230575f80fd5b3461024d578160031936011261024d57602090600a549051908152f35b5080fd5b503461024d578160031936011261024d5760035490516001600160a01b039091168152602090f35b905082346104b657826003193601126104b6576102946122ac565b602435908254906001600160401b03936102af8584166123ca565b90956001600160a01b0393879290891c851690835b815181101561051c57610310896102db838561231b565b518d51636bf8e80f60e01b815291166001600160401b0316868201908152336020808301919091529283918391829160400190565b0381885afa9182156105125787926104e5575b505061033757610332906122d8565b6102c4565b5050509091929394955061034b600161238f565b610353612a55565b61035b612677565b670de0b6b3a7640000610370600954876124a4565b049561039587600c5461039082610389600b5484612507565b1015612a78565b612507565b600c55846007541690813b156104c357885163393b766560e11b81529087166001600160401b03168382019081526001600160a01b03861660208201529091849183919082908490829060400103925af180156104db579083916104c7575b50508360025416846006541691813b156104c357885163439e2e4560e01b81526001600160a01b038087169282019283529093166020820152604081018890528391839182908490829060600103925af180156104b957908793929161049c575b5050917f92ccf450a286a957af52509bc1c9939d1a6a481783e142e41e2499f0bb66ebc69282519485528560208601521692a2600954906001805582519182526020820152f35b819293506104a99061232f565b6104b65790818692610455565b80fd5b87513d84823e3d90fd5b8380fd5b6104d09061232f565b61024d5781886103f4565b88513d85823e3d90fd5b6105049250803d1061050b575b6104fc8183612356565b810190612377565b8c80610323565b503d6104f2565b8d513d89823e3d90fd5b50505090919293949561034b9061238f565b83346104b657806003193601126104b657610547612639565b80f35b50503461024d578160031936011261024d57602090516301e187e08152f35b8391503461024d576020806003193601126106b5576105866122ac565b6007548551637e062a3560e11b81526001600160a01b039291849082908790829087165afa9081156106ab579084939291879161066b575b509082602492895197889586946370a0823160e01b86521690840152165afa928315610660579261062e575b505061062a670de0b6b3a7640000610604600954846124a4565b049261060e6125a9565b9051938493846040919493926060820195825260208201520152565b0390f35b90809250813d8311610659575b6106458183612356565b81010312610655575182806105ea565b5f80fd5b503d61063b565b8451903d90823e3d90fd5b848193949592503d83116106a4575b6106848183612356565b810103126106a0575182811681036106a05783929190826105be565b8580fd5b503d61067a565b87513d88823e3d90fd5b8280fd5b50503461024d578160031936011261024d5790548151911c6001600160a01b03168152602090f35b8284346104b65760203660031901126104b65750670de0b6b3a764000061070e60209360095490356124a4565b049051908152f35b50503461024d57602036600319011261024d5760209181906001600160a01b0361073e6122ac565b168152600d845220549051908152f35b9050346106b557826003193601126106b557602092505460c01c9051908152f35b50503461024d578160031936011261024d5760025490516001600160a01b039091168152602090f35b50503461024d578160031936011261024d5760075490516001600160a01b039091168152602090f35b50503461024d578160031936011261024d576001600160401b0360209254169051908152f35b9050346106b557816003193601126106b5576001600160a01b036108096122c2565b16808452600d602052816020848620549285519283809263313ce56760e01b82525afa9081156108a3579261085c61070e93610855610861946127109760209a91610876575b50612852565b92356124a4565b6124b7565b6001600160401b0360035460a01c16906124a4565b61089691508a3d811161089c575b61088e8183612356565b810190612839565b5f61084f565b503d610884565b84513d87823e3d90fd5b50503461024d578160031936011261024d5761010091600c5491600b54918284115f1461092957506108df8284612507565b6108e76124d5565b6108ef6125a9565b906108f8612521565b926008549460095496815198895260208901528701526060860152608085015260a084015260c083015260e0820152f35b6108df565b50503461024d578160031936011261024d5760209061094b612521565b9051908152f35b905082346104b657826003193601126104b65761096d6122ac565b9260243582546001600160401b03946109878683166123ca565b949586956001600160a01b0393861c84169190875b8151811015610a83576109e8836109b3838561231b565b518a51636bf8e80f60e01b815291166001600160401b0316878201908152336020808301919091529283918391829160400190565b0381895afa918215610a79578b92610a5c575b5050610a0f57610a0a906122d8565b61099c565b505050505060209294507f41dd56c92c84169d8e89dc293d2649a911f47b357d3012bc88662395e01979d09395610a46600161238f565b1693848652600d8352818187205551908152a280f35b610a729250803d1061050b576104fc8183612356565b8c806109fb565b8a513d8d823e3d90fd5b50505050507f41dd56c92c84169d8e89dc293d2649a911f47b357d3012bc88662395e01979d09395610a466020949661238f565b50503461024d5760209061094b61085c610ad036612296565b9190600854906124a4565b50503461024d578160031936011261024d576020906008549051908152f35b8284346104b657806003193601126104b657506001600160401b036020925460801c169051908152f35b9050346106b557602091826003193601126104c3578135916001600160401b03938484168094036106a057855492610b5d8685166123ca565b879685831c6001600160a01b031691885b8151811015610c7657610bb88684610b86848661231b565b518851636bf8e80f60e01b815291166001600160401b03168a8201908152336020820152909283918291604090910190565b0381885afa908115610c6c578c91610c4f575b50610bde57610bd9906122d8565b610b6e565b50505050909192939450610bf2600161238f565b60068511610c0e5750505067ffffffffffffffff191617815580f35b5162461bcd60e51b815291820181905260248201527f496e76616c696420636f6e74726f6c20616c6c6f77206c697374206c6576656c604482015260649150fd5b610c669150873d891161050b576104fc8183612356565b5f610bcb565b86513d8e823e3d90fd5b505050509091929394610bf29061238f565b50503461024d578160031936011261024d576020906009549051908152f35b50503461024d578160031936011261024d5760209051670de0b6b3a76400008152f35b50503461024d578160031936011261024d576020905168056bc75e2d631000008152f35b50503461024d578160031936011261024d5760209061094b6125a9565b50503461024d578160031936011261024d576005548151911c6001600160401b03168152602090f35b50503461024d578160031936011261024d5760209061094b6124d5565b50503461024d578160031936011261024d576020906001600160401b0360035460a01c169051908152f35b905082346104b65760603660031901126104b657610d986122ac565b926024359160443560018060a01b039586821692838303610655578054966001600160401b0398610dca8a8a166123ca565b9883998285928a1c16915b815181101561113957610e218d610dec838561231b565b518c51636bf8e80f60e01b815291166001600160401b0316878201908152336020808301919091529283918391829160400190565b0381885afa91821561112f57908f949392918992611112575b5050610e5157610e49906122d8565b909150610dd5565b50505050909192939495969750610e68600161238f565b610e70612a55565b610e78612677565b865163313ce56760e01b8152602099908a8185818b5afa9081156110805791610ec78c600d610eb4610ed595612710978b916110fb5750612852565b918c8a525261085c8d8d8a2054906124a4565b9060035460a01c16906124a4565b0493610eea85610389600c54600b5490612507565b875163472a1d0960e11b8152308482019081526001600160a01b03881660208201528284169791908c908290819060400103818b5afa9081156110f15786916110c4575b5061108a57600854873b156106a05789516318d9901d60e11b8152308682019081526001600160a01b03909316602084015260408301889052606083018c905260808301919091529085908290819060a0010381838b5af180156110805790859161106c575b5050610fa285600b54612514565b600b558160025416916006541692823b1561106857885163439e2e4560e01b81526001600160a01b03928316918101918252939091166020820152604081018590528391839182908490829060600103925af1801561105e5761104a575b50506008548451958652602086019190915260408501819052937fc1cba78646fef030830d099fc25cb498953709c9d47d883848f81fd207174c9f90606090a36001805551908152f35b611054829161232f565b6104b65780611000565b86513d84823e3d90fd5b8480fd5b6110759061232f565b6104c357838b610f94565b89513d87823e3d90fd5b885162461bcd60e51b81528085018c90526014602482015273115e1a5cdd1a5b99c81d5b9c185a590819195c1d60621b6044820152606490fd5b90508b81813d83116110ea575b6110db8183612356565b8101031261065557518c610f2e565b503d6110d1565b8a513d88823e3d90fd5b6108969150843d861161089c5761088e8183612356565b6111289250803d1061050b576104fc8183612356565b8f80610e3a565b8c513d8a823e3d90fd5b5050509091929394959697610e689061238f565b83346104b657806003193601126104b6576105476125f1565b8284346104b657816003193601126104b657506111926111846122ac565b61118c6122c2565b90612863565b825191151582526020820152f35b50503461024d578160031936011261024d57602090600c549051908152f35b8284346104b657806003193601126104b657506001600160401b0360209254169051908152f35b50503461024d578160031936011261024d5760035490516001600160a01b039091168152602090f35b50503461024d578160031936011261024d57602090600b549051908152f35b905082346104b657826003193601126104b6576112496122ac565b906024358154916001600160401b036112638185166123ca565b91956001600160a01b0394879390891c861690845b81518110156114595761128f856102db838561231b565b0381885afa91821561144f578892611432575b50506112b6576112b1906122d8565b611278565b505050909192939495506112ca600161238f565b6112d2612a55565b6112da612677565b670de0b6b3a764000080850290858204148515171561141f576113018691600954906124b7565b9661130e86600c54612514565b600c5516948060025416816006541690873b156106a057895163439e2e4560e01b81526001600160a01b03918216858201908152919092166020820152604081018790528590829081906060010381838b5af180156110805790859161140b575b505060075416803b156104c357604484928388938b5196879586946339a4ed0560e11b86528501528b1660248401525af1801561105e57908692916113f3575b50507f73a19dd210f1a7f902193214c0ee91dd35ee5b4d920cba8d519eca65a7b488ca918151908152846020820152a2600954906001805582519182526020820152f35b8192506113ff9061232f565b6104b6578085916113af565b6114149061232f565b6104c357838961136f565b634e487b7160e01b845260118252602484fd5b6114489250803d1061050b576104fc8183612356565b8c806112a2565b8d513d8a823e3d90fd5b5050509091929394956112ca9061238f565b9050346106b557816003193601126106b5576114856122ac565b9061148e6122c2565b835163472a1d0960e11b8152308382019081526001600160a01b0380841660208381019190915292969095929492861693909290918590889081906040010381875afa9687156116a1578897611672575b508251622275af60e91b8152308282019081526001600160a01b03841660208201529096908690889081906040010381885afa9687156115fc578997611643575b50835163052226ef60e41b8152308382019081526001600160a01b0385166020820152909587918791908290819060400103915afa9485156115fc578995611614575b5087156116065761157a8761085c6008548b6124a4565b921690858451809263313ce56760e01b825281855afa9081156115fc576115cc9261085c868c6115b8889660a09f966115c797916115e55750612852565b938152600d8b522054886124a4565b6127e4565b935b825196875286015284015260608301526080820152f35b61089691508d803d1061089c5761088e8183612356565b84513d8b823e3d90fd5b50505060a0955f19936115ce565b9094508581813d831161163c575b61162c8183612356565b810103126106555751935f611563565b503d611622565b9096508581813d831161166b575b61165b8183612356565b810103126106555751955f611520565b503d611651565b9096508481813d831161169a575b61168a8183612356565b810103126106555751955f6114df565b503d611680565b83513d8a823e3d90fd5b50503461024d578160031936011261024d576020906001600160401b0360055460801c169051908152f35b50503461024d578160031936011261024d576020906001600160401b03600554169051908152f35b9050346106b55760803660031901126106b5576117196122ac565b916117226122c2565b91604435906064359260018060a01b039283851695868603610655578854976001600160401b0396611755888b166123ca565b8b9a861c8816908b5b8151811015611c9b578d8b611773838561231b565b518a51636bf8e80f60e01b815291166001600160401b03168b820190815233602080830191909152908190839081906040010381895afa928315611c905792611c73575b50506117cb576117c6906122d8565b61175e565b505050909192939495969798506117e2600161238f565b6117ea612a55565b6117f2612677565b845163313ce56760e01b815260209690878183818e5afa908115611c695790611821918d91611c525750612852565b988a8c52600d8852868c20549061183c8261085c8d8a6124a4565b60055461271092908a1c16820190818311611c3f579161185f8f93928d936124a4565b8a5163472a1d0960e11b8152308782019081526001600160a01b0389166020820152939099169d919004979390918b9085908f908290819060400103915afa938415611c35578394611c02575b508c8b8b51809263052226ef60e41b825281806118e58c308d840190602090939293604083019460018060a01b03809216845216910152565b03915afa908115611bf8578491611bc7575b508d8c8c518092622275af60e91b825281806119308d8d3090840190602090939293604083019460018060a01b03809216845216910152565b03915afa948515611bbc5794611b83575b50670de0b6b3a76400009261085c6119739361195c936124a4565b61196d8461085c60085480986124a4565b906127e4565b1015611b31579061198c8161085c8f979695948a6124a4565b908b3b156106a05788516342c8afad60e01b8152308482019081526001600160a01b03861660208201526040810184905260608101899052608081019290925290869082908e9082908490829060a00103925af18015611b1357908691611b1d575b50506119fc90600b54612507565b600b5588831698806002541690600654168a3b156106a057885163439e2e4560e01b8082526001600160a01b0393841685830190815292909316602083015260408201899052908690829081900360600181838f5af18015611b1357908691611aff575b50508a3b156110685787519081526001600160a01b03938416918101918252929091166020820152604081018490528290829081906060010381838c5af18015611af557611add575b50507fd1ef587d13fefe63f9bc582e973aad46877ef08cfe790838721bd521c53caf56938351928352820152a46001805580f35b611ae69061232f565b611af157875f611aa9565b8780fd5b85513d84823e3d90fd5b611b089061232f565b61106857845f611a60565b89513d88823e3d90fd5b611b269061232f565b61106857845f6119ee565b875162461bcd60e51b81528084018a9052602660248201527f506f736974696f6e20697320206865616c7468792c2063616e6e6f74206c697160448201526575696461746560d01b6064820152608490fd5b919093508b82813d8311611bb5575b611b9c8183612356565b8101031261065557905192670de0b6b3a7640000611941565b503d611b92565b8c51903d90823e3d90fd5b8094508c8092503d8311611bf1575b611be08183612356565b81010312610655578e92515f6118f7565b503d611bd6565b8b513d86823e3d90fd5b8b809295508194503d8311611c2e575b611c1c8183612356565b81010312610655578d9151925f6118ac565b503d611c12565b8a513d85823e3d90fd5b634e487b7160e01b8f526011855260248ffd5b6108969150893d8b1161089c5761088e8183612356565b87513d8e823e3d90fd5b611c899250803d1061050b576104fc8183612356565b5f806117b7565b8b51903d90823e3d90fd5b5050509091929394959697986117e29061238f565b83346104b657806003193601126104b657610547612677565b50503461024d578160031936011261024d5760065490516001600160a01b039091168152602090f35b8284346104b657806003193601126104b657506001600160401b0360209254821c169051908152f35b9050346106b55760603660031901126106b557611d366122ac565b91611d3f6122c2565b845460443593916001600160401b03611d598184166123ca565b88976001600160a01b0394909190871c851690895b8151811015612253578b85611d83838561231b565b518b51636bf8e80f60e01b815291166001600160401b03168a820190815233602080830191909152908190839081906040010381895afa928315611bbc5792612236575b5050611ddb57611dd6906122d8565b611d6e565b505050839495969750611df260019492939461238f565b611dfa612677565b865163472a1d0960e11b8152308782019081526001600160a01b038616602082810191909152939092169790969092909181908890819060400103818b5afa96871561210a578a97612203575b508251622275af60e91b8152308382019081526001600160a01b038716602082015290979082908990819060400103818c5afa9788156121f9578b986121c6575b50835163052226ef60e41b8152308482019081526001600160a01b038816602082015290989083908a90819060400103818d5afa9889156121bc578c99612189575b5081156121565760085492611ee38261085c86866124a4565b8c1161211457508b9161085c611f018561085c8f95611f08966124a4565b809b6124a4565b91893b1561024d5784516342c8afad60e01b8152308582019081526001600160a01b0389166020820152604081018b905260608101949094526080840191909152918290819060a0010381838c5af1801561210a576120f7575b508890868911156120ea57612710611f8c611f7d898c612507565b955b60055460801c16866124a4565b04611f97818b612507565b91611fa489600b54612507565b600b5587600254169288600654168b3b156106a057865163439e2e4560e01b8082526001600160a01b0396871685830190815292909616602083015260408201929092528590829081900360600181838f5af180156120e0579085916120cc575b505081612051575b5050915197885250506020860193909352604085019290925216917f244fed5b3268b6a17fff986a36f3d87e163ac678d91d552866eb1e74f010f3a690606090a380f35b87600354169288600654168b3b156106a05786519182526001600160a01b03948516928201928352909316602082015260408101919091528290829081906060010381838c5af180156120c2576120aa575b808061200d565b6120b69093929361232f565b611af15790875f6120a3565b83513d84823e3d90fd5b6120d59061232f565b6104c357835f612005565b86513d87823e3d90fd5b612710611f8c8395611f7f565b6121039099919961232f565b975f611f62565b83513d8c823e3d90fd5b8460649187519162461bcd60e51b8352820152601960248201527f526570617920616d6f756e7420657863656564732064656274000000000000006044820152fd5b5050606492519162461bcd60e51b8352820152600e60248201526d27379030b1ba34bb32903637b0b760911b6044820152fd5b9098508281813d83116121b5575b6121a18183612356565b810103126121b15751975f611eca565b8b80fd5b503d612197565b85513d8e823e3d90fd5b9097508181813d83116121f2575b6121de8183612356565b810103126121ee5751965f611e88565b8a80fd5b503d6121d4565b84513d8d823e3d90fd5b9080975081813d831161222f575b61221b8183612356565b8101031261222b5751955f611e47565b8980fd5b503d612211565b61224c9250803d1061050b576104fc8183612356565b5f80611dc7565b505050611df284959697989492939461238f565b50503461024d578160031936011261024d57602090516127108152f35b50503461024d5760209061094b61196d365b6040906003190112610655576004359060243590565b600435906001600160a01b038216820361065557565b602435906001600160a01b038216820361065557565b5f1981146122e65760010190565b634e487b7160e01b5f52601160045260245ffd5b8051156123075760200190565b634e487b7160e01b5f52603260045260245ffd5b80518210156123075760209160051b010190565b6001600160401b03811161234257604052565b634e487b7160e01b5f52604160045260245ffd5b90601f801991011681019081106001600160401b0382111761234257604052565b90816020910312610655575180151581036106555790565b1561239657565b60405162461bcd60e51b815260206004820152600c60248201526b155b985d5d1a1bdc9a5e995960a21b6044820152606490fd5b6001600160401b0390811661240957604051906040820190828210908211176123425760405260018152602036818301375f612405826122fa565b5290565b6040519060e0820190811182821017612342576040526006815260c03660208301375f80612436836122fa565b5281516001101561249057600160408301528151600210156124905760026060830152815160031015612490576003608083015281516004101561249057600560a08301528151600510156124905750600660c082015290565b634e487b7160e01b81526032600452602490fd5b818102929181159184041417156122e657565b81156124c1570490565b634e487b7160e01b5f52601260045260245ffd5b600c54801561250257600b5490612710918281029281840414901517156122e6576124ff916124b7565b90565b505f90565b919082039182116122e657565b919082018092116122e657565b6125296124d5565b6004546001600160401b0380821680841015612560576125569061085c6124ff95848660801c16906124a4565b9160401c16612514565b91928261256c91612507565b6127109283039283116122e657818460801c16828560401c1601928284116122e65761085c6125a2926124ff9660c01c906124a4565b9116612514565b6125c16125b46124d5565b6125bc612521565b6124a4565b6001600160401b0360055460801c16906127109182039182116122e6576305f5e100916125ed916124a4565b0490565b6125fd600a5442612507565b80156126365761262d90644979cb9e00612626612618612521565b926125bc60085494856124a4565b0490612514565b60085542600a55565b50565b612645600a5442612507565b80156126365761266e90644979cb9e006126266126606125a9565b926125bc60095494856124a4565b60095542600a55565b612683600a5442612507565b8015612636576125bc6126ae612697612521565b6008549061262685644979cb9e00958693856124a4565b9068056bc75e2d6310000092838311612788576126d491836008556126266126606125a9565b91821161272c57817fa0fadbfbb40d1b4013c553c5deaf84070909c3ed7a9ef092a92d406661bdf9ee9260095542600a556127276040519283924291846040919493926060820195825260208201520152565b0390a1565b60405162461bcd60e51b815260206004820152602e60248201527f537570706c7920696e646578206f766572666c6f77202d20636f6e746163742060448201526d383937ba37b1b7b61030b236b4b760911b6064820152608490fd5b60405162461bcd60e51b815260206004820152602e60248201527f426f72726f7720696e646578206f766572666c6f77202d20636f6e746163742060448201526d383937ba37b1b7b61030b236b4b760911b6064820152608490fd5b811561283257612800906001600160401b0360055416906124a4565b90670de0b6b3a7640000918281029281840414901517156122e657612710808202918204036122e6576124ff916124b7565b50505f1990565b90816020910312610655575160ff811681036106555790565b60ff16604d81116122e657600a0a90565b6040805163472a1d0960e11b81523060048201526001600160a01b038481166024830152919493929091908116906020908184604481865afa938415612a4b575f94612a1c575b508315612a0e578651622275af60e91b81523060048201526001600160a01b0386166024820152948286604481875afa9586156129a6575f966129df575b50875163052226ef60e41b81523060048201526001600160a01b0382166024820152938390859060449082905afa9384156129a6575f946129b0575b501693865163313ce56760e01b81528281600481895afa9081156129a65761085c936129746115c797969461085c61296a6129819c9d96600d965f9161298f5750612852565b98600854906124a4565b975f52525f2054906124a4565b670de0b6b3a7640000811091565b6108969150863d881161089c5761088e8183612356565b88513d5f823e3d90fd5b90938382813d83116129d8575b6129c78183612356565b810103126104b6575051925f612924565b503d6129bd565b90958382813d8311612a07575b6129f68183612356565b810103126104b6575051945f6128e8565b503d6129ec565b505f95505f19949350505050565b90938282813d8311612a44575b612a338183612356565b810103126104b6575051925f6128aa565b503d612a29565b87513d5f823e3d90fd5b600260015414612a66576002600155565b604051633ee5aeb560e01b8152600490fd5b15612a7f57565b60405162461bcd60e51b8152602060048201526016602482015275496e73756666696369656e74206c697175696469747960501b6044820152606490fdfea26469706673582212204332f7696c87e6b38001f79e487e41431fece91679c0717288f567760008d20764736f6c634300081400336080604052346200029b57620021ed803803806200001d81620002b4565b9283398101906060818303126200029b5780516001600160401b0391908281116200029b57810192601f908082860112156200029b578451928484116200024457602093601f19966200007686898785011601620002b4565b938285528683830101116200029b5785905f5b8381106200029f5750505f918401015280840151906001600160a01b03821682036200029b57604001518581168091036200029b576006811162000258575f549168010000000000000000600160e01b039060401b169163ffffffff60e01b1617175f5560019283805560ff1960035416600355815194851162000244576002548481811c9116801562000239575b828210146200022557838111620001dc575b5080928511600114620001755750839450908392915f9462000169575b50501b915f199060031b1c1916176002555b604051611f129081620002db8239f35b015192505f8062000147565b92948490811660025f52845f20945f905b88838310620001c15750505010620001a8575b505050811b0160025562000159565b01515f1960f88460031b161c191690555f808062000199565b85870151885590960195948501948793509081019062000186565b60025f52815f208480880160051c8201928489106200021b575b0160051c019085905b8281106200020f5750506200012a565b5f8155018590620001ff565b92508192620001f6565b634e487b7160e01b5f52602260045260245ffd5b90607f169062000118565b634e487b7160e01b5f52604160045260245ffd5b6064856040519062461bcd60e51b825280600483015260248201527f496e76616c696420636f6e74726f6c20616c6c6f77206c697374206c6576656c6044820152fd5b5f80fd5b81810183015186820184015287920162000089565b6040519190601f01601f191682016001600160401b03811183821017620002445760405256fe60406080815260048036101561004b575b50361561001b575f80fd5b807f9936746a4565f9766fa768f88f56a7487c78780ac179562773d1c75c5269537e9151338152346020820152a1005b5f90813560e01c90816328cafd721461157857816331b3203a1461128557816342c8afad14610f24578163431d8ffe14610dfa578163439e2e4514610e4357816344eb5e0014610dfa5781634743c2fd14610dcd57816347e7ef2414610c1a57816352226ef014610bfc57816352696601146108565781635e7db13d14610a5a57816369328dec1461089f5781638e543a1214610856578163a1d34a4214610702578163a7efe34814610523578163acbc682014610317578163b2567d1f146101f857508063c7ea4d44146101d2578063dce83ae314610189578063de287359146101615763e9ea28de0361001057903461015d578160031936011261015d5760209060ff6003541690519015158152f35b5080fd5b50903461015d578160031936011261015d5790548151911c6001600160a01b03168152602090f35b50903461015d578060031936011261015d57806020926101a7611720565b6101af61173a565b6001600160a01b0391821683526006865283832091168252845220549051908152f35b50903461015d578160031936011261015d576001600160401b0360209254169051908152f35b90508234610313576020908160031936011261030f5782359182151580930361030b578454936001600160401b039461023286821661188f565b879691851c6001600160a01b03169190875b81518110156102fa57610279868461025c84866117d0565b518a51636bf8e80f60e01b815293849283923391168b8401611831565b0381885afa9081156102f0578b916102c3575b5061029f5761029a9061178d565b610244565b5050505050505090506102b26001611854565b60ff80196003541691161760035580f35b6102e39150873d89116102e9575b6102db81836117e4565b810190611819565b8b61028c565b503d6102d1565b88513d8d823e3d90fd5b50505050505050906102b290611854565b8480fd5b8380fd5b8280fd5b91905034610520578260031936011261052057610332611720565b602435908254906001600160401b039461034d86841661188f565b949586956001600160a01b0394891c851690875b815181101561050e576103988461037883856117d0565b51168c5190636bf8e80f60e01b82528180602094859333908c8401611831565b0381885afa918215610504578b926104e7575b50506103bf576103ba9061178d565b610361565b505050909192939495506103d36001611854565b6103db611982565b8447106104a8578580808088875af1903d156104a2573d90811161048f57875190610410601f8201601f1916602001836117e4565b81528660203d92013e5b1561045557507f645e52ee0ce5c05d60f4b051028f29630be7001f5d84cba67fe6872db872cff8916020918596519485521692a36001805580f35b606490602087519162461bcd60e51b8352820152601460248201527312109054881d1c985b9cd9995c8819985a5b195960621b6044820152fd5b634e487b7160e01b875260418352602487fd5b5061041a565b865162461bcd60e51b81526020818401526019602482015278496e73756666696369656e7420484241522062616c616e636560381b6044820152606490fd5b6104fd9250803d106102e9576102db81836117e4565b5f806103ab565b8d513d8d823e3d90fd5b5050509091929394956103d390611854565b80fd5b90508234610313576020918260031936011261030f57610541611720565b918454936001600160401b039461055986821661188f565b87966001600160a01b0392851c831691885b81518110156106f0576105a086898561058485876117d0565b51168a519384928392636bf8e80f60e01b845233918401611831565b0381885afa9081156106e6578c916106c9575b506105c6576105c19061178d565b61056b565b505050509091929394506105da6001611854565b825163248a35ef60e11b81523085820152941660248501819052938181604481896101675af19182156106bf5790601692918792610692575b505060070b036106465750507fbbbf805ef99ca7d0b7d2cc769719f2a281c9b3331a3642efa75a712e3094a1668280a280f35b61068e92505191829162461bcd60e51b835282016060906020815260196020820152782330b4b632b2103a379030b9b9b7b1b4b0ba32903a37b5b2b760391b60408201520190565b0390fd5b6106b19250803d106106b8575b6106a981836117e4565b810190611969565b8680610613565b503d61069f565b83513d88823e3d90fd5b6106e09150873d89116102e9576102db81836117e4565b8c6105b3565b88513d8e823e3d90fd5b5050505090919293946105da90611854565b83915034610313576020918260031936011261030f578135916001600160401b03938484168094036108525785549261073c86851661188f565b879685831c6001600160a01b031691885b815181101561084057610782868461076584866117d0565b518851636bf8e80f60e01b815293849283923391168d8401611831565b0381885afa908115610836578c91610819575b506107a8576107a39061178d565b61074d565b505050509091929394506107bc6001611854565b600685116107d85750505067ffffffffffffffff191617815580f35b5162461bcd60e51b815291820181905260248201527f496e76616c696420636f6e74726f6c20616c6c6f77206c697374206c6576656c604482015260649150fd5b6108309150873d89116102e9576102db81836117e4565b8c610795565b86513d8e823e3d90fd5b5050505090919293946107bc90611854565b8580fd5b82843461015d578060031936011261015d5780602092610874611720565b61087c61173a565b6001600160a01b0391821683526005865283832091168252845220549051908152f35b83915034610313576060366003190112610313576108bb611720565b6001600160a01b039260443591908483168303610852578554946001600160401b03946108e986881661188f565b8897841c831690885b8151811015610a47576109298961090983856117d0565b5116875190636bf8e80f60e01b82528180602094859333908b8401611831565b0381885afa918215610a3d578d92610a20575b50506109505761094b9061178d565b6108f2565b505050909192939495506109676001969296611854565b61096f611982565b86549161097d81841661188f565b88978994861c16935b8151811015610a0e5761099d8361090983856117d0565b03818a5afa9182156106e6578c926109f1575b50506109c4576109bf9061178d565b610986565b5050505050506109ea92506109d96001611854565b6109e1611982565b602435916119a5565b6001805580f35b610a079250803d106102e9576102db81836117e4565b8b806109b0565b5050505050506109d96109ea93611854565b610a369250803d106102e9576102db81836117e4565b8c8061093c565b88513d8f823e3d90fd5b5050509095610967909592939495611854565b838334610520578160031936011261052057610a74611720565b916024359082546001600160401b0394610a8f86831661188f565b949586956001600160a01b0393851c84169190875b8151811015610bea578a83610ab983856117d0565b5116885190636bf8e80f60e01b82528180610adb602095869433918401611831565b0381895afa918215610be057908d9695949392918c92610bc3575b5050610b0f57610b059061178d565b9091929350610aa4565b5050505050909192939450610b246001611854565b1691828452846020528184205494858211610b8057610b66827faa3cec92d25e6e7cf3bf119de96782be90a19b7f9d717dc51e03d3f8f8aa22b1959697611e0e565b90858752602052808387205582519182526020820152a280f35b606490602084519162461bcd60e51b8352820152601e60248201527f43616e6e6f7420756e6c6f636b206d6f7265207468616e206c6f636b656400006044820152fd5b610bd99250803d106102e9576102db81836117e4565b8d80610af6565b89513d8d823e3d90fd5b505050509091929394610b2490611854565b82843461015d578060031936011261015d57806020926101a7611720565b9050828060031936011261031357610c30611720565b815163e1f21c6760e01b81526001600160a01b03821684820190815233602082810191909152602435604083018190529094939092909181906060010390858161016793818b865af1908115610dc357906016918991610da6575b5060070b03610d6357835163eca3691760e01b81526001600160a01b03909216868301523360248301523060448301526001600160401b0390921660070b60648201529083908290608490829089905af1908115610d5957906016918691610d3c575b5060070b03610cfb578380f35b5162461bcd60e51b815291820152601860248201527f4661696c656420746f207472616e7366657220746f6b656e0000000000000000604482015260649150fd5b610d539150843d86116106b8576106a981836117e4565b86610cee565b82513d87823e3d90fd5b835162461bcd60e51b8152808701869052601760248201527f4661696c656420746f20617070726f766520746f6b656e0000000000000000006044820152606490fd5b610dbd9150873d89116106b8576106a981836117e4565b89610c8b565b85513d8a823e3d90fd5b82843461015d57602036600319011261015d57602090610df3610dee611720565b611e1b565b9051908152f35b82843461015d578060031936011261015d5780602092610e18611720565b610e2061173a565b6001600160a01b0391821683526007865283832091168252845220549051908152f35b9050823461031357606036600319011261031357610e5f611720565b90610e6861173a565b9084546001600160401b0394610e7f86831661188f565b879692841c6001600160a01b03169290875b8151811015610f1257610ea88361090983856117d0565b03818a5afa9182156106e6578c92610ef5575b5050610ecf57610eca9061178d565b610e91565b5050505050506109ea9250610ee46001611854565b610eec611982565b604435916119a5565b610f0b9250803d106102e9576102db81836117e4565b8b80610ebb565b505050505050610ee46109ea93611854565b8391503461031357610f3536611750565b92939591908754936001600160401b0396610f5188871661188f565b8a996001600160a01b0397909190871c8816908b5b815181101561126f578d8c610f7b83856117d0565b5116610f9e8b5191636bf8e80f60e01b83528280602093849333908d8401611831565b0381895afa9283156112645792611247575b5050610fc457610fbf9061178d565b610f66565b5050508697989950610fdd600197929394959697611854565b1695868a526020926005845281878c20991698898c52845285878c20541061121057878b5260058452868b20898c528452868b2061101c878254611e0e565b9055878b5260068452868b20898c528452868b2061103b868254611e0e565b9055878b5260058452868b20898c528452868b20546111f75750868a5260078352858a20888b5283528986812055975b89549061107981831661188f565b8b9a8c93891c16925b81518110156111e3578c6110b8878561109b85876117d0565b518d51636bf8e80f60e01b815293849283923391168c8401611831565b0381895afa9182156111d857916111bb575b506110dd576110d89061178d565b611082565b5050505090919293949596506110f36001611854565b86885280825284882054808411611179577faa3cec92d25e6e7cf3bf119de96782be90a19b7f9d717dc51e03d3f8f8aa22b1868594936111577fa6f6d5e50bc84f153a0d6a9f9b37780433f92dc32d7e10f975ab3831c36898fa9998978c95611e0e565b90848d52855280828d205581519086825285820152a28351928352820152a380f35b5060649185519162461bcd60e51b8352820152601e60248201527f43616e6e6f7420756e6c6f636b206d6f7265207468616e206c6f636b656400006044820152fd5b6111d29150873d89116102e9576102db81836117e4565b8e6110ca565b8b51903d90823e3d90fd5b50505050909192939495966110f390611854565b878b5260078452868b20898c528452868b20559761106b565b865162461bcd60e51b815280840185905260116024820152704e6f206c6f616e7320746f20726570617960781b6044820152606490fd5b61125d9250803d106102e9576102db81836117e4565b8f80610fb0565b8c51903d90823e3d90fd5b505050610fdd8798999a97929394959697611854565b905082346103135761129636611750565b90939592948754946001600160401b03966112b288881661188f565b8a996001600160a01b0398909190851c8916908b5b8151811015611563578d8c6112dc83856117d0565b51168b895191636bf8e80f60e01b835282806112ff602094859433918401611831565b0381895afa928315611558579261153b575b5050611325576113209061178d565b6112c7565b50505087989950611341600198929394959697989a999a611854565b1695868a52602091600583528a858120998b83169a8b835285528682206113698a8254611ecf565b9055898252600685528682208b83528552868220611388878254611ecf565b9055898252600785528682208b83528552878783205581546113ab82821661188f565b90839d84918a1c16935b8251821015611522576113ea88856113cd85876117d0565b518d51636bf8e80f60e01b815293849283923391168d8401611831565b0381895afa9182156111d85791611505575b506114105761140a9061178d565b8e6113b5565b5050505061142b91929394959697989950610dee6001611854565b83116114b657917f7695c943e86fe119073b098f1b278727c236f4a661c96a660dacbf88f89c606795939160609593898b52808252838b2061146e848254611ecf565b9055898b528152887fb8cecfd0e38e35fdd1cbaa8877116ea7f0dc948c1317b8ce1a47eaedfe64154684808d205481519086825285820152a28251948552840152820152a380f35b60849184519162461bcd60e51b8352820152602560248201527f496e73756666696369656e7420756e6c6f636b65642062616c616e636520746f604482015264206c6f636b60d81b6064820152fd5b61151c9150883d8a116102e9576102db81836117e4565b5f6113fc565b5050505050610dee61142b92939495969798999a611854565b6115519250803d106102e9576102db81836117e4565b8f80611311565b8a51903d90823e3d90fd5b505050611341889a9892939495969798611854565b83915034610313578160031936011261031357611593611720565b9160243584546001600160401b03946115ad86831661188f565b87966001600160a01b0393861c841691885b815181101561170e5788836115d483856117d0565b5116895190636bf8e80f60e01b825281806115f6602095869433918401611831565b0381895afa918215611704578d926116e7575b505061161d576116189061178d565b6115bf565b505050509091929394506116316001611854565b61163a81611e1b565b831161169657907fb8cecfd0e38e35fdd1cbaa8877116ea7f0dc948c1317b8ce1a47eaedfe64154693929116938486528060205282862061167c838254611ecf565b90558486526020528185205482519182526020820152a280f35b835162461bcd60e51b8152602081870152602560248201527f496e73756666696369656e7420756e6c6f636b65642062616c616e636520746f604482015264206c6f636b60d81b6064820152608490fd5b6116fd9250803d106102e9576102db81836117e4565b8c80611609565b8a513d8f823e3d90fd5b50505050909192939461163190611854565b600435906001600160a01b038216820361173657565b5f80fd5b602435906001600160a01b038216820361173657565b60a0906003190112611736576001600160a01b03906004358281168103611736579160243590811681036117365790604435906064359060843590565b5f19811461179b5760010190565b634e487b7160e01b5f52601160045260245ffd5b8051156117bc5760200190565b634e487b7160e01b5f52603260045260245ffd5b80518210156117bc5760209160051b010190565b90601f801991011681019081106001600160401b0382111761180557604052565b634e487b7160e01b5f52604160045260245ffd5b90816020910312611736575180151581036117365790565b6001600160401b0390911681526001600160a01b03909116602082015260400190565b1561185b57565b60405162461bcd60e51b815260206004820152600c60248201526b155b985d5d1a1bdc9a5e995960a21b6044820152606490fd5b6001600160401b039081166118ce57604051906040820190828210908211176118055760405260018152602036818301375f6118ca826117af565b5290565b6040519060e0820190811182821017611805576040526006815260c03660208301375f806118fb836117af565b5281516001101561195557600160408301528151600210156119555760026060830152815160031015611955576003608083015281516004101561195557600560a08301528151600510156119555750600660c082015290565b634e487b7160e01b81526032600452602490fd5b9081602091031261173657518060070b81036117365790565b600260015414611993576002600155565b604051633ee5aeb560e01b8152600490fd5b6001600160a01b0382811693908415611bc2576040805163e1f21c6760e01b81526001600160a01b0386166004820152306024820152604481018490526101679560209592935f9390929091908781606481888d5af1908115611bb857906016918691611b9b575b5060070b03611b5b57611a1f90611e1b565b8511611b065782916084879286519485938492630aed65f560e11b84528d6004850152306024850152169a8b60448401528960648401525af1918215611afb5790601692611ade575b5060070b03611a9b57519081527f645e52ee0ce5c05d60f4b051028f29630be7001f5d84cba67fe6872db872cff89190a3565b5162461bcd60e51b815260048101839052601960248201527f4661696c656420746f207472616e7366657220617373657473000000000000006044820152606490fd5b611af59150853d87116106b8576106a981836117e4565b5f611a68565b8351903d90823e3d90fd5b835162461bcd60e51b815260048101879052602860248201527f696e73756666696369656e742061737365747320746f20636f6d706c657465206044820152673a3930b739b332b960c11b6064820152608490fd5b845162461bcd60e51b81526020600482015260196024820152782330b4b632b2103a379030b9b9b7b1b4b0ba32903a37b5b2b760391b6044820152606490fd5b611bb29150893d8b116106b8576106a981836117e4565b5f611a0d565b86513d87823e3d90fd5b92611bcf91929450611e1b565b8111611dba575f918254936001600160401b0394611bee86821661188f565b958596869085604094851c16915b8151811015611da857611c3484611c1383856117d0565b5116865190636bf8e80f60e01b825281806020948593339060048401611831565b0381885afa918215611d9e578b92611d81575b5050611c5b57611c569061178d565b611bfc565b50505090919293949550611c6f6001611854565b611c77611982565b844710611d41578580808088875af1903d15611d3b573d908111611d2757825190611cac601f8201601f1916602001836117e4565b81528660203d92013e5b15611ced575192835216907f645e52ee0ce5c05d60f4b051028f29630be7001f5d84cba67fe6872db872cff890602090a360018055565b5162461bcd60e51b815260206004820152601460248201527312109054881d1c985b9cd9995c8819985a5b195960621b6044820152606490fd5b634e487b7160e01b87526041600452602487fd5b50611cb6565b815162461bcd60e51b8152602060048201526019602482015278496e73756666696369656e7420484241522062616c616e636560381b6044820152606490fd5b611d979250803d106102e9576102db81836117e4565b5f80611c47565b87513d8d823e3d90fd5b505050909192939495611c6f90611854565b60405162461bcd60e51b815260206004820152602660248201527f696e73756666696369656e74204842415220746f20636f6d706c65746520747260448201526530b739b332b960d11b6064820152608490fd5b9190820391821161179b57565b6001600160a01b03165f8181526004602052604081205490918015611ebc576020602491604051928380926370a0823160e01b82523060048301525afa908115611eb1578391611e80575b50808211611e7b57611e789250611e0e565b90565b505090565b90506020813d8211611ea9575b81611e9a602093836117e4565b8101031261031357515f611e66565b3d9150611e8d565b6040513d85823e3d90fd5b5047808211611e7b57611e789250611e0e565b9190820180921161179b5756fea26469706673582212208eb12f7b8819115de9b1e0f797daa060fd31c423751fbb4aedfbf530a877dd0b64736f6c63430008140033","linkReferences":{}},"methodIdentifiers":{"BASE_POINT()":"1135daeb","MAX_INDEX()":"8a539cbe","PRICE_PRECISION()":"95082d25","SECONDS_PER_YEAR()":"e6a69ab8","acl()":"de287359","assetMultiplierOracle(address)":"71302473","baseRate()":"1f68f20a","borrow(address,uint256,address)":"6c665a55","borrowIndex()":"aa5af0fd","calculateCurrentDebt(uint256,uint256)":"ae60d5fc","calculateCurrentDeposit(uint256)":"d288043b","calculateHealthFactor(uint256,uint256)":"01f72884","controlAllowList()":"c7ea4d44","deposit(address,uint256)":"47e7ef24","getAssetMultiplier(address)":"d28320d6","getBorrowRate()":"ba1c5e80","getMaxBorrowAmount(uint256,address)":"c0919750","getPoolStats()":"bbb85188","getReserveAccount()":"0f47a0e5","getSupplyRate()":"84bdc9a8","getTreasuryAccount()":"f7866ee3","getUserBorrowPosition(address,address)":"471b4427","getUserDepositPosition(address)":"e108f857","getUtilization()":"7eb71131","isPositionLiquidatable(address,address)":"6558ef11","lastUpdatedTimestamp()":"fbaf894c","lendingAsset()":"1ffce3f4","liquidate(address,address,uint256,address)":"3de2f6b2","liquidationDiscount()":"8053fcbe","liquidationThreshold()":"4031234c","ltv()":"6fb49d73","optimalUtilization()":"6290cd1c","repay(address,address,uint256)":"1da649cf","reserve()":"cd3293de","reserveFactor()":"4322b714","setControlAllowList(uint64)":"a1d34a42","slope1()":"a62b75a8","slope2()":"d0134cb7","supplyIndex()":"98f1bc12","totalBorrowed()":"4c19386c","totalSupplied()":"630fd0ac","treasury()":"61d027b3","updateBorrowIndex()":"67e74dd1","updateIndices()":"383e2170","updateOracle(address,uint256)":"b42ba5b1","updateSupplyIndex()":"ed8e3e8f","withdraw(address,uint256)":"f3fef3a3","yieldBearingAsset()":"c95abc22"},"id":13}