{"abi":[{"type":"constructor","inputs":[{"name":"aclContract","type":"address","internalType":"address"}],"stateMutability":"nonpayable"},{"type":"function","name":"acl","inputs":[],"outputs":[{"name":"","type":"address","internalType":"contract AccessController"}],"stateMutability":"view"},{"type":"function","name":"controlAllowList","inputs":[],"outputs":[{"name":"","type":"uint64","internalType":"uint64"}],"stateMutability":"view"},{"type":"function","name":"createListing","inputs":[{"name":"fee_collector_add","type":"address","internalType":"address"},{"name":"reserve","type":"address","internalType":"address"},{"name":"max_supply","type":"uint256","internalType":"uint256"},{"name":"asset","type":"address","internalType":"address"},{"name":"purchase_asset","type":"address","internalType":"address"},{"name":"purchase_price","type":"uint256","internalType":"uint256"},{"name":"beneficiary","type":"address","internalType":"address"},{"name":"shadow_asset","type":"address","internalType":"address"}],"outputs":[{"name":"","type":"address","internalType":"address"}],"stateMutability":"nonpayable"},{"type":"function","name":"setControlAllowList","inputs":[{"name":"_newLevel","type":"uint64","internalType":"uint64"}],"outputs":[],"stateMutability":"nonpayable"}],"bytecode":{"object":"0x60803461007d57601f611c0238819003918201601f19168301916001600160401b038311848410176100815780849260209460405283398101031261007d57516001600160a01b038116810361007d575f80546001600160e01b031916604092831b600160401b600160e01b031617905551611b6c90816100968239f35b5f80fd5b634e487b7160e01b5f52604160045260245ffdfe60406080815260049081361015610014575f80fd5b5f91823560e01c908163a1d34a42146102b8578163a6186bae1461009c57508063c7ea4d44146100765763de2873591461004c575f80fd5b3461007257816003193601126100725790548151911c6001600160a01b03168152602090f35b5080fd5b503461007257816003193601126100725767ffffffffffffffff60209254169051908152f35b919050346102b45761010091826003193601126102b0576001600160a01b03908035828116908190036102ac57602435948386168096036102a857606435908482168092036102a4576084358581168091036102a05760c4359086821680920361029c5760e43593878516809503610298578a549967ffffffffffffffff968a8d6101288a8f16610502565b8c829f83941c16925b8151811015610280578c8f8d6101478486610461565b519151636bf8e80f60e01b8152911667ffffffffffffffff1691810191825233602080840191909152918290829081906040010381895afa918215610272578592610245575b50506101a15761019c9061041e565b610131565b505050909192939495969798999a9b506101bb60016104c7565b8b519961155990818c019a8c8c10908c111761023257509161012099979593918b999795936105de8b39885260208801528b8701526044356060870152608086015260a085015260a43560c085015260e084015282015203019084f091821561022957602093505191168152f35b513d84823e3d90fd5b634e487b7160e01b8f526041905260248efd5b6102649250803d1061026b575b61025c8183610475565b8101906104ab565b5f8061018d565b503d610252565b50508f5190503d84823e3d90fd5b505050909192939495969798999a9b6101bb906104c7565b8a80fd5b8980fd5b8880fd5b8780fd5b8680fd5b8580fd5b8380fd5b8280fd5b9050346102b457602091826003193601126102b05781359167ffffffffffffffff938484168094036102ac578554926102f2868516610502565b879685831c6001600160a01b031691885b815181101561040c5761034e868461031b8486610461565b518851636bf8e80f60e01b8152911667ffffffffffffffff168a8201908152336020820152909283918291604090910190565b0381885afa908115610402578c916103e5575b506103745761036f9061041e565b610303565b5050505090919293945061038860016104c7565b600685116103a45750505067ffffffffffffffff191617815580f35b5162461bcd60e51b815291820181905260248201527f496e76616c696420636f6e74726f6c20616c6c6f77206c697374206c6576656c604482015260649150fd5b6103fc9150873d891161026b5761025c8183610475565b5f610361565b86513d8e823e3d90fd5b505050509091929394610388906104c7565b5f19811461042c5760010190565b634e487b7160e01b5f52601160045260245ffd5b80511561044d5760200190565b634e487b7160e01b5f52603260045260245ffd5b805182101561044d5760209160051b010190565b90601f8019910116810190811067ffffffffffffffff82111761049757604052565b634e487b7160e01b5f52604160045260245ffd5b908160209103126104c3575180151581036104c35790565b5f80fd5b156104ce57565b60405162461bcd60e51b815260206004820152600c60248201526b155b985d5d1a1bdc9a5e995960a21b6044820152606490fd5b67ffffffffffffffff90811661054257604051906040820190828210908211176104975760405260018152602036818301375f61053e82610440565b5290565b6040519060e0820190811182821017610497576040526006815260c03660208301375f8061056f83610440565b528151600110156105c957600160408301528151600210156105c957600260608301528151600310156105c957600360808301528151600410156105c957600560a08301528151600510156105c95750600660c082015290565b634e487b7160e01b81526032600452602490fdfe6080346200016357601f6200155938819003918201601f19168301916001600160401b0383118484101762000167578084926101209460405283398101031262000163576200004e816200017b565b6200005c602083016200017b565b916200006b604082016200017b565b9160608201516200007f608084016200017b565b916200008e60a085016200017b565b9460c0850151936001620000b4610100620000ac60e08a016200017b565b98016200017b565b935f5490680100000000000000008360e01b039060401b169063ffffffff60e01b1617175f556001805560326003555f600a555f600c555f600d5560ff19600e5416600e5560018060a01b03809781958280958160018060a01b03199d168d6002541617600255168b6004541617600455600655168860095416176009551686600754161760075516846008541617600855600b55169060055416176005556040516113c89081620001918239f35b5f80fd5b634e487b7160e01b5f52604160045260245ffd5b51906001600160a01b0382168203620001635756fe6080604081815260049182361015610015575f80fd5b5f92833560e01c918263085735ae146110bc575081631135daeb1461109f5781631b29304c14610ccb578163200d2ed214610c8c57816338af3eed14610c63578163459da60f14610c445781635c2638aa14610c25578163758faedc14610ae6578163773a34c314610a7a57816385af0261146108275781638a333b50146108085781638cc01aa3146107df5781638de9322214610365578163a1d34a42146101e9578163b21228e1146101c0578163c7ea4d441461019a578163cd3293de1461016e57508063de28735914610147578063e8b8b73f146101295763f0859174146100fe575f80fd5b3461012557816003193601126101255760095490516001600160a01b039091168152602090f35b5080fd5b5034610125578160031936011261012557602090600a549051908152f35b503461012557816003193601126101255790548151911c6001600160a01b03168152602090f35b9050346101965782600319360112610196575490516001600160a01b03909116815260209150f35b8280fd5b5050346101255781600319360112610125576001600160401b0360209254169051908152f35b50503461012557816003193601126101255760085490516001600160a01b039091168152602090f35b9050346101965760209182600319360112610361578135916001600160401b039384841680940361035d578554926102228685166111f4565b879685831c6001600160a01b031691885b815181101561034b5761027d868461024b8486611145565b518851636bf8e80f60e01b815291166001600160401b03168a8201908152336020820152909283918291604090910190565b0381885afa908115610341578c91610314575b506102a35761029e90611102565b610233565b505050509091929394506102b760016111b9565b600685116102d35750505067ffffffffffffffff191617815580f35b5162461bcd60e51b815291820181905260248201527f496e76616c696420636f6e74726f6c20616c6c6f77206c697374206c6576656c604482015260649150fd5b6103349150873d891161033a575b61032c8183611180565b8101906111a1565b5f610290565b503d610322565b86513d8e823e3d90fd5b5050505090919293946102b7906111b9565b8580fd5b8380fd5b8391503461012557610376366110d8565b9390918354936001600160401b03946103908682166111f4565b919586926001600160a01b0392861c83169190845b81518110156107cd5786836103ba8385611145565b518a51636bf8e80f60e01b815291166001600160401b031691810191825233602080840191909152918290829081906040010381895afa9182156107c35788926107a6575b50506104135761040e90611102565b6103a5565b5050505090919293945061042760016111b9565b61042f6112ce565b60ff600e54166005811015610793576001036107515785610455600654600a54906112f1565b6104608115156112fe565b1061071b57610471600b548761133b565b92816007541693855163313ce56760e01b81526020818481895afa9081156106b2576104aa929160ff9187916106ed575b501690611367565b9582825416803b156106e957865163439e2e4560e01b8082526001600160a01b0380851686840190815298166020890152604088018b9052969091869183919082908490829060600103925af180156106b2579085916106d5575b5050828254168360085416813b1561035d5787518781526001600160a01b0380851686830190815292166020830152604082018b905291869183919082908490829060600103925af180156106b25784929186916106bc575b5050169382825416836009541690863b1561035d5787518381526001600160a01b03918216858201908152919092166020820152604081018990528590829081906060010381838a5af180156106b25790859161069e575b50506127106105c76003548961133b565b0483600254169360095416863b1561035d5787519283526001600160a01b0394851693830193845290931660208301526040820192909252829082908190606001038183875af180156106945761067d575b50507fc8a75b1f5d854e3dba63e716ee546b7cdad2f6687fd66a607fca56e33e11a8d460208561064c8297600a54611385565b600a5561065b86600c54611385565b600c5561066a86600d54611385565b600d558451908152a26001805551908152f35b6106878291611159565b6106915780610619565b80fd5b84513d84823e3d90fd5b6106a790611159565b6103615783896105b6565b87513d87823e3d90fd5b6106c891929350611159565b610361578290848a61055e565b6106de90611159565b610361578389610505565b8480fd5b61070e915060203d8111610714575b6107068183611180565b81019061134e565b8b6104a2565b503d6106fc565b835162461bcd60e51b8152602081850152601060248201526f414d4f554e545f544f4f5f4c4152474560801b6044820152606490fd5b835162461bcd60e51b815260208185018181526010918101919091526f2624a9aa24a723afa727aa2fa7a822a760811b604082015281906060010390fd5b0390fd5b634e487b7160e01b835260218452602483fd5b6107bc9250803d1061033a5761032c8183611180565b8c806103ff565b8a513d8a823e3d90fd5b505050509091929394610427906111b9565b50503461012557816003193601126101255760075490516001600160a01b039091168152602090f35b5050346101255781600319360112610125576020906006549051908152f35b919050346101965760209081600319360112610361578235918454926001600160401b03946108578686166111f4565b87966001600160a01b0396861c871691885b8151811015610a68576108b387846108818486611145565b518b51636bf8e80f60e01b815291166001600160401b0316888201908152336020820152909283918291604090910190565b0381885afa908115610a5e578c91610a41575b506108d9576108d490611102565b610869565b505050509091929394506108ed60016111b9565b6108f56112ce565b610904600654600a54906112f1565b610a0f5781600d54106109db5780858792541690866005541691876009541690803b156106e957875163439e2e4560e01b81526001600160a01b0394851693810193845293909116602083015260408201859052839183919082908490829060600103925af180156109d1576109bd575b50507f7fcf532c15f0a6db0bd6d0e038bea71d30d808c7d98cb3bf7268a95bf5081b65936109a582600d546112f1565b600d5560055416918351928352820152a16001805580f35b6109c690611159565b6106e957845f610975565b85513d84823e3d90fd5b835162461bcd60e51b8152908101839052600e60248201526d105353d5539517d253959053125160921b6044820152606490fd5b835162461bcd60e51b8152908101839052600c60248201526b2624a9aa24a723afa7a822a760a11b6044820152606490fd5b610a589150883d8a1161033a5761032c8183611180565b5f6108c6565b89513d8e823e3d90fd5b5050505090919293946108ed906111b9565b828434610691578060031936011261069157600a5491610a9c836006546112f1565b90600c5490600d549260ff600e5416946005861015610ad3575060a096508151958652602086015284015260608301526080820152f35b634e487b7160e01b815260218852602490fd5b9190503461019657602091826003193601126103615780359160ff83168093036106e9578454936001600160401b0394610b218682166111f4565b879691841c6001600160a01b03169190875b8151811015610c1457610b7d8584610b4b8486611145565b518951636bf8e80f60e01b815291166001600160401b03168a8201908152336020820152909283918291604090910190565b0381885afa908115610c0a578b91610bed575b50610ba357610b9e90611102565b610b33565b505050505050909150610bb660016111b9565b610bbe6112ce565b6005821015610bda575060ff19600e541617600e556001805580f35b634e487b7160e01b835260219052602482fd5b610c049150863d881161033a5761032c8183611180565b5f610b90565b87513d8d823e3d90fd5b5050505050509091610bb6906111b9565b505034610125578160031936011261012557602090600c549051908152f35b505034610125578160031936011261012557602090600d549051908152f35b50503461012557816003193601126101255760055490516001600160a01b039091168152602090f35b83833461012557816003193601126101255760ff600e54169051916005821015610cb857602083838152f35b634e487b7160e01b815260218452602490fd5b9050823461069157610cdc366110d8565b9390918054906001600160401b0394610cf68684166111f4565b91956001600160a01b0393879390861c85169190845b815181101561108d57610d5883610d238385611145565b518a51636bf8e80f60e01b815291166001600160401b0316878201908152336020808301919091529283918391829160400190565b0381895afa9182156107c3578892611070575b5050610d7f57610d7a90611102565b610d0c565b50505050909192939450610d9360016111b9565b610d9b6112ce565b60ff600e54166005811015908161105d5760018114159182611050575b8261102b575b5050610fec57610ddd610dd6600654600a54906112f1565b15156112fe565b610de9600b548761133b565b816020856009541687519283809263313ce56760e01b82525afa908115610fe257610e20929160ff918691610fc457501690611367565b948381169380835416928160075416863b1561035d57875163439e2e4560e01b8082526001600160a01b03968716848301908152929096166020830152604082018b9052908690829081906060010381838b5af18015610fa357610fb1575b5081815416826008541690873b15610fad5788518681526001600160a01b03918216848201908152919092166020820152604081018b90528690829081906060010381838b5af18015610fa357908691610f8f575b505081815416916009541693823b1561035d5787519081526001600160a01b0393841691810191825293909216602083015260408201879052839183919082908490829060600103925af1801561069457610f7b575b50507fb88e8e937118ac40f5b48d6642015ce560865bba5a8cf26b81123f8891010cb3602085610f5d8297600a546112f1565b600a55610f6c86600c546112f1565b600c5561066a86600d546112f1565b610f858291611159565b6106915780610f2a565b610f9890611159565b6106e957848a610ed4565b88513d88823e3d90fd5b8680fd5b610fbd90959195611159565b9389610e7f565b610fdc915060203d8111610714576107068183611180565b8a6104a2565b86513d86823e3d90fd5b61078f90845191829162461bcd60e51b8352820160609060208152601060208201526f2624a9aa24a723afa727aa2fa7a822a760811b60408201520190565b90915061103d57600314158780610dbe565b634e487b7160e01b835260218252602483fd5b5082811415915083610db8565b634e487b7160e01b845260218352602484fd5b6110869250803d1061033a5761032c8183611180565b8c80610d6b565b505050509091929394610d93906111b9565b505034610125578160031936011261012557602090516127108152f35b849034610125578160031936011261012557602090600b548152f35b60409060031901126110fe576004356001600160a01b03811681036110fe579060243590565b5f80fd5b5f1981146111105760010190565b634e487b7160e01b5f52601160045260245ffd5b8051156111315760200190565b634e487b7160e01b5f52603260045260245ffd5b80518210156111315760209160051b010190565b6001600160401b03811161116c57604052565b634e487b7160e01b5f52604160045260245ffd5b90601f801991011681019081106001600160401b0382111761116c57604052565b908160209103126110fe575180151581036110fe5790565b156111c057565b60405162461bcd60e51b815260206004820152600c60248201526b155b985d5d1a1bdc9a5e995960a21b6044820152606490fd5b6001600160401b03908116611233576040519060408201908282109082111761116c5760405260018152602036818301375f61122f82611124565b5290565b6040519060e082019081118282101761116c576040526006815260c03660208301375f8061126083611124565b528151600110156112ba57600160408301528151600210156112ba57600260608301528151600310156112ba57600360808301528151600410156112ba57600560a08301528151600510156112ba5750600660c082015290565b634e487b7160e01b81526032600452602490fd5b6002600154146112df576002600155565b604051633ee5aeb560e01b8152600490fd5b9190820391821161111057565b1561130557565b60405162461bcd60e51b815260206004820152600e60248201526d131254d5125391d7d0d313d4d15160921b6044820152606490fd5b8181029291811591840414171561111057565b908160209103126110fe575160ff811681036110fe5790565b8115611371570490565b634e487b7160e01b5f52601260045260245ffd5b919082018092116111105756fea2646970667358221220de25df263cf0fdb0afe8c8b2d0cddb72505d581a7e892c4898144652f0872a4164736f6c63430008140033a26469706673582212207c1e1028910471cf36a5e974971b259ff02e47df45585142aa17b2d1f4f7a67364736f6c63430008140033","linkReferences":{}},"methodIdentifiers":{"acl()":"de287359","controlAllowList()":"c7ea4d44","createListing(address,address,uint256,address,address,uint256,address,address)":"a6186bae","setControlAllowList(uint64)":"a1d34a42"},"id":13}