{"abi":[{"type":"constructor","inputs":[],"stateMutability":"nonpayable"},{"type":"function","name":"PROTOCOL","inputs":[],"outputs":[{"name":"","type":"address","internalType":"address"}],"stateMutability":"view"},{"type":"function","name":"bridgedAssets","inputs":[{"name":"","type":"string","internalType":"string"}],"outputs":[{"name":"","type":"address","internalType":"contract AbstractCradleAssetManager"}],"stateMutability":"view"},{"type":"function","name":"createBridgedAsset","inputs":[{"name":"_name","type":"string","internalType":"string"},{"name":"_symbol","type":"string","internalType":"string"}],"outputs":[{"name":"","type":"address","internalType":"address"}],"stateMutability":"payable"},{"type":"function","name":"lockAsset","inputs":[{"name":"user","type":"address","internalType":"address"},{"name":"asset","type":"address","internalType":"address"},{"name":"amount","type":"uint256","internalType":"uint256"}],"outputs":[],"stateMutability":"nonpayable"},{"type":"function","name":"lockStable","inputs":[{"name":"user","type":"address","internalType":"address"},{"name":"amount","type":"uint256","internalType":"uint256"}],"outputs":[],"stateMutability":"nonpayable"},{"type":"function","name":"releaseAsset","inputs":[{"name":"user","type":"address","internalType":"address"},{"name":"symbol","type":"string","internalType":"string"},{"name":"mintAmount","type":"uint256","internalType":"uint256"},{"name":"unlockAmount","type":"uint256","internalType":"uint256"}],"outputs":[],"stateMutability":"nonpayable"},{"type":"function","name":"releaseStable","inputs":[{"name":"user","type":"address","internalType":"address"},{"name":"symbol","type":"string","internalType":"string"},{"name":"burnAmount","type":"uint256","internalType":"uint256"},{"name":"releaseAmount","type":"uint256","internalType":"uint256"}],"outputs":[],"stateMutability":"nonpayable"},{"type":"function","name":"stable","inputs":[],"outputs":[{"name":"","type":"address","internalType":"address"}],"stateMutability":"view"}],"bytecode":{"object":"0x608060405234610027576100116101d2565b61001961002c565b61454561024b823961454590f35b610032565b60405190565b5f80fd5b90565b60018060a01b031690565b90565b61005b61005661006092610036565b610044565b610039565b90565b61006c90610047565b90565b5f1b90565b9061008560018060a01b039161006f565b9181191691161790565b6100a361009e6100a892610039565b610044565b610039565b90565b6100b49061008f565b90565b6100c0906100ab565b90565b90565b906100db6100d66100e2926100b7565b6100c3565b8254610074565b9055565b90565b6100fd6100f8610102926100e6565b610044565b610039565b90565b61010e906100e9565b90565b634e487b7160e01b5f52604160045260245ffd5b60209181520190565b5f7f7472656173757279000000000000000000000000000000000000000000000000910152565b6101626008602092610125565b61016b8161012e565b0190565b6101849060208101905f818303910152610155565b90565b61018f61002c565b3d5f823e3d90fd5b6101a09061008f565b90565b6101ac90610197565b90565b90565b906101c76101c26101ce926101a3565b6101af565b8254610074565b9055565b6101e56101df6001610063565b5f6100c6565b6101f96101f26002610105565b60016100c6565b61020161002c565b611fb4810181811060018060401b03821117610245576102298291611fb4614790843961016f565b03905ff080156102405761023e9060026101b2565b565b610187565b61011156fe60806040526004361015610013575b6106b8565b61001d5f3561009c565b80630a95b0d2146100975780631281668b1461009257806320c9989b1461008d57806322be3de1146100885780635a32d03114610083578063821058171461007e57806391b9b827146100795763dcc951bb0361000e57610684565b610615565b6105d3565b610571565b6103ce565b61034f565b610299565b610262565b60e01c90565b60405190565b5f80fd5b5f80fd5b5f80fd5b60018060a01b031690565b6100c8906100b4565b90565b6100d4816100bf565b036100db57565b5f80fd5b905035906100ec826100cb565b565b5f80fd5b5f80fd5b601f801991011690565b634e487b7160e01b5f52604160045260245ffd5b9061011e906100f6565b810190811067ffffffffffffffff82111761013857604052565b610100565b906101506101496100a2565b9283610114565b565b67ffffffffffffffff81116101705761016c6020916100f6565b0190565b610100565b90825f939282370152565b9092919261019561019082610152565b61013d565b938185526020850190828401116101b1576101af92610175565b565b6100f2565b9080601f830112156101d4578160206101d193359101610180565b90565b6100ee565b90565b6101e5816101d9565b036101ec57565b5f80fd5b905035906101fd826101dc565b565b60808183031261025857610215825f83016100df565b92602082013567ffffffffffffffff811161025357610239846102509285016101b6565b9361024781604086016101f0565b936060016101f0565b90565b6100b0565b6100ac565b5f0190565b346102945761027e6102753660046101ff565b92919091610bc5565b6102866100a2565b806102908161025d565b0390f35b6100a8565b346102cb576102b56102ac3660046101ff565b92919091610ecc565b6102bd6100a2565b806102c78161025d565b0390f35b6100a8565b919091604081840312610328575f81013567ffffffffffffffff811161032357836102fc9183016101b6565b92602082013567ffffffffffffffff811161031e5761031b92016101b6565b90565b6100b0565b6100b0565b6100ac565b610336906100bf565b9052565b919061034d905f6020850194019061032d565b565b6103776103666103603660046102d0565b90610fad565b61036e6100a2565b9182918261033a565b0390f35b5f91031261038557565b6100ac565b1c90565b60018060a01b031690565b6103a99060086103ae930261038a565b61038e565b90565b906103bc9154610399565b90565b6103cb60015f906103b1565b90565b346103fe576103de36600461037b565b6103fa6103e96103bf565b6103f16100a2565b9182918261033a565b0390f35b6100a8565b90602082820312610433575f82013567ffffffffffffffff811161042e5761042b92016101b6565b90565b6100b0565b6100ac565b5190565b905090565b90825f9392825e0152565b6104716104689260209261045f81610438565b9485809361043c565b93849101610441565b0190565b90565b610484610489916101d9565b610475565b9052565b61049d6104a4916020949361044c565b8092610478565b0190565b6104bc6104b36100a2565b9283928361048d565b03902090565b6104cb916104a8565b90565b60018060a01b031690565b6104e99060086104ee930261038a565b6104ce565b90565b906104fc91546104d9565b90565b610515906105106003915f926104c2565b6104f1565b90565b90565b61052f61052a610534926100b4565b610518565b6100b4565b90565b6105409061051b565b90565b61054c90610537565b90565b61055890610543565b9052565b919061056f905f6020850194019061054f565b565b346105a15761059d61058c610587366004610403565b6104ff565b6105946100a2565b9182918261055c565b0390f35b6100a8565b91906040838203126105ce57806105c26105cb925f86016100df565b936020016101f0565b90565b6100ac565b34610602576105ec6105e63660046105a6565b906110f7565b6105f46100a2565b806105fe8161025d565b0390f35b6100a8565b6106125f5f906103b1565b90565b346106455761062536600461037b565b610641610630610607565b6106386100a2565b9182918261033a565b0390f35b6100a8565b909160608284031261067f5761067c610665845f85016100df565b9361067381602086016100df565b936040016101f0565b90565b6100ac565b346106b35761069d61069736600461064a565b916111c5565b6106a56100a2565b806106af8161025d565b0390f35b6100a8565b5f80fd5b5f1c90565b6106cd6106d2916106bc565b61038e565b90565b6106df90546106c1565b90565b60209181520190565b5f7f556e617574686f72697365640000000000000000000000000000000000000000910152565b61071f600c6020926106e2565b610728816106eb565b0190565b6107419060208101905f818303910152610712565b90565b1561074b57565b6107536100a2565b62461bcd60e51b8152806107696004820161072c565b0390fd5b9061079d9392916107983361079261078c6107875f6106d5565b6100bf565b916100bf565b14610744565b6109ad565b565b6107ab6107b0916106bc565b6104ce565b90565b6107bd905461079f565b90565b90565b6107d76107d26107dc926107c0565b610518565b6100b4565b90565b6107e8906107c3565b90565b5f7f417373657420646f6573206e6f74206578697374000000000000000000000000910152565b61081f60146020926106e2565b610828816107eb565b0190565b6108419060208101905f818303910152610812565b90565b1561084b57565b6108536100a2565b62461bcd60e51b8152806108696004820161082c565b0390fd5b6108769061051b565b90565b6108829061086d565b90565b61088e90610537565b90565b5f80fd5b60e01b90565b5f9103126108a557565b6100ac565b6108b3906101d9565b9052565b9160206108d89294936108d160408201965f83019061032d565b01906108aa565b565b6108e26100a2565b3d5f823e3d90fd5b60018060a01b031690565b610901610906916106bc565b6108ea565b90565b61091390546108f5565b90565b61091f90610537565b90565b60409061094b610952949695939661094160608401985f85019061032d565b602083019061032d565b01906108aa565b565b67ffffffffffffffff1690565b61097561097061097a926101d9565b610518565b610954565b90565b61098690610954565b9052565b9160206109ab9294936109a460408201965f83019061032d565b019061097d565b565b9192906109be6109c39160036104c2565b6107b3565b6109f06109cf82610543565b6109e96109e36109de5f6107df565b6100bf565b916100bf565b1415610844565b610a016109fc84610879565b610885565b635e7db13d610a1060016106d5565b8492803b15610bc057610a365f8094610a41610a2a6100a2565b97889687958694610895565b8452600484016108b7565b03925af18015610bbb57610b8f575b50610a62610a5d84610879565b610885565b63439e2e4590610a7a610a756002610909565b610916565b90610a8560016106d5565b9492813b15610b8a575f610aac91610ab78296610aa06100a2565b998a9788968795610895565b855260048501610922565b03925af1918215610b8557610ad192610b59575b50610543565b91610ae1637349da0a9291610961565b92803b15610b5457610b065f8094610b11610afa6100a2565b97889687958694610895565b84526004840161098a565b03925af18015610b4f57610b23575b50565b610b42905f3d8111610b48575b610b3a8183610114565b81019061089b565b5f610b20565b503d610b30565b6108da565b610891565b610b78905f3d8111610b7e575b610b708183610114565b81019061089b565b5f610acb565b503d610b66565b6108da565b610891565b610bae905f3d8111610bb4575b610ba68183610114565b81019061089b565b5f610a50565b503d610b9c565b6108da565b610891565b90610bd193929161076d565b565b90610c03939291610bfe33610bf8610bf2610bed5f6106d5565b6100bf565b916100bf565b14610744565b610c55565b565b90505190610c12826100cb565b565b90602082820312610c2d57610c2a915f01610c05565b90565b6100ac565b916020610c53929493610c4c60408201965f83019061097d565b019061032d565b565b9190610c65610c6a9160036104c2565b6107b3565b610c97610c7682610543565b610c90610c8a610c855f6107df565b6100bf565b916100bf565b1415610844565b610ca8610ca384610879565b610885565b90635e7db13d610cd26020610cbc84610543565b63fc0c546a90610cca6100a2565b938492610895565b82528180610ce26004820161025d565b03915afa908115610ec7575f91610e99575b508493803b15610e9457610d1b5f8094610d26610d0f6100a2565b98899687958694610895565b8452600484016108b7565b03925af1918215610e8f57610d4092610e63575b50610543565b90610d4f637276ecca91610961565b8392803b15610e5e57610d755f8094610d80610d696100a2565b97889687958694610895565b845260048401610c32565b03925af18015610e5957610e2d575b50610da2610d9d6002610909565b610916565b63439e2e459190610db360016106d5565b9392813b15610e28575f610dda91610de58296610dce6100a2565b98899788968795610895565b855260048501610922565b03925af18015610e2357610df7575b50565b610e16905f3d8111610e1c575b610e0e8183610114565b81019061089b565b5f610df4565b503d610e04565b6108da565b610891565b610e4c905f3d8111610e52575b610e448183610114565b81019061089b565b5f610d8f565b503d610e3a565b6108da565b610891565b610e82905f3d8111610e88575b610e7a8183610114565b81019061089b565b5f610d3a565b503d610e70565b6108da565b610891565b610eba915060203d8111610ec0575b610eb28183610114565b810190610c14565b5f610cf4565b503d610ea8565b6108da565b90610ed8939291610bd3565b565b5f90565b610efd610f06602093610f0b93610ef481610438565b938480936106e2565b95869101610441565b6100f6565b0190565b9091610f29610f379360408401908482035f860152610ede565b916020818403910152610ede565b90565b610f439061051b565b90565b610f4f90610f3a565b90565b5f1b90565b90610f6860018060a01b0391610f52565b9181191691161790565b610f7b90610f3a565b90565b90565b90610f96610f91610f9d92610f72565b610f7e565b8254610f57565b9055565b610faa90610537565b90565b610fb5610eda565b5034908290610fc26100a2565b9161333d83019083821067ffffffffffffffff831117611027578392610fef9261333d6111d38639610f0f565b0391f09081156110225761101a61101f929161101561100d84610f46565b9160036104c2565b610f81565b610fa1565b90565b6108da565b610100565b9061105a916110553361104f6110496110445f6106d5565b6100bf565b916100bf565b14610744565b61105c565b565b61106861106d91610879565b610885565b906328cafd729061107e60016106d5565b9092803b156110f2576110a45f80946110af6110986100a2565b97889687958694610895565b8452600484016108b7565b03925af180156110ed576110c1575b50565b6110e0905f3d81116110e6575b6110d88183610114565b81019061089b565b5f6110be565b503d6110ce565b6108da565b610891565b906111019161102c565b565b90611132929161112d3361112761112161111c5f6106d5565b6100bf565b916100bf565b14610744565b611134565b565b61114061114591610879565b610885565b916328cafd72919092803b156111c0576111725f809461117d6111666100a2565b97889687958694610895565b8452600484016108b7565b03925af180156111bb5761118f575b50565b6111ae905f3d81116111b4575b6111a68183610114565b81019061089b565b5f61118c565b503d61119c565b6108da565b610891565b906111d09291611103565b56fe608060405261001561000f610179565b9061019b565b61001d61002b565b611fc46113798239611fc490f35b60405190565b601f801991011690565b634e487b7160e01b5f52604160045260245ffd5b9061005990610031565b810190811060018060401b0382111761007157604052565b61003b565b9061008961008261002b565b928361004f565b565b5f80fd5b5f80fd5b5f80fd5b5f80fd5b60018060401b0381116100b7576100b3602091610031565b0190565b61003b565b90825f9392825e0152565b909291926100dc6100d78261009b565b610076565b938185526020850190828401116100f8576100f6926100bc565b565b610097565b9080601f8301121561011b57816020610118935191016100c7565b90565b610093565b919091604081840312610174575f81015160018060401b03811161016f578361014a9183016100fd565b92602082015160018060401b03811161016a5761016792016100fd565b90565b61008f565b61008f565b61008b565b61019761333d8038038061018c81610076565b928339810190610120565b9091565b906101a5916106f1565b565b90565b60018060a01b031690565b90565b6101cc6101c76101d1926101a7565b6101b5565b6101aa565b90565b6101dd906101b8565b90565b5f1b90565b906101f660018060a01b03916101e0565b9181191691161790565b61021461020f610219926101aa565b6101b5565b6101aa565b90565b61022590610200565b90565b6102319061021c565b90565b90565b9061024c61024761025392610228565b610234565b82546101e5565b9055565b610262610120610076565b90565b606090565b5f90565b5f90565b5f90565b606090565b6102856060610076565b90565b61029061027b565b90602080808461029e610272565b8152016102a961026a565b8152016102b4610272565b81525050565b6102c2610288565b90565b6102cd610257565b90602080808080808080808a6102e1610265565b8152016102ec610265565b8152016102f761026a565b815201610302610265565b81520161030d61026e565b815201610318610272565b81520161032361026e565b81520161032e610276565b8152016103396102ba565b81525050565b6103476102c5565b90565b6103539061021c565b90565b61035f906101aa565b90565b9061036c90610356565b9052565b610378610288565b90565b90565b60070b90565b61039861039361039d9261037b565b6101b5565b61037e565b90565b906103aa9061037e565b9052565b90565b90565b6103c86103c36103cd926103ae565b6101b5565b6103b1565b90565b60018060401b0381116103e65760208091020190565b61003b565b906103fd6103f8836103d0565b610076565b918252565b61040c6040610076565b90565b5f90565b61041d60a0610076565b90565b606090565b61042d610413565b906020808080808661043d61026e565b81520161044861026a565b815201610453610420565b81520161045e610420565b81520161046961026a565b81525050565b610477610425565b90565b610482610402565b906020808361048f61040f565b81520161049a61046f565b81525050565b6104a861047a565b90565b5f5b8281106104b957505050565b6020906104c46104a0565b81840152016104ad565b906104f36104db836103eb565b926020806104e986936103d0565b92019103906104ab565b565b634e487b7160e01b5f52603260045260245ffd5b5190565b9061051782610509565b811015610528576020809102010190565b6104f5565b90565b61054461053f6105499261052d565b6101b5565b6103b1565b90565b61056061055b610565926101a7565b6101b5565b6103b1565b90565b90565b61057f61057a61058492610568565b6101b5565b6103b1565b90565b90565b61059e6105996105a392610587565b6101b5565b6103b1565b90565b90565b6105bd6105b86105c2926105a6565b6101b5565b6103b1565b90565b90565b6105dc6105d76105e1926105c5565b6101b5565b6103b1565b90565b90565b6105fb6105f6610600926105e4565b6101b5565b6103b1565b90565b61061761061261061c9261052d565b6101b5565b61037e565b90565b90565b60030b90565b61063c6106376106419261061f565b6101b5565b610622565b90565b90565b61065b61065661066092610644565b6101b5565b610622565b90565b61066d6016610647565b90565b90565b61068761068261068c92610622565b6101b5565b610670565b90565b60209181520190565b5f7f4661696c656420746f2063726561746520746f6b656e00000000000000000000910152565b6106cc601660209261068f565b6106d581610698565b0190565b6106ee9060208101905f8183039101526106bf565b90565b610969916106fd610ad6565b61071161070a60016101d4565b6003610237565b61071961033f565b915f830152602082015261073861072f3061034a565b60408301610362565b610740610370565b61075561074c3061034a565b60208301610362565b61076d61076462786450610384565b604083016103a0565b61010082015261078561078060076103b4565b6104ce565b6107c261079d5f60016107973061034a565b91610bd7565b6107bc83915f906107b66107b083610530565b8561050d565b52610530565b9061050d565b51506108026107dc6001806107d63061034a565b91610bd7565b6107fc83916001906107f66107f08361054c565b8561050d565b5261054c565b9061050d565b515061084361081d600260016108173061034a565b91610bd7565b61083d83916002906108376108318361056b565b8561050d565b5261056b565b9061050d565b515061088461085e600360016108583061034a565b91610bd7565b61087e83916003906108786108728361058a565b8561050d565b5261058a565b9061050d565b51506108c561089f600460016108993061034a565b91610bd7565b6108bf83916004906108b96108b3836105a9565b8561050d565b526105a9565b9061050d565b51506109066108e0600560016108da3061034a565b91610bd7565b61090083916005906108fa6108f4836105c8565b8561050d565b526105c8565b9061050d565b51506109476109216006600161091b3061034a565b91610bd7565b610941839160069061093b610935836105e7565b8561050d565b526105e7565b9061050d565b515060e08201525f61096361095d600892610603565b91610628565b9161127d565b9061098361097d610978610663565b610673565b91610670565b0361099557610993906002610237565b565b61099d61002b565b62461bcd60e51b8152806109b3600482016106d9565b0390fd5b634e487b7160e01b5f52602160045260245ffd5b600711156109d557565b6109b7565b906109e4826109cb565b565b6109ef906109da565b90565b906109fc906109e6565b5f5260205260405f2090565b90610a145f19916101e0565b9181191691161790565b610a32610a2d610a37926103b1565b6101b5565b6103b1565b90565b90565b90610a52610a4d610a5992610a1e565b610a3a565b8254610a08565b9055565b610a71610a6c610a769261061f565b6101b5565b6103b1565b90565b90565b610a90610a8b610a9592610a79565b6101b5565b6103b1565b90565b90565b610aaf610aaa610ab492610a98565b6101b5565b6103b1565b90565b90565b610ace610ac9610ad392610ab7565b6101b5565b6103b1565b90565b610af4610ae3600161054c565b610aef60015f906109f2565b610a3d565b610b11610b01600261056b565b610b0c6001806109f2565b610a3d565b610b30610b1e60046105a9565b610b2b60016002906109f2565b610a3d565b610b4f610b3d6008610a5d565b610b4a60016003906109f2565b610a3d565b610b6e610b5c6010610a7c565b610b6960016004906109f2565b610a3d565b610b8d610b7b6020610a9b565b610b8860016005906109f2565b610a3d565b610bac610b9a6040610aba565b610ba760016006906109f2565b610a3d565b565b610bb661047a565b90565b610bc36040610076565b90565b90610bd0906103b1565b9052565b52565b610c149192610bf1610bf792610beb610bae565b506112ca565b9361130f565b610c0b610c02610bb9565b935f8501610bc6565b60208301610bd4565b90565b5f90565b5f90565b610c29905161037e565b90565b90565b610c43610c3e610c4892610c2c565b6101b5565b610622565b90565b610c576276a700610c2f565b90565b610c6e610c69610c7392610622565b6101b5565b61037e565b90565b90610cb39493929182610c8f5f61010083015101610c1f565b610ca1610c9b5f610603565b9161037e565b1480610cdf575b610cb7575b506111c8565b9091565b610cd9906040610100610cd0610ccb610c4b565b610c5a565b920151016103a0565b5f610cad565b50610cf1604061010083015101610c1f565b610d03610cfd5f610603565b9161037e565b14610ca8565b90565b610d20610d1b610d2592610d09565b6101b5565b6101aa565b90565b610d3190610d0c565b90565b610d3f610167610d28565b90565b5190565b60209181520190565b610d6e610d77602093610d7c93610d6581610d42565b93848093610d46565b958691016100bc565b610031565b0190565b610d8990610356565b9052565b151590565b610d9b90610d8d565b9052565b610da89061037e565b9052565b60209181520190565b60200190565b610dc4906103b1565b9052565b5190565b60209181520190565b610df4610dfd602093610e0293610deb81610dc8565b93848093610dcc565b958691016100bc565b610031565b0190565b90610e6990608080610e5e610e4c60a08501610e285f8901515f880190610d92565b610e3a60208901516020880190610d80565b60408801518682036040880152610dd5565b60608701518582036060870152610dd5565b940151910190610d80565b90565b610e979160206040820192610e875f8201515f850190610dbb565b0151906020818403910152610e06565b90565b90610ea491610e6c565b90565b60200190565b90610ec1610eba83610509565b8092610dac565b9081610ed260208302840194610db5565b925f915b838310610ee557505050505090565b90919293946020610f07610f0183856001950387528951610e9a565b97610ea7565b9301930191939290610ed6565b90604080610f4893610f2c5f8201515f860190610d9f565b610f3e60208201516020860190610d80565b0151910190610d9f565b565b90610ffd9061010080610ff2610faa610f86610f7461016087015f8a01518882035f8a0152610d4f565b60208901518782036020890152610d4f565b610f9860408901516040880190610d80565b60608801518682036060880152610d4f565b610fbc60808801516080870190610d92565b610fce60a088015160a0870190610d9f565b610fe060c088015160c0870190610d92565b60e087015185820360e0870152610ead565b940151910190610f14565b90565b6110099061037e565b9052565b61101690610622565b9052565b60409061104661103b61104d9597969460608401908482035f860152610f4a565b966020830190611000565b019061100d565b565b60018060401b03811161106b57611067602091610031565b0190565b61003b565b9061108261107d8361104f565b610076565b918252565b606090565b3d5f146110a75761109c3d611070565b903d5f602084013e5b565b6110af611087565b906110a5565b90565b6110cc6110c76110d1926110b5565b6101b5565b610622565b90565b6110de60156110b8565b90565b6110f56110f06110fa9261052d565b6101b5565b6101aa565b90565b611106906110e1565b90565b61111281610622565b0361111957565b5f80fd5b9050519061112a82611109565b565b611135906101aa565b90565b6111418161112c565b0361114857565b5f80fd5b9050519061115982611138565b565b91906040838203126111835780611177611180925f860161111d565b9360200161114c565b90565b61008b565b61119c6111976111a192610622565b6101b5565b610622565b90565b6111ad9061021c565b90565b6111bf6111c591939293611188565b926111a4565b90565b936112185f959360049387969550506112096111e2610d34565b953494630fb65bf360e01b939190916111f961002b565b978895602087019081520161101a565b6020820181038252038361004f565b602082019151925af161122961108c565b905f146112635761125661125061126092602061124582610dc8565b81830101910161115b565b906111b0565b9190915b91610673565b91565b5061126c6110d4565b6112606112785f6110fd565b61125a565b90611299929161128b610c17565b611293610c1b565b90610c76565b9091565b5f90565b5f1c90565b90565b6112b56112ba916112a1565b6112a6565b90565b6112c790546112a9565b90565b6112e16112e6916112d961129d565b5060016109f2565b6112bd565b90565b6112f1610425565b90565b600511156112fe57565b6109b7565b9061130d826112f4565b565b91906113196112e9565b928061132e6113286001611303565b91611303565b145f1461134657506113439060208401610362565b5b565b6113596113536004611303565b91611303565b14611365575b50611344565b6113729060808401610362565b5f61135f56fe60806040526004361015610013575b610653565b61001d5f356100ac565b806315dacbea146100a7578063618dc65e146100a25780637276ecca1461009d5780637349da0a1461009857806391b9b827146100935780639b23d3d91461008e5780639dbead4214610089578063fb9d09c8146100845763fc0c546a0361000e5761061e565b6105dc565b6105a9565b610552565b61051d565b610474565b610413565b61037a565b610192565b60e01c90565b60405190565b5f80fd5b5f80fd5b5f80fd5b60018060a01b031690565b6100d8906100c4565b90565b6100e4816100cf565b036100eb57565b5f80fd5b905035906100fc826100db565b565b90565b61010a816100fe565b0361011157565b5f80fd5b9050359061012282610101565b565b6080818303126101655761013a825f83016100ef565b9261016261014b84602085016100ef565b9361015981604086016100ef565b93606001610115565b90565b6100bc565b60070b90565b6101799061016a565b9052565b9190610190905f60208501940190610170565b565b346101c6576101c26101b16101a8366004610124565b929190916107b6565b6101b96100b2565b9182918261017d565b0390f35b6100b8565b5f80fd5b5f80fd5b601f801991011690565b634e487b7160e01b5f52604160045260245ffd5b906101fb906101d3565b810190811067ffffffffffffffff82111761021557604052565b6101dd565b9061022d6102266100b2565b92836101f1565b565b67ffffffffffffffff811161024d576102496020916101d3565b0190565b6101dd565b90825f939282370152565b9092919261027261026d8261022f565b61021a565b9381855260208501908284011161028e5761028c92610252565b565b6101cf565b9080601f830112156102b1578160206102ae9335910161025d565b90565b6101cb565b9190916040818403126102f6576102cf835f83016100ef565b92602082013567ffffffffffffffff81116102f1576102ee9201610293565b90565b6100c0565b6100bc565b90565b610307906102fb565b9052565b5190565b60209181520190565b90825f9392825e0152565b61034261034b602093610350936103398161030b565b9384809361030f565b95869101610318565b6101d3565b0190565b916103779261036a60408201935f8301906102fe565b6020818403910152610323565b90565b346103ac5761039361038d3660046102b6565b9061098d565b906103a861039f6100b2565b92839283610354565b0390f35b6100b8565b67ffffffffffffffff1690565b6103c7816103b1565b036103ce57565b5f80fd5b905035906103df826103be565b565b919060408382031261040957806103fd610406925f86016103d2565b936020016100ef565b90565b6100bc565b5f0190565b346104425761042c6104263660046103e1565b90610c51565b6104346100b2565b8061043e8161040e565b0390f35b6100b8565b919060408382031261046f578061046361046c925f86016100ef565b936020016103d2565b90565b6100bc565b346104a35761048d610487366004610447565b9061167c565b6104956100b2565b8061049f8161040e565b0390f35b6100b8565b5f9103126104b257565b6100bc565b1c90565b60018060a01b031690565b6104d69060086104db93026104b7565b6104bb565b90565b906104e991546104c6565b90565b6104f860035f906104de565b90565b610504906100cf565b9052565b919061051b905f602085019401906104fb565b565b3461054d5761052d3660046104a8565b6105496105386104ec565b6105406100b2565b91829182610508565b0390f35b6100b8565b3461058657610582610571610568366004610124565b92919091611688565b6105796100b2565b9182918261017d565b0390f35b6100b8565b906020828203126105a4576105a1915f016103d2565b90565b6100bc565b346105d7576105c16105bc36600461058b565b611887565b6105c96100b2565b806105d38161040e565b0390f35b6100b8565b3461060a576105f46105ef36600461058b565b611a10565b6105fc6100b2565b806106068161040e565b0390f35b6100b8565b61061b60025f906104de565b90565b3461064e5761062e3660046104a8565b61064a61063961060f565b6106416100b2565b91829182610508565b0390f35b6100b8565b5f80fd5b5f90565b90565b90565b61067561067061067a9261065b565b61065e565b6100c4565b90565b61068690610661565b90565b61069461016761067d565b90565b6106a0906100fe565b9052565b6106d96106e0946106cf6060949897956106c5608086019a5f8701906104fb565b60208501906104fb565b60408301906104fb565b0190610697565b565b906106f46106ef8361022f565b61021a565b918252565b606090565b3d5f146107195761070e3d6106e2565b903d5f602084013e5b565b6107216106f9565b90610717565b90565b60030b90565b61074461073f61074992610727565b61065e565b61072a565b90565b6107566015610730565b90565b6107628161072a565b0361076957565b5f80fd5b9050519061077a82610759565b565b9060208282031261079557610792915f0161076d565b90565b6100bc565b6107ae6107a96107b39261072a565b61065e565b61016a565b90565b61080b6004916107fc5f96948796956107cd610657565b506107d6610689565b96630aed65f560e11b94929091926107ec6100b2565b97889660208801908152016106a4565b602082018103825203826101f1565b82602082019151925af161081d6106fe565b905f1461084a576108416108479160206108368261030b565b81830101910161077c565b5b61079a565b90565b5061084761085661074c565b610842565b5f90565b916108829261087560408201935f8301906104fb565b6020818403910152610323565b90565b151590565b61089390610885565b9052565b916108ba926108ad60408201935f83019061088a565b6020818403910152610323565b90565b67ffffffffffffffff81116108db576108d76020916101d3565b0190565b6101dd565b906108f26108ed836108bd565b61021a565b918252565b6109005f6108e0565b90565b61090b6108f7565b90565b61092261091d6109279261072a565b61065e565b61072a565b90565b90565b61093c6109429193929361090e565b9261092a565b90565b90565b61095c61095761096192610945565b61065e565b61072a565b90565b61096e6016610948565b90565b61098561098061098a9261072a565b61065e565b6102fb565b90565b5f9160046109e4849361099e61085b565b506109a76106f9565b506109d56109b3610689565b946330c6e32f60e11b926109c56100b2565b958694602086019081520161085f565b602082018103825203826101f1565b82602082019151925af16109f66106fe565b9080827f4af4780e06fe8cb9df64b0794fa6f01399af979175bb988e35e0e57e594567bc91610a2f610a266100b2565b92839283610897565b0390a15f14610a4e57610a4b610a43610964565b915b91610971565b91565b50610a4b610a6b610a5d61074c565b610a65610903565b9061092d565b919091610a45565b5f1c90565b610a84610a8991610a73565b6104bb565b90565b610a969054610a78565b90565b60209181520190565b5f7f556e617574686f72697365640000000000000000000000000000000000000000910152565b610ad6600c602092610a99565b610adf81610aa2565b0190565b610af89060208101905f818303910152610ac9565b90565b15610b0257565b610b0a6100b2565b62461bcd60e51b815280610b2060048201610ae3565b0390fd5b90610b5391610b4e33610b48610b42610b3d6003610a8c565b6100cf565b916100cf565b14610afb565b610bf0565b565b610b69610b64610b6e926103b1565b61065e565b61016a565b90565b60207f657273206163636f756e74000000000000000000000000000000000000000000917f4661696c656420746f20776970652061737365742066726f6d207468652075735f8201520152565b610bcb602b604092610a99565b610bd481610b71565b0190565b610bed9060208101905f818303910152610bbe565b90565b90610c0f91610c09610c026002610a8c565b9291610b55565b91611a4d565b610c28610c22610c1d610964565b610971565b916102fb565b03610c2f57565b610c376100b2565b62461bcd60e51b815280610c4d60048201610bd8565b0390fd5b90610c5b91610b24565b565b90610c8c91610c8733610c81610c7b610c766003610a8c565b6100cf565b916100cf565b14610afb565b6113c7565b565b610ca2610c9d610ca7926100c4565b61065e565b6100c4565b90565b610cb390610c8e565b90565b610cbf90610caa565b90565b610ccb90610c8e565b90565b610cd790610cc2565b90565b60e01b90565b610ce981610885565b03610cf057565b5f80fd5b90505190610d0182610ce0565b565b90602082820312610d1c57610d19915f01610cf4565b90565b6100bc565b610d296100b2565b3d5f823e3d90fd5b5f7f546f6b656e206973206e6f74206173736f636961746564000000000000000000910152565b610d656017602092610a99565b610d6e81610d31565b0190565b610d879060208101905f818303910152610d58565b90565b610d94606061021a565b90565b5f90565b5f90565b5f90565b610dab610d8a565b906020808084610db9610d97565b815201610dc4610d9b565b815201610dcf610d9f565b81525050565b610ddd610da3565b90565b90610dea906100cf565b9052565b90610df89061016a565b9052565b610e0590610cc2565b90565b634e487b7160e01b5f52601160045260245ffd5b610e259061016a565b677fffffffffffffff198114610e3a575f0390565b610e08565b610e49606061021a565b90565b606090565b606090565b610e5e610e3f565b906020808084610e6c610d97565b815201610e77610e4c565b815201610e82610e51565b81525050565b610e90610e56565b90565b90565b610eaa610ea5610eaf92610e93565b61065e565b6100fe565b90565b67ffffffffffffffff8111610eca5760208091020190565b6101dd565b90610ee1610edc83610eb2565b61021a565b918252565b610eee610da3565b90565b5f5b828110610eff57505050565b602090610f0a610ee6565b8184015201610ef3565b90610f39610f2183610ecf565b92602080610f2f8693610eb2565b9201910390610ef1565b565b634e487b7160e01b5f52603260045260245ffd5b5190565b90610f5d82610f4f565b811015610f6e576020809102010190565b610f3b565b90565b610f8a610f85610f8f92610f73565b61065e565b6100fe565b90565b90565b610fa9610fa4610fae92610f92565b61065e565b6100fe565b90565b67ffffffffffffffff8111610fc95760208091020190565b6101dd565b90610fe0610fdb83610fb1565b61021a565b918252565b610fed610e56565b90565b5f5b828110610ffe57505050565b602090611009610fe5565b8184015201610ff2565b9061103861102083610fce565b9260208061102e8693610fb1565b9201910390610ff0565b565b5190565b906110488261103a565b811015611059576020809102010190565b610f3b565b61106790610c8e565b90565b6110739061105e565b90565b61108961108461016761067d565b61106a565b90565b61109590610cc2565b90565b6110a18161016a565b036110a857565b5f80fd5b905051906110b982611098565b565b906020828203126110d4576110d1915f016110ac565b90565b6100bc565b60209181520190565b60200190565b6110f1906100cf565b9052565b60209181520190565b60200190565b61110d9061016a565b9052565b61111a90610885565b9052565b90604080611152936111365f8201515f8601906110e8565b61114860208201516020860190611104565b0151910190611111565b565b906111618160609361111e565b0190565b60200190565b9061118861118261117b84610f4f565b80936110f5565b926110fe565b905f5b8181106111985750505090565b9091926111b16111ab6001928651611154565b94611165565b910191909161118b565b5190565b60209181520190565b60200190565b90606080611214936111e65f8201515f8601906110e8565b6111f8602082015160208601906110e8565b61120a60408201516040860190611104565b0151910190611111565b565b90611223816080936111ce565b0190565b60200190565b9061124a61124461123d846111bb565b80936111bf565b926111c8565b905f5b81811061125a5750505090565b90919261127361126d6001928651611216565b94611227565b910191909161124d565b6112bd9160406112ac6060830161129a5f8601515f8601906110e8565b6020850151848203602086015261116b565b92015190604081840391015261122d565b90565b906112ca9161127d565b90565b60200190565b906112e76112e08361103a565b80926110d9565b90816112f8602083028401946110e2565b925f915b83831061130b57505050505090565b9091929394602061132d611327838560019503875289516112c0565b976112cd565b93019301919392906112fc565b61134f9160208201915f8184039101526112d3565b90565b61136661136161136b9261016a565b61065e565b6102fb565b90565b5f7f4661696c656420746f2061697264726f7020746f6b656e730000000000000000910152565b6113a26018602092610a99565b6113ab8161136e565b0190565b6113c49060208101905f818303910152611395565b90565b6113fc60206113e66113e16113dc6002610a8c565b610cb6565b610cce565b634d8fdd6d906113f46100b2565b938492610cda565b8252818061140c6004820161040e565b03915afa801561167757611428915f91611649575b5015610885565b611627576115979161152060209261144a611441610dd5565b915f8301610de0565b61145e61145684610b55565b858301610dee565b61149661148e61148961146f610dd5565b9561148461147c30610dfc565b5f8901610de0565b610b55565b610e1c565b858501610dee565b6114f56114a1610e88565b936114b76114af6002610a8c565b5f8701610de0565b6114c96114c46002610e96565b610f14565b868601526114ef86860151915f906114e96114e383610f76565b85610f53565b52610f76565b90610f53565b515061151a848401519160019061151461150e83610f95565b85610f53565b52610f95565b90610f53565b515061155d6115376115326001610f95565b611013565b9161155783915f9061155161154b83610f76565b8561103e565b52610f76565b9061103e565b515061156f61156a611076565b61108c565b61158c5f632f3481196115806100b2565b96879586948593610cda565b83526004830161133a565b03925af18015611622576115b2915f916115f4575b50611352565b6115cb6115c56115c0610964565b610971565b916102fb565b036115d257565b6115da6100b2565b62461bcd60e51b8152806115f0600482016113af565b0390fd5b611615915060203d811161161b575b61160d81836101f1565b8101906110bb565b5f6115ac565b503d611603565b610d21565b61162f6100b2565b62461bcd60e51b81528061164560048201610d72565b0390fd5b61166a915060203d8111611670575b61166281836101f1565b810190610d03565b5f611421565b503d611658565b610d21565b9061168691610c5d565b565b6116dd6004916116ce5f969487969561169f610657565b506116a8610689565b96639b23d3d960e01b94929091926116be6100b2565b97889660208801908152016106a4565b602082018103825203826101f1565b82602082019151925af16116ef6106fe565b905f1461171c576117136117199160206117088261030b565b81830101910161077c565b5b61079a565b90565b5061171961172861074c565b611714565b61175b906117563361175061174a6117456003610a8c565b6100cf565b916100cf565b14610afb565b611816565b565b67ffffffffffffffff81116117755760208091020190565b6101dd565b9061178c6117878361175d565b61021a565b918252565b369037565b906117bb6117a38361177a565b926020806117b1869361175d565b9201910390611791565b565b5f7f4661696c656420746f206275726e206173736574000000000000000000000000910152565b6117f16014602092610a99565b6117fa816117bd565b0190565b6118139060208101905f8183039101526117e4565b90565b6118449061182d6118276002610a8c565b91610b55565b61183e6118395f610f76565b611796565b91611be6565b5061185e611858611853610964565b610971565b916102fb565b0361186557565b61186d6100b2565b62461bcd60e51b815280611883600482016117fe565b0390fd5b6118909061172d565b565b6118c0906118bb336118b56118af6118aa6003610a8c565b6100cf565b916100cf565b14610afb565b61199e565b565b67ffffffffffffffff81116118da5760208091020190565b6101dd565b906118f16118ec836118c2565b61021a565b918252565b606090565b5f5b82811061190957505050565b6020906119146118f6565b81840152016118fd565b9061194361192b836118df565b9260208061193986936118c2565b92019103906118fb565b565b5f7f4661696c656420746f206d696e74206173736574000000000000000000000000910152565b6119796014602092610a99565b61198281611945565b0190565b61199b9060208101905f81830391015261196c565b90565b6119cc906119b56119af6002610a8c565b91610b55565b6119c66119c15f610f76565b61191e565b91611ead565b50506119e76119e16119dc610964565b610971565b916102fb565b036119ee57565b6119f66100b2565b62461bcd60e51b815280611a0c60048201611986565b0390fd5b611a1990611892565b565b604090611a44611a4b9496959396611a3a60608401985f8501906104fb565b60208301906104fb565b0190610170565b565b916004611a9f5f94611a908695611a6261085b565b50611a6b610689565b9563efef57f960e01b93919091611a806100b2565b9687956020870190815201611a1b565b602082018103825203826101f1565b82602082019151925af1611ab16106fe565b905f14611ade57611ad5611adb916020611aca8261030b565b81830101910161077c565b5b610971565b90565b50611adb611aea61074c565b611ad6565b5190565b60209181520190565b60200190565b90611b0f81602093611104565b0190565b60200190565b90611b36611b30611b2984611aef565b8093611af3565b92611afc565b905f5b818110611b465750505090565b909192611b5f611b596001928651611b02565b94611b13565b9101919091611b39565b611b8d611b9a949293611b8360608401955f8501906104fb565b6020830190610170565b6040818403910152611b19565b90565b611bb1611bac611bb692610f73565b61065e565b61016a565b90565b9190604083820312611be15780611bd5611bde925f860161076d565b936020016110ac565b90565b6100bc565b916004611c415f94611c328695611bfb61085b565b50611c04610657565b50611c0d610689565b95636b48868360e11b93919091611c226100b2565b9687956020870190815201611b69565b602082018103825203826101f1565b82602082019151925af1611c536106fe565b905f14611c8457611c77611c81916020611c6c8261030b565b818301019101611bb9565b9190915b91610971565b91565b50611c8d61074c565b611c81611c995f611b9d565b611c7b565b606090565b5190565b60209181520190565b60200190565b60209181520190565b611cde611ce7602093611cec93611cd58161030b565b93848093611cb6565b95869101610318565b6101d3565b0190565b90611cfa91611cbf565b90565b60200190565b90611d17611d1083611ca3565b8092611ca7565b9081611d2860208302840194611cb0565b925f915b838310611d3b57505050505090565b90919293946020611d5d611d5783856001950387528951611cf0565b97611cfd565b9301930191939290611d2c565b611d8e611d9b949293611d8460608401955f8501906104fb565b6020830190610170565b6040818403910152611d03565b90565b611db2611dad611db79261016a565b61065e565b61016a565b90565b90565b611dd5611dcf611ddb9295939561090e565b94611d9e565b92611dba565b90565b5f80fd5b90929192611df7611df28261175d565b61021a565b9381855260208086019202830192818411611e3457915b838310611e1b5750505050565b60208091611e2984866110ac565b815201920191611e0e565b611dde565b9080601f83011215611e5757816020611e5493519101611de2565b90565b6101cb565b91606083830312611ea857611e73825f850161076d565b92611e8183602083016110ac565b92604082015167ffffffffffffffff8111611ea357611ea09201611e39565b90565b6100c0565b6100bc565b916004611f115f94611f028695611ec261085b565b50611ecb610657565b50611ed4611c9e565b50611edd610689565b9563707a02cd60e11b93919091611ef26100b2565b9687956020870190815201611d6a565b602082018103825203826101f1565b82602082019151925af1611f236106fe565b905f14611f5657611f47611f53916020611f3c8261030b565b818301019101611e5c565b919290915b9192610971565b92565b50611f53611f85611f6561074c565b611f6e5f611b9d565b611f7f611f7a5f610f76565b611796565b91611dbd565b92909192611f4c56fea26469706673582212208a3bbdf4adc83ef89825e71cf1b109823699c251dbb0fae56927f6026b23f1b664736f6c634300081e0033a264697066735822122064249829f440d8b0c8cda5d161d694ed477f51b764bd373bc0c66af8caa5065264736f6c634300081e003360806040523461002f57610019610014610160565b61053b565b610021610034565b611a626105528239611a6290f35b61003a565b60405190565b5f80fd5b601f801991011690565b634e487b7160e01b5f52604160045260245ffd5b906100669061003e565b810190811060018060401b0382111761007e57604052565b610048565b9061009661008f610034565b928361005c565b565b5f80fd5b5f80fd5b5f80fd5b5f80fd5b60018060401b0381116100c4576100c060209161003e565b0190565b610048565b90825f9392825e0152565b909291926100e96100e4826100a8565b610083565b9381855260208501908284011161010557610103926100c9565b565b6100a4565b9080601f8301121561012857816020610125935191016100d4565b90565b6100a0565b9060208282031261015b575f82015160018060401b03811161015657610153920161010a565b90565b61009c565b610098565b61017e611fb48038038061017381610083565b92833981019061012d565b90565b5f1b90565b9061019260ff91610181565b9181191691161790565b151590565b6101aa9061019c565b90565b90565b906101c56101c06101cc926101a1565b6101ad565b8254610186565b9055565b90565b60018060a01b031690565b90565b6101f56101f06101fa926101d0565b6101de565b6101d3565b90565b610206906101e1565b90565b61021360016101fd565b90565b61021f906101d3565b90565b60209181520190565b5f7f4f7065726174696f6e206e6f7420617574686f72697365640000000000000000910152565b61025f6018602092610222565b6102688161022b565b0190565b6102819060208101905f818303910152610252565b90565b1561028b57565b610293610034565b62461bcd60e51b8152806102a96004820161026c565b0390fd5b6102d9906102d4336102ce6102c86102c3610209565b610216565b91610216565b14610284565b61052f565b565b5190565b634e487b7160e01b5f52602260045260245ffd5b9060016002830492168015610313575b602083101461030e57565b6102df565b91607f1691610303565b5f5260205f2090565b601f602091010490565b1b90565b9190600861034f9102916103495f1984610330565b92610330565b9181191691161790565b90565b61037061036b61037592610359565b6101de565b610359565b90565b90565b919061039161038c6103999361035c565b610378565b908354610334565b9055565b5f90565b6103b3916103ad61039d565b9161037b565b565b5b8181106103c1575050565b806103ce5f6001936103a1565b016103b6565b9190601f81116103e4575b505050565b6103f06104159361031d565b9060206103fc84610326565b8301931061041d575b61040e90610326565b01906103b5565b5f80806103df565b915061040e81929050610405565b1c90565b9061043f905f199060080261042b565b191690565b8161044e9161042f565b906002021790565b90610460816102db565b9060018060401b03821161051e576104828261047c85546102f3565b856103d4565b602090601f83116001146104b6579180916104a5935f926104aa575b5050610444565b90555b565b90915001515f8061049e565b601f198316916104c58561031d565b925f5b818110610506575091600293918560019694106104ec575b505050020190556104a8565b6104fc910151601f84169061042f565b90555f80806104e0565b919360206001819287870151815501950192016104c8565b610048565b9061052d91610456565b565b610539905f610523565b565b61054f9061054a5f60016101b0565b6102ad565b56fe6080604052600436101561001d575b366108de5761001b611916565b005b6100275f35610146565b806328cafd721461014157806331b3203a1461013c57806342c8afad14610137578063431d8ffe14610132578063439e2e451461012d57806344eb5e00146101285780634743c2fd1461012357806347e7ef241461011e57806352226ef01461011957806352696601146101145780635e7db13d1461010f57806369328dec1461010a5780638e543a121461010557806391b9b82714610100578063a7efe348146100fb578063b2567d1f146100f6578063dce83ae3146100f15763e9ea28de0361000e576108a9565b610816565b6107c2565b610749565b610714565b61066a565b610636565b6105c8565b610592565b61053b565b610511565b6104dc565b610488565b610454565b6103e4565b6102ad565b610276565b6101ec565b60e01c90565b60405190565b5f80fd5b5f80fd5b60018060a01b031690565b61016e9061015a565b90565b61017a81610165565b0361018157565b5f80fd5b9050359061019282610171565b565b90565b6101a081610194565b036101a757565b5f80fd5b905035906101b882610197565b565b91906040838203126101e257806101d66101df925f8601610185565b936020016101ab565b90565b610156565b5f0190565b3461021b576102056101ff3660046101ba565b90610b40565b61020d61014c565b80610217816101e7565b0390f35b610152565b919060a08382031261027157610238815f8501610185565b926102468260208301610185565b9261026e61025784604085016101ab565b9361026581606086016101ab565b936080016101ab565b90565b610156565b346102a857610292610289366004610220565b93929092610c0b565b61029a61014c565b806102a4816101e7565b0390f35b610152565b346102df576102c96102c0366004610220565b93929092610de3565b6102d161014c565b806102db816101e7565b0390f35b610152565b919060408382031261030c5780610300610309925f8601610185565b93602001610185565b90565b610156565b90565b61032861032361032d9261015a565b610311565b61015a565b90565b61033990610314565b90565b61034590610330565b90565b906103529061033c565b5f5260205260405f2090565b906103689061033c565b5f5260205260405f2090565b1c90565b90565b61038b9060086103909302610374565b610378565b90565b9061039e915461037b565b90565b6103ba6103bf926103b56005935f94610348565b61035e565b610393565b90565b6103cb90610194565b9052565b91906103e2905f602085019401906103c2565b565b34610415576104116104006103fa3660046102e4565b906103a1565b61040861014c565b918291826103cf565b0390f35b610152565b909160608284031261044f5761044c610435845f8501610185565b936104438160208601610185565b936040016101ab565b90565b610156565b346104835761046d61046736600461041a565b916111e4565b61047561014c565b8061047f816101e7565b0390f35b610152565b346104b9576104b56104a461049e3660046102e4565b906111f5565b6104ac61014c565b918291826103cf565b0390f35b610152565b906020828203126104d7576104d4915f01610185565b90565b610156565b3461050c576105086104f76104f23660046104be565b61126e565b6104ff61014c565b918291826103cf565b0390f35b610152565b61052561051f3660046101ba565b9061140e565b61052d61014c565b80610537816101e7565b0390f35b3461056c576105686105576105513660046102e4565b90611531565b61055f61014c565b918291826103cf565b0390f35b610152565b61058a61058f926105856003935f94610348565b61035e565b610393565b90565b346105c3576105bf6105ae6105a83660046102e4565b90610571565b6105b661014c565b918291826103cf565b0390f35b610152565b346105f7576105e16105db3660046101ba565b90611659565b6105e961014c565b806105f3816101e7565b0390f35b610152565b90916060828403126106315761062e610617845f8501610185565b9361062581602086016101ab565b93604001610185565b90565b610156565b346106655761064f6106493660046105fc565b916116a4565b61065761014c565b80610661816101e7565b0390f35b610152565b3461069b576106976106866106803660046102e4565b906116b1565b61068e61014c565b918291826103cf565b0390f35b610152565b5f9103126106aa57565b610156565b90565b6106c66106c16106cb926106af565b610311565b61015a565b90565b6106d7906106b2565b90565b6106e460016106ce565b90565b6106ef6106da565b90565b6106fb90610165565b9052565b9190610712905f602085019401906106f2565b565b34610744576107243660046106a0565b61074061072f6106e7565b61073761014c565b918291826106ff565b0390f35b610152565b346107775761076161075c3660046104be565b61185d565b61076961014c565b80610773816101e7565b0390f35b610152565b151590565b61078a8161077c565b0361079157565b5f80fd5b905035906107a282610781565b565b906020828203126107bd576107ba915f01610795565b90565b610156565b346107f0576107da6107d53660046107a4565b6118e8565b6107e261014c565b806107ec816101e7565b0390f35b610152565b61080e610813926108096004935f94610348565b61035e565b610393565b90565b346108475761084361083261082c3660046102e4565b906107f5565b61083a61014c565b918291826103cf565b0390f35b610152565b60ff1690565b6108629060086108679302610374565b61084c565b90565b906108759154610852565b90565b61088460015f9061086a565b90565b6108909061077c565b9052565b91906108a7905f60208501940190610887565b565b346108d9576108b93660046106a0565b6108d56108c4610878565b6108cc61014c565b91829182610894565b0390f35b610152565b5f80fd5b60209181520190565b5f7f4f7065726174696f6e206e6f7420617574686f72697365640000000000000000910152565b61091f60186020926108e2565b610928816108eb565b0190565b6109419060208101905f818303910152610912565b90565b1561094b57565b61095361014c565b62461bcd60e51b8152806109696004820161092c565b0390fd5b9061099a916109953361098f6109896109846106da565b610165565b91610165565b14610944565b610ad4565b565b60207f206c6f636b000000000000000000000000000000000000000000000000000000917f496e73756666696369656e7420756e6c6f636b65642062616c616e636520746f5f8201520152565b6109f660256040926108e2565b6109ff8161099c565b0190565b610a189060208101905f8183039101526109e9565b90565b5f1c90565b610a2c610a3191610a1b565b610378565b90565b610a3e9054610a20565b90565b634e487b7160e01b5f52601160045260245ffd5b610a64610a6a91939293610194565b92610194565b8201809211610a7557565b610a41565b5f1b90565b90610a8b5f1991610a7a565b9181191691161790565b610aa9610aa4610aae92610194565b610311565b610194565b90565b90565b90610ac9610ac4610ad092610a95565b610ab1565b8254610a7f565b9055565b610add8161126e565b610af0610aea8492610194565b91610194565b11610b1e57610b16610b07610b1c9392600261035e565b91610b1183610a34565b610a55565b90610ab4565b565b610b2661014c565b62461bcd60e51b815280610b3c60048201610a03565b0390fd5b90610b4a9161096d565b565b90610b7c94939291610b7733610b71610b6b610b666106da565b610165565b91610165565b14610944565b610b7e565b565b610bff610bf8610c0996610bbe610c049596610bb8610ba9610ba260038990610348565b8a9061035e565b91610bb383610a34565b610a55565b90610ab4565b610bf087610bea610bdb610bd460048990610348565b8a9061035e565b91610be583610a34565b610a55565b90610ab4565b926005610348565b849061035e565b610ab4565b610b40565b565b90610c1894939291610b4c565b565b90610c4a94939291610c4533610c3f610c39610c346106da565b610165565b91610165565b14610944565b610d12565b565b5f7f4e6f206c6f616e7320746f207265706179000000000000000000000000000000910152565b610c8060116020926108e2565b610c8981610c4c565b0190565b610ca29060208101905f818303910152610c73565b90565b15610cac57565b610cb461014c565b62461bcd60e51b815280610cca60048201610c8d565b0390fd5b610cdd610ce391939293610194565b92610194565b8203918211610cee57565b610a41565b90565b610d0a610d05610d0f92610cf3565b610311565b610194565b90565b610de19450610d87610ddc9293610d59610d40610d3b610d3460038790610348565b889061035e565b610a34565b610d52610d4c84610194565b91610194565b1015610ca5565b610d81610d72610d6b60038690610348565b879061035e565b91610d7c83610a34565b610cce565b90610ab4565b610db984610db3610da4610d9d60048690610348565b879061035e565b91610dae83610a34565b610cce565b90610ab4565b610dd7610dd0610dc85f610cf6565b926005610348565b849061035e565b610ab4565b611659565b565b90610df094939291610c1a565b565b90610e209291610e1b33610e15610e0f610e0a6106da565b610165565b91610165565b14610944565b6110ba565b565b60207f7472616e73666572000000000000000000000000000000000000000000000000917f696e73756666696369656e742061737365747320746f20636f6d706c657465205f8201520152565b610e7c60286040926108e2565b610e8581610e22565b0190565b610e9e9060208101905f818303910152610e6f565b90565b90565b610eb8610eb3610ebd92610ea1565b610311565b61015a565b90565b610ec990610ea4565b90565b610ed590610314565b90565b610ee190610ecc565b90565b610ef7610ef2610167610ec0565b610ed8565b90565b610f0390610330565b90565b610f0f90610330565b90565b601f801991011690565b634e487b7160e01b5f52604160045260245ffd5b90610f3a90610f12565b810190811067ffffffffffffffff821117610f5457604052565b610f1c565b60e01b90565b60070b90565b610f6e81610f5f565b03610f7557565b5f80fd5b90505190610f8682610f65565b565b90602082820312610fa157610f9e915f01610f79565b90565b610156565b610fdb610fe294610fd1606094989795610fc7608086019a5f8701906106f2565b60208501906106f2565b60408301906106f2565b01906103c2565b565b610fec61014c565b3d5f823e3d90fd5b90565b61100b61100661101092610f5f565b610311565b610ff4565b90565b90565b60030b90565b61103061102b61103592611013565b610311565b611016565b90565b611042601661101c565b90565b61105961105461105e92611016565b610311565b610ff4565b90565b5f7f4661696c656420746f207472616e736665722061737365747300000000000000910152565b61109560196020926108e2565b61109e81611061565b0190565b6110b79060208101905f818303910152611088565b90565b916110c6818390611953565b6110cf8261126e565b6110e26110dc8392610194565b91610194565b116111c2576020916111275f6110fe6110f9610ee4565b610efa565b926111326315dacbea919561111230610f06565b9861111b61014c565b998a9889978896610f59565b865260048601610fa6565b03925af180156111bd5761114d915f9161118f575b50610ff7565b61116661116061115b611038565b611045565b91610ff4565b0361116d57565b61117561014c565b62461bcd60e51b81528061118b600482016110a2565b0390fd5b6111b0915060203d81116111b6575b6111a88183610f30565b810190610f88565b5f611147565b503d61119e565b610fe4565b6111ca61014c565b62461bcd60e51b8152806111e060048201610e89565b0390fd5b906111ef9291610df2565b565b5f90565b61121a91611210611215926112086111f1565b506005610348565b61035e565b610a34565b90565b61122690610314565b90565b6112329061121d565b90565b61123e90610330565b90565b9050519061124e82610197565b565b9060208282031261126957611266915f01611241565b90565b610156565b6112766111f1565b506112d360206112a161129c6112966112916002879061035e565b610a34565b94611229565b611235565b6370a08231906112c86112b330610f06565b926112bc61014c565b95869485938493610f59565b8352600483016106ff565b03915afa908115611347575f91611319575b5090806112fa6112f484610194565b91610194565b1161130b5761130891610cce565b90565b50506113165f610cf6565b90565b61133a915060203d8111611340575b6113328183610f30565b810190611250565b5f6112e5565b503d611328565b610fe4565b60409061137561137c949695939661136b60608401985f8501906106f2565b60208301906106f2565b01906103c2565b565b67ffffffffffffffff1690565b61139f61139a6113a492610194565b610311565b61137e565b90565b6113bb6113b66113c09261137e565b610311565b610f5f565b90565b6113cc90610f5f565b9052565b61140561140c946113fb6060949897956113f1608086019a5f8701906106f2565b60208501906106f2565b60408301906106f2565b01906113c3565b565b61141e611419610ee4565b610efa565b90602063e1f21c679282906114475f33966114528961143b61014c565b998a9788968795610f59565b85526004850161134c565b03925af191821561152c57602092611501575b50611476611471610ee4565b610efa565b6114b35f63eca369176114be339761149e61149961149330610f06565b9261138b565b6113a7565b906114a761014c565b998a9889978896610f59565b8652600486016113d0565b03925af180156114fc576114d0575b50565b6114f09060203d81116114f5575b6114e88183610f30565b810190610f88565b6114cd565b503d6114de565b610fe4565b61152090833d8111611525575b6115188183610f30565b810190610f88565b611465565b503d61150e565b610fe4565b6115569161154c611551926115446111f1565b506004610348565b61035e565b610a34565b90565b90611586916115813361157b6115756115706106da565b610165565b91610165565b14610944565b61160a565b565b5f7f43616e6e6f7420756e6c6f636b206d6f7265207468616e206c6f636b65640000910152565b6115bc601e6020926108e2565b6115c581611588565b0190565b6115de9060208101905f8183039101526115af565b90565b156115e857565b6115f061014c565b62461bcd60e51b815280611606600482016115c9565b0390fd5b61165261164a611657936116286116236002869061035e565b610a34565b6116458261163e61163884610194565b91610194565b11156115e1565b610cce565b91600261035e565b610ab4565b565b9061166391611559565b565b90611693929161168e3361168861168261167d6106da565b610165565b91610165565b14610944565b611695565b565b906116a2929190916111e4565b565b906116af9291611665565b565b6116d6916116cc6116d1926116c46111f1565b506003610348565b61035e565b610a34565b90565b61170590611700336116fa6116f46116ef6106da565b610165565b91610165565b14610944565b611783565b565b91602061172892949361172160408201965f8301906106f2565b01906106f2565b565b5f7f4661696c656420746f206173736f636961746520746f6b656e00000000000000910152565b61175e60196020926108e2565b6117678161172a565b0190565b6117809060208101905f818303910152611751565b90565b6020611795611790610ee4565b610efa565b916349146bde926117c25f6117a930610f06565b93956117cd6117b661014c565b97889687958694610f59565b845260048401611707565b03925af18015611858576117e8915f9161182a575b50610ff7565b6118016117fb6117f6611038565b611045565b91610ff4565b0361180857565b61181061014c565b62461bcd60e51b8152806118266004820161176b565b0390fd5b61184b915060203d8111611851575b6118438183610f30565b810190610f88565b5f6117e2565b503d611839565b610fe4565b611866906116d9565b565b6118949061188f3361188961188361187e6106da565b610165565b91610165565b14610944565b6118db565b565b906118a260ff91610a7a565b9181191691161790565b6118b59061077c565b90565b90565b906118d06118cb6118d7926118ac565b6118b8565b8254611896565b9055565b6118e69060016118bb565b565b6118f190611868565b565b91602061191492949361190d60408201965f8301906106f2565b01906103c2565b565b33347f9936746a4565f9766fa768f88f56a7487c78780ac179562773d1c75c5269537e9161194e61194561014c565b928392836118f3565b0390a1565b90602090611967611962610ee4565b610efa565b6119915f63e1f21c6761199c61197c30610f06565b9761198561014c565b98899788968795610f59565b85526004850161134c565b03925af18015611a27576119b7915f916119f9575b50610ff7565b6119d06119ca6119c5611038565b611045565b91610ff4565b036119d757565b6119df61014c565b62461bcd60e51b8152806119f56004820161176b565b0390fd5b611a1a915060203d8111611a20575b611a128183610f30565b810190610f88565b5f6119b1565b503d611a08565b610fe456fea264697066735822122080c5cc455a059976e5548bf7e943174c2d0f0da4583362f75c7341d54f88c2c464736f6c634300081e0033","linkReferences":{}},"methodIdentifiers":{"PROTOCOL()":"91b9b827","bridgedAssets(string)":"5a32d031","createBridgedAsset(string,string)":"20c9989b","lockAsset(address,address,uint256)":"dcc951bb","lockStable(address,uint256)":"82105817","releaseAsset(address,string,uint256,uint256)":"0a95b0d2","releaseStable(address,string,uint256,uint256)":"1281668b","stable()":"22be3de1"},"id":16}