{"abi":[{"type":"constructor","inputs":[{"name":"treasury","type":"address","internalType":"address"},{"name":"aclContract","type":"address","internalType":"address"},{"name":"allowList","type":"uint64","internalType":"uint64"},{"name":"reserveToken","type":"address","internalType":"address"}],"stateMutability":"nonpayable"},{"type":"function","name":"acl","inputs":[],"outputs":[{"name":"","type":"address","internalType":"contract AccessController"}],"stateMutability":"view"},{"type":"function","name":"bridgedAssets","inputs":[{"name":"","type":"string","internalType":"string"}],"outputs":[{"name":"","type":"address","internalType":"contract AbstractCradleAssetManager"}],"stateMutability":"view"},{"type":"function","name":"controlAllowList","inputs":[],"outputs":[{"name":"","type":"uint64","internalType":"uint64"}],"stateMutability":"view"},{"type":"function","name":"createAsset","inputs":[{"name":"_name","type":"string","internalType":"string"},{"name":"_symbol","type":"string","internalType":"string"},{"name":"aclContract","type":"address","internalType":"address"},{"name":"allowList","type":"uint64","internalType":"uint64"}],"outputs":[{"name":"","type":"address","internalType":"address"},{"name":"","type":"address","internalType":"address"}],"stateMutability":"payable"},{"type":"function","name":"lockAsset","inputs":[{"name":"user","type":"address","internalType":"address"},{"name":"asset","type":"address","internalType":"address"},{"name":"amount","type":"uint256","internalType":"uint256"}],"outputs":[],"stateMutability":"nonpayable"},{"type":"function","name":"lockReserves","inputs":[{"name":"user","type":"address","internalType":"address"},{"name":"amount","type":"uint256","internalType":"uint256"}],"outputs":[],"stateMutability":"nonpayable"},{"type":"function","name":"releaseAsset","inputs":[{"name":"user","type":"address","internalType":"address"},{"name":"symbol","type":"string","internalType":"string"},{"name":"mintAmount","type":"uint256","internalType":"uint256"},{"name":"unlockAmount","type":"uint256","internalType":"uint256"}],"outputs":[],"stateMutability":"nonpayable"},{"type":"function","name":"releaseReserves","inputs":[{"name":"user","type":"address","internalType":"address"},{"name":"symbol","type":"string","internalType":"string"},{"name":"burnAmount","type":"uint256","internalType":"uint256"},{"name":"releaseAmount","type":"uint256","internalType":"uint256"}],"outputs":[],"stateMutability":"nonpayable"},{"type":"function","name":"reserveToken","inputs":[],"outputs":[{"name":"","type":"address","internalType":"address"}],"stateMutability":"view"},{"type":"function","name":"setControlAllowList","inputs":[{"name":"_newLevel","type":"uint64","internalType":"uint64"}],"outputs":[],"stateMutability":"nonpayable"},{"type":"function","name":"treasury","inputs":[],"outputs":[{"name":"","type":"address","internalType":"address"}],"stateMutability":"view"}],"bytecode":{"object":"0x608034610123576001600160401b03601f6200375138819003918201601f19168401918383118584101761012757808592608094604052833981010312610123576100498261013b565b916100566020820161013b565b906040810151928316809303610123576060610072910161013b565b91600681116100df575f80546001600160e01b03191691909117604092831b600160401b600160e01b0316179055600280546001600160a01b03199081166001600160a01b0395861617909155600180549091169290931691909117909155516136019081620001508239f35b606460405162461bcd60e51b815260206004820152602060248201527f496e76616c696420636f6e74726f6c20616c6c6f77206c697374206c6576656c6044820152fd5b5f80fd5b634e487b7160e01b5f52604160045260245ffd5b51906001600160a01b03821682036101235756fe6040608081526004908136101562000015575f80fd5b5f91823560e01c90816309393a1e1462000d215781630a95b0d21462000a665781635a32d03114620009f757816361d027b314620009cc578163a1d34a42146200084f578163bd4fa12e146200055f578163c7ea4d441462000537578163daa96e1914620002a9578163dcc951bb14620000fb57508063de28735914620000d25763f4325d6714620000a5575f80fd5b34620000ce5781600319360112620000ce5760015490516001600160a01b039091168152602090f35b5080fd5b5034620000ce5781600319360112620000ce5790548151911c6001600160a01b03168152602090f35b83915034620000ce576060366003190112620000ce576200011b62000e9e565b926024356001600160a01b038082168203620002a5578454956001600160401b03966200014a888216620010e0565b978798848993881c16925b8151811015620002955788836200016d838562001010565b518a51636bf8e80f60e01b815291166001600160401b031691810191825233602080840191909152918290829081906040010381895afa9182156200028b578c9262000257575b5050620001cc57620001c69062000fcb565b62000155565b50505050859650620001df60016200103f565b1692833b15620002535782516314657eb960e11b81526001600160a01b039092169082019081526044356020820152909284918491908290849082906040015b03925af19081156200024a5750620002345750f35b6200023f9062000eb5565b620002475780f35b80fd5b513d84823e3d90fd5b8480fd5b6200027b9250803d1062000283575b62000272818362000edd565b81019062001025565b8c80620001b4565b503d62000266565b8a513d8e823e3d90fd5b50505050620001df86976200103f565b5f80fd5b905082608036600319011262000247576001600160401b0382358181116200053357620002da903690850162000eff565b6024358281116200052f57620002f4903690860162000eff565b926044359460018060a01b0392838716809703620002a55760643596858816809803620002a5578354976200032b878a16620010e0565b9885998787928d1c16915b81518110156200051957868d8b6200034f848662001010565b519151636bf8e80f60e01b815291166001600160401b031691810191825233602080840191909152918290829081906040010381885afa9182156200050e578a92620004ec575b5050620003ae57620003a89062000fcb565b62000336565b505050909192939495969750620003c660016200103f565b8851926123de80850198858a10908a1117620004d957620003fc85949392606092620011ee873960808b5260808b0190620011c6565b986200041260209a8281038c8401528c620011c6565b938c8201520152039034f08015620004cf578484620004409216968189519382858094519384920162000fa8565b81016003815203019020856bffffffffffffffffffffffff60a01b8254161790558386518092637e062a3560e11b825281885afa918215620004c4579162000490575b5084519384521690820152f35b620004b59150833d8511620004bc575b620004ac818362000edd565b8101906200107b565b8562000483565b503d620004a0565b8651903d90823e3d90fd5b86513d84823e3d90fd5b634e487b7160e01b875260418652602487fd5b620005069250803d10620002835762000272818362000edd565b8e8062000396565b508e513d8b823e3d90fd5b5050509091929394959697620003c6906200103f565b8380fd5b8280fd5b505034620000ce5781600319360112620000ce576001600160401b0360209254169051908152f35b838334620000ce57620005723662000f59565b9392908596929654906001600160401b0362000590818416620010e0565b979889986001600160a01b0394881c8516908a5b815181101562000838578885620005bc838562001010565b518c51636bf8e80f60e01b815291166001600160401b031691810191825233602080840191909152918290829081906040010381885afa9182156200082c578e926200080a575b50506200061b57620006159062000fcb565b620005a4565b50505088995062000648602085926200063560016200103f565b818a519382858094519384920162000fa8565b81016003815203019020541691620006628315156200109c565b8651637e062a3560e11b81528585166020828981885afa91821562000800578b92620007db575b50803b15620007d7578851635e7db13d60e01b81526001600160a01b03909216828901908152602081018490528b91839182908490829060400103925af18015620007cd57908a91620007b5575b5050823b15620007b157865163393b766560e11b815291166001600160401b03168582019081526001600160a01b03851660208201529091889183919082908490829060400103925af18015620007a7579087916200078b575b50508060025416906001541691813b156200078757845163439e2e4560e01b81526001600160a01b039182169481019485529216602084015260408301949094529284918491908290849082906060016200021f565b8680fd5b620007969062000eb5565b620007a357858862000731565b8580fd5b85513d89823e3d90fd5b8880fd5b620007c09062000eb5565b620007b157888b620006d7565b88513d8c823e3d90fd5b8a80fd5b620007f891925060203d8111620004bc57620004ac818362000edd565b908c62000689565b89513d8d823e3d90fd5b620008249250803d10620002835762000272818362000edd565b8e8062000603565b8e8d51903d90823e3d90fd5b5050506200064860208592620006358c9d6200103f565b9050346200053357602091826003193601126200052f578135916001600160401b0393848416809403620002a5578554926200088d868516620010e0565b879685831c6001600160a01b031691885b8151811015620009b857620008ec8684620008ba848662001010565b518851636bf8e80f60e01b815291166001600160401b03168a8201908152336020820152909283918291604090910190565b0381885afa908115620009ae578c916200098c575b506200091857620009129062000fcb565b6200089e565b505050509091929394506200092e60016200103f565b600685116200094b5750505067ffffffffffffffff191617815580f35b5162461bcd60e51b815291820181905260248201527f496e76616c696420636f6e74726f6c20616c6c6f77206c697374206c6576656c604482015260649150fd5b620009a79150873d8911620002835762000272818362000edd565b5f62000901565b86513d8e823e3d90fd5b5050505090919293946200092e906200103f565b505034620000ce5781600319360112620000ce5760025490516001600160a01b039091168152602090f35b8284346200024757602036600319011262000247578235906001600160401b03821162000247575060209262000a309136910162000eff565b8262000a458351928381519384920162000fa8565b6003908201908152819003830190205490516001600160a01b039091168152f35b83915034620000ce5762000a7a3662000f59565b85969394929654916001600160401b039162000a98838516620010e0565b979889986001600160a01b0395881c8616908a5b815181101562000d0957888762000ac4838562001010565b518c51636bf8e80f60e01b815291166001600160401b031691810191825233602080840191909152918290829081906040010381885afa9182156200082c578e9262000ce7575b505062000b235762000b1d9062000fcb565b62000aac565b5050508899508462000b516020829362000b3e60016200103f565b818b519382858094519384920162000fa8565b8101600381520301902054169762000b6b8915156200109c565b16938060015416853b1562000ccb578751635e7db13d60e01b81526001600160a01b03909116878201908152602081018490528a90829081906040010381838a5af18015620007cd57908a9162000ccf575b505080600254169060015416853b1562000ccb57875163439e2e4560e01b81526001600160a01b039283168882019081529290911660208301526040820192909252889082908190606001038183885af1801562000cc15790889162000ca9575b50501693803b15620007a3578351631f73a13960e31b8152838101869052868160248183865af18015620007a75790879162000c91575b5050803b15620007a357859283604492865197889586946339a4ed0560e11b865285015260248401525af19081156200024a5750620002345750f35b62000c9c9062000eb5565b620007a357858862000c55565b62000cb49062000eb5565b6200078757868962000c1e565b86513d8a823e3d90fd5b8980fd5b62000cda9062000eb5565b620007b157888b62000bbd565b62000d019250803d10620002835762000272818362000edd565b8e8062000b0b565b5050508462000b516020829362000b3e8d9e6200103f565b905034620005335781600319360112620005335762000d3f62000e9e565b918354916001600160401b039362000d59858516620010e0565b86956001600160a01b0395851c86169187805b825181101562000e8857868462000d84838662001010565b518a51636bf8e80f60e01b815291166001600160401b0316918101918252336020808401919091529182908290819060400103818a5afa91821562000e7e57849262000e5c575b505062000de35762000ddd9062000fcb565b62000d6c565b5095969750505050849062000df960016200103f565b16936001541693803b15620005335783516314657eb960e11b81526001600160a01b039095169185019182526024356020830152849182908490829060400103925af19081156200024a575062000e4e575080f35b62000e599062000eb5565b80f35b62000e769250803d10620002835762000272818362000edd565b5f8062000dcb565b8a513d86823e3d90fd5b5095969790508793925062000df991506200103f565b600435906001600160a01b0382168203620002a557565b6001600160401b03811162000ec957604052565b634e487b7160e01b5f52604160045260245ffd5b90601f801991011681019081106001600160401b0382111762000ec957604052565b81601f82011215620002a5578035906001600160401b03821162000ec9576040519262000f37601f8401601f19166020018562000edd565b82845260208383010111620002a557815f926020809301838601378301015290565b906080600319830112620002a5576004356001600160a01b0381168103620002a55791602435906001600160401b038211620002a55762000f9d9160040162000eff565b906044359060643590565b5f5b83811062000fba5750505f910152565b818101518382015260200162000faa565b5f19811462000fda5760010190565b634e487b7160e01b5f52601160045260245ffd5b80511562000ffc5760200190565b634e487b7160e01b5f52603260045260245ffd5b805182101562000ffc5760209160051b010190565b90816020910312620002a557518015158103620002a55790565b156200104757565b60405162461bcd60e51b815260206004820152600c60248201526b155b985d5d1a1bdc9a5e995960a21b6044820152606490fd5b90816020910312620002a557516001600160a01b0381168103620002a55790565b15620010a457565b60405162461bcd60e51b8152602060048201526014602482015273105cdcd95d08191bd95cc81b9bdd08195e1a5cdd60621b6044820152606490fd5b6001600160401b0390811662001123576040519060408201908282109082111762000ec95760405260018152602036818301375f6200111f8262000fee565b5290565b6040519060e082019081118282101762000ec9576040526006815260c03660208301375f80620011538362000fee565b52815160011015620011b25760016040830152815160021015620011b25760026060830152815160031015620011b25760036080830152815160041015620011b257600560a0830152815160051015620011b25750600660c082015290565b634e487b7160e01b81526032600452602490fd5b90602091620011e18151809281855285808601910162000fa8565b601f01601f191601019056fe608080604052620023de80380380916200001a828562000857565b83398101608082820312620006fb5781516001600160401b038111620006fb578162000048918401620008ba565b602083015190916001600160401b038211620006fb576200006b918401620008ba565b604083015190926001600160a01b0382168203620006fb57606001516001600160401b03811690819003620006fb57600160208181525f80516020620022fe8339815191529190915560025f805160206200231e8339815191525560045f805160206200239e8339815191525560085f805160206200235e8339815191525560105f805160206200233e833981519152555f80516020620023be8339815191525560065f81905260405f805160206200237e833981519152558111620007f757600280546001600160e01b03191691909117604092831b600160401b600160e01b0316179055519161012083016001600160401b03811184821017620007e35760405260608352606060208401525f60408401526060808401525f60808401525f60a08401525f60c0840152606060e0840152620001a862000907565b91610100928385015283526020830152306040830152620001c862000907565b30602082015262786450604082015281830152604051808281011060018060401b038383011117620007e357818101604052600781525f5b60e08110620007c957506200021462000972565b505f805260016020525f80516020620022fe833981519152546200023762000936565b306020820152604051916200024c836200083b565b825260208201526200025e8262000996565b526200026a8162000996565b506200027562000972565b5060015f8190526020525f805160206200231e833981519152546200029962000936565b30602082015260405191620002ae836200083b565b82526020820152620002c082620009b8565b52620002cc81620009b8565b50620002d762000972565b5060025f5260016020525f805160206200239e83398151915254620002fb62000936565b3060208201526040519162000310836200083b565b825260208201526200032282620009c9565b526200032e81620009c9565b506200033962000972565b5060035f5260016020525f805160206200235e833981519152546200035d62000936565b3060208201526040519162000372836200083b565b825260208201526200038482620009da565b526200039081620009da565b506200039b62000972565b5060045f5260016020525f805160206200233e83398151915254620003bf62000936565b30602082015260405191620003d4836200083b565b82526020820152620003e682620009eb565b52620003f281620009eb565b50620003fd62000972565b5060055f5260016020525f80516020620023be833981519152546200042162000936565b3060208201526040519162000436836200083b565b825260208201526200044882620009fc565b526200045481620009fc565b506200045f62000972565b5060065f5260016020525f805160206200237e833981519152546200048362000936565b3060208201526040519162000498836200083b565b82526020820152620004aa8262000a0d565b52620004b68162000a0d565b5060e083015280820151805160070b1580620007b9575b620007a9575b5060405190630fb65bf360e01b6020830152606060248301526200054f620005256200050e855161016060848701526101e486019062000a1e565b60208601518582036083190160a487015262000a1e565b60408501516001600160a01b031660c485015260608501518482036083190160e486015262000a1e565b926080810151151561010484015260a081015160070b61012484015260c0810151151561014484015260e08101519360831984820301610164850152845180825260208201916020808360051b8301019701925f915b83831062000714575f808962000601818d60408d8d0151805160070b61018485015260018060a01b036020820151166101a4850152015160070b6101c48301528460448301526008606483015203601f19810183528262000857565b602081519101346101675af13d156200070b573d9062000621826200087b565b9162000631604051938462000857565b82523d5f602084013e5b15620006ff57604081805181010312620006fb576020810151908160030b809203620006fb57604001516001600160a01b0381169190829003620006fb576016905b60030b03620006b657600380546001600160a01b0319166001600160a01b03929092169190911790556040516118b8908162000a468239f35b60405162461bcd60e51b815260206004820152601660248201527f4661696c656420746f2063726561746520746f6b656e000000000000000000006044820152606490fd5b5f80fd5b505f601660156200067d565b6060906200063b565b9091929397602080600192601f19858203018652818c5180518352015190604083820152815115156040820152848060a01b038383015116606082015260c06200078962000772604085015160a0608086015260e085019062000a1e565b6060850151848203603f190160a086015262000a1e565b926080878060a01b03910151169101529a019301930191939290620005a5565b60406276a7009101525f620004d3565b50604081015160070b15620004cd565b602090620007d662000972565b8282850101520162000200565b634e487b7160e01b5f52604160045260245ffd5b606460405162461bcd60e51b815260206004820152602060248201527f496e76616c696420636f6e74726f6c20616c6c6f77206c697374206c6576656c6044820152fd5b604081019081106001600160401b03821117620007e357604052565b601f909101601f19168101906001600160401b03821190821017620007e357604052565b6001600160401b038111620007e357601f01601f191660200190565b5f5b838110620008a95750505f910152565b818101518382015260200162000899565b81601f82011215620006fb578051620008d3816200087b565b92620008e3604051948562000857565b81845260208284010111620006fb5762000904916020808501910162000897565b90565b60405190606082016001600160401b03811183821017620007e3576040525f6040838281528260208201520152565b6040519060a082016001600160401b03811183821017620007e3576040525f608083828152826020820152606060408201526060808201520152565b6040519062000981826200083b565b815f815260206200099162000936565b910152565b805115620009a45760200190565b634e487b7160e01b5f52603260045260245ffd5b805160011015620009a45760400190565b805160021015620009a45760600190565b805160031015620009a45760800190565b805160041015620009a45760a00190565b805160051015620009a45760c00190565b805160061015620009a45760e00190565b9060209162000a398151809281855285808601910162000897565b601f01601f191601019056fe6080806040526004361015610012575f80fd5b5f3560e01c90816315dacbea146113715750806331d6ebdf146110e3578063618dc65e14610f9a5780637276ecca14610dcf5780637349da0a146109055780639b23d3d9146108585780639dbead421461066a578063a1d34a421461052a578063bef4981314610414578063c7ea4d44146103ee578063de287359146103c4578063fb9d09c8146100d75763fc0c546a146100ab575f80fd5b346100d3575f3660031901126100d3576003546040516001600160a01b039091168152602090f35b5f80fd5b346100d3576020806003193601126100d3576100f1611434565b600254906001600160401b03906101098284166115ed565b5f936001600160a01b039160409190911c821690855b81518110156103b5579081888761013a61016a969585611591565b51604051636bf8e80f60e01b815291166001600160401b0316600482015233602482015294859081906044820190565b0381865afa80156103aa5789945f91610374575b506101955761018c90611552565b9091925061011f565b50505050909192506101a760016115b2565b600354166040516101b781611465565b5f815260405191848684019463707a02cd60e11b8652608485019260248601521660070b604484015260606064840152815180915260a48301908660a48260051b8601019301915f905b8883831061034b57885f808a8a610221818c03601f19810183528261149b565b5190826101675af1610231611515565b90156103325780518101916060828585019403126100d357610254848301611544565b91610261604082016116b8565b506060810151908282116100d357019083603f830112156100d3578482015190811161031e576040858260051b9282519061029e8386018361149b565b815201918301019384116100d3576040859201905b84821061030757505050601691505b60030b036102cc57005b6064906040519062461bcd60e51b82526004820152601460248201527311985a5b1959081d1bc81b5a5b9d08185cdcd95d60621b6044820152fd5b828091610313846116b8565b8152019101906102b3565b634e487b7160e01b5f52604160045260245ffd5b50505f60405161034181611465565b52601660156102c2565b806103666001939495969760a3198a820301865288516114d7565b960192019201909291610201565b85819692503d83116103a3575b61038b818361149b565b810103126100d35761039d89946115a5565b8a61017e565b503d610381565b6040513d5f823e3d90fd5b5050509091926101a7906115b2565b346100d3575f3660031901126100d3576002546040805191901c6001600160a01b03168152602090f35b346100d3575f3660031901126100d35760206001600160401b0360025416604051908152f35b346100d3576020806003193601126100d35761042e6113c7565b600254916001600160401b03926104468482166115ed565b5f9460409290921c6001600160a01b03169190855b8151811015610519576104a385846104738486611591565b51604051636bf8e80f60e01b815291166001600160401b0316600482015233602482015291829081906044820190565b0381885afa9081156103aa575f916104e4575b506104c9576104c490611552565b61045b565b50505050506104e291506104dd60016115b2565b611703565b005b90508581813d8311610512575b6104fb818361149b565b810103126100d35761050c906115a5565b886104b6565b503d6104f1565b50505050506104dd6104e2926115b2565b346100d3576020806003193601126100d357610544611434565b6002546001600160401b0361055a8183166115ed565b5f9390604084901c6001600160a01b031690855b815181101561065b579081888661013a610589969585611591565b0381865afa80156103aa5789945f91610625575b506105b4576105ab90611552565b9091925061056e565b50505050909192506105c660016115b2565b1691600683116105e2575067ffffffffffffffff191617600255005b6064906040519062461bcd60e51b825280600483015260248201527f496e76616c696420636f6e74726f6c20616c6c6f77206c697374206c6576656c6044820152fd5b85819692503d8311610654575b61063c818361149b565b810103126100d35761064e89946115a5565b8a61059d565b503d610632565b5050509091926105c6906115b2565b346100d3576020806003193601126100d357610684611434565b90600254906001600160401b0361069c8184166115ed565b5f936001600160a01b039160409190911c821690855b8151811015610849576106ca86866104738486611591565b0381875afa9081156103aa575f91610814575b506106f0576106eb90611552565b6106b2565b5050509091925061070160016115b2565b6003541660405161071181611465565b5f81526040519184830193636b48868360e11b85526084840191602485015260079616860b60448401526060606484015281518091528460a484019201905f5b8181106107fe57865f808888610770818a03601f19810183528261149b565b5190826101675af1610780611515565b90156107f4576040818051810103126100d357806107ad60406107a68560169501611544565b92016116b8565b505b60030b036107b957005b6064906040519062461bcd60e51b82526004820152601460248201527311985a5b1959081d1bc8189d5c9b88185cdcd95d60621b6044820152fd5b50601660156107af565b8251880b84529286019291860191600101610751565b90508681813d8311610842575b61082b818361149b565b810103126100d35761083c906115a5565b896106dd565b503d610821565b505050909192610701906115b2565b346100d3575f806108c06108b261086e366113dd565b604051639b23d3d960e01b602082019081526001600160a01b03958616602483015293851660448201529390911660648401526084830152929091829060a4820190565b03601f19810183528261149b565b5190826101675af16108d0611515565b90156108fb576020818051810103126100d3576108f06020809201611544565b6040519060030b8152f35b50602060156108f0565b346100d35760403660031901126100d35761091e6113c7565b61092661141e565b6002546001600160401b038082169261093e846115ed565b5f9460409490941c6001600160a01b03169390855b8151811015610dbe5761099e8561096a8385611591565b51604051636bf8e80f60e01b815291166001600160401b031660048201523360248201526020918290829081906044820190565b03818b5afa9182156103aa575f92610d88575b50506109c5576109c090611552565b610953565b50506109de91929394506109d960016115b2565b6115ed565b925f935f5b8151811015610d7a576109fa8561096a8385611591565b0381885afa9182156103aa575f92610d44575b5050610a2157610a1c90611552565b6109e3565b505050909150610a3160016115b2565b610a3a83611703565b610a426116c6565b6001600160a01b0390931683521660070b6020820181905290610a636116c6565b30815291677fffffffffffffff198114610d30575f0360070b6020830152610a896116e4565b6003546001600160a01b0316815260405192909190610aa78461144a565b600284525f5b60408110610d195750610ad583946020610ae7950192818452610acf82611560565b52611560565b505190610ae182611581565b52611581565b5060405190610af582611480565b600182525f5b60208110610d025750610b0d82611560565b52610b1781611560565b5060405190632f34811960e01b825281602481016020600483015282518091526044820190602060448260051b8501019401915f905b828210610bfc5784602081808903815f6101675af180156103aa575f90610bc2575b6016915060070b03610b7d57005b60405162461bcd60e51b815260206004820152601860248201527f4661696c656420746f2061697264726f7020746f6b656e7300000000000000006044820152606490fd5b506020813d602011610bf4575b81610bdc6020938361149b565b810103126100d357610bef6016916116b8565b610b6f565b3d9150610bcf565b91935091936043198682030182528451606082019060018060a01b0381511683526020810151916060602085015282518091526020608085019301905f905b808210610cca5750505060400151916040818303910152602080835192838152019201905f905b808210610c815750505060208060019296019201920185939192610b4d565b9091926020608060019260608751858060a01b038151168352858060a01b03858201511685840152604081015160070b6040840152015115156060820152019401920190610c62565b9091936020606060019260408851858060a01b0381511683528481015160070b85840152015115156040820152019501920190610c3b565b602090610d0d6116e4565b82828601015201610afb565b602090610d246116c6565b82828801015201610aad565b634e487b7160e01b5f52601160045260245ffd5b90809250813d8311610d73575b610d5b818361149b565b810103126100d357610d6c906115a5565b8880610a0d565b503d610d51565b5050509091610a31906115b2565b90809250813d8311610db7575b610d9f818361149b565b810103126100d357610db0906115a5565b89806109b1565b503d610d95565b50506109d96109de929394956115b2565b346100d35760403660031901126100d357610de8611434565b6001600160a01b0390602435828116908190036100d357600254916001600160401b0390610e178285166115ed565b5f9460401c861690855b8151811015610f8b57610e388561096a8385611591565b0381885afa9182156103aa575f92610f55575b5050610e5f57610e5a90611552565b610e21565b5050509193819350610e7160016115b2565b600354169160405194602086019363efef57f960e01b8552602487015260448601521660070b60648401526064835260a08301918383109083111761031e575f9283926040525190826101675af1610ec7611515565b9015610f4b576020818051810103126100d357610ee8602060169201611544565b60030b03610ef257005b60405162461bcd60e51b815260206004820152602b60248201527f4661696c656420746f20776970652061737365742066726f6d2074686520757360448201526a195c9cc81858d8dbdd5b9d60aa1b6064820152608490fd5b5060166015610ee8565b90809250813d8311610f84575b610f6c818361149b565b810103126100d357610f7d906115a5565b8980610e4b565b503d610f62565b5050509193610e7182946115b2565b346100d35760403660031901126100d357610fb36113c7565b602435906001600160401b0382116100d357366023830112156100d357816004013590610fdf826114bc565b91610fed604051938461149b565b80835236602482860101116100d35761104f5f9493856020846108b29560248499018386013783010152604080516330c6e32f60e11b602082019081526001600160a01b039096166024820152604481019190915292839160648301906114d7565b5190826101675af161105f611515565b907f4af4780e06fe8cb9df64b0794fa6f01399af979175bb988e35e0e57e594567bc6040518215158152604060208201528061109e60408201866114d7565b0390a1156110cc5760165b6110c860405192839260030b83526040602084015260408301906114d7565b0390f35b506040516110d981611465565b5f815260156110a9565b346100d35760403660031901126100d3576110fc6113c7565b61110461141e565b600254916001600160401b039061111c8285166115ed565b6001600160a01b03945f949160409190911c861690855b81518110156113625761114a8661096a8385611591565b0381885afa9182156103aa575f9261132c575b50506111715761116c90611552565b611133565b5050509091925061118260016115b2565b828460035416916040519263e1f21c6760e01b8452600484015230602484015216938460448301526020946101679286816064815f885af180156103aa575f906112f7575b6016915060070b036112a457816003541691604051948786019363eca3691760e01b8552602487015230604487015216606485015260070b60848401526084835260c08301938385109085111761031e575f809493819460405251925af161122d611515565b901561129a5781818051810103126100d35761124c8260169201611544565b60030b0361125657005b6064906040519062461bcd60e51b82526004820152601960248201527f4661696c656420746f207472616e7366657220746f6b656e73000000000000006044820152fd5b506016601561124c565b60405162461bcd60e51b815260048101879052602560248201527f4661696c656420746f20617070726f766520746f6b656e7320666f72207472616044820152643739b332b960d91b6064820152608490fd5b508681813d8311611325575b61130d818361149b565b810103126100d3576113206016916116b8565b6111c7565b503d611303565b90809250813d831161135b575b611343818361149b565b810103126100d357611354906115a5565b898061115d565b503d611339565b505050909192611182906115b2565b346100d3575f6108b2826108c08394611389366113dd565b630aed65f560e11b602086019081526001600160a01b03948516602487015292841660448601529216606484015260848301919091529360a4820190565b600435906001600160a01b03821682036100d357565b60809060031901126100d3576001600160a01b0360043581811681036100d3579160243582811681036100d3579160443590811681036100d3579060643590565b602435906001600160401b03821682036100d357565b600435906001600160401b03821682036100d357565b606081019081106001600160401b0382111761031e57604052565b602081019081106001600160401b0382111761031e57604052565b604081019081106001600160401b0382111761031e57604052565b90601f801991011681019081106001600160401b0382111761031e57604052565b6001600160401b03811161031e57601f01601f191660200190565b91908251928382525f5b848110611501575050825f602080949584010152601f8019910116010190565b6020818301810151848301820152016114e1565b3d1561153f573d90611526826114bc565b91611534604051938461149b565b82523d5f602084013e565b606090565b51908160030b82036100d357565b5f198114610d305760010190565b80511561156d5760200190565b634e487b7160e01b5f52603260045260245ffd5b80516001101561156d5760400190565b805182101561156d5760209160051b010190565b519081151582036100d357565b156115b957565b60405162461bcd60e51b815260206004820152600c60248201526b155b985d5d1a1bdc9a5e995960a21b6044820152606490fd5b6001600160401b03908116611622575060405161160981611480565b60018152602036818301375f61161e82611560565b5290565b6040519060e082019081118282101761031e576040526006815260c03660208301375f8061164f83611560565b52600161165b83611581565b528151600210156116a457600260608301528151600310156116a457600360808301528151600410156116a457600560a08301528151600510156116a45750600660c082015290565b634e487b7160e01b81526032600452602490fd5b51908160070b82036100d357565b604051906116d38261144a565b5f6040838281528260208201520152565b604051906116f18261144a565b60606040835f81528260208201520152565b60035460408051633cb0c7fd60e21b81526001600160a01b03928316600482015283831660248201529092610167925f92909190858160448187895af1908115611878578491611832575b5061182b576003548551638f8d7f9960e01b815292166001600160a01b0390811660048401521660248201529160209083908184816044810103925af19081156118205780916117e1575b506016915060070b036117a95750565b5162461bcd60e51b81526020600482015260126024820152714661696c6520746f206772616e74204b594360701b6044820152606490fd5b90506020823d8211611818575b816117fb6020938361149b565b81010312611815575061180f6016916116b8565b5f611799565b80fd5b3d91506117ee565b8351903d90823e3d90fd5b5050505050565b90508581813d8311611871575b611849818361149b565b8101031261186d57602081611860611867936116b8565b50016115a5565b5f61174e565b8380fd5b503d61183f565b86513d86823e3d90fdfea26469706673582212203b728a66ff6f064b207edddd69ee3649c4486fcb5265da9e417a828cdb3e20c764736f6c63430008140033a6eef7e35abe7026729641147f7915573c7e97b47efa546f5f6e3230263bcb49cc69885fda6bcc1a4ace058b4a62bf5e179ea78fd58a1ccd71c22cc9b688792fedc95719e9a3b28dd8e80877cb5880a9be7de1a13fc8b05e7999683b6b5676437dfe757ecd65cbd7922a9c0161e935dd7fdbcc0e999689c7d31633896b1fc60b8f331abe73332f95a25873e8b430885974c0409691f89d643119a11623a7924ad9d16d34ffb15ba3a3d852f0d403e2ce1d691fb54de27ac87cd2f993f3ec330fe2689cd4a84e23ad2f564004f1c9013e9589d260bde6380aba3ca7e09e4df40ca26469706673582212202ea45cfa7142ffea23b34574e8d248950c58cdae36c4149b79e7329d8bfa9e0864736f6c63430008140033","linkReferences":{}},"methodIdentifiers":{"acl()":"de287359","bridgedAssets(string)":"5a32d031","controlAllowList()":"c7ea4d44","createAsset(string,string,address,uint64)":"daa96e19","lockAsset(address,address,uint256)":"dcc951bb","lockReserves(address,uint256)":"09393a1e","releaseAsset(address,string,uint256,uint256)":"0a95b0d2","releaseReserves(address,string,uint256,uint256)":"bd4fa12e","reserveToken()":"f4325d67","setControlAllowList(uint64)":"a1d34a42","treasury()":"61d027b3"},"id":24}