{"abi":[{"type":"constructor","inputs":[{"name":"aclContract","type":"address","internalType":"address"},{"name":"allowList","type":"uint64","internalType":"uint64"},{"name":"reserveToken","type":"address","internalType":"address"}],"stateMutability":"nonpayable"},{"type":"function","name":"acl","inputs":[],"outputs":[{"name":"","type":"address","internalType":"contract AccessController"}],"stateMutability":"view"},{"type":"function","name":"bridgedAssets","inputs":[{"name":"","type":"string","internalType":"string"}],"outputs":[{"name":"","type":"address","internalType":"contract AbstractCradleAssetManager"}],"stateMutability":"view"},{"type":"function","name":"controlAllowList","inputs":[],"outputs":[{"name":"","type":"uint64","internalType":"uint64"}],"stateMutability":"view"},{"type":"function","name":"createAsset","inputs":[{"name":"_name","type":"string","internalType":"string"},{"name":"_symbol","type":"string","internalType":"string"},{"name":"aclContract","type":"address","internalType":"address"},{"name":"allowList","type":"uint64","internalType":"uint64"}],"outputs":[{"name":"","type":"address","internalType":"address"},{"name":"","type":"address","internalType":"address"}],"stateMutability":"payable"},{"type":"function","name":"lockAsset","inputs":[{"name":"user","type":"address","internalType":"address"},{"name":"asset","type":"address","internalType":"address"},{"name":"amount","type":"uint256","internalType":"uint256"}],"outputs":[],"stateMutability":"nonpayable"},{"type":"function","name":"lockReserves","inputs":[{"name":"user","type":"address","internalType":"address"},{"name":"amount","type":"uint256","internalType":"uint256"}],"outputs":[],"stateMutability":"nonpayable"},{"type":"function","name":"releaseAsset","inputs":[{"name":"user","type":"address","internalType":"address"},{"name":"symbol","type":"string","internalType":"string"},{"name":"mintAmount","type":"uint256","internalType":"uint256"},{"name":"unlockAmount","type":"uint256","internalType":"uint256"}],"outputs":[],"stateMutability":"nonpayable"},{"type":"function","name":"releaseReserves","inputs":[{"name":"user","type":"address","internalType":"address"},{"name":"symbol","type":"string","internalType":"string"},{"name":"burnAmount","type":"uint256","internalType":"uint256"},{"name":"releaseAmount","type":"uint256","internalType":"uint256"}],"outputs":[],"stateMutability":"nonpayable"},{"type":"function","name":"reserveToken","inputs":[],"outputs":[{"name":"","type":"address","internalType":"address"}],"stateMutability":"view"},{"type":"function","name":"setControlAllowList","inputs":[{"name":"_newLevel","type":"uint64","internalType":"uint64"}],"outputs":[],"stateMutability":"nonpayable"}],"bytecode":{"object":"0x60803461018057601f62005a8938819003918201601f19168301926001600160401b03929091838511838610176101845781606092849260409788528339810103126101805761004e81610198565b90602081015190838216809203610180578461006a9101610198565b906006811161013d575f80546001600160e01b031916821784871b600160401b600160e01b03161781558551909490916121ed808401928311848410176101295791839160a0936200389c8439606082526008606083015267747265617375727960c01b6080830152600180851b0380971660208301528882015203019084f092831561011e57508160018060a01b0319931683600254161760025516906001541617600155516136ef9081620001ad8239f35b8451903d90823e3d90fd5b634e487b7160e01b87526041600452602487fd5b6064855162461bcd60e51b815260206004820152602060248201527f496e76616c696420636f6e74726f6c20616c6c6f77206c697374206c6576656c6044820152fd5b5f80fd5b634e487b7160e01b5f52604160045260245ffd5b51906001600160a01b03821682036101805756fe6040608081526004908136101562000015575f80fd5b5f91823560e01c90816309393a1e1462000ca35781630a95b0d21462000a2f5781635a32d03114620009c0578163a1d34a421462000843578163bd4fa12e1462000553578163c7ea4d44146200052b578163daa96e19146200029d578163dcc951bb14620000ef57508063de28735914620000c65763f4325d671462000099575f80fd5b34620000c25781600319360112620000c25760015490516001600160a01b039091168152602090f35b5080fd5b5034620000c25781600319360112620000c25790548151911c6001600160a01b03168152602090f35b83915034620000c2576060366003190112620000c2576200010f62000e20565b926024356001600160a01b03808216820362000299578454956001600160401b03966200013e88821662001062565b978798848993881c16925b81518110156200028957888362000161838562000f92565b518a51636bf8e80f60e01b815291166001600160401b031691810191825233602080840191909152918290829081906040010381895afa9182156200027f578c926200024b575b5050620001c057620001ba9062000f4d565b62000149565b50505050859650620001d3600162000fc1565b1692833b15620002475782516314657eb960e11b81526001600160a01b039092169082019081526044356020820152909284918491908290849082906040015b03925af19081156200023e5750620002285750f35b620002339062000e37565b6200023b5780f35b80fd5b513d84823e3d90fd5b8480fd5b6200026f9250803d1062000277575b62000266818362000e5f565b81019062000fa7565b8c80620001a8565b503d6200025a565b8a513d8e823e3d90fd5b50505050620001d3869762000fc1565b5f80fd5b90508260803660031901126200023b576001600160401b0382358181116200052757620002ce903690850162000e81565b6024358281116200052357620002e8903690860162000e81565b926044359460018060a01b039283871680970362000299576064359685881680980362000299578354976200031f878a1662001062565b9885998787928d1c16915b81518110156200050d57868d8b62000343848662000f92565b519151636bf8e80f60e01b815291166001600160401b031691810191825233602080840191909152918290829081906040010381885afa91821562000502578a92620004e0575b5050620003a2576200039c9062000f4d565b6200032a565b505050909192939495969750620003ba600162000fc1565b88519261254a80850198858a10908a1117620004cd57620003f08594939260609262001170873960808b5260808b019062001148565b986200040660209a8281038c8401528c62001148565b938c8201520152039034f08015620004c3578484620004349216968189519382858094519384920162000f2a565b81016003815203019020856bffffffffffffffffffffffff60a01b8254161790558386518092637e062a3560e11b825281885afa918215620004b8579162000484575b5084519384521690820152f35b620004a99150833d8511620004b0575b620004a0818362000e5f565b81019062000ffd565b8562000477565b503d62000494565b8651903d90823e3d90fd5b86513d84823e3d90fd5b634e487b7160e01b875260418652602487fd5b620004fa9250803d10620002775762000266818362000e5f565b8e806200038a565b508e513d8b823e3d90fd5b5050509091929394959697620003ba9062000fc1565b8380fd5b8280fd5b505034620000c25781600319360112620000c2576001600160401b0360209254169051908152f35b838334620000c257620005663662000edb565b9392908596929654906001600160401b036200058481841662001062565b979889986001600160a01b0394881c8516908a5b81518110156200082c578885620005b0838562000f92565b518c51636bf8e80f60e01b815291166001600160401b031691810191825233602080840191909152918290829081906040010381885afa91821562000820578e92620007fe575b50506200060f57620006099062000f4d565b62000598565b5050508899506200063c6020859262000629600162000fc1565b818a519382858094519384920162000f2a565b81016003815203019020541691620006568315156200101e565b8651637e062a3560e11b81528585166020828981885afa918215620007f4578b92620007cf575b50803b15620007cb578851635e7db13d60e01b81526001600160a01b03909216828901908152602081018490528b91839182908490829060400103925af18015620007c157908a91620007a9575b5050823b15620007a557865163393b766560e11b815291166001600160401b03168582019081526001600160a01b03851660208201529091889183919082908490829060400103925af180156200079b579087916200077f575b50508060025416906001541691813b156200077b57845163439e2e4560e01b81526001600160a01b0391821694810194855292166020840152604083019490945292849184919082908490829060600162000213565b8680fd5b6200078a9062000e37565b6200079757858862000725565b8580fd5b85513d89823e3d90fd5b8880fd5b620007b49062000e37565b620007a557888b620006cb565b88513d8c823e3d90fd5b8a80fd5b620007ec91925060203d8111620004b057620004a0818362000e5f565b908c6200067d565b89513d8d823e3d90fd5b620008189250803d10620002775762000266818362000e5f565b8e80620005f7565b8e8d51903d90823e3d90fd5b5050506200063c60208592620006298c9d62000fc1565b90503462000527576020918260031936011262000523578135916001600160401b039384841680940362000299578554926200088186851662001062565b879685831c6001600160a01b031691885b8151811015620009ac57620008e08684620008ae848662000f92565b518851636bf8e80f60e01b815291166001600160401b03168a8201908152336020820152909283918291604090910190565b0381885afa908115620009a2578c9162000980575b506200090c57620009069062000f4d565b62000892565b5050505090919293945062000922600162000fc1565b600685116200093f5750505067ffffffffffffffff191617815580f35b5162461bcd60e51b815291820181905260248201527f496e76616c696420636f6e74726f6c20616c6c6f77206c697374206c6576656c604482015260649150fd5b6200099b9150873d8911620002775762000266818362000e5f565b5f620008f5565b86513d8e823e3d90fd5b505050509091929394620009229062000fc1565b8284346200023b5760203660031901126200023b578235906001600160401b0382116200023b5750602092620009f99136910162000e81565b8262000a0e8351928381519384920162000f2a565b6003908201908152819003830190205490516001600160a01b039091168152f35b83915034620000c25762000a433662000edb565b9195928594919454916001600160401b039362000a6285851662001062565b979889986001600160a01b0395881c8616908a5b815181101562000c8b5762000ac68962000a91838562000f92565b518c51636bf8e80f60e01b815291166001600160401b0316888201908152336020808301919091529283918391829160400190565b0381885afa91821562000820578e9262000c69575b505062000af35762000aed9062000f4d565b62000a76565b5050508899508462000b216020829362000b0e600162000fc1565b818b519382858094519384920162000f2a565b8101600381520301902054169362000b3b8515156200101e565b16938060015416853b1562000c4d578751635e7db13d60e01b81526001600160a01b03909116848201908152602081018490528a90829081906040010381838a5af18015620007c157908a9162000c51575b505080600254169060015416853b1562000c4d57875163439e2e4560e01b81526001600160a01b039283168582019081529290911660208301526040820192909252889082908190606001038183885af1801562000c435790889162000c2b575b5050813b156200077b57866044928195875198899687956339a4ed0560e11b87528601521660248401525af19081156200023e5750620002285750f35b62000c369062000e37565b6200077b57868962000bee565b86513d8a823e3d90fd5b8980fd5b62000c5c9062000e37565b620007a557888b62000b8d565b62000c839250803d10620002775762000266818362000e5f565b8e8062000adb565b5050508462000b216020829362000b0e8d9e62000fc1565b905034620005275781600319360112620005275762000cc162000e20565b918354916001600160401b039362000cdb85851662001062565b86956001600160a01b0395851c86169187805b825181101562000e0a57868462000d06838662000f92565b518a51636bf8e80f60e01b815291166001600160401b0316918101918252336020808401919091529182908290819060400103818a5afa91821562000e0057849262000dde575b505062000d655762000d5f9062000f4d565b62000cee565b5095969750505050849062000d7b600162000fc1565b16936001541693803b15620005275783516314657eb960e11b81526001600160a01b039095169185019182526024356020830152849182908490829060400103925af19081156200023e575062000dd0575080f35b62000ddb9062000e37565b80f35b62000df89250803d10620002775762000266818362000e5f565b5f8062000d4d565b8a513d86823e3d90fd5b5095969790508793925062000d7b915062000fc1565b600435906001600160a01b03821682036200029957565b6001600160401b03811162000e4b57604052565b634e487b7160e01b5f52604160045260245ffd5b90601f801991011681019081106001600160401b0382111762000e4b57604052565b81601f8201121562000299578035906001600160401b03821162000e4b576040519262000eb9601f8401601f19166020018562000e5f565b828452602083830101116200029957815f926020809301838601378301015290565b90608060031983011262000299576004356001600160a01b0381168103620002995791602435906001600160401b038211620002995762000f1f9160040162000e81565b906044359060643590565b5f5b83811062000f3c5750505f910152565b818101518382015260200162000f2c565b5f19811462000f5c5760010190565b634e487b7160e01b5f52601160045260245ffd5b80511562000f7e5760200190565b634e487b7160e01b5f52603260045260245ffd5b805182101562000f7e5760209160051b010190565b908160209103126200029957518015158103620002995790565b1562000fc957565b60405162461bcd60e51b815260206004820152600c60248201526b155b985d5d1a1bdc9a5e995960a21b6044820152606490fd5b908160209103126200029957516001600160a01b0381168103620002995790565b156200102657565b60405162461bcd60e51b8152602060048201526014602482015273105cdcd95d08191bd95cc81b9bdd08195e1a5cdd60621b6044820152606490fd5b6001600160401b03908116620010a5576040519060408201908282109082111762000e4b5760405260018152602036818301375f620010a18262000f70565b5290565b6040519060e082019081118282101762000e4b576040526006815260c03660208301375f80620010d58362000f70565b528151600110156200113457600160408301528151600210156200113457600260608301528151600310156200113457600360808301528151600410156200113457600560a0830152815160051015620011345750600660c082015290565b634e487b7160e01b81526032600452602490fd5b90602091620011638151809281855285808601910162000f2a565b601f01601f191601019056fe6080806040526200254a80380380916200001a828562000857565b83398101608082820312620006fb5781516001600160401b038111620006fb578162000048918401620008ba565b602083015190916001600160401b038211620006fb576200006b918401620008ba565b604083015190926001600160a01b0382168203620006fb57606001516001600160401b03811690819003620006fb57600160208181525f805160206200246a8339815191529190915560025f805160206200248a8339815191525560045f805160206200250a8339815191525560085f80516020620024ca8339815191525560105f80516020620024aa833981519152555f805160206200252a8339815191525560065f81905260405f80516020620024ea833981519152558111620007f757600280546001600160e01b03191691909117604092831b600160401b600160e01b0316179055519161012083016001600160401b03811184821017620007e35760405260608352606060208401525f60408401526060808401525f60808401525f60a08401525f60c0840152606060e0840152620001a862000907565b91610100928385015283526020830152306040830152620001c862000907565b30602082015262786450604082015281830152604051808281011060018060401b038383011117620007e357818101604052600781525f5b60e08110620007c957506200021462000972565b505f805260016020525f805160206200246a833981519152546200023762000936565b306020820152604051916200024c836200083b565b825260208201526200025e8262000996565b526200026a8162000996565b506200027562000972565b5060015f8190526020525f805160206200248a833981519152546200029962000936565b30602082015260405191620002ae836200083b565b82526020820152620002c082620009b8565b52620002cc81620009b8565b50620002d762000972565b5060025f5260016020525f805160206200250a83398151915254620002fb62000936565b3060208201526040519162000310836200083b565b825260208201526200032282620009c9565b526200032e81620009c9565b506200033962000972565b5060035f5260016020525f80516020620024ca833981519152546200035d62000936565b3060208201526040519162000372836200083b565b825260208201526200038482620009da565b526200039081620009da565b506200039b62000972565b5060045f5260016020525f80516020620024aa83398151915254620003bf62000936565b30602082015260405191620003d4836200083b565b82526020820152620003e682620009eb565b52620003f281620009eb565b50620003fd62000972565b5060055f5260016020525f805160206200252a833981519152546200042162000936565b3060208201526040519162000436836200083b565b825260208201526200044882620009fc565b526200045481620009fc565b506200045f62000972565b5060065f5260016020525f80516020620024ea833981519152546200048362000936565b3060208201526040519162000498836200083b565b82526020820152620004aa8262000a0d565b52620004b68162000a0d565b5060e083015280820151805160070b1580620007b9575b620007a9575b5060405190630fb65bf360e01b6020830152606060248301526200054f620005256200050e855161016060848701526101e486019062000a1e565b60208601518582036083190160a487015262000a1e565b60408501516001600160a01b031660c485015260608501518482036083190160e486015262000a1e565b926080810151151561010484015260a081015160070b61012484015260c0810151151561014484015260e08101519360831984820301610164850152845180825260208201916020808360051b8301019701925f915b83831062000714575f808962000601818d60408d8d0151805160070b61018485015260018060a01b036020820151166101a4850152015160070b6101c48301528460448301526008606483015203601f19810183528262000857565b602081519101346101675af13d156200070b573d9062000621826200087b565b9162000631604051938462000857565b82523d5f602084013e5b15620006ff57604081805181010312620006fb576020810151908160030b809203620006fb57604001516001600160a01b0381169190829003620006fb576016905b60030b03620006b657600380546001600160a01b0319166001600160a01b0392909216919091179055604051611a24908162000a468239f35b60405162461bcd60e51b815260206004820152601660248201527f4661696c656420746f2063726561746520746f6b656e000000000000000000006044820152606490fd5b5f80fd5b505f601660156200067d565b6060906200063b565b9091929397602080600192601f19858203018652818c5180518352015190604083820152815115156040820152848060a01b038383015116606082015260c06200078962000772604085015160a0608086015260e085019062000a1e565b6060850151848203603f190160a086015262000a1e565b926080878060a01b03910151169101529a019301930191939290620005a5565b60406276a7009101525f620004d3565b50604081015160070b15620004cd565b602090620007d662000972565b8282850101520162000200565b634e487b7160e01b5f52604160045260245ffd5b606460405162461bcd60e51b815260206004820152602060248201527f496e76616c696420636f6e74726f6c20616c6c6f77206c697374206c6576656c6044820152fd5b604081019081106001600160401b03821117620007e357604052565b601f909101601f19168101906001600160401b03821190821017620007e357604052565b6001600160401b038111620007e357601f01601f191660200190565b5f5b838110620008a95750505f910152565b818101518382015260200162000899565b81601f82011215620006fb578051620008d3816200087b565b92620008e3604051948562000857565b81845260208284010111620006fb5762000904916020808501910162000897565b90565b60405190606082016001600160401b03811183821017620007e3576040525f6040838281528260208201520152565b6040519060a082016001600160401b03811183821017620007e3576040525f608083828152826020820152606060408201526060808201520152565b6040519062000981826200083b565b815f815260206200099162000936565b910152565b805115620009a45760200190565b634e487b7160e01b5f52603260045260245ffd5b805160011015620009a45760400190565b805160021015620009a45760600190565b805160031015620009a45760800190565b805160041015620009a45760a00190565b805160051015620009a45760c00190565b805160061015620009a45760e00190565b9060209162000a398151809281855285808601910162000897565b601f01601f191601019056fe6080604081815260049182361015610015575f80fd5b5f9283803560e01c92836315dacbea14611510575050816331d6ebdf14611324578163618dc65e146111df5781637276ecca14610fc05781637349da0a146109835781639b23d3d9146108cd5781639dbead42146106ca578163a1d34a421461054e578163bef4981314610421578163c7ea4d44146103f9578163de287359146103d0578163fb9d09c8146100de575063fc0c546a146100b3575f80fd5b346100da57816003193601126100da5760035490516001600160a01b039091168152602090f35b5080fd5b9050346103cc576020806003193601126103c8576100fa6115d9565b92600254936001600160401b03906101138287166117a6565b87966001600160a01b039190851c821690885b81518110156103b657610170888a8861013f8587611733565b518b51636bf8e80f60e01b815291166001600160401b03169181019182523360208301529283918291604090910190565b0381875afa9081156103ac578c91610373575b5061019657610191906116f0565b610126565b505050909192939495506101ae600190889291611754565b60035416918451926101bf8461161e565b828452855190858883019363707a02cd60e11b8552608484019260248501521660070b604483015260606064830152845180915260a48201908860a48260051b85010196019185905b8a83831061034157505050505061022981849503601f198101835282611639565b5190826101675af19061023a6116b3565b91156103295781518201906060838684019303126103255761025d8584016116e2565b92610269858201611880565b506060810151918211610321570181603f8201121561032557848101519084866102928461178f565b61029e83519182611639565b848152019260051b8201019283116103215784869101915b83831061030957505050506016905b60030b036102d1578380f35b5162461bcd60e51b815291820152601460248201527311985a5b1959081d1bc81b5a5b9d08185cdcd95d60621b604482015260649150fd5b819061031484611880565b81520191019085906102b6565b8780fd5b8680fd5b50508381516103378161161e565b52601660156102c5565b80919395975061036060019395979960a3198a82030186528851611675565b9601920192018b95939192969496610208565b90508881813d83116103a5575b61038a8183611639565b810103126103a15761039b90611747565b5f610183565b8b80fd5b503d610380565b88513d8e823e3d90fd5b5050506101ae88929394959697611754565b8380fd5b8280fd5b5050346100da57816003193601126100da576002548151911c6001600160a01b03168152602090f35b5050346100da57816003193601126100da576020906001600160401b03600254169051908152f35b919050346103cc57602090816003193601126103c85761043f611568565b91600254936001600160401b03946104588682166117a6565b879691851c6001600160a01b03169190875b815181101561053b576104b486846104828486611733565b518a51636bf8e80f60e01b815291166001600160401b0316888201908152336020820152909283918291604090910190565b0381885afa908115610531578b916104f8575b506104da576104d5906116f0565b61046a565b505050505050506104f591506104f06001611754565b61188e565b80f35b90508681813d831161052a575b61050f8183611639565b810103126105265761052090611747565b5f6104c7565b8a80fd5b503d610505565b88513d8d823e3d90fd5b505050505050506104f06104f592611754565b919050346103cc576020806003193601126103c85761056b6115d9565b92600254916001600160401b036105838185166117a6565b87969085871c6001600160a01b031690885b81518110156106b8576105df86866105ad8486611733565b518c51636bf8e80f60e01b815291166001600160401b03168a8201908152336020820152909283918291604090910190565b0381875afa9081156106ae578c91610679575b5061060557610600906116f0565b610595565b505050909192939495506106196001611754565b1693600685116106385750505067ffffffffffffffff19161760025580f35b5162461bcd60e51b815291820181905260248201527f496e76616c696420636f6e74726f6c20616c6c6f77206c697374206c6576656c604482015260649150fd5b90508681813d83116106a7575b6106908183611639565b810103126103a1576106a190611747565b5f6105f2565b503d610686565b8a513d8e823e3d90fd5b50505090919293949561061990611754565b9050346103cc576020806003193601126103c8576106e66115d9565b92600254936001600160401b03906106ff8287166117a6565b87966001600160a01b039190851c821690885b81518110156108bb5761072b888a8861013f8587611733565b0381875afa9081156103ac578c91610886575b506107515761074c906116f0565b610712565b50969750949550929350918691906107696001611754565b600354168451936107798561161e565b83855285519187830193636b48868360e11b85526084840191602485015260079216820b60448401526060606484015285518091528760a4840196019185905b898383106108695750505050506107da81849503601f198101835282611639565b5190826101675af16107ea6116b3565b901561085f57818180518101031261085b57806108158361080e86601695016116e2565b9201611880565b505b60030b03610823578380f35b5162461bcd60e51b815291820152601460248201527311985a5b1959081d1bc8189d5c9b88185cdcd95d60621b604482015260649150fd5b8480fd5b5060166015610817565b8451820b8952978801978c975090930192600191909101906107b9565b90508881813d83116108b4575b61089d8183611639565b810103126103a1576108ae90611747565b5f61073e565b503d610893565b50505061076988939294959697611754565b5050346100da5781806109366109286108e536611582565b8851639b23d3d960e01b602082019081526001600160a01b03958616602483015293851660448201529390911660648401526084830152929091829060a4820190565b03601f198101835282611639565b5190826101675af1916109476116b3565b921561097657602083805181010312610973575061096860208093016116e2565b905b519060030b8152f35b80fd5b506020915060159061096a565b8284346109735781600319360112610973579061099e611568565b926109a76115c3565b90600254936001600160401b0391828616956109c2876117a6565b958397849760018060a01b038094841c16985b8151811015610fab5785886109ea8385611733565b518651636bf8e80f60e01b815291166001600160401b03169181019182523360208084019190915291829082908e908290819060400103915afa918215610f59578992610f75575b5050610a4657610a41906116f0565b6109d5565b5050610a63919293949596979850610a5e6001611754565b6117a6565b968497855b8151811015610f6357610ab488610a7f8385611733565b518651636bf8e80f60e01b815291166001600160401b0316888201908152336020808301919091529283918391829160400190565b0381885afa918215610f59578992610f23575b5050610adb57610ad6906116f0565b610a68565b50505090919293949550610aef6001611754565b848260035416961660070b95815192610b078461161e565b8584528251866020958683019463707a02cd60e11b8652608484019060248501528b604485015260606064850152815180915260a48401908860a48260051b87010193019184905b8a838310610ef657505050505091610b7181839403601f198101835282611639565b516101679482865af1610b826116b3565b9015610edf578051810160608287830192031261032157610ba48683016116e2565b91610bb0868201611880565b506060810151908a8211610ed7570181603f82011215610edb5786810151908688610bda8461178f565b610be683519182611639565b848152019260051b820101928311610ed75786889101915b838310610ebf57505050506016905b60030b03610e855760025497610c24888a166117a6565b988799838992871c16915b8151811015610e7157610c48888a8d61013f8587611733565b0381875afa908115610531578b91610e3c575b50610c6e57610c69906116f0565b610c2f565b505050909192939495969750610c846001611754565b610c8d8961188e565b600254610c9b8982166117a6565b988899848a93881c16925b8151811015610e2657610cf0898b85610cbf8587611733565b518c51636bf8e80f60e01b815291166001600160401b03169181019182523360208301529283918291604090910190565b0381885afa908115610e1c578c91610de7575b50610d1657610d11906116f0565b610ca6565b505050508698879597949698508491610d2f6001611754565b8360035416938851928a84019563eca3691760e01b87526024850152306044850152166064830152608482015260848152610d69816115ef565b51925af1610d756116b3565b9015610ddd57828180518101031261085b57610d9483601692016116e2565b60030b03610da0578380f35b5162461bcd60e51b81529182015260196024820152784661696c656420746f207472616e7366657220746f6b656e7360381b604482015260649150fd5b5060166015610d94565b90508981813d8311610e15575b610dfe8183611639565b810103126103a157610e0f90611747565b8e610d03565b503d610df4565b89513d8e823e3d90fd5b50505050958098819597610d2f8396989a611754565b90508881813d8311610e6a575b610e538183611639565b8101031261052657610e6490611747565b8e610c5b565b503d610e49565b5050509091929394959697610c8490611754565b50505162461bcd60e51b815291820152601460248201527311985a5b1959081d1bc81b5a5b9d08185cdcd95d60621b604482015260649150fd5b8190610eca84611880565b8152019101908790610bfe565b8980fd5b8880fd5b50858351610eec8161161e565b5260166015610c0d565b600192949650610f138192949660a3198a82030186528851611675565b9601920192018b94939192610b4f565b90809250813d8311610f52575b610f3a8183611639565b8101031261032157610f4b90611747565b8c80610ac7565b503d610f30565b86513d8b823e3d90fd5b505050909192939495610aef90611754565b90809250813d8311610fa4575b610f8c8183611639565b8101031261032157610f9d90611747565b8d80610a32565b503d610f82565b5050610a5e610a639293949596979899611754565b9050346103cc57816003193601126103cc57610fda6115d9565b6001600160a01b039290602435848116908190036111db57600254946001600160401b039061100a8288166117a6565b8897861c821690885b81518110156111ca5788856110288385611733565b518a51636bf8e80f60e01b815291166001600160401b031691810191825233602080840191909152918290829081906040010381885afa9182156111c0578d9261118a575b50506110815761107c906116f0565b611013565b505050819293949596506110956001611754565b6003541693855193602085019563efef57f960e01b8752602486015260448501521660070b60648301526064825260a082019082821090821117611177578352518491829190826101675af16110e96116b3565b901561116d576020818051810103126103c85761110a6020601692016116e2565b60030b03611116578280f35b906020608492519162461bcd60e51b8352820152602b60248201527f4661696c656420746f20776970652061737365742066726f6d2074686520757360448201526a195c9cc81858d8dbdd5b9d60aa1b6064820152fd5b506016601561110a565b634e487b7160e01b865260418552602486fd5b90809250813d83116111b9575b6111a18183611639565b810103126103a1576111b290611747565b5f8061106d565b503d611197565b8a513d8f823e3d90fd5b505050611095829394959697611754565b8580fd5b839150346100da57826003193601126100da576111fa611568565b90602435906001600160401b0382116103c857366023830112156103c8578101356112248161165a565b9161123186519384611639565b818352366024838301011161085b576112918594929385602086829760246109289701838601378301015287516330c6e32f60e11b602082019081526001600160a01b039095166024820152604481018990529283916064830190611675565b5190826101675af1906112a26116b3565b917f4af4780e06fe8cb9df64b0794fa6f01399af979175bb988e35e0e57e594567bc84518215158152856020820152806112de87820187611675565b0390a11561130a57506113066016915b835193849360030b8452806020850152830190611675565b0390f35b825191506113178261161e565b81526113066015916112ee565b9050823461097357826003193601126109735761133f611568565b916113486115c3565b936002546001600160401b03946113608683166117a6565b949586956001600160a01b0393851c841690875b81518110156114fd5787846113898385611733565b518951636bf8e80f60e01b815291166001600160401b031691810191825233602080840191909152918290829081906040010381885afa9182156114f3578b926114bd575b50506113e2576113dd906116f0565b611374565b5050508597869597506113f86001979597611754565b836003541693875193602085019563eca3691760e01b875260248601523060448601521660648401521660070b608482015260848152611437816115ef565b5190826101675af16114476116b3565b90156114b3576020818051810103126103c8576114686020601692016116e2565b60030b03611474578280f35b906020606492519162461bcd60e51b835282015260196024820152784661696c656420746f207472616e7366657220746f6b656e7360381b6044820152fd5b5060166015611468565b90809250813d83116114ec575b6114d48183611639565b81010312610ed7576114e590611747565b8c806113ce565b503d6114ca565b89513d8d823e3d90fd5b50505085976113f8879698979597611754565b818591346100da5761092881610936849361152a36611582565b630aed65f560e11b602086019081526001600160a01b03948516602487015292841660448601529216606484015260848301919091529360a4820190565b600435906001600160a01b038216820361157e57565b5f80fd5b608090600319011261157e576001600160a01b03600435818116810361157e5791602435828116810361157e5791604435908116810361157e579060643590565b602435906001600160401b038216820361157e57565b600435906001600160401b038216820361157e57565b60c081019081106001600160401b0382111761160a57604052565b634e487b7160e01b5f52604160045260245ffd5b602081019081106001600160401b0382111761160a57604052565b90601f801991011681019081106001600160401b0382111761160a57604052565b6001600160401b03811161160a57601f01601f191660200190565b91908251928382525f5b84811061169f575050825f602080949584010152601f8019910116010190565b60208183018101518483018201520161167f565b3d156116dd573d906116c48261165a565b916116d26040519384611639565b82523d5f602084013e565b606090565b51908160030b820361157e57565b5f1981146116fe5760010190565b634e487b7160e01b5f52601160045260245ffd5b80511561171f5760200190565b634e487b7160e01b5f52603260045260245ffd5b805182101561171f5760209160051b010190565b5190811515820361157e57565b1561175b57565b60405162461bcd60e51b815260206004820152600c60248201526b155b985d5d1a1bdc9a5e995960a21b6044820152606490fd5b6001600160401b03811161160a5760051b60200190565b6001600160401b039081166117e5576040519060408201908282109082111761160a5760405260018152602036818301375f6117e182611712565b5290565b6040519060e082019081118282101761160a576040526006815260c03660208301375f8061181283611712565b5281516001101561186c576001604083015281516002101561186c576002606083015281516003101561186c576003608083015281516004101561186c57600560a083015281516005101561186c5750600660c082015290565b634e487b7160e01b81526032600452602490fd5b51908160070b820361157e57565b600354604051633cb0c7fd60e21b60208083019182526001600160a01b039384166024840152848416604480850191909152835293919291601f1991906118d6606486611639565b5f808096516101679482865af16118eb6116b3565b90156119e7576040818051810103126111db5760408161190f8961191694016116e2565b5001611747565b6119df57600354604051638f8d7f9960e01b8882019081526001600160a01b0396909216861660248201529190941660448201526064928301815284938493909184916119639082611639565b51925af1906119706116b3565b91156119d4578282805181010312610973575061199082601692016116e2565b60030b0361199b5750565b6064906040519062461bcd60e51b8252600482015260126024820152714661696c6520746f206772616e74204b594360701b6044820152fd5b505060166015611990565b505050505050565b508461191656fea26469706673582212209002e5a9f6877407af8a8d51a5a98e2e9c1470ea94937c0f6f607b244919d80264736f6c63430008140033a6eef7e35abe7026729641147f7915573c7e97b47efa546f5f6e3230263bcb49cc69885fda6bcc1a4ace058b4a62bf5e179ea78fd58a1ccd71c22cc9b688792fedc95719e9a3b28dd8e80877cb5880a9be7de1a13fc8b05e7999683b6b5676437dfe757ecd65cbd7922a9c0161e935dd7fdbcc0e999689c7d31633896b1fc60b8f331abe73332f95a25873e8b430885974c0409691f89d643119a11623a7924ad9d16d34ffb15ba3a3d852f0d403e2ce1d691fb54de27ac87cd2f993f3ec330fe2689cd4a84e23ad2f564004f1c9013e9589d260bde6380aba3ca7e09e4df40ca2646970667358221220650a457bb8d73d7b86ce8625963123f071cdb99da6bfdcc719837fa25a70c96364736f6c634300081400336080604052346200029b57620021ed803803806200001d81620002b4565b9283398101906060818303126200029b5780516001600160401b0391908281116200029b57810192601f908082860112156200029b578451928484116200024457602093601f19966200007686898785011601620002b4565b938285528683830101116200029b5785905f5b8381106200029f5750505f918401015280840151906001600160a01b03821682036200029b57604001518581168091036200029b576006811162000258575f549168010000000000000000600160e01b039060401b169163ffffffff60e01b1617175f5560019283805560ff1960035416600355815194851162000244576002548481811c9116801562000239575b828210146200022557838111620001dc575b5080928511600114620001755750839450908392915f9462000169575b50501b915f199060031b1c1916176002555b604051611f129081620002db8239f35b015192505f8062000147565b92948490811660025f52845f20945f905b88838310620001c15750505010620001a8575b505050811b0160025562000159565b01515f1960f88460031b161c191690555f808062000199565b85870151885590960195948501948793509081019062000186565b60025f52815f208480880160051c8201928489106200021b575b0160051c019085905b8281106200020f5750506200012a565b5f8155018590620001ff565b92508192620001f6565b634e487b7160e01b5f52602260045260245ffd5b90607f169062000118565b634e487b7160e01b5f52604160045260245ffd5b6064856040519062461bcd60e51b825280600483015260248201527f496e76616c696420636f6e74726f6c20616c6c6f77206c697374206c6576656c6044820152fd5b5f80fd5b81810183015186820184015287920162000089565b6040519190601f01601f191682016001600160401b03811183821017620002445760405256fe60406080815260048036101561004b575b50361561001b575f80fd5b807f9936746a4565f9766fa768f88f56a7487c78780ac179562773d1c75c5269537e9151338152346020820152a1005b5f90813560e01c90816328cafd721461157857816331b3203a1461128557816342c8afad14610f24578163431d8ffe14610dfa578163439e2e4514610e4357816344eb5e0014610dfa5781634743c2fd14610dcd57816347e7ef2414610c1a57816352226ef014610bfc57816352696601146108565781635e7db13d14610a5a57816369328dec1461089f5781638e543a1214610856578163a1d34a4214610702578163a7efe34814610523578163acbc682014610317578163b2567d1f146101f857508063c7ea4d44146101d2578063dce83ae314610189578063de287359146101615763e9ea28de0361001057903461015d578160031936011261015d5760209060ff6003541690519015158152f35b5080fd5b50903461015d578160031936011261015d5790548151911c6001600160a01b03168152602090f35b50903461015d578060031936011261015d57806020926101a7611720565b6101af61173a565b6001600160a01b0391821683526006865283832091168252845220549051908152f35b50903461015d578160031936011261015d576001600160401b0360209254169051908152f35b90508234610313576020908160031936011261030f5782359182151580930361030b578454936001600160401b039461023286821661188f565b879691851c6001600160a01b03169190875b81518110156102fa57610279868461025c84866117d0565b518a51636bf8e80f60e01b815293849283923391168b8401611831565b0381885afa9081156102f0578b916102c3575b5061029f5761029a9061178d565b610244565b5050505050505090506102b26001611854565b60ff80196003541691161760035580f35b6102e39150873d89116102e9575b6102db81836117e4565b810190611819565b8b61028c565b503d6102d1565b88513d8d823e3d90fd5b50505050505050906102b290611854565b8480fd5b8380fd5b8280fd5b91905034610520578260031936011261052057610332611720565b602435908254906001600160401b039461034d86841661188f565b949586956001600160a01b0394891c851690875b815181101561050e576103988461037883856117d0565b51168c5190636bf8e80f60e01b82528180602094859333908c8401611831565b0381885afa918215610504578b926104e7575b50506103bf576103ba9061178d565b610361565b505050909192939495506103d36001611854565b6103db611982565b8447106104a8578580808088875af1903d156104a2573d90811161048f57875190610410601f8201601f1916602001836117e4565b81528660203d92013e5b1561045557507f645e52ee0ce5c05d60f4b051028f29630be7001f5d84cba67fe6872db872cff8916020918596519485521692a36001805580f35b606490602087519162461bcd60e51b8352820152601460248201527312109054881d1c985b9cd9995c8819985a5b195960621b6044820152fd5b634e487b7160e01b875260418352602487fd5b5061041a565b865162461bcd60e51b81526020818401526019602482015278496e73756666696369656e7420484241522062616c616e636560381b6044820152606490fd5b6104fd9250803d106102e9576102db81836117e4565b5f806103ab565b8d513d8d823e3d90fd5b5050509091929394956103d390611854565b80fd5b90508234610313576020918260031936011261030f57610541611720565b918454936001600160401b039461055986821661188f565b87966001600160a01b0392851c831691885b81518110156106f0576105a086898561058485876117d0565b51168a519384928392636bf8e80f60e01b845233918401611831565b0381885afa9081156106e6578c916106c9575b506105c6576105c19061178d565b61056b565b505050509091929394506105da6001611854565b825163248a35ef60e11b81523085820152941660248501819052938181604481896101675af19182156106bf5790601692918792610692575b505060070b036106465750507fbbbf805ef99ca7d0b7d2cc769719f2a281c9b3331a3642efa75a712e3094a1668280a280f35b61068e92505191829162461bcd60e51b835282016060906020815260196020820152782330b4b632b2103a379030b9b9b7b1b4b0ba32903a37b5b2b760391b60408201520190565b0390fd5b6106b19250803d106106b8575b6106a981836117e4565b810190611969565b8680610613565b503d61069f565b83513d88823e3d90fd5b6106e09150873d89116102e9576102db81836117e4565b8c6105b3565b88513d8e823e3d90fd5b5050505090919293946105da90611854565b83915034610313576020918260031936011261030f578135916001600160401b03938484168094036108525785549261073c86851661188f565b879685831c6001600160a01b031691885b815181101561084057610782868461076584866117d0565b518851636bf8e80f60e01b815293849283923391168d8401611831565b0381885afa908115610836578c91610819575b506107a8576107a39061178d565b61074d565b505050509091929394506107bc6001611854565b600685116107d85750505067ffffffffffffffff191617815580f35b5162461bcd60e51b815291820181905260248201527f496e76616c696420636f6e74726f6c20616c6c6f77206c697374206c6576656c604482015260649150fd5b6108309150873d89116102e9576102db81836117e4565b8c610795565b86513d8e823e3d90fd5b5050505090919293946107bc90611854565b8580fd5b82843461015d578060031936011261015d5780602092610874611720565b61087c61173a565b6001600160a01b0391821683526005865283832091168252845220549051908152f35b83915034610313576060366003190112610313576108bb611720565b6001600160a01b039260443591908483168303610852578554946001600160401b03946108e986881661188f565b8897841c831690885b8151811015610a47576109298961090983856117d0565b5116875190636bf8e80f60e01b82528180602094859333908b8401611831565b0381885afa918215610a3d578d92610a20575b50506109505761094b9061178d565b6108f2565b505050909192939495506109676001969296611854565b61096f611982565b86549161097d81841661188f565b88978994861c16935b8151811015610a0e5761099d8361090983856117d0565b03818a5afa9182156106e6578c926109f1575b50506109c4576109bf9061178d565b610986565b5050505050506109ea92506109d96001611854565b6109e1611982565b602435916119a5565b6001805580f35b610a079250803d106102e9576102db81836117e4565b8b806109b0565b5050505050506109d96109ea93611854565b610a369250803d106102e9576102db81836117e4565b8c8061093c565b88513d8f823e3d90fd5b5050509095610967909592939495611854565b838334610520578160031936011261052057610a74611720565b916024359082546001600160401b0394610a8f86831661188f565b949586956001600160a01b0393851c84169190875b8151811015610bea578a83610ab983856117d0565b5116885190636bf8e80f60e01b82528180610adb602095869433918401611831565b0381895afa918215610be057908d9695949392918c92610bc3575b5050610b0f57610b059061178d565b9091929350610aa4565b5050505050909192939450610b246001611854565b1691828452846020528184205494858211610b8057610b66827faa3cec92d25e6e7cf3bf119de96782be90a19b7f9d717dc51e03d3f8f8aa22b1959697611e0e565b90858752602052808387205582519182526020820152a280f35b606490602084519162461bcd60e51b8352820152601e60248201527f43616e6e6f7420756e6c6f636b206d6f7265207468616e206c6f636b656400006044820152fd5b610bd99250803d106102e9576102db81836117e4565b8d80610af6565b89513d8d823e3d90fd5b505050509091929394610b2490611854565b82843461015d578060031936011261015d57806020926101a7611720565b9050828060031936011261031357610c30611720565b815163e1f21c6760e01b81526001600160a01b03821684820190815233602082810191909152602435604083018190529094939092909181906060010390858161016793818b865af1908115610dc357906016918991610da6575b5060070b03610d6357835163eca3691760e01b81526001600160a01b03909216868301523360248301523060448301526001600160401b0390921660070b60648201529083908290608490829089905af1908115610d5957906016918691610d3c575b5060070b03610cfb578380f35b5162461bcd60e51b815291820152601860248201527f4661696c656420746f207472616e7366657220746f6b656e0000000000000000604482015260649150fd5b610d539150843d86116106b8576106a981836117e4565b86610cee565b82513d87823e3d90fd5b835162461bcd60e51b8152808701869052601760248201527f4661696c656420746f20617070726f766520746f6b656e0000000000000000006044820152606490fd5b610dbd9150873d89116106b8576106a981836117e4565b89610c8b565b85513d8a823e3d90fd5b82843461015d57602036600319011261015d57602090610df3610dee611720565b611e1b565b9051908152f35b82843461015d578060031936011261015d5780602092610e18611720565b610e2061173a565b6001600160a01b0391821683526007865283832091168252845220549051908152f35b9050823461031357606036600319011261031357610e5f611720565b90610e6861173a565b9084546001600160401b0394610e7f86831661188f565b879692841c6001600160a01b03169290875b8151811015610f1257610ea88361090983856117d0565b03818a5afa9182156106e6578c92610ef5575b5050610ecf57610eca9061178d565b610e91565b5050505050506109ea9250610ee46001611854565b610eec611982565b604435916119a5565b610f0b9250803d106102e9576102db81836117e4565b8b80610ebb565b505050505050610ee46109ea93611854565b8391503461031357610f3536611750565b92939591908754936001600160401b0396610f5188871661188f565b8a996001600160a01b0397909190871c8816908b5b815181101561126f578d8c610f7b83856117d0565b5116610f9e8b5191636bf8e80f60e01b83528280602093849333908d8401611831565b0381895afa9283156112645792611247575b5050610fc457610fbf9061178d565b610f66565b5050508697989950610fdd600197929394959697611854565b1695868a526020926005845281878c20991698898c52845285878c20541061121057878b5260058452868b20898c528452868b2061101c878254611e0e565b9055878b5260068452868b20898c528452868b2061103b868254611e0e565b9055878b5260058452868b20898c528452868b20546111f75750868a5260078352858a20888b5283528986812055975b89549061107981831661188f565b8b9a8c93891c16925b81518110156111e3578c6110b8878561109b85876117d0565b518d51636bf8e80f60e01b815293849283923391168c8401611831565b0381895afa9182156111d857916111bb575b506110dd576110d89061178d565b611082565b5050505090919293949596506110f36001611854565b86885280825284882054808411611179577faa3cec92d25e6e7cf3bf119de96782be90a19b7f9d717dc51e03d3f8f8aa22b1868594936111577fa6f6d5e50bc84f153a0d6a9f9b37780433f92dc32d7e10f975ab3831c36898fa9998978c95611e0e565b90848d52855280828d205581519086825285820152a28351928352820152a380f35b5060649185519162461bcd60e51b8352820152601e60248201527f43616e6e6f7420756e6c6f636b206d6f7265207468616e206c6f636b656400006044820152fd5b6111d29150873d89116102e9576102db81836117e4565b8e6110ca565b8b51903d90823e3d90fd5b50505050909192939495966110f390611854565b878b5260078452868b20898c528452868b20559761106b565b865162461bcd60e51b815280840185905260116024820152704e6f206c6f616e7320746f20726570617960781b6044820152606490fd5b61125d9250803d106102e9576102db81836117e4565b8f80610fb0565b8c51903d90823e3d90fd5b505050610fdd8798999a97929394959697611854565b905082346103135761129636611750565b90939592948754946001600160401b03966112b288881661188f565b8a996001600160a01b0398909190851c8916908b5b8151811015611563578d8c6112dc83856117d0565b51168b895191636bf8e80f60e01b835282806112ff602094859433918401611831565b0381895afa928315611558579261153b575b5050611325576113209061178d565b6112c7565b50505087989950611341600198929394959697989a999a611854565b1695868a52602091600583528a858120998b83169a8b835285528682206113698a8254611ecf565b9055898252600685528682208b83528552868220611388878254611ecf565b9055898252600785528682208b83528552878783205581546113ab82821661188f565b90839d84918a1c16935b8251821015611522576113ea88856113cd85876117d0565b518d51636bf8e80f60e01b815293849283923391168d8401611831565b0381895afa9182156111d85791611505575b506114105761140a9061178d565b8e6113b5565b5050505061142b91929394959697989950610dee6001611854565b83116114b657917f7695c943e86fe119073b098f1b278727c236f4a661c96a660dacbf88f89c606795939160609593898b52808252838b2061146e848254611ecf565b9055898b528152887fb8cecfd0e38e35fdd1cbaa8877116ea7f0dc948c1317b8ce1a47eaedfe64154684808d205481519086825285820152a28251948552840152820152a380f35b60849184519162461bcd60e51b8352820152602560248201527f496e73756666696369656e7420756e6c6f636b65642062616c616e636520746f604482015264206c6f636b60d81b6064820152fd5b61151c9150883d8a116102e9576102db81836117e4565b5f6113fc565b5050505050610dee61142b92939495969798999a611854565b6115519250803d106102e9576102db81836117e4565b8f80611311565b8a51903d90823e3d90fd5b505050611341889a9892939495969798611854565b83915034610313578160031936011261031357611593611720565b9160243584546001600160401b03946115ad86831661188f565b87966001600160a01b0393861c841691885b815181101561170e5788836115d483856117d0565b5116895190636bf8e80f60e01b825281806115f6602095869433918401611831565b0381895afa918215611704578d926116e7575b505061161d576116189061178d565b6115bf565b505050509091929394506116316001611854565b61163a81611e1b565b831161169657907fb8cecfd0e38e35fdd1cbaa8877116ea7f0dc948c1317b8ce1a47eaedfe64154693929116938486528060205282862061167c838254611ecf565b90558486526020528185205482519182526020820152a280f35b835162461bcd60e51b8152602081870152602560248201527f496e73756666696369656e7420756e6c6f636b65642062616c616e636520746f604482015264206c6f636b60d81b6064820152608490fd5b6116fd9250803d106102e9576102db81836117e4565b8c80611609565b8a513d8f823e3d90fd5b50505050909192939461163190611854565b600435906001600160a01b038216820361173657565b5f80fd5b602435906001600160a01b038216820361173657565b60a0906003190112611736576001600160a01b03906004358281168103611736579160243590811681036117365790604435906064359060843590565b5f19811461179b5760010190565b634e487b7160e01b5f52601160045260245ffd5b8051156117bc5760200190565b634e487b7160e01b5f52603260045260245ffd5b80518210156117bc5760209160051b010190565b90601f801991011681019081106001600160401b0382111761180557604052565b634e487b7160e01b5f52604160045260245ffd5b90816020910312611736575180151581036117365790565b6001600160401b0390911681526001600160a01b03909116602082015260400190565b1561185b57565b60405162461bcd60e51b815260206004820152600c60248201526b155b985d5d1a1bdc9a5e995960a21b6044820152606490fd5b6001600160401b039081166118ce57604051906040820190828210908211176118055760405260018152602036818301375f6118ca826117af565b5290565b6040519060e0820190811182821017611805576040526006815260c03660208301375f806118fb836117af565b5281516001101561195557600160408301528151600210156119555760026060830152815160031015611955576003608083015281516004101561195557600560a08301528151600510156119555750600660c082015290565b634e487b7160e01b81526032600452602490fd5b9081602091031261173657518060070b81036117365790565b600260015414611993576002600155565b604051633ee5aeb560e01b8152600490fd5b6001600160a01b0382811693908415611bc2576040805163e1f21c6760e01b81526001600160a01b0386166004820152306024820152604481018490526101679560209592935f9390929091908781606481888d5af1908115611bb857906016918691611b9b575b5060070b03611b5b57611a1f90611e1b565b8511611b065782916084879286519485938492630aed65f560e11b84528d6004850152306024850152169a8b60448401528960648401525af1918215611afb5790601692611ade575b5060070b03611a9b57519081527f645e52ee0ce5c05d60f4b051028f29630be7001f5d84cba67fe6872db872cff89190a3565b5162461bcd60e51b815260048101839052601960248201527f4661696c656420746f207472616e7366657220617373657473000000000000006044820152606490fd5b611af59150853d87116106b8576106a981836117e4565b5f611a68565b8351903d90823e3d90fd5b835162461bcd60e51b815260048101879052602860248201527f696e73756666696369656e742061737365747320746f20636f6d706c657465206044820152673a3930b739b332b960c11b6064820152608490fd5b845162461bcd60e51b81526020600482015260196024820152782330b4b632b2103a379030b9b9b7b1b4b0ba32903a37b5b2b760391b6044820152606490fd5b611bb29150893d8b116106b8576106a981836117e4565b5f611a0d565b86513d87823e3d90fd5b92611bcf91929450611e1b565b8111611dba575f918254936001600160401b0394611bee86821661188f565b958596869085604094851c16915b8151811015611da857611c3484611c1383856117d0565b5116865190636bf8e80f60e01b825281806020948593339060048401611831565b0381885afa918215611d9e578b92611d81575b5050611c5b57611c569061178d565b611bfc565b50505090919293949550611c6f6001611854565b611c77611982565b844710611d41578580808088875af1903d15611d3b573d908111611d2757825190611cac601f8201601f1916602001836117e4565b81528660203d92013e5b15611ced575192835216907f645e52ee0ce5c05d60f4b051028f29630be7001f5d84cba67fe6872db872cff890602090a360018055565b5162461bcd60e51b815260206004820152601460248201527312109054881d1c985b9cd9995c8819985a5b195960621b6044820152606490fd5b634e487b7160e01b87526041600452602487fd5b50611cb6565b815162461bcd60e51b8152602060048201526019602482015278496e73756666696369656e7420484241522062616c616e636560381b6044820152606490fd5b611d979250803d106102e9576102db81836117e4565b5f80611c47565b87513d8d823e3d90fd5b505050909192939495611c6f90611854565b60405162461bcd60e51b815260206004820152602660248201527f696e73756666696369656e74204842415220746f20636f6d706c65746520747260448201526530b739b332b960d11b6064820152608490fd5b9190820391821161179b57565b6001600160a01b03165f8181526004602052604081205490918015611ebc576020602491604051928380926370a0823160e01b82523060048301525afa908115611eb1578391611e80575b50808211611e7b57611e789250611e0e565b90565b505090565b90506020813d8211611ea9575b81611e9a602093836117e4565b8101031261031357515f611e66565b3d9150611e8d565b6040513d85823e3d90fd5b5047808211611e7b57611e789250611e0e565b9190820180921161179b5756fea26469706673582212208eb12f7b8819115de9b1e0f797daa060fd31c423751fbb4aedfbf530a877dd0b64736f6c63430008140033","linkReferences":{}},"methodIdentifiers":{"acl()":"de287359","bridgedAssets(string)":"5a32d031","controlAllowList()":"c7ea4d44","createAsset(string,string,address,uint64)":"daa96e19","lockAsset(address,address,uint256)":"dcc951bb","lockReserves(address,uint256)":"09393a1e","releaseAsset(address,string,uint256,uint256)":"0a95b0d2","releaseReserves(address,string,uint256,uint256)":"bd4fa12e","reserveToken()":"f4325d67","setControlAllowList(uint64)":"a1d34a42"},"id":21}