{"abi":[{"type":"constructor","inputs":[{"name":"treasury","type":"address","internalType":"address"},{"name":"aclContract","type":"address","internalType":"address"},{"name":"allowList","type":"uint64","internalType":"uint64"},{"name":"reserveToken","type":"address","internalType":"address"}],"stateMutability":"nonpayable"},{"type":"function","name":"acl","inputs":[],"outputs":[{"name":"","type":"address","internalType":"contract AccessController"}],"stateMutability":"view"},{"type":"function","name":"bridgedAssets","inputs":[{"name":"","type":"string","internalType":"string"}],"outputs":[{"name":"","type":"address","internalType":"contract AbstractCradleAssetManager"}],"stateMutability":"view"},{"type":"function","name":"controlAllowList","inputs":[],"outputs":[{"name":"","type":"uint64","internalType":"uint64"}],"stateMutability":"view"},{"type":"function","name":"createAsset","inputs":[{"name":"_name","type":"string","internalType":"string"},{"name":"_symbol","type":"string","internalType":"string"},{"name":"aclContract","type":"address","internalType":"address"},{"name":"allowList","type":"uint64","internalType":"uint64"}],"outputs":[{"name":"","type":"address","internalType":"address"},{"name":"","type":"address","internalType":"address"}],"stateMutability":"payable"},{"type":"function","name":"lockAsset","inputs":[{"name":"user","type":"address","internalType":"address"},{"name":"asset","type":"address","internalType":"address"},{"name":"amount","type":"uint256","internalType":"uint256"}],"outputs":[],"stateMutability":"nonpayable"},{"type":"function","name":"lockReserves","inputs":[{"name":"user","type":"address","internalType":"address"},{"name":"amount","type":"uint256","internalType":"uint256"}],"outputs":[],"stateMutability":"nonpayable"},{"type":"function","name":"releaseAsset","inputs":[{"name":"user","type":"address","internalType":"address"},{"name":"symbol","type":"string","internalType":"string"},{"name":"mintAmount","type":"uint256","internalType":"uint256"},{"name":"unlockAmount","type":"uint256","internalType":"uint256"}],"outputs":[],"stateMutability":"nonpayable"},{"type":"function","name":"releaseReserves","inputs":[{"name":"user","type":"address","internalType":"address"},{"name":"symbol","type":"string","internalType":"string"},{"name":"burnAmount","type":"uint256","internalType":"uint256"},{"name":"releaseAmount","type":"uint256","internalType":"uint256"}],"outputs":[],"stateMutability":"nonpayable"},{"type":"function","name":"reserveToken","inputs":[],"outputs":[{"name":"","type":"address","internalType":"address"}],"stateMutability":"view"},{"type":"function","name":"setControlAllowList","inputs":[{"name":"_newLevel","type":"uint64","internalType":"uint64"}],"outputs":[],"stateMutability":"nonpayable"},{"type":"function","name":"treasury","inputs":[],"outputs":[{"name":"","type":"address","internalType":"address"}],"stateMutability":"view"}],"bytecode":{"object":"0x608034610121576001600160401b03601f61289638819003918201601f191684019183831185841017610125578085926080946040528339810103126101215761004882610139565b9161005560208201610139565b9060408101519283168093036101215760606100719101610139565b91600681116100dd575f80546001600160e01b03191691909117604092831b600160401b600160e01b0316179055600280546001600160a01b03199081166001600160a01b039586161790915560018054909116929093169190911790915551612748908161014e8239f35b606460405162461bcd60e51b815260206004820152602060248201527f496e76616c696420636f6e74726f6c20616c6c6f77206c697374206c6576656c6044820152fd5b5f80fd5b634e487b7160e01b5f52604160045260245ffd5b51906001600160a01b03821682036101215756fe608060408181526004918236101562000016575f80fd5b5f92833560e01c9184836309393a1e146200086157905082630a95b0d21462000684575081635a32d031146200061457816361d027b314620005e9578163a1d34a42146200055d57838263bd4fa12e146200037d57508163c7ea4d441462000354578163daa96e1914620001b9578163dcc951bb146200010257508063de28735914620000d95763f4325d6714620000ac575f80fd5b34620000d55781600319360112620000d55760015490516001600160a01b039091168152602090f35b5080fd5b5034620000d55781600319360112620000d55790548151911c6001600160a01b03168152602090f35b905034620001b5576060366003190112620001b55762000121620008ef565b916024356001600160a01b038082168203620001b15785941692833b15620001ad5782516314657eb960e11b81526001600160a01b039092169082019081526044356020820152909284918491908290849082906040015b03925af1908115620001a457506200018e5750f35b620001999062000906565b620001a15780f35b80fd5b513d84823e3d90fd5b8480fd5b5f80fd5b8280fd5b9050826080366003190112620001a15767ffffffffffffffff908235828111620000d557620001ec903690850162000952565b90602435838111620000d55762000207903690860162000952565b936001600160a01b039260443584811690819003620001b157606435868116809103620001b157885192611c6680850198858a10908a11176200034157620002648594939260609262000aad873960808b5260808b019062000a85565b986200027a60209a8281038c8401528c62000a85565b938c8201520152039034f0801562000337578484620002a892169681895193828580945193849201620009fd565b81016003815203019020856bffffffffffffffffffffffff60a01b8254161790558386518092637e062a3560e11b825281885afa9182156200032c5791620002f8575b5084519384521690820152f35b6200031d9150833d851162000324575b6200031481836200092f565b81019062000a20565b85620002eb565b503d62000308565b8651903d90823e3d90fd5b86513d84823e3d90fd5b634e487b7160e01b875260418652602487fd5b505034620000d55781600319360112620000d55767ffffffffffffffff60209254169051908152f35b8091843462000559576200039136620009ad565b949291906020620003ab86519384815193849201620009fd565b82016003815282602060018060a01b03948593030190205416620003d181151562000a41565b8551637e062a3560e11b815284841692906020818881865afa90811562000528578a9162000536575b50833b1562000532578751635e7db13d60e01b81526001600160a01b03909116878201908152602081018390528a9082908190604001038183885af180156200052857908a9162000510575b5050813b156200050c57604467ffffffffffffffff918a80948a51968795869463393b766560e11b8652168b85015260248401525af180156200050257908791620004e6575b50508060025416906001541691813b15620004e257845163439e2e4560e01b81526001600160a01b0391821694810194855292166020840152604083019490945292849184919082908490829060600162000179565b8680fd5b620004f19062000906565b620004fe5785886200048c565b8580fd5b85513d89823e3d90fd5b8880fd5b6200051b9062000906565b6200050c57888b62000446565b88513d8c823e3d90fd5b8980fd5b62000552915060203d811162000324576200031481836200092f565b8b620003fa565b5050fd5b905034620001b5576020366003190112620001b55780359167ffffffffffffffff8316809303620001b15760068311620005a6575050815467ffffffffffffffff191617815580f35b906020606492519162461bcd60e51b8352820152602060248201527f496e76616c696420636f6e74726f6c20616c6c6f77206c697374206c6576656c6044820152fd5b505034620000d55781600319360112620000d55760025490516001600160a01b039091168152602090f35b828434620001a1576020366003190112620001a15782359067ffffffffffffffff8211620001a157506020926200064e9136910162000952565b826200066383519283815193849201620009fd565b6003908201908152819003830190205490516001600160a01b039091168152f35b8091843462000559576020916200069b36620009ad565b909186620006b587989598519283815193849201620009fd565b8101600381528160018060a01b03958693849303019020541696620006dc88151562000a41565b16928060015416843b156200050c578651635e7db13d60e01b81526001600160a01b0390911686820190815260208101849052899082908190604001038183895af1801562000857579089916200083b575b505080600254169060015416843b156200050c57865163439e2e4560e01b81526001600160a01b039283168782019081529290911660208301526040820192909252879082908190606001038183875af18015620005025790879162000823575b505067ffffffffffffffff1693803b15620004fe578351631f73a13960e31b8152838101869052868160248183865af1801562000502579087916200080b575b5050803b15620004fe57859283604492865197889586946339a4ed0560e11b865285015260248401525af1908115620001a457506200018e5750f35b620008169062000906565b620004fe578588620007cf565b6200082e9062000906565b620004fe5785886200078f565b620008469062000906565b6200085357878a6200072e565b8780fd5b87513d8b823e3d90fd5b9182859134620000d55782600319360112620000d5576001600160a01b03806200088a620008ef565b16906001541691813b15620008eb576314657eb960e11b86526001600160a01b039092169185019182526024356020830152849182908490829060400103925af1908115620001a45750620008dd575080f35b620008e89062000906565b80f35b8380fd5b600435906001600160a01b0382168203620001b157565b67ffffffffffffffff81116200091b57604052565b634e487b7160e01b5f52604160045260245ffd5b90601f8019910116810190811067ffffffffffffffff8211176200091b57604052565b81601f82011215620001b15780359067ffffffffffffffff82116200091b57604051926200098b601f8401601f1916602001856200092f565b82845260208383010111620001b157815f926020809301838601378301015290565b906080600319830112620001b1576004356001600160a01b0381168103620001b157916024359067ffffffffffffffff8211620001b157620009f29160040162000952565b906044359060643590565b5f5b83811062000a0f5750505f910152565b8181015183820152602001620009ff565b90816020910312620001b157516001600160a01b0381168103620001b15790565b1562000a4957565b60405162461bcd60e51b8152602060048201526014602482015273105cdcd95d08191bd95cc81b9bdd08195e1a5cdd60621b6044820152606490fd5b9060209162000aa081518092818552858086019101620009fd565b601f01601f191601019056fe60808060405262001c6680380380916200001a828562000857565b83398101608082820312620006fb5781516001600160401b038111620006fb578162000048918401620008ba565b602083015190916001600160401b038211620006fb576200006b918401620008ba565b604083015190926001600160a01b0382168203620006fb57606001516001600160401b03811690819003620006fb57600160208181525f8051602062001b868339815191529190915560025f8051602062001ba68339815191525560045f8051602062001c268339815191525560085f8051602062001be68339815191525560105f8051602062001bc6833981519152555f8051602062001c468339815191525560065f81905260405f8051602062001c06833981519152558111620007f757600280546001600160e01b03191691909117604092831b600160401b600160e01b0316179055519161012083016001600160401b03811184821017620007e35760405260608352606060208401525f60408401526060808401525f60808401525f60a08401525f60c0840152606060e0840152620001a862000907565b91610100928385015283526020830152306040830152620001c862000907565b30602082015262786450604082015281830152604051808281011060018060401b038383011117620007e357818101604052600781525f5b60e08110620007c957506200021462000972565b505f805260016020525f8051602062001b86833981519152546200023762000936565b306020820152604051916200024c836200083b565b825260208201526200025e8262000996565b526200026a8162000996565b506200027562000972565b5060015f8190526020525f8051602062001ba6833981519152546200029962000936565b30602082015260405191620002ae836200083b565b82526020820152620002c082620009b8565b52620002cc81620009b8565b50620002d762000972565b5060025f5260016020525f8051602062001c2683398151915254620002fb62000936565b3060208201526040519162000310836200083b565b825260208201526200032282620009c9565b526200032e81620009c9565b506200033962000972565b5060035f5260016020525f8051602062001be6833981519152546200035d62000936565b3060208201526040519162000372836200083b565b825260208201526200038482620009da565b526200039081620009da565b506200039b62000972565b5060045f5260016020525f8051602062001bc683398151915254620003bf62000936565b30602082015260405191620003d4836200083b565b82526020820152620003e682620009eb565b52620003f281620009eb565b50620003fd62000972565b5060055f5260016020525f8051602062001c46833981519152546200042162000936565b3060208201526040519162000436836200083b565b825260208201526200044882620009fc565b526200045481620009fc565b506200045f62000972565b5060065f5260016020525f8051602062001c06833981519152546200048362000936565b3060208201526040519162000498836200083b565b82526020820152620004aa8262000a0d565b52620004b68162000a0d565b5060e083015280820151805160070b1580620007b9575b620007a9575b5060405190630fb65bf360e01b6020830152606060248301526200054f620005256200050e855161016060848701526101e486019062000a1e565b60208601518582036083190160a487015262000a1e565b60408501516001600160a01b031660c485015260608501518482036083190160e486015262000a1e565b926080810151151561010484015260a081015160070b61012484015260c0810151151561014484015260e08101519360831984820301610164850152845180825260208201916020808360051b8301019701925f915b83831062000714575f808962000601818d60408d8d0151805160070b61018485015260018060a01b036020820151166101a4850152015160070b6101c48301528460448301526008606483015203601f19810183528262000857565b602081519101346101675af13d156200070b573d9062000621826200087b565b9162000631604051938462000857565b82523d5f602084013e5b15620006ff57604081805181010312620006fb576020810151908160030b809203620006fb57604001516001600160a01b0381169190829003620006fb576016905b60030b03620006b657600380546001600160a01b0319166001600160a01b0392909216919091179055604051611140908162000a468239f35b60405162461bcd60e51b815260206004820152601660248201527f4661696c656420746f2063726561746520746f6b656e000000000000000000006044820152606490fd5b5f80fd5b505f601660156200067d565b6060906200063b565b9091929397602080600192601f19858203018652818c5180518352015190604083820152815115156040820152848060a01b038383015116606082015260c06200078962000772604085015160a0608086015260e085019062000a1e565b6060850151848203603f190160a086015262000a1e565b926080878060a01b03910151169101529a019301930191939290620005a5565b60406276a7009101525f620004d3565b50604081015160070b15620004cd565b602090620007d662000972565b8282850101520162000200565b634e487b7160e01b5f52604160045260245ffd5b606460405162461bcd60e51b815260206004820152602060248201527f496e76616c696420636f6e74726f6c20616c6c6f77206c697374206c6576656c6044820152fd5b604081019081106001600160401b03821117620007e357604052565b601f909101601f19168101906001600160401b03821190821017620007e357604052565b6001600160401b038111620007e357601f01601f191660200190565b5f5b838110620008a95750505f910152565b818101518382015260200162000899565b81601f82011215620006fb578051620008d3816200087b565b92620008e3604051948562000857565b81845260208284010111620006fb5762000904916020808501910162000897565b90565b60405190606082016001600160401b03811183821017620007e3576040525f6040838281528260208201520152565b6040519060a082016001600160401b03811183821017620007e3576040525f608083828152826020820152606060408201526060808201520152565b6040519062000981826200083b565b815f815260206200099162000936565b910152565b805115620009a45760200190565b634e487b7160e01b5f52603260045260245ffd5b805160011015620009a45760400190565b805160021015620009a45760600190565b805160031015620009a45760800190565b805160041015620009a45760a00190565b805160051015620009a45760c00190565b805160061015620009a45760e00190565b9060209162000a398151809281855285808601910162000897565b601f01601f191601019056fe6080806040526004361015610012575f80fd5b5f3560e01c90816315dacbea14610d475750806331d6ebdf14610b68578063618dc65e14610a1f5780637276ecca146109025780637349da0a146105ae5780639b23d3d9146105015780639dbead42146103c4578063a1d34a4214610341578063bef498131461031e578063c7ea4d44146102f8578063de287359146102ce578063fb9d09c8146100d75763fc0c546a146100ab575f80fd5b346100d3575f3660031901126100d3576003546040516001600160a01b039091168152602090f35b5f80fd5b346100d3576020806003193601126100d3576100f1610e0a565b60018060a01b036003541660405161010881610e3b565b5f8152604051908482019263707a02cd60e11b8452608483019060248401526001600160401b0380951660070b604484015260606064840152815180915260a48301908660a48260051b8601019301915f905b888383106102a557885f808a8a61017b818c03601f198101835282610e56565b5190826101675af161018b610ed0565b901561028c5780518101916060828585019403126100d3576101ae848301610eff565b916101bb60408201610f0d565b506060810151908282116100d357019083603f830112156100d35784820151908111610278576040858260051b928251906101f883860183610e56565b815201918301019384116100d3576040859201905b84821061026157505050601691505b60030b0361022657005b6064906040519062461bcd60e51b82526004820152601460248201527311985a5b1959081d1bc81b5a5b9d08185cdcd95d60621b6044820152fd5b82809161026d84610f0d565b81520191019061020d565b634e487b7160e01b5f52604160045260245ffd5b50505f60405161029b81610e3b565b526016601561021c565b806102c06001939495969760a3198a82030186528851610e92565b96019201920190929161015b565b346100d3575f3660031901126100d3576002546040805191901c6001600160a01b03168152602090f35b346100d3575f3660031901126100d35760206001600160401b0360025416604051908152f35b346100d35760203660031901126100d35761033f61033a610d9d565b610f89565b005b346100d35760203660031901126100d3576001600160401b03610362610e0a565b1660068111610380576001600160401b031960025416176002555f80f35b606460405162461bcd60e51b815260206004820152602060248201527f496e76616c696420636f6e74726f6c20616c6c6f77206c697374206c6576656c6044820152fd5b346100d3576020806003193601126100d3576103de610e0a565b9060018060a01b03600354166040516103f681610e3b565b5f81526040519083820192636b48868360e11b8452608483019060248401526001600160401b0360079616860b60448401526060606484015281518091528460a484019201905f5b8181106104eb57865f80888861045d818a03601f198101835282610e56565b5190826101675af161046d610ed0565b90156104e1576040818051810103126100d3578061049a60406104938560169501610eff565b9201610f0d565b505b60030b036104a657005b6064906040519062461bcd60e51b82526004820152601460248201527311985a5b1959081d1bc8189d5c9b88185cdcd95d60621b6044820152fd5b506016601561049c565b8251880b8452928601929186019160010161043e565b346100d3575f8061056961055b61051736610db3565b604051639b23d3d960e01b602082019081526001600160a01b03958616602483015293851660448201529390911660648401526084830152929091829060a4820190565b03601f198101835282610e56565b5190826101675af1610579610ed0565b90156105a4576020818051810103126100d3576105996020809201610eff565b6040519060030b8152f35b5060206015610599565b346100d35760403660031901126100d3576105c7610d9d565b6105cf610df4565b6105d882610f89565b6105e0610f1b565b6001600160a01b0390921682526001600160401b0390811660070b602083018190529161060b610f1b565b30815292677fffffffffffffff1981146108ee575f0360070b6020840152610631610f39565b6003546001600160a01b031681526040519390919061064f85610e20565b600285525f5b604081106108d7575061067e839495602061069095019281845261067882610f58565b52610f58565b50519061068a82610f79565b52610f79565b506040519160408301908382109082111761027857604052600182525f5b602081106108c057506106c082610f58565b526106ca81610f58565b5060405190632f34811960e01b825281602481016020600483015282518091526044820190602060448260051b8501019401915f905b8282106107ba5784602081808903815f6101675af180156107af575f90610775575b6016915060070b0361073057005b60405162461bcd60e51b815260206004820152601860248201527f4661696c656420746f2061697264726f7020746f6b656e7300000000000000006044820152606490fd5b506020813d6020116107a7575b8161078f60209383610e56565b810103126100d3576107a2601691610f0d565b610722565b3d9150610782565b6040513d5f823e3d90fd5b91935091936043198682030182528451606082019060018060a01b0381511683526020810151916060602085015282518091526020608085019301905f905b8082106108885750505060400151916040818303910152602080835192838152019201905f905b80821061083f5750505060208060019296019201920185939192610700565b9091926020608060019260608751858060a01b038151168352858060a01b03858201511685840152604081015160070b6040840152015115156060820152019401920190610820565b9091936020606060019260408851858060a01b0381511683528481015160070b858401520151151560408201520195019201906107f9565b6020906108cb610f39565b828286010152016106ae565b6020906108e2610f1b565b82828901015201610655565b634e487b7160e01b5f52601160045260245ffd5b346100d35760403660031901126100d35761091b610e0a565b6024356001600160a01b0381811692918390036100d3576003541660405192602084019163efef57f960e01b8352602485015260448401526001600160401b0380921660070b60648401526064835260a083019183831090831117610278575f9283926040525190826101675af1610991610ed0565b9015610a15576020818051810103126100d3576109b2602060169201610eff565b60030b036109bc57005b60405162461bcd60e51b815260206004820152602b60248201527f4661696c656420746f20776970652061737365742066726f6d2074686520757360448201526a195c9cc81858d8dbdd5b9d60aa1b6064820152608490fd5b50601660156109b2565b346100d35760403660031901126100d357610a38610d9d565b602435906001600160401b0382116100d357366023830112156100d357816004013590610a6482610e77565b91610a726040519384610e56565b80835236602482860101116100d357610ad45f94938560208461055b9560248499018386013783010152604080516330c6e32f60e11b602082019081526001600160a01b03909616602482015260448101919091529283916064830190610e92565b5190826101675af1610ae4610ed0565b907f4af4780e06fe8cb9df64b0794fa6f01399af979175bb988e35e0e57e594567bc60405182151581526040602082015280610b236040820186610e92565b0390a115610b515760165b610b4d60405192839260030b8352604060208401526040830190610e92565b0390f35b50604051610b5e81610e3b565b5f81526015610b2e565b346100d35760403660031901126100d357610b81610d9d565b610b89610df4565b60035460405163e1f21c6760e01b81526001600160a01b0391821660048201523060248201526001600160401b0392831660448201819052602094926101679290919086816064815f885af180156107af575f90610d12575b6016915060070b03610cbf57816003541691604051948786019363eca3691760e01b8552602487015230604487015216606485015260070b60848401526084835260c083019383851090851117610278575f809493819460405251925af1610c48610ed0565b9015610cb55781818051810103126100d357610c678260169201610eff565b60030b03610c7157005b6064906040519062461bcd60e51b82526004820152601960248201527f4661696c656420746f207472616e7366657220746f6b656e73000000000000006044820152fd5b5060166015610c67565b60405162461bcd60e51b815260048101879052602560248201527f4661696c656420746f20617070726f766520746f6b656e7320666f72207472616044820152643739b332b960d91b6064820152608490fd5b508681813d8311610d40575b610d288183610e56565b810103126100d357610d3b601691610f0d565b610be2565b503d610d1e565b346100d3575f61055b826105698394610d5f36610db3565b630aed65f560e11b602086019081526001600160a01b03948516602487015292841660448601529216606484015260848301919091529360a4820190565b600435906001600160a01b03821682036100d357565b60809060031901126100d3576001600160a01b0360043581811681036100d3579160243582811681036100d3579160443590811681036100d3579060643590565b602435906001600160401b03821682036100d357565b600435906001600160401b03821682036100d357565b606081019081106001600160401b0382111761027857604052565b602081019081106001600160401b0382111761027857604052565b90601f801991011681019081106001600160401b0382111761027857604052565b6001600160401b03811161027857601f01601f191660200190565b91908251928382525f5b848110610ebc575050825f602080949584010152601f8019910116010190565b602081830181015184830182015201610e9c565b3d15610efa573d90610ee182610e77565b91610eef6040519384610e56565b82523d5f602084013e565b606090565b51908160030b82036100d357565b51908160070b82036100d357565b60405190610f2882610e20565b5f6040838281528260208201520152565b60405190610f4682610e20565b60606040835f81528260208201520152565b805115610f655760200190565b634e487b7160e01b5f52603260045260245ffd5b805160011015610f655760400190565b60035460408051633cb0c7fd60e21b81526001600160a01b03928316600482015283831660248201529092610167925f92909190858160448187895af19081156111005784916110b8575b506110b1576003548551638f8d7f9960e01b815292166001600160a01b0390811660048401521660248201529160209083908184816044810103925af19081156110a6578091611067575b506016915060070b0361102f5750565b5162461bcd60e51b81526020600482015260126024820152714661696c6520746f206772616e74204b594360701b6044820152606490fd5b90506020823d821161109e575b8161108160209383610e56565b8101031261109b5750611095601691610f0d565b5f61101f565b80fd5b3d9150611074565b8351903d90823e3d90fd5b5050505050565b90508581813d83116110f9575b6110cf8183610e56565b810103126110f557806110e3602092610f0d565b50015180151581036110f5575f610fd4565b8380fd5b503d6110c5565b86513d86823e3d90fdfea26469706673582212208144694a70395b8af5a098ef7782b86b3bcaf7a3dfbc3467d727dc8d9102991264736f6c63430008140033a6eef7e35abe7026729641147f7915573c7e97b47efa546f5f6e3230263bcb49cc69885fda6bcc1a4ace058b4a62bf5e179ea78fd58a1ccd71c22cc9b688792fedc95719e9a3b28dd8e80877cb5880a9be7de1a13fc8b05e7999683b6b5676437dfe757ecd65cbd7922a9c0161e935dd7fdbcc0e999689c7d31633896b1fc60b8f331abe73332f95a25873e8b430885974c0409691f89d643119a11623a7924ad9d16d34ffb15ba3a3d852f0d403e2ce1d691fb54de27ac87cd2f993f3ec330fe2689cd4a84e23ad2f564004f1c9013e9589d260bde6380aba3ca7e09e4df40ca26469706673582212202ff885c98c1b003ba75ac0fdc32a413f1075b1de8f550a8ef63d40be2af6374764736f6c63430008140033","linkReferences":{}},"methodIdentifiers":{"acl()":"de287359","bridgedAssets(string)":"5a32d031","controlAllowList()":"c7ea4d44","createAsset(string,string,address,uint64)":"daa96e19","lockAsset(address,address,uint256)":"dcc951bb","lockReserves(address,uint256)":"09393a1e","releaseAsset(address,string,uint256,uint256)":"0a95b0d2","releaseReserves(address,string,uint256,uint256)":"bd4fa12e","reserveToken()":"f4325d67","setControlAllowList(uint64)":"a1d34a42","treasury()":"61d027b3"},"id":15}