{"abi":[{"type":"constructor","inputs":[{"name":"_name","type":"string","internalType":"string"},{"name":"_symbol","type":"string","internalType":"string"}],"stateMutability":"payable"},{"type":"function","name":"PROTOCOL","inputs":[],"outputs":[{"name":"","type":"address","internalType":"address"}],"stateMutability":"view"},{"type":"function","name":"airdropTokens","inputs":[{"name":"target","type":"address","internalType":"address"},{"name":"amount","type":"uint64","internalType":"uint64"}],"outputs":[],"stateMutability":"nonpayable"},{"type":"function","name":"burn","inputs":[{"name":"amount","type":"uint64","internalType":"uint64"}],"outputs":[],"stateMutability":"nonpayable"},{"type":"function","name":"mint","inputs":[{"name":"amount","type":"uint64","internalType":"uint64"}],"outputs":[],"stateMutability":"nonpayable"},{"type":"function","name":"redirectForToken","inputs":[{"name":"token","type":"address","internalType":"address"},{"name":"encodedFunctionSelector","type":"bytes","internalType":"bytes"}],"outputs":[{"name":"responseCode","type":"int256","internalType":"int256"},{"name":"response","type":"bytes","internalType":"bytes"}],"stateMutability":"nonpayable"},{"type":"function","name":"token","inputs":[],"outputs":[{"name":"","type":"address","internalType":"address"}],"stateMutability":"view"},{"type":"function","name":"transferFrom","inputs":[{"name":"token","type":"address","internalType":"address"},{"name":"from","type":"address","internalType":"address"},{"name":"to","type":"address","internalType":"address"},{"name":"amount","type":"uint256","internalType":"uint256"}],"outputs":[{"name":"responseCode","type":"int64","internalType":"int64"}],"stateMutability":"nonpayable"},{"type":"function","name":"transferFromNFT","inputs":[{"name":"token","type":"address","internalType":"address"},{"name":"from","type":"address","internalType":"address"},{"name":"to","type":"address","internalType":"address"},{"name":"serialNumber","type":"uint256","internalType":"uint256"}],"outputs":[{"name":"responseCode","type":"int64","internalType":"int64"}],"stateMutability":"nonpayable"},{"type":"function","name":"wipe","inputs":[{"name":"amount","type":"uint64","internalType":"uint64"},{"name":"account","type":"address","internalType":"address"}],"outputs":[],"stateMutability":"nonpayable"},{"type":"event","name":"CallResponseEvent","inputs":[{"name":"","type":"bool","indexed":false,"internalType":"bool"},{"name":"","type":"bytes","indexed":false,"internalType":"bytes"}],"anonymous":false}],"bytecode":{"object":"0x608060405261001561000f610179565b9061019b565b61001d61002b565b611fc46113798239611fc490f35b60405190565b601f801991011690565b634e487b7160e01b5f52604160045260245ffd5b9061005990610031565b810190811060018060401b0382111761007157604052565b61003b565b9061008961008261002b565b928361004f565b565b5f80fd5b5f80fd5b5f80fd5b5f80fd5b60018060401b0381116100b7576100b3602091610031565b0190565b61003b565b90825f9392825e0152565b909291926100dc6100d78261009b565b610076565b938185526020850190828401116100f8576100f6926100bc565b565b610097565b9080601f8301121561011b57816020610118935191016100c7565b90565b610093565b919091604081840312610174575f81015160018060401b03811161016f578361014a9183016100fd565b92602082015160018060401b03811161016a5761016792016100fd565b90565b61008f565b61008f565b61008b565b61019761333d8038038061018c81610076565b928339810190610120565b9091565b906101a5916106f1565b565b90565b60018060a01b031690565b90565b6101cc6101c76101d1926101a7565b6101b5565b6101aa565b90565b6101dd906101b8565b90565b5f1b90565b906101f660018060a01b03916101e0565b9181191691161790565b61021461020f610219926101aa565b6101b5565b6101aa565b90565b61022590610200565b90565b6102319061021c565b90565b90565b9061024c61024761025392610228565b610234565b82546101e5565b9055565b610262610120610076565b90565b606090565b5f90565b5f90565b5f90565b606090565b6102856060610076565b90565b61029061027b565b90602080808461029e610272565b8152016102a961026a565b8152016102b4610272565b81525050565b6102c2610288565b90565b6102cd610257565b90602080808080808080808a6102e1610265565b8152016102ec610265565b8152016102f761026a565b815201610302610265565b81520161030d61026e565b815201610318610272565b81520161032361026e565b81520161032e610276565b8152016103396102ba565b81525050565b6103476102c5565b90565b6103539061021c565b90565b61035f906101aa565b90565b9061036c90610356565b9052565b610378610288565b90565b90565b60070b90565b61039861039361039d9261037b565b6101b5565b61037e565b90565b906103aa9061037e565b9052565b90565b90565b6103c86103c36103cd926103ae565b6101b5565b6103b1565b90565b60018060401b0381116103e65760208091020190565b61003b565b906103fd6103f8836103d0565b610076565b918252565b61040c6040610076565b90565b5f90565b61041d60a0610076565b90565b606090565b61042d610413565b906020808080808661043d61026e565b81520161044861026a565b815201610453610420565b81520161045e610420565b81520161046961026a565b81525050565b610477610425565b90565b610482610402565b906020808361048f61040f565b81520161049a61046f565b81525050565b6104a861047a565b90565b5f5b8281106104b957505050565b6020906104c46104a0565b81840152016104ad565b906104f36104db836103eb565b926020806104e986936103d0565b92019103906104ab565b565b634e487b7160e01b5f52603260045260245ffd5b5190565b9061051782610509565b811015610528576020809102010190565b6104f5565b90565b61054461053f6105499261052d565b6101b5565b6103b1565b90565b61056061055b610565926101a7565b6101b5565b6103b1565b90565b90565b61057f61057a61058492610568565b6101b5565b6103b1565b90565b90565b61059e6105996105a392610587565b6101b5565b6103b1565b90565b90565b6105bd6105b86105c2926105a6565b6101b5565b6103b1565b90565b90565b6105dc6105d76105e1926105c5565b6101b5565b6103b1565b90565b90565b6105fb6105f6610600926105e4565b6101b5565b6103b1565b90565b61061761061261061c9261052d565b6101b5565b61037e565b90565b90565b60030b90565b61063c6106376106419261061f565b6101b5565b610622565b90565b90565b61065b61065661066092610644565b6101b5565b610622565b90565b61066d6016610647565b90565b90565b61068761068261068c92610622565b6101b5565b610670565b90565b60209181520190565b5f7f4661696c656420746f2063726561746520746f6b656e00000000000000000000910152565b6106cc601660209261068f565b6106d581610698565b0190565b6106ee9060208101905f8183039101526106bf565b90565b610969916106fd610ad6565b61071161070a60016101d4565b6003610237565b61071961033f565b915f830152602082015261073861072f3061034a565b60408301610362565b610740610370565b61075561074c3061034a565b60208301610362565b61076d61076462786450610384565b604083016103a0565b61010082015261078561078060076103b4565b6104ce565b6107c261079d5f60016107973061034a565b91610bd7565b6107bc83915f906107b66107b083610530565b8561050d565b52610530565b9061050d565b51506108026107dc6001806107d63061034a565b91610bd7565b6107fc83916001906107f66107f08361054c565b8561050d565b5261054c565b9061050d565b515061084361081d600260016108173061034a565b91610bd7565b61083d83916002906108376108318361056b565b8561050d565b5261056b565b9061050d565b515061088461085e600360016108583061034a565b91610bd7565b61087e83916003906108786108728361058a565b8561050d565b5261058a565b9061050d565b51506108c561089f600460016108993061034a565b91610bd7565b6108bf83916004906108b96108b3836105a9565b8561050d565b526105a9565b9061050d565b51506109066108e0600560016108da3061034a565b91610bd7565b61090083916005906108fa6108f4836105c8565b8561050d565b526105c8565b9061050d565b51506109476109216006600161091b3061034a565b91610bd7565b610941839160069061093b610935836105e7565b8561050d565b526105e7565b9061050d565b515060e08201525f61096361095d600892610603565b91610628565b9161127d565b9061098361097d610978610663565b610673565b91610670565b0361099557610993906002610237565b565b61099d61002b565b62461bcd60e51b8152806109b3600482016106d9565b0390fd5b634e487b7160e01b5f52602160045260245ffd5b600711156109d557565b6109b7565b906109e4826109cb565b565b6109ef906109da565b90565b906109fc906109e6565b5f5260205260405f2090565b90610a145f19916101e0565b9181191691161790565b610a32610a2d610a37926103b1565b6101b5565b6103b1565b90565b90565b90610a52610a4d610a5992610a1e565b610a3a565b8254610a08565b9055565b610a71610a6c610a769261061f565b6101b5565b6103b1565b90565b90565b610a90610a8b610a9592610a79565b6101b5565b6103b1565b90565b90565b610aaf610aaa610ab492610a98565b6101b5565b6103b1565b90565b90565b610ace610ac9610ad392610ab7565b6101b5565b6103b1565b90565b610af4610ae3600161054c565b610aef60015f906109f2565b610a3d565b610b11610b01600261056b565b610b0c6001806109f2565b610a3d565b610b30610b1e60046105a9565b610b2b60016002906109f2565b610a3d565b610b4f610b3d6008610a5d565b610b4a60016003906109f2565b610a3d565b610b6e610b5c6010610a7c565b610b6960016004906109f2565b610a3d565b610b8d610b7b6020610a9b565b610b8860016005906109f2565b610a3d565b610bac610b9a6040610aba565b610ba760016006906109f2565b610a3d565b565b610bb661047a565b90565b610bc36040610076565b90565b90610bd0906103b1565b9052565b52565b610c149192610bf1610bf792610beb610bae565b506112ca565b9361130f565b610c0b610c02610bb9565b935f8501610bc6565b60208301610bd4565b90565b5f90565b5f90565b610c29905161037e565b90565b90565b610c43610c3e610c4892610c2c565b6101b5565b610622565b90565b610c576276a700610c2f565b90565b610c6e610c69610c7392610622565b6101b5565b61037e565b90565b90610cb39493929182610c8f5f61010083015101610c1f565b610ca1610c9b5f610603565b9161037e565b1480610cdf575b610cb7575b506111c8565b9091565b610cd9906040610100610cd0610ccb610c4b565b610c5a565b920151016103a0565b5f610cad565b50610cf1604061010083015101610c1f565b610d03610cfd5f610603565b9161037e565b14610ca8565b90565b610d20610d1b610d2592610d09565b6101b5565b6101aa565b90565b610d3190610d0c565b90565b610d3f610167610d28565b90565b5190565b60209181520190565b610d6e610d77602093610d7c93610d6581610d42565b93848093610d46565b958691016100bc565b610031565b0190565b610d8990610356565b9052565b151590565b610d9b90610d8d565b9052565b610da89061037e565b9052565b60209181520190565b60200190565b610dc4906103b1565b9052565b5190565b60209181520190565b610df4610dfd602093610e0293610deb81610dc8565b93848093610dcc565b958691016100bc565b610031565b0190565b90610e6990608080610e5e610e4c60a08501610e285f8901515f880190610d92565b610e3a60208901516020880190610d80565b60408801518682036040880152610dd5565b60608701518582036060870152610dd5565b940151910190610d80565b90565b610e979160206040820192610e875f8201515f850190610dbb565b0151906020818403910152610e06565b90565b90610ea491610e6c565b90565b60200190565b90610ec1610eba83610509565b8092610dac565b9081610ed260208302840194610db5565b925f915b838310610ee557505050505090565b90919293946020610f07610f0183856001950387528951610e9a565b97610ea7565b9301930191939290610ed6565b90604080610f4893610f2c5f8201515f860190610d9f565b610f3e60208201516020860190610d80565b0151910190610d9f565b565b90610ffd9061010080610ff2610faa610f86610f7461016087015f8a01518882035f8a0152610d4f565b60208901518782036020890152610d4f565b610f9860408901516040880190610d80565b60608801518682036060880152610d4f565b610fbc60808801516080870190610d92565b610fce60a088015160a0870190610d9f565b610fe060c088015160c0870190610d92565b60e087015185820360e0870152610ead565b940151910190610f14565b90565b6110099061037e565b9052565b61101690610622565b9052565b60409061104661103b61104d9597969460608401908482035f860152610f4a565b966020830190611000565b019061100d565b565b60018060401b03811161106b57611067602091610031565b0190565b61003b565b9061108261107d8361104f565b610076565b918252565b606090565b3d5f146110a75761109c3d611070565b903d5f602084013e5b565b6110af611087565b906110a5565b90565b6110cc6110c76110d1926110b5565b6101b5565b610622565b90565b6110de60156110b8565b90565b6110f56110f06110fa9261052d565b6101b5565b6101aa565b90565b611106906110e1565b90565b61111281610622565b0361111957565b5f80fd5b9050519061112a82611109565b565b611135906101aa565b90565b6111418161112c565b0361114857565b5f80fd5b9050519061115982611138565b565b91906040838203126111835780611177611180925f860161111d565b9360200161114c565b90565b61008b565b61119c6111976111a192610622565b6101b5565b610622565b90565b6111ad9061021c565b90565b6111bf6111c591939293611188565b926111a4565b90565b936112185f959360049387969550506112096111e2610d34565b953494630fb65bf360e01b939190916111f961002b565b978895602087019081520161101a565b6020820181038252038361004f565b602082019151925af161122961108c565b905f146112635761125661125061126092602061124582610dc8565b81830101910161115b565b906111b0565b9190915b91610673565b91565b5061126c6110d4565b6112606112785f6110fd565b61125a565b90611299929161128b610c17565b611293610c1b565b90610c76565b9091565b5f90565b5f1c90565b90565b6112b56112ba916112a1565b6112a6565b90565b6112c790546112a9565b90565b6112e16112e6916112d961129d565b5060016109f2565b6112bd565b90565b6112f1610425565b90565b600511156112fe57565b6109b7565b9061130d826112f4565b565b91906113196112e9565b928061132e6113286001611303565b91611303565b145f1461134657506113439060208401610362565b5b565b6113596113536004611303565b91611303565b14611365575b50611344565b6113729060808401610362565b5f61135f56fe60806040526004361015610013575b610653565b61001d5f356100ac565b806315dacbea146100a7578063618dc65e146100a25780637276ecca1461009d5780637349da0a1461009857806391b9b827146100935780639b23d3d91461008e5780639dbead4214610089578063fb9d09c8146100845763fc0c546a0361000e5761061e565b6105dc565b6105a9565b610552565b61051d565b610474565b610413565b61037a565b610192565b60e01c90565b60405190565b5f80fd5b5f80fd5b5f80fd5b60018060a01b031690565b6100d8906100c4565b90565b6100e4816100cf565b036100eb57565b5f80fd5b905035906100fc826100db565b565b90565b61010a816100fe565b0361011157565b5f80fd5b9050359061012282610101565b565b6080818303126101655761013a825f83016100ef565b9261016261014b84602085016100ef565b9361015981604086016100ef565b93606001610115565b90565b6100bc565b60070b90565b6101799061016a565b9052565b9190610190905f60208501940190610170565b565b346101c6576101c26101b16101a8366004610124565b929190916107b6565b6101b96100b2565b9182918261017d565b0390f35b6100b8565b5f80fd5b5f80fd5b601f801991011690565b634e487b7160e01b5f52604160045260245ffd5b906101fb906101d3565b810190811067ffffffffffffffff82111761021557604052565b6101dd565b9061022d6102266100b2565b92836101f1565b565b67ffffffffffffffff811161024d576102496020916101d3565b0190565b6101dd565b90825f939282370152565b9092919261027261026d8261022f565b61021a565b9381855260208501908284011161028e5761028c92610252565b565b6101cf565b9080601f830112156102b1578160206102ae9335910161025d565b90565b6101cb565b9190916040818403126102f6576102cf835f83016100ef565b92602082013567ffffffffffffffff81116102f1576102ee9201610293565b90565b6100c0565b6100bc565b90565b610307906102fb565b9052565b5190565b60209181520190565b90825f9392825e0152565b61034261034b602093610350936103398161030b565b9384809361030f565b95869101610318565b6101d3565b0190565b916103779261036a60408201935f8301906102fe565b6020818403910152610323565b90565b346103ac5761039361038d3660046102b6565b9061098d565b906103a861039f6100b2565b92839283610354565b0390f35b6100b8565b67ffffffffffffffff1690565b6103c7816103b1565b036103ce57565b5f80fd5b905035906103df826103be565b565b919060408382031261040957806103fd610406925f86016103d2565b936020016100ef565b90565b6100bc565b5f0190565b346104425761042c6104263660046103e1565b90610c51565b6104346100b2565b8061043e8161040e565b0390f35b6100b8565b919060408382031261046f578061046361046c925f86016100ef565b936020016103d2565b90565b6100bc565b346104a35761048d610487366004610447565b9061167c565b6104956100b2565b8061049f8161040e565b0390f35b6100b8565b5f9103126104b257565b6100bc565b1c90565b60018060a01b031690565b6104d69060086104db93026104b7565b6104bb565b90565b906104e991546104c6565b90565b6104f860035f906104de565b90565b610504906100cf565b9052565b919061051b905f602085019401906104fb565b565b3461054d5761052d3660046104a8565b6105496105386104ec565b6105406100b2565b91829182610508565b0390f35b6100b8565b3461058657610582610571610568366004610124565b92919091611688565b6105796100b2565b9182918261017d565b0390f35b6100b8565b906020828203126105a4576105a1915f016103d2565b90565b6100bc565b346105d7576105c16105bc36600461058b565b611887565b6105c96100b2565b806105d38161040e565b0390f35b6100b8565b3461060a576105f46105ef36600461058b565b611a10565b6105fc6100b2565b806106068161040e565b0390f35b6100b8565b61061b60025f906104de565b90565b3461064e5761062e3660046104a8565b61064a61063961060f565b6106416100b2565b91829182610508565b0390f35b6100b8565b5f80fd5b5f90565b90565b90565b61067561067061067a9261065b565b61065e565b6100c4565b90565b61068690610661565b90565b61069461016761067d565b90565b6106a0906100fe565b9052565b6106d96106e0946106cf6060949897956106c5608086019a5f8701906104fb565b60208501906104fb565b60408301906104fb565b0190610697565b565b906106f46106ef8361022f565b61021a565b918252565b606090565b3d5f146107195761070e3d6106e2565b903d5f602084013e5b565b6107216106f9565b90610717565b90565b60030b90565b61074461073f61074992610727565b61065e565b61072a565b90565b6107566015610730565b90565b6107628161072a565b0361076957565b5f80fd5b9050519061077a82610759565b565b9060208282031261079557610792915f0161076d565b90565b6100bc565b6107ae6107a96107b39261072a565b61065e565b61016a565b90565b61080b6004916107fc5f96948796956107cd610657565b506107d6610689565b96630aed65f560e11b94929091926107ec6100b2565b97889660208801908152016106a4565b602082018103825203826101f1565b82602082019151925af161081d6106fe565b905f1461084a576108416108479160206108368261030b565b81830101910161077c565b5b61079a565b90565b5061084761085661074c565b610842565b5f90565b916108829261087560408201935f8301906104fb565b6020818403910152610323565b90565b151590565b61089390610885565b9052565b916108ba926108ad60408201935f83019061088a565b6020818403910152610323565b90565b67ffffffffffffffff81116108db576108d76020916101d3565b0190565b6101dd565b906108f26108ed836108bd565b61021a565b918252565b6109005f6108e0565b90565b61090b6108f7565b90565b61092261091d6109279261072a565b61065e565b61072a565b90565b90565b61093c6109429193929361090e565b9261092a565b90565b90565b61095c61095761096192610945565b61065e565b61072a565b90565b61096e6016610948565b90565b61098561098061098a9261072a565b61065e565b6102fb565b90565b5f9160046109e4849361099e61085b565b506109a76106f9565b506109d56109b3610689565b946330c6e32f60e11b926109c56100b2565b958694602086019081520161085f565b602082018103825203826101f1565b82602082019151925af16109f66106fe565b9080827f4af4780e06fe8cb9df64b0794fa6f01399af979175bb988e35e0e57e594567bc91610a2f610a266100b2565b92839283610897565b0390a15f14610a4e57610a4b610a43610964565b915b91610971565b91565b50610a4b610a6b610a5d61074c565b610a65610903565b9061092d565b919091610a45565b5f1c90565b610a84610a8991610a73565b6104bb565b90565b610a969054610a78565b90565b60209181520190565b5f7f556e617574686f72697365640000000000000000000000000000000000000000910152565b610ad6600c602092610a99565b610adf81610aa2565b0190565b610af89060208101905f818303910152610ac9565b90565b15610b0257565b610b0a6100b2565b62461bcd60e51b815280610b2060048201610ae3565b0390fd5b90610b5391610b4e33610b48610b42610b3d6003610a8c565b6100cf565b916100cf565b14610afb565b610bf0565b565b610b69610b64610b6e926103b1565b61065e565b61016a565b90565b60207f657273206163636f756e74000000000000000000000000000000000000000000917f4661696c656420746f20776970652061737365742066726f6d207468652075735f8201520152565b610bcb602b604092610a99565b610bd481610b71565b0190565b610bed9060208101905f818303910152610bbe565b90565b90610c0f91610c09610c026002610a8c565b9291610b55565b91611a4d565b610c28610c22610c1d610964565b610971565b916102fb565b03610c2f57565b610c376100b2565b62461bcd60e51b815280610c4d60048201610bd8565b0390fd5b90610c5b91610b24565b565b90610c8c91610c8733610c81610c7b610c766003610a8c565b6100cf565b916100cf565b14610afb565b6113c7565b565b610ca2610c9d610ca7926100c4565b61065e565b6100c4565b90565b610cb390610c8e565b90565b610cbf90610caa565b90565b610ccb90610c8e565b90565b610cd790610cc2565b90565b60e01b90565b610ce981610885565b03610cf057565b5f80fd5b90505190610d0182610ce0565b565b90602082820312610d1c57610d19915f01610cf4565b90565b6100bc565b610d296100b2565b3d5f823e3d90fd5b5f7f546f6b656e206973206e6f74206173736f636961746564000000000000000000910152565b610d656017602092610a99565b610d6e81610d31565b0190565b610d879060208101905f818303910152610d58565b90565b610d94606061021a565b90565b5f90565b5f90565b5f90565b610dab610d8a565b906020808084610db9610d97565b815201610dc4610d9b565b815201610dcf610d9f565b81525050565b610ddd610da3565b90565b90610dea906100cf565b9052565b90610df89061016a565b9052565b610e0590610cc2565b90565b634e487b7160e01b5f52601160045260245ffd5b610e259061016a565b677fffffffffffffff198114610e3a575f0390565b610e08565b610e49606061021a565b90565b606090565b606090565b610e5e610e3f565b906020808084610e6c610d97565b815201610e77610e4c565b815201610e82610e51565b81525050565b610e90610e56565b90565b90565b610eaa610ea5610eaf92610e93565b61065e565b6100fe565b90565b67ffffffffffffffff8111610eca5760208091020190565b6101dd565b90610ee1610edc83610eb2565b61021a565b918252565b610eee610da3565b90565b5f5b828110610eff57505050565b602090610f0a610ee6565b8184015201610ef3565b90610f39610f2183610ecf565b92602080610f2f8693610eb2565b9201910390610ef1565b565b634e487b7160e01b5f52603260045260245ffd5b5190565b90610f5d82610f4f565b811015610f6e576020809102010190565b610f3b565b90565b610f8a610f85610f8f92610f73565b61065e565b6100fe565b90565b90565b610fa9610fa4610fae92610f92565b61065e565b6100fe565b90565b67ffffffffffffffff8111610fc95760208091020190565b6101dd565b90610fe0610fdb83610fb1565b61021a565b918252565b610fed610e56565b90565b5f5b828110610ffe57505050565b602090611009610fe5565b8184015201610ff2565b9061103861102083610fce565b9260208061102e8693610fb1565b9201910390610ff0565b565b5190565b906110488261103a565b811015611059576020809102010190565b610f3b565b61106790610c8e565b90565b6110739061105e565b90565b61108961108461016761067d565b61106a565b90565b61109590610cc2565b90565b6110a18161016a565b036110a857565b5f80fd5b905051906110b982611098565b565b906020828203126110d4576110d1915f016110ac565b90565b6100bc565b60209181520190565b60200190565b6110f1906100cf565b9052565b60209181520190565b60200190565b61110d9061016a565b9052565b61111a90610885565b9052565b90604080611152936111365f8201515f8601906110e8565b61114860208201516020860190611104565b0151910190611111565b565b906111618160609361111e565b0190565b60200190565b9061118861118261117b84610f4f565b80936110f5565b926110fe565b905f5b8181106111985750505090565b9091926111b16111ab6001928651611154565b94611165565b910191909161118b565b5190565b60209181520190565b60200190565b90606080611214936111e65f8201515f8601906110e8565b6111f8602082015160208601906110e8565b61120a60408201516040860190611104565b0151910190611111565b565b90611223816080936111ce565b0190565b60200190565b9061124a61124461123d846111bb565b80936111bf565b926111c8565b905f5b81811061125a5750505090565b90919261127361126d6001928651611216565b94611227565b910191909161124d565b6112bd9160406112ac6060830161129a5f8601515f8601906110e8565b6020850151848203602086015261116b565b92015190604081840391015261122d565b90565b906112ca9161127d565b90565b60200190565b906112e76112e08361103a565b80926110d9565b90816112f8602083028401946110e2565b925f915b83831061130b57505050505090565b9091929394602061132d611327838560019503875289516112c0565b976112cd565b93019301919392906112fc565b61134f9160208201915f8184039101526112d3565b90565b61136661136161136b9261016a565b61065e565b6102fb565b90565b5f7f4661696c656420746f2061697264726f7020746f6b656e730000000000000000910152565b6113a26018602092610a99565b6113ab8161136e565b0190565b6113c49060208101905f818303910152611395565b90565b6113fc60206113e66113e16113dc6002610a8c565b610cb6565b610cce565b634d8fdd6d906113f46100b2565b938492610cda565b8252818061140c6004820161040e565b03915afa801561167757611428915f91611649575b5015610885565b611627576115979161152060209261144a611441610dd5565b915f8301610de0565b61145e61145684610b55565b858301610dee565b61149661148e61148961146f610dd5565b9561148461147c30610dfc565b5f8901610de0565b610b55565b610e1c565b858501610dee565b6114f56114a1610e88565b936114b76114af6002610a8c565b5f8701610de0565b6114c96114c46002610e96565b610f14565b868601526114ef86860151915f906114e96114e383610f76565b85610f53565b52610f76565b90610f53565b515061151a848401519160019061151461150e83610f95565b85610f53565b52610f95565b90610f53565b515061155d6115376115326001610f95565b611013565b9161155783915f9061155161154b83610f76565b8561103e565b52610f76565b9061103e565b515061156f61156a611076565b61108c565b61158c5f632f3481196115806100b2565b96879586948593610cda565b83526004830161133a565b03925af18015611622576115b2915f916115f4575b50611352565b6115cb6115c56115c0610964565b610971565b916102fb565b036115d257565b6115da6100b2565b62461bcd60e51b8152806115f0600482016113af565b0390fd5b611615915060203d811161161b575b61160d81836101f1565b8101906110bb565b5f6115ac565b503d611603565b610d21565b61162f6100b2565b62461bcd60e51b81528061164560048201610d72565b0390fd5b61166a915060203d8111611670575b61166281836101f1565b810190610d03565b5f611421565b503d611658565b610d21565b9061168691610c5d565b565b6116dd6004916116ce5f969487969561169f610657565b506116a8610689565b96639b23d3d960e01b94929091926116be6100b2565b97889660208801908152016106a4565b602082018103825203826101f1565b82602082019151925af16116ef6106fe565b905f1461171c576117136117199160206117088261030b565b81830101910161077c565b5b61079a565b90565b5061171961172861074c565b611714565b61175b906117563361175061174a6117456003610a8c565b6100cf565b916100cf565b14610afb565b611816565b565b67ffffffffffffffff81116117755760208091020190565b6101dd565b9061178c6117878361175d565b61021a565b918252565b369037565b906117bb6117a38361177a565b926020806117b1869361175d565b9201910390611791565b565b5f7f4661696c656420746f206275726e206173736574000000000000000000000000910152565b6117f16014602092610a99565b6117fa816117bd565b0190565b6118139060208101905f8183039101526117e4565b90565b6118449061182d6118276002610a8c565b91610b55565b61183e6118395f610f76565b611796565b91611be6565b5061185e611858611853610964565b610971565b916102fb565b0361186557565b61186d6100b2565b62461bcd60e51b815280611883600482016117fe565b0390fd5b6118909061172d565b565b6118c0906118bb336118b56118af6118aa6003610a8c565b6100cf565b916100cf565b14610afb565b61199e565b565b67ffffffffffffffff81116118da5760208091020190565b6101dd565b906118f16118ec836118c2565b61021a565b918252565b606090565b5f5b82811061190957505050565b6020906119146118f6565b81840152016118fd565b9061194361192b836118df565b9260208061193986936118c2565b92019103906118fb565b565b5f7f4661696c656420746f206d696e74206173736574000000000000000000000000910152565b6119796014602092610a99565b61198281611945565b0190565b61199b9060208101905f81830391015261196c565b90565b6119cc906119b56119af6002610a8c565b91610b55565b6119c66119c15f610f76565b61191e565b91611ead565b50506119e76119e16119dc610964565b610971565b916102fb565b036119ee57565b6119f66100b2565b62461bcd60e51b815280611a0c60048201611986565b0390fd5b611a1990611892565b565b604090611a44611a4b9496959396611a3a60608401985f8501906104fb565b60208301906104fb565b0190610170565b565b916004611a9f5f94611a908695611a6261085b565b50611a6b610689565b9563efef57f960e01b93919091611a806100b2565b9687956020870190815201611a1b565b602082018103825203826101f1565b82602082019151925af1611ab16106fe565b905f14611ade57611ad5611adb916020611aca8261030b565b81830101910161077c565b5b610971565b90565b50611adb611aea61074c565b611ad6565b5190565b60209181520190565b60200190565b90611b0f81602093611104565b0190565b60200190565b90611b36611b30611b2984611aef565b8093611af3565b92611afc565b905f5b818110611b465750505090565b909192611b5f611b596001928651611b02565b94611b13565b9101919091611b39565b611b8d611b9a949293611b8360608401955f8501906104fb565b6020830190610170565b6040818403910152611b19565b90565b611bb1611bac611bb692610f73565b61065e565b61016a565b90565b9190604083820312611be15780611bd5611bde925f860161076d565b936020016110ac565b90565b6100bc565b916004611c415f94611c328695611bfb61085b565b50611c04610657565b50611c0d610689565b95636b48868360e11b93919091611c226100b2565b9687956020870190815201611b69565b602082018103825203826101f1565b82602082019151925af1611c536106fe565b905f14611c8457611c77611c81916020611c6c8261030b565b818301019101611bb9565b9190915b91610971565b91565b50611c8d61074c565b611c81611c995f611b9d565b611c7b565b606090565b5190565b60209181520190565b60200190565b60209181520190565b611cde611ce7602093611cec93611cd58161030b565b93848093611cb6565b95869101610318565b6101d3565b0190565b90611cfa91611cbf565b90565b60200190565b90611d17611d1083611ca3565b8092611ca7565b9081611d2860208302840194611cb0565b925f915b838310611d3b57505050505090565b90919293946020611d5d611d5783856001950387528951611cf0565b97611cfd565b9301930191939290611d2c565b611d8e611d9b949293611d8460608401955f8501906104fb565b6020830190610170565b6040818403910152611d03565b90565b611db2611dad611db79261016a565b61065e565b61016a565b90565b90565b611dd5611dcf611ddb9295939561090e565b94611d9e565b92611dba565b90565b5f80fd5b90929192611df7611df28261175d565b61021a565b9381855260208086019202830192818411611e3457915b838310611e1b5750505050565b60208091611e2984866110ac565b815201920191611e0e565b611dde565b9080601f83011215611e5757816020611e5493519101611de2565b90565b6101cb565b91606083830312611ea857611e73825f850161076d565b92611e8183602083016110ac565b92604082015167ffffffffffffffff8111611ea357611ea09201611e39565b90565b6100c0565b6100bc565b916004611f115f94611f028695611ec261085b565b50611ecb610657565b50611ed4611c9e565b50611edd610689565b9563707a02cd60e11b93919091611ef26100b2565b9687956020870190815201611d6a565b602082018103825203826101f1565b82602082019151925af1611f236106fe565b905f14611f5657611f47611f53916020611f3c8261030b565b818301019101611e5c565b919290915b9192610971565b92565b50611f53611f85611f6561074c565b611f6e5f611b9d565b611f7f611f7a5f610f76565b611796565b91611dbd565b92909192611f4c56fea26469706673582212208a3bbdf4adc83ef89825e71cf1b109823699c251dbb0fae56927f6026b23f1b664736f6c634300081e0033","linkReferences":{}},"methodIdentifiers":{"PROTOCOL()":"91b9b827","airdropTokens(address,uint64)":"7349da0a","burn(uint64)":"9dbead42","mint(uint64)":"fb9d09c8","redirectForToken(address,bytes)":"618dc65e","token()":"fc0c546a","transferFrom(address,address,address,uint256)":"15dacbea","transferFromNFT(address,address,address,uint256)":"9b23d3d9","wipe(uint64,address)":"7276ecca"},"id":17}