{"abi":[{"type":"constructor","inputs":[{"name":"_name","type":"string","internalType":"string"},{"name":"_symbol","type":"string","internalType":"string"}],"stateMutability":"payable"},{"type":"fallback","stateMutability":"payable"},{"type":"receive","stateMutability":"payable"},{"type":"function","name":"admin","inputs":[],"outputs":[{"name":"","type":"address","internalType":"address"}],"stateMutability":"view"},{"type":"function","name":"airdropTokens","inputs":[{"name":"target","type":"address","internalType":"address"},{"name":"amount","type":"uint64","internalType":"uint64"}],"outputs":[],"stateMutability":"nonpayable"},{"type":"function","name":"burn","inputs":[{"name":"amount","type":"uint64","internalType":"uint64"}],"outputs":[],"stateMutability":"nonpayable"},{"type":"function","name":"controller","inputs":[],"outputs":[{"name":"","type":"address","internalType":"address"}],"stateMutability":"view"},{"type":"function","name":"grantKYC","inputs":[{"name":"account","type":"address","internalType":"address"}],"outputs":[],"stateMutability":"nonpayable"},{"type":"function","name":"mint","inputs":[{"name":"amount","type":"uint64","internalType":"uint64"}],"outputs":[],"stateMutability":"nonpayable"},{"type":"function","name":"redirectForToken","inputs":[{"name":"token","type":"address","internalType":"address"},{"name":"encodedFunctionSelector","type":"bytes","internalType":"bytes"}],"outputs":[{"name":"responseCode","type":"int256","internalType":"int256"},{"name":"response","type":"bytes","internalType":"bytes"}],"stateMutability":"nonpayable"},{"type":"function","name":"token","inputs":[],"outputs":[{"name":"","type":"address","internalType":"address"}],"stateMutability":"view"},{"type":"function","name":"transferFrom","inputs":[{"name":"token","type":"address","internalType":"address"},{"name":"from","type":"address","internalType":"address"},{"name":"to","type":"address","internalType":"address"},{"name":"amount","type":"uint256","internalType":"uint256"}],"outputs":[{"name":"responseCode","type":"int64","internalType":"int64"}],"stateMutability":"nonpayable"},{"type":"function","name":"transferFromNFT","inputs":[{"name":"token","type":"address","internalType":"address"},{"name":"from","type":"address","internalType":"address"},{"name":"to","type":"address","internalType":"address"},{"name":"serialNumber","type":"uint256","internalType":"uint256"}],"outputs":[{"name":"responseCode","type":"int64","internalType":"int64"}],"stateMutability":"nonpayable"},{"type":"event","name":"CallResponseEvent","inputs":[{"name":"","type":"bool","indexed":false,"internalType":"bool"},{"name":"","type":"bytes","indexed":false,"internalType":"bytes"}],"anonymous":false}],"bytecode":{"object":"0x60806040526040516136ba3803806136ba83398181016040528101906100259190610a91565b6001805f5f600681111561003c5761003b610b07565b5b600681111561004e5761004d610b07565b5b81526020019081526020015f2081905550600260015f6001600681111561007857610077610b07565b5b600681111561008a57610089610b07565b5b81526020019081526020015f2081905550600460015f600260068111156100b4576100b3610b07565b5b60068111156100c6576100c5610b07565b5b81526020019081526020015f2081905550600860015f600360068111156100f0576100ef610b07565b5b600681111561010257610101610b07565b5b81526020019081526020015f2081905550601060015f6004600681111561012c5761012b610b07565b5b600681111561013e5761013d610b07565b5b81526020019081526020015f2081905550602060015f6005600681111561016857610167610b07565b5b600681111561017a57610179610b07565b5b81526020019081526020015f2081905550604060015f6006808111156101a3576101a2610b07565b5b60068111156101b5576101b4610b07565b5b81526020019081526020015f20819055503360045f6101000a81548173ffffffffffffffffffffffffffffffffffffffff021916908373ffffffffffffffffffffffffffffffffffffffff1602179055503060035f6101000a81548173ffffffffffffffffffffffffffffffffffffffff021916908373ffffffffffffffffffffffffffffffffffffffff16021790555061024e610826565b82815f018190525081816020018190525030816040019073ffffffffffffffffffffffffffffffffffffffff16908173ffffffffffffffffffffffffffffffffffffffff168152505061029f610891565b30816020019073ffffffffffffffffffffffffffffffffffffffff16908173ffffffffffffffffffffffffffffffffffffffff168152505062786450816040019060070b908160070b81525050808261010001819052505f600767ffffffffffffffff8111156103125761031161096d565b5b60405190808252806020026020018201604052801561034b57816020015b6103386108cb565b8152602001906001900390816103305790505b5090506103605f60013061055c60201b60201c565b815f8151811061037357610372610b34565b5b60200260200101819052506103906001803061055c60201b60201c565b816001815181106103a4576103a3610b34565b5b60200260200101819052506103c2600260013061055c60201b60201c565b816002815181106103d6576103d5610b34565b5b60200260200101819052506103f4600360013061055c60201b60201c565b8160038151811061040857610407610b34565b5b6020026020010181905250610426600460013061055c60201b60201c565b8160048151811061043a57610439610b34565b5b6020026020010181905250610458600560013061055c60201b60201c565b8160058151811061046c5761046b610b34565b5b602002602001018190525061048a600660013061055c60201b60201c565b8160068151811061049e5761049d610b34565b5b6020026020010181905250808360e001819052505f5f6104c6855f600861059f60201b60201c565b91509150601660030b8214610510576040517f08c379a000000000000000000000000000000000000000000000000000000000815260040161050790610bbb565b60405180910390fd5b8060025f6101000a81548173ffffffffffffffffffffffffffffffffffffffff021916908373ffffffffffffffffffffffffffffffffffffffff160217905550505050505050506110e8565b6105646108cb565b604051806040016040528061057e8661070c60201b60201c565b8152602001610593858561074a60201b60201c565b81525090509392505050565b5f5f845f8161010001515f015160070b1480156105c757505f8161010001516040015160070b145b156105ea576276a70060030b8161010001516040019060070b908160070b815250505b5f5f61016773ffffffffffffffffffffffffffffffffffffffff1634630fb65bf360e01b8a8a8a60405160240161062393929190610fb9565b604051602081830303815290604052907bffffffffffffffffffffffffffffffffffffffffffffffffffffffff19166020820180517bffffffffffffffffffffffffffffffffffffffffffffffffffffffff838183161783525050505060405161068d919061102f565b5f6040518083038185875af1925050503d805f81146106c7576040519150601f19603f3d011682016040523d82523d5f602084013e6106cc565b606091505b5091509150816106de5760155f6106f3565b808060200190518101906106f291906110aa565b5b8160030b91508095508196505050505050935093915050565b5f60015f83600681111561072357610722610b07565b5b600681111561073557610734610b07565b5b81526020019081526020015f20549050919050565b6107526108ea565b6001600481111561076657610765610b07565b5b83600481111561077957610778610b07565b5b036107bb5781816020019073ffffffffffffffffffffffffffffffffffffffff16908173ffffffffffffffffffffffffffffffffffffffff1681525050610820565b6004808111156107ce576107cd610b07565b5b8360048111156107e1576107e0610b07565b5b0361081f5781816080019073ffffffffffffffffffffffffffffffffffffffff16908173ffffffffffffffffffffffffffffffffffffffff16815250505b5b92915050565b60405180610120016040528060608152602001606081526020015f73ffffffffffffffffffffffffffffffffffffffff168152602001606081526020015f151581526020015f60070b81526020015f151581526020016060815260200161088b610891565b81525090565b60405180606001604052805f60070b81526020015f73ffffffffffffffffffffffffffffffffffffffff1681526020015f60070b81525090565b60405180604001604052805f81526020016108e46108ea565b81525090565b6040518060a001604052805f151581526020015f73ffffffffffffffffffffffffffffffffffffffff16815260200160608152602001606081526020015f73ffffffffffffffffffffffffffffffffffffffff1681525090565b5f604051905090565b5f5ffd5b5f5ffd5b5f5ffd5b5f5ffd5b5f601f19601f8301169050919050565b7f4e487b71000000000000000000000000000000000000000000000000000000005f52604160045260245ffd5b6109a38261095d565b810181811067ffffffffffffffff821117156109c2576109c161096d565b5b80604052505050565b5f6109d4610944565b90506109e0828261099a565b919050565b5f67ffffffffffffffff8211156109ff576109fe61096d565b5b610a088261095d565b9050602081019050919050565b8281835e5f83830152505050565b5f610a35610a30846109e5565b6109cb565b905082815260208101848484011115610a5157610a50610959565b5b610a5c848285610a15565b509392505050565b5f82601f830112610a7857610a77610955565b5b8151610a88848260208601610a23565b91505092915050565b5f5f60408385031215610aa757610aa661094d565b5b5f83015167ffffffffffffffff811115610ac457610ac3610951565b5b610ad085828601610a64565b925050602083015167ffffffffffffffff811115610af157610af0610951565b5b610afd85828601610a64565b9150509250929050565b7f4e487b71000000000000000000000000000000000000000000000000000000005f52602160045260245ffd5b7f4e487b71000000000000000000000000000000000000000000000000000000005f52603260045260245ffd5b5f82825260208201905092915050565b7f4661696c656420746f2063726561746520746f6b656e000000000000000000005f82015250565b5f610ba5601683610b61565b9150610bb082610b71565b602082019050919050565b5f6020820190508181035f830152610bd281610b99565b9050919050565b5f81519050919050565b5f82825260208201905092915050565b5f610bfd82610bd9565b610c078185610be3565b9350610c17818560208601610a15565b610c208161095d565b840191505092915050565b5f73ffffffffffffffffffffffffffffffffffffffff82169050919050565b5f610c5482610c2b565b9050919050565b610c6481610c4a565b82525050565b5f8115159050919050565b610c7e81610c6a565b82525050565b5f8160070b9050919050565b610c9981610c84565b82525050565b5f81519050919050565b5f82825260208201905092915050565b5f819050602082019050919050565b5f819050919050565b610cda81610cc8565b82525050565b5f81519050919050565b5f82825260208201905092915050565b5f610d0482610ce0565b610d0e8185610cea565b9350610d1e818560208601610a15565b610d278161095d565b840191505092915050565b5f60a083015f830151610d475f860182610c75565b506020830151610d5a6020860182610c5b565b5060408301518482036040860152610d728282610cfa565b91505060608301518482036060860152610d8c8282610cfa565b9150506080830151610da16080860182610c5b565b508091505092915050565b5f604083015f830151610dc15f860182610cd1565b5060208301518482036020860152610dd98282610d32565b9150508091505092915050565b5f610df18383610dac565b905092915050565b5f602082019050919050565b5f610e0f82610c9f565b610e198185610ca9565b935083602082028501610e2b85610cb9565b805f5b85811015610e665784840389528151610e478582610de6565b9450610e5283610df9565b925060208a01995050600181019050610e2e565b50829750879550505050505092915050565b606082015f820151610e8c5f850182610c90565b506020820151610e9f6020850182610c5b565b506040820151610eb26040850182610c90565b50505050565b5f61016083015f8301518482035f860152610ed38282610bf3565b91505060208301518482036020860152610eed8282610bf3565b9150506040830151610f026040860182610c5b565b5060608301518482036060860152610f1a8282610bf3565b9150506080830151610f2f6080860182610c75565b5060a0830151610f4260a0860182610c90565b5060c0830151610f5560c0860182610c75565b5060e083015184820360e0860152610f6d8282610e05565b915050610100830151610f84610100860182610e78565b508091505092915050565b610f9881610c84565b82525050565b5f8160030b9050919050565b610fb381610f9e565b82525050565b5f6060820190508181035f830152610fd18186610eb8565b9050610fe06020830185610f8f565b610fed6040830184610faa565b949350505050565b5f81905092915050565b5f61100982610ce0565b6110138185610ff5565b9350611023818560208601610a15565b80840191505092915050565b5f61103a8284610fff565b915081905092915050565b61104e81610f9e565b8114611058575f5ffd5b50565b5f8151905061106981611045565b92915050565b5f61107982610c2b565b9050919050565b6110898161106f565b8114611093575f5ffd5b50565b5f815190506110a481611080565b92915050565b5f5f604083850312156110c0576110bf61094d565b5b5f6110cd8582860161105b565b92505060206110de85828601611096565b9150509250929050565b6125c5806110f55f395ff3fe608060405260043610610094575f3560e01c8063d9ca93ff11610058578063d9ca93ff1461019c578063f77c4791146101c4578063f851a440146101ee578063fb9d09c814610218578063fc0c546a1461024057610095565b806315dacbea14610097578063618dc65e146100d35780637349da0a146101105780639b23d3d9146101385780639dbead421461017457610095565b5b005b3480156100a2575f5ffd5b506100bd60048036038101906100b8919061154a565b61026a565b6040516100ca91906115c9565b60405180910390f35b3480156100de575f5ffd5b506100f960048036038101906100f4919061171e565b610382565b6040516101079291906117f0565b60405180910390f35b34801561011b575f5ffd5b506101366004803603810190610131919061185b565b6104d7565b005b348015610143575f5ffd5b5061015e6004803603810190610159919061154a565b610964565b60405161016b91906115c9565b60405180910390f35b34801561017f575f5ffd5b5061019a60048036038101906101959190611899565b610a7c565b005b3480156101a7575f5ffd5b506101c260048036038101906101bd91906118c4565b610c06565b005b3480156101cf575f5ffd5b506101d8610d7c565b6040516101e591906118fe565b60405180910390f35b3480156101f9575f5ffd5b50610202610da1565b60405161020f91906118fe565b60405180910390f35b348015610223575f5ffd5b5061023e60048036038101906102399190611899565b610dc6565b005b34801561024b575f5ffd5b50610254610f56565b60405161026191906118fe565b60405180910390f35b5f5f5f61016773ffffffffffffffffffffffffffffffffffffffff166315dacbea60e01b888888886040516024016102a59493929190611926565b604051602081830303815290604052907bffffffffffffffffffffffffffffffffffffffffffffffffffffffff19166020820180517bffffffffffffffffffffffffffffffffffffffffffffffffffffffff838183161783525050505060405161030f91906119a3565b5f604051808303815f865af19150503d805f8114610348576040519150601f19603f3d011682016040523d82523d5f602084013e61034d565b606091505b50915091508161035e576015610373565b8080602001905181019061037291906119ef565b5b60030b92505050949350505050565b5f60605f5f61016773ffffffffffffffffffffffffffffffffffffffff1663618dc65e60e01b87876040516024016103bb929190611a1a565b604051602081830303815290604052907bffffffffffffffffffffffffffffffffffffffffffffffffffffffff19166020820180517bffffffffffffffffffffffffffffffffffffffffffffffffffffffff838183161783525050505060405161042591906119a3565b5f604051808303815f865af19150503d805f811461045e576040519150601f19603f3d011682016040523d82523d5f602084013e610463565b606091505b50915091507f4af4780e06fe8cb9df64b0794fa6f01399af979175bb988e35e0e57e594567bc8282604051610499929190611a62565b60405180910390a1816104bc57601560405180602001604052805f8152506104c0565b6016815b8160030b9150809450819550505050509250929050565b60045f9054906101000a900473ffffffffffffffffffffffffffffffffffffffff1673ffffffffffffffffffffffffffffffffffffffff163373ffffffffffffffffffffffffffffffffffffffff16148061055d57503073ffffffffffffffffffffffffffffffffffffffff163373ffffffffffffffffffffffffffffffffffffffff16145b61059c576040517f08c379a000000000000000000000000000000000000000000000000000000000815260040161059390611aea565b60405180910390fd5b5f60025f9054906101000a900473ffffffffffffffffffffffffffffffffffffffff1673ffffffffffffffffffffffffffffffffffffffff16634d8fdd6d6040518163ffffffff1660e01b8152600401602060405180830381865afa158015610607573d5f5f3e3d5ffd5b505050506040513d601f19601f8201168201806040525081019061062b9190611b32565b90508061066d576040517f08c379a000000000000000000000000000000000000000000000000000000000815260040161066490611ba7565b60405180910390fd5b61067561143d565b83815f019073ffffffffffffffffffffffffffffffffffffffff16908173ffffffffffffffffffffffffffffffffffffffff168152505082816020019060070b908160070b815250506106c661143d565b30815f019073ffffffffffffffffffffffffffffffffffffffff16908173ffffffffffffffffffffffffffffffffffffffff16815250508361070790611bf2565b816020019060070b908160070b81525050610720611476565b60025f9054906101000a900473ffffffffffffffffffffffffffffffffffffffff16815f019073ffffffffffffffffffffffffffffffffffffffff16908173ffffffffffffffffffffffffffffffffffffffff1681525050600267ffffffffffffffff811115610793576107926115fa565b5b6040519080825280602002602001820160405280156107cc57816020015b6107b961143d565b8152602001906001900390816107b15790505b5081602001819052508181602001515f815181106107ed576107ec611c38565b5b602002602001018190525082816020015160018151811061081157610810611c38565b5b60200260200101819052505f600167ffffffffffffffff811115610838576108376115fa565b5b60405190808252806020026020018201604052801561087157816020015b61085e611476565b8152602001906001900390816108565790505b50905081815f8151811061088857610887611c38565b5b60200260200101819052505f61016773ffffffffffffffffffffffffffffffffffffffff16632f348119836040518263ffffffff1660e01b81526004016108cf9190611f84565b6020604051808303815f875af11580156108eb573d5f5f3e3d5ffd5b505050506040513d601f19601f8201168201806040525081019061090f9190611fce565b60070b9050601660030b811461095a576040517f08c379a000000000000000000000000000000000000000000000000000000000815260040161095190612043565b60405180910390fd5b5050505050505050565b5f5f5f61016773ffffffffffffffffffffffffffffffffffffffff16639b23d3d960e01b8888888860405160240161099f9493929190611926565b604051602081830303815290604052907bffffffffffffffffffffffffffffffffffffffffffffffffffffffff19166020820180517bffffffffffffffffffffffffffffffffffffffffffffffffffffffff8381831617835250505050604051610a0991906119a3565b5f604051808303815f865af19150503d805f8114610a42576040519150601f19603f3d011682016040523d82523d5f602084013e610a47565b606091505b509150915081610a58576015610a6d565b80806020019051810190610a6c91906119ef565b5b60030b92505050949350505050565b60045f9054906101000a900473ffffffffffffffffffffffffffffffffffffffff1673ffffffffffffffffffffffffffffffffffffffff163373ffffffffffffffffffffffffffffffffffffffff161480610b0257503073ffffffffffffffffffffffffffffffffffffffff163373ffffffffffffffffffffffffffffffffffffffff16145b610b41576040517f08c379a0000000000000000000000000000000000000000000000000000000008152600401610b3890611aea565b60405180910390fd5b5f5f610bb760025f9054906101000a900473ffffffffffffffffffffffffffffffffffffffff16845f67ffffffffffffffff811115610b8357610b826115fa565b5b604051908082528060200260200182016040528015610bb15781602001602082028036833780820191505090505b50610f7b565b91509150601660030b8214610c01576040517f08c379a0000000000000000000000000000000000000000000000000000000008152600401610bf8906120ab565b60405180910390fd5b505050565b60045f9054906101000a900473ffffffffffffffffffffffffffffffffffffffff1673ffffffffffffffffffffffffffffffffffffffff163373ffffffffffffffffffffffffffffffffffffffff161480610c8c57503073ffffffffffffffffffffffffffffffffffffffff163373ffffffffffffffffffffffffffffffffffffffff16145b610ccb576040517f08c379a0000000000000000000000000000000000000000000000000000000008152600401610cc290611aea565b60405180910390fd5b5f610cf760025f9054906101000a900473ffffffffffffffffffffffffffffffffffffffff168361109c565b91505080610d78575f610d2b60025f9054906101000a900473ffffffffffffffffffffffffffffffffffffffff16846111ba565b60070b9050601660030b8114610d76576040517f08c379a0000000000000000000000000000000000000000000000000000000008152600401610d6d90612113565b60405180910390fd5b505b5050565b60035f9054906101000a900473ffffffffffffffffffffffffffffffffffffffff1681565b60045f9054906101000a900473ffffffffffffffffffffffffffffffffffffffff1681565b60045f9054906101000a900473ffffffffffffffffffffffffffffffffffffffff1673ffffffffffffffffffffffffffffffffffffffff163373ffffffffffffffffffffffffffffffffffffffff161480610e4c57503073ffffffffffffffffffffffffffffffffffffffff163373ffffffffffffffffffffffffffffffffffffffff16145b610e8b576040517f08c379a0000000000000000000000000000000000000000000000000000000008152600401610e8290611aea565b60405180910390fd5b5f5f610f0660025f9054906101000a900473ffffffffffffffffffffffffffffffffffffffff16845f67ffffffffffffffff811115610ecd57610ecc6115fa565b5b604051908082528060200260200182016040528015610f0057816020015b6060815260200190600190039081610eeb5790505b506112cc565b5091509150601660030b8214610f51576040517f08c379a0000000000000000000000000000000000000000000000000000000008152600401610f489061217b565b60405180910390fd5b505050565b60025f9054906101000a900473ffffffffffffffffffffffffffffffffffffffff1681565b5f5f5f5f61016773ffffffffffffffffffffffffffffffffffffffff1663d6910d0660e01b888888604051602401610fb593929190612241565b604051602081830303815290604052907bffffffffffffffffffffffffffffffffffffffffffffffffffffffff19166020820180517bffffffffffffffffffffffffffffffffffffffffffffffffffffffff838183161783525050505060405161101f91906119a3565b5f604051808303815f865af19150503d805f8114611058576040519150601f19603f3d011682016040523d82523d5f602084013e61105d565b606091505b50915091508161106f5760155f611084565b80806020019051810190611083919061227d565b5b8160030b915080945081955050505050935093915050565b5f5f5f5f61016773ffffffffffffffffffffffffffffffffffffffff1663f2c31ff460e01b87876040516024016110d49291906122bb565b604051602081830303815290604052907bffffffffffffffffffffffffffffffffffffffffffffffffffffffff19166020820180517bffffffffffffffffffffffffffffffffffffffffffffffffffffffff838183161783525050505060405161113e91906119a3565b5f604051808303815f865af19150503d805f8114611177576040519150601f19603f3d011682016040523d82523d5f602084013e61117c565b606091505b50915091508161118e5760155f6111a3565b808060200190518101906111a291906122e2565b5b8160030b9150809450819550505050509250929050565b5f5f5f61016773ffffffffffffffffffffffffffffffffffffffff16638f8d7f9960e01b86866040516024016111f19291906122bb565b604051602081830303815290604052907bffffffffffffffffffffffffffffffffffffffffffffffffffffffff19166020820180517bffffffffffffffffffffffffffffffffffffffffffffffffffffffff838183161783525050505060405161125b91906119a3565b5f604051808303815f865af19150503d805f8114611294576040519150601f19603f3d011682016040523d82523d5f602084013e611299565b606091505b5091509150816112aa5760156112bf565b808060200190518101906112be91906119ef565b5b60030b9250505092915050565b5f5f60605f5f61016773ffffffffffffffffffffffffffffffffffffffff1663e0f4059a60e01b89898960405160240161130893929190612423565b604051602081830303815290604052907bffffffffffffffffffffffffffffffffffffffffffffffffffffffff19166020820180517bffffffffffffffffffffffffffffffffffffffffffffffffffffffff838183161783525050505060405161137291906119a3565b5f604051808303815f865af19150503d805f81146113ab576040519150601f19603f3d011682016040523d82523d5f602084013e6113b0565b606091505b50915091508161140b5760155f5f67ffffffffffffffff8111156113d7576113d66115fa565b5b6040519080825280602002602001820160405280156114055781602001602082028036833780820191505090505b50611420565b8080602001905181019061141f9190612523565b5b8260030b9250809550819650829750505050505093509350939050565b60405180606001604052805f73ffffffffffffffffffffffffffffffffffffffff1681526020015f60070b81526020015f151581525090565b60405180606001604052805f73ffffffffffffffffffffffffffffffffffffffff16815260200160608152602001606081525090565b5f604051905090565b5f5ffd5b5f5ffd5b5f73ffffffffffffffffffffffffffffffffffffffff82169050919050565b5f6114e6826114bd565b9050919050565b6114f6816114dc565b8114611500575f5ffd5b50565b5f81359050611511816114ed565b92915050565b5f819050919050565b61152981611517565b8114611533575f5ffd5b50565b5f8135905061154481611520565b92915050565b5f5f5f5f60808587031215611562576115616114b5565b5b5f61156f87828801611503565b945050602061158087828801611503565b935050604061159187828801611503565b92505060606115a287828801611536565b91505092959194509250565b5f8160070b9050919050565b6115c3816115ae565b82525050565b5f6020820190506115dc5f8301846115ba565b92915050565b5f5ffd5b5f5ffd5b5f601f19601f8301169050919050565b7f4e487b71000000000000000000000000000000000000000000000000000000005f52604160045260245ffd5b611630826115ea565b810181811067ffffffffffffffff8211171561164f5761164e6115fa565b5b80604052505050565b5f6116616114ac565b905061166d8282611627565b919050565b5f67ffffffffffffffff82111561168c5761168b6115fa565b5b611695826115ea565b9050602081019050919050565b828183375f83830152505050565b5f6116c26116bd84611672565b611658565b9050828152602081018484840111156116de576116dd6115e6565b5b6116e98482856116a2565b509392505050565b5f82601f830112611705576117046115e2565b5b81356117158482602086016116b0565b91505092915050565b5f5f60408385031215611734576117336114b5565b5b5f61174185828601611503565b925050602083013567ffffffffffffffff811115611762576117616114b9565b5b61176e858286016116f1565b9150509250929050565b5f819050919050565b61178a81611778565b82525050565b5f81519050919050565b5f82825260208201905092915050565b8281835e5f83830152505050565b5f6117c282611790565b6117cc818561179a565b93506117dc8185602086016117aa565b6117e5816115ea565b840191505092915050565b5f6040820190506118035f830185611781565b818103602083015261181581846117b8565b90509392505050565b5f67ffffffffffffffff82169050919050565b61183a8161181e565b8114611844575f5ffd5b50565b5f8135905061185581611831565b92915050565b5f5f60408385031215611871576118706114b5565b5b5f61187e85828601611503565b925050602061188f85828601611847565b9150509250929050565b5f602082840312156118ae576118ad6114b5565b5b5f6118bb84828501611847565b91505092915050565b5f602082840312156118d9576118d86114b5565b5b5f6118e684828501611503565b91505092915050565b6118f8816114dc565b82525050565b5f6020820190506119115f8301846118ef565b92915050565b61192081611517565b82525050565b5f6080820190506119395f8301876118ef565b61194660208301866118ef565b61195360408301856118ef565b6119606060830184611917565b95945050505050565b5f81905092915050565b5f61197d82611790565b6119878185611969565b93506119978185602086016117aa565b80840191505092915050565b5f6119ae8284611973565b915081905092915050565b5f8160030b9050919050565b6119ce816119b9565b81146119d8575f5ffd5b50565b5f815190506119e9816119c5565b92915050565b5f60208284031215611a0457611a036114b5565b5b5f611a11848285016119db565b91505092915050565b5f604082019050611a2d5f8301856118ef565b8181036020830152611a3f81846117b8565b90509392505050565b5f8115159050919050565b611a5c81611a48565b82525050565b5f604082019050611a755f830185611a53565b8181036020830152611a8781846117b8565b90509392505050565b5f82825260208201905092915050565b7f556e617574686f726973656420657865637574696f6e000000000000000000005f82015250565b5f611ad4601683611a90565b9150611adf82611aa0565b602082019050919050565b5f6020820190508181035f830152611b0181611ac8565b9050919050565b611b1181611a48565b8114611b1b575f5ffd5b50565b5f81519050611b2c81611b08565b92915050565b5f60208284031215611b4757611b466114b5565b5b5f611b5484828501611b1e565b91505092915050565b7f546f6b656e206973206e6f74206173736f6369617465640000000000000000005f82015250565b5f611b91601783611a90565b9150611b9c82611b5d565b602082019050919050565b5f6020820190508181035f830152611bbe81611b85565b9050919050565b7f4e487b71000000000000000000000000000000000000000000000000000000005f52601160045260245ffd5b5f611bfc826115ae565b91507fffffffffffffffffffffffffffffffffffffffffffffffff80000000000000008203611c2e57611c2d611bc5565b5b815f039050919050565b7f4e487b71000000000000000000000000000000000000000000000000000000005f52603260045260245ffd5b5f81519050919050565b5f82825260208201905092915050565b5f819050602082019050919050565b611c97816114dc565b82525050565b5f81519050919050565b5f82825260208201905092915050565b5f819050602082019050919050565b611ccf816115ae565b82525050565b611cde81611a48565b82525050565b606082015f820151611cf85f850182611c8e565b506020820151611d0b6020850182611cc6565b506040820151611d1e6040850182611cd5565b50505050565b5f611d2f8383611ce4565b60608301905092915050565b5f602082019050919050565b5f611d5182611c9d565b611d5b8185611ca7565b9350611d6683611cb7565b805f5b83811015611d96578151611d7d8882611d24565b9750611d8883611d3b565b925050600181019050611d69565b5085935050505092915050565b5f81519050919050565b5f82825260208201905092915050565b5f819050602082019050919050565b608082015f820151611de05f850182611c8e565b506020820151611df36020850182611c8e565b506040820151611e066040850182611cc6565b506060820151611e196060850182611cd5565b50505050565b5f611e2a8383611dcc565b60808301905092915050565b5f602082019050919050565b5f611e4c82611da3565b611e568185611dad565b9350611e6183611dbd565b805f5b83811015611e91578151611e788882611e1f565b9750611e8383611e36565b925050600181019050611e64565b5085935050505092915050565b5f606083015f830151611eb35f860182611c8e565b5060208301518482036020860152611ecb8282611d47565b91505060408301518482036040860152611ee58282611e42565b9150508091505092915050565b5f611efd8383611e9e565b905092915050565b5f602082019050919050565b5f611f1b82611c65565b611f258185611c6f565b935083602082028501611f3785611c7f565b805f5b85811015611f725784840389528151611f538582611ef2565b9450611f5e83611f05565b925060208a01995050600181019050611f3a565b50829750879550505050505092915050565b5f6020820190508181035f830152611f9c8184611f11565b905092915050565b611fad816115ae565b8114611fb7575f5ffd5b50565b5f81519050611fc881611fa4565b92915050565b5f60208284031215611fe357611fe26114b5565b5b5f611ff084828501611fba565b91505092915050565b7f4661696c656420746f2061697264726f7020746f6b656e7300000000000000005f82015250565b5f61202d601883611a90565b915061203882611ff9565b602082019050919050565b5f6020820190508181035f83015261205a81612021565b9050919050565b7f4661696c656420746f206275726e2061737365740000000000000000000000005f82015250565b5f612095601483611a90565b91506120a082612061565b602082019050919050565b5f6020820190508181035f8301526120c281612089565b9050919050565b7f4661696c656420746f206772616e74204b5943000000000000000000000000005f82015250565b5f6120fd601383611a90565b9150612108826120c9565b602082019050919050565b5f6020820190508181035f83015261212a816120f1565b9050919050565b7f4661696c656420746f206d696e742061737365740000000000000000000000005f82015250565b5f612165601483611a90565b915061217082612131565b602082019050919050565b5f6020820190508181035f83015261219281612159565b9050919050565b5f81519050919050565b5f82825260208201905092915050565b5f819050602082019050919050565b5f6121cd8383611cc6565b60208301905092915050565b5f602082019050919050565b5f6121ef82612199565b6121f981856121a3565b9350612204836121b3565b805f5b8381101561223457815161221b88826121c2565b9750612226836121d9565b925050600181019050612207565b5085935050505092915050565b5f6060820190506122545f8301866118ef565b61226160208301856115ba565b818103604083015261227381846121e5565b9050949350505050565b5f5f60408385031215612293576122926114b5565b5b5f6122a0858286016119db565b92505060206122b185828601611fba565b9150509250929050565b5f6040820190506122ce5f8301856118ef565b6122db60208301846118ef565b9392505050565b5f5f604083850312156122f8576122f76114b5565b5b5f612305858286016119db565b925050602061231685828601611b1e565b9150509250929050565b5f81519050919050565b5f82825260208201905092915050565b5f819050602082019050919050565b5f82825260208201905092915050565b5f61236382611790565b61236d8185612349565b935061237d8185602086016117aa565b612386816115ea565b840191505092915050565b5f61239c8383612359565b905092915050565b5f602082019050919050565b5f6123ba82612320565b6123c4818561232a565b9350836020820285016123d68561233a565b805f5b8581101561241157848403895281516123f28582612391565b94506123fd836123a4565b925060208a019950506001810190506123d9565b50829750879550505050505092915050565b5f6060820190506124365f8301866118ef565b61244360208301856115ba565b818103604083015261245581846123b0565b9050949350505050565b5f67ffffffffffffffff821115612479576124786115fa565b5b602082029050602081019050919050565b5f5ffd5b5f6124a061249b8461245f565b611658565b905080838252602082019050602084028301858111156124c3576124c261248a565b5b835b818110156124ec57806124d88882611fba565b8452602084019350506020810190506124c5565b5050509392505050565b5f82601f83011261250a576125096115e2565b5b815161251a84826020860161248e565b91505092915050565b5f5f5f6060848603121561253a576125396114b5565b5b5f612547868287016119db565b935050602061255886828701611fba565b925050604084015167ffffffffffffffff811115612579576125786114b9565b5b612585868287016124f6565b915050925092509256fea26469706673582212206c8d31fa6e4b2ff1999db948e26bb767e625bf15b2e71f787b71d92739e3a05164736f6c634300081e0033","linkReferences":{}},"methodIdentifiers":{"admin()":"f851a440","airdropTokens(address,uint64)":"7349da0a","burn(uint64)":"9dbead42","controller()":"f77c4791","grantKYC(address)":"d9ca93ff","mint(uint64)":"fb9d09c8","redirectForToken(address,bytes)":"618dc65e","token()":"fc0c546a","transferFrom(address,address,address,uint256)":"15dacbea","transferFromNFT(address,address,address,uint256)":"9b23d3d9"},"id":36}