{"abi":[{"type":"constructor","inputs":[{"name":"_name","type":"string","internalType":"string"},{"name":"_symbol","type":"string","internalType":"string"},{"name":"aclContract","type":"address","internalType":"address"},{"name":"allowList","type":"uint64","internalType":"uint64"}],"stateMutability":"payable"},{"type":"function","name":"acl","inputs":[],"outputs":[{"name":"","type":"address","internalType":"contract AccessController"}],"stateMutability":"view"},{"type":"function","name":"airdropTokens","inputs":[{"name":"target","type":"address","internalType":"address"},{"name":"amount","type":"uint64","internalType":"uint64"}],"outputs":[],"stateMutability":"nonpayable"},{"type":"function","name":"burn","inputs":[{"name":"amount","type":"uint64","internalType":"uint64"}],"outputs":[],"stateMutability":"nonpayable"},{"type":"function","name":"controlAllowList","inputs":[],"outputs":[{"name":"","type":"uint64","internalType":"uint64"}],"stateMutability":"view"},{"type":"function","name":"mint","inputs":[{"name":"amount","type":"uint64","internalType":"uint64"}],"outputs":[],"stateMutability":"nonpayable"},{"type":"function","name":"redirectForToken","inputs":[{"name":"token","type":"address","internalType":"address"},{"name":"encodedFunctionSelector","type":"bytes","internalType":"bytes"}],"outputs":[{"name":"responseCode","type":"int256","internalType":"int256"},{"name":"response","type":"bytes","internalType":"bytes"}],"stateMutability":"nonpayable"},{"type":"function","name":"selfAssociate","inputs":[],"outputs":[],"stateMutability":"nonpayable"},{"type":"function","name":"setControlAllowList","inputs":[{"name":"_newLevel","type":"uint64","internalType":"uint64"}],"outputs":[],"stateMutability":"nonpayable"},{"type":"function","name":"token","inputs":[],"outputs":[{"name":"","type":"address","internalType":"address"}],"stateMutability":"view"},{"type":"function","name":"transferFrom","inputs":[{"name":"token","type":"address","internalType":"address"},{"name":"from","type":"address","internalType":"address"},{"name":"to","type":"address","internalType":"address"},{"name":"amount","type":"uint256","internalType":"uint256"}],"outputs":[{"name":"responseCode","type":"int64","internalType":"int64"}],"stateMutability":"nonpayable"},{"type":"function","name":"transferFromNFT","inputs":[{"name":"token","type":"address","internalType":"address"},{"name":"from","type":"address","internalType":"address"},{"name":"to","type":"address","internalType":"address"},{"name":"serialNumber","type":"uint256","internalType":"uint256"}],"outputs":[{"name":"responseCode","type":"int64","internalType":"int64"}],"stateMutability":"nonpayable"},{"type":"function","name":"transferTokens","inputs":[{"name":"target","type":"address","internalType":"address"},{"name":"amount","type":"uint64","internalType":"uint64"}],"outputs":[],"stateMutability":"nonpayable"},{"type":"function","name":"wipe","inputs":[{"name":"amount","type":"uint64","internalType":"uint64"},{"name":"account","type":"address","internalType":"address"}],"outputs":[],"stateMutability":"nonpayable"},{"type":"event","name":"CallResponseEvent","inputs":[{"name":"","type":"bool","indexed":false,"internalType":"bool"},{"name":"","type":"bytes","indexed":false,"internalType":"bytes"}],"anonymous":false}],"bytecode":{"object":"0x6080806040526200222780380380916200001a828562000857565b83398101608082820312620006fb5781516001600160401b038111620006fb578162000048918401620008ba565b602083015190916001600160401b038211620006fb576200006b918401620008ba565b604083015190926001600160a01b0382168203620006fb57606001516001600160401b03811690819003620006fb57600160208181525f80516020620021478339815191529190915560025f80516020620021678339815191525560045f80516020620021e78339815191525560085f80516020620021a78339815191525560105f8051602062002187833981519152555f80516020620022078339815191525560065f81905260405f80516020620021c7833981519152558111620007f757600280546001600160e01b03191691909117604092831b600160401b600160e01b0316179055519161012083016001600160401b03811184821017620007e35760405260608352606060208401525f60408401526060808401525f60808401525f60a08401525f60c0840152606060e0840152620001a862000907565b91610100928385015283526020830152306040830152620001c862000907565b30602082015262786450604082015281830152604051808281011060018060401b038383011117620007e357818101604052600781525f5b60e08110620007c957506200021462000972565b505f805260016020525f8051602062002147833981519152546200023762000936565b306020820152604051916200024c836200083b565b825260208201526200025e8262000996565b526200026a8162000996565b506200027562000972565b5060015f8190526020525f8051602062002167833981519152546200029962000936565b30602082015260405191620002ae836200083b565b82526020820152620002c082620009b8565b52620002cc81620009b8565b50620002d762000972565b5060025f5260016020525f80516020620021e783398151915254620002fb62000936565b3060208201526040519162000310836200083b565b825260208201526200032282620009c9565b526200032e81620009c9565b506200033962000972565b5060035f5260016020525f80516020620021a7833981519152546200035d62000936565b3060208201526040519162000372836200083b565b825260208201526200038482620009da565b526200039081620009da565b506200039b62000972565b5060045f5260016020525f805160206200218783398151915254620003bf62000936565b30602082015260405191620003d4836200083b565b82526020820152620003e682620009eb565b52620003f281620009eb565b50620003fd62000972565b5060055f5260016020525f8051602062002207833981519152546200042162000936565b3060208201526040519162000436836200083b565b825260208201526200044882620009fc565b526200045481620009fc565b506200045f62000972565b5060065f5260016020525f80516020620021c7833981519152546200048362000936565b3060208201526040519162000498836200083b565b82526020820152620004aa8262000a0d565b52620004b68162000a0d565b5060e083015280820151805160070b1580620007b9575b620007a9575b5060405190630fb65bf360e01b6020830152606060248301526200054f620005256200050e855161016060848701526101e486019062000a1e565b60208601518582036083190160a487015262000a1e565b60408501516001600160a01b031660c485015260608501518482036083190160e486015262000a1e565b926080810151151561010484015260a081015160070b61012484015260c0810151151561014484015260e08101519360831984820301610164850152845180825260208201916020808360051b8301019701925f915b83831062000714575f808962000601818d60408d8d0151805160070b61018485015260018060a01b036020820151166101a4850152015160070b6101c48301528460448301526008606483015203601f19810183528262000857565b602081519101346101675af13d156200070b573d9062000621826200087b565b9162000631604051938462000857565b82523d5f602084013e5b15620006ff57604081805181010312620006fb576020810151908160030b809203620006fb57604001516001600160a01b0381169190829003620006fb576016905b60030b03620006b657600380546001600160a01b0319166001600160a01b0392909216919091179055604051611701908162000a468239f35b60405162461bcd60e51b815260206004820152601660248201527f4661696c656420746f2063726561746520746f6b656e000000000000000000006044820152606490fd5b5f80fd5b505f601660156200067d565b6060906200063b565b9091929397602080600192601f19858203018652818c5180518352015190604083820152815115156040820152848060a01b038383015116606082015260c06200078962000772604085015160a0608086015260e085019062000a1e565b6060850151848203603f190160a086015262000a1e565b926080878060a01b03910151169101529a019301930191939290620005a5565b60406276a7009101525f620004d3565b50604081015160070b15620004cd565b602090620007d662000972565b8282850101520162000200565b634e487b7160e01b5f52604160045260245ffd5b606460405162461bcd60e51b815260206004820152602060248201527f496e76616c696420636f6e74726f6c20616c6c6f77206c697374206c6576656c6044820152fd5b604081019081106001600160401b03821117620007e357604052565b601f909101601f19168101906001600160401b03821190821017620007e357604052565b6001600160401b038111620007e357601f01601f191660200190565b5f5b838110620008a95750505f910152565b818101518382015260200162000899565b81601f82011215620006fb578051620008d3816200087b565b92620008e3604051948562000857565b81845260208284010111620006fb5762000904916020808501910162000897565b90565b60405190606082016001600160401b03811183821017620007e3576040525f6040838281528260208201520152565b6040519060a082016001600160401b03811183821017620007e3576040525f608083828152826020820152606060408201526060808201520152565b6040519062000981826200083b565b815f815260206200099162000936565b910152565b805115620009a45760200190565b634e487b7160e01b5f52603260045260245ffd5b805160011015620009a45760400190565b805160021015620009a45760600190565b805160031015620009a45760800190565b805160041015620009a45760a00190565b805160051015620009a45760c00190565b805160061015620009a45760e00190565b9060209162000a398151809281855285808601910162000897565b601f01601f191601019056fe6080604081815260049182361015610015575f80fd5b5f9283803560e01c92836315dacbea14611342575050816331d6ebdf1461116f578163618dc65e1461102a5781637276ecca14610e375781637349da0a146109065781639b23d3d9146108505781639dbead4214610665578163a1d34a4214610501578163c7ea4d44146104d9578163d04f10f7146103ed578163de287359146103c4578163fb9d09c8146100de575063fc0c546a146100b3575f80fd5b346100da57816003193601126100da5760035490516001600160a01b039091168152602090f35b5080fd5b9050346103c0576020806003193601126103bc576100fa61140b565b92600254936001600160401b03906101138287166115e3565b87966001600160a01b039190851c821690885b81518110156103aa57610170888a8861013f8587611565565b518b51636bf8e80f60e01b815291166001600160401b03169181019182523360208301529283918291604090910190565b0381875afa9081156103a0578c91610373575b506101965761019190611522565b610126565b505050909192939495506101ae600190889291611591565b60035416918451926101bf84611450565b828452855190858883019363707a02cd60e11b8552608484019260248501521660070b604483015260606064830152845180915260a48201908860a48260051b85010196019185905b8a83831061034157505050505061022981849503601f19810183528261146b565b5190826101675af19061023a6114e5565b91156103295781518201906060838684019303126103255761025d858401611514565b926102698582016116bd565b506060810151918211610321570181603f820112156103255784810151908486610292846115cc565b61029e8351918261146b565b848152019260051b8201019283116103215784869101915b83831061030957505050506016905b60030b036102d1578380f35b5162461bcd60e51b815291820152601460248201527311985a5b1959081d1bc81b5a5b9d08185cdcd95d60621b604482015260649150fd5b8190610314846116bd565b81520191019085906102b6565b8780fd5b8680fd5b505083815161033781611450565b52601660156102c5565b80919395975061036060019395979960a3198a820301865288516114a7565b9601920192018b95939192969496610208565b6103939150893d8b11610399575b61038b818361146b565b810190611579565b5f610183565b503d610381565b88513d8e823e3d90fd5b5050506101ae88929394959697611591565b8380fd5b8280fd5b5050346100da57816003193601126100da576002548151911c6001600160a01b03168152602090f35b919050346103c057826003193601126103c05760018060a01b03600354168151602081019163248a35ef60e11b8352336024830152604482015260448152608081018181106001600160401b038211176104c6578352518491829190826101675af16104576114e5565b90156104bc576020818051810103126103bc57610478602060169201611514565b60030b03610484578280f35b906020606492519162461bcd60e51b835282015260126024820152714173736f63696174696f6e206661696c756560701b6044820152fd5b5060166015610478565b634e487b7160e01b865260418552602486fd5b5050346100da57816003193601126100da576020906001600160401b03600254169051908152f35b919050346103c0576020806003193601126103bc5761051e61140b565b92600254916001600160401b036105368185166115e3565b87969085871c6001600160a01b031690885b81518110156106535761059286866105608486611565565b518c51636bf8e80f60e01b815291166001600160401b03168a8201908152336020820152909283918291604090910190565b0381875afa908115610649578c9161062c575b506105b8576105b390611522565b610548565b505050909192939495506105cc6001611591565b1693600685116105eb5750505067ffffffffffffffff19161760025580f35b5162461bcd60e51b815291820181905260248201527f496e76616c696420636f6e74726f6c20616c6c6f77206c697374206c6576656c604482015260649150fd5b6106439150873d89116103995761038b818361146b565b5f6105a5565b8a513d8e823e3d90fd5b5050509091929394956105cc90611591565b9050346103c0576020806003193601126103bc5761068161140b565b92600254936001600160401b039061069a8287166115e3565b87966001600160a01b039190851c821690885b815181101561083e576106c6888a8861013f8587611565565b0381875afa9081156103a0578c91610821575b506106ec576106e790611522565b6106ad565b50969750949550929350918691906107046001611591565b6003541684519361071485611450565b83855285519187830193636b48868360e11b85526084840191602485015260079216820b60448401526060606484015285518091528760a4840196019185905b8983831061080457505050505061077581849503601f19810183528261146b565b5190826101675af16107856114e5565b90156107fa5781818051810103126107f657806107b0836107a98660169501611514565b92016116bd565b505b60030b036107be578380f35b5162461bcd60e51b815291820152601460248201527311985a5b1959081d1bc8189d5c9b88185cdcd95d60621b604482015260649150fd5b8480fd5b50601660156107b2565b8451820b8952978801978c97509093019260019190910190610754565b6108389150893d8b116103995761038b818361146b565b5f6106d9565b50505061070488939294959697611591565b5050346100da5781806108b96108ab610868366113b4565b8851639b23d3d960e01b602082019081526001600160a01b03958616602483015293851660448201529390911660648401526084830152929091829060a4820190565b03601f19810183528261146b565b5190826101675af1916108ca6114e5565b92156108f9576020838051810103126108f657506108eb6020809301611514565b905b519060030b8152f35b80fd5b50602091506015906108ed565b8383346100da57806003193601126100da579061092161139a565b9261092a6113f5565b91600254916001600160401b039283811695610945876115e3565b958497859760018060a01b038095851c16985b8151811015610e2257868961096d8385611565565b518751636bf8e80f60e01b815291166001600160401b03169181019182523360208084019190915291829082908e908290819060400103915afa918215610de9578a92610e05575b50506109c9576109c490611522565b610958565b50506109e69192939495969798506109e16001611591565b6115e3565b968597865b8151811015610df3578689610a008385611565565b518751636bf8e80f60e01b815291166001600160401b031691810191825233602080840191909152918290829081906040010381885afa918215610de9578a92610dcc575b5050610a5957610a5490611522565b6109eb565b50505090919293949550610a6d6001611591565b858360035416911660070b92825193610a8585611450565b8685528351876020968783019563707a02cd60e11b87526084840190602485015284604485015260606064850152815180915260a48401908960a48260051b87010193019184905b8b838310610d9f57505050505091610aef81839403601f19810183528261146b565b516101679582875af1610b006114e5565b9015610d885780518101606082888301920312610d8457610b22878301611514565b91610b2e8782016116bd565b506060810151908b8211610d7c570181603f82011215610d805787810151908789610b58846115cc565b610b648351918261146b565b848152019260051b820101928311610d7c5787899101915b838310610d6457505050506016905b60030b03610d2a57600254610ba18982166115e3565b988899848a93881c16925b8151811015610d1457610bf6898b85610bc58587611565565b518c51636bf8e80f60e01b815291166001600160401b03169181019182523360208301529283918291604090910190565b0381885afa908115610d0a578c91610ced575b50610c1c57610c1790611522565b610bac565b505050508698879597949698508491610c356001611591565b8360035416938851928a84019563eca3691760e01b87526024850152306044850152166064830152608482015260848152610c6f81611421565b51925af1610c7b6114e5565b9015610ce35782818051810103126107f657610c9a8360169201611514565b60030b03610ca6578380f35b5162461bcd60e51b81529182015260196024820152784661696c656420746f207472616e7366657220746f6b656e7360381b604482015260649150fd5b5060166015610c9a565b610d0491508a3d8c116103995761038b818361146b565b8e610c09565b89513d8e823e3d90fd5b50505050958098819597610c358396989a611591565b835162461bcd60e51b8152808701869052601460248201527311985a5b1959081d1bc81b5a5b9d08185cdcd95d60621b6044820152606490fd5b8190610d6f846116bd565b8152019101908890610b7c565b8a80fd5b8980fd5b8880fd5b50868451610d9581611450565b5260166015610b8b565b600192949650610dbc8192949660a3198a820301865288516114a7565b9601920192018c94939192610acd565b610de29250803d106103995761038b818361146b565b8c80610a45565b87513d8c823e3d90fd5b505050909192939495610a6d90611591565b610e1b9250803d106103995761038b818361146b565b8d806109b5565b50506109e16109e69293949596979899611591565b9050346103c057816003193601126103c057610e5161140b565b6001600160a01b0392906024358481169081900361102657600254946001600160401b0390610e818288166115e3565b8897861c821690885b8151811015611015578885610e9f8385611565565b518a51636bf8e80f60e01b815291166001600160401b031691810191825233602080840191909152918290829081906040010381885afa91821561100b578d92610fee575b5050610ef857610ef390611522565b610e8a565b50505081929394959650610f0c6001611591565b6003541693855193602085019563efef57f960e01b8752602486015260448501521660070b60648301526064825260a0820190828210908211176104c6578352518491829190826101675af1610f606114e5565b9015610fe4576020818051810103126103bc57610f81602060169201611514565b60030b03610f8d578280f35b906020608492519162461bcd60e51b8352820152602b60248201527f4661696c656420746f20776970652061737365742066726f6d2074686520757360448201526a195c9cc81858d8dbdd5b9d60aa1b6064820152fd5b5060166015610f81565b6110049250803d106103995761038b818361146b565b5f80610ee4565b8a513d8f823e3d90fd5b505050610f0c829394959697611591565b8580fd5b839150346100da57826003193601126100da5761104561139a565b90602435906001600160401b0382116103bc57366023830112156103bc5781013561106f8161148c565b9161107c8651938461146b565b81835236602483830101116107f6576110dc8594929385602086829760246108ab9701838601378301015287516330c6e32f60e11b602082019081526001600160a01b0390951660248201526044810189905292839160648301906114a7565b5190826101675af1906110ed6114e5565b917f4af4780e06fe8cb9df64b0794fa6f01399af979175bb988e35e0e57e594567bc8451821515815285602082015280611129878201876114a7565b0390a11561115557506111516016915b835193849360030b84528060208501528301906114a7565b0390f35b8251915061116282611450565b8152611151601591611139565b905082346108f657826003193601126108f65761118a61139a565b916111936113f5565b936002546001600160401b03946111ab8683166115e3565b949586956001600160a01b0393851c841690875b815181101561132f5787846111d48385611565565b518951636bf8e80f60e01b815291166001600160401b031691810191825233602080840191909152918290829081906040010381885afa918215611325578b92611308575b505061122d5761122890611522565b6111bf565b5050508597869597506112436001979597611591565b836003541693875193602085019563eca3691760e01b875260248601523060448601521660648401521660070b60848201526084815261128281611421565b5190826101675af16112926114e5565b90156112fe576020818051810103126103bc576112b3602060169201611514565b60030b036112bf578280f35b906020606492519162461bcd60e51b835282015260196024820152784661696c656420746f207472616e7366657220746f6b656e7360381b6044820152fd5b50601660156112b3565b61131e9250803d106103995761038b818361146b565b8c80611219565b89513d8d823e3d90fd5b5050508597611243879698979597611591565b818591346100da576108ab816108b9849361135c366113b4565b630aed65f560e11b602086019081526001600160a01b03948516602487015292841660448601529216606484015260848301919091529360a4820190565b600435906001600160a01b03821682036113b057565b5f80fd5b60809060031901126113b0576001600160a01b0360043581811681036113b0579160243582811681036113b0579160443590811681036113b0579060643590565b602435906001600160401b03821682036113b057565b600435906001600160401b03821682036113b057565b60c081019081106001600160401b0382111761143c57604052565b634e487b7160e01b5f52604160045260245ffd5b602081019081106001600160401b0382111761143c57604052565b90601f801991011681019081106001600160401b0382111761143c57604052565b6001600160401b03811161143c57601f01601f191660200190565b91908251928382525f5b8481106114d1575050825f602080949584010152601f8019910116010190565b6020818301810151848301820152016114b1565b3d1561150f573d906114f68261148c565b91611504604051938461146b565b82523d5f602084013e565b606090565b51908160030b82036113b057565b5f1981146115305760010190565b634e487b7160e01b5f52601160045260245ffd5b8051156115515760200190565b634e487b7160e01b5f52603260045260245ffd5b80518210156115515760209160051b010190565b908160209103126113b0575180151581036113b05790565b1561159857565b60405162461bcd60e51b815260206004820152600c60248201526b155b985d5d1a1bdc9a5e995960a21b6044820152606490fd5b6001600160401b03811161143c5760051b60200190565b6001600160401b03908116611622576040519060408201908282109082111761143c5760405260018152602036818301375f61161e82611544565b5290565b6040519060e082019081118282101761143c576040526006815260c03660208301375f8061164f83611544565b528151600110156116a957600160408301528151600210156116a957600260608301528151600310156116a957600360808301528151600410156116a957600560a08301528151600510156116a95750600660c082015290565b634e487b7160e01b81526032600452602490fd5b51908160070b82036113b05756fea2646970667358221220148fd7b2ae4e7aef4d68a7c9d911cd8b7fce64f43e6ffc6d31ec6068ef31cd7364736f6c63430008140033a6eef7e35abe7026729641147f7915573c7e97b47efa546f5f6e3230263bcb49cc69885fda6bcc1a4ace058b4a62bf5e179ea78fd58a1ccd71c22cc9b688792fedc95719e9a3b28dd8e80877cb5880a9be7de1a13fc8b05e7999683b6b5676437dfe757ecd65cbd7922a9c0161e935dd7fdbcc0e999689c7d31633896b1fc60b8f331abe73332f95a25873e8b430885974c0409691f89d643119a11623a7924ad9d16d34ffb15ba3a3d852f0d403e2ce1d691fb54de27ac87cd2f993f3ec330fe2689cd4a84e23ad2f564004f1c9013e9589d260bde6380aba3ca7e09e4df40c","linkReferences":{}},"methodIdentifiers":{"acl()":"de287359","airdropTokens(address,uint64)":"7349da0a","burn(uint64)":"9dbead42","controlAllowList()":"c7ea4d44","mint(uint64)":"fb9d09c8","redirectForToken(address,bytes)":"618dc65e","selfAssociate()":"d04f10f7","setControlAllowList(uint64)":"a1d34a42","token()":"fc0c546a","transferFrom(address,address,address,uint256)":"15dacbea","transferFromNFT(address,address,address,uint256)":"9b23d3d9","transferTokens(address,uint64)":"31d6ebdf","wipe(uint64,address)":"7276ecca"},"id":13}