{"abi":[{"type":"constructor","inputs":[{"name":"aclContract","type":"address","internalType":"address"},{"name":"allowList","type":"uint64","internalType":"uint64"}],"stateMutability":"nonpayable"},{"type":"function","name":"accountsByController","inputs":[{"name":"","type":"string","internalType":"string"}],"outputs":[{"name":"","type":"address","internalType":"address"}],"stateMutability":"view"},{"type":"function","name":"accountsByUser","inputs":[{"name":"","type":"address","internalType":"address"}],"outputs":[{"name":"","type":"address","internalType":"address"}],"stateMutability":"view"},{"type":"function","name":"acl","inputs":[],"outputs":[{"name":"","type":"address","internalType":"contract AccessController"}],"stateMutability":"view"},{"type":"function","name":"allAccounts","inputs":[{"name":"","type":"uint256","internalType":"uint256"}],"outputs":[{"name":"","type":"address","internalType":"address"}],"stateMutability":"view"},{"type":"function","name":"batchCreateAccounts","inputs":[{"name":"controllers","type":"string[]","internalType":"string[]"},{"name":"accountAllowLists","type":"uint64[]","internalType":"uint64[]"}],"outputs":[{"name":"accountAddresses","type":"address[]","internalType":"address[]"}],"stateMutability":"nonpayable"},{"type":"function","name":"controlAllowList","inputs":[],"outputs":[{"name":"","type":"uint64","internalType":"uint64"}],"stateMutability":"view"},{"type":"function","name":"createAccount","inputs":[{"name":"controller","type":"string","internalType":"string"},{"name":"accountAllowList","type":"uint64","internalType":"uint64"}],"outputs":[{"name":"accountAddress","type":"address","internalType":"address"}],"stateMutability":"nonpayable"},{"type":"function","name":"createAccountForUser","inputs":[{"name":"controller","type":"string","internalType":"string"},{"name":"user","type":"address","internalType":"address"},{"name":"accountAllowList","type":"uint64","internalType":"uint64"}],"outputs":[{"name":"accountAddress","type":"address","internalType":"address"}],"stateMutability":"nonpayable"},{"type":"function","name":"getAccountAtIndex","inputs":[{"name":"index","type":"uint256","internalType":"uint256"}],"outputs":[{"name":"","type":"address","internalType":"address"}],"stateMutability":"view"},{"type":"function","name":"getAccountByController","inputs":[{"name":"controller","type":"string","internalType":"string"}],"outputs":[{"name":"","type":"address","internalType":"address"}],"stateMutability":"view"},{"type":"function","name":"getAccountByUser","inputs":[{"name":"user","type":"address","internalType":"address"}],"outputs":[{"name":"","type":"address","internalType":"address"}],"stateMutability":"view"},{"type":"function","name":"getAccountCount","inputs":[],"outputs":[{"name":"","type":"uint256","internalType":"uint256"}],"stateMutability":"view"},{"type":"function","name":"getAccountsRange","inputs":[{"name":"startIndex","type":"uint256","internalType":"uint256"},{"name":"endIndex","type":"uint256","internalType":"uint256"}],"outputs":[{"name":"accounts","type":"address[]","internalType":"address[]"}],"stateMutability":"view"},{"type":"function","name":"getStats","inputs":[],"outputs":[{"name":"totalAccounts","type":"uint256","internalType":"uint256"},{"name":"totalLinkedUsers","type":"uint256","internalType":"uint256"}],"stateMutability":"view"},{"type":"function","name":"isAccountValid","inputs":[{"name":"account","type":"address","internalType":"address"}],"outputs":[{"name":"","type":"bool","internalType":"bool"}],"stateMutability":"view"},{"type":"function","name":"isValidAccount","inputs":[{"name":"","type":"address","internalType":"address"}],"outputs":[{"name":"","type":"bool","internalType":"bool"}],"stateMutability":"view"},{"type":"function","name":"linkAccountToUser","inputs":[{"name":"controller","type":"string","internalType":"string"},{"name":"user","type":"address","internalType":"address"}],"outputs":[],"stateMutability":"nonpayable"},{"type":"function","name":"setControlAllowList","inputs":[{"name":"_newLevel","type":"uint64","internalType":"uint64"}],"outputs":[],"stateMutability":"nonpayable"},{"type":"function","name":"unlinkUserFromAccount","inputs":[{"name":"user","type":"address","internalType":"address"}],"outputs":[],"stateMutability":"nonpayable"},{"type":"event","name":"AccountCreated","inputs":[{"name":"accountAddress","type":"address","indexed":true,"internalType":"address"},{"name":"controller","type":"string","indexed":true,"internalType":"string"},{"name":"creator","type":"address","indexed":true,"internalType":"address"},{"name":"allowList","type":"uint64","indexed":false,"internalType":"uint64"}],"anonymous":false},{"type":"event","name":"AccountLinkedToUser","inputs":[{"name":"accountAddress","type":"address","indexed":true,"internalType":"address"},{"name":"user","type":"address","indexed":true,"internalType":"address"}],"anonymous":false},{"type":"event","name":"AccountUnlinkedFromUser","inputs":[{"name":"accountAddress","type":"address","indexed":true,"internalType":"address"},{"name":"user","type":"address","indexed":true,"internalType":"address"}],"anonymous":false},{"type":"error","name":"AccountAlreadyExists","inputs":[{"name":"controller","type":"string","internalType":"string"}]},{"type":"error","name":"AccountNotFound","inputs":[{"name":"controller","type":"string","internalType":"string"}]},{"type":"error","name":"InvalidAccount","inputs":[{"name":"account","type":"address","internalType":"address"}]},{"type":"error","name":"UserAlreadyHasAccount","inputs":[{"name":"user","type":"address","internalType":"address"}]}],"bytecode":{"object":"0x6080346100dd576001600160401b03601f61250738819003918201601f1916840191838311858410176100e15780859260409485528339810103126100dd578151916001600160a01b03831683036100dd57602001519081168091036100dd5760068111610099575f80546001600160e01b03191691909117604092831b600160401b600160e01b03161790555161241190816100f68239f35b606460405162461bcd60e51b815260206004820152602060248201527f496e76616c696420636f6e74726f6c20616c6c6f77206c697374206c6576656c6044820152fd5b5f80fd5b634e487b7160e01b5f52604160045260245ffdfe6040608081526004908136101562000015575f80fd5b5f90813560e01c8063069a9ac9146200082b5780630dd58803146200071d57806323cca69c146200047b578063296cb051146200056e578063366d6a8d14620005de5780633aa0dff2146200056e5780635183d6fd14620005025780636c3fda1d14620004bc57806373a6b2be146200047b578063a1d34a4214620003ef578063a98e4e7714620003cf578063b660348b146200036b578063c575e75c14620002d2578063c59d48471462000283578063c7ea4d44146200025b578063c8e9b3e7146200021d578063d90bee29146200021d578063de28735914620001f45763ecfe28e91462000103575f80fd5b34620001f0576060366003190112620001f05767ffffffffffffffff928035848111620001ec5762000139903690830162000aed565b6200014362000b91565b906044359586168603620001e8576001600160a01b039182168086526002602052848620549093908316620001d15750620001a26020967fbd6cb331a9823fece502bb26d9fb7134655a6c59adf461eeec2a5699618cbb719262000c53565b91838652600287528486209216938492836bffffffffffffffffffffffff60a01b825416179055519480a38152f35b84516306d7758360e21b8152908101849052602490fd5b8480fd5b8380fd5b5080fd5b5034620001f05781600319360112620001f05790548151911c6001600160a01b03168152602090f35b5034620001f0576020366003190112620001f0576020916001600160a01b03908290826200024a62000ba8565b168152600285522054169051908152f35b5034620001f05781600319360112620001f05767ffffffffffffffff60209254169051908152f35b509034620002cf5780600319360112620002cf5760035490805b828110620002b2575082519182526020820152f35b90620002c2620002c99162000e4f565b9162000e4f565b6200029d565b80fd5b5082346200036757602036600319011262000367576001600160a01b039182620002fb62000ba8565b1692838552600260205281852054169182156200035257508284526002602052832080546001600160a01b03191690557fb672a53aadd551497746cb0c51934652c4060ddf24fae83ea52e0e6fb7349f5c8380a380f35b8460249251916325abcd9160e11b8352820152fd5b8280fd5b509034620002cf5781600319360112620002cf5767ffffffffffffffff9280358481116200036757620003a19136910162000aed565b906024359384168403620002cf5750602092620003be9162000c53565b90516001600160a01b039091168152f35b5034620001f05781600319360112620001f0576020906003549051908152f35b50823462000367576020366003190112620003675780359167ffffffffffffffff8316809303620001ec576006831162000438575050815467ffffffffffffffff191617815580f35b906020606492519162461bcd60e51b8352820152602060248201527f496e76616c696420636f6e74726f6c20616c6c6f77206c697374206c6576656c6044820152fd5b50823462000367576020366003190112620003675760209260ff918391906001600160a01b03620004ab62000ba8565b168252855220541690519015158152f35b5082346200036757602036600319011262000367573591600354831015620002cf5750620004ec60209262000be2565b60018060a01b0391549060031b1c169051908152f35b50919034620002cf576020366003190112620002cf57508035906003548210156200053557602083620004ec8462000be2565b606490602084519162461bcd60e51b83528201526013602482015272496e646578206f7574206f6620626f756e647360681b6044820152fd5b509034620002cf576020366003190112620002cf5782359067ffffffffffffffff8211620002cf5750602092620005a89136910162000aed565b82620005bd8351928381519384920162000bbf565b6001908201908152819003830190205490516001600160a01b039091168152f35b508290346200036757806003193601126200036757813560249081359182821015620006eb5760039586548411620006a9578284039384116200069957620006268462000e17565b95815b8581106200064457865180620006408a8262000b4c565b0390f35b8085018086116200068757906200065f620006819262000be2565b9054908b1b1c6001600160a01b03166200067a828b62000e72565b5262000e4f565b62000629565b5050634e487b7160e01b825260119052fd5b634e487b7160e01b815260118652fd5b845162461bcd60e51b81526020818801526017818401527f456e6420696e646578206f7574206f6620626f756e64730000000000000000006044820152606490fd5b84600d606492602087519362461bcd60e51b85528401528201526c496e76616c69642072616e676560981b6044820152fd5b508290346200036757806003193601126200036757813567ffffffffffffffff8111620001ec5762000753903690840162000aed565b906200075e62000b91565b9281519383516200077481876020880162000bbf565b85016001815285602060018060a01b0397889303019020541693841562000802575084169384865260026020528286205416620007ed57508284526002602052832080546001600160a01b031916821790557fbd6cb331a9823fece502bb26d9fb7134655a6c59adf461eeec2a5699618cbb718380a380f35b8360249251916306d7758360e21b8352820152fd5b620008279150602093519384936313032d4560e01b8552840152602483019062000c2c565b0390fd5b50919034620002cf5782600319360112620002cf5767ffffffffffffffff908235828111620001f05736602382011215620001f0578084013590620008708262000ad4565b946200087f8751968762000a9d565b8286526020918287016024809560051b8301019136831162000a9957858101915b83831062000a6f5750505050823592858411620001e85736602385011215620001e8578382013593620008d38562000ad4565b94620008e28a51968762000a9d565b808652828587019160051b83010191368311620009f4578301905b82821062000a5157505050865184510362000a19576200091e875162000e17565b95855b885181101562000a0a5780856200093d6200096e938c62000e72565b518c856200094c858c62000e72565b51168151958693849363b660348b60e01b85528b850152604484019062000c2c565b908883015203818b305af1801562000a00578890620009b3575b620009ad92506200099a828b62000e72565b6001600160a01b03909116905262000e4f565b62000921565b50908581813d8311620009f8575b620009cd818362000a9d565b81010312620009f457516001600160a01b0381168103620009f45790620009ad9162000988565b8780fd5b503d620009c1565b8b513d8a823e3d90fd5b895180620006408a8262000b4c565b60159060649389519362461bcd60e51b855284015282015274082e4e4c2f240d8cadccee8d040dad2e6dac2e8c6d605b1b6044820152fd5b8135898116810362000a6b578152908501908501620008fd565b8880fd5b823589811162000a6b57869162000a8d83928a369187010162000aed565b815201920191620008a0565b8680fd5b90601f8019910116810190811067ffffffffffffffff82111762000ac057604052565b634e487b7160e01b5f52604160045260245ffd5b67ffffffffffffffff811162000ac05760051b60200190565b81601f8201121562000b485780359067ffffffffffffffff821162000ac0576040519262000b26601f8401601f19166020018562000a9d565b8284526020838301011162000b4857815f926020809301838601378301015290565b5f80fd5b602090816040818301928281528551809452019301915f5b82811062000b73575050505090565b83516001600160a01b03168552938101939281019260010162000b64565b602435906001600160a01b038216820362000b4857565b600435906001600160a01b038216820362000b4857565b5f5b83811062000bd15750505f910152565b818101518382015260200162000bc1565b60035481101562000c185760035f527fc2575a0e9e593c00f959f8c92f12db2869c3395a3b0502d05e2516446f71f85b01905f90565b634e487b7160e01b5f52603260045260245ffd5b9060209162000c478151809281855285808601910162000bbf565b601f01601f1916010190565b919091604080519180516020918281019162000c7181878562000bbf565b850160018152858460018060a01b0397889303019020541662000df3575f858154861c16978551906115548083019167ffffffffffffffff918484108385111762000ddf57918493918a9b9c9d9362000e8886396060835262000cd8606084018962000c2c565b938a84015216998a910152039082f0801562000dd35787169685518581855162000d0481838a62000bbf565b81016001815203019020886bffffffffffffffffffffffff60a01b8254161790556003546801000000000000000081101562000dbf57928662000daf937f6a79bed52a171a1b3c9c0d9e05e494e9e47c16eb5c1e2767fdf15c8666826a91969362000d788760018e9b990160035562000be2565b819291549060031b918b831b921b19161790558781526004865220600160ff19825416179055865192839283925192839162000bbf565b810103902093519485523394a490565b634e487b7160e01b83526041600452602483fd5b508451903d90823e3d90fd5b634e487b7160e01b86526041600452602486fd5b8262000827855192839263131cc8af60e31b84526004840152602483019062000c2c565b9062000e238262000ad4565b62000e32604051918262000a9d565b828152809262000e45601f199162000ad4565b0190602036910137565b5f19811462000e5e5760010190565b634e487b7160e01b5f52601160045260245ffd5b805182101562000c185760209160051b01019056fe6080604052346200029b5762001554803803806200001d81620002b4565b9283398101906060818303126200029b5780516001600160401b0391908281116200029b57810192601f908082860112156200029b578451928484116200024457602093601f19966200007686898785011601620002b4565b938285528683830101116200029b5785905f5b8381106200029f5750505f918401015280840151906001600160a01b03821682036200029b57604001518581168091036200029b576006811162000258575f549168010000000000000000600160e01b039060401b169163ffffffff60e01b1617175f5560019283805560ff1960035416600355815194851162000244576002548481811c9116801562000239575b828210146200022557838111620001dc575b5080928511600114620001755750839450908392915f9462000169575b50501b915f199060031b1c1916176002555b6040516112799081620002db8239f35b015192505f8062000147565b92948490811660025f52845f20945f905b88838310620001c15750505010620001a8575b505050811b0160025562000159565b01515f1960f88460031b161c191690555f808062000199565b85870151885590960195948501948793509081019062000186565b60025f52815f208480880160051c8201928489106200021b575b0160051c019085905b8281106200020f5750506200012a565b5f8155018590620001ff565b92508192620001f6565b634e487b7160e01b5f52602260045260245ffd5b90607f169062000118565b634e487b7160e01b5f52604160045260245ffd5b6064856040519062461bcd60e51b825280600483015260248201527f496e76616c696420636f6e74726f6c20616c6c6f77206c697374206c6576656c6044820152fd5b5f80fd5b81810183015186820184015287920162000089565b6040519190601f01601f191682016001600160401b03811183821017620002445760405256fe60406080815260048036101561004b575b50361561001b575f80fd5b807f9936746a4565f9766fa768f88f56a7487c78780ac179562773d1c75c5269537e9151338152346020820152a1005b5f90813560e01c90816328cafd7214610c0357816331b3203a14610aa757816342c8afad146108e5578163431d8ffe14610866578163439e2e45146108af57816344eb5e00146108665781634743c2fd1461083957816347e7ef241461068f57816352226ef014610671578163526966011461050c5781635e7db13d146105a957816369328dec146105555781638e543a121461050c578163a1d34a421461047f578163a7efe34814610366578163acbc682014610228578163b2567d1f146101f957508063c7ea4d44146101d2578063dce83ae314610189578063de287359146101615763e9ea28de0361001057903461015d578160031936011261015d5760209060ff6003541690519015158152f35b5080fd5b50903461015d578160031936011261015d5790548151911c6001600160a01b03168152602090f35b50903461015d578060031936011261015d57806020926101a7610cde565b6101af610cf8565b6001600160a01b0391821683526006865283832091168252845220549051908152f35b50903461015d578160031936011261015d5767ffffffffffffffff60209254169051908152f35b90503461015d57602036600319011261015d573580151580910361015d5760ff80196003541691161760035580f35b90503461015d578260031936011261015d57610242610cde565b6024359161024e610d9a565b824710610327578380808086865af13d15610322573d67ffffffffffffffff811161030f5786519061028a601f8201601f191660200183610d4b565b81528560203d92013e5b156102d5575060207f645e52ee0ce5c05d60f4b051028f29630be7001f5d84cba67fe6872db872cff89184955193845260018060a01b031692a36001805580f35b606490602086519162461bcd60e51b8352820152601460248201527312109054881d1c985b9cd9995c8819985a5b195960621b6044820152fd5b634e487b7160e01b865260418352602486fd5b610294565b606490602086519162461bcd60e51b83528201526019602482015278496e73756666696369656e7420484241522062616c616e636560381b6044820152fd5b8391503461047b57602036600319011261047b57610382610cde565b825163248a35ef60e11b815230838201526001600160a01b03909116602482018190529290602081604481886101675af190811561047157906016918691610443575b5060070b036103f75750507fbbbf805ef99ca7d0b7d2cc769719f2a281c9b3331a3642efa75a712e3094a1668280a280f35b61043f92505191829162461bcd60e51b835282016060906020815260196020820152782330b4b632b2103a379030b9b9b7b1b4b0ba32903a37b5b2b760391b60408201520190565b0390fd5b610464915060203d811161046a575b61045c8183610d4b565b810190610d81565b866103c5565b503d610452565b82513d87823e3d90fd5b8280fd5b8391503461047b57602036600319011261047b5780359167ffffffffffffffff831680930361050857600683116104c5575050815467ffffffffffffffff191617815580f35b906020606492519162461bcd60e51b8352820152602060248201527f496e76616c696420636f6e74726f6c20616c6c6f77206c697374206c6576656c6044820152fd5b8380fd5b82843461015d578060031936011261015d578060209261052a610cde565b610532610cf8565b6001600160a01b0391821683526005865283832091168252845220549051908152f35b82346105a65760603660031901126105a65761056f610cde565b6044356001600160a01b038116810361047b5761059f9161058e610d9a565b610596610d9a565b60243591610dbd565b6001805580f35b80fd5b82843461015d578060031936011261015d576105c3610cde565b6001600160a01b0316808352602084905281832054939091906024359085821161062e57610614827faa3cec92d25e6e7cf3bf119de96782be90a19b7f9d717dc51e03d3f8f8aa22b1959697611161565b90858752602052808387205582519182526020820152a280f35b606490602084519162461bcd60e51b8352820152601e60248201527f43616e6e6f7420756e6c6f636b206d6f7265207468616e206c6f636b656400006044820152fd5b82843461015d578060031936011261015d57806020926101a7610cde565b9050828060031936011261047b576106a5610cde565b815163e1f21c6760e01b81526001600160a01b03821684820190815233602082810191909152602435604083018190529094939092909181906060010390858161016793818b865af190811561082f57906016918991610812575b5060070b036107cf57835163eca3691760e01b81526001600160a01b039092168683015233602483015230604483015267ffffffffffffffff90921660070b60648201529083908290608490829089905af1908115610471579060169186916107b2575b5060070b03610771578380f35b5162461bcd60e51b815291820152601860248201527f4661696c656420746f207472616e7366657220746f6b656e0000000000000000604482015260649150fd5b6107c99150843d861161046a5761045c8183610d4b565b86610764565b835162461bcd60e51b8152808701869052601760248201527f4661696c656420746f20617070726f766520746f6b656e0000000000000000006044820152606490fd5b6108299150873d891161046a5761045c8183610d4b565b89610700565b85513d8a823e3d90fd5b82843461015d57602036600319011261015d5760209061085f61085a610cde565b611182565b9051908152f35b82843461015d578060031936011261015d5780602092610884610cde565b61088c610cf8565b6001600160a01b0391821683526007865283832091168252845220549051908152f35b82346105a65760603660031901126105a65761059f6108cc610cde565b6108d4610cf8565b6108dc610d9a565b60443591610dbd565b9050823461047b576108f636610d0e565b94939091929560018060a01b038092169586895260209260058452868a20981697888a52835284868a205410610a715786895260058352858920888a528352858920610943868254611161565b905586895260068352858920888a528352858920610962858254611161565b905586895260058352858920888a52835285892054610a59575085885260078252848820878952825287858120555b86885280825284882054808411610a17577faa3cec92d25e6e7cf3bf119de96782be90a19b7f9d717dc51e03d3f8f8aa22b1868594936109f57fa6f6d5e50bc84f153a0d6a9f9b37780433f92dc32d7e10f975ab3831c36898fa9998978c95611161565b90848d52855280828d205581519086825285820152a28351928352820152a380f35b5060649185519162461bcd60e51b8352820152601e60248201527f43616e6e6f7420756e6c6f636b206d6f7265207468616e206c6f636b656400006044820152fd5b86895260078352858920888a52835285892055610991565b5060649185519162461bcd60e51b835282015260116024820152704e6f206c6f616e7320746f20726570617960781b6044820152fd5b8391503461047b57610ab836610d0e565b9260018060a0989496981b0380971695868952610b2960209260058452858b20998116998a8c528452858b20610aef898254611236565b9055888b5260068452858b208a8c528452858b20610b0e868254611236565b9055888b5260078452858b208a8c52845286868c2055611182565b8311610bb457917f7695c943e86fe119073b098f1b278727c236f4a661c96a660dacbf88f89c606795939160609593898b52808252838b20610b6c848254611236565b9055898b528152887fb8cecfd0e38e35fdd1cbaa8877116ea7f0dc948c1317b8ce1a47eaedfe64154684808d205481519086825285820152a28251948552840152820152a380f35b60849184519162461bcd60e51b8352820152602560248201527f496e73756666696369656e7420756e6c6f636b65642062616c616e636520746f604482015264206c6f636b60d81b6064820152fd5b9050823461047b578060031936011261047b57610c1e610cde565b60243590610c2b81611182565b8211610c8d57907fb8cecfd0e38e35fdd1cbaa8877116ea7f0dc948c1317b8ce1a47eaedfe641546929160018060a01b03169384865280602052828620610c73838254611236565b90558486526020528185205482519182526020820152a280f35b825162461bcd60e51b8152602081860152602560248201527f496e73756666696369656e7420756e6c6f636b65642062616c616e636520746f604482015264206c6f636b60d81b6064820152608490fd5b600435906001600160a01b0382168203610cf457565b5f80fd5b602435906001600160a01b0382168203610cf457565b60a0906003190112610cf4576001600160a01b03906004358281168103610cf457916024359081168103610cf45790604435906064359060843590565b90601f8019910116810190811067ffffffffffffffff821117610d6d57604052565b634e487b7160e01b5f52604160045260245ffd5b90816020910312610cf457518060070b8103610cf45790565b600260015414610dab576002600155565b604051633ee5aeb560e01b8152600490fd5b6001600160a01b0382811693908415610fda576040805163e1f21c6760e01b81526001600160a01b0386166004820152306024820152604481018490526101679560209592935f9390929091908781606481888d5af1908115610fd057906016918691610fb3575b5060070b03610f7357610e3790611182565b8511610f1e5782916084879286519485938492630aed65f560e11b84528d6004850152306024850152169a8b60448401528960648401525af1918215610f135790601692610ef6575b5060070b03610eb357519081527f645e52ee0ce5c05d60f4b051028f29630be7001f5d84cba67fe6872db872cff89190a3565b5162461bcd60e51b815260048101839052601960248201527f4661696c656420746f207472616e7366657220617373657473000000000000006044820152606490fd5b610f0d9150853d871161046a5761045c8183610d4b565b5f610e80565b8351903d90823e3d90fd5b835162461bcd60e51b815260048101879052602860248201527f696e73756666696369656e742061737365747320746f20636f6d706c657465206044820152673a3930b739b332b960c11b6064820152608490fd5b845162461bcd60e51b81526020600482015260196024820152782330b4b632b2103a379030b9b9b7b1b4b0ba32903a37b5b2b760391b6044820152606490fd5b610fca9150893d8b1161046a5761045c8183610d4b565b5f610e25565b86513d87823e3d90fd5b91935091610fe790611182565b821161110d57610ff5610d9a565b8147106110cc575f928380808086855af13d156110c7573d67ffffffffffffffff81116110b35760405190611034601f8201601f191660200183610d4b565b81528560203d92013e5b15611077577f645e52ee0ce5c05d60f4b051028f29630be7001f5d84cba67fe6872db872cff8916020916040519485521692a360018055565b60405162461bcd60e51b815260206004820152601460248201527312109054881d1c985b9cd9995c8819985a5b195960621b6044820152606490fd5b634e487b7160e01b86526041600452602486fd5b61103e565b60405162461bcd60e51b8152602060048201526019602482015278496e73756666696369656e7420484241522062616c616e636560381b6044820152606490fd5b60405162461bcd60e51b815260206004820152602660248201527f696e73756666696369656e74204842415220746f20636f6d706c65746520747260448201526530b739b332b960d11b6064820152608490fd5b9190820391821161116e57565b634e487b7160e01b5f52601160045260245ffd5b6001600160a01b03165f8181526004602052604081205490918015611223576020602491604051928380926370a0823160e01b82523060048301525afa9081156112185783916111e7575b508082116111e2576111df9250611161565b90565b505090565b90506020813d8211611210575b8161120160209383610d4b565b8101031261047b57515f6111cd565b3d91506111f4565b6040513d85823e3d90fd5b50478082116111e2576111df9250611161565b9190820180921161116e5756fea2646970667358221220e024b269207bf29913ffd1b33e9edb0719aa33edbe3169778edb8e30b1ff879364736f6c63430008140033a2646970667358221220f9f25da794d2f5cd64fdaa9d61d429b15a914e852baa32c55668a58c198f37e864736f6c63430008140033","linkReferences":{}},"methodIdentifiers":{"accountsByController(string)":"3aa0dff2","accountsByUser(address)":"d90bee29","acl()":"de287359","allAccounts(uint256)":"6c3fda1d","batchCreateAccounts(string[],uint64[])":"069a9ac9","controlAllowList()":"c7ea4d44","createAccount(string,uint64)":"b660348b","createAccountForUser(string,address,uint64)":"ecfe28e9","getAccountAtIndex(uint256)":"5183d6fd","getAccountByController(string)":"296cb051","getAccountByUser(address)":"c8e9b3e7","getAccountCount()":"a98e4e77","getAccountsRange(uint256,uint256)":"366d6a8d","getStats()":"c59d4847","isAccountValid(address)":"73a6b2be","isValidAccount(address)":"23cca69c","linkAccountToUser(string,address)":"0dd58803","setControlAllowList(uint64)":"a1d34a42","unlinkUserFromAccount(address)":"c575e75c"},"id":19}