{"abi":[{"type":"constructor","inputs":[{"name":"aclContract","type":"address","internalType":"address"},{"name":"allowList","type":"uint64","internalType":"uint64"}],"stateMutability":"nonpayable"},{"type":"function","name":"accountsByController","inputs":[{"name":"","type":"string","internalType":"string"}],"outputs":[{"name":"","type":"address","internalType":"address"}],"stateMutability":"view"},{"type":"function","name":"accountsByUser","inputs":[{"name":"","type":"address","internalType":"address"}],"outputs":[{"name":"","type":"address","internalType":"address"}],"stateMutability":"view"},{"type":"function","name":"acl","inputs":[],"outputs":[{"name":"","type":"address","internalType":"contract AccessController"}],"stateMutability":"view"},{"type":"function","name":"allAccounts","inputs":[{"name":"","type":"uint256","internalType":"uint256"}],"outputs":[{"name":"","type":"address","internalType":"address"}],"stateMutability":"view"},{"type":"function","name":"batchCreateAccounts","inputs":[{"name":"controllers","type":"string[]","internalType":"string[]"},{"name":"accountAllowLists","type":"uint64[]","internalType":"uint64[]"}],"outputs":[{"name":"accountAddresses","type":"address[]","internalType":"address[]"}],"stateMutability":"nonpayable"},{"type":"function","name":"controlAllowList","inputs":[],"outputs":[{"name":"","type":"uint64","internalType":"uint64"}],"stateMutability":"view"},{"type":"function","name":"createAccount","inputs":[{"name":"controller","type":"string","internalType":"string"},{"name":"accountAllowList","type":"uint64","internalType":"uint64"}],"outputs":[{"name":"accountAddress","type":"address","internalType":"address"}],"stateMutability":"nonpayable"},{"type":"function","name":"createAccountForUser","inputs":[{"name":"controller","type":"string","internalType":"string"},{"name":"user","type":"address","internalType":"address"},{"name":"accountAllowList","type":"uint64","internalType":"uint64"}],"outputs":[{"name":"accountAddress","type":"address","internalType":"address"}],"stateMutability":"nonpayable"},{"type":"function","name":"getAccountAtIndex","inputs":[{"name":"index","type":"uint256","internalType":"uint256"}],"outputs":[{"name":"","type":"address","internalType":"address"}],"stateMutability":"view"},{"type":"function","name":"getAccountByController","inputs":[{"name":"controller","type":"string","internalType":"string"}],"outputs":[{"name":"","type":"address","internalType":"address"}],"stateMutability":"view"},{"type":"function","name":"getAccountByUser","inputs":[{"name":"user","type":"address","internalType":"address"}],"outputs":[{"name":"","type":"address","internalType":"address"}],"stateMutability":"view"},{"type":"function","name":"getAccountCount","inputs":[],"outputs":[{"name":"","type":"uint256","internalType":"uint256"}],"stateMutability":"view"},{"type":"function","name":"getAccountsRange","inputs":[{"name":"startIndex","type":"uint256","internalType":"uint256"},{"name":"endIndex","type":"uint256","internalType":"uint256"}],"outputs":[{"name":"accounts","type":"address[]","internalType":"address[]"}],"stateMutability":"view"},{"type":"function","name":"getStats","inputs":[],"outputs":[{"name":"totalAccounts","type":"uint256","internalType":"uint256"},{"name":"totalLinkedUsers","type":"uint256","internalType":"uint256"}],"stateMutability":"view"},{"type":"function","name":"isAccountValid","inputs":[{"name":"account","type":"address","internalType":"address"}],"outputs":[{"name":"","type":"bool","internalType":"bool"}],"stateMutability":"view"},{"type":"function","name":"isValidAccount","inputs":[{"name":"","type":"address","internalType":"address"}],"outputs":[{"name":"","type":"bool","internalType":"bool"}],"stateMutability":"view"},{"type":"function","name":"linkAccountToUser","inputs":[{"name":"controller","type":"string","internalType":"string"},{"name":"user","type":"address","internalType":"address"}],"outputs":[],"stateMutability":"nonpayable"},{"type":"function","name":"setControlAllowList","inputs":[{"name":"_newLevel","type":"uint64","internalType":"uint64"}],"outputs":[],"stateMutability":"nonpayable"},{"type":"function","name":"unlinkUserFromAccount","inputs":[{"name":"user","type":"address","internalType":"address"}],"outputs":[],"stateMutability":"nonpayable"},{"type":"event","name":"AccountCreated","inputs":[{"name":"accountAddress","type":"address","indexed":true,"internalType":"address"},{"name":"controller","type":"string","indexed":true,"internalType":"string"},{"name":"creator","type":"address","indexed":true,"internalType":"address"},{"name":"allowList","type":"uint64","indexed":false,"internalType":"uint64"}],"anonymous":false},{"type":"event","name":"AccountLinkedToUser","inputs":[{"name":"accountAddress","type":"address","indexed":true,"internalType":"address"},{"name":"user","type":"address","indexed":true,"internalType":"address"}],"anonymous":false},{"type":"event","name":"AccountUnlinkedFromUser","inputs":[{"name":"accountAddress","type":"address","indexed":true,"internalType":"address"},{"name":"user","type":"address","indexed":true,"internalType":"address"}],"anonymous":false},{"type":"error","name":"AccountAlreadyExists","inputs":[{"name":"controller","type":"string","internalType":"string"}]},{"type":"error","name":"AccountNotFound","inputs":[{"name":"controller","type":"string","internalType":"string"}]},{"type":"error","name":"InvalidAccount","inputs":[{"name":"account","type":"address","internalType":"address"}]},{"type":"error","name":"UserAlreadyHasAccount","inputs":[{"name":"user","type":"address","internalType":"address"}]}],"bytecode":{"object":"0x6080346100dd576001600160401b03601f61361638819003918201601f1916840191838311858410176100e15780859260409485528339810103126100dd578151916001600160a01b03831683036100dd57602001519081168091036100dd5760068111610099575f80546001600160e01b03191691909117604092831b600160401b600160e01b03161790555161352090816100f68239f35b606460405162461bcd60e51b815260206004820152602060248201527f496e76616c696420636f6e74726f6c20616c6c6f77206c697374206c6576656c6044820152fd5b5f80fd5b634e487b7160e01b5f52604160045260245ffdfe60406080815260048036101562000014575f80fd5b5f90813560e01c8063069a9ac91462000c025780630dd588031462000a0557806323cca69c1462000763578063296cb0511462000857578063366d6a8d14620008c75780633aa0dff214620008575780635183d6fd14620007ec5780636c3fda1d14620007a557806373a6b2be1462000763578063a1d34a4214620005e1578063a98e4e7714620005c0578063b660348b146200055c578063c575e75c14620003cb578063c59d4847146200037c578063c7ea4d441462000354578063c8e9b3e71462000315578063d90bee291462000315578063de28735914620002eb5763ecfe28e91462000102575f80fd5b34620002e7576060366003190112620002e7576001600160401b03918135838111620002e75762000137903690840162000fba565b93620001426200105d565b92604435938585168503620002e3578354906200016187831662001194565b949687956001600160a01b0393861c84169190875b8151811015620002ce5786836200018e838562001129565b518a51636bf8e80f60e01b815291166001600160401b031691810191825233602080840191909152918290829081906040010381895afa918215620002c4578b9262000290575b5050620001ed57620001e790620010f8565b62000176565b50505050819395979294965062000205600162001158565b169283865260026020528285872054166200027957506200024a6020967fbd6cb331a9823fece502bb26d9fb7134655a6c59adf461eeec2a5699618cbb71926200127a565b91838652600287528486209216938492836bffffffffffffffffffffffff60a01b825416179055519480a38152f35b84516306d7758360e21b8152908101849052602490fd5b620002b49250803d10620002bc575b620002ab818362000f6c565b8101906200113e565b5f80620001d5565b503d6200029f565b8a513d8d823e3d90fd5b50505050620002058294969893959762001158565b8380fd5b5080fd5b828434620002e75781600319360112620002e75790548151911c6001600160a01b03168152602090f35b828434620002e7576020366003190112620002e7576020916001600160a01b03908290826200034362001074565b168152600285522054169051908152f35b828434620002e75781600319360112620002e7576001600160401b0360209254169051908152f35b505034620003c85780600319360112620003c85760035490805b828110620003ab575082519182526020820152f35b90620003bb620003c291620010f8565b91620010f8565b62000396565b80fd5b50829034620005585760209081600319360112620002e357620003ed62001074565b928454926001600160401b03946200040786861662001194565b87966001600160a01b0396851c871691885b815181101562000543576200046786898562000436858762001129565b518b51636bf8e80f60e01b815291166001600160401b03169181019182523360208301529283918291604090910190565b0381885afa90811562000539578c9162000517575b5062000493576200048d90620010f8565b62000419565b50505050849550620004ab6001959293949562001158565b169384865260028252828620541692831562000500575083855260029052832080546001600160a01b03191690557fb672a53aadd551497746cb0c51934652c4060ddf24fae83ea52e0e6fb7349f5c8380a380f35b82516325abcd9160e11b8152908101869052602490fd5b620005329150873d8911620002bc57620002ab818362000f6c565b8c6200047c565b88513d8e823e3d90fd5b50505050620004ab8596959293949562001158565b8280fd5b50919034620003c85781600319360112620003c8576001600160401b039280358481116200055857620005929136910162000fba565b906024359384168403620003c85750602092620005af916200127a565b90516001600160a01b039091168152f35b828434620002e75781600319360112620002e7576020906003549051908152f35b50829034620005585760209182600319360112620002e3578135916001600160401b03938484168094036200075f578554926200062086851662001194565b879685831c6001600160a01b031691885b81518110156200074b576200067f86846200064d848662001129565b518851636bf8e80f60e01b815291166001600160401b03168a8201908152336020820152909283918291604090910190565b0381885afa90811562000741578c916200071f575b50620006ab57620006a590620010f8565b62000631565b50505050909192939450620006c1600162001158565b60068511620006de5750505067ffffffffffffffff191617815580f35b5162461bcd60e51b815291820181905260248201527f496e76616c696420636f6e74726f6c20616c6c6f77206c697374206c6576656c604482015260649150fd5b6200073a9150873d8911620002bc57620002ab818362000f6c565b8c62000694565b86513d8e823e3d90fd5b505050509091929394620006c19062001158565b8580fd5b5082903462000558576020366003190112620005585760209260ff918391906001600160a01b036200079462001074565b168252855220541690519015158152f35b508290346200055857602036600319011262000558573591600354831015620003c85750620007d6602092620010ae565b60018060a01b0391549060031b1c169051908152f35b509034620003c8576020366003190112620003c857508035906003548210156200081e57602083620007d684620010ae565b606490602084519162461bcd60e51b83528201526013602482015272496e646578206f7574206f6620626f756e647360681b6044820152fd5b50919034620003c8576020366003190112620003c8578235906001600160401b038211620003c85750602092620008919136910162000fba565b82620008a6835192838151938492016200108b565b6001908201908152819003830190205490516001600160a01b039091168152f35b5082346200055857806003193601126200055857813560249081359182821015620009d35760039586548411620009915782840393841162000981576200090e846200154f565b95815b8581106200092c57865180620009288a8262001018565b0390f35b8085018086116200096f5790620009476200096992620010ae565b9054908b1b1c6001600160a01b031662000962828b62001129565b52620010f8565b62000911565b5050634e487b7160e01b825260119052fd5b634e487b7160e01b815260118652fd5b845162461bcd60e51b81526020818801526017818401527f456e6420696e646578206f7574206f6620626f756e64730000000000000000006044820152606490fd5b84600d606492602087519362461bcd60e51b85528401528201526c496e76616c69642072616e676560981b6044820152fd5b5082903462000558578160031936011262000558576001600160401b0391813583811162000bfe5762000a3c903690840162000fba565b9062000a476200105d565b9285549362000a5886861662001194565b87966001600160a01b0396851c871691885b815181101562000bea5762000aba8362000a85838562001129565b518951636bf8e80f60e01b815291166001600160401b0316888201908152336020808301919091529283918391829160400190565b0381895afa91821562000be0578d9262000bbe575b505062000ae75762000ae190620010f8565b62000a6a565b5050505090919293945062000afd600162001158565b848351602081875162000b148183858c016200108b565b81016001815203019020541693841562000b9557508416938486526002602052828620541662000b8057508284526002602052832080546001600160a01b031916821790557fbd6cb331a9823fece502bb26d9fb7134655a6c59adf461eeec2a5699618cbb718380a380f35b8360249251916306d7758360e21b8352820152fd5b62000bba9150602093519384936313032d4560e01b8552840152602483019062001528565b0390fd5b62000bd89250803d10620002bc57620002ab818362000f6c565b8c8062000acf565b89513d8f823e3d90fd5b50505050909192939462000afd9062001158565b8480fd5b509134620002e75780600319360112620002e7578235906001600160401b0393848311620002e35736602384011215620002e357828101359362000c468562000fa2565b9362000c558451958662000f6c565b8585526020908186016024809860051b8301019136831162000bfe57888101915b83831062000f4257505050508535908782116200055857366023830112156200055857818401359162000ca98362000fa2565b9262000cb88751948562000f6c565b808452888385019160051b830101913683116200075f578901905b82821062000f245750505082549362000cee89861662001194565b93976001600160a01b0395899590881c871690865b8c825182101562000f0d578662000d529162000d20848662001129565b518d51636bf8e80f60e01b815291166001600160401b0316888201908152336020820152909283918291604090910190565b0381875afa90811562000f0357908e9392918a9162000ee1575b5062000d865762000d7d90620010f8565b90915062000d03565b5050505090919293949596975062000d9f600162001158565b875184510362000ea95762000db588516200154f565b98855b895181101562000e9a5762000e048562000dd3838d62001129565b518b8562000de2868c62001129565b51168151948593849363b660348b60e01b85528b850152604484019062001528565b908883015203818b305af190811562000e905790898d93928a9262000e45575b5062000e358362000e3f9562001129565b91169052620010f8565b62000db8565b92935050508581813d831162000e88575b62000e62818362000f6c565b8101031262000e845751888116810362000e84578b91908962000e3562000e24565b8780fd5b503d62000e56565b8a513d8a823e3d90fd5b885180620009288d8262001018565b60159060649388519362461bcd60e51b855284015282015274082e4e4c2f240d8cadccee8d040dad2e6dac2e8c6d605b1b6044820152fd5b62000efc9150883d8a11620002bc57620002ab818362000f6c565b5f62000d6c565b8b513d8b823e3d90fd5b50505050909192939495969762000d9f9062001158565b81358b8116810362000f3e57815290830190830162000cd3565b8680fd5b82358b811162000f3e57859162000f6083928d369187010162000fba565b81520192019162000c76565b90601f801991011681019081106001600160401b0382111762000f8e57604052565b634e487b7160e01b5f52604160045260245ffd5b6001600160401b03811162000f8e5760051b60200190565b81601f8201121562001014578035906001600160401b03821162000f8e576040519262000ff2601f8401601f19166020018562000f6c565b828452602083830101116200101457815f926020809301838601378301015290565b5f80fd5b602090816040818301928281528551809452019301915f5b8281106200103f575050505090565b83516001600160a01b03168552938101939281019260010162001030565b602435906001600160a01b03821682036200101457565b600435906001600160a01b03821682036200101457565b5f5b8381106200109d5750505f910152565b81810151838201526020016200108d565b600354811015620010e45760035f527fc2575a0e9e593c00f959f8c92f12db2869c3395a3b0502d05e2516446f71f85b01905f90565b634e487b7160e01b5f52603260045260245ffd5b5f198114620011075760010190565b634e487b7160e01b5f52601160045260245ffd5b805115620010e45760200190565b8051821015620010e45760209160051b010190565b908160209103126200101457518015158103620010145790565b156200116057565b60405162461bcd60e51b815260206004820152600c60248201526b155b985d5d1a1bdc9a5e995960a21b6044820152606490fd5b6001600160401b03908116620011d7576040519060408201908282109082111762000f8e5760405260018152602036818301375f620011d3826200111b565b5290565b6040519060e082019081118282101762000f8e576040526006815260c03660208301375f8062001207836200111b565b528151600110156200126657600160408301528151600210156200126657600260608301528151600310156200126657600360808301528151600410156200126657600560a0830152815160051015620012665750600660c082015290565b634e487b7160e01b81526032600452602490fd5b90915f9283546001600160401b036200129581831662001194565b6001600160a01b03604093841c811697969094918790815b81518110156200151457620013018b87620012c9848662001129565b518a51636bf8e80f60e01b815291166001600160401b0316600482015233602482015260209290918391839190829081906044820190565b03915afa9182156200150a578592620014e8575b50506200132d576200132790620010f8565b620012ad565b5050909192939495965062001343600162001158565b845193825193876020968781818801986200136081838c6200108b565b810160018152030190205416620014c557865191611f63918284019284841083851117620014b157918493918a9b9c9d9362001588863960608352620013aa606084018962001528565b938a84015216998a910152039082f08015620014a557871696855185818551620013d681838a6200108b565b81016001815203019020886bffffffffffffffffffffffff60a01b825416179055600354680100000000000000008110156200149157928662001481937f6a79bed52a171a1b3c9c0d9e05e494e9e47c16eb5c1e2767fdf15c8666826a9196936200144a8760018e9b9901600355620010ae565b819291549060031b918b831b921b19161790558781526004865220600160ff1982541617905586519283928392519283916200108b565b810103902093519485523394a490565b634e487b7160e01b83526041600452602483fd5b508451903d90823e3d90fd5b634e487b7160e01b86526041600452602486fd5b865163131cc8af60e31b8152600481018790528062000bba602482018762001528565b620015029250803d10620002bc57620002ab818362000f6c565b5f8062001315565b89513d87823e3d90fd5b505090919293949596620013439062001158565b9060209162001543815180928185528580860191016200108b565b601f01601f1916010190565b906200155b8262000fa2565b6200156a604051918262000f6c565b82815280926200157d601f199162000fa2565b019060203691013756fe6080604052346200029b5762001f63803803806200001d81620002b4565b9283398101906060818303126200029b5780516001600160401b0391908281116200029b57810192601f908082860112156200029b578451928484116200024457602093601f19966200007686898785011601620002b4565b938285528683830101116200029b5785905f5b8381106200029f5750505f918401015280840151906001600160a01b03821682036200029b57604001518581168091036200029b576006811162000258575f549168010000000000000000600160e01b039060401b169163ffffffff60e01b1617175f5560019283805560ff1960035416600355815194851162000244576002548481811c9116801562000239575b828210146200022557838111620001dc575b5080928511600114620001755750839450908392915f9462000169575b50501b915f199060031b1c1916176002555b604051611c889081620002db8239f35b015192505f8062000147565b92948490811660025f52845f20945f905b88838310620001c15750505010620001a8575b505050811b0160025562000159565b01515f1960f88460031b161c191690555f808062000199565b85870151885590960195948501948793509081019062000186565b60025f52815f208480880160051c8201928489106200021b575b0160051c019085905b8281106200020f5750506200012a565b5f8155018590620001ff565b92508192620001f6565b634e487b7160e01b5f52602260045260245ffd5b90607f169062000118565b634e487b7160e01b5f52604160045260245ffd5b6064856040519062461bcd60e51b825280600483015260248201527f496e76616c696420636f6e74726f6c20616c6c6f77206c697374206c6576656c6044820152fd5b5f80fd5b81810183015186820184015287920162000089565b6040519190601f01601f191682016001600160401b03811183821017620002445760405256fe60406080815260048036101561004b575b50361561001b575f80fd5b807f9936746a4565f9766fa768f88f56a7487c78780ac179562773d1c75c5269537e9151338152346020820152a1005b5f90813560e01c90816328cafd721461178557816331b3203a1461146e57816342c8afad146110e9578163431d8ffe14610e8c578163439e2e4514610ed557816344eb5e0014610e8c5781634743c2fd14610e5f57816347e7ef2414610cac57816352226ef014610c8e578163526966011461067e5781635e7db13d14610ad957816369328dec146106c75781638e543a121461067e578163a1d34a4214610515578163a7efe34814610321578163b2567d1f146101ed57508063c7ea4d44146101c7578063dce83ae31461017e578063de287359146101565763e9ea28de0361001057903461015257816003193601126101525760209060ff6003541690519015158152f35b5080fd5b50903461015257816003193601126101525790548151911c6001600160a01b03168152602090f35b5090346101525780600319360112610152578060209261019c61193d565b6101a4611957565b6001600160a01b0391821683526006865283832091168252845220549051908152f35b5090346101525781600319360112610152576001600160401b0360209254169051908152f35b9050823461031d576020908160031936011261031957823591821515809303610315578454936001600160401b0394610227868216611a89565b879691851c6001600160a01b03169190875b815181101561030457610283868461025184866119ed565b518a51636bf8e80f60e01b815291166001600160401b0316888201908152336020820152909283918291604090910190565b0381885afa9081156102fa578b916102cd575b506102a9576102a4906119aa565b610239565b5050505050505090506102bc6001611a4e565b60ff80196003541691161760035580f35b6102ed9150873d89116102f3575b6102e58183611a01565b810190611a36565b8b610296565b503d6102db565b88513d8d823e3d90fd5b50505050505050906102bc90611a4e565b8480fd5b8380fd5b8280fd5b9050823461031d57602091826003193601126103195761033f61193d565b918454936001600160401b0394610357868216611a89565b87966001600160a01b0392851c831691885b8151811015610503576103b386898561038285876119ed565b518b51636bf8e80f60e01b815291166001600160401b03169181019182523360208301529283918291604090910190565b0381885afa9081156104f9578c916104dc575b506103d9576103d4906119aa565b610369565b505050509091929394506103ed6001611a4e565b825163248a35ef60e11b81523085820152941660248501819052938181604481896101675af19182156104d257906016929187926104a5575b505060070b036104595750507fbbbf805ef99ca7d0b7d2cc769719f2a281c9b3331a3642efa75a712e3094a1668280a280f35b5162461bcd60e51b8152915081906104a19082016060906020815260196020820152782330b4b632b2103a379030b9b9b7b1b4b0ba32903a37b5b2b760391b60408201520190565b0390fd5b6104c49250803d106104cb575b6104bc8183611a01565b810190611b63565b8680610426565b503d6104b2565b83513d88823e3d90fd5b6104f39150873d89116102f3576102e58183611a01565b8c6103c6565b88513d8e823e3d90fd5b5050505090919293946103ed90611a4e565b8391503461031d5760209182600319360112610319578135916001600160401b039384841680940361067a5785549261054f868516611a89565b879685831c6001600160a01b031691885b8151811015610668576105aa868461057884866119ed565b518851636bf8e80f60e01b815291166001600160401b03168a8201908152336020820152909283918291604090910190565b0381885afa90811561065e578c91610641575b506105d0576105cb906119aa565b610560565b505050509091929394506105e46001611a4e565b600685116106005750505067ffffffffffffffff191617815580f35b5162461bcd60e51b815291820181905260248201527f496e76616c696420636f6e74726f6c20616c6c6f77206c697374206c6576656c604482015260649150fd5b6106589150873d89116102f3576102e58183611a01565b8c6105bd565b86513d8e823e3d90fd5b5050505090919293946105e490611a4e565b8580fd5b8284346101525780600319360112610152578060209261069c61193d565b6106a4611957565b6001600160a01b0391821683526005865283832091168252845220549051908152f35b8391503461031d57606036600319011261031d576106e361193d565b6001600160a01b0390604435828116919060243590839003610ad5578654956001600160401b0395610716878916611a89565b8998831c871690895b8151811015610ac2578b8a61073483856119ed565b518751636bf8e80f60e01b815291166001600160401b031686820190815233602080830191909152908190839081906040010381895afa928315610ab75792610a9a575b505061078c57610787906119aa565b61071f565b50505090919293949596506107a16001611a4e565b6107a9611b7c565b87546107b6888216611a89565b978998888b93861c16925b8151811015610a87578b836107d683856119ed565b518851636bf8e80f60e01b815291166001600160401b0316878201908152336020808301919091529081908390819060400103818a5afa928315610a7c5792610a5f575b505061082e57610829906119aa565b6107c1565b50505050909192939495506108436001611a4e565b61084b611b7c565b815163e1f21c6760e01b81526001600160a01b038516828201908152306020828101919091526040820186905291979195908890606001039786816101679a818d8d5af1908115610a5557906016918b91610a38575b5060070b036109f2576108b381611bac565b851161099e5788916084879286519485938492630aed65f560e11b8452169b8c888401523060248401528b60448401528960648401525af190811561099457906016918991610977575b5060070b036109365750519081527f645e52ee0ce5c05d60f4b051028f29630be7001f5d84cba67fe6872db872cff89190a36001805580f35b83606492519162461bcd60e51b8352820152601960248201527f4661696c656420746f207472616e7366657220617373657473000000000000006044820152fd5b61098e9150863d88116104cb576104bc8183611a01565b896108fd565b83513d8a823e3d90fd5b835162461bcd60e51b8152808401879052602860248201527f696e73756666696369656e742061737365747320746f20636f6d706c657465206044820152673a3930b739b332b960c11b6064820152608490fd5b835162461bcd60e51b8152806104a18186016060906020815260196020820152782330b4b632b2103a379030b9b9b7b1b4b0ba32903a37b5b2b760391b60408201520190565b610a4f9150883d8a116104cb576104bc8183611a01565b8b6108a1565b85513d8c823e3d90fd5b610a759250803d106102f3576102e58183611a01565b8d8061081a565b8951903d90823e3d90fd5b5050505090919293949561084390611a4e565b610ab09250803d106102f3576102e58183611a01565b8d80610778565b8851903d90823e3d90fd5b505050909192939495966107a190611a4e565b8680fd5b838334610c8b5781600319360112610c8b57610af361193d565b916024359082546001600160401b0394610b0e868316611a89565b949586956001600160a01b0393851c84169190875b8151811015610c79578a83610b3883856119ed565b518951636bf8e80f60e01b815291166001600160401b031691810191825233602080840191909152918290829081906040010381895afa918215610c6f57908d9695949392918c92610c52575b5050610b9e57610b94906119aa565b9091929350610b23565b5050505050909192939450610bb36001611a4e565b1691828452846020528184205494858211610c0f57610bf5827faa3cec92d25e6e7cf3bf119de96782be90a19b7f9d717dc51e03d3f8f8aa22b1959697611b9f565b90858752602052808387205582519182526020820152a280f35b606490602084519162461bcd60e51b8352820152601e60248201527f43616e6e6f7420756e6c6f636b206d6f7265207468616e206c6f636b656400006044820152fd5b610c689250803d106102f3576102e58183611a01565b8d80610b85565b89513d8d823e3d90fd5b505050509091929394610bb390611a4e565b80fd5b8284346101525780600319360112610152578060209261019c61193d565b9050828060031936011261031d57610cc261193d565b815163e1f21c6760e01b81526001600160a01b03821684820190815233602082810191909152602435604083018190529094939092909181906060010390858161016793818b865af1908115610e5557906016918991610e38575b5060070b03610df557835163eca3691760e01b81526001600160a01b03909216868301523360248301523060448301526001600160401b0390921660070b60648201529083908290608490829089905af1908115610deb57906016918691610dce575b5060070b03610d8d578380f35b5162461bcd60e51b815291820152601860248201527f4661696c656420746f207472616e7366657220746f6b656e0000000000000000604482015260649150fd5b610de59150843d86116104cb576104bc8183611a01565b86610d80565b82513d87823e3d90fd5b835162461bcd60e51b8152808701869052601760248201527f4661696c656420746f20617070726f766520746f6b656e0000000000000000006044820152606490fd5b610e4f9150873d89116104cb576104bc8183611a01565b89610d1d565b85513d8a823e3d90fd5b82843461015257602036600319011261015257602090610e85610e8061193d565b611bac565b9051908152f35b82843461015257806003193601126101525780602092610eaa61193d565b610eb2611957565b6001600160a01b0391821683526007865283832091168252845220549051908152f35b9050823461031d57606036600319011261031d57610ef161193d565b90610efa611957565b6044358554926001600160401b0395610f14878616611a89565b88976001600160a01b0396841c871691895b81518110156110d6578b83610f3b83856119ed565b518851636bf8e80f60e01b815291166001600160401b0316878201908152336020808301919091529081908390819060400103818a5afa928315610a7c57926110b9575b5050610f9357610f8e906119aa565b610f26565b5050505090919293949550610fa86001611a4e565b610fb0611b7c565b815163e1f21c6760e01b81526001600160a01b0385168282019081523060208281019190915260408201869052919691959087906060010396868161016799818d8c5af1908115610a5557906016918b9161109c575b5060070b036109f25761101881611bac565b851161099e5781608487928b87519586948593630aed65f560e11b8552169c8d89850152306024850152169a8b60448401528960648401525af190811561099457906016918991610977575060070b036109365750519081527f645e52ee0ce5c05d60f4b051028f29630be7001f5d84cba67fe6872db872cff89190a36001805580f35b6110b39150883d8a116104cb576104bc8183611a01565b8b611006565b6110cf9250803d106102f3576102e58183611a01565b8d80610f7f565b50505050909192939495610fa890611a4e565b8391503461031d576110fa3661196d565b92939591908754936001600160401b0396611116888716611a89565b8a996001600160a01b0397909190871c8816908b5b8151811015611458578d8c61114083856119ed565b518b51636bf8e80f60e01b815291166001600160401b031687820190815233602080830191909152908190839081906040010381895afa92831561144d5792611430575b505061119857611193906119aa565b61112b565b50505086979899506111b1600197929394959697611a4e565b1695868a526020926005845281878c20991698898c52845285878c2054106113f957878b5260058452868b20898c528452868b206111f0878254611b9f565b9055878b5260068452868b20898c528452868b2061120f868254611b9f565b9055878b5260058452868b20898c528452868b20546113e05750868a5260078352858a20888b5283528986812055975b89549061124d818316611a89565b8b9a8c93891c16925b81518110156113cc578c6112a1878561126f85876119ed565b518d51636bf8e80f60e01b815291166001600160401b0316898201908152336020820152909283918291604090910190565b0381895afa9182156113c157916113a4575b506112c6576112c1906119aa565b611256565b5050505090919293949596506112dc6001611a4e565b86885280825284882054808411611362577faa3cec92d25e6e7cf3bf119de96782be90a19b7f9d717dc51e03d3f8f8aa22b1868594936113407fa6f6d5e50bc84f153a0d6a9f9b37780433f92dc32d7e10f975ab3831c36898fa9998978c95611b9f565b90848d52855280828d205581519086825285820152a28351928352820152a380f35b5060649185519162461bcd60e51b8352820152601e60248201527f43616e6e6f7420756e6c6f636b206d6f7265207468616e206c6f636b656400006044820152fd5b6113bb9150873d89116102f3576102e58183611a01565b8e6112b3565b8b51903d90823e3d90fd5b50505050909192939495966112dc90611a4e565b878b5260078452868b20898c528452868b20559761123f565b865162461bcd60e51b815280840185905260116024820152704e6f206c6f616e7320746f20726570617960781b6044820152606490fd5b6114469250803d106102f3576102e58183611a01565b8f80611184565b8c51903d90823e3d90fd5b5050506111b18798999a97929394959697611a4e565b9050823461031d5761147f3661196d565b90939592948754946001600160401b039661149b888816611a89565b8a996001600160a01b0398909190851c8916908b5b8151811015611770578d8c6114c583856119ed565b518951636bf8e80f60e01b815291166001600160401b03168c820190815233602080830191909152908190839081906040010381895afa9283156117655792611748575b505061151d57611518906119aa565b6114b0565b50505087989950611539600198929394959697989a999a611a4e565b1695868a52602091600583528a858120998b83169a8b835285528682206115618a8254611c45565b9055898252600685528682208b83528552868220611580878254611c45565b9055898252600785528682208b83528552878783205581546115a3828216611a89565b90839d84918a1c16935b825182101561172f576115f788856115c585876119ed565b518d51636bf8e80f60e01b815291166001600160401b03168a8201908152336020820152909283918291604090910190565b0381895afa9182156113c15791611712575b5061161d57611617906119aa565b8e6115ad565b5050505061163891929394959697989950610e806001611a4e565b83116116c357917f7695c943e86fe119073b098f1b278727c236f4a661c96a660dacbf88f89c606795939160609593898b52808252838b2061167b848254611c45565b9055898b528152887fb8cecfd0e38e35fdd1cbaa8877116ea7f0dc948c1317b8ce1a47eaedfe64154684808d205481519086825285820152a28251948552840152820152a380f35b60849184519162461bcd60e51b8352820152602560248201527f496e73756666696369656e7420756e6c6f636b65642062616c616e636520746f604482015264206c6f636b60d81b6064820152fd5b6117299150883d8a116102f3576102e58183611a01565b5f611609565b5050505050610e8061163892939495969798999a611a4e565b61175e9250803d106102f3576102e58183611a01565b8f80611509565b8a51903d90823e3d90fd5b505050611539889a9892939495969798611a4e565b8391503461031d578160031936011261031d576117a061193d565b9160243584546001600160401b03946117ba868316611a89565b87966001600160a01b0393861c841691885b815181101561192b5788836117e183856119ed565b518a51636bf8e80f60e01b815291166001600160401b031691810191825233602080840191909152918290829081906040010381895afa918215611921578d92611904575b505061183a57611835906119aa565b6117cc565b5050505090919293945061184e6001611a4e565b61185781611bac565b83116118b357907fb8cecfd0e38e35fdd1cbaa8877116ea7f0dc948c1317b8ce1a47eaedfe641546939291169384865280602052828620611899838254611c45565b90558486526020528185205482519182526020820152a280f35b835162461bcd60e51b8152602081870152602560248201527f496e73756666696369656e7420756e6c6f636b65642062616c616e636520746f604482015264206c6f636b60d81b6064820152608490fd5b61191a9250803d106102f3576102e58183611a01565b8c80611826565b8a513d8f823e3d90fd5b50505050909192939461184e90611a4e565b600435906001600160a01b038216820361195357565b5f80fd5b602435906001600160a01b038216820361195357565b60a0906003190112611953576001600160a01b03906004358281168103611953579160243590811681036119535790604435906064359060843590565b5f1981146119b85760010190565b634e487b7160e01b5f52601160045260245ffd5b8051156119d95760200190565b634e487b7160e01b5f52603260045260245ffd5b80518210156119d95760209160051b010190565b90601f801991011681019081106001600160401b03821117611a2257604052565b634e487b7160e01b5f52604160045260245ffd5b90816020910312611953575180151581036119535790565b15611a5557565b60405162461bcd60e51b815260206004820152600c60248201526b155b985d5d1a1bdc9a5e995960a21b6044820152606490fd5b6001600160401b03908116611ac85760405190604082019082821090821117611a225760405260018152602036818301375f611ac4826119cc565b5290565b6040519060e0820190811182821017611a22576040526006815260c03660208301375f80611af5836119cc565b52815160011015611b4f5760016040830152815160021015611b4f5760026060830152815160031015611b4f5760036080830152815160041015611b4f57600560a0830152815160051015611b4f5750600660c082015290565b634e487b7160e01b81526032600452602490fd5b9081602091031261195357518060070b81036119535790565b600260015414611b8d576002600155565b604051633ee5aeb560e01b8152600490fd5b919082039182116119b857565b60018060a01b03165f90808252600460205260246020604084205492604051928380926370a0823160e01b82523060048301525afa908115611c3a578391611c09575b50808211611c0457611c019250611b9f565b90565b505090565b90506020813d8211611c32575b81611c2360209383611a01565b8101031261031d57515f611bef565b3d9150611c16565b6040513d85823e3d90fd5b919082018092116119b85756fea2646970667358221220ace5d580b46ce805d5f16a7d778b0d885e06e7fc05e285dfb64e6f7540c7c74964736f6c63430008140033a264697066735822122082f56a8eaa96b00287af0103fad95fdbadfee450ec8e82184b09a3617a58f83664736f6c63430008140033","linkReferences":{}},"methodIdentifiers":{"accountsByController(string)":"3aa0dff2","accountsByUser(address)":"d90bee29","acl()":"de287359","allAccounts(uint256)":"6c3fda1d","batchCreateAccounts(string[],uint64[])":"069a9ac9","controlAllowList()":"c7ea4d44","createAccount(string,uint64)":"b660348b","createAccountForUser(string,address,uint64)":"ecfe28e9","getAccountAtIndex(uint256)":"5183d6fd","getAccountByController(string)":"296cb051","getAccountByUser(address)":"c8e9b3e7","getAccountCount()":"a98e4e77","getAccountsRange(uint256,uint256)":"366d6a8d","getStats()":"c59d4847","isAccountValid(address)":"73a6b2be","isValidAccount(address)":"23cca69c","linkAccountToUser(string,address)":"0dd58803","setControlAllowList(uint64)":"a1d34a42","unlinkUserFromAccount(address)":"c575e75c"},"id":22}